{
  "_format": "hh-sol-artifact-1",
  "contractName": "ERC20ExcessDecimalsMock",
  "sourceName": "contracts/oz_contracts/mocks/token/ERC20ExcessDecimalsMock.sol",
  "abi": [
    {
      "inputs": [],
      "name": "decimals",
      "outputs": [
        {
          "internalType": "uint256",
          "name": "",
          "type": "uint256"
        }
      ],
      "stateMutability": "pure",
      "type": "function"
    }
  ],
  "bytecode": "0x608060405234801561001057600080fd5b5060d58061001f6000396000f3fe6080604052348015600f57600080fd5b506004361060285760003560e01c8063313ce56714602d575b600080fd5b60336047565b604051603e91906086565b60405180910390f35b60007fffffffffffffffffffffffffffffffffffffffffffffffffffffffffffffffff905090565b6000819050919050565b608081606f565b82525050565b6000602082019050609960008301846079565b9291505056fea26469706673582212207c7532cec949714c9600a804f51abb19b9702d71ec87892dfce0c9f1431da0a164736f6c63430008090033",
  "linkReferences": {},
  "deployedLinkReferences": {}
}