{
  "_format": "hh-sol-artifact-1",
  "contractName": "MyGovernor1",
  "sourceName": "contracts/oz_contracts/mocks/wizard/MyGovernor1.sol",
  "abi": [
    {
      "inputs": [
        {
          "internalType": "contract IVotes",
          "name": "_token",
          "type": "address"
        },
        {
          "internalType": "contract TimelockController",
          "name": "_timelock",
          "type": "address"
        }
      ],
      "stateMutability": "nonpayable",
      "type": "constructor"
    },
    {
      "inputs": [],
      "name": "Empty",
      "type": "error"
    },
    {
      "inputs": [],
      "name": "InvalidShortString",
      "type": "error"
    },
    {
      "inputs": [
        {
          "internalType": "string",
          "name": "str",
          "type": "string"
        }
      ],
      "name": "StringTooLong",
      "type": "error"
    },
    {
      "anonymous": false,
      "inputs": [],
      "name": "EIP712DomainChanged",
      "type": "event"
    },
    {
      "anonymous": false,
      "inputs": [
        {
          "indexed": false,
          "internalType": "uint256",
          "name": "proposalId",
          "type": "uint256"
        }
      ],
      "name": "ProposalCanceled",
      "type": "event"
    },
    {
      "anonymous": false,
      "inputs": [
        {
          "indexed": false,
          "internalType": "uint256",
          "name": "proposalId",
          "type": "uint256"
        },
        {
          "indexed": false,
          "internalType": "address",
          "name": "proposer",
          "type": "address"
        },
        {
          "indexed": false,
          "internalType": "address[]",
          "name": "targets",
          "type": "address[]"
        },
        {
          "indexed": false,
          "internalType": "uint256[]",
          "name": "values",
          "type": "uint256[]"
        },
        {
          "indexed": false,
          "internalType": "string[]",
          "name": "signatures",
          "type": "string[]"
        },
        {
          "indexed": false,
          "internalType": "bytes[]",
          "name": "calldatas",
          "type": "bytes[]"
        },
        {
          "indexed": false,
          "internalType": "uint256",
          "name": "voteStart",
          "type": "uint256"
        },
        {
          "indexed": false,
          "internalType": "uint256",
          "name": "voteEnd",
          "type": "uint256"
        },
        {
          "indexed": false,
          "internalType": "string",
          "name": "description",
          "type": "string"
        }
      ],
      "name": "ProposalCreated",
      "type": "event"
    },
    {
      "anonymous": false,
      "inputs": [
        {
          "indexed": false,
          "internalType": "uint256",
          "name": "proposalId",
          "type": "uint256"
        }
      ],
      "name": "ProposalExecuted",
      "type": "event"
    },
    {
      "anonymous": false,
      "inputs": [
        {
          "indexed": false,
          "internalType": "uint256",
          "name": "proposalId",
          "type": "uint256"
        },
        {
          "indexed": false,
          "internalType": "uint256",
          "name": "eta",
          "type": "uint256"
        }
      ],
      "name": "ProposalQueued",
      "type": "event"
    },
    {
      "anonymous": false,
      "inputs": [
        {
          "indexed": false,
          "internalType": "uint256",
          "name": "oldQuorumNumerator",
          "type": "uint256"
        },
        {
          "indexed": false,
          "internalType": "uint256",
          "name": "newQuorumNumerator",
          "type": "uint256"
        }
      ],
      "name": "QuorumNumeratorUpdated",
      "type": "event"
    },
    {
      "anonymous": false,
      "inputs": [
        {
          "indexed": false,
          "internalType": "address",
          "name": "oldTimelock",
          "type": "address"
        },
        {
          "indexed": false,
          "internalType": "address",
          "name": "newTimelock",
          "type": "address"
        }
      ],
      "name": "TimelockChange",
      "type": "event"
    },
    {
      "anonymous": false,
      "inputs": [
        {
          "indexed": true,
          "internalType": "address",
          "name": "voter",
          "type": "address"
        },
        {
          "indexed": false,
          "internalType": "uint256",
          "name": "proposalId",
          "type": "uint256"
        },
        {
          "indexed": false,
          "internalType": "uint8",
          "name": "support",
          "type": "uint8"
        },
        {
          "indexed": false,
          "internalType": "uint256",
          "name": "weight",
          "type": "uint256"
        },
        {
          "indexed": false,
          "internalType": "string",
          "name": "reason",
          "type": "string"
        }
      ],
      "name": "VoteCast",
      "type": "event"
    },
    {
      "anonymous": false,
      "inputs": [
        {
          "indexed": true,
          "internalType": "address",
          "name": "voter",
          "type": "address"
        },
        {
          "indexed": false,
          "internalType": "uint256",
          "name": "proposalId",
          "type": "uint256"
        },
        {
          "indexed": false,
          "internalType": "uint8",
          "name": "support",
          "type": "uint8"
        },
        {
          "indexed": false,
          "internalType": "uint256",
          "name": "weight",
          "type": "uint256"
        },
        {
          "indexed": false,
          "internalType": "string",
          "name": "reason",
          "type": "string"
        },
        {
          "indexed": false,
          "internalType": "bytes",
          "name": "params",
          "type": "bytes"
        }
      ],
      "name": "VoteCastWithParams",
      "type": "event"
    },
    {
      "inputs": [],
      "name": "BALLOT_TYPEHASH",
      "outputs": [
        {
          "internalType": "bytes32",
          "name": "",
          "type": "bytes32"
        }
      ],
      "stateMutability": "view",
      "type": "function"
    },
    {
      "inputs": [],
      "name": "CLOCK_MODE",
      "outputs": [
        {
          "internalType": "string",
          "name": "",
          "type": "string"
        }
      ],
      "stateMutability": "view",
      "type": "function"
    },
    {
      "inputs": [],
      "name": "COUNTING_MODE",
      "outputs": [
        {
          "internalType": "string",
          "name": "",
          "type": "string"
        }
      ],
      "stateMutability": "pure",
      "type": "function"
    },
    {
      "inputs": [],
      "name": "EXTENDED_BALLOT_TYPEHASH",
      "outputs": [
        {
          "internalType": "bytes32",
          "name": "",
          "type": "bytes32"
        }
      ],
      "stateMutability": "view",
      "type": "function"
    },
    {
      "inputs": [
        {
          "internalType": "address[]",
          "name": "targets",
          "type": "address[]"
        },
        {
          "internalType": "uint256[]",
          "name": "values",
          "type": "uint256[]"
        },
        {
          "internalType": "bytes[]",
          "name": "calldatas",
          "type": "bytes[]"
        },
        {
          "internalType": "bytes32",
          "name": "descriptionHash",
          "type": "bytes32"
        }
      ],
      "name": "cancel",
      "outputs": [
        {
          "internalType": "uint256",
          "name": "",
          "type": "uint256"
        }
      ],
      "stateMutability": "nonpayable",
      "type": "function"
    },
    {
      "inputs": [
        {
          "internalType": "uint256",
          "name": "proposalId",
          "type": "uint256"
        },
        {
          "internalType": "uint8",
          "name": "support",
          "type": "uint8"
        }
      ],
      "name": "castVote",
      "outputs": [
        {
          "internalType": "uint256",
          "name": "",
          "type": "uint256"
        }
      ],
      "stateMutability": "nonpayable",
      "type": "function"
    },
    {
      "inputs": [
        {
          "internalType": "uint256",
          "name": "proposalId",
          "type": "uint256"
        },
        {
          "internalType": "uint8",
          "name": "support",
          "type": "uint8"
        },
        {
          "internalType": "uint8",
          "name": "v",
          "type": "uint8"
        },
        {
          "internalType": "bytes32",
          "name": "r",
          "type": "bytes32"
        },
        {
          "internalType": "bytes32",
          "name": "s",
          "type": "bytes32"
        }
      ],
      "name": "castVoteBySig",
      "outputs": [
        {
          "internalType": "uint256",
          "name": "",
          "type": "uint256"
        }
      ],
      "stateMutability": "nonpayable",
      "type": "function"
    },
    {
      "inputs": [
        {
          "internalType": "uint256",
          "name": "proposalId",
          "type": "uint256"
        },
        {
          "internalType": "uint8",
          "name": "support",
          "type": "uint8"
        },
        {
          "internalType": "string",
          "name": "reason",
          "type": "string"
        }
      ],
      "name": "castVoteWithReason",
      "outputs": [
        {
          "internalType": "uint256",
          "name": "",
          "type": "uint256"
        }
      ],
      "stateMutability": "nonpayable",
      "type": "function"
    },
    {
      "inputs": [
        {
          "internalType": "uint256",
          "name": "proposalId",
          "type": "uint256"
        },
        {
          "internalType": "uint8",
          "name": "support",
          "type": "uint8"
        },
        {
          "internalType": "string",
          "name": "reason",
          "type": "string"
        },
        {
          "internalType": "bytes",
          "name": "params",
          "type": "bytes"
        }
      ],
      "name": "castVoteWithReasonAndParams",
      "outputs": [
        {
          "internalType": "uint256",
          "name": "",
          "type": "uint256"
        }
      ],
      "stateMutability": "nonpayable",
      "type": "function"
    },
    {
      "inputs": [
        {
          "internalType": "uint256",
          "name": "proposalId",
          "type": "uint256"
        },
        {
          "internalType": "uint8",
          "name": "support",
          "type": "uint8"
        },
        {
          "internalType": "string",
          "name": "reason",
          "type": "string"
        },
        {
          "internalType": "bytes",
          "name": "params",
          "type": "bytes"
        },
        {
          "internalType": "uint8",
          "name": "v",
          "type": "uint8"
        },
        {
          "internalType": "bytes32",
          "name": "r",
          "type": "bytes32"
        },
        {
          "internalType": "bytes32",
          "name": "s",
          "type": "bytes32"
        }
      ],
      "name": "castVoteWithReasonAndParamsBySig",
      "outputs": [
        {
          "internalType": "uint256",
          "name": "",
          "type": "uint256"
        }
      ],
      "stateMutability": "nonpayable",
      "type": "function"
    },
    {
      "inputs": [],
      "name": "clock",
      "outputs": [
        {
          "internalType": "uint48",
          "name": "",
          "type": "uint48"
        }
      ],
      "stateMutability": "view",
      "type": "function"
    },
    {
      "inputs": [],
      "name": "eip712Domain",
      "outputs": [
        {
          "internalType": "bytes1",
          "name": "fields",
          "type": "bytes1"
        },
        {
          "internalType": "string",
          "name": "name",
          "type": "string"
        },
        {
          "internalType": "string",
          "name": "version",
          "type": "string"
        },
        {
          "internalType": "uint256",
          "name": "chainId",
          "type": "uint256"
        },
        {
          "internalType": "address",
          "name": "verifyingContract",
          "type": "address"
        },
        {
          "internalType": "bytes32",
          "name": "salt",
          "type": "bytes32"
        },
        {
          "internalType": "uint256[]",
          "name": "extensions",
          "type": "uint256[]"
        }
      ],
      "stateMutability": "view",
      "type": "function"
    },
    {
      "inputs": [
        {
          "internalType": "address[]",
          "name": "targets",
          "type": "address[]"
        },
        {
          "internalType": "uint256[]",
          "name": "values",
          "type": "uint256[]"
        },
        {
          "internalType": "bytes[]",
          "name": "calldatas",
          "type": "bytes[]"
        },
        {
          "internalType": "bytes32",
          "name": "descriptionHash",
          "type": "bytes32"
        }
      ],
      "name": "execute",
      "outputs": [
        {
          "internalType": "uint256",
          "name": "",
          "type": "uint256"
        }
      ],
      "stateMutability": "payable",
      "type": "function"
    },
    {
      "inputs": [
        {
          "internalType": "address",
          "name": "account",
          "type": "address"
        },
        {
          "internalType": "uint256",
          "name": "timepoint",
          "type": "uint256"
        }
      ],
      "name": "getVotes",
      "outputs": [
        {
          "internalType": "uint256",
          "name": "",
          "type": "uint256"
        }
      ],
      "stateMutability": "view",
      "type": "function"
    },
    {
      "inputs": [
        {
          "internalType": "address",
          "name": "account",
          "type": "address"
        },
        {
          "internalType": "uint256",
          "name": "timepoint",
          "type": "uint256"
        },
        {
          "internalType": "bytes",
          "name": "params",
          "type": "bytes"
        }
      ],
      "name": "getVotesWithParams",
      "outputs": [
        {
          "internalType": "uint256",
          "name": "",
          "type": "uint256"
        }
      ],
      "stateMutability": "view",
      "type": "function"
    },
    {
      "inputs": [
        {
          "internalType": "uint256",
          "name": "proposalId",
          "type": "uint256"
        },
        {
          "internalType": "address",
          "name": "account",
          "type": "address"
        }
      ],
      "name": "hasVoted",
      "outputs": [
        {
          "internalType": "bool",
          "name": "",
          "type": "bool"
        }
      ],
      "stateMutability": "view",
      "type": "function"
    },
    {
      "inputs": [
        {
          "internalType": "address[]",
          "name": "targets",
          "type": "address[]"
        },
        {
          "internalType": "uint256[]",
          "name": "values",
          "type": "uint256[]"
        },
        {
          "internalType": "bytes[]",
          "name": "calldatas",
          "type": "bytes[]"
        },
        {
          "internalType": "bytes32",
          "name": "descriptionHash",
          "type": "bytes32"
        }
      ],
      "name": "hashProposal",
      "outputs": [
        {
          "internalType": "uint256",
          "name": "",
          "type": "uint256"
        }
      ],
      "stateMutability": "pure",
      "type": "function"
    },
    {
      "inputs": [],
      "name": "name",
      "outputs": [
        {
          "internalType": "string",
          "name": "",
          "type": "string"
        }
      ],
      "stateMutability": "view",
      "type": "function"
    },
    {
      "inputs": [
        {
          "internalType": "address",
          "name": "",
          "type": "address"
        },
        {
          "internalType": "address",
          "name": "",
          "type": "address"
        },
        {
          "internalType": "uint256[]",
          "name": "",
          "type": "uint256[]"
        },
        {
          "internalType": "uint256[]",
          "name": "",
          "type": "uint256[]"
        },
        {
          "internalType": "bytes",
          "name": "",
          "type": "bytes"
        }
      ],
      "name": "onERC1155BatchReceived",
      "outputs": [
        {
          "internalType": "bytes4",
          "name": "",
          "type": "bytes4"
        }
      ],
      "stateMutability": "nonpayable",
      "type": "function"
    },
    {
      "inputs": [
        {
          "internalType": "address",
          "name": "",
          "type": "address"
        },
        {
          "internalType": "address",
          "name": "",
          "type": "address"
        },
        {
          "internalType": "uint256",
          "name": "",
          "type": "uint256"
        },
        {
          "internalType": "uint256",
          "name": "",
          "type": "uint256"
        },
        {
          "internalType": "bytes",
          "name": "",
          "type": "bytes"
        }
      ],
      "name": "onERC1155Received",
      "outputs": [
        {
          "internalType": "bytes4",
          "name": "",
          "type": "bytes4"
        }
      ],
      "stateMutability": "nonpayable",
      "type": "function"
    },
    {
      "inputs": [
        {
          "internalType": "address",
          "name": "",
          "type": "address"
        },
        {
          "internalType": "address",
          "name": "",
          "type": "address"
        },
        {
          "internalType": "uint256",
          "name": "",
          "type": "uint256"
        },
        {
          "internalType": "bytes",
          "name": "",
          "type": "bytes"
        }
      ],
      "name": "onERC721Received",
      "outputs": [
        {
          "internalType": "bytes4",
          "name": "",
          "type": "bytes4"
        }
      ],
      "stateMutability": "nonpayable",
      "type": "function"
    },
    {
      "inputs": [
        {
          "internalType": "uint256",
          "name": "proposalId",
          "type": "uint256"
        }
      ],
      "name": "proposalDeadline",
      "outputs": [
        {
          "internalType": "uint256",
          "name": "",
          "type": "uint256"
        }
      ],
      "stateMutability": "view",
      "type": "function"
    },
    {
      "inputs": [
        {
          "internalType": "uint256",
          "name": "proposalId",
          "type": "uint256"
        }
      ],
      "name": "proposalEta",
      "outputs": [
        {
          "internalType": "uint256",
          "name": "",
          "type": "uint256"
        }
      ],
      "stateMutability": "view",
      "type": "function"
    },
    {
      "inputs": [
        {
          "internalType": "uint256",
          "name": "proposalId",
          "type": "uint256"
        }
      ],
      "name": "proposalProposer",
      "outputs": [
        {
          "internalType": "address",
          "name": "",
          "type": "address"
        }
      ],
      "stateMutability": "view",
      "type": "function"
    },
    {
      "inputs": [
        {
          "internalType": "uint256",
          "name": "proposalId",
          "type": "uint256"
        }
      ],
      "name": "proposalSnapshot",
      "outputs": [
        {
          "internalType": "uint256",
          "name": "",
          "type": "uint256"
        }
      ],
      "stateMutability": "view",
      "type": "function"
    },
    {
      "inputs": [],
      "name": "proposalThreshold",
      "outputs": [
        {
          "internalType": "uint256",
          "name": "",
          "type": "uint256"
        }
      ],
      "stateMutability": "view",
      "type": "function"
    },
    {
      "inputs": [
        {
          "internalType": "uint256",
          "name": "proposalId",
          "type": "uint256"
        }
      ],
      "name": "proposalVotes",
      "outputs": [
        {
          "internalType": "uint256",
          "name": "againstVotes",
          "type": "uint256"
        },
        {
          "internalType": "uint256",
          "name": "forVotes",
          "type": "uint256"
        },
        {
          "internalType": "uint256",
          "name": "abstainVotes",
          "type": "uint256"
        }
      ],
      "stateMutability": "view",
      "type": "function"
    },
    {
      "inputs": [
        {
          "internalType": "address[]",
          "name": "targets",
          "type": "address[]"
        },
        {
          "internalType": "uint256[]",
          "name": "values",
          "type": "uint256[]"
        },
        {
          "internalType": "bytes[]",
          "name": "calldatas",
          "type": "bytes[]"
        },
        {
          "internalType": "string",
          "name": "description",
          "type": "string"
        }
      ],
      "name": "propose",
      "outputs": [
        {
          "internalType": "uint256",
          "name": "",
          "type": "uint256"
        }
      ],
      "stateMutability": "nonpayable",
      "type": "function"
    },
    {
      "inputs": [
        {
          "internalType": "address[]",
          "name": "targets",
          "type": "address[]"
        },
        {
          "internalType": "uint256[]",
          "name": "values",
          "type": "uint256[]"
        },
        {
          "internalType": "bytes[]",
          "name": "calldatas",
          "type": "bytes[]"
        },
        {
          "internalType": "bytes32",
          "name": "descriptionHash",
          "type": "bytes32"
        }
      ],
      "name": "queue",
      "outputs": [
        {
          "internalType": "uint256",
          "name": "",
          "type": "uint256"
        }
      ],
      "stateMutability": "nonpayable",
      "type": "function"
    },
    {
      "inputs": [
        {
          "internalType": "uint256",
          "name": "blockNumber",
          "type": "uint256"
        }
      ],
      "name": "quorum",
      "outputs": [
        {
          "internalType": "uint256",
          "name": "",
          "type": "uint256"
        }
      ],
      "stateMutability": "view",
      "type": "function"
    },
    {
      "inputs": [],
      "name": "quorumDenominator",
      "outputs": [
        {
          "internalType": "uint256",
          "name": "",
          "type": "uint256"
        }
      ],
      "stateMutability": "view",
      "type": "function"
    },
    {
      "inputs": [
        {
          "internalType": "uint256",
          "name": "timepoint",
          "type": "uint256"
        }
      ],
      "name": "quorumNumerator",
      "outputs": [
        {
          "internalType": "uint256",
          "name": "",
          "type": "uint256"
        }
      ],
      "stateMutability": "view",
      "type": "function"
    },
    {
      "inputs": [],
      "name": "quorumNumerator",
      "outputs": [
        {
          "internalType": "uint256",
          "name": "",
          "type": "uint256"
        }
      ],
      "stateMutability": "view",
      "type": "function"
    },
    {
      "inputs": [
        {
          "internalType": "address",
          "name": "target",
          "type": "address"
        },
        {
          "internalType": "uint256",
          "name": "value",
          "type": "uint256"
        },
        {
          "internalType": "bytes",
          "name": "data",
          "type": "bytes"
        }
      ],
      "name": "relay",
      "outputs": [],
      "stateMutability": "payable",
      "type": "function"
    },
    {
      "inputs": [
        {
          "internalType": "uint256",
          "name": "proposalId",
          "type": "uint256"
        }
      ],
      "name": "state",
      "outputs": [
        {
          "internalType": "enum IGovernor.ProposalState",
          "name": "",
          "type": "uint8"
        }
      ],
      "stateMutability": "view",
      "type": "function"
    },
    {
      "inputs": [
        {
          "internalType": "bytes4",
          "name": "interfaceId",
          "type": "bytes4"
        }
      ],
      "name": "supportsInterface",
      "outputs": [
        {
          "internalType": "bool",
          "name": "",
          "type": "bool"
        }
      ],
      "stateMutability": "view",
      "type": "function"
    },
    {
      "inputs": [],
      "name": "timelock",
      "outputs": [
        {
          "internalType": "address",
          "name": "",
          "type": "address"
        }
      ],
      "stateMutability": "view",
      "type": "function"
    },
    {
      "inputs": [],
      "name": "token",
      "outputs": [
        {
          "internalType": "contract IERC5805",
          "name": "",
          "type": "address"
        }
      ],
      "stateMutability": "view",
      "type": "function"
    },
    {
      "inputs": [
        {
          "internalType": "uint256",
          "name": "newQuorumNumerator",
          "type": "uint256"
        }
      ],
      "name": "updateQuorumNumerator",
      "outputs": [],
      "stateMutability": "nonpayable",
      "type": "function"
    },
    {
      "inputs": [
        {
          "internalType": "contract TimelockController",
          "name": "newTimelock",
          "type": "address"
        }
      ],
      "name": "updateTimelock",
      "outputs": [],
      "stateMutability": "nonpayable",
      "type": "function"
    },
    {
      "inputs": [],
      "name": "version",
      "outputs": [
        {
          "internalType": "string",
          "name": "",
          "type": "string"
        }
      ],
      "stateMutability": "view",
      "type": "function"
    },
    {
      "inputs": [],
      "name": "votingDelay",
      "outputs": [
        {
          "internalType": "uint256",
          "name": "",
          "type": "uint256"
        }
      ],
      "stateMutability": "pure",
      "type": "function"
    },
    {
      "inputs": [],
      "name": "votingPeriod",
      "outputs": [
        {
          "internalType": "uint256",
          "name": "",
          "type": "uint256"
        }
      ],
      "stateMutability": "pure",
      "type": "function"
    },
    {
      "stateMutability": "payable",
      "type": "receive"
    }
  ],
  "bytecode": "0x6101806040523480156200001257600080fd5b5060405162008c8938038062008c89833981810160405281019062000038919062000df0565b600482826040518060400160405280600a81526020017f4d79476f7665726e6f72000000000000000000000000000000000000000000008152508062000083620001b960201b60201c565b6200009e600083620001f660201b620020831790919060201c565b6101208181525050620000c1600182620001f660201b620020831790919060201c565b6101408181525050818051906020012060e08181525050808051906020012061010081815250504660a08181525050620001006200025a60201b60201c565b608081815250503073ffffffffffffffffffffffffffffffffffffffff1660c08173ffffffffffffffffffffffffffffffffffffffff1681525050505080600290805190602001906200015592919062000c69565b50506200016881620002b760201b60201c565b508073ffffffffffffffffffffffffffffffffffffffff166101608173ffffffffffffffffffffffffffffffffffffffff168152505050620001b0816200035860201b60201c565b505050620014e8565b60606040518060400160405280600181526020017f3100000000000000000000000000000000000000000000000000000000000000815250905090565b60006020835110156200021c5762000214836200057a60201b60201c565b905062000254565b826200023383620005e760201b620020ce1760201c565b60000190805190602001906200024b92919062000c69565b5060ff60001b90505b92915050565b60007f8b73c3c69bb8fe3d512ecc4cf759cc79239f7b179b0ffacaa9a75d522b39400f60e0516101005146306040516020016200029c95949392919062000e7e565b60405160208183030381529060405280519060200120905090565b7f08f74ea46ef7894f65eabfb5e6e695de773a000b47c529ab559178069b226401600660009054906101000a900473ffffffffffffffffffffffffffffffffffffffff16826040516200030c92919062000edb565b60405180910390a180600660006101000a81548173ffffffffffffffffffffffffffffffffffffffff021916908373ffffffffffffffffffffffffffffffffffffffff16021790555050565b62000368620005f160201b60201c565b811115620003ad576040517f08c379a0000000000000000000000000000000000000000000000000000000008152600401620003a49062000fb5565b60405180910390fd5b6000620003bf620005fa60201b60201c565b905060008114158015620003db57506000600960000180549050145b15620004db5760096000016040518060400160405280600063ffffffff16815260200162000414846200065060201b620020d81760201c565b7bffffffffffffffffffffffffffffffffffffffffffffffffffffffff168152509080600181540180825580915050600190039060005260206000200160009091909190915060008201518160000160006101000a81548163ffffffff021916908363ffffffff16021790555060208201518160000160046101000a8154817bffffffffffffffffffffffffffffffffffffffffffffffffffffffff02191690837bffffffffffffffffffffffffffffffffffffffffffffffffffffffff16021790555050505b620005396200050c620004f3620006be60201b60201c565b65ffffffffffff166200076960201b620021431760201c565b62000522846200065060201b620020d81760201c565b6009620007bf60201b62002196179092919060201c565b50507f0553476bf02ef2726e8ce5ced78d63e26e602e4a2257b1f559418e24b463399781836040516200056e92919062000fd7565b60405180910390a15050565b600080829050601f81511115620005ca57826040517f305a27a9000000000000000000000000000000000000000000000000000000008152600401620005c1919062001097565b60405180910390fd5b805181620005d890620010fa565b60001c1760001b915050919050565b6000819050919050565b60006064905090565b600080600960000180549050146200064757620006236009620007e460201b620021b31760201c565b7bffffffffffffffffffffffffffffffffffffffffffffffffffffffff166200064b565b6008545b905090565b60007bffffffffffffffffffffffffffffffffffffffffffffffffffffffff8016821115620006b6576040517f08c379a0000000000000000000000000000000000000000000000000000000008152600401620006ad90620011e0565b60405180910390fd5b819050919050565b60006101605173ffffffffffffffffffffffffffffffffffffffff166391ddadf46040518163ffffffff1660e01b815260040160206040518083038186803b1580156200070a57600080fd5b505afa9250505080156200073e57506040513d601f19601f820116820180604052508101906200073b919062001245565b60015b620007615762000759436200085a60201b6200221d1760201c565b905062000766565b809150505b90565b600063ffffffff8016821115620007b7576040517f08c379a0000000000000000000000000000000000000000000000000000000008152600401620007ae90620012ed565b60405180910390fd5b819050919050565b600080620007d8856000018585620008b260201b60201c565b91509150935093915050565b60008082600001805490509050600081146200084f576200081d836000016001836200081191906200133e565b62000c5460201b60201c565b60000160049054906101000a90047bffffffffffffffffffffffffffffffffffffffffffffffffffffffff1662000852565b60005b915050919050565b600065ffffffffffff8016821115620008aa576040517f08c379a0000000000000000000000000000000000000000000000000000000008152600401620008a190620013ef565b60405180910390fd5b819050919050565b600080600085805490509050600081111562000b64576000620008ea87600184620008de91906200133e565b62000c5460201b60201c565b6040518060400160405290816000820160009054906101000a900463ffffffff1663ffffffff1663ffffffff1681526020016000820160049054906101000a90047bffffffffffffffffffffffffffffffffffffffffffffffffffffffff167bffffffffffffffffffffffffffffffffffffffffffffffffffffffff167bffffffffffffffffffffffffffffffffffffffffffffffffffffffff168152505090508563ffffffff16816000015163ffffffff161115620009e1576040517f08c379a0000000000000000000000000000000000000000000000000000000008152600401620009d89062001461565b60405180910390fd5b8563ffffffff16816000015163ffffffff16141562000a72578462000a1b8860018562000a0f91906200133e565b62000c5460201b60201c565b60000160046101000a8154817bffffffffffffffffffffffffffffffffffffffffffffffffffffffff02191690837bffffffffffffffffffffffffffffffffffffffffffffffffffffffff16021790555062000b52565b8660405180604001604052808863ffffffff168152602001877bffffffffffffffffffffffffffffffffffffffffffffffffffffffff168152509080600181540180825580915050600190039060005260206000200160009091909190915060008201518160000160006101000a81548163ffffffff021916908363ffffffff16021790555060208201518160000160046101000a8154817bffffffffffffffffffffffffffffffffffffffffffffffffffffffff02191690837bffffffffffffffffffffffffffffffffffffffffffffffffffffffff16021790555050505b80602001518593509350505062000c4c565b8560405180604001604052808763ffffffff168152602001867bffffffffffffffffffffffffffffffffffffffffffffffffffffffff168152509080600181540180825580915050600190039060005260206000200160009091909190915060008201518160000160006101000a81548163ffffffff021916908363ffffffff16021790555060208201518160000160046101000a8154817bffffffffffffffffffffffffffffffffffffffffffffffffffffffff02191690837bffffffffffffffffffffffffffffffffffffffffffffffffffffffff160217905550505060008492509250505b935093915050565b60008260005281602060002001905092915050565b82805462000c7790620014b2565b90600052602060002090601f01602090048101928262000c9b576000855562000ce7565b82601f1062000cb657805160ff191683800117855562000ce7565b8280016001018555821562000ce7579182015b8281111562000ce657825182559160200191906001019062000cc9565b5b50905062000cf6919062000cfa565b5090565b5b8082111562000d1557600081600090555060010162000cfb565b5090565b600080fd5b600073ffffffffffffffffffffffffffffffffffffffff82169050919050565b600062000d4b8262000d1e565b9050919050565b600062000d5f8262000d3e565b9050919050565b62000d718162000d52565b811462000d7d57600080fd5b50565b60008151905062000d918162000d66565b92915050565b600062000da48262000d1e565b9050919050565b600062000db88262000d97565b9050919050565b62000dca8162000dab565b811462000dd657600080fd5b50565b60008151905062000dea8162000dbf565b92915050565b6000806040838503121562000e0a5762000e0962000d19565b5b600062000e1a8582860162000d80565b925050602062000e2d8582860162000dd9565b9150509250929050565b6000819050919050565b62000e4c8162000e37565b82525050565b6000819050919050565b62000e678162000e52565b82525050565b62000e788162000d3e565b82525050565b600060a08201905062000e95600083018862000e41565b62000ea4602083018762000e41565b62000eb3604083018662000e41565b62000ec2606083018562000e5c565b62000ed1608083018462000e6d565b9695505050505050565b600060408201905062000ef2600083018562000e6d565b62000f01602083018462000e6d565b9392505050565b600082825260208201905092915050565b7f476f7665726e6f72566f74657351756f72756d4672616374696f6e3a2071756f60008201527f72756d4e756d657261746f72206f7665722071756f72756d44656e6f6d696e6160208201527f746f720000000000000000000000000000000000000000000000000000000000604082015250565b600062000f9d60438362000f08565b915062000faa8262000f19565b606082019050919050565b6000602082019050818103600083015262000fd08162000f8e565b9050919050565b600060408201905062000fee600083018562000e5c565b62000ffd602083018462000e5c565b9392505050565b600081519050919050565b60005b838110156200102f57808201518184015260208101905062001012565b838111156200103f576000848401525b50505050565b6000601f19601f8301169050919050565b6000620010638262001004565b6200106f818562000f08565b9350620010818185602086016200100f565b6200108c8162001045565b840191505092915050565b60006020820190508181036000830152620010b3818462001056565b905092915050565b600081519050919050565b6000819050602082019050919050565b6000620010e4825162000e37565b80915050919050565b600082821b905092915050565b60006200110782620010bb565b826200111384620010c6565b90506200112081620010d6565b9250602082101562001163576200115e7fffffffffffffffffffffffffffffffffffffffffffffffffffffffffffffffff83602003600802620010ed565b831692505b5050919050565b7f53616665436173743a2076616c756520646f65736e27742066697420696e203260008201527f3234206269747300000000000000000000000000000000000000000000000000602082015250565b6000620011c860278362000f08565b9150620011d5826200116a565b604082019050919050565b60006020820190508181036000830152620011fb81620011b9565b9050919050565b600065ffffffffffff82169050919050565b6200121f8162001202565b81146200122b57600080fd5b50565b6000815190506200123f8162001214565b92915050565b6000602082840312156200125e576200125d62000d19565b5b60006200126e848285016200122e565b91505092915050565b7f53616665436173743a2076616c756520646f65736e27742066697420696e203360008201527f3220626974730000000000000000000000000000000000000000000000000000602082015250565b6000620012d560268362000f08565b9150620012e28262001277565b604082019050919050565b600060208201905081810360008301526200130881620012c6565b9050919050565b7f4e487b7100000000000000000000000000000000000000000000000000000000600052601160045260246000fd5b60006200134b8262000e52565b9150620013588362000e52565b9250828210156200136e576200136d6200130f565b5b828203905092915050565b7f53616665436173743a2076616c756520646f65736e27742066697420696e203460008201527f3820626974730000000000000000000000000000000000000000000000000000602082015250565b6000620013d760268362000f08565b9150620013e48262001379565b604082019050919050565b600060208201905081810360008301526200140a81620013c8565b9050919050565b7f436865636b706f696e743a2064656372656173696e67206b6579730000000000600082015250565b600062001449601b8362000f08565b9150620014568262001411565b602082019050919050565b600060208201905081810360008301526200147c816200143a565b9050919050565b7f4e487b7100000000000000000000000000000000000000000000000000000000600052602260045260246000fd5b60006002820490506001821680620014cb57607f821691505b60208210811415620014e257620014e162001483565b5b50919050565b60805160a05160c05160e0516101005161012051610140516101605161771f6200156a6000396000818161159401528181611a80015281816120610152818161317e015261331d015260006119c10152600061198d015260006146760152600061465501526000613a0301526000613a5901526000613a82015261771f6000f3fe6080604052600436106102605760003560e01c806360c4247f11610144578063bc197c81116100b6578063dd4e2ba51161007a578063dd4e2ba514610a8c578063deaaa7cc14610ab7578063eb9019d414610ae2578063f23a6e6114610b1f578063f8ce560a14610b5c578063fc0c546a14610b99576102dc565b8063bc197c811461098e578063c01f9e37146109cb578063c28bc2fa14610a08578063c59057e414610a24578063d33219b414610a61576102dc565b806397c3d3341161010857806397c3d3341461086a5780639a802a6d14610895578063a7713a70146108d2578063a890c910146108fd578063ab58fb8e14610926578063b58131b014610963576102dc565b806360c4247f146107575780637b3c71d3146107945780637d5e81e2146107d157806384b0196e1461080e57806391ddadf41461083f576102dc565b80632fe3e261116101dd578063452115d6116101a1578063452115d61461060b5780634bf5d7e914610648578063544ffc9c1461067357806354fd4d50146106b257806356781388146106dd5780635f398a141461071a576102dc565b80632fe3e261146104fe5780633932abb1146105295780633bccf4fd146105545780633e4f49e61461059157806343859632146105ce576102dc565b8063143489d011610224578063143489d0146103da578063150b7a0214610417578063160cbed7146104545780632656227d146104915780632d63f693146104c1576102dc565b806301ffc9a7146102e157806302a251a31461031e578063034201811461034957806306f3f9e61461038657806306fdde03146103af576102dc565b366102dc573073ffffffffffffffffffffffffffffffffffffffff16610284610bc4565b73ffffffffffffffffffffffffffffffffffffffff16146102da576040517f08c379a00000000000000000000000000000000000000000000000000000000081526004016102d190614b02565b60405180910390fd5b005b600080fd5b3480156102ed57600080fd5b5061030860048036038101906103039190614b8e565b610bd3565b6040516103159190614bd6565b60405180910390f35b34801561032a57600080fd5b50610333610be5565b6040516103409190614c0a565b60405180910390f35b34801561035557600080fd5b50610370600480360381019061036b9190614e66565b610bef565b60405161037d9190614c0a565b60405180910390f35b34801561039257600080fd5b506103ad60048036038101906103a89190614f44565b610cd4565b005b3480156103bb57600080fd5b506103c4610dd0565b6040516103d19190614fe8565b60405180910390f35b3480156103e657600080fd5b5061040160048036038101906103fc9190614f44565b610e62565b60405161040e919061504b565b60405180910390f35b34801561042357600080fd5b5061043e60048036038101906104399190615092565b610ea2565b60405161044b9190615124565b60405180910390f35b34801561046057600080fd5b5061047b600480360381019061047691906153a6565b610eb6565b6040516104889190614c0a565b60405180910390f35b6104ab60048036038101906104a691906153a6565b61118e565b6040516104b89190614c0a565b60405180910390f35b3480156104cd57600080fd5b506104e860048036038101906104e39190614f44565b6112dc565b6040516104f59190614c0a565b60405180910390f35b34801561050a57600080fd5b5061051361131a565b6040516105209190615470565b60405180910390f35b34801561053557600080fd5b5061053e61133e565b60405161054b9190614c0a565b60405180910390f35b34801561056057600080fd5b5061057b6004803603810190610576919061548b565b611347565b6040516105889190614c0a565b60405180910390f35b34801561059d57600080fd5b506105b860048036038101906105b39190614f44565b6113d1565b6040516105c5919061557d565b60405180910390f35b3480156105da57600080fd5b506105f560048036038101906105f09190615598565b6113e3565b6040516106029190614bd6565b60405180910390f35b34801561061757600080fd5b50610632600480360381019061062d91906153a6565b61144e565b60405161063f9190614c0a565b60405180910390f35b34801561065457600080fd5b5061065d611590565b60405161066a9190614fe8565b60405180910390f35b34801561067f57600080fd5b5061069a60048036038101906106959190614f44565b611677565b6040516106a9939291906155d8565b60405180910390f35b3480156106be57600080fd5b506106c76116af565b6040516106d49190614fe8565b60405180910390f35b3480156106e957600080fd5b5061070460048036038101906106ff919061560f565b6116ec565b6040516107119190614c0a565b60405180910390f35b34801561072657600080fd5b50610741600480360381019061073c919061564f565b61171d565b60405161074e9190614c0a565b60405180910390f35b34801561076357600080fd5b5061077e60048036038101906107799190614f44565b611787565b60405161078b9190614c0a565b60405180910390f35b3480156107a057600080fd5b506107bb60048036038101906107b691906156f3565b6118fa565b6040516107c89190614c0a565b60405180910390f35b3480156107dd57600080fd5b506107f860048036038101906107f39190615808565b611962565b6040516108059190614c0a565b60405180910390f35b34801561081a57600080fd5b5061082361197a565b60405161083697969594939291906159d8565b60405180910390f35b34801561084b57600080fd5b50610854611a7c565b6040516108619190615a7d565b60405180910390f35b34801561087657600080fd5b5061087f611b31565b60405161088c9190614c0a565b60405180910390f35b3480156108a157600080fd5b506108bc60048036038101906108b79190615a98565b611b3a565b6040516108c99190614c0a565b60405180910390f35b3480156108de57600080fd5b506108e7611b50565b6040516108f49190614c0a565b60405180910390f35b34801561090957600080fd5b50610924600480360381019061091f9190615b57565b611b97565b005b34801561093257600080fd5b5061094d60048036038101906109489190614f44565b611c93565b60405161095a9190614c0a565b60405180910390f35b34801561096f57600080fd5b50610978611d6f565b6040516109859190614c0a565b60405180910390f35b34801561099a57600080fd5b506109b560048036038101906109b09190615b84565b611d74565b6040516109c29190615124565b60405180910390f35b3480156109d757600080fd5b506109f260048036038101906109ed9190614f44565b611d89565b6040516109ff9190614c0a565b60405180910390f35b610a226004803603810190610a1d9190615ca9565b611dc7565b005b348015610a3057600080fd5b50610a4b6004803603810190610a4691906153a6565b611f55565b604051610a589190614c0a565b60405180910390f35b348015610a6d57600080fd5b50610a76611f91565b604051610a83919061504b565b60405180910390f35b348015610a9857600080fd5b50610aa1611fbb565b604051610aae9190614fe8565b60405180910390f35b348015610ac357600080fd5b50610acc611ff8565b604051610ad99190615470565b60405180910390f35b348015610aee57600080fd5b50610b096004803603810190610b049190615d1d565b61201c565b604051610b169190614c0a565b60405180910390f35b348015610b2b57600080fd5b50610b466004803603810190610b419190615d5d565b612038565b604051610b539190615124565b60405180910390f35b348015610b6857600080fd5b50610b836004803603810190610b7e9190614f44565b61204d565b604051610b909190614c0a565b60405180910390f35b348015610ba557600080fd5b50610bae61205f565b604051610bbb9190615e53565b60405180910390f35b6000610bce612272565b905090565b6000610bde8261229c565b9050919050565b600061b2fa905090565b600080610c72610c6a7fb3b3f3b703cd84ce352197dcff232b1b5d3cfb2025ce47cf04742d0651f1af888c8c8c8c604051610c2b929190615e9e565b60405180910390208b80519060200120604051602001610c4f959493929190615ec6565b60405160208183030381529060405280519060200120612316565b868686612330565b9050610cc58a828b8b8b8080601f016020809104026020016040519081016040528093929190818152602001838380828437600081840152601f19601f820116905080830192505050505050508a61235b565b91505098975050505050505050565b610cdc610bc4565b73ffffffffffffffffffffffffffffffffffffffff16610cfa6124e8565b73ffffffffffffffffffffffffffffffffffffffff1614610d50576040517f08c379a0000000000000000000000000000000000000000000000000000000008152600401610d4790615f65565b60405180910390fd5b3073ffffffffffffffffffffffffffffffffffffffff16610d6f610bc4565b73ffffffffffffffffffffffffffffffffffffffff1614610dc4576000610d946124f0565b604051610da2929190615e9e565b604051809103902090505b80610db860046124fd565b14610dc257610dad565b505b610dcd816125d9565b50565b606060028054610ddf90615fb4565b80601f0160208091040260200160405190810160405280929190818152602001828054610e0b90615fb4565b8015610e585780601f10610e2d57610100808354040283529160200191610e58565b820191906000526020600020905b815481529060010190602001808311610e3b57829003601f168201915b5050505050905090565b60006003600083815260200190815260200160002060000160089054906101000a900473ffffffffffffffffffffffffffffffffffffffff169050919050565b600063150b7a0260e01b9050949350505050565b600080610ec586868686611f55565b905060046007811115610edb57610eda615506565b5b610ee4826113d1565b6007811115610ef657610ef5615506565b5b14610f36576040517f08c379a0000000000000000000000000000000000000000000000000000000008152600401610f2d90616058565b60405180910390fd5b6000600660009054906101000a900473ffffffffffffffffffffffffffffffffffffffff1673ffffffffffffffffffffffffffffffffffffffff1663f27a0c926040518163ffffffff1660e01b815260040160206040518083038186803b158015610fa057600080fd5b505afa158015610fb4573d6000803e3d6000fd5b505050506040513d601f19601f82011682018060405250810190610fd8919061608d565b9050600660009054906101000a900473ffffffffffffffffffffffffffffffffffffffff1673ffffffffffffffffffffffffffffffffffffffff1663b1c5f4278888886000896040518663ffffffff1660e01b815260040161103e9594939291906162d7565b60206040518083038186803b15801561105657600080fd5b505afa15801561106a573d6000803e3d6000fd5b505050506040513d601f19601f8201168201806040525081019061108e9190616354565b6007600084815260200190815260200160002081905550600660009054906101000a900473ffffffffffffffffffffffffffffffffffffffff1673ffffffffffffffffffffffffffffffffffffffff16638f2a0bb0888888600089876040518763ffffffff1660e01b815260040161110b96959493929190616381565b600060405180830381600087803b15801561112557600080fd5b505af1158015611139573d6000803e3d6000fd5b505050507f9a2e42fd6722813d69113e7d0079d3d940171428df7373df9c7f7617cfda289282824261116b9190616426565b60405161117992919061647c565b60405180910390a18192505050949350505050565b60008061119d86868686611f55565b905060006111aa826113d1565b9050600460078111156111c0576111bf615506565b5b8160078111156111d3576111d2615506565b5b14806112035750600560078111156111ee576111ed615506565b5b81600781111561120157611200615506565b5b145b611242576040517f08c379a000000000000000000000000000000000000000000000000000000000815260040161123990616058565b60405180910390fd5b60016003600084815260200190815260200160002060020160006101000a81548160ff0219169083151502179055507f712ae1383f79ac853f8d882153778e0260ef8f03b504e2866e0593e04d2b291f826040516112a09190614c0a565b60405180910390a16112b582888888886127ae565b6112c28288888888612892565b6112cf82888888886128a6565b8192505050949350505050565b60006003600083815260200190815260200160002060000160009054906101000a900467ffffffffffffffff1667ffffffffffffffff169050919050565b7fb3b3f3b703cd84ce352197dcff232b1b5d3cfb2025ce47cf04742d0651f1af8881565b60006001905090565b6000806113a86113a07f150214d74d59b7d1e90c73fc22ef3d991dd0a76b046543d4d80ab92d2a50328f8989604051602001611385939291906164a5565b60405160208183030381529060405280519060200120612316565b868686612330565b90506113c587828860405180602001604052806000815250612901565b91505095945050505050565b60006113dc82612921565b9050919050565b6000600a600084815260200190815260200160002060030160008373ffffffffffffffffffffffffffffffffffffffff1673ffffffffffffffffffffffffffffffffffffffff16815260200190815260200160002060009054906101000a900460ff16905092915050565b60008061145d86868686611f55565b90506000600781111561147357611472615506565b5b61147c826113d1565b600781111561148e5761148d615506565b5b146114ce576040517f08c379a00000000000000000000000000000000000000000000000000000000081526004016114c590616528565b60405180910390fd5b6003600082815260200190815260200160002060000160089054906101000a900473ffffffffffffffffffffffffffffffffffffffff1673ffffffffffffffffffffffffffffffffffffffff166115236124e8565b73ffffffffffffffffffffffffffffffffffffffff1614611579576040517f08c379a0000000000000000000000000000000000000000000000000000000008152600401611570906165ba565b60405180910390fd5b61158586868686612b13565b915050949350505050565b60607f000000000000000000000000000000000000000000000000000000000000000073ffffffffffffffffffffffffffffffffffffffff16634bf5d7e96040518163ffffffff1660e01b815260040160006040518083038186803b1580156115f857600080fd5b505afa92505050801561162e57506040513d6000823e3d601f19601f8201168201806040525081019061162b919061664a565b60015b61166f576040518060400160405280601d81526020017f6d6f64653d626c6f636b6e756d6265722666726f6d3d64656661756c740000008152509050611674565b809150505b90565b600080600080600a60008681526020019081526020016000209050806000015481600101548260020154935093509350509193909250565b60606040518060400160405280600181526020017f3100000000000000000000000000000000000000000000000000000000000000815250905090565b6000806116f76124e8565b905061171484828560405180602001604052806000815250612901565b91505092915050565b6000806117286124e8565b905061177b87828888888080601f016020809104026020016040519081016040528093929190818152602001838380828437600081840152601f19601f820116905080830192505050505050508761235b565b91505095945050505050565b600080600960000180549050905060008114156117a9576008549150506118f5565b600060096000016001836117bd9190616693565b815481106117ce576117cd6166c7565b5b906000526020600020016040518060400160405290816000820160009054906101000a900463ffffffff1663ffffffff1663ffffffff1681526020016000820160049054906101000a90047bffffffffffffffffffffffffffffffffffffffffffffffffffffffff167bffffffffffffffffffffffffffffffffffffffffffffffffffffffff167bffffffffffffffffffffffffffffffffffffffffffffffffffffffff1681525050905083816000015163ffffffff16116118b65780602001517bffffffffffffffffffffffffffffffffffffffffffffffffffffffff16925050506118f5565b6118d26118c285612143565b6009612b2b90919063ffffffff16565b7bffffffffffffffffffffffffffffffffffffffffffffffffffffffff16925050505b919050565b6000806119056124e8565b905061195786828787878080601f016020809104026020016040519081016040528093929190818152602001838380828437600081840152601f19601f82011690508083019250505050505050612901565b915050949350505050565b600061197085858585612c21565b9050949350505050565b6000606080600080600060606119ba60007f00000000000000000000000000000000000000000000000000000000000000006130ca90919063ffffffff16565b6119ee60017f00000000000000000000000000000000000000000000000000000000000000006130ca90919063ffffffff16565b46306000801b600067ffffffffffffffff811115611a0f57611a0e614d05565b5b604051908082528060200260200182016040528015611a3d5781602001602082028036833780820191505090505b507f0f00000000000000000000000000000000000000000000000000000000000000959493929190965096509650965096509650965090919293949596565b60007f000000000000000000000000000000000000000000000000000000000000000073ffffffffffffffffffffffffffffffffffffffff166391ddadf46040518163ffffffff1660e01b815260040160206040518083038186803b158015611ae457600080fd5b505afa925050508015611b1557506040513d601f19601f82011682018060405250810190611b129190616722565b60015b611b2957611b224361221d565b9050611b2e565b809150505b90565b60006064905090565b6000611b4784848461317a565b90509392505050565b60008060096000018054905014611b8e57611b6b60096121b3565b7bffffffffffffffffffffffffffffffffffffffffffffffffffffffff16611b92565b6008545b905090565b611b9f610bc4565b73ffffffffffffffffffffffffffffffffffffffff16611bbd6124e8565b73ffffffffffffffffffffffffffffffffffffffff1614611c13576040517f08c379a0000000000000000000000000000000000000000000000000000000008152600401611c0a90615f65565b60405180910390fd5b3073ffffffffffffffffffffffffffffffffffffffff16611c32610bc4565b73ffffffffffffffffffffffffffffffffffffffff1614611c87576000611c576124f0565b604051611c65929190615e9e565b604051809103902090505b80611c7b60046124fd565b14611c8557611c70565b505b611c9081613230565b50565b600080600660009054906101000a900473ffffffffffffffffffffffffffffffffffffffff1673ffffffffffffffffffffffffffffffffffffffff1663d45c443560076000868152602001908152602001600020546040518263ffffffff1660e01b8152600401611d049190615470565b60206040518083038186803b158015611d1c57600080fd5b505afa158015611d30573d6000803e3d6000fd5b505050506040513d601f19601f82011682018060405250810190611d54919061608d565b905060018114611d645780611d67565b60005b915050919050565b600090565b600063bc197c8160e01b905095945050505050565b60006003600083815260200190815260200160002060010160009054906101000a900467ffffffffffffffff1667ffffffffffffffff169050919050565b611dcf610bc4565b73ffffffffffffffffffffffffffffffffffffffff16611ded6124e8565b73ffffffffffffffffffffffffffffffffffffffff1614611e43576040517f08c379a0000000000000000000000000000000000000000000000000000000008152600401611e3a90615f65565b60405180910390fd5b3073ffffffffffffffffffffffffffffffffffffffff16611e62610bc4565b73ffffffffffffffffffffffffffffffffffffffff1614611eb7576000611e876124f0565b604051611e95929190615e9e565b604051809103902090505b80611eab60046124fd565b14611eb557611ea0565b505b6000808573ffffffffffffffffffffffffffffffffffffffff16858585604051611ee2929190615e9e565b60006040518083038185875af1925050503d8060008114611f1f576040519150601f19603f3d011682016040523d82523d6000602084013e611f24565b606091505b5091509150611f4c82826040518060600160405280602881526020016176c2602891396132cf565b50505050505050565b600084848484604051602001611f6e949392919061674f565b6040516020818303038152906040528051906020012060001c9050949350505050565b6000600660009054906101000a900473ffffffffffffffffffffffffffffffffffffffff16905090565b60606040518060400160405280602081526020017f737570706f72743d627261766f2671756f72756d3d666f722c6162737461696e815250905090565b7f150214d74d59b7d1e90c73fc22ef3d991dd0a76b046543d4d80ab92d2a50328f81565b6000612030838361202b6132f1565b61317a565b905092915050565b600063f23a6e6160e01b905095945050505050565b600061205882613308565b9050919050565b7f000000000000000000000000000000000000000000000000000000000000000081565b600060208351101561209f57612098836133df565b90506120c8565b826120a9836120ce565b60000190805190602001906120bf929190614a02565b5060ff60001b90505b92915050565b6000819050919050565b60007bffffffffffffffffffffffffffffffffffffffffffffffffffffffff801682111561213b576040517f08c379a00000000000000000000000000000000000000000000000000000000081526004016121329061681b565b60405180910390fd5b819050919050565b600063ffffffff801682111561218e576040517f08c379a0000000000000000000000000000000000000000000000000000000008152600401612185906168ad565b60405180910390fd5b819050919050565b6000806121a7856000018585613447565b91509150935093915050565b6000808260000180549050905060008114612212576121e1836000016001836121dc9190616693565b6137ce565b60000160049054906101000a90047bffffffffffffffffffffffffffffffffffffffffffffffffffffffff16612215565b60005b915050919050565b600065ffffffffffff801682111561226a576040517f08c379a00000000000000000000000000000000000000000000000000000000081526004016122619061693f565b60405180910390fd5b819050919050565b6000600660009054906101000a900473ffffffffffffffffffffffffffffffffffffffff16905090565b60007f6e665ced000000000000000000000000000000000000000000000000000000007bffffffffffffffffffffffffffffffffffffffffffffffffffffffff1916827bffffffffffffffffffffffffffffffffffffffffffffffffffffffff1916148061230f575061230e826137e3565b5b9050919050565b60006123296123236139ff565b83613ab6565b9050919050565b600080600061234187878787613af7565b9150915061234e81613bda565b8192505050949350505050565b6000806003600088815260200190815260200160002090506001600781111561238757612386615506565b5b612390886113d1565b60078111156123a2576123a1615506565b5b146123e2576040517f08c379a00000000000000000000000000000000000000000000000000000000081526004016123d9906169d1565b60405180910390fd5b6000612411878360000160009054906101000a900467ffffffffffffffff1667ffffffffffffffff168661317a565b90506124208888888488613d48565b600084511415612483578673ffffffffffffffffffffffffffffffffffffffff167fb8e138887d0aa13bab447e82de9d5c1777041ecd21ca36ba824ff1e6c07ddda48988848960405161247694939291906169f1565b60405180910390a26124da565b8673ffffffffffffffffffffffffffffffffffffffff167fe2babfbac5889a709b63bb7f598b324e08bc5a4fb9ec647fb3cbc9ec07eb871289888489896040516124d1959493929190616a87565b60405180910390a25b809250505095945050505050565b600033905090565b3660008036915091509091565b600061250882613f4f565b1561253f576040517f3db2a12a00000000000000000000000000000000000000000000000000000000815260040160405180910390fd5b60008260000160009054906101000a9004600f0b905082600101600082600f0b600f0b815260200190815260200160002054915082600101600082600f0b600f0b815260200190815260200160002060009055600181018360000160006101000a8154816fffffffffffffffffffffffffffffffff0219169083600f0b6fffffffffffffffffffffffffffffffff16021790555050919050565b6125e1611b31565b811115612623576040517f08c379a000000000000000000000000000000000000000000000000000000000815260040161261a90616b80565b60405180910390fd5b600061262d611b50565b90506000811415801561264857506000600960000180549050145b1561273a5760096000016040518060400160405280600063ffffffff168152602001612673846120d8565b7bffffffffffffffffffffffffffffffffffffffffffffffffffffffff168152509080600181540180825580915050600190039060005260206000200160009091909190915060008201518160000160006101000a81548163ffffffff021916908363ffffffff16021790555060208201518160000160046101000a8154817bffffffffffffffffffffffffffffffffffffffffffffffffffffffff02191690837bffffffffffffffffffffffffffffffffffffffffffffffffffffffff16021790555050505b61276f612755612748611a7c565b65ffffffffffff16612143565b61275e846120d8565b60096121969092919063ffffffff16565b50507f0553476bf02ef2726e8ce5ced78d63e26e602e4a2257b1f559418e24b463399781836040516127a292919061647c565b60405180910390a15050565b3073ffffffffffffffffffffffffffffffffffffffff166127cd610bc4565b73ffffffffffffffffffffffffffffffffffffffff161461288b5760005b8451811015612889573073ffffffffffffffffffffffffffffffffffffffff1685828151811061281e5761281d6166c7565b5b602002602001015173ffffffffffffffffffffffffffffffffffffffff16141561287857612877838281518110612858576128576166c7565b5b6020026020010151805190602001206004613f8490919063ffffffff16565b5b8061288290616ba0565b90506127eb565b505b5050505050565b61289f8585858585614000565b5050505050565b3073ffffffffffffffffffffffffffffffffffffffff166128c5610bc4565b73ffffffffffffffffffffffffffffffffffffffff16146128fa576128ea6004613f4f565b6128f9576128f8600461409e565b5b5b5050505050565b6000612917858585856129126132f1565b61235b565b9050949350505050565b60008061292d8361411f565b90506004600781111561294357612942615506565b5b81600781111561295657612955615506565b5b146129645780915050612b0e565b6000600760008581526020019081526020016000205490506000801b811415612991578192505050612b0e565b600660009054906101000a900473ffffffffffffffffffffffffffffffffffffffff1673ffffffffffffffffffffffffffffffffffffffff16632ab0f529826040518263ffffffff1660e01b81526004016129ec9190615470565b60206040518083038186803b158015612a0457600080fd5b505afa158015612a18573d6000803e3d6000fd5b505050506040513d601f19601f82011682018060405250810190612a3c9190616c15565b15612a4c57600792505050612b0e565b600660009054906101000a900473ffffffffffffffffffffffffffffffffffffffff1673ffffffffffffffffffffffffffffffffffffffff1663584b153e826040518263ffffffff1660e01b8152600401612aa79190615470565b60206040518083038186803b158015612abf57600080fd5b505afa158015612ad3573d6000803e3d6000fd5b505050506040513d601f19601f82011682018060405250810190612af79190616c15565b15612b0757600592505050612b0e565b6002925050505b919050565b6000612b218585858561424c565b9050949350505050565b600080836000018054905090506000808290506005831115612bad576000612b528461433e565b84612b5d9190616693565b9050612b6c87600001826137ce565b60000160009054906101000a900463ffffffff1663ffffffff168663ffffffff161015612b9b57809150612bab565b600181612ba89190616426565b92505b505b6000612bbe87600001878585614438565b905060008114612c1257612be187600001600183612bdc9190616693565b6137ce565b60000160049054906101000a90047bffffffffffffffffffffffffffffffffffffffffffffffffffffffff16612c15565b60005b94505050505092915050565b600080612c2c6124e8565b90506000612c38611a7c565b65ffffffffffff169050612c4a611d6f565b612c6083600184612c5b9190616693565b61201c565b1015612ca1576040517f08c379a0000000000000000000000000000000000000000000000000000000008152600401612c9890616cb4565b60405180910390fd5b6000612cb68888888880519060200120611f55565b90508651885114612cfc576040517f08c379a0000000000000000000000000000000000000000000000000000000008152600401612cf390616d46565b60405180910390fd5b8551885114612d40576040517f08c379a0000000000000000000000000000000000000000000000000000000008152600401612d3790616d46565b60405180910390fd5b6000885111612d84576040517f08c379a0000000000000000000000000000000000000000000000000000000008152600401612d7b90616db2565b60405180910390fd5b60006003600083815260200190815260200160002060000160009054906101000a900467ffffffffffffffff1667ffffffffffffffff1614612dfb576040517f08c379a0000000000000000000000000000000000000000000000000000000008152600401612df290616e44565b60405180910390fd5b6000612e0561133e565b83612e109190616426565b90506000612e1c610be5565b82612e279190616426565b90506040518060e00160405280612e3d846144ab565b67ffffffffffffffff1681526020018673ffffffffffffffffffffffffffffffffffffffff168152602001600060e01b7bffffffffffffffffffffffffffffffffffffffffffffffffffffffff19168152602001612e9a836144ab565b67ffffffffffffffff168152602001600060401b67ffffffffffffffff19168152602001600015158152602001600015158152506003600085815260200190815260200160002060008201518160000160006101000a81548167ffffffffffffffff021916908367ffffffffffffffff16021790555060208201518160000160086101000a81548173ffffffffffffffffffffffffffffffffffffffff021916908373ffffffffffffffffffffffffffffffffffffffff160217905550604082015181600001601c6101000a81548163ffffffff021916908360e01c021790555060608201518160010160006101000a81548167ffffffffffffffff021916908367ffffffffffffffff16021790555060808201518160010160086101000a81548177ffffffffffffffffffffffffffffffffffffffffffffffff021916908360401c021790555060a08201518160020160006101000a81548160ff02191690831515021790555060c08201518160020160016101000a81548160ff0219169083151502179055509050507f7d84a6263ae0d98d3329bd7b46bb4e8d6f98cd35a7adb45c274c8b7fd5ebd5e083868c8c8e5167ffffffffffffffff81111561306557613064614d05565b5b60405190808252806020026020018201604052801561309857816020015b60608152602001906001900390816130835790505b508d88888f6040516130b299989796959493929190616f70565b60405180910390a18295505050505050949350505050565b606060ff60001b83146130e7576130e083614502565b9050613174565b8180546130f390615fb4565b80601f016020809104026020016040519081016040528092919081815260200182805461311f90615fb4565b801561316c5780601f106131415761010080835404028352916020019161316c565b820191906000526020600020905b81548152906001019060200180831161314f57829003601f168201915b505050505090505b92915050565b60007f000000000000000000000000000000000000000000000000000000000000000073ffffffffffffffffffffffffffffffffffffffff16633a46b1a885856040518363ffffffff1660e01b81526004016131d7929190617020565b60206040518083038186803b1580156131ef57600080fd5b505afa158015613203573d6000803e3d6000fd5b505050506040513d601f19601f82011682018060405250810190613227919061608d565b90509392505050565b7f08f74ea46ef7894f65eabfb5e6e695de773a000b47c529ab559178069b226401600660009054906101000a900473ffffffffffffffffffffffffffffffffffffffff1682604051613283929190617049565b60405180910390a180600660006101000a81548173ffffffffffffffffffffffffffffffffffffffff021916908373ffffffffffffffffffffffffffffffffffffffff16021790555050565b606083156132df578290506132ea565b6132e98383614576565b5b9392505050565b606060405180602001604052806000815250905090565b6000613312611b31565b61331b83611787565b7f000000000000000000000000000000000000000000000000000000000000000073ffffffffffffffffffffffffffffffffffffffff16638e539e8c856040518263ffffffff1660e01b81526004016133749190614c0a565b60206040518083038186803b15801561338c57600080fd5b505afa1580156133a0573d6000803e3d6000fd5b505050506040513d601f19601f820116820180604052508101906133c4919061608d565b6133ce9190617072565b6133d891906170fb565b9050919050565b600080829050601f8151111561342c57826040517f305a27a90000000000000000000000000000000000000000000000000000000081526004016134239190614fe8565b60405180910390fd5b8051816134389061715e565b60001c1760001b915050919050565b60008060008580549050905060008111156136de5760006134748760018461346f9190616693565b6137ce565b6040518060400160405290816000820160009054906101000a900463ffffffff1663ffffffff1663ffffffff1681526020016000820160049054906101000a90047bffffffffffffffffffffffffffffffffffffffffffffffffffffffff167bffffffffffffffffffffffffffffffffffffffffffffffffffffffff167bffffffffffffffffffffffffffffffffffffffffffffffffffffffff168152505090508563ffffffff16816000015163ffffffff161115613568576040517f08c379a000000000000000000000000000000000000000000000000000000000815260040161355f90617211565b60405180910390fd5b8563ffffffff16816000015163ffffffff1614156135ed5784613597886001856135929190616693565b6137ce565b60000160046101000a8154817bffffffffffffffffffffffffffffffffffffffffffffffffffffffff02191690837bffffffffffffffffffffffffffffffffffffffffffffffffffffffff1602179055506136cd565b8660405180604001604052808863ffffffff168152602001877bffffffffffffffffffffffffffffffffffffffffffffffffffffffff168152509080600181540180825580915050600190039060005260206000200160009091909190915060008201518160000160006101000a81548163ffffffff021916908363ffffffff16021790555060208201518160000160046101000a8154817bffffffffffffffffffffffffffffffffffffffffffffffffffffffff02191690837bffffffffffffffffffffffffffffffffffffffffffffffffffffffff16021790555050505b8060200151859350935050506137c6565b8560405180604001604052808763ffffffff168152602001867bffffffffffffffffffffffffffffffffffffffffffffffffffffffff168152509080600181540180825580915050600190039060005260206000200160009091909190915060008201518160000160006101000a81548163ffffffff021916908363ffffffff16021790555060208201518160000160046101000a8154817bffffffffffffffffffffffffffffffffffffffffffffffffffffffff02191690837bffffffffffffffffffffffffffffffffffffffffffffffffffffffff160217905550505060008492509250505b935093915050565b60008260005281602060002001905092915050565b60008063143489d060e01b63452115d660e01b1890506000639a802a6d60e01b630342018160e01b635f398a1460e01b18189050600081837fda287a1d000000000000000000000000000000000000000000000000000000007ff2e09f740000000000000000000000000000000000000000000000000000000018181890506000837fda287a1d000000000000000000000000000000000000000000000000000000007ff2e09f740000000000000000000000000000000000000000000000000000000018189050817bffffffffffffffffffffffffffffffffffffffffffffffffffffffff1916867bffffffffffffffffffffffffffffffffffffffffffffffffffffffff191614806139345750807bffffffffffffffffffffffffffffffffffffffffffffffffffffffff1916867bffffffffffffffffffffffffffffffffffffffffffffffffffffffff1916145b8061397c5750837bffffffffffffffffffffffffffffffffffffffffffffffffffffffff1916867bffffffffffffffffffffffffffffffffffffffffffffffffffffffff1916145b806139e457507f4e2312e0000000000000000000000000000000000000000000000000000000007bffffffffffffffffffffffffffffffffffffffffffffffffffffffff1916867bffffffffffffffffffffffffffffffffffffffffffffffffffffffff1916145b806139f457506139f3866145c6565b5b945050505050919050565b60007f000000000000000000000000000000000000000000000000000000000000000073ffffffffffffffffffffffffffffffffffffffff163073ffffffffffffffffffffffffffffffffffffffff16148015613a7b57507f000000000000000000000000000000000000000000000000000000000000000046145b15613aa8577f00000000000000000000000000000000000000000000000000000000000000009050613ab3565b613ab0614630565b90505b90565b60006040517f190100000000000000000000000000000000000000000000000000000000000081528360028201528260228201526042812091505092915050565b6000807f7fffffffffffffffffffffffffffffff5d576e7357a4501ddfe92f46681b20a08360001c1115613b32576000600391509150613bd1565b600060018787878760405160008152602001604052604051613b579493929190617231565b6020604051602081039080840390855afa158015613b79573d6000803e3d6000fd5b505050602060405103519050600073ffffffffffffffffffffffffffffffffffffffff168173ffffffffffffffffffffffffffffffffffffffff161415613bc857600060019250925050613bd1565b80600092509250505b94509492505050565b60006004811115613bee57613bed615506565b5b816004811115613c0157613c00615506565b5b1415613c0c57613d45565b60016004811115613c2057613c1f615506565b5b816004811115613c3357613c32615506565b5b1415613c74576040517f08c379a0000000000000000000000000000000000000000000000000000000008152600401613c6b906172c2565b60405180910390fd5b60026004811115613c8857613c87615506565b5b816004811115613c9b57613c9a615506565b5b1415613cdc576040517f08c379a0000000000000000000000000000000000000000000000000000000008152600401613cd39061732e565b60405180910390fd5b60036004811115613cf057613cef615506565b5b816004811115613d0357613d02615506565b5b1415613d44576040517f08c379a0000000000000000000000000000000000000000000000000000000008152600401613d3b906173c0565b60405180910390fd5b5b50565b6000600a600087815260200190815260200160002090508060030160008673ffffffffffffffffffffffffffffffffffffffff1673ffffffffffffffffffffffffffffffffffffffff16815260200190815260200160002060009054906101000a900460ff1615613dee576040517f08c379a0000000000000000000000000000000000000000000000000000000008152600401613de590617452565b60405180910390fd5b60018160030160008773ffffffffffffffffffffffffffffffffffffffff1673ffffffffffffffffffffffffffffffffffffffff16815260200190815260200160002060006101000a81548160ff02191690831515021790555060006002811115613e5c57613e5b615506565b5b60ff168460ff161415613e895782816000016000828254613e7d9190616426565b92505081905550613f47565b60016002811115613e9d57613e9c615506565b5b60ff168460ff161415613eca5782816001016000828254613ebe9190616426565b92505081905550613f46565b600280811115613edd57613edc615506565b5b60ff168460ff161415613f0a5782816002016000828254613efe9190616426565b92505081905550613f45565b6040517f08c379a0000000000000000000000000000000000000000000000000000000008152600401613f3c906174e4565b60405180910390fd5b5b5b505050505050565b60008160000160009054906101000a9004600f0b600f0b8260000160109054906101000a9004600f0b600f0b13159050919050565b60008260000160109054906101000a9004600f0b90508183600101600083600f0b600f0b815260200190815260200160002081905550600181018360000160106101000a8154816fffffffffffffffffffffffffffffffff0219169083600f0b6fffffffffffffffffffffffffffffffff160217905550505050565b600660009054906101000a900473ffffffffffffffffffffffffffffffffffffffff1673ffffffffffffffffffffffffffffffffffffffff1663e38335e5348686866000876040518763ffffffff1660e01b81526004016140659594939291906162d7565b6000604051808303818588803b15801561407e57600080fd5b505af1158015614092573d6000803e3d6000fd5b50505050505050505050565b60008160000160006101000a8154816fffffffffffffffffffffffffffffffff0219169083600f0b6fffffffffffffffffffffffffffffffff16021790555060008160000160106101000a8154816fffffffffffffffffffffffffffffffff0219169083600f0b6fffffffffffffffffffffffffffffffff16021790555050565b6000806003600084815260200190815260200160002090508060020160009054906101000a900460ff1615614158576007915050614247565b8060020160019054906101000a900460ff1615614179576002915050614247565b6000614184846112dc565b905060008114156141ca576040517f08c379a00000000000000000000000000000000000000000000000000000000081526004016141c190617550565b60405180910390fd5b60006141d4611a7c565b65ffffffffffff1690508082106141f15760009350505050614247565b60006141fc86611d89565b9050818110614212576001945050505050614247565b61421b866146c6565b801561422c575061422b8661470d565b5b1561423e576004945050505050614247565b60039450505050505b919050565b60008061425b86868686614738565b90506000801b60076000838152602001908152602001600020541461433257600660009054906101000a900473ffffffffffffffffffffffffffffffffffffffff1673ffffffffffffffffffffffffffffffffffffffff1663c4d252f560076000848152602001908152602001600020546040518263ffffffff1660e01b81526004016142e89190615470565b600060405180830381600087803b15801561430257600080fd5b505af1158015614316573d6000803e3d6000fd5b5050505060076000828152602001908152602001600020600090555b80915050949350505050565b6000808214156143515760009050614433565b6000600161435e84614892565b901c6001901b90506001818481614378576143776170cc565b5b048201901c90506001818481614391576143906170cc565b5b048201901c905060018184816143aa576143a96170cc565b5b048201901c905060018184816143c3576143c26170cc565b5b048201901c905060018184816143dc576143db6170cc565b5b048201901c905060018184816143f5576143f46170cc565b5b048201901c9050600181848161440e5761440d6170cc565b5b048201901c905061442f81828581614429576144286170cc565b5b04614973565b9150505b919050565b60005b818310156144a057600061444f848461498c565b90508463ffffffff1661446287836137ce565b60000160009054906101000a900463ffffffff1663ffffffff16111561448a5780925061449a565b6001816144979190616426565b93505b5061443b565b819050949350505050565b600067ffffffffffffffff80168211156144fa576040517f08c379a00000000000000000000000000000000000000000000000000000000081526004016144f1906175e2565b60405180910390fd5b819050919050565b6060600061450f836149b2565b90506000602067ffffffffffffffff81111561452e5761452d614d05565b5b6040519080825280601f01601f1916602001820160405280156145605781602001600182028036833780820191505090505b5090508181528360208201528092505050919050565b6000825111156145895781518083602001fd5b806040517f08c379a00000000000000000000000000000000000000000000000000000000081526004016145bd9190614fe8565b60405180910390fd5b60007f01ffc9a7000000000000000000000000000000000000000000000000000000007bffffffffffffffffffffffffffffffffffffffffffffffffffffffff1916827bffffffffffffffffffffffffffffffffffffffffffffffffffffffff1916149050919050565b60007f8b73c3c69bb8fe3d512ecc4cf759cc79239f7b179b0ffacaa9a75d522b39400f7f00000000000000000000000000000000000000000000000000000000000000007f000000000000000000000000000000000000000000000000000000000000000046306040516020016146ab959493929190617602565b60405160208183030381529060405280519060200120905090565b600080600a60008481526020019081526020016000209050806002015481600101546146f29190616426565b6147036146fe856112dc565b61204d565b1115915050919050565b600080600a600084815260200190815260200160002090508060000154816001015411915050919050565b60008061474786868686611f55565b90506000614754826113d1565b90506002600781111561476a57614769615506565b5b81600781111561477d5761477c615506565b5b141580156147b057506006600781111561479a57614799615506565b5b8160078111156147ad576147ac615506565b5b14155b80156147e057506007808111156147ca576147c9615506565b5b8160078111156147dd576147dc615506565b5b14155b61481f576040517f08c379a0000000000000000000000000000000000000000000000000000000008152600401614816906176a1565b60405180910390fd5b60016003600084815260200190815260200160002060020160016101000a81548160ff0219169083151502179055507f789cf55be980739dad1d0699b93b58e806b51c9d96619bfa8fe0a28abaa7b30c8260405161487d9190614c0a565b60405180910390a18192505050949350505050565b600080600090506000608084901c11156148b457608083901c92506080810190505b6000604084901c11156148cf57604083901c92506040810190505b6000602084901c11156148ea57602083901c92506020810190505b6000601084901c111561490557601083901c92506010810190505b6000600884901c111561492057600883901c92506008810190505b6000600484901c111561493b57600483901c92506004810190505b6000600284901c111561495657600283901c92506002810190505b6000600184901c111561496a576001810190505b80915050919050565b60008183106149825781614984565b825b905092915050565b6000600282841861499d91906170fb565b8284166149aa9190616426565b905092915050565b60008060ff8360001c169050601f8111156149f9576040517fb3512b0c00000000000000000000000000000000000000000000000000000000815260040160405180910390fd5b80915050919050565b828054614a0e90615fb4565b90600052602060002090601f016020900481019282614a305760008555614a77565b82601f10614a4957805160ff1916838001178555614a77565b82800160010185558215614a77579182015b82811115614a76578251825591602001919060010190614a5b565b5b509050614a849190614a88565b5090565b5b80821115614aa1576000816000905550600101614a89565b5090565b600082825260208201905092915050565b7f476f7665726e6f723a206d7573742073656e6420746f206578656375746f7200600082015250565b6000614aec601f83614aa5565b9150614af782614ab6565b602082019050919050565b60006020820190508181036000830152614b1b81614adf565b9050919050565b6000604051905090565b600080fd5b600080fd5b60007fffffffff0000000000000000000000000000000000000000000000000000000082169050919050565b614b6b81614b36565b8114614b7657600080fd5b50565b600081359050614b8881614b62565b92915050565b600060208284031215614ba457614ba3614b2c565b5b6000614bb284828501614b79565b91505092915050565b60008115159050919050565b614bd081614bbb565b82525050565b6000602082019050614beb6000830184614bc7565b92915050565b6000819050919050565b614c0481614bf1565b82525050565b6000602082019050614c1f6000830184614bfb565b92915050565b614c2e81614bf1565b8114614c3957600080fd5b50565b600081359050614c4b81614c25565b92915050565b600060ff82169050919050565b614c6781614c51565b8114614c7257600080fd5b50565b600081359050614c8481614c5e565b92915050565b600080fd5b600080fd5b600080fd5b60008083601f840112614caf57614cae614c8a565b5b8235905067ffffffffffffffff811115614ccc57614ccb614c8f565b5b602083019150836001820283011115614ce857614ce7614c94565b5b9250929050565b600080fd5b6000601f19601f8301169050919050565b7f4e487b7100000000000000000000000000000000000000000000000000000000600052604160045260246000fd5b614d3d82614cf4565b810181811067ffffffffffffffff82111715614d5c57614d5b614d05565b5b80604052505050565b6000614d6f614b22565b9050614d7b8282614d34565b919050565b600067ffffffffffffffff821115614d9b57614d9a614d05565b5b614da482614cf4565b9050602081019050919050565b82818337600083830152505050565b6000614dd3614dce84614d80565b614d65565b905082815260208101848484011115614def57614dee614cef565b5b614dfa848285614db1565b509392505050565b600082601f830112614e1757614e16614c8a565b5b8135614e27848260208601614dc0565b91505092915050565b6000819050919050565b614e4381614e30565b8114614e4e57600080fd5b50565b600081359050614e6081614e3a565b92915050565b60008060008060008060008060e0898b031215614e8657614e85614b2c565b5b6000614e948b828c01614c3c565b9850506020614ea58b828c01614c75565b975050604089013567ffffffffffffffff811115614ec657614ec5614b31565b5b614ed28b828c01614c99565b9650965050606089013567ffffffffffffffff811115614ef557614ef4614b31565b5b614f018b828c01614e02565b9450506080614f128b828c01614c75565b93505060a0614f238b828c01614e51565b92505060c0614f348b828c01614e51565b9150509295985092959890939650565b600060208284031215614f5a57614f59614b2c565b5b6000614f6884828501614c3c565b91505092915050565b600081519050919050565b60005b83811015614f9a578082015181840152602081019050614f7f565b83811115614fa9576000848401525b50505050565b6000614fba82614f71565b614fc48185614aa5565b9350614fd4818560208601614f7c565b614fdd81614cf4565b840191505092915050565b600060208201905081810360008301526150028184614faf565b905092915050565b600073ffffffffffffffffffffffffffffffffffffffff82169050919050565b60006150358261500a565b9050919050565b6150458161502a565b82525050565b6000602082019050615060600083018461503c565b92915050565b61506f8161502a565b811461507a57600080fd5b50565b60008135905061508c81615066565b92915050565b600080600080608085870312156150ac576150ab614b2c565b5b60006150ba8782880161507d565b94505060206150cb8782880161507d565b93505060406150dc87828801614c3c565b925050606085013567ffffffffffffffff8111156150fd576150fc614b31565b5b61510987828801614e02565b91505092959194509250565b61511e81614b36565b82525050565b60006020820190506151396000830184615115565b92915050565b600067ffffffffffffffff82111561515a57615159614d05565b5b602082029050602081019050919050565b600061517e6151798461513f565b614d65565b905080838252602082019050602084028301858111156151a1576151a0614c94565b5b835b818110156151ca57806151b6888261507d565b8452602084019350506020810190506151a3565b5050509392505050565b600082601f8301126151e9576151e8614c8a565b5b81356151f984826020860161516b565b91505092915050565b600067ffffffffffffffff82111561521d5761521c614d05565b5b602082029050602081019050919050565b600061524161523c84615202565b614d65565b9050808382526020820190506020840283018581111561526457615263614c94565b5b835b8181101561528d57806152798882614c3c565b845260208401935050602081019050615266565b5050509392505050565b600082601f8301126152ac576152ab614c8a565b5b81356152bc84826020860161522e565b91505092915050565b600067ffffffffffffffff8211156152e0576152df614d05565b5b602082029050602081019050919050565b60006153046152ff846152c5565b614d65565b9050808382526020820190506020840283018581111561532757615326614c94565b5b835b8181101561536e57803567ffffffffffffffff81111561534c5761534b614c8a565b5b8086016153598982614e02565b85526020850194505050602081019050615329565b5050509392505050565b600082601f83011261538d5761538c614c8a565b5b813561539d8482602086016152f1565b91505092915050565b600080600080608085870312156153c0576153bf614b2c565b5b600085013567ffffffffffffffff8111156153de576153dd614b31565b5b6153ea878288016151d4565b945050602085013567ffffffffffffffff81111561540b5761540a614b31565b5b61541787828801615297565b935050604085013567ffffffffffffffff81111561543857615437614b31565b5b61544487828801615378565b925050606061545587828801614e51565b91505092959194509250565b61546a81614e30565b82525050565b60006020820190506154856000830184615461565b92915050565b600080600080600060a086880312156154a7576154a6614b2c565b5b60006154b588828901614c3c565b95505060206154c688828901614c75565b94505060406154d788828901614c75565b93505060606154e888828901614e51565b92505060806154f988828901614e51565b9150509295509295909350565b7f4e487b7100000000000000000000000000000000000000000000000000000000600052602160045260246000fd5b6008811061554657615545615506565b5b50565b600081905061555782615535565b919050565b600061556782615549565b9050919050565b6155778161555c565b82525050565b6000602082019050615592600083018461556e565b92915050565b600080604083850312156155af576155ae614b2c565b5b60006155bd85828601614c3c565b92505060206155ce8582860161507d565b9150509250929050565b60006060820190506155ed6000830186614bfb565b6155fa6020830185614bfb565b6156076040830184614bfb565b949350505050565b6000806040838503121561562657615625614b2c565b5b600061563485828601614c3c565b925050602061564585828601614c75565b9150509250929050565b60008060008060006080868803121561566b5761566a614b2c565b5b600061567988828901614c3c565b955050602061568a88828901614c75565b945050604086013567ffffffffffffffff8111156156ab576156aa614b31565b5b6156b788828901614c99565b9350935050606086013567ffffffffffffffff8111156156da576156d9614b31565b5b6156e688828901614e02565b9150509295509295909350565b6000806000806060858703121561570d5761570c614b2c565b5b600061571b87828801614c3c565b945050602061572c87828801614c75565b935050604085013567ffffffffffffffff81111561574d5761574c614b31565b5b61575987828801614c99565b925092505092959194509250565b600067ffffffffffffffff82111561578257615781614d05565b5b61578b82614cf4565b9050602081019050919050565b60006157ab6157a684615767565b614d65565b9050828152602081018484840111156157c7576157c6614cef565b5b6157d2848285614db1565b509392505050565b600082601f8301126157ef576157ee614c8a565b5b81356157ff848260208601615798565b91505092915050565b6000806000806080858703121561582257615821614b2c565b5b600085013567ffffffffffffffff8111156158405761583f614b31565b5b61584c878288016151d4565b945050602085013567ffffffffffffffff81111561586d5761586c614b31565b5b61587987828801615297565b935050604085013567ffffffffffffffff81111561589a57615899614b31565b5b6158a687828801615378565b925050606085013567ffffffffffffffff8111156158c7576158c6614b31565b5b6158d3878288016157da565b91505092959194509250565b60007fff0000000000000000000000000000000000000000000000000000000000000082169050919050565b615914816158df565b82525050565b600081519050919050565b600082825260208201905092915050565b6000819050602082019050919050565b61594f81614bf1565b82525050565b60006159618383615946565b60208301905092915050565b6000602082019050919050565b60006159858261591a565b61598f8185615925565b935061599a83615936565b8060005b838110156159cb5781516159b28882615955565b97506159bd8361596d565b92505060018101905061599e565b5085935050505092915050565b600060e0820190506159ed600083018a61590b565b81810360208301526159ff8189614faf565b90508181036040830152615a138188614faf565b9050615a226060830187614bfb565b615a2f608083018661503c565b615a3c60a0830185615461565b81810360c0830152615a4e818461597a565b905098975050505050505050565b600065ffffffffffff82169050919050565b615a7781615a5c565b82525050565b6000602082019050615a926000830184615a6e565b92915050565b600080600060608486031215615ab157615ab0614b2c565b5b6000615abf8682870161507d565b9350506020615ad086828701614c3c565b925050604084013567ffffffffffffffff811115615af157615af0614b31565b5b615afd86828701614e02565b9150509250925092565b6000615b128261500a565b9050919050565b6000615b2482615b07565b9050919050565b615b3481615b19565b8114615b3f57600080fd5b50565b600081359050615b5181615b2b565b92915050565b600060208284031215615b6d57615b6c614b2c565b5b6000615b7b84828501615b42565b91505092915050565b600080600080600060a08688031215615ba057615b9f614b2c565b5b6000615bae8882890161507d565b9550506020615bbf8882890161507d565b945050604086013567ffffffffffffffff811115615be057615bdf614b31565b5b615bec88828901615297565b935050606086013567ffffffffffffffff811115615c0d57615c0c614b31565b5b615c1988828901615297565b925050608086013567ffffffffffffffff811115615c3a57615c39614b31565b5b615c4688828901614e02565b9150509295509295909350565b60008083601f840112615c6957615c68614c8a565b5b8235905067ffffffffffffffff811115615c8657615c85614c8f565b5b602083019150836001820283011115615ca257615ca1614c94565b5b9250929050565b60008060008060608587031215615cc357615cc2614b2c565b5b6000615cd18782880161507d565b9450506020615ce287828801614c3c565b935050604085013567ffffffffffffffff811115615d0357615d02614b31565b5b615d0f87828801615c53565b925092505092959194509250565b60008060408385031215615d3457615d33614b2c565b5b6000615d428582860161507d565b9250506020615d5385828601614c3c565b9150509250929050565b600080600080600060a08688031215615d7957615d78614b2c565b5b6000615d878882890161507d565b9550506020615d988882890161507d565b9450506040615da988828901614c3c565b9350506060615dba88828901614c3c565b925050608086013567ffffffffffffffff811115615ddb57615dda614b31565b5b615de788828901614e02565b9150509295509295909350565b6000819050919050565b6000615e19615e14615e0f8461500a565b615df4565b61500a565b9050919050565b6000615e2b82615dfe565b9050919050565b6000615e3d82615e20565b9050919050565b615e4d81615e32565b82525050565b6000602082019050615e686000830184615e44565b92915050565b600081905092915050565b6000615e858385615e6e565b9350615e92838584614db1565b82840190509392505050565b6000615eab828486615e79565b91508190509392505050565b615ec081614c51565b82525050565b600060a082019050615edb6000830188615461565b615ee86020830187614bfb565b615ef56040830186615eb7565b615f026060830185615461565b615f0f6080830184615461565b9695505050505050565b7f476f7665726e6f723a206f6e6c79476f7665726e616e63650000000000000000600082015250565b6000615f4f601883614aa5565b9150615f5a82615f19565b602082019050919050565b60006020820190508181036000830152615f7e81615f42565b9050919050565b7f4e487b7100000000000000000000000000000000000000000000000000000000600052602260045260246000fd5b60006002820490506001821680615fcc57607f821691505b60208210811415615fe057615fdf615f85565b5b50919050565b7f476f7665726e6f723a2070726f706f73616c206e6f742073756363657373667560008201527f6c00000000000000000000000000000000000000000000000000000000000000602082015250565b6000616042602183614aa5565b915061604d82615fe6565b604082019050919050565b6000602082019050818103600083015261607181616035565b9050919050565b60008151905061608781614c25565b92915050565b6000602082840312156160a3576160a2614b2c565b5b60006160b184828501616078565b91505092915050565b600081519050919050565b600082825260208201905092915050565b6000819050602082019050919050565b6160ef8161502a565b82525050565b600061610183836160e6565b60208301905092915050565b6000602082019050919050565b6000616125826160ba565b61612f81856160c5565b935061613a836160d6565b8060005b8381101561616b57815161615288826160f5565b975061615d8361610d565b92505060018101905061613e565b5085935050505092915050565b600081519050919050565b600082825260208201905092915050565b6000819050602082019050919050565b600081519050919050565b600082825260208201905092915050565b60006161cb826161a4565b6161d581856161af565b93506161e5818560208601614f7c565b6161ee81614cf4565b840191505092915050565b600061620583836161c0565b905092915050565b6000602082019050919050565b600061622582616178565b61622f8185616183565b93508360208202850161624185616194565b8060005b8581101561627d578484038952815161625e85826161f9565b94506162698361620d565b925060208a01995050600181019050616245565b50829750879550505050505092915050565b6000819050919050565b60008160001b9050919050565b60006162c16162bc6162b78461628f565b616299565b614e30565b9050919050565b6162d1816162a6565b82525050565b600060a08201905081810360008301526162f1818861611a565b90508181036020830152616305818761597a565b90508181036040830152616319818661621a565b905061632860608301856162c8565b6163356080830184615461565b9695505050505050565b60008151905061634e81614e3a565b92915050565b60006020828403121561636a57616369614b2c565b5b60006163788482850161633f565b91505092915050565b600060c082019050818103600083015261639b818961611a565b905081810360208301526163af818861597a565b905081810360408301526163c3818761621a565b90506163d260608301866162c8565b6163df6080830185615461565b6163ec60a0830184614bfb565b979650505050505050565b7f4e487b7100000000000000000000000000000000000000000000000000000000600052601160045260246000fd5b600061643182614bf1565b915061643c83614bf1565b9250827fffffffffffffffffffffffffffffffffffffffffffffffffffffffffffffffff03821115616471576164706163f7565b5b828201905092915050565b60006040820190506164916000830185614bfb565b61649e6020830184614bfb565b9392505050565b60006060820190506164ba6000830186615461565b6164c76020830185614bfb565b6164d46040830184615eb7565b949350505050565b7f476f7665726e6f723a20746f6f206c61746520746f2063616e63656c00000000600082015250565b6000616512601c83614aa5565b915061651d826164dc565b602082019050919050565b6000602082019050818103600083015261654181616505565b9050919050565b7f476f7665726e6f723a206f6e6c792070726f706f7365722063616e2063616e6360008201527f656c000000000000000000000000000000000000000000000000000000000000602082015250565b60006165a4602283614aa5565b91506165af82616548565b604082019050919050565b600060208201905081810360008301526165d381616597565b9050919050565b60006165ed6165e884615767565b614d65565b90508281526020810184848401111561660957616608614cef565b5b616614848285614f7c565b509392505050565b600082601f83011261663157616630614c8a565b5b81516166418482602086016165da565b91505092915050565b6000602082840312156166605761665f614b2c565b5b600082015167ffffffffffffffff81111561667e5761667d614b31565b5b61668a8482850161661c565b91505092915050565b600061669e82614bf1565b91506166a983614bf1565b9250828210156166bc576166bb6163f7565b5b828203905092915050565b7f4e487b7100000000000000000000000000000000000000000000000000000000600052603260045260246000fd5b6166ff81615a5c565b811461670a57600080fd5b50565b60008151905061671c816166f6565b92915050565b60006020828403121561673857616737614b2c565b5b60006167468482850161670d565b91505092915050565b60006080820190508181036000830152616769818761611a565b9050818103602083015261677d818661597a565b90508181036040830152616791818561621a565b90506167a06060830184615461565b95945050505050565b7f53616665436173743a2076616c756520646f65736e27742066697420696e203260008201527f3234206269747300000000000000000000000000000000000000000000000000602082015250565b6000616805602783614aa5565b9150616810826167a9565b604082019050919050565b60006020820190508181036000830152616834816167f8565b9050919050565b7f53616665436173743a2076616c756520646f65736e27742066697420696e203360008201527f3220626974730000000000000000000000000000000000000000000000000000602082015250565b6000616897602683614aa5565b91506168a28261683b565b604082019050919050565b600060208201905081810360008301526168c68161688a565b9050919050565b7f53616665436173743a2076616c756520646f65736e27742066697420696e203460008201527f3820626974730000000000000000000000000000000000000000000000000000602082015250565b6000616929602683614aa5565b9150616934826168cd565b604082019050919050565b600060208201905081810360008301526169588161691c565b9050919050565b7f476f7665726e6f723a20766f7465206e6f742063757272656e746c792061637460008201527f6976650000000000000000000000000000000000000000000000000000000000602082015250565b60006169bb602383614aa5565b91506169c68261695f565b604082019050919050565b600060208201905081810360008301526169ea816169ae565b9050919050565b6000608082019050616a066000830187614bfb565b616a136020830186615eb7565b616a206040830185614bfb565b8181036060830152616a328184614faf565b905095945050505050565b600082825260208201905092915050565b6000616a59826161a4565b616a638185616a3d565b9350616a73818560208601614f7c565b616a7c81614cf4565b840191505092915050565b600060a082019050616a9c6000830188614bfb565b616aa96020830187615eb7565b616ab66040830186614bfb565b8181036060830152616ac88185614faf565b90508181036080830152616adc8184616a4e565b90509695505050505050565b7f476f7665726e6f72566f74657351756f72756d4672616374696f6e3a2071756f60008201527f72756d4e756d657261746f72206f7665722071756f72756d44656e6f6d696e6160208201527f746f720000000000000000000000000000000000000000000000000000000000604082015250565b6000616b6a604383614aa5565b9150616b7582616ae8565b606082019050919050565b60006020820190508181036000830152616b9981616b5d565b9050919050565b6000616bab82614bf1565b91507fffffffffffffffffffffffffffffffffffffffffffffffffffffffffffffffff821415616bde57616bdd6163f7565b5b600182019050919050565b616bf281614bbb565b8114616bfd57600080fd5b50565b600081519050616c0f81616be9565b92915050565b600060208284031215616c2b57616c2a614b2c565b5b6000616c3984828501616c00565b91505092915050565b7f476f7665726e6f723a2070726f706f73657220766f7465732062656c6f77207060008201527f726f706f73616c207468726573686f6c64000000000000000000000000000000602082015250565b6000616c9e603183614aa5565b9150616ca982616c42565b604082019050919050565b60006020820190508181036000830152616ccd81616c91565b9050919050565b7f476f7665726e6f723a20696e76616c69642070726f706f73616c206c656e677460008201527f6800000000000000000000000000000000000000000000000000000000000000602082015250565b6000616d30602183614aa5565b9150616d3b82616cd4565b604082019050919050565b60006020820190508181036000830152616d5f81616d23565b9050919050565b7f476f7665726e6f723a20656d7074792070726f706f73616c0000000000000000600082015250565b6000616d9c601883614aa5565b9150616da782616d66565b602082019050919050565b60006020820190508181036000830152616dcb81616d8f565b9050919050565b7f476f7665726e6f723a2070726f706f73616c20616c726561647920657869737460008201527f7300000000000000000000000000000000000000000000000000000000000000602082015250565b6000616e2e602183614aa5565b9150616e3982616dd2565b604082019050919050565b60006020820190508181036000830152616e5d81616e21565b9050919050565b600081519050919050565b600082825260208201905092915050565b6000819050602082019050919050565b600082825260208201905092915050565b6000616eac82614f71565b616eb68185616e90565b9350616ec6818560208601614f7c565b616ecf81614cf4565b840191505092915050565b6000616ee68383616ea1565b905092915050565b6000602082019050919050565b6000616f0682616e64565b616f108185616e6f565b935083602082028501616f2285616e80565b8060005b85811015616f5e5784840389528151616f3f8582616eda565b9450616f4a83616eee565b925060208a01995050600181019050616f26565b50829750879550505050505092915050565b600061012082019050616f86600083018c614bfb565b616f93602083018b61503c565b8181036040830152616fa5818a61611a565b90508181036060830152616fb9818961597a565b90508181036080830152616fcd8188616efb565b905081810360a0830152616fe1818761621a565b9050616ff060c0830186614bfb565b616ffd60e0830185614bfb565b8181036101008301526170108184614faf565b90509a9950505050505050505050565b6000604082019050617035600083018561503c565b6170426020830184614bfb565b9392505050565b600060408201905061705e600083018561503c565b61706b602083018461503c565b9392505050565b600061707d82614bf1565b915061708883614bf1565b9250817fffffffffffffffffffffffffffffffffffffffffffffffffffffffffffffffff04831182151516156170c1576170c06163f7565b5b828202905092915050565b7f4e487b7100000000000000000000000000000000000000000000000000000000600052601260045260246000fd5b600061710682614bf1565b915061711183614bf1565b925082617121576171206170cc565b5b828204905092915050565b6000819050602082019050919050565b60006171488251614e30565b80915050919050565b600082821b905092915050565b6000617169826161a4565b826171738461712c565b905061717e8161713c565b925060208210156171be576171b97fffffffffffffffffffffffffffffffffffffffffffffffffffffffffffffffff83602003600802617151565b831692505b5050919050565b7f436865636b706f696e743a2064656372656173696e67206b6579730000000000600082015250565b60006171fb601b83614aa5565b9150617206826171c5565b602082019050919050565b6000602082019050818103600083015261722a816171ee565b9050919050565b60006080820190506172466000830187615461565b6172536020830186615eb7565b6172606040830185615461565b61726d6060830184615461565b95945050505050565b7f45434453413a20696e76616c6964207369676e61747572650000000000000000600082015250565b60006172ac601883614aa5565b91506172b782617276565b602082019050919050565b600060208201905081810360008301526172db8161729f565b9050919050565b7f45434453413a20696e76616c6964207369676e6174757265206c656e67746800600082015250565b6000617318601f83614aa5565b9150617323826172e2565b602082019050919050565b600060208201905081810360008301526173478161730b565b9050919050565b7f45434453413a20696e76616c6964207369676e6174757265202773272076616c60008201527f7565000000000000000000000000000000000000000000000000000000000000602082015250565b60006173aa602283614aa5565b91506173b58261734e565b604082019050919050565b600060208201905081810360008301526173d98161739d565b9050919050565b7f476f7665726e6f72566f74696e6753696d706c653a20766f746520616c72656160008201527f6479206361737400000000000000000000000000000000000000000000000000602082015250565b600061743c602783614aa5565b9150617447826173e0565b604082019050919050565b6000602082019050818103600083015261746b8161742f565b9050919050565b7f476f7665726e6f72566f74696e6753696d706c653a20696e76616c696420766160008201527f6c756520666f7220656e756d20566f7465547970650000000000000000000000602082015250565b60006174ce603583614aa5565b91506174d982617472565b604082019050919050565b600060208201905081810360008301526174fd816174c1565b9050919050565b7f476f7665726e6f723a20756e6b6e6f776e2070726f706f73616c206964000000600082015250565b600061753a601d83614aa5565b915061754582617504565b602082019050919050565b600060208201905081810360008301526175698161752d565b9050919050565b7f53616665436173743a2076616c756520646f65736e27742066697420696e203660008201527f3420626974730000000000000000000000000000000000000000000000000000602082015250565b60006175cc602683614aa5565b91506175d782617570565b604082019050919050565b600060208201905081810360008301526175fb816175bf565b9050919050565b600060a0820190506176176000830188615461565b6176246020830187615461565b6176316040830186615461565b61763e6060830185614bfb565b61764b608083018461503c565b9695505050505050565b7f476f7665726e6f723a2070726f706f73616c206e6f7420616374697665000000600082015250565b600061768b601d83614aa5565b915061769682617655565b602082019050919050565b600060208201905081810360008301526176ba8161767e565b905091905056fe476f7665726e6f723a2072656c617920726576657274656420776974686f7574206d657373616765a26469706673582212206dea77098e2985b211798679c59da378a1a7234ee333ed501a788ef63d8a481564736f6c63430008090033",
  "linkReferences": {},
  "deployedLinkReferences": {}
}