{
  "_format": "hh-sol-artifact-1",
  "contractName": "ERC721ConsecutiveMock",
  "sourceName": "contracts/oz_contracts/mocks/token/ERC721ConsecutiveMock.sol",
  "abi": [
    {
      "inputs": [
        {
          "internalType": "string",
          "name": "name",
          "type": "string"
        },
        {
          "internalType": "string",
          "name": "symbol",
          "type": "string"
        },
        {
          "internalType": "address[]",
          "name": "delegates",
          "type": "address[]"
        },
        {
          "internalType": "address[]",
          "name": "receivers",
          "type": "address[]"
        },
        {
          "internalType": "uint96[]",
          "name": "amounts",
          "type": "uint96[]"
        }
      ],
      "stateMutability": "nonpayable",
      "type": "constructor"
    },
    {
      "inputs": [],
      "name": "InvalidShortString",
      "type": "error"
    },
    {
      "inputs": [
        {
          "internalType": "string",
          "name": "str",
          "type": "string"
        }
      ],
      "name": "StringTooLong",
      "type": "error"
    },
    {
      "anonymous": false,
      "inputs": [
        {
          "indexed": true,
          "internalType": "address",
          "name": "owner",
          "type": "address"
        },
        {
          "indexed": true,
          "internalType": "address",
          "name": "approved",
          "type": "address"
        },
        {
          "indexed": true,
          "internalType": "uint256",
          "name": "tokenId",
          "type": "uint256"
        }
      ],
      "name": "Approval",
      "type": "event"
    },
    {
      "anonymous": false,
      "inputs": [
        {
          "indexed": true,
          "internalType": "address",
          "name": "owner",
          "type": "address"
        },
        {
          "indexed": true,
          "internalType": "address",
          "name": "operator",
          "type": "address"
        },
        {
          "indexed": false,
          "internalType": "bool",
          "name": "approved",
          "type": "bool"
        }
      ],
      "name": "ApprovalForAll",
      "type": "event"
    },
    {
      "anonymous": false,
      "inputs": [
        {
          "indexed": true,
          "internalType": "uint256",
          "name": "fromTokenId",
          "type": "uint256"
        },
        {
          "indexed": false,
          "internalType": "uint256",
          "name": "toTokenId",
          "type": "uint256"
        },
        {
          "indexed": true,
          "internalType": "address",
          "name": "fromAddress",
          "type": "address"
        },
        {
          "indexed": true,
          "internalType": "address",
          "name": "toAddress",
          "type": "address"
        }
      ],
      "name": "ConsecutiveTransfer",
      "type": "event"
    },
    {
      "anonymous": false,
      "inputs": [
        {
          "indexed": true,
          "internalType": "address",
          "name": "delegator",
          "type": "address"
        },
        {
          "indexed": true,
          "internalType": "address",
          "name": "fromDelegate",
          "type": "address"
        },
        {
          "indexed": true,
          "internalType": "address",
          "name": "toDelegate",
          "type": "address"
        }
      ],
      "name": "DelegateChanged",
      "type": "event"
    },
    {
      "anonymous": false,
      "inputs": [
        {
          "indexed": true,
          "internalType": "address",
          "name": "delegate",
          "type": "address"
        },
        {
          "indexed": false,
          "internalType": "uint256",
          "name": "previousBalance",
          "type": "uint256"
        },
        {
          "indexed": false,
          "internalType": "uint256",
          "name": "newBalance",
          "type": "uint256"
        }
      ],
      "name": "DelegateVotesChanged",
      "type": "event"
    },
    {
      "anonymous": false,
      "inputs": [],
      "name": "EIP712DomainChanged",
      "type": "event"
    },
    {
      "anonymous": false,
      "inputs": [
        {
          "indexed": false,
          "internalType": "address",
          "name": "account",
          "type": "address"
        }
      ],
      "name": "Paused",
      "type": "event"
    },
    {
      "anonymous": false,
      "inputs": [
        {
          "indexed": true,
          "internalType": "address",
          "name": "from",
          "type": "address"
        },
        {
          "indexed": true,
          "internalType": "address",
          "name": "to",
          "type": "address"
        },
        {
          "indexed": true,
          "internalType": "uint256",
          "name": "tokenId",
          "type": "uint256"
        }
      ],
      "name": "Transfer",
      "type": "event"
    },
    {
      "anonymous": false,
      "inputs": [
        {
          "indexed": false,
          "internalType": "address",
          "name": "account",
          "type": "address"
        }
      ],
      "name": "Unpaused",
      "type": "event"
    },
    {
      "inputs": [],
      "name": "CLOCK_MODE",
      "outputs": [
        {
          "internalType": "string",
          "name": "",
          "type": "string"
        }
      ],
      "stateMutability": "view",
      "type": "function"
    },
    {
      "inputs": [],
      "name": "DOMAIN_SEPARATOR",
      "outputs": [
        {
          "internalType": "bytes32",
          "name": "",
          "type": "bytes32"
        }
      ],
      "stateMutability": "view",
      "type": "function"
    },
    {
      "inputs": [
        {
          "internalType": "address",
          "name": "to",
          "type": "address"
        },
        {
          "internalType": "uint256",
          "name": "tokenId",
          "type": "uint256"
        }
      ],
      "name": "approve",
      "outputs": [],
      "stateMutability": "nonpayable",
      "type": "function"
    },
    {
      "inputs": [
        {
          "internalType": "address",
          "name": "owner",
          "type": "address"
        }
      ],
      "name": "balanceOf",
      "outputs": [
        {
          "internalType": "uint256",
          "name": "",
          "type": "uint256"
        }
      ],
      "stateMutability": "view",
      "type": "function"
    },
    {
      "inputs": [],
      "name": "clock",
      "outputs": [
        {
          "internalType": "uint48",
          "name": "",
          "type": "uint48"
        }
      ],
      "stateMutability": "view",
      "type": "function"
    },
    {
      "inputs": [
        {
          "internalType": "address",
          "name": "delegatee",
          "type": "address"
        }
      ],
      "name": "delegate",
      "outputs": [],
      "stateMutability": "nonpayable",
      "type": "function"
    },
    {
      "inputs": [
        {
          "internalType": "address",
          "name": "delegatee",
          "type": "address"
        },
        {
          "internalType": "uint256",
          "name": "nonce",
          "type": "uint256"
        },
        {
          "internalType": "uint256",
          "name": "expiry",
          "type": "uint256"
        },
        {
          "internalType": "uint8",
          "name": "v",
          "type": "uint8"
        },
        {
          "internalType": "bytes32",
          "name": "r",
          "type": "bytes32"
        },
        {
          "internalType": "bytes32",
          "name": "s",
          "type": "bytes32"
        }
      ],
      "name": "delegateBySig",
      "outputs": [],
      "stateMutability": "nonpayable",
      "type": "function"
    },
    {
      "inputs": [
        {
          "internalType": "address",
          "name": "account",
          "type": "address"
        }
      ],
      "name": "delegates",
      "outputs": [
        {
          "internalType": "address",
          "name": "",
          "type": "address"
        }
      ],
      "stateMutability": "view",
      "type": "function"
    },
    {
      "inputs": [],
      "name": "eip712Domain",
      "outputs": [
        {
          "internalType": "bytes1",
          "name": "fields",
          "type": "bytes1"
        },
        {
          "internalType": "string",
          "name": "name",
          "type": "string"
        },
        {
          "internalType": "string",
          "name": "version",
          "type": "string"
        },
        {
          "internalType": "uint256",
          "name": "chainId",
          "type": "uint256"
        },
        {
          "internalType": "address",
          "name": "verifyingContract",
          "type": "address"
        },
        {
          "internalType": "bytes32",
          "name": "salt",
          "type": "bytes32"
        },
        {
          "internalType": "uint256[]",
          "name": "extensions",
          "type": "uint256[]"
        }
      ],
      "stateMutability": "view",
      "type": "function"
    },
    {
      "inputs": [
        {
          "internalType": "uint256",
          "name": "tokenId",
          "type": "uint256"
        }
      ],
      "name": "getApproved",
      "outputs": [
        {
          "internalType": "address",
          "name": "",
          "type": "address"
        }
      ],
      "stateMutability": "view",
      "type": "function"
    },
    {
      "inputs": [
        {
          "internalType": "uint256",
          "name": "timepoint",
          "type": "uint256"
        }
      ],
      "name": "getPastTotalSupply",
      "outputs": [
        {
          "internalType": "uint256",
          "name": "",
          "type": "uint256"
        }
      ],
      "stateMutability": "view",
      "type": "function"
    },
    {
      "inputs": [
        {
          "internalType": "address",
          "name": "account",
          "type": "address"
        },
        {
          "internalType": "uint256",
          "name": "timepoint",
          "type": "uint256"
        }
      ],
      "name": "getPastVotes",
      "outputs": [
        {
          "internalType": "uint256",
          "name": "",
          "type": "uint256"
        }
      ],
      "stateMutability": "view",
      "type": "function"
    },
    {
      "inputs": [
        {
          "internalType": "address",
          "name": "account",
          "type": "address"
        }
      ],
      "name": "getVotes",
      "outputs": [
        {
          "internalType": "uint256",
          "name": "",
          "type": "uint256"
        }
      ],
      "stateMutability": "view",
      "type": "function"
    },
    {
      "inputs": [
        {
          "internalType": "address",
          "name": "owner",
          "type": "address"
        },
        {
          "internalType": "address",
          "name": "operator",
          "type": "address"
        }
      ],
      "name": "isApprovedForAll",
      "outputs": [
        {
          "internalType": "bool",
          "name": "",
          "type": "bool"
        }
      ],
      "stateMutability": "view",
      "type": "function"
    },
    {
      "inputs": [],
      "name": "name",
      "outputs": [
        {
          "internalType": "string",
          "name": "",
          "type": "string"
        }
      ],
      "stateMutability": "view",
      "type": "function"
    },
    {
      "inputs": [
        {
          "internalType": "address",
          "name": "owner",
          "type": "address"
        }
      ],
      "name": "nonces",
      "outputs": [
        {
          "internalType": "uint256",
          "name": "",
          "type": "uint256"
        }
      ],
      "stateMutability": "view",
      "type": "function"
    },
    {
      "inputs": [
        {
          "internalType": "uint256",
          "name": "tokenId",
          "type": "uint256"
        }
      ],
      "name": "ownerOf",
      "outputs": [
        {
          "internalType": "address",
          "name": "",
          "type": "address"
        }
      ],
      "stateMutability": "view",
      "type": "function"
    },
    {
      "inputs": [],
      "name": "paused",
      "outputs": [
        {
          "internalType": "bool",
          "name": "",
          "type": "bool"
        }
      ],
      "stateMutability": "view",
      "type": "function"
    },
    {
      "inputs": [
        {
          "internalType": "address",
          "name": "from",
          "type": "address"
        },
        {
          "internalType": "address",
          "name": "to",
          "type": "address"
        },
        {
          "internalType": "uint256",
          "name": "tokenId",
          "type": "uint256"
        }
      ],
      "name": "safeTransferFrom",
      "outputs": [],
      "stateMutability": "nonpayable",
      "type": "function"
    },
    {
      "inputs": [
        {
          "internalType": "address",
          "name": "from",
          "type": "address"
        },
        {
          "internalType": "address",
          "name": "to",
          "type": "address"
        },
        {
          "internalType": "uint256",
          "name": "tokenId",
          "type": "uint256"
        },
        {
          "internalType": "bytes",
          "name": "data",
          "type": "bytes"
        }
      ],
      "name": "safeTransferFrom",
      "outputs": [],
      "stateMutability": "nonpayable",
      "type": "function"
    },
    {
      "inputs": [
        {
          "internalType": "address",
          "name": "operator",
          "type": "address"
        },
        {
          "internalType": "bool",
          "name": "approved",
          "type": "bool"
        }
      ],
      "name": "setApprovalForAll",
      "outputs": [],
      "stateMutability": "nonpayable",
      "type": "function"
    },
    {
      "inputs": [
        {
          "internalType": "bytes4",
          "name": "interfaceId",
          "type": "bytes4"
        }
      ],
      "name": "supportsInterface",
      "outputs": [
        {
          "internalType": "bool",
          "name": "",
          "type": "bool"
        }
      ],
      "stateMutability": "view",
      "type": "function"
    },
    {
      "inputs": [],
      "name": "symbol",
      "outputs": [
        {
          "internalType": "string",
          "name": "",
          "type": "string"
        }
      ],
      "stateMutability": "view",
      "type": "function"
    },
    {
      "inputs": [
        {
          "internalType": "uint256",
          "name": "tokenId",
          "type": "uint256"
        }
      ],
      "name": "tokenURI",
      "outputs": [
        {
          "internalType": "string",
          "name": "",
          "type": "string"
        }
      ],
      "stateMutability": "view",
      "type": "function"
    },
    {
      "inputs": [
        {
          "internalType": "address",
          "name": "from",
          "type": "address"
        },
        {
          "internalType": "address",
          "name": "to",
          "type": "address"
        },
        {
          "internalType": "uint256",
          "name": "tokenId",
          "type": "uint256"
        }
      ],
      "name": "transferFrom",
      "outputs": [],
      "stateMutability": "nonpayable",
      "type": "function"
    }
  ],
  "bytecode": "0x6101606040523480156200001257600080fd5b506040516200802338038062008023833981810160405281019062000038919062001fb4565b846040518060400160405280600181526020017f3100000000000000000000000000000000000000000000000000000000000000815250868681600090805190602001906200008992919062001b08565b508060019080519060200190620000a292919062001b08565b5050506000600860006101000a81548160ff021916908315150217905550620000db6009836200026260201b6200112c1790919060201c565b6101208181525050620000fe600a826200026260201b6200112c1790919060201c565b6101408181525050818051906020012060e08181525050808051906020012061010081815250504660a081815250506200013d620002c660201b60201c565b608081815250503073ffffffffffffffffffffffffffffffffffffffff1660c08173ffffffffffffffffffffffffffffffffffffffff1681525050505060005b8351811015620001e757620001d3848281518110620001a157620001a0620020d7565b5b6020026020010151858381518110620001bf57620001be620020d7565b5b60200260200101516200032360201b60201c565b80620001df906200213f565b90506200017d565b5060005b82518110156200025657620002418382815181106200020f576200020e620020d7565b5b60200260200101518383815181106200022d576200022c620020d7565b5b60200260200101516200044f60201b60201c565b50806200024e906200213f565b9050620001eb565b50505050505062002beb565b600060208351101562000288576200028083620006fd60201b60201c565b9050620002c0565b826200029f836200076a60201b620011771760201c565b6000019080519060200190620002b792919062001b08565b5060ff60001b90505b92915050565b60007f8b73c3c69bb8fe3d512ecc4cf759cc79239f7b179b0ffacaa9a75d522b39400f60e05161010051463060405160200162000308959493929190620021ca565b60405160208183030381529060405280519060200120905090565b600062000336836200077460201b60201c565b905081600b60008573ffffffffffffffffffffffffffffffffffffffff1673ffffffffffffffffffffffffffffffffffffffff16815260200190815260200160002060006101000a81548173ffffffffffffffffffffffffffffffffffffffff021916908373ffffffffffffffffffffffffffffffffffffffff1602179055508173ffffffffffffffffffffffffffffffffffffffff168173ffffffffffffffffffffffffffffffffffffffff168473ffffffffffffffffffffffffffffffffffffffff167f3134e8a2e6d97e929a7e54011ea5485d7d196dd5f0ba4d4ef95803e8e3fc257f60405160405180910390a46200044a81836200043e86620007dd60201b60201c565b620007f760201b60201c565b505050565b6000806200046262000abc60201b60201c565b90506000836bffffffffffffffffffffffff161115620006f357620004923062000b0260201b620011811760201c565b15620004d5576040517f08c379a0000000000000000000000000000000000000000000000000000000008152600401620004cc90620022ae565b60405180910390fd5b600073ffffffffffffffffffffffffffffffffffffffff168473ffffffffffffffffffffffffffffffffffffffff16141562000548576040517f08c379a00000000000000000000000000000000000000000000000000000000081526004016200053f9062002346565b60405180910390fd5b6200055862000b2560201b60201c565b6bffffffffffffffffffffffff16836bffffffffffffffffffffffff161115620005b9576040517f08c379a0000000000000000000000000000000000000000000000000000000008152600401620005b090620023de565b60405180910390fd5b620005ea600085836bffffffffffffffffffffffff16866bffffffffffffffffffffffff1662000b2f60201b60201c565b600060018483620005fc919062002400565b62000608919062002449565b9050620006278186600662000b4e60201b620011a4179092919060201c565b50506200064985856bffffffffffffffffffffffff1662000b7360201b60201c565b8473ffffffffffffffffffffffffffffffffffffffff16600073ffffffffffffffffffffffffffffffffffffffff16836bffffffffffffffffffffffff167fdeaa91b6123d068f5821d0fb0678463d1a8a6079fe8af5de3ce5e896dcf9133d84604051620006b89190620024c7565b60405180910390a4620006f1600086846bffffffffffffffffffffffff16876bffffffffffffffffffffffff1662000bcf60201b60201c565b505b8091505092915050565b600080829050601f815111156200074d57826040517f305a27a900000000000000000000000000000000000000000000000000000000815260040162000744919062002530565b60405180910390fd5b8051816200075b9062002593565b60001c1760001b915050919050565b6000819050919050565b6000600b60008373ffffffffffffffffffffffffffffffffffffffff1673ffffffffffffffffffffffffffffffffffffffff16815260200190815260200160002060009054906101000a900473ffffffffffffffffffffffffffffffffffffffff169050919050565b6000620007f08262000bee60201b60201c565b9050919050565b8173ffffffffffffffffffffffffffffffffffffffff168373ffffffffffffffffffffffffffffffffffffffff1614158015620008345750600081115b1562000ab757600073ffffffffffffffffffffffffffffffffffffffff168373ffffffffffffffffffffffffffffffffffffffff16146200097857600080620008e3600c60008773ffffffffffffffffffffffffffffffffffffffff1673ffffffffffffffffffffffffffffffffffffffff16815260200190815260200160002062000ca960201b620011c117620008d78662000cc160201b620011d71760201c565b62000d2f60201b60201c565b7bffffffffffffffffffffffffffffffffffffffffffffffffffffffff1691507bffffffffffffffffffffffffffffffffffffffffffffffffffffffff1691508473ffffffffffffffffffffffffffffffffffffffff167fdec2bacdd2f05b59de34da9b523dff8be42e5e38e818c82fdb0bae774387a72483836040516200096d92919062002603565b60405180910390a250505b600073ffffffffffffffffffffffffffffffffffffffff168273ffffffffffffffffffffffffffffffffffffffff161462000ab65760008062000a21600c60008673ffffffffffffffffffffffffffffffffffffffff1673ffffffffffffffffffffffffffffffffffffffff16815260200190815260200160002062000da660201b620012421762000a158662000cc160201b620011d71760201c565b62000d2f60201b60201c565b7bffffffffffffffffffffffffffffffffffffffffffffffffffffffff1691507bffffffffffffffffffffffffffffffffffffffffffffffffffffffff1691508373ffffffffffffffffffffffffffffffffffffffff167fdec2bacdd2f05b59de34da9b523dff8be42e5e38e818c82fdb0bae774387a724838360405162000aab92919062002603565b60405180910390a250505b5b505050565b600080600062000ad8600662000dbe60201b620012581760201c565b50915091508162000aeb57600062000afb565b60018162000afa919062002400565b5b9250505090565b6000808273ffffffffffffffffffffffffffffffffffffffff163b119050919050565b6000611388905090565b62000b488484848462000ecc60201b6200135a1760201c565b50505050565b60008062000b6785600001858562000f3e60201b60201c565b91509150935093915050565b80600360008473ffffffffffffffffffffffffffffffffffffffff1673ffffffffffffffffffffffffffffffffffffffff168152602001908152602001600020600082825462000bc4919062002630565b925050819055505050565b62000be884848484620012f060201b620013b41760201c565b50505050565b60008073ffffffffffffffffffffffffffffffffffffffff168273ffffffffffffffffffffffffffffffffffffffff16141562000c62576040517f08c379a000000000000000000000000000000000000000000000000000000000815260040162000c599062002703565b60405180910390fd5b600360008373ffffffffffffffffffffffffffffffffffffffff1673ffffffffffffffffffffffffffffffffffffffff168152602001908152602001600020549050919050565b6000818362000cb991906200274d565b905092915050565b60007bffffffffffffffffffffffffffffffffffffffffffffffffffffffff801682111562000d27576040517f08c379a000000000000000000000000000000000000000000000000000000000815260040162000d1e90620027fe565b60405180910390fd5b819050919050565b60008062000d9a62000d6362000d4a6200132260201b60201c565b65ffffffffffff166200133f60201b620013d11760201c565b62000d8462000d7d886200139560201b620014241760201c565b868860201c565b876200140b60201b6200148e179092919060201c565b91509150935093915050565b6000818362000db6919062002820565b905092915050565b60008060008084600001805490509050600081141562000dea5760008060009350935093505062000ec5565b600062000e0f8660000160018462000e03919062002879565b6200143060201b60201c565b6040518060400160405290816000820160009054906101000a90046bffffffffffffffffffffffff166bffffffffffffffffffffffff166bffffffffffffffffffffffff16815260200160008201600c9054906101000a900473ffffffffffffffffffffffffffffffffffffffff1673ffffffffffffffffffffffffffffffffffffffff1673ffffffffffffffffffffffffffffffffffffffff1681525050905060018160000151826020015194509450945050505b9193909250565b62000ee5848484846200144560201b620014ab1760201c565b62000ef56200144b60201b60201c565b1562000f38576040517f08c379a000000000000000000000000000000000000000000000000000000000815260040162000f2f906200292a565b60405180910390fd5b50505050565b60008060008580549050905060008111156200120057600062000f768760018462000f6a919062002879565b6200143060201b60201c565b6040518060400160405290816000820160009054906101000a90046bffffffffffffffffffffffff166bffffffffffffffffffffffff166bffffffffffffffffffffffff16815260200160008201600c9054906101000a900473ffffffffffffffffffffffffffffffffffffffff1673ffffffffffffffffffffffffffffffffffffffff1673ffffffffffffffffffffffffffffffffffffffff16815250509050856bffffffffffffffffffffffff1681600001516bffffffffffffffffffffffff1611156200107d576040517f08c379a000000000000000000000000000000000000000000000000000000000815260040162001074906200299c565b60405180910390fd5b856bffffffffffffffffffffffff1681600001516bffffffffffffffffffffffff1614156200110e5784620010c788600185620010bb919062002879565b6200143060201b60201c565b600001600c6101000a81548173ffffffffffffffffffffffffffffffffffffffff021916908373ffffffffffffffffffffffffffffffffffffffff160217905550620011ee565b866040518060400160405280886bffffffffffffffffffffffff1681526020018773ffffffffffffffffffffffffffffffffffffffff168152509080600181540180825580915050600190039060005260206000200160009091909190915060008201518160000160006101000a8154816bffffffffffffffffffffffff02191690836bffffffffffffffffffffffff160217905550602082015181600001600c6101000a81548173ffffffffffffffffffffffffffffffffffffffff021916908373ffffffffffffffffffffffffffffffffffffffff16021790555050505b806020015185935093505050620012e8565b856040518060400160405280876bffffffffffffffffffffffff1681526020018673ffffffffffffffffffffffffffffffffffffffff168152509080600181540180825580915050600190039060005260206000200160009091909190915060008201518160000160006101000a8154816bffffffffffffffffffffffff02191690836bffffffffffffffffffffffff160217905550602082015181600001600c6101000a81548173ffffffffffffffffffffffffffffffffffffffff021916908373ffffffffffffffffffffffffffffffffffffffff160217905550505060008492509250505b935093915050565b620013038484836200146260201b60201c565b6200131c848484846200157460201b620014b11760201c565b50505050565b60006200133a436200167960201b6200158d1760201c565b905090565b600063ffffffff80168211156200138d576040517f08c379a0000000000000000000000000000000000000000000000000000000008152600401620013849062002a34565b60405180910390fd5b819050919050565b60008082600001805490509050600081146200140057620013ce83600001600183620013c2919062002879565b620016d160201b60201c565b60000160049054906101000a90047bffffffffffffffffffffffffffffffffffffffffffffffffffffffff1662001403565b60005b915050919050565b60008062001424856000018585620016e660201b60201c565b91509150935093915050565b60008260005281602060002001905092915050565b50505050565b6000600860009054906101000a900460ff16905090565b600073ffffffffffffffffffffffffffffffffffffffff168373ffffffffffffffffffffffffffffffffffffffff161415620014cf57620014cc600d62000da660201b6200124217620014c08462000cc160201b620011d71760201c565b62000d2f60201b60201c565b50505b600073ffffffffffffffffffffffffffffffffffffffff168273ffffffffffffffffffffffffffffffffffffffff1614156200153c5762001539600d62000ca960201b620011c1176200152d8462000cc160201b620011d71760201c565b62000d2f60201b60201c565b50505b6200156f62001551846200077460201b60201c565b62001562846200077460201b60201c565b83620007f760201b60201c565b505050565b600073ffffffffffffffffffffffffffffffffffffffff168373ffffffffffffffffffffffffffffffffffffffff16148015620015cd5750620015bc62000abc60201b60201c565b6bffffffffffffffffffffffff1682105b8015620015f25750620015f082600762001a8860201b620015e21790919060201c565b155b156200165a57600181146200163e576040517f08c379a0000000000000000000000000000000000000000000000000000000008152600401620016359062002acc565b60405180910390fd5b6200165982600762001ac460201b6200161e1790919060201c565b5b620016738484848462001b0260201b6200165c1760201c565b50505050565b600065ffffffffffff8016821115620016c9576040517f08c379a0000000000000000000000000000000000000000000000000000000008152600401620016c09062002b64565b60405180910390fd5b819050919050565b60008260005281602060002001905092915050565b6000806000858054905090506000811115620019985760006200171e8760018462001712919062002879565b620016d160201b60201c565b6040518060400160405290816000820160009054906101000a900463ffffffff1663ffffffff1663ffffffff1681526020016000820160049054906101000a90047bffffffffffffffffffffffffffffffffffffffffffffffffffffffff167bffffffffffffffffffffffffffffffffffffffffffffffffffffffff167bffffffffffffffffffffffffffffffffffffffffffffffffffffffff168152505090508563ffffffff16816000015163ffffffff16111562001815576040517f08c379a00000000000000000000000000000000000000000000000000000000081526004016200180c906200299c565b60405180910390fd5b8563ffffffff16816000015163ffffffff161415620018a657846200184f8860018562001843919062002879565b620016d160201b60201c565b60000160046101000a8154817bffffffffffffffffffffffffffffffffffffffffffffffffffffffff02191690837bffffffffffffffffffffffffffffffffffffffffffffffffffffffff16021790555062001986565b8660405180604001604052808863ffffffff168152602001877bffffffffffffffffffffffffffffffffffffffffffffffffffffffff168152509080600181540180825580915050600190039060005260206000200160009091909190915060008201518160000160006101000a81548163ffffffff021916908363ffffffff16021790555060208201518160000160046101000a8154817bffffffffffffffffffffffffffffffffffffffffffffffffffffffff02191690837bffffffffffffffffffffffffffffffffffffffffffffffffffffffff16021790555050505b80602001518593509350505062001a80565b8560405180604001604052808763ffffffff168152602001867bffffffffffffffffffffffffffffffffffffffffffffffffffffffff168152509080600181540180825580915050600190039060005260206000200160009091909190915060008201518160000160006101000a81548163ffffffff021916908363ffffffff16021790555060208201518160000160046101000a8154817bffffffffffffffffffffffffffffffffffffffffffffffffffffffff02191690837bffffffffffffffffffffffffffffffffffffffffffffffffffffffff160217905550505060008492509250505b935093915050565b600080600883901c9050600060ff84166001901b9050600081866000016000858152602001908152602001600020541614159250505092915050565b6000600882901c9050600060ff83166001901b9050808460000160008481526020019081526020016000206000828254179250508190555050505050565b50505050565b82805462001b169062002bb5565b90600052602060002090601f01602090048101928262001b3a576000855562001b86565b82601f1062001b5557805160ff191683800117855562001b86565b8280016001018555821562001b86579182015b8281111562001b8557825182559160200191906001019062001b68565b5b50905062001b95919062001b99565b5090565b5b8082111562001bb457600081600090555060010162001b9a565b5090565b6000604051905090565b600080fd5b600080fd5b600080fd5b600080fd5b6000601f19601f8301169050919050565b7f4e487b7100000000000000000000000000000000000000000000000000000000600052604160045260246000fd5b62001c218262001bd6565b810181811067ffffffffffffffff8211171562001c435762001c4262001be7565b5b80604052505050565b600062001c5862001bb8565b905062001c66828262001c16565b919050565b600067ffffffffffffffff82111562001c895762001c8862001be7565b5b62001c948262001bd6565b9050602081019050919050565b60005b8381101562001cc157808201518184015260208101905062001ca4565b8381111562001cd1576000848401525b50505050565b600062001cee62001ce88462001c6b565b62001c4c565b90508281526020810184848401111562001d0d5762001d0c62001bd1565b5b62001d1a84828562001ca1565b509392505050565b600082601f83011262001d3a5762001d3962001bcc565b5b815162001d4c84826020860162001cd7565b91505092915050565b600067ffffffffffffffff82111562001d735762001d7262001be7565b5b602082029050602081019050919050565b600080fd5b600073ffffffffffffffffffffffffffffffffffffffff82169050919050565b600062001db68262001d89565b9050919050565b62001dc88162001da9565b811462001dd457600080fd5b50565b60008151905062001de88162001dbd565b92915050565b600062001e0562001dff8462001d55565b62001c4c565b9050808382526020820190506020840283018581111562001e2b5762001e2a62001d84565b5b835b8181101562001e58578062001e43888262001dd7565b84526020840193505060208101905062001e2d565b5050509392505050565b600082601f83011262001e7a5762001e7962001bcc565b5b815162001e8c84826020860162001dee565b91505092915050565b600067ffffffffffffffff82111562001eb35762001eb262001be7565b5b602082029050602081019050919050565b60006bffffffffffffffffffffffff82169050919050565b62001ee78162001ec4565b811462001ef357600080fd5b50565b60008151905062001f078162001edc565b92915050565b600062001f2462001f1e8462001e95565b62001c4c565b9050808382526020820190506020840283018581111562001f4a5762001f4962001d84565b5b835b8181101562001f77578062001f62888262001ef6565b84526020840193505060208101905062001f4c565b5050509392505050565b600082601f83011262001f995762001f9862001bcc565b5b815162001fab84826020860162001f0d565b91505092915050565b600080600080600060a0868803121562001fd35762001fd262001bc2565b5b600086015167ffffffffffffffff81111562001ff45762001ff362001bc7565b5b620020028882890162001d22565b955050602086015167ffffffffffffffff81111562002026576200202562001bc7565b5b620020348882890162001d22565b945050604086015167ffffffffffffffff81111562002058576200205762001bc7565b5b620020668882890162001e62565b935050606086015167ffffffffffffffff8111156200208a576200208962001bc7565b5b620020988882890162001e62565b925050608086015167ffffffffffffffff811115620020bc57620020bb62001bc7565b5b620020ca8882890162001f81565b9150509295509295909350565b7f4e487b7100000000000000000000000000000000000000000000000000000000600052603260045260246000fd5b7f4e487b7100000000000000000000000000000000000000000000000000000000600052601160045260246000fd5b6000819050919050565b60006200214c8262002135565b91507fffffffffffffffffffffffffffffffffffffffffffffffffffffffffffffffff82141562002182576200218162002106565b5b600182019050919050565b6000819050919050565b620021a2816200218d565b82525050565b620021b38162002135565b82525050565b620021c48162001da9565b82525050565b600060a082019050620021e1600083018862002197565b620021f0602083018762002197565b620021ff604083018662002197565b6200220e6060830185620021a8565b6200221d6080830184620021b9565b9695505050505050565b600082825260208201905092915050565b7f455243373231436f6e73656375746976653a206261746368206d696e74696e6760008201527f207265737472696374656420746f20636f6e7374727563746f72000000000000602082015250565b600062002296603a8362002227565b9150620022a38262002238565b604082019050919050565b60006020820190508181036000830152620022c98162002287565b9050919050565b7f455243373231436f6e73656375746976653a206d696e7420746f20746865207a60008201527f65726f2061646472657373000000000000000000000000000000000000000000602082015250565b60006200232e602b8362002227565b91506200233b82620022d0565b604082019050919050565b6000602082019050818103600083015262002361816200231f565b9050919050565b7f455243373231436f6e73656375746976653a20626174636820746f6f206c617260008201527f6765000000000000000000000000000000000000000000000000000000000000602082015250565b6000620023c660228362002227565b9150620023d38262002368565b604082019050919050565b60006020820190508181036000830152620023f981620023b7565b9050919050565b60006200240d8262001ec4565b91506200241a8362001ec4565b9250826bffffffffffffffffffffffff038211156200243e576200243d62002106565b5b828201905092915050565b6000620024568262001ec4565b9150620024638362001ec4565b92508282101562002479576200247862002106565b5b828203905092915050565b6000819050919050565b6000620024af620024a9620024a38462001ec4565b62002484565b62002135565b9050919050565b620024c1816200248e565b82525050565b6000602082019050620024de6000830184620024b6565b92915050565b600081519050919050565b6000620024fc82620024e4565b62002508818562002227565b93506200251a81856020860162001ca1565b620025258162001bd6565b840191505092915050565b600060208201905081810360008301526200254c8184620024ef565b905092915050565b600081519050919050565b6000819050602082019050919050565b60006200257d82516200218d565b80915050919050565b600082821b905092915050565b6000620025a08262002554565b82620025ac846200255f565b9050620025b9816200256f565b92506020821015620025fc57620025f77fffffffffffffffffffffffffffffffffffffffffffffffffffffffffffffffff8360200360080262002586565b831692505b5050919050565b60006040820190506200261a6000830185620021a8565b620026296020830184620021a8565b9392505050565b60006200263d8262002135565b91506200264a8362002135565b9250827fffffffffffffffffffffffffffffffffffffffffffffffffffffffffffffffff0382111562002682576200268162002106565b5b828201905092915050565b7f4552433732313a2061646472657373207a65726f206973206e6f74206120766160008201527f6c6964206f776e65720000000000000000000000000000000000000000000000602082015250565b6000620026eb60298362002227565b9150620026f8826200268d565b604082019050919050565b600060208201905081810360008301526200271e81620026dc565b9050919050565b60007bffffffffffffffffffffffffffffffffffffffffffffffffffffffff82169050919050565b60006200275a8262002725565b9150620027678362002725565b9250828210156200277d576200277c62002106565b5b828203905092915050565b7f53616665436173743a2076616c756520646f65736e27742066697420696e203260008201527f3234206269747300000000000000000000000000000000000000000000000000602082015250565b6000620027e660278362002227565b9150620027f38262002788565b604082019050919050565b600060208201905081810360008301526200281981620027d7565b9050919050565b60006200282d8262002725565b91506200283a8362002725565b9250827bffffffffffffffffffffffffffffffffffffffffffffffffffffffff038211156200286e576200286d62002106565b5b828201905092915050565b6000620028868262002135565b9150620028938362002135565b925082821015620028a957620028a862002106565b5b828203905092915050565b7f4552433732315061757361626c653a20746f6b656e207472616e73666572207760008201527f68696c6520706175736564000000000000000000000000000000000000000000602082015250565b600062002912602b8362002227565b91506200291f82620028b4565b604082019050919050565b60006020820190508181036000830152620029458162002903565b9050919050565b7f436865636b706f696e743a2064656372656173696e67206b6579730000000000600082015250565b600062002984601b8362002227565b915062002991826200294c565b602082019050919050565b60006020820190508181036000830152620029b78162002975565b9050919050565b7f53616665436173743a2076616c756520646f65736e27742066697420696e203360008201527f3220626974730000000000000000000000000000000000000000000000000000602082015250565b600062002a1c60268362002227565b915062002a2982620029be565b604082019050919050565b6000602082019050818103600083015262002a4f8162002a0d565b9050919050565b7f455243373231436f6e73656375746976653a206261746368206275726e206e6f60008201527f7420737570706f72746564000000000000000000000000000000000000000000602082015250565b600062002ab4602b8362002227565b915062002ac18262002a56565b604082019050919050565b6000602082019050818103600083015262002ae78162002aa5565b9050919050565b7f53616665436173743a2076616c756520646f65736e27742066697420696e203460008201527f3820626974730000000000000000000000000000000000000000000000000000602082015250565b600062002b4c60268362002227565b915062002b598262002aee565b604082019050919050565b6000602082019050818103600083015262002b7f8162002b3d565b9050919050565b7f4e487b7100000000000000000000000000000000000000000000000000000000600052602260045260246000fd5b6000600282049050600182168062002bce57607f821691505b6020821081141562002be55762002be462002b86565b5b50919050565b60805160a05160c05160e0516101005161012051610140516153dd62002c466000396000610c5501526000610c2101526000612b9f01526000612b7e01526000611b6b01526000611bc101526000611bea01526153dd6000f3fe608060405234801561001057600080fd5b50600436106101735760003560e01c80636352211e116100de57806395d89b4111610097578063b88d4fde11610071578063b88d4fde1461048c578063c3cda520146104a8578063c87b56dd146104c4578063e985e9c5146104f457610173565b806395d89b41146104225780639ab24eb014610440578063a22cb4651461047057610173565b80636352211e1461032057806370a08231146103505780637ecebe001461038057806384b0196e146103b05780638e539e8c146103d457806391ddadf41461040457610173565b80633a46b1a8116101305780633a46b1a81461024c57806342842e0e1461027c5780634bf5d7e914610298578063587cde1e146102b65780635c19a95c146102e65780635c975abb1461030257610173565b806301ffc9a71461017857806306fdde03146101a8578063081812fc146101c6578063095ea7b3146101f657806323b872dd146102125780633644e5151461022e575b600080fd5b610192600480360381019061018d9190613a99565b610524565b60405161019f9190613ae1565b60405180910390f35b6101b0610606565b6040516101bd9190613b95565b60405180910390f35b6101e060048036038101906101db9190613bed565b610698565b6040516101ed9190613c5b565b60405180910390f35b610210600480360381019061020b9190613ca2565b6106de565b005b61022c60048036038101906102279190613ce2565b6107f6565b005b610236610856565b6040516102439190613d4e565b60405180910390f35b61026660048036038101906102619190613ca2565b610865565b6040516102739190613d78565b60405180910390f35b61029660048036038101906102919190613ce2565b610937565b005b6102a0610957565b6040516102ad9190613b95565b60405180910390f35b6102d060048036038101906102cb9190613d93565b6109e5565b6040516102dd9190613c5b565b60405180910390f35b61030060048036038101906102fb9190613d93565b610a4e565b005b61030a610a68565b6040516103179190613ae1565b60405180910390f35b61033a60048036038101906103359190613bed565b610a7f565b6040516103479190613c5b565b60405180910390f35b61036a60048036038101906103659190613d93565b610b06565b6040516103779190613d78565b60405180910390f35b61039a60048036038101906103959190613d93565b610bbe565b6040516103a79190613d78565b60405180910390f35b6103b8610c0e565b6040516103cb9796959493929190613eb9565b60405180910390f35b6103ee60048036038101906103e99190613bed565b610d10565b6040516103fb9190613d78565b60405180910390f35b61040c610da4565b6040516104199190613f5e565b60405180910390f35b61042a610db4565b6040516104379190613b95565b60405180910390f35b61045a60048036038101906104559190613d93565b610e46565b6040516104679190613d78565b60405180910390f35b61048a60048036038101906104859190613fa5565b610eb4565b005b6104a660048036038101906104a1919061411a565b610eca565b005b6104c260048036038101906104bd9190614202565b610f2c565b005b6104de60048036038101906104d99190613bed565b611030565b6040516104eb9190613b95565b60405180910390f35b61050e6004803603810190610509919061428f565b611098565b60405161051b9190613ae1565b60405180910390f35b60007f80ac58cd000000000000000000000000000000000000000000000000000000007bffffffffffffffffffffffffffffffffffffffffffffffffffffffff1916827bffffffffffffffffffffffffffffffffffffffffffffffffffffffff191614806105ef57507f5b5e139f000000000000000000000000000000000000000000000000000000007bffffffffffffffffffffffffffffffffffffffffffffffffffffffff1916827bffffffffffffffffffffffffffffffffffffffffffffffffffffffff1916145b806105ff57506105fe82611662565b5b9050919050565b606060008054610615906142fe565b80601f0160208091040260200160405190810160405280929190818152602001828054610641906142fe565b801561068e5780601f106106635761010080835404028352916020019161068e565b820191906000526020600020905b81548152906001019060200180831161067157829003601f168201915b5050505050905090565b60006106a3826116cc565b6004600083815260200190815260200160002060009054906101000a900473ffffffffffffffffffffffffffffffffffffffff169050919050565b60006106e982610a7f565b90508073ffffffffffffffffffffffffffffffffffffffff168373ffffffffffffffffffffffffffffffffffffffff16141561075a576040517f08c379a0000000000000000000000000000000000000000000000000000000008152600401610751906143a2565b60405180910390fd5b8073ffffffffffffffffffffffffffffffffffffffff16610779611717565b73ffffffffffffffffffffffffffffffffffffffff1614806107a857506107a7816107a2611717565b611098565b5b6107e7576040517f08c379a00000000000000000000000000000000000000000000000000000000081526004016107de90614434565b60405180910390fd5b6107f1838361171f565b505050565b610807610801611717565b826117d8565b610846576040517f08c379a000000000000000000000000000000000000000000000000000000000815260040161083d906144c6565b60405180910390fd5b61085183838361186d565b505050565b6000610860611b67565b905090565b600061086f610da4565b65ffffffffffff1682106108b8576040517f08c379a00000000000000000000000000000000000000000000000000000000081526004016108af90614532565b60405180910390fd5b6109116108c4836113d1565b600c60008673ffffffffffffffffffffffffffffffffffffffff1673ffffffffffffffffffffffffffffffffffffffff168152602001908152602001600020611c1e90919063ffffffff16565b7bffffffffffffffffffffffffffffffffffffffffffffffffffffffff16905092915050565b61095283838360405180602001604052806000815250610eca565b505050565b606043610962610da4565b65ffffffffffff16146109aa576040517f08c379a00000000000000000000000000000000000000000000000000000000081526004016109a19061459e565b60405180910390fd5b6040518060400160405280601d81526020017f6d6f64653d626c6f636b6e756d6265722666726f6d3d64656661756c74000000815250905090565b6000600b60008373ffffffffffffffffffffffffffffffffffffffff1673ffffffffffffffffffffffffffffffffffffffff16815260200190815260200160002060009054906101000a900473ffffffffffffffffffffffffffffffffffffffff169050919050565b6000610a58611717565b9050610a648183611d14565b5050565b6000600860009054906101000a900460ff16905090565b600080610a8b83611e28565b9050600073ffffffffffffffffffffffffffffffffffffffff168173ffffffffffffffffffffffffffffffffffffffff161415610afd576040517f08c379a0000000000000000000000000000000000000000000000000000000008152600401610af49061460a565b60405180910390fd5b80915050919050565b60008073ffffffffffffffffffffffffffffffffffffffff168273ffffffffffffffffffffffffffffffffffffffff161415610b77576040517f08c379a0000000000000000000000000000000000000000000000000000000008152600401610b6e9061469c565b60405180910390fd5b600360008373ffffffffffffffffffffffffffffffffffffffff1673ffffffffffffffffffffffffffffffffffffffff168152602001908152602001600020549050919050565b6000610c07600e60008473ffffffffffffffffffffffffffffffffffffffff1673ffffffffffffffffffffffffffffffffffffffff168152602001908152602001600020611e3a565b9050919050565b600060608060008060006060610c4e60097f0000000000000000000000000000000000000000000000000000000000000000611e4890919063ffffffff16565b610c82600a7f0000000000000000000000000000000000000000000000000000000000000000611e4890919063ffffffff16565b46306000801b600067ffffffffffffffff811115610ca357610ca2613fef565b5b604051908082528060200260200182016040528015610cd15781602001602082028036833780820191505090505b507f0f00000000000000000000000000000000000000000000000000000000000000959493929190965096509650965096509650965090919293949596565b6000610d1a610da4565b65ffffffffffff168210610d63576040517f08c379a0000000000000000000000000000000000000000000000000000000008152600401610d5a90614532565b60405180910390fd5b610d7f610d6f836113d1565b600d611c1e90919063ffffffff16565b7bffffffffffffffffffffffffffffffffffffffffffffffffffffffff169050919050565b6000610daf4361158d565b905090565b606060018054610dc3906142fe565b80601f0160208091040260200160405190810160405280929190818152602001828054610def906142fe565b8015610e3c5780601f10610e1157610100808354040283529160200191610e3c565b820191906000526020600020905b815481529060010190602001808311610e1f57829003601f168201915b5050505050905090565b6000610e8f600c60008473ffffffffffffffffffffffffffffffffffffffff1673ffffffffffffffffffffffffffffffffffffffff168152602001908152602001600020611424565b7bffffffffffffffffffffffffffffffffffffffffffffffffffffffff169050919050565b610ec6610ebf611717565b8383611ef8565b5050565b610edb610ed5611717565b836117d8565b610f1a576040517f08c379a0000000000000000000000000000000000000000000000000000000008152600401610f11906144c6565b60405180910390fd5b610f2684848484612065565b50505050565b83421115610f6f576040517f08c379a0000000000000000000000000000000000000000000000000000000008152600401610f6690614708565b60405180910390fd5b6000610fd1610fc97fe48329057bfd03d55e49b547132e39cffd9c1820ad7b9d4c5307691425d15adf898989604051602001610fae9493929190614728565b604051602081830303815290604052805190602001206120c1565b8585856120db565b9050610fdc81612106565b861461101d576040517f08c379a0000000000000000000000000000000000000000000000000000000008152600401611014906147b9565b60405180910390fd5b6110278188611d14565b50505050505050565b606061103b826116cc565b6000611045612164565b905060008151116110655760405180602001604052806000815250611090565b8061106f8461217b565b604051602001611080929190614815565b6040516020818303038152906040525b915050919050565b6000600560008473ffffffffffffffffffffffffffffffffffffffff1673ffffffffffffffffffffffffffffffffffffffff16815260200190815260200160002060008373ffffffffffffffffffffffffffffffffffffffff1673ffffffffffffffffffffffffffffffffffffffff16815260200190815260200160002060009054906101000a900460ff16905092915050565b60006020835110156111485761114183612253565b9050611171565b8261115283611177565b600001908051906020019061116892919061398a565b5060ff60001b90505b92915050565b6000819050919050565b6000808273ffffffffffffffffffffffffffffffffffffffff163b119050919050565b6000806111b58560000185856122bb565b91509150935093915050565b600081836111cf9190614890565b905092915050565b60007bffffffffffffffffffffffffffffffffffffffffffffffffffffffff801682111561123a576040517f08c379a000000000000000000000000000000000000000000000000000000000815260040161123190614936565b60405180910390fd5b819050919050565b600081836112509190614956565b905092915050565b60008060008084600001805490509050600081141561128257600080600093509350935050611353565b600061129d8660000160018461129891906149a8565b612652565b6040518060400160405290816000820160009054906101000a90046bffffffffffffffffffffffff166bffffffffffffffffffffffff166bffffffffffffffffffffffff16815260200160008201600c9054906101000a900473ffffffffffffffffffffffffffffffffffffffff1673ffffffffffffffffffffffffffffffffffffffff1673ffffffffffffffffffffffffffffffffffffffff1681525050905060018160000151826020015194509450945050505b9193909250565b611366848484846114ab565b61136e610a68565b156113ae576040517f08c379a00000000000000000000000000000000000000000000000000000000081526004016113a590614a4e565b60405180910390fd5b50505050565b6113bf848483612667565b6113cb848484846114b1565b50505050565b600063ffffffff801682111561141c576040517f08c379a000000000000000000000000000000000000000000000000000000000815260040161141390614ae0565b60405180910390fd5b819050919050565b6000808260000180549050905060008114611483576114528360000160018361144d91906149a8565b612723565b60000160049054906101000a90047bffffffffffffffffffffffffffffffffffffffffffffffffffffffff16611486565b60005b915050919050565b60008061149f856000018585612738565b91509150935093915050565b50505050565b600073ffffffffffffffffffffffffffffffffffffffff168373ffffffffffffffffffffffffffffffffffffffff1614801561150157506114f0612abf565b6bffffffffffffffffffffffff1682105b801561151e575061151c8260076115e290919063ffffffff16565b155b1561157b5760018114611566576040517f08c379a000000000000000000000000000000000000000000000000000000000815260040161155d90614b72565b60405180910390fd5b61157a82600761161e90919063ffffffff16565b5b6115878484848461165c565b50505050565b600065ffffffffffff80168211156115da576040517f08c379a00000000000000000000000000000000000000000000000000000000081526004016115d190614c04565b60405180910390fd5b819050919050565b600080600883901c9050600060ff84166001901b9050600081866000016000858152602001908152602001600020541614159250505092915050565b6000600882901c9050600060ff83166001901b9050808460000160008481526020019081526020016000206000828254179250508190555050505050565b50505050565b60007f01ffc9a7000000000000000000000000000000000000000000000000000000007bffffffffffffffffffffffffffffffffffffffffffffffffffffffff1916827bffffffffffffffffffffffffffffffffffffffffffffffffffffffff1916149050919050565b6116d581612af4565b611714576040517f08c379a000000000000000000000000000000000000000000000000000000000815260040161170b9061460a565b60405180910390fd5b50565b600033905090565b816004600083815260200190815260200160002060006101000a81548173ffffffffffffffffffffffffffffffffffffffff021916908373ffffffffffffffffffffffffffffffffffffffff160217905550808273ffffffffffffffffffffffffffffffffffffffff1661179283610a7f565b73ffffffffffffffffffffffffffffffffffffffff167f8c5be1e5ebec7d5bd14f71427d1e84f3dd0314c0f7b2291e5b200ac8c7c3b92560405160405180910390a45050565b6000806117e483610a7f565b90508073ffffffffffffffffffffffffffffffffffffffff168473ffffffffffffffffffffffffffffffffffffffff16148061182657506118258185611098565b5b8061186457508373ffffffffffffffffffffffffffffffffffffffff1661184c84610698565b73ffffffffffffffffffffffffffffffffffffffff16145b91505092915050565b8273ffffffffffffffffffffffffffffffffffffffff1661188d82610a7f565b73ffffffffffffffffffffffffffffffffffffffff16146118e3576040517f08c379a00000000000000000000000000000000000000000000000000000000081526004016118da90614c96565b60405180910390fd5b600073ffffffffffffffffffffffffffffffffffffffff168273ffffffffffffffffffffffffffffffffffffffff161415611953576040517f08c379a000000000000000000000000000000000000000000000000000000000815260040161194a90614d28565b60405180910390fd5b6119608383836001612b35565b8273ffffffffffffffffffffffffffffffffffffffff1661198082610a7f565b73ffffffffffffffffffffffffffffffffffffffff16146119d6576040517f08c379a00000000000000000000000000000000000000000000000000000000081526004016119cd90614c96565b60405180910390fd5b6004600082815260200190815260200160002060006101000a81549073ffffffffffffffffffffffffffffffffffffffff02191690556001600360008573ffffffffffffffffffffffffffffffffffffffff1673ffffffffffffffffffffffffffffffffffffffff168152602001908152602001600020600082825403925050819055506001600360008473ffffffffffffffffffffffffffffffffffffffff1673ffffffffffffffffffffffffffffffffffffffff16815260200190815260200160002060008282540192505081905550816002600083815260200190815260200160002060006101000a81548173ffffffffffffffffffffffffffffffffffffffff021916908373ffffffffffffffffffffffffffffffffffffffff160217905550808273ffffffffffffffffffffffffffffffffffffffff168473ffffffffffffffffffffffffffffffffffffffff167fddf252ad1be2c89b69c2b068fc378daa952ba7f163c4a11628f55a4df523b3ef60405160405180910390a4611b628383836001612b47565b505050565b60007f000000000000000000000000000000000000000000000000000000000000000073ffffffffffffffffffffffffffffffffffffffff163073ffffffffffffffffffffffffffffffffffffffff16148015611be357507f000000000000000000000000000000000000000000000000000000000000000046145b15611c10577f00000000000000000000000000000000000000000000000000000000000000009050611c1b565b611c18612b59565b90505b90565b600080836000018054905090506000808290506005831115611ca0576000611c4584612bef565b84611c5091906149a8565b9050611c5f8760000182612723565b60000160009054906101000a900463ffffffff1663ffffffff168663ffffffff161015611c8e57809150611c9e565b600181611c9b9190614d48565b92505b505b6000611cb187600001878585612ce9565b905060008114611d0557611cd487600001600183611ccf91906149a8565b612723565b60000160049054906101000a90047bffffffffffffffffffffffffffffffffffffffffffffffffffffffff16611d08565b60005b94505050505092915050565b6000611d1f836109e5565b905081600b60008573ffffffffffffffffffffffffffffffffffffffff1673ffffffffffffffffffffffffffffffffffffffff16815260200190815260200160002060006101000a81548173ffffffffffffffffffffffffffffffffffffffff021916908373ffffffffffffffffffffffffffffffffffffffff1602179055508173ffffffffffffffffffffffffffffffffffffffff168173ffffffffffffffffffffffffffffffffffffffff168473ffffffffffffffffffffffffffffffffffffffff167f3134e8a2e6d97e929a7e54011ea5485d7d196dd5f0ba4d4ef95803e8e3fc257f60405160405180910390a4611e238183611e1e86612d5c565b612d6e565b505050565b6000611e3382612fef565b9050919050565b600081600001549050919050565b606060ff60001b8314611e6557611e5e83613091565b9050611ef2565b818054611e71906142fe565b80601f0160208091040260200160405190810160405280929190818152602001828054611e9d906142fe565b8015611eea5780601f10611ebf57610100808354040283529160200191611eea565b820191906000526020600020905b815481529060010190602001808311611ecd57829003601f168201915b505050505090505b92915050565b8173ffffffffffffffffffffffffffffffffffffffff168373ffffffffffffffffffffffffffffffffffffffff161415611f67576040517f08c379a0000000000000000000000000000000000000000000000000000000008152600401611f5e90614dea565b60405180910390fd5b80600560008573ffffffffffffffffffffffffffffffffffffffff1673ffffffffffffffffffffffffffffffffffffffff16815260200190815260200160002060008473ffffffffffffffffffffffffffffffffffffffff1673ffffffffffffffffffffffffffffffffffffffff16815260200190815260200160002060006101000a81548160ff0219169083151502179055508173ffffffffffffffffffffffffffffffffffffffff168373ffffffffffffffffffffffffffffffffffffffff167f17307eab39ab6107e8899845ad3d59bd9653f200f220920489ca2b5937696c31836040516120589190613ae1565b60405180910390a3505050565b61207084848461186d565b61207c84848484613105565b6120bb576040517f08c379a00000000000000000000000000000000000000000000000000000000081526004016120b290614e7c565b60405180910390fd5b50505050565b60006120d46120ce611b67565b8361329c565b9050919050565b60008060006120ec878787876132dd565b915091506120f9816133c0565b8192505050949350505050565b600080600e60008473ffffffffffffffffffffffffffffffffffffffff1673ffffffffffffffffffffffffffffffffffffffff168152602001908152602001600020905061215381611e3a565b915061215e8161352e565b50919050565b606060405180602001604052806000815250905090565b60606000600161218a84613544565b01905060008167ffffffffffffffff8111156121a9576121a8613fef565b5b6040519080825280601f01601f1916602001820160405280156121db5781602001600182028036833780820191505090505b509050600082602001820190505b600115612248578080600190039150507f3031323334353637383961626364656600000000000000000000000000000000600a86061a8153600a858161223257612231614e9c565b5b049450600085141561224357612248565b6121e9565b819350505050919050565b600080829050601f815111156122a057826040517f305a27a90000000000000000000000000000000000000000000000000000000081526004016122979190613b95565b60405180910390fd5b8051816122ac90614f08565b60001c1760001b915050919050565b60008060008580549050905060008111156125625760006122e8876001846122e391906149a8565b612652565b6040518060400160405290816000820160009054906101000a90046bffffffffffffffffffffffff166bffffffffffffffffffffffff166bffffffffffffffffffffffff16815260200160008201600c9054906101000a900473ffffffffffffffffffffffffffffffffffffffff1673ffffffffffffffffffffffffffffffffffffffff1673ffffffffffffffffffffffffffffffffffffffff16815250509050856bffffffffffffffffffffffff1681600001516bffffffffffffffffffffffff1611156123ec576040517f08c379a00000000000000000000000000000000000000000000000000000000081526004016123e390614fbb565b60405180910390fd5b856bffffffffffffffffffffffff1681600001516bffffffffffffffffffffffff161415612471578461242b8860018561242691906149a8565b612652565b600001600c6101000a81548173ffffffffffffffffffffffffffffffffffffffff021916908373ffffffffffffffffffffffffffffffffffffffff160217905550612551565b866040518060400160405280886bffffffffffffffffffffffff1681526020018773ffffffffffffffffffffffffffffffffffffffff168152509080600181540180825580915050600190039060005260206000200160009091909190915060008201518160000160006101000a8154816bffffffffffffffffffffffff02191690836bffffffffffffffffffffffff160217905550602082015181600001600c6101000a81548173ffffffffffffffffffffffffffffffffffffffff021916908373ffffffffffffffffffffffffffffffffffffffff16021790555050505b80602001518593509350505061264a565b856040518060400160405280876bffffffffffffffffffffffff1681526020018673ffffffffffffffffffffffffffffffffffffffff168152509080600181540180825580915050600190039060005260206000200160009091909190915060008201518160000160006101000a8154816bffffffffffffffffffffffff02191690836bffffffffffffffffffffffff160217905550602082015181600001600c6101000a81548173ffffffffffffffffffffffffffffffffffffffff021916908373ffffffffffffffffffffffffffffffffffffffff160217905550505060008492509250505b935093915050565b60008260005281602060002001905092915050565b600073ffffffffffffffffffffffffffffffffffffffff168373ffffffffffffffffffffffffffffffffffffffff1614156126b5576126b2600d6112426126ad846111d7565b613697565b50505b600073ffffffffffffffffffffffffffffffffffffffff168273ffffffffffffffffffffffffffffffffffffffff16141561270357612700600d6111c16126fb846111d7565b613697565b50505b61271e61270f846109e5565b612718846109e5565b83612d6e565b505050565b60008260005281602060002001905092915050565b60008060008580549050905060008111156129cf5760006127658760018461276091906149a8565b612723565b6040518060400160405290816000820160009054906101000a900463ffffffff1663ffffffff1663ffffffff1681526020016000820160049054906101000a90047bffffffffffffffffffffffffffffffffffffffffffffffffffffffff167bffffffffffffffffffffffffffffffffffffffffffffffffffffffff167bffffffffffffffffffffffffffffffffffffffffffffffffffffffff168152505090508563ffffffff16816000015163ffffffff161115612859576040517f08c379a000000000000000000000000000000000000000000000000000000000815260040161285090614fbb565b60405180910390fd5b8563ffffffff16816000015163ffffffff1614156128de57846128888860018561288391906149a8565b612723565b60000160046101000a8154817bffffffffffffffffffffffffffffffffffffffffffffffffffffffff02191690837bffffffffffffffffffffffffffffffffffffffffffffffffffffffff1602179055506129be565b8660405180604001604052808863ffffffff168152602001877bffffffffffffffffffffffffffffffffffffffffffffffffffffffff168152509080600181540180825580915050600190039060005260206000200160009091909190915060008201518160000160006101000a81548163ffffffff021916908363ffffffff16021790555060208201518160000160046101000a8154817bffffffffffffffffffffffffffffffffffffffffffffffffffffffff02191690837bffffffffffffffffffffffffffffffffffffffffffffffffffffffff16021790555050505b806020015185935093505050612ab7565b8560405180604001604052808763ffffffff168152602001867bffffffffffffffffffffffffffffffffffffffffffffffffffffffff168152509080600181540180825580915050600190039060005260206000200160009091909190915060008201518160000160006101000a81548163ffffffff021916908363ffffffff16021790555060208201518160000160046101000a8154817bffffffffffffffffffffffffffffffffffffffffffffffffffffffff02191690837bffffffffffffffffffffffffffffffffffffffffffffffffffffffff160217905550505060008492509250505b935093915050565b6000806000612ace6006611258565b509150915081612adf576000612aed565b600181612aec9190614ff3565b5b9250505090565b60008073ffffffffffffffffffffffffffffffffffffffff16612b1683611e28565b73ffffffffffffffffffffffffffffffffffffffff1614159050919050565b612b418484848461135a565b50505050565b612b53848484846113b4565b50505050565b60007f8b73c3c69bb8fe3d512ecc4cf759cc79239f7b179b0ffacaa9a75d522b39400f7f00000000000000000000000000000000000000000000000000000000000000007f00000000000000000000000000000000000000000000000000000000000000004630604051602001612bd4959493929190615035565b60405160208183030381529060405280519060200120905090565b600080821415612c025760009050612ce4565b60006001612c0f846136e7565b901c6001901b90506001818481612c2957612c28614e9c565b5b048201901c90506001818481612c4257612c41614e9c565b5b048201901c90506001818481612c5b57612c5a614e9c565b5b048201901c90506001818481612c7457612c73614e9c565b5b048201901c90506001818481612c8d57612c8c614e9c565b5b048201901c90506001818481612ca657612ca5614e9c565b5b048201901c90506001818481612cbf57612cbe614e9c565b5b048201901c9050612ce081828581612cda57612cd9614e9c565b5b046137c8565b9150505b919050565b60005b81831015612d51576000612d0084846137e1565b90508463ffffffff16612d138783612723565b60000160009054906101000a900463ffffffff1663ffffffff161115612d3b57809250612d4b565b600181612d489190614d48565b93505b50612cec565b819050949350505050565b6000612d6782610b06565b9050919050565b8173ffffffffffffffffffffffffffffffffffffffff168373ffffffffffffffffffffffffffffffffffffffff1614158015612daa5750600081115b15612fea57600073ffffffffffffffffffffffffffffffffffffffff168373ffffffffffffffffffffffffffffffffffffffff1614612ecc57600080612e39600c60008773ffffffffffffffffffffffffffffffffffffffff1673ffffffffffffffffffffffffffffffffffffffff1681526020019081526020016000206111c1612e34866111d7565b613697565b7bffffffffffffffffffffffffffffffffffffffffffffffffffffffff1691507bffffffffffffffffffffffffffffffffffffffffffffffffffffffff1691508473ffffffffffffffffffffffffffffffffffffffff167fdec2bacdd2f05b59de34da9b523dff8be42e5e38e818c82fdb0bae774387a7248383604051612ec1929190615088565b60405180910390a250505b600073ffffffffffffffffffffffffffffffffffffffff168273ffffffffffffffffffffffffffffffffffffffff1614612fe957600080612f56600c60008673ffffffffffffffffffffffffffffffffffffffff1673ffffffffffffffffffffffffffffffffffffffff168152602001908152602001600020611242612f51866111d7565b613697565b7bffffffffffffffffffffffffffffffffffffffffffffffffffffffff1691507bffffffffffffffffffffffffffffffffffffffffffffffffffffffff1691508373ffffffffffffffffffffffffffffffffffffffff167fdec2bacdd2f05b59de34da9b523dff8be42e5e38e818c82fdb0bae774387a7248383604051612fde929190615088565b60405180910390a250505b5b505050565b600080612ffb83613807565b9050600073ffffffffffffffffffffffffffffffffffffffff168173ffffffffffffffffffffffffffffffffffffffff1614158061304657506bffffffffffffffffffffffff801683115b15613054578091505061308c565b6130688360076115e290919063ffffffff16565b6130855761308083600661384490919063ffffffff16565b613088565b60005b9150505b919050565b6060600061309e836138af565b90506000602067ffffffffffffffff8111156130bd576130bc613fef565b5b6040519080825280601f01601f1916602001820160405280156130ef5781602001600182028036833780820191505090505b5090508181528360208201528092505050919050565b60006131268473ffffffffffffffffffffffffffffffffffffffff16611181565b1561328f578373ffffffffffffffffffffffffffffffffffffffff1663150b7a0261314f611717565b8786866040518563ffffffff1660e01b815260040161317194939291906150fb565b602060405180830381600087803b15801561318b57600080fd5b505af19250505080156131bc57506040513d601f19601f820116820180604052508101906131b9919061515c565b60015b61323f573d80600081146131ec576040519150601f19603f3d011682016040523d82523d6000602084013e6131f1565b606091505b50600081511415613237576040517f08c379a000000000000000000000000000000000000000000000000000000000815260040161322e90614e7c565b60405180910390fd5b805181602001fd5b63150b7a0260e01b7bffffffffffffffffffffffffffffffffffffffffffffffffffffffff1916817bffffffffffffffffffffffffffffffffffffffffffffffffffffffff191614915050613294565b600190505b949350505050565b60006040517f190100000000000000000000000000000000000000000000000000000000000081528360028201528260228201526042812091505092915050565b6000807f7fffffffffffffffffffffffffffffff5d576e7357a4501ddfe92f46681b20a08360001c11156133185760006003915091506133b7565b60006001878787876040516000815260200160405260405161333d9493929190615198565b6020604051602081039080840390855afa15801561335f573d6000803e3d6000fd5b505050602060405103519050600073ffffffffffffffffffffffffffffffffffffffff168173ffffffffffffffffffffffffffffffffffffffff1614156133ae576000600192509250506133b7565b80600092509250505b94509492505050565b600060048111156133d4576133d36151dd565b5b8160048111156133e7576133e66151dd565b5b14156133f25761352b565b60016004811115613406576134056151dd565b5b816004811115613419576134186151dd565b5b141561345a576040517f08c379a000000000000000000000000000000000000000000000000000000000815260040161345190615258565b60405180910390fd5b6002600481111561346e5761346d6151dd565b5b816004811115613481576134806151dd565b5b14156134c2576040517f08c379a00000000000000000000000000000000000000000000000000000000081526004016134b9906152c4565b60405180910390fd5b600360048111156134d6576134d56151dd565b5b8160048111156134e9576134e86151dd565b5b141561352a576040517f08c379a000000000000000000000000000000000000000000000000000000000815260040161352190615356565b60405180910390fd5b5b50565b6001816000016000828254019250508190555050565b600080600090507a184f03e93ff9f4daa797ed6e38ed64bf6a1f01000000000000000083106135a2577a184f03e93ff9f4daa797ed6e38ed64bf6a1f010000000000000000838161359857613597614e9c565b5b0492506040810190505b6d04ee2d6d415b85acef810000000083106135df576d04ee2d6d415b85acef810000000083816135d5576135d4614e9c565b5b0492506020810190505b662386f26fc10000831061360e57662386f26fc10000838161360457613603614e9c565b5b0492506010810190505b6305f5e1008310613637576305f5e100838161362d5761362c614e9c565b5b0492506008810190505b612710831061365c57612710838161365257613651614e9c565b5b0492506004810190505b6064831061367f576064838161367557613674614e9c565b5b0492506002810190505b600a831061368e576001810190505b80915050919050565b6000806136db6136b56136a8610da4565b65ffffffffffff166113d1565b6136cb6136c188611424565b868863ffffffff16565b8761148e9092919063ffffffff16565b91509150935093915050565b600080600090506000608084901c111561370957608083901c92506080810190505b6000604084901c111561372457604083901c92506040810190505b6000602084901c111561373f57602083901c92506020810190505b6000601084901c111561375a57601083901c92506010810190505b6000600884901c111561377557600883901c92506008810190505b6000600484901c111561379057600483901c92506004810190505b6000600284901c11156137ab57600283901c92506002810190505b6000600184901c11156137bf576001810190505b80915050919050565b60008183106137d757816137d9565b825b905092915050565b600060028284186137f29190615376565b8284166137ff9190614d48565b905092915050565b60006002600083815260200190815260200160002060009054906101000a900473ffffffffffffffffffffffffffffffffffffffff169050919050565b60008083600001805490509050600061386385600001856000856138ff565b90508181146138a2576138798560000182612652565b600001600c9054906101000a900473ffffffffffffffffffffffffffffffffffffffff166138a5565b60005b9250505092915050565b60008060ff8360001c169050601f8111156138f6576040517fb3512b0c00000000000000000000000000000000000000000000000000000000815260040160405180910390fd5b80915050919050565b60005b8183101561397f57600061391684846137e1565b9050846bffffffffffffffffffffffff166139318783612652565b60000160009054906101000a90046bffffffffffffffffffffffff166bffffffffffffffffffffffff1610156139755760018161396e9190614d48565b9350613979565b8092505b50613902565b819050949350505050565b828054613996906142fe565b90600052602060002090601f0160209004810192826139b857600085556139ff565b82601f106139d157805160ff19168380011785556139ff565b828001600101855582156139ff579182015b828111156139fe5782518255916020019190600101906139e3565b5b509050613a0c9190613a10565b5090565b5b80821115613a29576000816000905550600101613a11565b5090565b6000604051905090565b600080fd5b600080fd5b60007fffffffff0000000000000000000000000000000000000000000000000000000082169050919050565b613a7681613a41565b8114613a8157600080fd5b50565b600081359050613a9381613a6d565b92915050565b600060208284031215613aaf57613aae613a37565b5b6000613abd84828501613a84565b91505092915050565b60008115159050919050565b613adb81613ac6565b82525050565b6000602082019050613af66000830184613ad2565b92915050565b600081519050919050565b600082825260208201905092915050565b60005b83811015613b36578082015181840152602081019050613b1b565b83811115613b45576000848401525b50505050565b6000601f19601f8301169050919050565b6000613b6782613afc565b613b718185613b07565b9350613b81818560208601613b18565b613b8a81613b4b565b840191505092915050565b60006020820190508181036000830152613baf8184613b5c565b905092915050565b6000819050919050565b613bca81613bb7565b8114613bd557600080fd5b50565b600081359050613be781613bc1565b92915050565b600060208284031215613c0357613c02613a37565b5b6000613c1184828501613bd8565b91505092915050565b600073ffffffffffffffffffffffffffffffffffffffff82169050919050565b6000613c4582613c1a565b9050919050565b613c5581613c3a565b82525050565b6000602082019050613c706000830184613c4c565b92915050565b613c7f81613c3a565b8114613c8a57600080fd5b50565b600081359050613c9c81613c76565b92915050565b60008060408385031215613cb957613cb8613a37565b5b6000613cc785828601613c8d565b9250506020613cd885828601613bd8565b9150509250929050565b600080600060608486031215613cfb57613cfa613a37565b5b6000613d0986828701613c8d565b9350506020613d1a86828701613c8d565b9250506040613d2b86828701613bd8565b9150509250925092565b6000819050919050565b613d4881613d35565b82525050565b6000602082019050613d636000830184613d3f565b92915050565b613d7281613bb7565b82525050565b6000602082019050613d8d6000830184613d69565b92915050565b600060208284031215613da957613da8613a37565b5b6000613db784828501613c8d565b91505092915050565b60007fff0000000000000000000000000000000000000000000000000000000000000082169050919050565b613df581613dc0565b82525050565b600081519050919050565b600082825260208201905092915050565b6000819050602082019050919050565b613e3081613bb7565b82525050565b6000613e428383613e27565b60208301905092915050565b6000602082019050919050565b6000613e6682613dfb565b613e708185613e06565b9350613e7b83613e17565b8060005b83811015613eac578151613e938882613e36565b9750613e9e83613e4e565b925050600181019050613e7f565b5085935050505092915050565b600060e082019050613ece600083018a613dec565b8181036020830152613ee08189613b5c565b90508181036040830152613ef48188613b5c565b9050613f036060830187613d69565b613f106080830186613c4c565b613f1d60a0830185613d3f565b81810360c0830152613f2f8184613e5b565b905098975050505050505050565b600065ffffffffffff82169050919050565b613f5881613f3d565b82525050565b6000602082019050613f736000830184613f4f565b92915050565b613f8281613ac6565b8114613f8d57600080fd5b50565b600081359050613f9f81613f79565b92915050565b60008060408385031215613fbc57613fbb613a37565b5b6000613fca85828601613c8d565b9250506020613fdb85828601613f90565b9150509250929050565b600080fd5b600080fd5b7f4e487b7100000000000000000000000000000000000000000000000000000000600052604160045260246000fd5b61402782613b4b565b810181811067ffffffffffffffff8211171561404657614045613fef565b5b80604052505050565b6000614059613a2d565b9050614065828261401e565b919050565b600067ffffffffffffffff82111561408557614084613fef565b5b61408e82613b4b565b9050602081019050919050565b82818337600083830152505050565b60006140bd6140b88461406a565b61404f565b9050828152602081018484840111156140d9576140d8613fea565b5b6140e484828561409b565b509392505050565b600082601f83011261410157614100613fe5565b5b81356141118482602086016140aa565b91505092915050565b6000806000806080858703121561413457614133613a37565b5b600061414287828801613c8d565b945050602061415387828801613c8d565b935050604061416487828801613bd8565b925050606085013567ffffffffffffffff81111561418557614184613a3c565b5b614191878288016140ec565b91505092959194509250565b600060ff82169050919050565b6141b38161419d565b81146141be57600080fd5b50565b6000813590506141d0816141aa565b92915050565b6141df81613d35565b81146141ea57600080fd5b50565b6000813590506141fc816141d6565b92915050565b60008060008060008060c0878903121561421f5761421e613a37565b5b600061422d89828a01613c8d565b965050602061423e89828a01613bd8565b955050604061424f89828a01613bd8565b945050606061426089828a016141c1565b935050608061427189828a016141ed565b92505060a061428289828a016141ed565b9150509295509295509295565b600080604083850312156142a6576142a5613a37565b5b60006142b485828601613c8d565b92505060206142c585828601613c8d565b9150509250929050565b7f4e487b7100000000000000000000000000000000000000000000000000000000600052602260045260246000fd5b6000600282049050600182168061431657607f821691505b6020821081141561432a576143296142cf565b5b50919050565b7f4552433732313a20617070726f76616c20746f2063757272656e74206f776e6560008201527f7200000000000000000000000000000000000000000000000000000000000000602082015250565b600061438c602183613b07565b915061439782614330565b604082019050919050565b600060208201905081810360008301526143bb8161437f565b9050919050565b7f4552433732313a20617070726f76652063616c6c6572206973206e6f7420746f60008201527f6b656e206f776e6572206f7220617070726f76656420666f7220616c6c000000602082015250565b600061441e603d83613b07565b9150614429826143c2565b604082019050919050565b6000602082019050818103600083015261444d81614411565b9050919050565b7f4552433732313a2063616c6c6572206973206e6f7420746f6b656e206f776e6560008201527f72206f7220617070726f76656400000000000000000000000000000000000000602082015250565b60006144b0602d83613b07565b91506144bb82614454565b604082019050919050565b600060208201905081810360008301526144df816144a3565b9050919050565b7f566f7465733a20667574757265206c6f6f6b7570000000000000000000000000600082015250565b600061451c601483613b07565b9150614527826144e6565b602082019050919050565b6000602082019050818103600083015261454b8161450f565b9050919050565b7f566f7465733a2062726f6b656e20636c6f636b206d6f64650000000000000000600082015250565b6000614588601883613b07565b915061459382614552565b602082019050919050565b600060208201905081810360008301526145b78161457b565b9050919050565b7f4552433732313a20696e76616c696420746f6b656e2049440000000000000000600082015250565b60006145f4601883613b07565b91506145ff826145be565b602082019050919050565b60006020820190508181036000830152614623816145e7565b9050919050565b7f4552433732313a2061646472657373207a65726f206973206e6f74206120766160008201527f6c6964206f776e65720000000000000000000000000000000000000000000000602082015250565b6000614686602983613b07565b91506146918261462a565b604082019050919050565b600060208201905081810360008301526146b581614679565b9050919050565b7f566f7465733a207369676e617475726520657870697265640000000000000000600082015250565b60006146f2601883613b07565b91506146fd826146bc565b602082019050919050565b60006020820190508181036000830152614721816146e5565b9050919050565b600060808201905061473d6000830187613d3f565b61474a6020830186613c4c565b6147576040830185613d69565b6147646060830184613d69565b95945050505050565b7f566f7465733a20696e76616c6964206e6f6e6365000000000000000000000000600082015250565b60006147a3601483613b07565b91506147ae8261476d565b602082019050919050565b600060208201905081810360008301526147d281614796565b9050919050565b600081905092915050565b60006147ef82613afc565b6147f981856147d9565b9350614809818560208601613b18565b80840191505092915050565b600061482182856147e4565b915061482d82846147e4565b91508190509392505050565b60007bffffffffffffffffffffffffffffffffffffffffffffffffffffffff82169050919050565b7f4e487b7100000000000000000000000000000000000000000000000000000000600052601160045260246000fd5b600061489b82614839565b91506148a683614839565b9250828210156148b9576148b8614861565b5b828203905092915050565b7f53616665436173743a2076616c756520646f65736e27742066697420696e203260008201527f3234206269747300000000000000000000000000000000000000000000000000602082015250565b6000614920602783613b07565b915061492b826148c4565b604082019050919050565b6000602082019050818103600083015261494f81614913565b9050919050565b600061496182614839565b915061496c83614839565b9250827bffffffffffffffffffffffffffffffffffffffffffffffffffffffff0382111561499d5761499c614861565b5b828201905092915050565b60006149b382613bb7565b91506149be83613bb7565b9250828210156149d1576149d0614861565b5b828203905092915050565b7f4552433732315061757361626c653a20746f6b656e207472616e73666572207760008201527f68696c6520706175736564000000000000000000000000000000000000000000602082015250565b6000614a38602b83613b07565b9150614a43826149dc565b604082019050919050565b60006020820190508181036000830152614a6781614a2b565b9050919050565b7f53616665436173743a2076616c756520646f65736e27742066697420696e203360008201527f3220626974730000000000000000000000000000000000000000000000000000602082015250565b6000614aca602683613b07565b9150614ad582614a6e565b604082019050919050565b60006020820190508181036000830152614af981614abd565b9050919050565b7f455243373231436f6e73656375746976653a206261746368206275726e206e6f60008201527f7420737570706f72746564000000000000000000000000000000000000000000602082015250565b6000614b5c602b83613b07565b9150614b6782614b00565b604082019050919050565b60006020820190508181036000830152614b8b81614b4f565b9050919050565b7f53616665436173743a2076616c756520646f65736e27742066697420696e203460008201527f3820626974730000000000000000000000000000000000000000000000000000602082015250565b6000614bee602683613b07565b9150614bf982614b92565b604082019050919050565b60006020820190508181036000830152614c1d81614be1565b9050919050565b7f4552433732313a207472616e736665722066726f6d20696e636f72726563742060008201527f6f776e6572000000000000000000000000000000000000000000000000000000602082015250565b6000614c80602583613b07565b9150614c8b82614c24565b604082019050919050565b60006020820190508181036000830152614caf81614c73565b9050919050565b7f4552433732313a207472616e7366657220746f20746865207a65726f2061646460008201527f7265737300000000000000000000000000000000000000000000000000000000602082015250565b6000614d12602483613b07565b9150614d1d82614cb6565b604082019050919050565b60006020820190508181036000830152614d4181614d05565b9050919050565b6000614d5382613bb7565b9150614d5e83613bb7565b9250827fffffffffffffffffffffffffffffffffffffffffffffffffffffffffffffffff03821115614d9357614d92614861565b5b828201905092915050565b7f4552433732313a20617070726f766520746f2063616c6c657200000000000000600082015250565b6000614dd4601983613b07565b9150614ddf82614d9e565b602082019050919050565b60006020820190508181036000830152614e0381614dc7565b9050919050565b7f4552433732313a207472616e7366657220746f206e6f6e20455243373231526560008201527f63656976657220696d706c656d656e7465720000000000000000000000000000602082015250565b6000614e66603283613b07565b9150614e7182614e0a565b604082019050919050565b60006020820190508181036000830152614e9581614e59565b9050919050565b7f4e487b7100000000000000000000000000000000000000000000000000000000600052601260045260246000fd5b600081519050919050565b6000819050602082019050919050565b6000614ef28251613d35565b80915050919050565b600082821b905092915050565b6000614f1382614ecb565b82614f1d84614ed6565b9050614f2881614ee6565b92506020821015614f6857614f637fffffffffffffffffffffffffffffffffffffffffffffffffffffffffffffffff83602003600802614efb565b831692505b5050919050565b7f436865636b706f696e743a2064656372656173696e67206b6579730000000000600082015250565b6000614fa5601b83613b07565b9150614fb082614f6f565b602082019050919050565b60006020820190508181036000830152614fd481614f98565b9050919050565b60006bffffffffffffffffffffffff82169050919050565b6000614ffe82614fdb565b915061500983614fdb565b9250826bffffffffffffffffffffffff0382111561502a57615029614861565b5b828201905092915050565b600060a08201905061504a6000830188613d3f565b6150576020830187613d3f565b6150646040830186613d3f565b6150716060830185613d69565b61507e6080830184613c4c565b9695505050505050565b600060408201905061509d6000830185613d69565b6150aa6020830184613d69565b9392505050565b600082825260208201905092915050565b60006150cd82614ecb565b6150d781856150b1565b93506150e7818560208601613b18565b6150f081613b4b565b840191505092915050565b60006080820190506151106000830187613c4c565b61511d6020830186613c4c565b61512a6040830185613d69565b818103606083015261513c81846150c2565b905095945050505050565b60008151905061515681613a6d565b92915050565b60006020828403121561517257615171613a37565b5b600061518084828501615147565b91505092915050565b6151928161419d565b82525050565b60006080820190506151ad6000830187613d3f565b6151ba6020830186615189565b6151c76040830185613d3f565b6151d46060830184613d3f565b95945050505050565b7f4e487b7100000000000000000000000000000000000000000000000000000000600052602160045260246000fd5b7f45434453413a20696e76616c6964207369676e61747572650000000000000000600082015250565b6000615242601883613b07565b915061524d8261520c565b602082019050919050565b6000602082019050818103600083015261527181615235565b9050919050565b7f45434453413a20696e76616c6964207369676e6174757265206c656e67746800600082015250565b60006152ae601f83613b07565b91506152b982615278565b602082019050919050565b600060208201905081810360008301526152dd816152a1565b9050919050565b7f45434453413a20696e76616c6964207369676e6174757265202773272076616c60008201527f7565000000000000000000000000000000000000000000000000000000000000602082015250565b6000615340602283613b07565b915061534b826152e4565b604082019050919050565b6000602082019050818103600083015261536f81615333565b9050919050565b600061538182613bb7565b915061538c83613bb7565b92508261539c5761539b614e9c565b5b82820490509291505056fea26469706673582212209f3ed0f61ad4cc87ae72088e3140ccd7d7312c5d786a0dd36133c84d822d54eb64736f6c63430008090033",
  "linkReferences": {},
  "deployedLinkReferences": {}
}