{
  "contractName": "Base_Faucet_Token",
  "abi": [
    {
      "inputs": [
        {
          "internalType": "string",
          "name": "_name",
          "type": "string"
        },
        {
          "internalType": "string",
          "name": "_symbol",
          "type": "string"
        },
        {
          "internalType": "uint8",
          "name": "_decimals",
          "type": "uint8"
        },
        {
          "internalType": "uint256",
          "name": "total_supply_whole_tokens",
          "type": "uint256"
        },
        {
          "internalType": "uint256",
          "name": "faucet_amount",
          "type": "uint256"
        }
      ],
      "stateMutability": "nonpayable",
      "type": "constructor"
    },
    {
      "anonymous": false,
      "inputs": [
        {
          "indexed": true,
          "internalType": "address",
          "name": "owner",
          "type": "address"
        },
        {
          "indexed": true,
          "internalType": "address",
          "name": "spender",
          "type": "address"
        },
        {
          "indexed": false,
          "internalType": "uint256",
          "name": "value",
          "type": "uint256"
        }
      ],
      "name": "Approval",
      "type": "event"
    },
    {
      "anonymous": false,
      "inputs": [
        {
          "indexed": true,
          "internalType": "address",
          "name": "previousOwner",
          "type": "address"
        },
        {
          "indexed": true,
          "internalType": "address",
          "name": "newOwner",
          "type": "address"
        }
      ],
      "name": "OwnershipTransferred",
      "type": "event"
    },
    {
      "anonymous": false,
      "inputs": [
        {
          "indexed": true,
          "internalType": "address",
          "name": "from",
          "type": "address"
        },
        {
          "indexed": true,
          "internalType": "address",
          "name": "to",
          "type": "address"
        },
        {
          "indexed": false,
          "internalType": "uint256",
          "name": "value",
          "type": "uint256"
        }
      ],
      "name": "Transfer",
      "type": "event"
    },
    {
      "inputs": [
        {
          "internalType": "address",
          "name": "owner",
          "type": "address"
        },
        {
          "internalType": "address",
          "name": "spender",
          "type": "address"
        }
      ],
      "name": "allowance",
      "outputs": [
        {
          "internalType": "uint256",
          "name": "",
          "type": "uint256"
        }
      ],
      "stateMutability": "view",
      "type": "function"
    },
    {
      "inputs": [
        {
          "internalType": "address",
          "name": "spender",
          "type": "address"
        },
        {
          "internalType": "uint256",
          "name": "value",
          "type": "uint256"
        }
      ],
      "name": "approve",
      "outputs": [
        {
          "internalType": "bool",
          "name": "",
          "type": "bool"
        }
      ],
      "stateMutability": "nonpayable",
      "type": "function"
    },
    {
      "inputs": [
        {
          "internalType": "address",
          "name": "account",
          "type": "address"
        }
      ],
      "name": "balanceOf",
      "outputs": [
        {
          "internalType": "uint256",
          "name": "",
          "type": "uint256"
        }
      ],
      "stateMutability": "view",
      "type": "function"
    },
    {
      "inputs": [],
      "name": "decimals",
      "outputs": [
        {
          "internalType": "uint8",
          "name": "",
          "type": "uint8"
        }
      ],
      "stateMutability": "view",
      "type": "function"
    },
    {
      "inputs": [
        {
          "internalType": "address",
          "name": "spender",
          "type": "address"
        },
        {
          "internalType": "uint256",
          "name": "subtractedValue",
          "type": "uint256"
        }
      ],
      "name": "decreaseAllowance",
      "outputs": [
        {
          "internalType": "bool",
          "name": "",
          "type": "bool"
        }
      ],
      "stateMutability": "nonpayable",
      "type": "function"
    },
    {
      "inputs": [
        {
          "internalType": "address",
          "name": "spender",
          "type": "address"
        },
        {
          "internalType": "uint256",
          "name": "addedValue",
          "type": "uint256"
        }
      ],
      "name": "increaseAllowance",
      "outputs": [
        {
          "internalType": "bool",
          "name": "",
          "type": "bool"
        }
      ],
      "stateMutability": "nonpayable",
      "type": "function"
    },
    {
      "inputs": [],
      "name": "isOwner",
      "outputs": [
        {
          "internalType": "bool",
          "name": "",
          "type": "bool"
        }
      ],
      "stateMutability": "view",
      "type": "function"
    },
    {
      "inputs": [],
      "name": "kill",
      "outputs": [],
      "stateMutability": "nonpayable",
      "type": "function"
    },
    {
      "inputs": [],
      "name": "name",
      "outputs": [
        {
          "internalType": "string",
          "name": "",
          "type": "string"
        }
      ],
      "stateMutability": "view",
      "type": "function"
    },
    {
      "inputs": [],
      "name": "owner",
      "outputs": [
        {
          "internalType": "address",
          "name": "",
          "type": "address"
        }
      ],
      "stateMutability": "view",
      "type": "function"
    },
    {
      "inputs": [],
      "name": "renounceOwnership",
      "outputs": [],
      "stateMutability": "nonpayable",
      "type": "function"
    },
    {
      "inputs": [],
      "name": "symbol",
      "outputs": [
        {
          "internalType": "string",
          "name": "",
          "type": "string"
        }
      ],
      "stateMutability": "view",
      "type": "function"
    },
    {
      "inputs": [],
      "name": "totalSupply",
      "outputs": [
        {
          "internalType": "uint256",
          "name": "",
          "type": "uint256"
        }
      ],
      "stateMutability": "view",
      "type": "function"
    },
    {
      "inputs": [
        {
          "internalType": "address",
          "name": "recipient",
          "type": "address"
        },
        {
          "internalType": "uint256",
          "name": "amount",
          "type": "uint256"
        }
      ],
      "name": "transfer",
      "outputs": [
        {
          "internalType": "bool",
          "name": "",
          "type": "bool"
        }
      ],
      "stateMutability": "nonpayable",
      "type": "function"
    },
    {
      "inputs": [
        {
          "internalType": "address",
          "name": "sender",
          "type": "address"
        },
        {
          "internalType": "address",
          "name": "recipient",
          "type": "address"
        },
        {
          "internalType": "uint256",
          "name": "amount",
          "type": "uint256"
        }
      ],
      "name": "transferFrom",
      "outputs": [
        {
          "internalType": "bool",
          "name": "",
          "type": "bool"
        }
      ],
      "stateMutability": "nonpayable",
      "type": "function"
    },
    {
      "inputs": [
        {
          "internalType": "address",
          "name": "newOwner",
          "type": "address"
        }
      ],
      "name": "transferOwnership",
      "outputs": [],
      "stateMutability": "nonpayable",
      "type": "function"
    },
    {
      "inputs": [],
      "name": "faucet",
      "outputs": [],
      "stateMutability": "nonpayable",
      "type": "function"
    },
    {
      "inputs": [
        {
          "internalType": "address",
          "name": "account",
          "type": "address"
        },
        {
          "internalType": "uint256",
          "name": "value",
          "type": "uint256"
        }
      ],
      "name": "issue",
      "outputs": [],
      "stateMutability": "nonpayable",
      "type": "function"
    },
    {
      "inputs": [
        {
          "internalType": "uint256",
          "name": "amount",
          "type": "uint256"
        },
        {
          "internalType": "address",
          "name": "bridge_address",
          "type": "address"
        },
        {
          "internalType": "bytes32",
          "name": "vega_public_key",
          "type": "bytes32"
        }
      ],
      "name": "admin_deposit_single",
      "outputs": [],
      "stateMutability": "nonpayable",
      "type": "function"
    },
    {
      "inputs": [
        {
          "internalType": "uint256",
          "name": "amount",
          "type": "uint256"
        },
        {
          "internalType": "address",
          "name": "bridge_address",
          "type": "address"
        },
        {
          "internalType": "bytes32[]",
          "name": "vega_public_keys",
          "type": "bytes32[]"
        }
      ],
      "name": "admin_deposit_bulk",
      "outputs": [],
      "stateMutability": "nonpayable",
      "type": "function"
    },
    {
      "inputs": [
        {
          "internalType": "uint256",
          "name": "amount",
          "type": "uint256"
        },
        {
          "internalType": "address",
          "name": "staking_bridge_address",
          "type": "address"
        },
        {
          "internalType": "bytes32[]",
          "name": "vega_public_keys",
          "type": "bytes32[]"
        }
      ],
      "name": "admin_stake_bulk",
      "outputs": [],
      "stateMutability": "nonpayable",
      "type": "function"
    }
  ],
  "bytecode": "0x60806040523480156200001157600080fd5b5060405162002d3638038062002d36833981810160405281019062000037919062000381565b84848482600090805190602001906200005292919062000231565b5081600190805190602001906200006b92919062000231565b5080600260006101000a81548160ff021916908360ff16021790555050505033600260016101000a81548173ffffffffffffffffffffffffffffffffffffffff021916908373ffffffffffffffffffffffffffffffffffffffff160217905550600260019054906101000a900473ffffffffffffffffffffffffffffffffffffffff1673ffffffffffffffffffffffffffffffffffffffff16600073ffffffffffffffffffffffffffffffffffffffff167f8be0079c531659141344cd1fd0a4f28419497f9722a3daafe3b4186f6b6457e060405160405180910390a360008360ff16600a6200015c91906200051d565b836200016991906200065a565b9050816006819055508060058190555080600360003073ffffffffffffffffffffffffffffffffffffffff1673ffffffffffffffffffffffffffffffffffffffff168152602001908152602001600020819055503073ffffffffffffffffffffffffffffffffffffffff16600073ffffffffffffffffffffffffffffffffffffffff167fddf252ad1be2c89b69c2b068fc378daa952ba7f163c4a11628f55a4df523b3ef836040516200021d919062000446565b60405180910390a350505050505062000853565b8280546200023f9062000708565b90600052602060002090601f016020900481019282620002635760008555620002af565b82601f106200027e57805160ff1916838001178555620002af565b82800160010185558215620002af579182015b82811115620002ae57825182559160200191906001019062000291565b5b509050620002be9190620002c2565b5090565b5b80821115620002dd576000816000905550600101620002c3565b5090565b6000620002f8620002f2846200048c565b62000463565b9050828152602081018484840111156200031157600080fd5b6200031e848285620006d2565b509392505050565b600082601f8301126200033857600080fd5b81516200034a848260208601620002e1565b91505092915050565b60008151905062000364816200081f565b92915050565b6000815190506200037b8162000839565b92915050565b600080600080600060a086880312156200039a57600080fd5b600086015167ffffffffffffffff811115620003b557600080fd5b620003c38882890162000326565b955050602086015167ffffffffffffffff811115620003e157600080fd5b620003ef8882890162000326565b945050604062000402888289016200036a565b9350506060620004158882890162000353565b9250506080620004288882890162000353565b9150509295509295909350565b6200044081620006bb565b82525050565b60006020820190506200045d600083018462000435565b92915050565b60006200046f62000482565b90506200047d82826200073e565b919050565b6000604051905090565b600067ffffffffffffffff821115620004aa57620004a9620007d2565b5b620004b58262000801565b9050602081019050919050565b6000808291508390505b60018511156200051457808604811115620004ec57620004eb62000774565b5b6001851615620004fc5780820291505b80810290506200050c8562000812565b9450620004cc565b94509492505050565b60006200052a82620006bb565b91506200053783620006bb565b9250620005667fffffffffffffffffffffffffffffffffffffffffffffffffffffffffffffffff84846200056e565b905092915050565b60008262000580576001905062000653565b8162000590576000905062000653565b8160018114620005a95760028114620005b457620005ea565b600191505062000653565b60ff841115620005c957620005c862000774565b5b8360020a915084821115620005e357620005e262000774565b5b5062000653565b5060208310610133831016604e8410600b8410161715620006245782820a9050838111156200061e576200061d62000774565b5b62000653565b620006338484846001620004c2565b925090508184048111156200064d576200064c62000774565b5b81810290505b9392505050565b60006200066782620006bb565b91506200067483620006bb565b9250817fffffffffffffffffffffffffffffffffffffffffffffffffffffffffffffffff0483118215151615620006b057620006af62000774565b5b828202905092915050565b6000819050919050565b600060ff82169050919050565b60005b83811015620006f2578082015181840152602081019050620006d5565b8381111562000702576000848401525b50505050565b600060028204905060018216806200072157607f821691505b60208210811415620007385762000737620007a3565b5b50919050565b620007498262000801565b810181811067ffffffffffffffff821117156200076b576200076a620007d2565b5b80604052505050565b7f4e487b7100000000000000000000000000000000000000000000000000000000600052601160045260246000fd5b7f4e487b7100000000000000000000000000000000000000000000000000000000600052602260045260246000fd5b7f4e487b7100000000000000000000000000000000000000000000000000000000600052604160045260246000fd5b6000601f19601f8301169050919050565b60008160011c9050919050565b6200082a81620006bb565b81146200083657600080fd5b50565b6200084481620006c5565b81146200085057600080fd5b50565b6124d380620008636000396000f3fe608060405234801561001057600080fd5b50600436106101375760003560e01c80638da5cb5b116100b8578063b777374c1161007c578063b777374c14610340578063bc36878e1461035c578063d779cae814610378578063dd62ed3e14610394578063de5f72fd146103c4578063f2fde38b146103ce57610137565b80638da5cb5b146102865780638f32d59b146102a457806395d89b41146102c2578063a457c2d7146102e0578063a9059cbb1461031057610137565b806339509351116100ff57806339509351146101f657806341c0e1b51461022657806370a0823114610230578063715018a614610260578063867904b41461026a57610137565b806306fdde031461013c578063095ea7b31461015a57806318160ddd1461018a57806323b872dd146101a8578063313ce567146101d8575b600080fd5b6101446103ea565b6040516101519190611e55565b60405180910390f35b610174600480360381019061016f9190611ba0565b61047c565b6040516101819190611e3a565b60405180910390f35b610192610493565b60405161019f9190611f37565b60405180910390f35b6101c260048036038101906101bd9190611b51565b61049d565b6040516101cf9190611e3a565b60405180910390f35b6101e061054e565b6040516101ed9190611f7b565b60405180910390f35b610210600480360381019061020b9190611ba0565b610565565b60405161021d9190611e3a565b60405180910390f35b61022e61060a565b005b61024a60048036038101906102459190611aec565b610676565b6040516102579190611f37565b60405180910390f35b6102686106bf565b005b610284600480360381019061027f9190611ba0565b6107c7565b005b61028e61081d565b60405161029b9190611de8565b60405180910390f35b6102ac610847565b6040516102b99190611e3a565b60405180910390f35b6102ca61089f565b6040516102d79190611e55565b60405180910390f35b6102fa60048036038101906102f59190611ba0565b610931565b6040516103079190611e3a565b60405180910390f35b61032a60048036038101906103259190611ba0565b6109d6565b6040516103379190611e3a565b60405180910390f35b61035a60048036038101906103559190611c43565b6109ed565b005b61037660048036038101906103719190611bdc565b610c3f565b005b610392600480360381019061038d9190611bdc565b610f29565b005b6103ae60048036038101906103a99190611b15565b611211565b6040516103bb9190611f37565b60405180910390f35b6103cc611298565b005b6103e860048036038101906103e39190611aec565b6113b6565b005b6060600080546103f990612179565b80601f016020809104026020016040519081016040528092919081815260200182805461042590612179565b80156104725780601f1061044757610100808354040283529160200191610472565b820191906000526020600020905b81548152906001019060200180831161045557829003601f168201915b5050505050905090565b6000610489338484611409565b6001905092915050565b6000600554905090565b60006104aa8484846115d4565b610543843361053e85600460008a73ffffffffffffffffffffffffffffffffffffffff1673ffffffffffffffffffffffffffffffffffffffff16815260200190815260200160002060003373ffffffffffffffffffffffffffffffffffffffff1673ffffffffffffffffffffffffffffffffffffffff1681526020019081526020016000205461184890919063ffffffff16565b611409565b600190509392505050565b6000600260009054906101000a900460ff16905090565b600061060033846105fb85600460003373ffffffffffffffffffffffffffffffffffffffff1673ffffffffffffffffffffffffffffffffffffffff16815260200190815260200160002060008973ffffffffffffffffffffffffffffffffffffffff1673ffffffffffffffffffffffffffffffffffffffff1681526020019081526020016000205461189590919063ffffffff16565b611409565b6001905092915050565b610612610847565b610651576040517f08c379a000000000000000000000000000000000000000000000000000000000815260040161064890611ed7565b60405180910390fd5b600061065b61081d565b90508073ffffffffffffffffffffffffffffffffffffffff16ff5b6000600360008373ffffffffffffffffffffffffffffffffffffffff1673ffffffffffffffffffffffffffffffffffffffff168152602001908152602001600020549050919050565b6106c7610847565b610706576040517f08c379a00000000000000000000000000000000000000000000000000000000081526004016106fd90611ed7565b60405180910390fd5b600073ffffffffffffffffffffffffffffffffffffffff16600260019054906101000a900473ffffffffffffffffffffffffffffffffffffffff1673ffffffffffffffffffffffffffffffffffffffff167f8be0079c531659141344cd1fd0a4f28419497f9722a3daafe3b4186f6b6457e060405160405180910390a36000600260016101000a81548173ffffffffffffffffffffffffffffffffffffffff021916908373ffffffffffffffffffffffffffffffffffffffff160217905550565b6107cf610847565b61080e576040517f08c379a000000000000000000000000000000000000000000000000000000000815260040161080590611ed7565b60405180910390fd5b6108193083836115d4565b5050565b6000600260019054906101000a900473ffffffffffffffffffffffffffffffffffffffff16905090565b6000600260019054906101000a900473ffffffffffffffffffffffffffffffffffffffff1673ffffffffffffffffffffffffffffffffffffffff163373ffffffffffffffffffffffffffffffffffffffff1614905090565b6060600180546108ae90612179565b80601f01602080910402602001604051908101604052809291908181526020018280546108da90612179565b80156109275780601f106108fc57610100808354040283529160200191610927565b820191906000526020600020905b81548152906001019060200180831161090a57829003601f168201915b5050505050905090565b60006109cc33846109c785600460003373ffffffffffffffffffffffffffffffffffffffff1673ffffffffffffffffffffffffffffffffffffffff16815260200190815260200160002060008973ffffffffffffffffffffffffffffffffffffffff1673ffffffffffffffffffffffffffffffffffffffff1681526020019081526020016000205461184890919063ffffffff16565b611409565b6001905092915050565b60006109e33384846115d4565b6001905092915050565b6109f5610847565b610a34576040517f08c379a0000000000000000000000000000000000000000000000000000000008152600401610a2b90611ed7565b60405180910390fd5b82600460003073ffffffffffffffffffffffffffffffffffffffff1673ffffffffffffffffffffffffffffffffffffffff16815260200190815260200160002060008473ffffffffffffffffffffffffffffffffffffffff1673ffffffffffffffffffffffffffffffffffffffff16815260200190815260200160002081905550610aca8360055461189590919063ffffffff16565b600581905550610b2283600360003073ffffffffffffffffffffffffffffffffffffffff1673ffffffffffffffffffffffffffffffffffffffff1681526020019081526020016000205461189590919063ffffffff16565b600360003073ffffffffffffffffffffffffffffffffffffffff1673ffffffffffffffffffffffffffffffffffffffff168152602001908152602001600020819055503073ffffffffffffffffffffffffffffffffffffffff16600073ffffffffffffffffffffffffffffffffffffffff167fddf252ad1be2c89b69c2b068fc378daa952ba7f163c4a11628f55a4df523b3ef85604051610bc39190611f37565b60405180910390a38173ffffffffffffffffffffffffffffffffffffffff1663f76839323085846040518463ffffffff1660e01b8152600401610c0893929190611e03565b600060405180830381600087803b158015610c2257600080fd5b505af1158015610c36573d6000803e3d6000fd5b50505050505050565b610c47610847565b610c86576040517f08c379a0000000000000000000000000000000000000000000000000000000008152600401610c7d90611ed7565b60405180910390fd5b6000815184610c959190612059565b90507fffffffffffffffffffffffffffffffffffffffffffffffffffffffffffffffff600460003073ffffffffffffffffffffffffffffffffffffffff1673ffffffffffffffffffffffffffffffffffffffff16815260200190815260200160002060008573ffffffffffffffffffffffffffffffffffffffff1673ffffffffffffffffffffffffffffffffffffffff16815260200190815260200160002081905550610d4d8160055461189590919063ffffffff16565b600581905550610da581600360003073ffffffffffffffffffffffffffffffffffffffff1673ffffffffffffffffffffffffffffffffffffffff1681526020019081526020016000205461189590919063ffffffff16565b600360003073ffffffffffffffffffffffffffffffffffffffff1673ffffffffffffffffffffffffffffffffffffffff168152602001908152602001600020819055503073ffffffffffffffffffffffffffffffffffffffff16600073ffffffffffffffffffffffffffffffffffffffff167fddf252ad1be2c89b69c2b068fc378daa952ba7f163c4a11628f55a4df523b3ef83604051610e469190611f37565b60405180910390a360005b82518160ff161015610f22578373ffffffffffffffffffffffffffffffffffffffff1663f76839323087868560ff1681518110610eb7577f4e487b7100000000000000000000000000000000000000000000000000000000600052603260045260246000fd5b60200260200101516040518463ffffffff1660e01b8152600401610edd93929190611e03565b600060405180830381600087803b158015610ef757600080fd5b505af1158015610f0b573d6000803e3d6000fd5b505050508080610f1a906121dc565b915050610e51565b5050505050565b610f31610847565b610f70576040517f08c379a0000000000000000000000000000000000000000000000000000000008152600401610f6790611ed7565b60405180910390fd5b6000815184610f7f9190612059565b90507fffffffffffffffffffffffffffffffffffffffffffffffffffffffffffffffff600460003073ffffffffffffffffffffffffffffffffffffffff1673ffffffffffffffffffffffffffffffffffffffff16815260200190815260200160002060008573ffffffffffffffffffffffffffffffffffffffff1673ffffffffffffffffffffffffffffffffffffffff168152602001908152602001600020819055506110378160055461189590919063ffffffff16565b60058190555061108f81600360003073ffffffffffffffffffffffffffffffffffffffff1673ffffffffffffffffffffffffffffffffffffffff1681526020019081526020016000205461189590919063ffffffff16565b600360003073ffffffffffffffffffffffffffffffffffffffff1673ffffffffffffffffffffffffffffffffffffffff168152602001908152602001600020819055503073ffffffffffffffffffffffffffffffffffffffff16600073ffffffffffffffffffffffffffffffffffffffff167fddf252ad1be2c89b69c2b068fc378daa952ba7f163c4a11628f55a4df523b3ef836040516111309190611f37565b60405180910390a360005b82518160ff16101561120a578373ffffffffffffffffffffffffffffffffffffffff166383c592cf86858460ff16815181106111a0577f4e487b7100000000000000000000000000000000000000000000000000000000600052603260045260246000fd5b60200260200101516040518363ffffffff1660e01b81526004016111c5929190611f52565b600060405180830381600087803b1580156111df57600080fd5b505af11580156111f3573d6000803e3d6000fd5b505050508080611202906121dc565b91505061113b565b5050505050565b6000600460008473ffffffffffffffffffffffffffffffffffffffff1673ffffffffffffffffffffffffffffffffffffffff16815260200190815260200160002060008373ffffffffffffffffffffffffffffffffffffffff1673ffffffffffffffffffffffffffffffffffffffff16815260200190815260200160002054905092915050565b6112af60065460055461189590919063ffffffff16565b600581905550611309600654600360003373ffffffffffffffffffffffffffffffffffffffff1673ffffffffffffffffffffffffffffffffffffffff1681526020019081526020016000205461189590919063ffffffff16565b600360003373ffffffffffffffffffffffffffffffffffffffff1673ffffffffffffffffffffffffffffffffffffffff168152602001908152602001600020819055503373ffffffffffffffffffffffffffffffffffffffff16600073ffffffffffffffffffffffffffffffffffffffff167fddf252ad1be2c89b69c2b068fc378daa952ba7f163c4a11628f55a4df523b3ef6006546040516113ac9190611f37565b60405180910390a3565b6113be610847565b6113fd576040517f08c379a00000000000000000000000000000000000000000000000000000000081526004016113f490611ed7565b60405180910390fd5b611406816118e7565b50565b600073ffffffffffffffffffffffffffffffffffffffff168373ffffffffffffffffffffffffffffffffffffffff161415611479576040517f08c379a000000000000000000000000000000000000000000000000000000000815260040161147090611f17565b60405180910390fd5b600073ffffffffffffffffffffffffffffffffffffffff168273ffffffffffffffffffffffffffffffffffffffff1614156114e9576040517f08c379a00000000000000000000000000000000000000000000000000000000081526004016114e090611eb7565b60405180910390fd5b80600460008573ffffffffffffffffffffffffffffffffffffffff1673ffffffffffffffffffffffffffffffffffffffff16815260200190815260200160002060008473ffffffffffffffffffffffffffffffffffffffff1673ffffffffffffffffffffffffffffffffffffffff168152602001908152602001600020819055508173ffffffffffffffffffffffffffffffffffffffff168373ffffffffffffffffffffffffffffffffffffffff167f8c5be1e5ebec7d5bd14f71427d1e84f3dd0314c0f7b2291e5b200ac8c7c3b925836040516115c79190611f37565b60405180910390a3505050565b600073ffffffffffffffffffffffffffffffffffffffff168373ffffffffffffffffffffffffffffffffffffffff161415611644576040517f08c379a000000000000000000000000000000000000000000000000000000000815260040161163b90611ef7565b60405180910390fd5b600073ffffffffffffffffffffffffffffffffffffffff168273ffffffffffffffffffffffffffffffffffffffff1614156116b4576040517f08c379a00000000000000000000000000000000000000000000000000000000081526004016116ab90611e77565b60405180910390fd5b61170681600360008673ffffffffffffffffffffffffffffffffffffffff1673ffffffffffffffffffffffffffffffffffffffff1681526020019081526020016000205461184890919063ffffffff16565b600360008573ffffffffffffffffffffffffffffffffffffffff1673ffffffffffffffffffffffffffffffffffffffff1681526020019081526020016000208190555061179b81600360008573ffffffffffffffffffffffffffffffffffffffff1673ffffffffffffffffffffffffffffffffffffffff1681526020019081526020016000205461189590919063ffffffff16565b600360008473ffffffffffffffffffffffffffffffffffffffff1673ffffffffffffffffffffffffffffffffffffffff168152602001908152602001600020819055508173ffffffffffffffffffffffffffffffffffffffff168373ffffffffffffffffffffffffffffffffffffffff167fddf252ad1be2c89b69c2b068fc378daa952ba7f163c4a11628f55a4df523b3ef8360405161183b9190611f37565b60405180910390a3505050565b600082821115611881577f4e487b7100000000000000000000000000000000000000000000000000000000600052600160045260246000fd5b818361188d91906120b3565b905092915050565b60008082846118a49190612003565b9050838110156118dd577f4e487b7100000000000000000000000000000000000000000000000000000000600052600160045260246000fd5b8091505092915050565b600073ffffffffffffffffffffffffffffffffffffffff168173ffffffffffffffffffffffffffffffffffffffff161415611957576040517f08c379a000000000000000000000000000000000000000000000000000000000815260040161194e90611e97565b60405180910390fd5b8073ffffffffffffffffffffffffffffffffffffffff16600260019054906101000a900473ffffffffffffffffffffffffffffffffffffffff1673ffffffffffffffffffffffffffffffffffffffff167f8be0079c531659141344cd1fd0a4f28419497f9722a3daafe3b4186f6b6457e060405160405180910390a380600260016101000a81548173ffffffffffffffffffffffffffffffffffffffff021916908373ffffffffffffffffffffffffffffffffffffffff16021790555050565b6000611a2a611a2584611fbb565b611f96565b90508083825260208201905082856020860282011115611a4957600080fd5b60005b85811015611a795781611a5f8882611ac2565b845260208401935060208301925050600181019050611a4c565b5050509392505050565b600081359050611a9281612458565b92915050565b600082601f830112611aa957600080fd5b8135611ab9848260208601611a17565b91505092915050565b600081359050611ad18161246f565b92915050565b600081359050611ae681612486565b92915050565b600060208284031215611afe57600080fd5b6000611b0c84828501611a83565b91505092915050565b60008060408385031215611b2857600080fd5b6000611b3685828601611a83565b9250506020611b4785828601611a83565b9150509250929050565b600080600060608486031215611b6657600080fd5b6000611b7486828701611a83565b9350506020611b8586828701611a83565b9250506040611b9686828701611ad7565b9150509250925092565b60008060408385031215611bb357600080fd5b6000611bc185828601611a83565b9250506020611bd285828601611ad7565b9150509250929050565b600080600060608486031215611bf157600080fd5b6000611bff86828701611ad7565b9350506020611c1086828701611a83565b925050604084013567ffffffffffffffff811115611c2d57600080fd5b611c3986828701611a98565b9150509250925092565b600080600060608486031215611c5857600080fd5b6000611c6686828701611ad7565b9350506020611c7786828701611a83565b9250506040611c8886828701611ac2565b9150509250925092565b611c9b816120e7565b82525050565b611caa816120f9565b82525050565b611cb981612105565b82525050565b6000611cca82611fe7565b611cd48185611ff2565b9350611ce4818560208601612146565b611ced81612293565b840191505092915050565b6000611d05602383611ff2565b9150611d10826122a4565b604082019050919050565b6000611d28602683611ff2565b9150611d33826122f3565b604082019050919050565b6000611d4b602283611ff2565b9150611d5682612342565b604082019050919050565b6000611d6e602083611ff2565b9150611d7982612391565b602082019050919050565b6000611d91602583611ff2565b9150611d9c826123ba565b604082019050919050565b6000611db4602483611ff2565b9150611dbf82612409565b604082019050919050565b611dd38161212f565b82525050565b611de281612139565b82525050565b6000602082019050611dfd6000830184611c92565b92915050565b6000606082019050611e186000830186611c92565b611e256020830185611dca565b611e326040830184611cb0565b949350505050565b6000602082019050611e4f6000830184611ca1565b92915050565b60006020820190508181036000830152611e6f8184611cbf565b905092915050565b60006020820190508181036000830152611e9081611cf8565b9050919050565b60006020820190508181036000830152611eb081611d1b565b9050919050565b60006020820190508181036000830152611ed081611d3e565b9050919050565b60006020820190508181036000830152611ef081611d61565b9050919050565b60006020820190508181036000830152611f1081611d84565b9050919050565b60006020820190508181036000830152611f3081611da7565b9050919050565b6000602082019050611f4c6000830184611dca565b92915050565b6000604082019050611f676000830185611dca565b611f746020830184611cb0565b9392505050565b6000602082019050611f906000830184611dd9565b92915050565b6000611fa0611fb1565b9050611fac82826121ab565b919050565b6000604051905090565b600067ffffffffffffffff821115611fd657611fd5612264565b5b602082029050602081019050919050565b600081519050919050565b600082825260208201905092915050565b600061200e8261212f565b91506120198361212f565b9250827fffffffffffffffffffffffffffffffffffffffffffffffffffffffffffffffff0382111561204e5761204d612206565b5b828201905092915050565b60006120648261212f565b915061206f8361212f565b9250817fffffffffffffffffffffffffffffffffffffffffffffffffffffffffffffffff04831182151516156120a8576120a7612206565b5b828202905092915050565b60006120be8261212f565b91506120c98361212f565b9250828210156120dc576120db612206565b5b828203905092915050565b60006120f28261210f565b9050919050565b60008115159050919050565b6000819050919050565b600073ffffffffffffffffffffffffffffffffffffffff82169050919050565b6000819050919050565b600060ff82169050919050565b60005b83811015612164578082015181840152602081019050612149565b83811115612173576000848401525b50505050565b6000600282049050600182168061219157607f821691505b602082108114156121a5576121a4612235565b5b50919050565b6121b482612293565b810181811067ffffffffffffffff821117156121d3576121d2612264565b5b80604052505050565b60006121e782612139565b915060ff8214156121fb576121fa612206565b5b600182019050919050565b7f4e487b7100000000000000000000000000000000000000000000000000000000600052601160045260246000fd5b7f4e487b7100000000000000000000000000000000000000000000000000000000600052602260045260246000fd5b7f4e487b7100000000000000000000000000000000000000000000000000000000600052604160045260246000fd5b6000601f19601f8301169050919050565b7f45524332303a207472616e7366657220746f20746865207a65726f206164647260008201527f6573730000000000000000000000000000000000000000000000000000000000602082015250565b7f4f776e61626c653a206e6577206f776e657220697320746865207a65726f206160008201527f6464726573730000000000000000000000000000000000000000000000000000602082015250565b7f45524332303a20617070726f766520746f20746865207a65726f20616464726560008201527f7373000000000000000000000000000000000000000000000000000000000000602082015250565b7f4f776e61626c653a2063616c6c6572206973206e6f7420746865206f776e6572600082015250565b7f45524332303a207472616e736665722066726f6d20746865207a65726f20616460008201527f6472657373000000000000000000000000000000000000000000000000000000602082015250565b7f45524332303a20617070726f76652066726f6d20746865207a65726f2061646460008201527f7265737300000000000000000000000000000000000000000000000000000000602082015250565b612461816120e7565b811461246c57600080fd5b50565b61247881612105565b811461248357600080fd5b50565b61248f8161212f565b811461249a57600080fd5b5056fea26469706673582212204e754cc341f1d688dc3278ebf235e0c73c95a36e34270b65f341bced1815591564736f6c63430008010033",
  "immutableReferences": {},
  "source": "//SPDX-License-Identifier: UNLICENSED\npragma solidity 0.8.1;\n\nimport \"./ERC20Detailed.sol\";\nimport \"./Ownable.sol\";\nimport \"./ERC20.sol\";\nimport \"./Killable.sol\";\nimport \"./IERC20_Bridge_Logic.sol\";\nimport \"./Vega_Staking_Bridge.sol\";\n\ncontract Base_Faucet_Token is ERC20Detailed, Ownable, ERC20, Killable {\n\n    using SafeMath for uint256;\n    uint256 _faucet_amount;\n    constructor (string memory _name, string memory _symbol, uint8 _decimals, uint256 total_supply_whole_tokens, uint256 faucet_amount) ERC20Detailed(_name, _symbol, _decimals) {\n        uint256 to_mint = total_supply_whole_tokens * (10**uint256(_decimals));\n        _faucet_amount = faucet_amount;\n        _totalSupply = to_mint;\n        _balances[address(this)] = to_mint;\n        emit Transfer(address(0), address(this), to_mint);\n    }\n\n    // mints and transfers _faucet_amount to the sender\n    function faucet() public {\n        _totalSupply = _totalSupply.add(_faucet_amount);\n        _balances[address(msg.sender)] = _balances[address(msg.sender)].add(_faucet_amount);\n        emit Transfer(address(0), address(msg.sender), _faucet_amount);\n    }\n\n    function issue(address account, uint256 value) public onlyOwner {\n        _transfer(address(this), account, value);\n    }\n\n    function admin_deposit_single(uint256 amount, address bridge_address,  bytes32 vega_public_key) public onlyOwner {\n        _allowances[address(this)][bridge_address] = amount;\n        _totalSupply = _totalSupply.add(amount);\n        _balances[address(this)] = _balances[address(this)].add(amount);\n        emit Transfer(address(0), address(this), amount);\n\n        IERC20_Bridge_Logic(bridge_address).deposit_asset(address(this), amount, vega_public_key);\n    }\n\n    function admin_deposit_bulk(uint256 amount, address bridge_address,  bytes32[] memory vega_public_keys) public onlyOwner {\n        uint256 final_amt = amount * vega_public_keys.length;\n        _allowances[address(this)][bridge_address] = uint256(0xFFFFFFFFFFFFFFFFFFFFFFFFFFFFFFFFFFFFFFFFFFFFFFFFFFFFFFFFFFFFFFFF);\n        _totalSupply = _totalSupply.add(final_amt);\n        _balances[address(this)] = _balances[address(this)].add(final_amt);\n        emit Transfer(address(0), address(this), final_amt);\n        for(uint8 key_idx = 0; key_idx < vega_public_keys.length; key_idx++){\n            IERC20_Bridge_Logic(bridge_address).deposit_asset(address(this), amount, vega_public_keys[key_idx]);\n        }\n    }\n\n    function admin_stake_bulk(uint256 amount, address staking_bridge_address,  bytes32[] memory vega_public_keys) public onlyOwner {\n      uint256 final_amt = amount * vega_public_keys.length;\n      _allowances[address(this)][staking_bridge_address] = uint256(0xFFFFFFFFFFFFFFFFFFFFFFFFFFFFFFFFFFFFFFFFFFFFFFFFFFFFFFFFFFFFFFFF);\n      _totalSupply = _totalSupply.add(final_amt);\n      _balances[address(this)] = _balances[address(this)].add(final_amt);\n      emit Transfer(address(0), address(this), final_amt);\n      for(uint8 key_idx = 0; key_idx < vega_public_keys.length; key_idx++){\n          Vega_Staking_Bridge(staking_bridge_address).stake(amount, vega_public_keys[key_idx]);\n      }\n    }\n}\n",
  "sourcePath": "/Users/nemitariajienka/Desktop/projects/MultisigControl/TESTNET_ASSET_DEPLOYMENT/contracts/Base_Faucet_Token.sol",
  "compiler": {
    "name": "solc",
    "version": "0.8.1+commit.df193b15.Emscripten.clang"
  },
  "schemaVersion": "3.3.3",
  "updatedAt": "2021-09-29T15:56:47.549Z",
  "devdoc": {
    "kind": "dev",
    "methods": {
      "allowance(address,address)": {
        "details": "See {IERC20-allowance}."
      },
      "approve(address,uint256)": {
        "details": "See {IERC20-approve}. Requirements: - `spender` cannot be the zero address."
      },
      "balanceOf(address)": {
        "details": "See {IERC20-balanceOf}."
      },
      "decimals()": {
        "details": "Returns the number of decimals used to get its user representation. For example, if `decimals` equals `2`, a balance of `505` tokens should be displayed to a user as `5,05` (`505 / 10 ** 2`). Tokens usually opt for a value of 18, imitating the relationship between Ether and Wei. NOTE: This information is only used for _display_ purposes: it in no way affects any of the arithmetic of the contract, including {IERC20-balanceOf} and {IERC20-transfer}."
      },
      "decreaseAllowance(address,uint256)": {
        "details": "Atomically decreases the allowance granted to `spender` by the caller. This is an alternative to {approve} that can be used as a mitigation for problems described in {IERC20-approve}. Emits an {Approval} event indicating the updated allowance. Requirements: - `spender` cannot be the zero address. - `spender` must have allowance for the caller of at least `subtractedValue`."
      },
      "increaseAllowance(address,uint256)": {
        "details": "Atomically increases the allowance granted to `spender` by the caller. This is an alternative to {approve} that can be used as a mitigation for problems described in {IERC20-approve}. Emits an {Approval} event indicating the updated allowance. Requirements: - `spender` cannot be the zero address."
      },
      "isOwner()": {
        "details": "Returns true if the caller is the current owner."
      },
      "name()": {
        "details": "Returns the name of the token."
      },
      "owner()": {
        "details": "Returns the address of the current owner."
      },
      "renounceOwnership()": {
        "details": "Leaves the contract without owner. It will not be possible to call `onlyOwner` functions anymore. Can only be called by the current owner. NOTE: Renouncing ownership will leave the contract without an owner, thereby removing any functionality that is only available to the owner."
      },
      "symbol()": {
        "details": "Returns the symbol of the token, usually a shorter version of the name."
      },
      "totalSupply()": {
        "details": "See {IERC20-totalSupply}."
      },
      "transfer(address,uint256)": {
        "details": "See {IERC20-transfer}. Requirements: - `recipient` cannot be the zero address. - the caller must have a balance of at least `amount`."
      },
      "transferFrom(address,address,uint256)": {
        "details": "See {IERC20-transferFrom}. Emits an {Approval} event indicating the updated allowance. This is not required by the EIP. See the note at the beginning of {ERC20}; Requirements: - `sender` and `recipient` cannot be the zero address. - `sender` must have a balance of at least `value`. - the caller must have allowance for `sender`'s tokens of at least `amount`."
      },
      "transferOwnership(address)": {
        "details": "Transfers ownership of the contract to a new account (`newOwner`). Can only be called by the current owner."
      }
    },
    "version": 1
  },
  "userdoc": {
    "kind": "user",
    "methods": {},
    "version": 1
  }
}