{
  "contractName": "Bulk_Deposit",
  "abi": [
    {
      "inputs": [
        {
          "internalType": "address",
          "name": "bridge",
          "type": "address"
        },
        {
          "internalType": "address",
          "name": "token",
          "type": "address"
        },
        {
          "internalType": "bytes32[]",
          "name": "vega_public_keys",
          "type": "bytes32[]"
        },
        {
          "internalType": "uint256[]",
          "name": "values",
          "type": "uint256[]"
        }
      ],
      "name": "bulk_deposit",
      "outputs": [],
      "stateMutability": "nonpayable",
      "type": "function"
    }
  ],
  "bytecode": "0x608060405234801561001057600080fd5b5061058e806100206000396000f3fe608060405234801561001057600080fd5b506004361061002b5760003560e01c806346abf0c014610030575b600080fd5b61013c6004803603608081101561004657600080fd5b81019080803573ffffffffffffffffffffffffffffffffffffffff169060200190929190803573ffffffffffffffffffffffffffffffffffffffff169060200190929190803590602001906401000000008111156100a357600080fd5b8201836020820111156100b557600080fd5b803590602001918460208302840111640100000000831117156100d757600080fd5b9091929391929390803590602001906401000000008111156100f857600080fd5b82018360208201111561010a57600080fd5b8035906020019184602083028401116401000000008311171561012c57600080fd5b909192939192939050505061013e565b005b8383905082829050146101b9576040517f08c379a00000000000000000000000000000000000000000000000000000000081526004018080602001828103825260158152602001807f6172726179206c656e677468206d69736d61746368000000000000000000000081525060200191505060405180910390fd5b8473ffffffffffffffffffffffffffffffffffffffff166323b872dd33308873ffffffffffffffffffffffffffffffffffffffff166370a08231336040518263ffffffff1660e01b8152600401808273ffffffffffffffffffffffffffffffffffffffff16815260200191505060206040518083038186803b15801561023e57600080fd5b505afa158015610252573d6000803e3d6000fd5b505050506040513d602081101561026857600080fd5b81019080805190602001909291905050506040518463ffffffff1660e01b8152600401808473ffffffffffffffffffffffffffffffffffffffff1681526020018373ffffffffffffffffffffffffffffffffffffffff1681526020018281526020019350505050602060405180830381600087803b1580156102e957600080fd5b505af11580156102fd573d6000803e3d6000fd5b505050506040513d602081101561031357600080fd5b8101908080519060200190929190505050508473ffffffffffffffffffffffffffffffffffffffff1663095ea7b3878773ffffffffffffffffffffffffffffffffffffffff166370a08231306040518263ffffffff1660e01b8152600401808273ffffffffffffffffffffffffffffffffffffffff16815260200191505060206040518083038186803b1580156103a957600080fd5b505afa1580156103bd573d6000803e3d6000fd5b505050506040513d60208110156103d357600080fd5b81019080805190602001909291905050506040518363ffffffff1660e01b8152600401808373ffffffffffffffffffffffffffffffffffffffff16815260200182815260200192505050602060405180830381600087803b15801561043757600080fd5b505af115801561044b573d6000803e3d6000fd5b505050506040513d602081101561046157600080fd5b81019080805190602001909291905050505060005b828290508161ffff16101561054f578673ffffffffffffffffffffffffffffffffffffffff1663f76839328785858561ffff168181106104b257fe5b9050602002013588888661ffff168181106104c957fe5b905060200201356040518463ffffffff1660e01b8152600401808473ffffffffffffffffffffffffffffffffffffffff1681526020018381526020018281526020019350505050600060405180830381600087803b15801561052a57600080fd5b505af115801561053e573d6000803e3d6000fd5b505050508080600101915050610476565b5050505050505056fea2646970667358221220c22df1b8a93b094e838ee4bd87fbf33a317a16aa2f200dc33362ed052dff4ae164736f6c63430007060033",
  "immutableReferences": {},
  "source": "//SPDX-License-Identifier: UNLICENSED\npragma solidity 0.7.6;\n\nimport \"./IERC20.sol\";\nimport \"./IERC20_Bridge_Logic.sol\";\n\ncontract Bulk_Deposit {\n    function bulk_deposit(address bridge, address token, bytes32[] calldata vega_public_keys, uint256[] calldata values) public {\n      require(values.length == vega_public_keys.length, \"array length mismatch\");\n\n      //pull all tokens to this\n      IERC20(token).transferFrom(msg.sender, address(this), IERC20(token).balanceOf(msg.sender));\n\n      //approve\n      IERC20(token).approve(bridge, IERC20(token).balanceOf(address(this)));\n\n      for(uint16 dep_idx = 0; dep_idx < values.length; dep_idx++){\n        IERC20_Bridge_Logic(bridge).deposit_asset(token, values[dep_idx], vega_public_keys[dep_idx]);\n      }\n    }\n}\n",
  "sourcePath": "/Users/paulwebb/repos/MultisigControl/TESTNET_ASSET_DEPLOYMENT/contracts/Bulk_Deposit.sol",
  "compiler": {
    "name": "solc",
    "version": "0.7.6+commit.7338295f.Emscripten.clang"
  },
  "schemaVersion": "3.4.1",
  "updatedAt": "2021-06-24T14:04:39.154Z",
  "devdoc": {
    "kind": "dev",
    "methods": {},
    "version": 1
  },
  "userdoc": {
    "kind": "user",
    "methods": {},
    "version": 1
  }
}