{
  "contractName": "Faucet_Spam_and_Bot_Deposit",
  "abi": [
    {
      "constant": false,
      "inputs": [
        {
          "internalType": "address",
          "name": "token_address",
          "type": "address"
        },
        {
          "internalType": "uint16",
          "name": "times",
          "type": "uint16"
        },
        {
          "internalType": "address",
          "name": "bridge_address",
          "type": "address"
        },
        {
          "internalType": "bytes32",
          "name": "vega_public_key",
          "type": "bytes32"
        }
      ],
      "name": "spam",
      "outputs": [],
      "payable": false,
      "stateMutability": "nonpayable",
      "type": "function"
    },
    {
      "constant": false,
      "inputs": [],
      "name": "k",
      "outputs": [],
      "payable": false,
      "stateMutability": "nonpayable",
      "type": "function"
    }
  ],
  "bytecode": "0x608060405234801561001057600080fd5b506103cf806100206000396000f3fe608060405234801561001057600080fd5b50600436106100365760003560e01c8063b4f40c611461003b578063d34acc0814610045575b600080fd5b6100436100c1565b005b6100bf6004803603608081101561005b57600080fd5b81019080803573ffffffffffffffffffffffffffffffffffffffff169060200190929190803561ffff169060200190929190803573ffffffffffffffffffffffffffffffffffffffff169060200190929190803590602001909291905050506100da565b005b3373ffffffffffffffffffffffffffffffffffffffff16ff5b600084905060008090505b8461ffff168161ffff161015610162578173ffffffffffffffffffffffffffffffffffffffff1663de5f72fd6040518163ffffffff1660e01b8152600401600060405180830381600087803b15801561013d57600080fd5b505af1158015610151573d6000803e3d6000fd5b5050505080806001019150506100e5565b5060008173ffffffffffffffffffffffffffffffffffffffff166370a08231306040518263ffffffff1660e01b8152600401808273ffffffffffffffffffffffffffffffffffffffff1673ffffffffffffffffffffffffffffffffffffffff16815260200191505060206040518083038186803b1580156101e257600080fd5b505afa1580156101f6573d6000803e3d6000fd5b505050506040513d602081101561020c57600080fd5b810190808051906020019092919050505090508173ffffffffffffffffffffffffffffffffffffffff1663095ea7b385836040518363ffffffff1660e01b8152600401808373ffffffffffffffffffffffffffffffffffffffff1673ffffffffffffffffffffffffffffffffffffffff16815260200182815260200192505050602060405180830381600087803b1580156102a657600080fd5b505af11580156102ba573d6000803e3d6000fd5b505050506040513d60208110156102d057600080fd5b8101908080519060200190929190505050508373ffffffffffffffffffffffffffffffffffffffff1663f922254487600084876040518563ffffffff1660e01b8152600401808573ffffffffffffffffffffffffffffffffffffffff1673ffffffffffffffffffffffffffffffffffffffff168152602001848152602001838152602001828152602001945050505050600060405180830381600087803b15801561037a57600080fd5b505af115801561038e573d6000803e3d6000fd5b5050505050505050505056fea265627a7a72315820ccd4d9ed76088133c7e38c1a57ed394aadfaf4d6c5a01370c5665ab16b15e07f64736f6c63430005100032",
  "source": "pragma solidity ^0.5.0;\r\n\r\nimport \"./Base_Faucet_Token.sol\";\r\nimport \"./IERC20_Bridge_Logic.sol\";\r\n\r\ncontract Faucet_Spam_and_Bot_Deposit {\r\n    function spam(address token_address, uint16 times, address bridge_address,  bytes32 vega_public_key) public {\r\n        Base_Faucet_Token token = Base_Faucet_Token(token_address);\r\n\r\n        for(uint16 i = 0; i < times; i++){\r\n            token.faucet();\r\n        }\r\n\r\n        uint256 balance = token.balanceOf(address(this));\r\n\r\n        token.approve(bridge_address, balance);\r\n        IERC20_Bridge_Logic(bridge_address).deposit_asset(token_address, 0, balance, vega_public_key);\r\n    }\r\n\r\n    function k() public {\r\n        selfdestruct(msg.sender);\r\n    }\r\n}",
  "sourcePath": "C:/Users/holla/OneDrive/Desktop/Source/Vega Protocol/Bridge Stuff/MultisigControl/MultisigControl/TESTNET_ASSET_DEPLOYMENT/contracts/Faucet_Spam_and_Bot_Deposit.sol",
  "compiler": {
    "name": "solc",
    "version": "0.5.16+commit.9c3226ce.Emscripten.clang"
  },
  "schemaVersion": "3.0.21",
  "updatedAt": "2020-11-21T01:17:34.569Z",
  "devdoc": {
    "methods": {}
  },
  "userdoc": {
    "methods": {}
  }
}