{
  "_format": "hh-sol-artifact-1",
  "contractName": "ERC4626Mock",
  "sourceName": "contracts/oz_contracts/mocks/ERC4626Mock.sol",
  "abi": [
    {
      "inputs": [
        {
          "internalType": "address",
          "name": "underlying",
          "type": "address"
        }
      ],
      "stateMutability": "nonpayable",
      "type": "constructor"
    },
    {
      "anonymous": false,
      "inputs": [
        {
          "indexed": true,
          "internalType": "address",
          "name": "owner",
          "type": "address"
        },
        {
          "indexed": true,
          "internalType": "address",
          "name": "spender",
          "type": "address"
        },
        {
          "indexed": false,
          "internalType": "uint256",
          "name": "value",
          "type": "uint256"
        }
      ],
      "name": "Approval",
      "type": "event"
    },
    {
      "anonymous": false,
      "inputs": [
        {
          "indexed": true,
          "internalType": "address",
          "name": "sender",
          "type": "address"
        },
        {
          "indexed": true,
          "internalType": "address",
          "name": "owner",
          "type": "address"
        },
        {
          "indexed": false,
          "internalType": "uint256",
          "name": "assets",
          "type": "uint256"
        },
        {
          "indexed": false,
          "internalType": "uint256",
          "name": "shares",
          "type": "uint256"
        }
      ],
      "name": "Deposit",
      "type": "event"
    },
    {
      "anonymous": false,
      "inputs": [
        {
          "indexed": true,
          "internalType": "address",
          "name": "from",
          "type": "address"
        },
        {
          "indexed": true,
          "internalType": "address",
          "name": "to",
          "type": "address"
        },
        {
          "indexed": false,
          "internalType": "uint256",
          "name": "value",
          "type": "uint256"
        }
      ],
      "name": "Transfer",
      "type": "event"
    },
    {
      "anonymous": false,
      "inputs": [
        {
          "indexed": true,
          "internalType": "address",
          "name": "sender",
          "type": "address"
        },
        {
          "indexed": true,
          "internalType": "address",
          "name": "receiver",
          "type": "address"
        },
        {
          "indexed": true,
          "internalType": "address",
          "name": "owner",
          "type": "address"
        },
        {
          "indexed": false,
          "internalType": "uint256",
          "name": "assets",
          "type": "uint256"
        },
        {
          "indexed": false,
          "internalType": "uint256",
          "name": "shares",
          "type": "uint256"
        }
      ],
      "name": "Withdraw",
      "type": "event"
    },
    {
      "inputs": [
        {
          "internalType": "address",
          "name": "owner",
          "type": "address"
        },
        {
          "internalType": "address",
          "name": "spender",
          "type": "address"
        }
      ],
      "name": "allowance",
      "outputs": [
        {
          "internalType": "uint256",
          "name": "",
          "type": "uint256"
        }
      ],
      "stateMutability": "view",
      "type": "function"
    },
    {
      "inputs": [
        {
          "internalType": "address",
          "name": "spender",
          "type": "address"
        },
        {
          "internalType": "uint256",
          "name": "amount",
          "type": "uint256"
        }
      ],
      "name": "approve",
      "outputs": [
        {
          "internalType": "bool",
          "name": "",
          "type": "bool"
        }
      ],
      "stateMutability": "nonpayable",
      "type": "function"
    },
    {
      "inputs": [],
      "name": "asset",
      "outputs": [
        {
          "internalType": "address",
          "name": "",
          "type": "address"
        }
      ],
      "stateMutability": "view",
      "type": "function"
    },
    {
      "inputs": [
        {
          "internalType": "address",
          "name": "account",
          "type": "address"
        }
      ],
      "name": "balanceOf",
      "outputs": [
        {
          "internalType": "uint256",
          "name": "",
          "type": "uint256"
        }
      ],
      "stateMutability": "view",
      "type": "function"
    },
    {
      "inputs": [
        {
          "internalType": "address",
          "name": "account",
          "type": "address"
        },
        {
          "internalType": "uint256",
          "name": "amount",
          "type": "uint256"
        }
      ],
      "name": "burn",
      "outputs": [],
      "stateMutability": "nonpayable",
      "type": "function"
    },
    {
      "inputs": [
        {
          "internalType": "uint256",
          "name": "shares",
          "type": "uint256"
        }
      ],
      "name": "convertToAssets",
      "outputs": [
        {
          "internalType": "uint256",
          "name": "",
          "type": "uint256"
        }
      ],
      "stateMutability": "view",
      "type": "function"
    },
    {
      "inputs": [
        {
          "internalType": "uint256",
          "name": "assets",
          "type": "uint256"
        }
      ],
      "name": "convertToShares",
      "outputs": [
        {
          "internalType": "uint256",
          "name": "",
          "type": "uint256"
        }
      ],
      "stateMutability": "view",
      "type": "function"
    },
    {
      "inputs": [],
      "name": "decimals",
      "outputs": [
        {
          "internalType": "uint8",
          "name": "",
          "type": "uint8"
        }
      ],
      "stateMutability": "view",
      "type": "function"
    },
    {
      "inputs": [
        {
          "internalType": "address",
          "name": "spender",
          "type": "address"
        },
        {
          "internalType": "uint256",
          "name": "subtractedValue",
          "type": "uint256"
        }
      ],
      "name": "decreaseAllowance",
      "outputs": [
        {
          "internalType": "bool",
          "name": "",
          "type": "bool"
        }
      ],
      "stateMutability": "nonpayable",
      "type": "function"
    },
    {
      "inputs": [
        {
          "internalType": "uint256",
          "name": "assets",
          "type": "uint256"
        },
        {
          "internalType": "address",
          "name": "receiver",
          "type": "address"
        }
      ],
      "name": "deposit",
      "outputs": [
        {
          "internalType": "uint256",
          "name": "",
          "type": "uint256"
        }
      ],
      "stateMutability": "nonpayable",
      "type": "function"
    },
    {
      "inputs": [
        {
          "internalType": "address",
          "name": "spender",
          "type": "address"
        },
        {
          "internalType": "uint256",
          "name": "addedValue",
          "type": "uint256"
        }
      ],
      "name": "increaseAllowance",
      "outputs": [
        {
          "internalType": "bool",
          "name": "",
          "type": "bool"
        }
      ],
      "stateMutability": "nonpayable",
      "type": "function"
    },
    {
      "inputs": [
        {
          "internalType": "address",
          "name": "",
          "type": "address"
        }
      ],
      "name": "maxDeposit",
      "outputs": [
        {
          "internalType": "uint256",
          "name": "",
          "type": "uint256"
        }
      ],
      "stateMutability": "view",
      "type": "function"
    },
    {
      "inputs": [
        {
          "internalType": "address",
          "name": "",
          "type": "address"
        }
      ],
      "name": "maxMint",
      "outputs": [
        {
          "internalType": "uint256",
          "name": "",
          "type": "uint256"
        }
      ],
      "stateMutability": "view",
      "type": "function"
    },
    {
      "inputs": [
        {
          "internalType": "address",
          "name": "owner",
          "type": "address"
        }
      ],
      "name": "maxRedeem",
      "outputs": [
        {
          "internalType": "uint256",
          "name": "",
          "type": "uint256"
        }
      ],
      "stateMutability": "view",
      "type": "function"
    },
    {
      "inputs": [
        {
          "internalType": "address",
          "name": "owner",
          "type": "address"
        }
      ],
      "name": "maxWithdraw",
      "outputs": [
        {
          "internalType": "uint256",
          "name": "",
          "type": "uint256"
        }
      ],
      "stateMutability": "view",
      "type": "function"
    },
    {
      "inputs": [
        {
          "internalType": "address",
          "name": "account",
          "type": "address"
        },
        {
          "internalType": "uint256",
          "name": "amount",
          "type": "uint256"
        }
      ],
      "name": "mint",
      "outputs": [],
      "stateMutability": "nonpayable",
      "type": "function"
    },
    {
      "inputs": [
        {
          "internalType": "uint256",
          "name": "shares",
          "type": "uint256"
        },
        {
          "internalType": "address",
          "name": "receiver",
          "type": "address"
        }
      ],
      "name": "mint",
      "outputs": [
        {
          "internalType": "uint256",
          "name": "",
          "type": "uint256"
        }
      ],
      "stateMutability": "nonpayable",
      "type": "function"
    },
    {
      "inputs": [],
      "name": "name",
      "outputs": [
        {
          "internalType": "string",
          "name": "",
          "type": "string"
        }
      ],
      "stateMutability": "view",
      "type": "function"
    },
    {
      "inputs": [
        {
          "internalType": "uint256",
          "name": "assets",
          "type": "uint256"
        }
      ],
      "name": "previewDeposit",
      "outputs": [
        {
          "internalType": "uint256",
          "name": "",
          "type": "uint256"
        }
      ],
      "stateMutability": "view",
      "type": "function"
    },
    {
      "inputs": [
        {
          "internalType": "uint256",
          "name": "shares",
          "type": "uint256"
        }
      ],
      "name": "previewMint",
      "outputs": [
        {
          "internalType": "uint256",
          "name": "",
          "type": "uint256"
        }
      ],
      "stateMutability": "view",
      "type": "function"
    },
    {
      "inputs": [
        {
          "internalType": "uint256",
          "name": "shares",
          "type": "uint256"
        }
      ],
      "name": "previewRedeem",
      "outputs": [
        {
          "internalType": "uint256",
          "name": "",
          "type": "uint256"
        }
      ],
      "stateMutability": "view",
      "type": "function"
    },
    {
      "inputs": [
        {
          "internalType": "uint256",
          "name": "assets",
          "type": "uint256"
        }
      ],
      "name": "previewWithdraw",
      "outputs": [
        {
          "internalType": "uint256",
          "name": "",
          "type": "uint256"
        }
      ],
      "stateMutability": "view",
      "type": "function"
    },
    {
      "inputs": [
        {
          "internalType": "uint256",
          "name": "shares",
          "type": "uint256"
        },
        {
          "internalType": "address",
          "name": "receiver",
          "type": "address"
        },
        {
          "internalType": "address",
          "name": "owner",
          "type": "address"
        }
      ],
      "name": "redeem",
      "outputs": [
        {
          "internalType": "uint256",
          "name": "",
          "type": "uint256"
        }
      ],
      "stateMutability": "nonpayable",
      "type": "function"
    },
    {
      "inputs": [],
      "name": "symbol",
      "outputs": [
        {
          "internalType": "string",
          "name": "",
          "type": "string"
        }
      ],
      "stateMutability": "view",
      "type": "function"
    },
    {
      "inputs": [],
      "name": "totalAssets",
      "outputs": [
        {
          "internalType": "uint256",
          "name": "",
          "type": "uint256"
        }
      ],
      "stateMutability": "view",
      "type": "function"
    },
    {
      "inputs": [],
      "name": "totalSupply",
      "outputs": [
        {
          "internalType": "uint256",
          "name": "",
          "type": "uint256"
        }
      ],
      "stateMutability": "view",
      "type": "function"
    },
    {
      "inputs": [
        {
          "internalType": "address",
          "name": "to",
          "type": "address"
        },
        {
          "internalType": "uint256",
          "name": "amount",
          "type": "uint256"
        }
      ],
      "name": "transfer",
      "outputs": [
        {
          "internalType": "bool",
          "name": "",
          "type": "bool"
        }
      ],
      "stateMutability": "nonpayable",
      "type": "function"
    },
    {
      "inputs": [
        {
          "internalType": "address",
          "name": "from",
          "type": "address"
        },
        {
          "internalType": "address",
          "name": "to",
          "type": "address"
        },
        {
          "internalType": "uint256",
          "name": "amount",
          "type": "uint256"
        }
      ],
      "name": "transferFrom",
      "outputs": [
        {
          "internalType": "bool",
          "name": "",
          "type": "bool"
        }
      ],
      "stateMutability": "nonpayable",
      "type": "function"
    },
    {
      "inputs": [
        {
          "internalType": "uint256",
          "name": "assets",
          "type": "uint256"
        },
        {
          "internalType": "address",
          "name": "receiver",
          "type": "address"
        },
        {
          "internalType": "address",
          "name": "owner",
          "type": "address"
        }
      ],
      "name": "withdraw",
      "outputs": [
        {
          "internalType": "uint256",
          "name": "",
          "type": "uint256"
        }
      ],
      "stateMutability": "nonpayable",
      "type": "function"
    }
  ],
  "bytecode": "0x60c06040523480156200001157600080fd5b50604051620034723803806200347283398181016040528101906200003791906200039f565b806040518060400160405280600b81526020017f455243343632364d6f636b0000000000000000000000000000000000000000008152506040518060400160405280600681526020017f45343632364d00000000000000000000000000000000000000000000000000008152508160039080519060200190620000bc92919062000285565b508060049080519060200190620000d592919062000285565b505050600080620000ec836200014b60201b60201c565b9150915081620000fe57601262000100565b805b60ff1660a08160ff16815250508273ffffffffffffffffffffffffffffffffffffffff1660808173ffffffffffffffffffffffffffffffffffffffff1681525050505050506200053f565b6000806000808473ffffffffffffffffffffffffffffffffffffffff1663313ce56760e01b604051602401604051602081830303815290604052907bffffffffffffffffffffffffffffffffffffffffffffffffffffffff19166020820180517bffffffffffffffffffffffffffffffffffffffffffffffffffffffff8381831617835250505050604051620001e2919062000454565b600060405180830381855afa9150503d80600081146200021f576040519150601f19603f3d011682016040523d82523d6000602084013e62000224565b606091505b50915091508180156200023957506020815110155b156200027657600081806020019051810190620002579190620004a8565b905060ff8016811162000274576001819450945050505062000280565b505b6000809350935050505b915091565b828054620002939062000509565b90600052602060002090601f016020900481019282620002b7576000855562000303565b82601f10620002d257805160ff191683800117855562000303565b8280016001018555821562000303579182015b8281111562000302578251825591602001919060010190620002e5565b5b50905062000312919062000316565b5090565b5b808211156200033157600081600090555060010162000317565b5090565b600080fd5b600073ffffffffffffffffffffffffffffffffffffffff82169050919050565b600062000367826200033a565b9050919050565b62000379816200035a565b81146200038557600080fd5b50565b60008151905062000399816200036e565b92915050565b600060208284031215620003b857620003b762000335565b5b6000620003c88482850162000388565b91505092915050565b600081519050919050565b600081905092915050565b60005b8381101562000407578082015181840152602081019050620003ea565b8381111562000417576000848401525b50505050565b60006200042a82620003d1565b620004368185620003dc565b935062000448818560208601620003e7565b80840191505092915050565b60006200046282846200041d565b915081905092915050565b6000819050919050565b62000482816200046d565b81146200048e57600080fd5b50565b600081519050620004a28162000477565b92915050565b600060208284031215620004c157620004c062000335565b5b6000620004d18482850162000491565b91505092915050565b7f4e487b7100000000000000000000000000000000000000000000000000000000600052602260045260246000fd5b600060028204905060018216806200052257607f821691505b60208210811415620005395762000538620004da565b5b50919050565b60805160a051612ef86200057a60003960006108820152600081816106b4015281816108b4015281816114c2015261177c0152612ef86000f3fe608060405234801561001057600080fd5b50600436106101cf5760003560e01c806370a0823111610104578063b460af94116100a2578063ce96cb7711610071578063ce96cb77146105f0578063d905777e14610620578063dd62ed3e14610650578063ef8b30f714610680576101cf565b8063b460af9414610530578063ba08765214610560578063c63d75b614610590578063c6e6f592146105c0576101cf565b80639dc29fac116100de5780639dc29fac14610484578063a457c2d7146104a0578063a9059cbb146104d0578063b3d7f6b914610500576101cf565b806370a082311461040657806394bf804d1461043657806395d89b4114610466576101cf565b8063313ce56711610171578063402d267d1161014b578063402d267d1461035a57806340c10f191461038a5780634cdad506146103a65780636e553f65146103d6576101cf565b8063313ce567146102ee57806338d52e0f1461030c578063395093511461032a576101cf565b8063095ea7b3116101ad578063095ea7b3146102405780630a28a4771461027057806318160ddd146102a057806323b872dd146102be576101cf565b806301e1d114146101d457806306fdde03146101f257806307a2d13a14610210575b600080fd5b6101dc6106b0565b6040516101e99190611d77565b60405180910390f35b6101fa610760565b6040516102079190611e2b565b60405180910390f35b61022a60048036038101906102259190611e7e565b6107f2565b6040516102379190611d77565b60405180910390f35b61025a60048036038101906102559190611f09565b610806565b6040516102679190611f64565b60405180910390f35b61028a60048036038101906102859190611e7e565b610829565b6040516102979190611d77565b60405180910390f35b6102a861083d565b6040516102b59190611d77565b60405180910390f35b6102d860048036038101906102d39190611f7f565b610847565b6040516102e59190611f64565b60405180910390f35b6102f6610876565b6040516103039190611fee565b60405180910390f35b6103146108b0565b6040516103219190612018565b60405180910390f35b610344600480360381019061033f9190611f09565b6108d8565b6040516103519190611f64565b60405180910390f35b610374600480360381019061036f9190612033565b61090f565b6040516103819190611d77565b60405180910390f35b6103a4600480360381019061039f9190611f09565b610939565b005b6103c060048036038101906103bb9190611e7e565b610947565b6040516103cd9190611d77565b60405180910390f35b6103f060048036038101906103eb9190612060565b61095b565b6040516103fd9190611d77565b60405180910390f35b610420600480360381019061041b9190612033565b6109d2565b60405161042d9190611d77565b60405180910390f35b610450600480360381019061044b9190612060565b610a1a565b60405161045d9190611d77565b60405180910390f35b61046e610a91565b60405161047b9190611e2b565b60405180910390f35b61049e60048036038101906104999190611f09565b610b23565b005b6104ba60048036038101906104b59190611f09565b610b31565b6040516104c79190611f64565b60405180910390f35b6104ea60048036038101906104e59190611f09565b610ba8565b6040516104f79190611f64565b60405180910390f35b61051a60048036038101906105159190611e7e565b610bcb565b6040516105279190611d77565b60405180910390f35b61054a600480360381019061054591906120a0565b610bdf565b6040516105579190611d77565b60405180910390f35b61057a600480360381019061057591906120a0565b610c58565b6040516105879190611d77565b60405180910390f35b6105aa60048036038101906105a59190612033565b610cd1565b6040516105b79190611d77565b60405180910390f35b6105da60048036038101906105d59190611e7e565b610cfb565b6040516105e79190611d77565b60405180910390f35b61060a60048036038101906106059190612033565b610d0f565b6040516106179190611d77565b60405180910390f35b61063a60048036038101906106359190612033565b610d2b565b6040516106479190611d77565b60405180910390f35b61066a600480360381019061066591906120f3565b610d3d565b6040516106779190611d77565b60405180910390f35b61069a60048036038101906106959190611e7e565b610dc4565b6040516106a79190611d77565b60405180910390f35b60007f000000000000000000000000000000000000000000000000000000000000000073ffffffffffffffffffffffffffffffffffffffff166370a08231306040518263ffffffff1660e01b815260040161070b9190612018565b60206040518083038186803b15801561072357600080fd5b505afa158015610737573d6000803e3d6000fd5b505050506040513d601f19601f8201168201806040525081019061075b9190612148565b905090565b60606003805461076f906121a4565b80601f016020809104026020016040519081016040528092919081815260200182805461079b906121a4565b80156107e85780601f106107bd576101008083540402835291602001916107e8565b820191906000526020600020905b8154815290600101906020018083116107cb57829003601f168201915b5050505050905090565b60006107ff826000610dd8565b9050919050565b600080610811610e31565b905061081e818585610e39565b600191505092915050565b6000610836826001611004565b9050919050565b6000600254905090565b600080610852610e31565b905061085f85828561105d565b61086a8585856110e9565b60019150509392505050565b6000610880611361565b7f00000000000000000000000000000000000000000000000000000000000000006108ab9190612205565b905090565b60007f0000000000000000000000000000000000000000000000000000000000000000905090565b6000806108e3610e31565b90506109048185856108f58589610d3d565b6108ff919061223c565b610e39565b600191505092915050565b60007fffffffffffffffffffffffffffffffffffffffffffffffffffffffffffffffff9050919050565b6109438282611366565b5050565b6000610954826000610dd8565b9050919050565b60006109668261090f565b8311156109a8576040517f08c379a000000000000000000000000000000000000000000000000000000000815260040161099f906122de565b60405180910390fd5b60006109b384610dc4565b90506109c86109c0610e31565b8486846114bd565b8091505092915050565b60008060008373ffffffffffffffffffffffffffffffffffffffff1673ffffffffffffffffffffffffffffffffffffffff168152602001908152602001600020549050919050565b6000610a2582610cd1565b831115610a67576040517f08c379a0000000000000000000000000000000000000000000000000000000008152600401610a5e9061234a565b60405180910390fd5b6000610a7284610bcb565b9050610a87610a7f610e31565b8483876114bd565b8091505092915050565b606060048054610aa0906121a4565b80601f0160208091040260200160405190810160405280929190818152602001828054610acc906121a4565b8015610b195780601f10610aee57610100808354040283529160200191610b19565b820191906000526020600020905b815481529060010190602001808311610afc57829003601f168201915b5050505050905090565b610b2d8282611560565b5050565b600080610b3c610e31565b90506000610b4a8286610d3d565b905083811015610b8f576040517f08c379a0000000000000000000000000000000000000000000000000000000008152600401610b86906123dc565b60405180910390fd5b610b9c8286868403610e39565b60019250505092915050565b600080610bb3610e31565b9050610bc08185856110e9565b600191505092915050565b6000610bd8826001610dd8565b9050919050565b6000610bea82610d0f565b841115610c2c576040517f08c379a0000000000000000000000000000000000000000000000000000000008152600401610c2390612448565b60405180910390fd5b6000610c3785610829565b9050610c4d610c44610e31565b8585888561172e565b809150509392505050565b6000610c6382610d2b565b841115610ca5576040517f08c379a0000000000000000000000000000000000000000000000000000000008152600401610c9c906124b4565b60405180910390fd5b6000610cb085610947565b9050610cc6610cbd610e31565b8585848961172e565b809150509392505050565b60007fffffffffffffffffffffffffffffffffffffffffffffffffffffffffffffffff9050919050565b6000610d08826000611004565b9050919050565b6000610d24610d1d836109d2565b6000610dd8565b9050919050565b6000610d36826109d2565b9050919050565b6000600160008473ffffffffffffffffffffffffffffffffffffffff1673ffffffffffffffffffffffffffffffffffffffff16815260200190815260200160002060008373ffffffffffffffffffffffffffffffffffffffff1673ffffffffffffffffffffffffffffffffffffffff16815260200190815260200160002054905092915050565b6000610dd1826000611004565b9050919050565b6000610e296001610de76106b0565b610df1919061223c565b610df9611361565b600a610e059190612607565b610e0d61083d565b610e17919061223c565b8486611827909392919063ffffffff16565b905092915050565b600033905090565b600073ffffffffffffffffffffffffffffffffffffffff168373ffffffffffffffffffffffffffffffffffffffff161415610ea9576040517f08c379a0000000000000000000000000000000000000000000000000000000008152600401610ea0906126c4565b60405180910390fd5b600073ffffffffffffffffffffffffffffffffffffffff168273ffffffffffffffffffffffffffffffffffffffff161415610f19576040517f08c379a0000000000000000000000000000000000000000000000000000000008152600401610f1090612756565b60405180910390fd5b80600160008573ffffffffffffffffffffffffffffffffffffffff1673ffffffffffffffffffffffffffffffffffffffff16815260200190815260200160002060008473ffffffffffffffffffffffffffffffffffffffff1673ffffffffffffffffffffffffffffffffffffffff168152602001908152602001600020819055508173ffffffffffffffffffffffffffffffffffffffff168373ffffffffffffffffffffffffffffffffffffffff167f8c5be1e5ebec7d5bd14f71427d1e84f3dd0314c0f7b2291e5b200ac8c7c3b92583604051610ff79190611d77565b60405180910390a3505050565b6000611055611011611361565b600a61101d9190612607565b61102561083d565b61102f919061223c565b60016110396106b0565b611043919061223c565b8486611827909392919063ffffffff16565b905092915050565b60006110698484610d3d565b90507fffffffffffffffffffffffffffffffffffffffffffffffffffffffffffffffff81146110e357818110156110d5576040517f08c379a00000000000000000000000000000000000000000000000000000000081526004016110cc906127c2565b60405180910390fd5b6110e28484848403610e39565b5b50505050565b600073ffffffffffffffffffffffffffffffffffffffff168373ffffffffffffffffffffffffffffffffffffffff161415611159576040517f08c379a000000000000000000000000000000000000000000000000000000000815260040161115090612854565b60405180910390fd5b600073ffffffffffffffffffffffffffffffffffffffff168273ffffffffffffffffffffffffffffffffffffffff1614156111c9576040517f08c379a00000000000000000000000000000000000000000000000000000000081526004016111c0906128e6565b60405180910390fd5b6111d483838361189d565b60008060008573ffffffffffffffffffffffffffffffffffffffff1673ffffffffffffffffffffffffffffffffffffffff1681526020019081526020016000205490508181101561125a576040517f08c379a000000000000000000000000000000000000000000000000000000000815260040161125190612978565b60405180910390fd5b8181036000808673ffffffffffffffffffffffffffffffffffffffff1673ffffffffffffffffffffffffffffffffffffffff16815260200190815260200160002081905550816000808573ffffffffffffffffffffffffffffffffffffffff1673ffffffffffffffffffffffffffffffffffffffff168152602001908152602001600020600082825401925050819055508273ffffffffffffffffffffffffffffffffffffffff168473ffffffffffffffffffffffffffffffffffffffff167fddf252ad1be2c89b69c2b068fc378daa952ba7f163c4a11628f55a4df523b3ef846040516113489190611d77565b60405180910390a361135b8484846118a2565b50505050565b600090565b600073ffffffffffffffffffffffffffffffffffffffff168273ffffffffffffffffffffffffffffffffffffffff1614156113d6576040517f08c379a00000000000000000000000000000000000000000000000000000000081526004016113cd906129e4565b60405180910390fd5b6113e26000838361189d565b80600260008282546113f4919061223c565b92505081905550806000808473ffffffffffffffffffffffffffffffffffffffff1673ffffffffffffffffffffffffffffffffffffffff168152602001908152602001600020600082825401925050819055508173ffffffffffffffffffffffffffffffffffffffff16600073ffffffffffffffffffffffffffffffffffffffff167fddf252ad1be2c89b69c2b068fc378daa952ba7f163c4a11628f55a4df523b3ef836040516114a59190611d77565b60405180910390a36114b9600083836118a2565b5050565b6114e97f00000000000000000000000000000000000000000000000000000000000000008530856118a7565b6114f38382611366565b8273ffffffffffffffffffffffffffffffffffffffff168473ffffffffffffffffffffffffffffffffffffffff167fdcbc1c05240f31ff3ad067ef1ee35ce4997762752e3a095284754544f4c709d78484604051611552929190612a04565b60405180910390a350505050565b600073ffffffffffffffffffffffffffffffffffffffff168273ffffffffffffffffffffffffffffffffffffffff1614156115d0576040517f08c379a00000000000000000000000000000000000000000000000000000000081526004016115c790612a9f565b60405180910390fd5b6115dc8260008361189d565b60008060008473ffffffffffffffffffffffffffffffffffffffff1673ffffffffffffffffffffffffffffffffffffffff16815260200190815260200160002054905081811015611662576040517f08c379a000000000000000000000000000000000000000000000000000000000815260040161165990612b31565b60405180910390fd5b8181036000808573ffffffffffffffffffffffffffffffffffffffff1673ffffffffffffffffffffffffffffffffffffffff1681526020019081526020016000208190555081600260008282540392505081905550600073ffffffffffffffffffffffffffffffffffffffff168373ffffffffffffffffffffffffffffffffffffffff167fddf252ad1be2c89b69c2b068fc378daa952ba7f163c4a11628f55a4df523b3ef846040516117159190611d77565b60405180910390a3611729836000846118a2565b505050565b8273ffffffffffffffffffffffffffffffffffffffff168573ffffffffffffffffffffffffffffffffffffffff161461176d5761176c83868361105d565b5b6117778382611560565b6117a27f00000000000000000000000000000000000000000000000000000000000000008584611930565b8273ffffffffffffffffffffffffffffffffffffffff168473ffffffffffffffffffffffffffffffffffffffff168673ffffffffffffffffffffffffffffffffffffffff167ffbde797d201c681b91056529119e0b02407c7bb96a4a2c75c01fc9667232c8db8585604051611818929190612a04565b60405180910390a45050505050565b6000806118358686866119b6565b90506001600281111561184b5761184a612b51565b5b83600281111561185e5761185d612b51565b5b14801561187c57506000848061187757611876612b80565b5b868809115b156118915760018161188e919061223c565b90505b80915050949350505050565b505050565b505050565b61192a846323b872dd60e01b8585856040516024016118c893929190612baf565b604051602081830303815290604052907bffffffffffffffffffffffffffffffffffffffffffffffffffffffff19166020820180517bffffffffffffffffffffffffffffffffffffffffffffffffffffffff8381831617835250505050611ac8565b50505050565b6119b18363a9059cbb60e01b848460405160240161194f929190612be6565b604051602081830303815290604052907bffffffffffffffffffffffffffffffffffffffffffffffffffffffff19166020820180517bffffffffffffffffffffffffffffffffffffffffffffffffffffffff8381831617835250505050611ac8565b505050565b6000806000801985870985870292508281108382030391505060008114156119f2578382816119e8576119e7612b80565b5b0492505050611ac1565b808411611a34576040517f08c379a0000000000000000000000000000000000000000000000000000000008152600401611a2b90612c5b565b60405180910390fd5b60008486880990508281118203915080830392506000600186190186169050808604955080840493506001818260000304019050808302841793506000600287600302189050808702600203810290508087026002038102905080870260020381029050808702600203810290508087026002038102905080870260020381029050808502955050505050505b9392505050565b6000611b2a826040518060400160405280602081526020017f5361666545524332303a206c6f772d6c6576656c2063616c6c206661696c65648152508573ffffffffffffffffffffffffffffffffffffffff16611b909092919063ffffffff16565b9050600081511480611b4c575080806020019051810190611b4b9190612ca7565b5b611b8b576040517f08c379a0000000000000000000000000000000000000000000000000000000008152600401611b8290612d46565b60405180910390fd5b505050565b6060611b9f8484600085611ba8565b90509392505050565b606082471015611bed576040517f08c379a0000000000000000000000000000000000000000000000000000000008152600401611be490612dd8565b60405180910390fd5b6000808673ffffffffffffffffffffffffffffffffffffffff168587604051611c169190612e3f565b60006040518083038185875af1925050503d8060008114611c53576040519150601f19603f3d011682016040523d82523d6000602084013e611c58565b606091505b5091509150611c6987838387611c75565b92505050949350505050565b60608315611cd857600083511415611cd057611c9085611ceb565b611ccf576040517f08c379a0000000000000000000000000000000000000000000000000000000008152600401611cc690612ea2565b60405180910390fd5b5b829050611ce3565b611ce28383611d0e565b5b949350505050565b6000808273ffffffffffffffffffffffffffffffffffffffff163b119050919050565b600082511115611d215781518083602001fd5b806040517f08c379a0000000000000000000000000000000000000000000000000000000008152600401611d559190611e2b565b60405180910390fd5b6000819050919050565b611d7181611d5e565b82525050565b6000602082019050611d8c6000830184611d68565b92915050565b600081519050919050565b600082825260208201905092915050565b60005b83811015611dcc578082015181840152602081019050611db1565b83811115611ddb576000848401525b50505050565b6000601f19601f8301169050919050565b6000611dfd82611d92565b611e078185611d9d565b9350611e17818560208601611dae565b611e2081611de1565b840191505092915050565b60006020820190508181036000830152611e458184611df2565b905092915050565b600080fd5b611e5b81611d5e565b8114611e6657600080fd5b50565b600081359050611e7881611e52565b92915050565b600060208284031215611e9457611e93611e4d565b5b6000611ea284828501611e69565b91505092915050565b600073ffffffffffffffffffffffffffffffffffffffff82169050919050565b6000611ed682611eab565b9050919050565b611ee681611ecb565b8114611ef157600080fd5b50565b600081359050611f0381611edd565b92915050565b60008060408385031215611f2057611f1f611e4d565b5b6000611f2e85828601611ef4565b9250506020611f3f85828601611e69565b9150509250929050565b60008115159050919050565b611f5e81611f49565b82525050565b6000602082019050611f796000830184611f55565b92915050565b600080600060608486031215611f9857611f97611e4d565b5b6000611fa686828701611ef4565b9350506020611fb786828701611ef4565b9250506040611fc886828701611e69565b9150509250925092565b600060ff82169050919050565b611fe881611fd2565b82525050565b60006020820190506120036000830184611fdf565b92915050565b61201281611ecb565b82525050565b600060208201905061202d6000830184612009565b92915050565b60006020828403121561204957612048611e4d565b5b600061205784828501611ef4565b91505092915050565b6000806040838503121561207757612076611e4d565b5b600061208585828601611e69565b925050602061209685828601611ef4565b9150509250929050565b6000806000606084860312156120b9576120b8611e4d565b5b60006120c786828701611e69565b93505060206120d886828701611ef4565b92505060406120e986828701611ef4565b9150509250925092565b6000806040838503121561210a57612109611e4d565b5b600061211885828601611ef4565b925050602061212985828601611ef4565b9150509250929050565b60008151905061214281611e52565b92915050565b60006020828403121561215e5761215d611e4d565b5b600061216c84828501612133565b91505092915050565b7f4e487b7100000000000000000000000000000000000000000000000000000000600052602260045260246000fd5b600060028204905060018216806121bc57607f821691505b602082108114156121d0576121cf612175565b5b50919050565b7f4e487b7100000000000000000000000000000000000000000000000000000000600052601160045260246000fd5b600061221082611fd2565b915061221b83611fd2565b92508260ff03821115612231576122306121d6565b5b828201905092915050565b600061224782611d5e565b915061225283611d5e565b9250827fffffffffffffffffffffffffffffffffffffffffffffffffffffffffffffffff03821115612287576122866121d6565b5b828201905092915050565b7f455243343632363a206465706f736974206d6f7265207468616e206d61780000600082015250565b60006122c8601e83611d9d565b91506122d382612292565b602082019050919050565b600060208201905081810360008301526122f7816122bb565b9050919050565b7f455243343632363a206d696e74206d6f7265207468616e206d61780000000000600082015250565b6000612334601b83611d9d565b915061233f826122fe565b602082019050919050565b6000602082019050818103600083015261236381612327565b9050919050565b7f45524332303a2064656372656173656420616c6c6f77616e63652062656c6f7760008201527f207a65726f000000000000000000000000000000000000000000000000000000602082015250565b60006123c6602583611d9d565b91506123d18261236a565b604082019050919050565b600060208201905081810360008301526123f5816123b9565b9050919050565b7f455243343632363a207769746864726177206d6f7265207468616e206d617800600082015250565b6000612432601f83611d9d565b915061243d826123fc565b602082019050919050565b6000602082019050818103600083015261246181612425565b9050919050565b7f455243343632363a2072656465656d206d6f7265207468616e206d6178000000600082015250565b600061249e601d83611d9d565b91506124a982612468565b602082019050919050565b600060208201905081810360008301526124cd81612491565b9050919050565b60008160011c9050919050565b6000808291508390505b600185111561252b57808604811115612507576125066121d6565b5b60018516156125165780820291505b8081029050612524856124d4565b94506124eb565b94509492505050565b6000826125445760019050612600565b816125525760009050612600565b81600181146125685760028114612572576125a1565b6001915050612600565b60ff841115612584576125836121d6565b5b8360020a91508482111561259b5761259a6121d6565b5b50612600565b5060208310610133831016604e8410600b84101617156125d65782820a9050838111156125d1576125d06121d6565b5b612600565b6125e384848460016124e1565b925090508184048111156125fa576125f96121d6565b5b81810290505b9392505050565b600061261282611d5e565b915061261d83611fd2565b925061264a7fffffffffffffffffffffffffffffffffffffffffffffffffffffffffffffffff8484612534565b905092915050565b7f45524332303a20617070726f76652066726f6d20746865207a65726f2061646460008201527f7265737300000000000000000000000000000000000000000000000000000000602082015250565b60006126ae602483611d9d565b91506126b982612652565b604082019050919050565b600060208201905081810360008301526126dd816126a1565b9050919050565b7f45524332303a20617070726f766520746f20746865207a65726f20616464726560008201527f7373000000000000000000000000000000000000000000000000000000000000602082015250565b6000612740602283611d9d565b915061274b826126e4565b604082019050919050565b6000602082019050818103600083015261276f81612733565b9050919050565b7f45524332303a20696e73756666696369656e7420616c6c6f77616e6365000000600082015250565b60006127ac601d83611d9d565b91506127b782612776565b602082019050919050565b600060208201905081810360008301526127db8161279f565b9050919050565b7f45524332303a207472616e736665722066726f6d20746865207a65726f20616460008201527f6472657373000000000000000000000000000000000000000000000000000000602082015250565b600061283e602583611d9d565b9150612849826127e2565b604082019050919050565b6000602082019050818103600083015261286d81612831565b9050919050565b7f45524332303a207472616e7366657220746f20746865207a65726f206164647260008201527f6573730000000000000000000000000000000000000000000000000000000000602082015250565b60006128d0602383611d9d565b91506128db82612874565b604082019050919050565b600060208201905081810360008301526128ff816128c3565b9050919050565b7f45524332303a207472616e7366657220616d6f756e742065786365656473206260008201527f616c616e63650000000000000000000000000000000000000000000000000000602082015250565b6000612962602683611d9d565b915061296d82612906565b604082019050919050565b6000602082019050818103600083015261299181612955565b9050919050565b7f45524332303a206d696e7420746f20746865207a65726f206164647265737300600082015250565b60006129ce601f83611d9d565b91506129d982612998565b602082019050919050565b600060208201905081810360008301526129fd816129c1565b9050919050565b6000604082019050612a196000830185611d68565b612a266020830184611d68565b9392505050565b7f45524332303a206275726e2066726f6d20746865207a65726f2061646472657360008201527f7300000000000000000000000000000000000000000000000000000000000000602082015250565b6000612a89602183611d9d565b9150612a9482612a2d565b604082019050919050565b60006020820190508181036000830152612ab881612a7c565b9050919050565b7f45524332303a206275726e20616d6f756e7420657863656564732062616c616e60008201527f6365000000000000000000000000000000000000000000000000000000000000602082015250565b6000612b1b602283611d9d565b9150612b2682612abf565b604082019050919050565b60006020820190508181036000830152612b4a81612b0e565b9050919050565b7f4e487b7100000000000000000000000000000000000000000000000000000000600052602160045260246000fd5b7f4e487b7100000000000000000000000000000000000000000000000000000000600052601260045260246000fd5b6000606082019050612bc46000830186612009565b612bd16020830185612009565b612bde6040830184611d68565b949350505050565b6000604082019050612bfb6000830185612009565b612c086020830184611d68565b9392505050565b7f4d6174683a206d756c446976206f766572666c6f770000000000000000000000600082015250565b6000612c45601583611d9d565b9150612c5082612c0f565b602082019050919050565b60006020820190508181036000830152612c7481612c38565b9050919050565b612c8481611f49565b8114612c8f57600080fd5b50565b600081519050612ca181612c7b565b92915050565b600060208284031215612cbd57612cbc611e4d565b5b6000612ccb84828501612c92565b91505092915050565b7f5361666545524332303a204552433230206f7065726174696f6e20646964206e60008201527f6f74207375636365656400000000000000000000000000000000000000000000602082015250565b6000612d30602a83611d9d565b9150612d3b82612cd4565b604082019050919050565b60006020820190508181036000830152612d5f81612d23565b9050919050565b7f416464726573733a20696e73756666696369656e742062616c616e636520666f60008201527f722063616c6c0000000000000000000000000000000000000000000000000000602082015250565b6000612dc2602683611d9d565b9150612dcd82612d66565b604082019050919050565b60006020820190508181036000830152612df181612db5565b9050919050565b600081519050919050565b600081905092915050565b6000612e1982612df8565b612e238185612e03565b9350612e33818560208601611dae565b80840191505092915050565b6000612e4b8284612e0e565b915081905092915050565b7f416464726573733a2063616c6c20746f206e6f6e2d636f6e7472616374000000600082015250565b6000612e8c601d83611d9d565b9150612e9782612e56565b602082019050919050565b60006020820190508181036000830152612ebb81612e7f565b905091905056fea2646970667358221220049377c57f53359db7e8ff4e3bd12d95b2610b64c4d58444ddb8e7c5529dc6bd64736f6c63430008090033",
  "linkReferences": {},
  "deployedLinkReferences": {}
}