{
  "_format": "hh-sol-artifact-1",
  "contractName": "Killable",
  "sourceName": "contracts/tests/Killable.sol",
  "abi": [
    {
      "anonymous": false,
      "inputs": [
        {
          "indexed": true,
          "internalType": "address",
          "name": "previousOwner",
          "type": "address"
        },
        {
          "indexed": true,
          "internalType": "address",
          "name": "newOwner",
          "type": "address"
        }
      ],
      "name": "OwnershipTransferred",
      "type": "event"
    },
    {
      "inputs": [],
      "name": "isOwner",
      "outputs": [
        {
          "internalType": "bool",
          "name": "",
          "type": "bool"
        }
      ],
      "stateMutability": "view",
      "type": "function"
    },
    {
      "inputs": [],
      "name": "kill",
      "outputs": [],
      "stateMutability": "nonpayable",
      "type": "function"
    },
    {
      "inputs": [],
      "name": "owner",
      "outputs": [
        {
          "internalType": "address",
          "name": "",
          "type": "address"
        }
      ],
      "stateMutability": "view",
      "type": "function"
    },
    {
      "inputs": [],
      "name": "renounceOwnership",
      "outputs": [],
      "stateMutability": "nonpayable",
      "type": "function"
    },
    {
      "inputs": [
        {
          "internalType": "address",
          "name": "newOwner",
          "type": "address"
        }
      ],
      "name": "transferOwnership",
      "outputs": [],
      "stateMutability": "nonpayable",
      "type": "function"
    }
  ],
  "bytecode": "0x608060405234801561001057600080fd5b50336000806101000a81548173ffffffffffffffffffffffffffffffffffffffff021916908373ffffffffffffffffffffffffffffffffffffffff16021790555060008054906101000a900473ffffffffffffffffffffffffffffffffffffffff1673ffffffffffffffffffffffffffffffffffffffff16600073ffffffffffffffffffffffffffffffffffffffff167f8be0079c531659141344cd1fd0a4f28419497f9722a3daafe3b4186f6b6457e060405160405180910390a361066e806100db6000396000f3fe608060405234801561001057600080fd5b50600436106100575760003560e01c806341c0e1b51461005c578063715018a6146100665780638da5cb5b146100705780638f32d59b1461008e578063f2fde38b146100ac575b600080fd5b6100646100c8565b005b61006e610134565b005b610078610239565b604051610085919061047a565b60405180910390f35b610096610262565b6040516100a391906104b0565b60405180910390f35b6100c660048036038101906100c191906104fc565b6102b9565b005b6100d0610262565b61010f576040517f08c379a000000000000000000000000000000000000000000000000000000000815260040161010690610586565b60405180910390fd5b6000610119610239565b90508073ffffffffffffffffffffffffffffffffffffffff16ff5b61013c610262565b61017b576040517f08c379a000000000000000000000000000000000000000000000000000000000815260040161017290610586565b60405180910390fd5b600073ffffffffffffffffffffffffffffffffffffffff1660008054906101000a900473ffffffffffffffffffffffffffffffffffffffff1673ffffffffffffffffffffffffffffffffffffffff167f8be0079c531659141344cd1fd0a4f28419497f9722a3daafe3b4186f6b6457e060405160405180910390a360008060006101000a81548173ffffffffffffffffffffffffffffffffffffffff021916908373ffffffffffffffffffffffffffffffffffffffff160217905550565b60008060009054906101000a900473ffffffffffffffffffffffffffffffffffffffff16905090565b60008060009054906101000a900473ffffffffffffffffffffffffffffffffffffffff1673ffffffffffffffffffffffffffffffffffffffff163373ffffffffffffffffffffffffffffffffffffffff1614905090565b6102c1610262565b610300576040517f08c379a00000000000000000000000000000000000000000000000000000000081526004016102f790610586565b60405180910390fd5b6103098161030c565b50565b600073ffffffffffffffffffffffffffffffffffffffff168173ffffffffffffffffffffffffffffffffffffffff16141561037c576040517f08c379a000000000000000000000000000000000000000000000000000000000815260040161037390610618565b60405180910390fd5b8073ffffffffffffffffffffffffffffffffffffffff1660008054906101000a900473ffffffffffffffffffffffffffffffffffffffff1673ffffffffffffffffffffffffffffffffffffffff167f8be0079c531659141344cd1fd0a4f28419497f9722a3daafe3b4186f6b6457e060405160405180910390a3806000806101000a81548173ffffffffffffffffffffffffffffffffffffffff021916908373ffffffffffffffffffffffffffffffffffffffff16021790555050565b600073ffffffffffffffffffffffffffffffffffffffff82169050919050565b600061046482610439565b9050919050565b61047481610459565b82525050565b600060208201905061048f600083018461046b565b92915050565b60008115159050919050565b6104aa81610495565b82525050565b60006020820190506104c560008301846104a1565b92915050565b600080fd5b6104d981610459565b81146104e457600080fd5b50565b6000813590506104f6816104d0565b92915050565b600060208284031215610512576105116104cb565b5b6000610520848285016104e7565b91505092915050565b600082825260208201905092915050565b7f4f776e61626c653a2063616c6c6572206973206e6f7420746865206f776e6572600082015250565b6000610570602083610529565b915061057b8261053a565b602082019050919050565b6000602082019050818103600083015261059f81610563565b9050919050565b7f4f776e61626c653a206e6577206f776e657220697320746865207a65726f206160008201527f6464726573730000000000000000000000000000000000000000000000000000602082015250565b6000610602602683610529565b915061060d826105a6565b604082019050919050565b60006020820190508181036000830152610631816105f5565b905091905056fea2646970667358221220ef4dfe02b30b7577c6af6253d121acd2ab359ceb44c7ee0e133b2269a139777464736f6c63430008090033",
  "linkReferences": {},
  "deployedLinkReferences": {}
}