{
  "_format": "hh-sol-artifact-1",
  "contractName": "MyGovernor2",
  "sourceName": "contracts/oz_contracts/mocks/wizard/MyGovernor2.sol",
  "abi": [
    {
      "inputs": [
        {
          "internalType": "contract IVotes",
          "name": "_token",
          "type": "address"
        },
        {
          "internalType": "contract TimelockController",
          "name": "_timelock",
          "type": "address"
        }
      ],
      "stateMutability": "nonpayable",
      "type": "constructor"
    },
    {
      "inputs": [],
      "name": "Empty",
      "type": "error"
    },
    {
      "inputs": [],
      "name": "InvalidShortString",
      "type": "error"
    },
    {
      "inputs": [
        {
          "internalType": "string",
          "name": "str",
          "type": "string"
        }
      ],
      "name": "StringTooLong",
      "type": "error"
    },
    {
      "anonymous": false,
      "inputs": [],
      "name": "EIP712DomainChanged",
      "type": "event"
    },
    {
      "anonymous": false,
      "inputs": [
        {
          "indexed": false,
          "internalType": "uint256",
          "name": "proposalId",
          "type": "uint256"
        }
      ],
      "name": "ProposalCanceled",
      "type": "event"
    },
    {
      "anonymous": false,
      "inputs": [
        {
          "indexed": false,
          "internalType": "uint256",
          "name": "proposalId",
          "type": "uint256"
        },
        {
          "indexed": false,
          "internalType": "address",
          "name": "proposer",
          "type": "address"
        },
        {
          "indexed": false,
          "internalType": "address[]",
          "name": "targets",
          "type": "address[]"
        },
        {
          "indexed": false,
          "internalType": "uint256[]",
          "name": "values",
          "type": "uint256[]"
        },
        {
          "indexed": false,
          "internalType": "string[]",
          "name": "signatures",
          "type": "string[]"
        },
        {
          "indexed": false,
          "internalType": "bytes[]",
          "name": "calldatas",
          "type": "bytes[]"
        },
        {
          "indexed": false,
          "internalType": "uint256",
          "name": "voteStart",
          "type": "uint256"
        },
        {
          "indexed": false,
          "internalType": "uint256",
          "name": "voteEnd",
          "type": "uint256"
        },
        {
          "indexed": false,
          "internalType": "string",
          "name": "description",
          "type": "string"
        }
      ],
      "name": "ProposalCreated",
      "type": "event"
    },
    {
      "anonymous": false,
      "inputs": [
        {
          "indexed": false,
          "internalType": "uint256",
          "name": "proposalId",
          "type": "uint256"
        }
      ],
      "name": "ProposalExecuted",
      "type": "event"
    },
    {
      "anonymous": false,
      "inputs": [
        {
          "indexed": false,
          "internalType": "uint256",
          "name": "proposalId",
          "type": "uint256"
        },
        {
          "indexed": false,
          "internalType": "uint256",
          "name": "eta",
          "type": "uint256"
        }
      ],
      "name": "ProposalQueued",
      "type": "event"
    },
    {
      "anonymous": false,
      "inputs": [
        {
          "indexed": false,
          "internalType": "uint256",
          "name": "oldQuorumNumerator",
          "type": "uint256"
        },
        {
          "indexed": false,
          "internalType": "uint256",
          "name": "newQuorumNumerator",
          "type": "uint256"
        }
      ],
      "name": "QuorumNumeratorUpdated",
      "type": "event"
    },
    {
      "anonymous": false,
      "inputs": [
        {
          "indexed": false,
          "internalType": "address",
          "name": "oldTimelock",
          "type": "address"
        },
        {
          "indexed": false,
          "internalType": "address",
          "name": "newTimelock",
          "type": "address"
        }
      ],
      "name": "TimelockChange",
      "type": "event"
    },
    {
      "anonymous": false,
      "inputs": [
        {
          "indexed": true,
          "internalType": "address",
          "name": "voter",
          "type": "address"
        },
        {
          "indexed": false,
          "internalType": "uint256",
          "name": "proposalId",
          "type": "uint256"
        },
        {
          "indexed": false,
          "internalType": "uint8",
          "name": "support",
          "type": "uint8"
        },
        {
          "indexed": false,
          "internalType": "uint256",
          "name": "weight",
          "type": "uint256"
        },
        {
          "indexed": false,
          "internalType": "string",
          "name": "reason",
          "type": "string"
        }
      ],
      "name": "VoteCast",
      "type": "event"
    },
    {
      "anonymous": false,
      "inputs": [
        {
          "indexed": true,
          "internalType": "address",
          "name": "voter",
          "type": "address"
        },
        {
          "indexed": false,
          "internalType": "uint256",
          "name": "proposalId",
          "type": "uint256"
        },
        {
          "indexed": false,
          "internalType": "uint8",
          "name": "support",
          "type": "uint8"
        },
        {
          "indexed": false,
          "internalType": "uint256",
          "name": "weight",
          "type": "uint256"
        },
        {
          "indexed": false,
          "internalType": "string",
          "name": "reason",
          "type": "string"
        },
        {
          "indexed": false,
          "internalType": "bytes",
          "name": "params",
          "type": "bytes"
        }
      ],
      "name": "VoteCastWithParams",
      "type": "event"
    },
    {
      "inputs": [],
      "name": "BALLOT_TYPEHASH",
      "outputs": [
        {
          "internalType": "bytes32",
          "name": "",
          "type": "bytes32"
        }
      ],
      "stateMutability": "view",
      "type": "function"
    },
    {
      "inputs": [],
      "name": "CLOCK_MODE",
      "outputs": [
        {
          "internalType": "string",
          "name": "",
          "type": "string"
        }
      ],
      "stateMutability": "view",
      "type": "function"
    },
    {
      "inputs": [],
      "name": "COUNTING_MODE",
      "outputs": [
        {
          "internalType": "string",
          "name": "",
          "type": "string"
        }
      ],
      "stateMutability": "pure",
      "type": "function"
    },
    {
      "inputs": [],
      "name": "EXTENDED_BALLOT_TYPEHASH",
      "outputs": [
        {
          "internalType": "bytes32",
          "name": "",
          "type": "bytes32"
        }
      ],
      "stateMutability": "view",
      "type": "function"
    },
    {
      "inputs": [
        {
          "internalType": "address[]",
          "name": "targets",
          "type": "address[]"
        },
        {
          "internalType": "uint256[]",
          "name": "values",
          "type": "uint256[]"
        },
        {
          "internalType": "bytes[]",
          "name": "calldatas",
          "type": "bytes[]"
        },
        {
          "internalType": "bytes32",
          "name": "descriptionHash",
          "type": "bytes32"
        }
      ],
      "name": "cancel",
      "outputs": [
        {
          "internalType": "uint256",
          "name": "",
          "type": "uint256"
        }
      ],
      "stateMutability": "nonpayable",
      "type": "function"
    },
    {
      "inputs": [
        {
          "internalType": "uint256",
          "name": "proposalId",
          "type": "uint256"
        },
        {
          "internalType": "uint8",
          "name": "support",
          "type": "uint8"
        }
      ],
      "name": "castVote",
      "outputs": [
        {
          "internalType": "uint256",
          "name": "",
          "type": "uint256"
        }
      ],
      "stateMutability": "nonpayable",
      "type": "function"
    },
    {
      "inputs": [
        {
          "internalType": "uint256",
          "name": "proposalId",
          "type": "uint256"
        },
        {
          "internalType": "uint8",
          "name": "support",
          "type": "uint8"
        },
        {
          "internalType": "uint8",
          "name": "v",
          "type": "uint8"
        },
        {
          "internalType": "bytes32",
          "name": "r",
          "type": "bytes32"
        },
        {
          "internalType": "bytes32",
          "name": "s",
          "type": "bytes32"
        }
      ],
      "name": "castVoteBySig",
      "outputs": [
        {
          "internalType": "uint256",
          "name": "",
          "type": "uint256"
        }
      ],
      "stateMutability": "nonpayable",
      "type": "function"
    },
    {
      "inputs": [
        {
          "internalType": "uint256",
          "name": "proposalId",
          "type": "uint256"
        },
        {
          "internalType": "uint8",
          "name": "support",
          "type": "uint8"
        },
        {
          "internalType": "string",
          "name": "reason",
          "type": "string"
        }
      ],
      "name": "castVoteWithReason",
      "outputs": [
        {
          "internalType": "uint256",
          "name": "",
          "type": "uint256"
        }
      ],
      "stateMutability": "nonpayable",
      "type": "function"
    },
    {
      "inputs": [
        {
          "internalType": "uint256",
          "name": "proposalId",
          "type": "uint256"
        },
        {
          "internalType": "uint8",
          "name": "support",
          "type": "uint8"
        },
        {
          "internalType": "string",
          "name": "reason",
          "type": "string"
        },
        {
          "internalType": "bytes",
          "name": "params",
          "type": "bytes"
        }
      ],
      "name": "castVoteWithReasonAndParams",
      "outputs": [
        {
          "internalType": "uint256",
          "name": "",
          "type": "uint256"
        }
      ],
      "stateMutability": "nonpayable",
      "type": "function"
    },
    {
      "inputs": [
        {
          "internalType": "uint256",
          "name": "proposalId",
          "type": "uint256"
        },
        {
          "internalType": "uint8",
          "name": "support",
          "type": "uint8"
        },
        {
          "internalType": "string",
          "name": "reason",
          "type": "string"
        },
        {
          "internalType": "bytes",
          "name": "params",
          "type": "bytes"
        },
        {
          "internalType": "uint8",
          "name": "v",
          "type": "uint8"
        },
        {
          "internalType": "bytes32",
          "name": "r",
          "type": "bytes32"
        },
        {
          "internalType": "bytes32",
          "name": "s",
          "type": "bytes32"
        }
      ],
      "name": "castVoteWithReasonAndParamsBySig",
      "outputs": [
        {
          "internalType": "uint256",
          "name": "",
          "type": "uint256"
        }
      ],
      "stateMutability": "nonpayable",
      "type": "function"
    },
    {
      "inputs": [],
      "name": "clock",
      "outputs": [
        {
          "internalType": "uint48",
          "name": "",
          "type": "uint48"
        }
      ],
      "stateMutability": "view",
      "type": "function"
    },
    {
      "inputs": [],
      "name": "eip712Domain",
      "outputs": [
        {
          "internalType": "bytes1",
          "name": "fields",
          "type": "bytes1"
        },
        {
          "internalType": "string",
          "name": "name",
          "type": "string"
        },
        {
          "internalType": "string",
          "name": "version",
          "type": "string"
        },
        {
          "internalType": "uint256",
          "name": "chainId",
          "type": "uint256"
        },
        {
          "internalType": "address",
          "name": "verifyingContract",
          "type": "address"
        },
        {
          "internalType": "bytes32",
          "name": "salt",
          "type": "bytes32"
        },
        {
          "internalType": "uint256[]",
          "name": "extensions",
          "type": "uint256[]"
        }
      ],
      "stateMutability": "view",
      "type": "function"
    },
    {
      "inputs": [
        {
          "internalType": "address[]",
          "name": "targets",
          "type": "address[]"
        },
        {
          "internalType": "uint256[]",
          "name": "values",
          "type": "uint256[]"
        },
        {
          "internalType": "bytes[]",
          "name": "calldatas",
          "type": "bytes[]"
        },
        {
          "internalType": "bytes32",
          "name": "descriptionHash",
          "type": "bytes32"
        }
      ],
      "name": "execute",
      "outputs": [
        {
          "internalType": "uint256",
          "name": "",
          "type": "uint256"
        }
      ],
      "stateMutability": "payable",
      "type": "function"
    },
    {
      "inputs": [
        {
          "internalType": "address",
          "name": "account",
          "type": "address"
        },
        {
          "internalType": "uint256",
          "name": "timepoint",
          "type": "uint256"
        }
      ],
      "name": "getVotes",
      "outputs": [
        {
          "internalType": "uint256",
          "name": "",
          "type": "uint256"
        }
      ],
      "stateMutability": "view",
      "type": "function"
    },
    {
      "inputs": [
        {
          "internalType": "address",
          "name": "account",
          "type": "address"
        },
        {
          "internalType": "uint256",
          "name": "timepoint",
          "type": "uint256"
        },
        {
          "internalType": "bytes",
          "name": "params",
          "type": "bytes"
        }
      ],
      "name": "getVotesWithParams",
      "outputs": [
        {
          "internalType": "uint256",
          "name": "",
          "type": "uint256"
        }
      ],
      "stateMutability": "view",
      "type": "function"
    },
    {
      "inputs": [
        {
          "internalType": "uint256",
          "name": "proposalId",
          "type": "uint256"
        },
        {
          "internalType": "address",
          "name": "account",
          "type": "address"
        }
      ],
      "name": "hasVoted",
      "outputs": [
        {
          "internalType": "bool",
          "name": "",
          "type": "bool"
        }
      ],
      "stateMutability": "view",
      "type": "function"
    },
    {
      "inputs": [
        {
          "internalType": "address[]",
          "name": "targets",
          "type": "address[]"
        },
        {
          "internalType": "uint256[]",
          "name": "values",
          "type": "uint256[]"
        },
        {
          "internalType": "bytes[]",
          "name": "calldatas",
          "type": "bytes[]"
        },
        {
          "internalType": "bytes32",
          "name": "descriptionHash",
          "type": "bytes32"
        }
      ],
      "name": "hashProposal",
      "outputs": [
        {
          "internalType": "uint256",
          "name": "",
          "type": "uint256"
        }
      ],
      "stateMutability": "pure",
      "type": "function"
    },
    {
      "inputs": [],
      "name": "name",
      "outputs": [
        {
          "internalType": "string",
          "name": "",
          "type": "string"
        }
      ],
      "stateMutability": "view",
      "type": "function"
    },
    {
      "inputs": [
        {
          "internalType": "address",
          "name": "",
          "type": "address"
        },
        {
          "internalType": "address",
          "name": "",
          "type": "address"
        },
        {
          "internalType": "uint256[]",
          "name": "",
          "type": "uint256[]"
        },
        {
          "internalType": "uint256[]",
          "name": "",
          "type": "uint256[]"
        },
        {
          "internalType": "bytes",
          "name": "",
          "type": "bytes"
        }
      ],
      "name": "onERC1155BatchReceived",
      "outputs": [
        {
          "internalType": "bytes4",
          "name": "",
          "type": "bytes4"
        }
      ],
      "stateMutability": "nonpayable",
      "type": "function"
    },
    {
      "inputs": [
        {
          "internalType": "address",
          "name": "",
          "type": "address"
        },
        {
          "internalType": "address",
          "name": "",
          "type": "address"
        },
        {
          "internalType": "uint256",
          "name": "",
          "type": "uint256"
        },
        {
          "internalType": "uint256",
          "name": "",
          "type": "uint256"
        },
        {
          "internalType": "bytes",
          "name": "",
          "type": "bytes"
        }
      ],
      "name": "onERC1155Received",
      "outputs": [
        {
          "internalType": "bytes4",
          "name": "",
          "type": "bytes4"
        }
      ],
      "stateMutability": "nonpayable",
      "type": "function"
    },
    {
      "inputs": [
        {
          "internalType": "address",
          "name": "",
          "type": "address"
        },
        {
          "internalType": "address",
          "name": "",
          "type": "address"
        },
        {
          "internalType": "uint256",
          "name": "",
          "type": "uint256"
        },
        {
          "internalType": "bytes",
          "name": "",
          "type": "bytes"
        }
      ],
      "name": "onERC721Received",
      "outputs": [
        {
          "internalType": "bytes4",
          "name": "",
          "type": "bytes4"
        }
      ],
      "stateMutability": "nonpayable",
      "type": "function"
    },
    {
      "inputs": [
        {
          "internalType": "uint256",
          "name": "proposalId",
          "type": "uint256"
        }
      ],
      "name": "proposalDeadline",
      "outputs": [
        {
          "internalType": "uint256",
          "name": "",
          "type": "uint256"
        }
      ],
      "stateMutability": "view",
      "type": "function"
    },
    {
      "inputs": [
        {
          "internalType": "uint256",
          "name": "proposalId",
          "type": "uint256"
        }
      ],
      "name": "proposalEta",
      "outputs": [
        {
          "internalType": "uint256",
          "name": "",
          "type": "uint256"
        }
      ],
      "stateMutability": "view",
      "type": "function"
    },
    {
      "inputs": [
        {
          "internalType": "uint256",
          "name": "proposalId",
          "type": "uint256"
        }
      ],
      "name": "proposalProposer",
      "outputs": [
        {
          "internalType": "address",
          "name": "",
          "type": "address"
        }
      ],
      "stateMutability": "view",
      "type": "function"
    },
    {
      "inputs": [
        {
          "internalType": "uint256",
          "name": "proposalId",
          "type": "uint256"
        }
      ],
      "name": "proposalSnapshot",
      "outputs": [
        {
          "internalType": "uint256",
          "name": "",
          "type": "uint256"
        }
      ],
      "stateMutability": "view",
      "type": "function"
    },
    {
      "inputs": [],
      "name": "proposalThreshold",
      "outputs": [
        {
          "internalType": "uint256",
          "name": "",
          "type": "uint256"
        }
      ],
      "stateMutability": "pure",
      "type": "function"
    },
    {
      "inputs": [
        {
          "internalType": "uint256",
          "name": "proposalId",
          "type": "uint256"
        }
      ],
      "name": "proposalVotes",
      "outputs": [
        {
          "internalType": "uint256",
          "name": "againstVotes",
          "type": "uint256"
        },
        {
          "internalType": "uint256",
          "name": "forVotes",
          "type": "uint256"
        },
        {
          "internalType": "uint256",
          "name": "abstainVotes",
          "type": "uint256"
        }
      ],
      "stateMutability": "view",
      "type": "function"
    },
    {
      "inputs": [
        {
          "internalType": "address[]",
          "name": "targets",
          "type": "address[]"
        },
        {
          "internalType": "uint256[]",
          "name": "values",
          "type": "uint256[]"
        },
        {
          "internalType": "bytes[]",
          "name": "calldatas",
          "type": "bytes[]"
        },
        {
          "internalType": "string",
          "name": "description",
          "type": "string"
        }
      ],
      "name": "propose",
      "outputs": [
        {
          "internalType": "uint256",
          "name": "",
          "type": "uint256"
        }
      ],
      "stateMutability": "nonpayable",
      "type": "function"
    },
    {
      "inputs": [
        {
          "internalType": "address[]",
          "name": "targets",
          "type": "address[]"
        },
        {
          "internalType": "uint256[]",
          "name": "values",
          "type": "uint256[]"
        },
        {
          "internalType": "bytes[]",
          "name": "calldatas",
          "type": "bytes[]"
        },
        {
          "internalType": "bytes32",
          "name": "descriptionHash",
          "type": "bytes32"
        }
      ],
      "name": "queue",
      "outputs": [
        {
          "internalType": "uint256",
          "name": "",
          "type": "uint256"
        }
      ],
      "stateMutability": "nonpayable",
      "type": "function"
    },
    {
      "inputs": [
        {
          "internalType": "uint256",
          "name": "blockNumber",
          "type": "uint256"
        }
      ],
      "name": "quorum",
      "outputs": [
        {
          "internalType": "uint256",
          "name": "",
          "type": "uint256"
        }
      ],
      "stateMutability": "view",
      "type": "function"
    },
    {
      "inputs": [],
      "name": "quorumDenominator",
      "outputs": [
        {
          "internalType": "uint256",
          "name": "",
          "type": "uint256"
        }
      ],
      "stateMutability": "view",
      "type": "function"
    },
    {
      "inputs": [
        {
          "internalType": "uint256",
          "name": "timepoint",
          "type": "uint256"
        }
      ],
      "name": "quorumNumerator",
      "outputs": [
        {
          "internalType": "uint256",
          "name": "",
          "type": "uint256"
        }
      ],
      "stateMutability": "view",
      "type": "function"
    },
    {
      "inputs": [],
      "name": "quorumNumerator",
      "outputs": [
        {
          "internalType": "uint256",
          "name": "",
          "type": "uint256"
        }
      ],
      "stateMutability": "view",
      "type": "function"
    },
    {
      "inputs": [
        {
          "internalType": "address",
          "name": "target",
          "type": "address"
        },
        {
          "internalType": "uint256",
          "name": "value",
          "type": "uint256"
        },
        {
          "internalType": "bytes",
          "name": "data",
          "type": "bytes"
        }
      ],
      "name": "relay",
      "outputs": [],
      "stateMutability": "payable",
      "type": "function"
    },
    {
      "inputs": [
        {
          "internalType": "uint256",
          "name": "proposalId",
          "type": "uint256"
        }
      ],
      "name": "state",
      "outputs": [
        {
          "internalType": "enum IGovernor.ProposalState",
          "name": "",
          "type": "uint8"
        }
      ],
      "stateMutability": "view",
      "type": "function"
    },
    {
      "inputs": [
        {
          "internalType": "bytes4",
          "name": "interfaceId",
          "type": "bytes4"
        }
      ],
      "name": "supportsInterface",
      "outputs": [
        {
          "internalType": "bool",
          "name": "",
          "type": "bool"
        }
      ],
      "stateMutability": "view",
      "type": "function"
    },
    {
      "inputs": [],
      "name": "timelock",
      "outputs": [
        {
          "internalType": "address",
          "name": "",
          "type": "address"
        }
      ],
      "stateMutability": "view",
      "type": "function"
    },
    {
      "inputs": [],
      "name": "token",
      "outputs": [
        {
          "internalType": "contract IERC5805",
          "name": "",
          "type": "address"
        }
      ],
      "stateMutability": "view",
      "type": "function"
    },
    {
      "inputs": [
        {
          "internalType": "uint256",
          "name": "newQuorumNumerator",
          "type": "uint256"
        }
      ],
      "name": "updateQuorumNumerator",
      "outputs": [],
      "stateMutability": "nonpayable",
      "type": "function"
    },
    {
      "inputs": [
        {
          "internalType": "contract TimelockController",
          "name": "newTimelock",
          "type": "address"
        }
      ],
      "name": "updateTimelock",
      "outputs": [],
      "stateMutability": "nonpayable",
      "type": "function"
    },
    {
      "inputs": [],
      "name": "version",
      "outputs": [
        {
          "internalType": "string",
          "name": "",
          "type": "string"
        }
      ],
      "stateMutability": "view",
      "type": "function"
    },
    {
      "inputs": [],
      "name": "votingDelay",
      "outputs": [
        {
          "internalType": "uint256",
          "name": "",
          "type": "uint256"
        }
      ],
      "stateMutability": "pure",
      "type": "function"
    },
    {
      "inputs": [],
      "name": "votingPeriod",
      "outputs": [
        {
          "internalType": "uint256",
          "name": "",
          "type": "uint256"
        }
      ],
      "stateMutability": "pure",
      "type": "function"
    },
    {
      "stateMutability": "payable",
      "type": "receive"
    }
  ],
  "bytecode": "0x6101806040523480156200001257600080fd5b5060405162008cad38038062008cad833981810160405281019062000038919062000df0565b600482826040518060400160405280600a81526020017f4d79476f7665726e6f72000000000000000000000000000000000000000000008152508062000083620001b960201b60201c565b6200009e600083620001f660201b6200208f1790919060201c565b6101208181525050620000c1600182620001f660201b6200208f1790919060201c565b6101408181525050818051906020012060e08181525050808051906020012061010081815250504660a08181525050620001006200025a60201b60201c565b608081815250503073ffffffffffffffffffffffffffffffffffffffff1660c08173ffffffffffffffffffffffffffffffffffffffff1681525050505080600290805190602001906200015592919062000c69565b50506200016881620002b760201b60201c565b508073ffffffffffffffffffffffffffffffffffffffff166101608173ffffffffffffffffffffffffffffffffffffffff168152505050620001b0816200035860201b60201c565b505050620014e8565b60606040518060400160405280600181526020017f3100000000000000000000000000000000000000000000000000000000000000815250905090565b60006020835110156200021c5762000214836200057a60201b60201c565b905062000254565b826200023383620005e760201b620020da1760201c565b60000190805190602001906200024b92919062000c69565b5060ff60001b90505b92915050565b60007f8b73c3c69bb8fe3d512ecc4cf759cc79239f7b179b0ffacaa9a75d522b39400f60e0516101005146306040516020016200029c95949392919062000e7e565b60405160208183030381529060405280519060200120905090565b7f08f74ea46ef7894f65eabfb5e6e695de773a000b47c529ab559178069b226401600660009054906101000a900473ffffffffffffffffffffffffffffffffffffffff16826040516200030c92919062000edb565b60405180910390a180600660006101000a81548173ffffffffffffffffffffffffffffffffffffffff021916908373ffffffffffffffffffffffffffffffffffffffff16021790555050565b62000368620005f160201b60201c565b811115620003ad576040517f08c379a0000000000000000000000000000000000000000000000000000000008152600401620003a49062000fb5565b60405180910390fd5b6000620003bf620005fa60201b60201c565b905060008114158015620003db57506000600960000180549050145b15620004db5760096000016040518060400160405280600063ffffffff16815260200162000414846200065060201b620020e41760201c565b7bffffffffffffffffffffffffffffffffffffffffffffffffffffffff168152509080600181540180825580915050600190039060005260206000200160009091909190915060008201518160000160006101000a81548163ffffffff021916908363ffffffff16021790555060208201518160000160046101000a8154817bffffffffffffffffffffffffffffffffffffffffffffffffffffffff02191690837bffffffffffffffffffffffffffffffffffffffffffffffffffffffff16021790555050505b620005396200050c620004f3620006be60201b60201c565b65ffffffffffff166200076960201b6200214f1760201c565b62000522846200065060201b620020e41760201c565b6009620007bf60201b620021a2179092919060201c565b50507f0553476bf02ef2726e8ce5ced78d63e26e602e4a2257b1f559418e24b463399781836040516200056e92919062000fd7565b60405180910390a15050565b600080829050601f81511115620005ca57826040517f305a27a9000000000000000000000000000000000000000000000000000000008152600401620005c1919062001097565b60405180910390fd5b805181620005d890620010fa565b60001c1760001b915050919050565b6000819050919050565b60006064905090565b600080600960000180549050146200064757620006236009620007e460201b620021bf1760201c565b7bffffffffffffffffffffffffffffffffffffffffffffffffffffffff166200064b565b6008545b905090565b60007bffffffffffffffffffffffffffffffffffffffffffffffffffffffff8016821115620006b6576040517f08c379a0000000000000000000000000000000000000000000000000000000008152600401620006ad90620011e0565b60405180910390fd5b819050919050565b60006101605173ffffffffffffffffffffffffffffffffffffffff166391ddadf46040518163ffffffff1660e01b815260040160206040518083038186803b1580156200070a57600080fd5b505afa9250505080156200073e57506040513d601f19601f820116820180604052508101906200073b919062001245565b60015b620007615762000759436200085a60201b620022291760201c565b905062000766565b809150505b90565b600063ffffffff8016821115620007b7576040517f08c379a0000000000000000000000000000000000000000000000000000000008152600401620007ae90620012ed565b60405180910390fd5b819050919050565b600080620007d8856000018585620008b260201b60201c565b91509150935093915050565b60008082600001805490509050600081146200084f576200081d836000016001836200081191906200133e565b62000c5460201b60201c565b60000160049054906101000a90047bffffffffffffffffffffffffffffffffffffffffffffffffffffffff1662000852565b60005b915050919050565b600065ffffffffffff8016821115620008aa576040517f08c379a0000000000000000000000000000000000000000000000000000000008152600401620008a190620013ef565b60405180910390fd5b819050919050565b600080600085805490509050600081111562000b64576000620008ea87600184620008de91906200133e565b62000c5460201b60201c565b6040518060400160405290816000820160009054906101000a900463ffffffff1663ffffffff1663ffffffff1681526020016000820160049054906101000a90047bffffffffffffffffffffffffffffffffffffffffffffffffffffffff167bffffffffffffffffffffffffffffffffffffffffffffffffffffffff167bffffffffffffffffffffffffffffffffffffffffffffffffffffffff168152505090508563ffffffff16816000015163ffffffff161115620009e1576040517f08c379a0000000000000000000000000000000000000000000000000000000008152600401620009d89062001461565b60405180910390fd5b8563ffffffff16816000015163ffffffff16141562000a72578462000a1b8860018562000a0f91906200133e565b62000c5460201b60201c565b60000160046101000a8154817bffffffffffffffffffffffffffffffffffffffffffffffffffffffff02191690837bffffffffffffffffffffffffffffffffffffffffffffffffffffffff16021790555062000b52565b8660405180604001604052808863ffffffff168152602001877bffffffffffffffffffffffffffffffffffffffffffffffffffffffff168152509080600181540180825580915050600190039060005260206000200160009091909190915060008201518160000160006101000a81548163ffffffff021916908363ffffffff16021790555060208201518160000160046101000a8154817bffffffffffffffffffffffffffffffffffffffffffffffffffffffff02191690837bffffffffffffffffffffffffffffffffffffffffffffffffffffffff16021790555050505b80602001518593509350505062000c4c565b8560405180604001604052808763ffffffff168152602001867bffffffffffffffffffffffffffffffffffffffffffffffffffffffff168152509080600181540180825580915050600190039060005260206000200160009091909190915060008201518160000160006101000a81548163ffffffff021916908363ffffffff16021790555060208201518160000160046101000a8154817bffffffffffffffffffffffffffffffffffffffffffffffffffffffff02191690837bffffffffffffffffffffffffffffffffffffffffffffffffffffffff160217905550505060008492509250505b935093915050565b60008260005281602060002001905092915050565b82805462000c7790620014b2565b90600052602060002090601f01602090048101928262000c9b576000855562000ce7565b82601f1062000cb657805160ff191683800117855562000ce7565b8280016001018555821562000ce7579182015b8281111562000ce657825182559160200191906001019062000cc9565b5b50905062000cf6919062000cfa565b5090565b5b8082111562000d1557600081600090555060010162000cfb565b5090565b600080fd5b600073ffffffffffffffffffffffffffffffffffffffff82169050919050565b600062000d4b8262000d1e565b9050919050565b600062000d5f8262000d3e565b9050919050565b62000d718162000d52565b811462000d7d57600080fd5b50565b60008151905062000d918162000d66565b92915050565b600062000da48262000d1e565b9050919050565b600062000db88262000d97565b9050919050565b62000dca8162000dab565b811462000dd657600080fd5b50565b60008151905062000dea8162000dbf565b92915050565b6000806040838503121562000e0a5762000e0962000d19565b5b600062000e1a8582860162000d80565b925050602062000e2d8582860162000dd9565b9150509250929050565b6000819050919050565b62000e4c8162000e37565b82525050565b6000819050919050565b62000e678162000e52565b82525050565b62000e788162000d3e565b82525050565b600060a08201905062000e95600083018862000e41565b62000ea4602083018762000e41565b62000eb3604083018662000e41565b62000ec2606083018562000e5c565b62000ed1608083018462000e6d565b9695505050505050565b600060408201905062000ef2600083018562000e6d565b62000f01602083018462000e6d565b9392505050565b600082825260208201905092915050565b7f476f7665726e6f72566f74657351756f72756d4672616374696f6e3a2071756f60008201527f72756d4e756d657261746f72206f7665722071756f72756d44656e6f6d696e6160208201527f746f720000000000000000000000000000000000000000000000000000000000604082015250565b600062000f9d60438362000f08565b915062000faa8262000f19565b606082019050919050565b6000602082019050818103600083015262000fd08162000f8e565b9050919050565b600060408201905062000fee600083018562000e5c565b62000ffd602083018462000e5c565b9392505050565b600081519050919050565b60005b838110156200102f57808201518184015260208101905062001012565b838111156200103f576000848401525b50505050565b6000601f19601f8301169050919050565b6000620010638262001004565b6200106f818562000f08565b9350620010818185602086016200100f565b6200108c8162001045565b840191505092915050565b60006020820190508181036000830152620010b3818462001056565b905092915050565b600081519050919050565b6000819050602082019050919050565b6000620010e4825162000e37565b80915050919050565b600082821b905092915050565b60006200110782620010bb565b826200111384620010c6565b90506200112081620010d6565b9250602082101562001163576200115e7fffffffffffffffffffffffffffffffffffffffffffffffffffffffffffffffff83602003600802620010ed565b831692505b5050919050565b7f53616665436173743a2076616c756520646f65736e27742066697420696e203260008201527f3234206269747300000000000000000000000000000000000000000000000000602082015250565b6000620011c860278362000f08565b9150620011d5826200116a565b604082019050919050565b60006020820190508181036000830152620011fb81620011b9565b9050919050565b600065ffffffffffff82169050919050565b6200121f8162001202565b81146200122b57600080fd5b50565b6000815190506200123f8162001214565b92915050565b6000602082840312156200125e576200125d62000d19565b5b60006200126e848285016200122e565b91505092915050565b7f53616665436173743a2076616c756520646f65736e27742066697420696e203360008201527f3220626974730000000000000000000000000000000000000000000000000000602082015250565b6000620012d560268362000f08565b9150620012e28262001277565b604082019050919050565b600060208201905081810360008301526200130881620012c6565b9050919050565b7f4e487b7100000000000000000000000000000000000000000000000000000000600052601160045260246000fd5b60006200134b8262000e52565b9150620013588362000e52565b9250828210156200136e576200136d6200130f565b5b828203905092915050565b7f53616665436173743a2076616c756520646f65736e27742066697420696e203460008201527f3820626974730000000000000000000000000000000000000000000000000000602082015250565b6000620013d760268362000f08565b9150620013e48262001379565b604082019050919050565b600060208201905081810360008301526200140a81620013c8565b9050919050565b7f436865636b706f696e743a2064656372656173696e67206b6579730000000000600082015250565b600062001449601b8362000f08565b9150620014568262001411565b602082019050919050565b600060208201905081810360008301526200147c816200143a565b9050919050565b7f4e487b7100000000000000000000000000000000000000000000000000000000600052602260045260246000fd5b60006002820490506001821680620014cb57607f821691505b60208210811415620014e257620014e162001483565b5b50919050565b60805160a05160c05160e051610100516101205161014051610160516177436200156a6000396000818161159401528181611a800152818161206d01528181612cf90152612e98015260006119c10152600061198d01526000614643015260006146220152600061357e015260006135d4015260006135fd01526177436000f3fe6080604052600436106102605760003560e01c806360c4247f11610144578063bc197c81116100b6578063dd4e2ba51161007a578063dd4e2ba514610a8c578063deaaa7cc14610ab7578063eb9019d414610ae2578063f23a6e6114610b1f578063f8ce560a14610b5c578063fc0c546a14610b99576102dc565b8063bc197c811461098e578063c01f9e37146109cb578063c28bc2fa14610a08578063c59057e414610a24578063d33219b414610a61576102dc565b806397c3d3341161010857806397c3d3341461086a5780639a802a6d14610895578063a7713a70146108d2578063a890c910146108fd578063ab58fb8e14610926578063b58131b014610963576102dc565b806360c4247f146107575780637b3c71d3146107945780637d5e81e2146107d157806384b0196e1461080e57806391ddadf41461083f576102dc565b80632fe3e261116101dd578063452115d6116101a1578063452115d61461060b5780634bf5d7e914610648578063544ffc9c1461067357806354fd4d50146106b257806356781388146106dd5780635f398a141461071a576102dc565b80632fe3e261146104fe5780633932abb1146105295780633bccf4fd146105545780633e4f49e61461059157806343859632146105ce576102dc565b8063143489d011610224578063143489d0146103da578063150b7a0214610417578063160cbed7146104545780632656227d146104915780632d63f693146104c1576102dc565b806301ffc9a7146102e157806302a251a31461031e578063034201811461034957806306f3f9e61461038657806306fdde03146103af576102dc565b366102dc573073ffffffffffffffffffffffffffffffffffffffff16610284610bc4565b73ffffffffffffffffffffffffffffffffffffffff16146102da576040517f08c379a00000000000000000000000000000000000000000000000000000000081526004016102d190614b26565b60405180910390fd5b005b600080fd5b3480156102ed57600080fd5b5061030860048036038101906103039190614bb2565b610bd3565b6040516103159190614bfa565b60405180910390f35b34801561032a57600080fd5b50610333610be5565b6040516103409190614c2e565b60405180910390f35b34801561035557600080fd5b50610370600480360381019061036b9190614e8a565b610bef565b60405161037d9190614c2e565b60405180910390f35b34801561039257600080fd5b506103ad60048036038101906103a89190614f68565b610cd4565b005b3480156103bb57600080fd5b506103c4610dd0565b6040516103d1919061500c565b60405180910390f35b3480156103e657600080fd5b5061040160048036038101906103fc9190614f68565b610e62565b60405161040e919061506f565b60405180910390f35b34801561042357600080fd5b5061043e600480360381019061043991906150b6565b610ea2565b60405161044b9190615148565b60405180910390f35b34801561046057600080fd5b5061047b600480360381019061047691906153ca565b610eb6565b6040516104889190614c2e565b60405180910390f35b6104ab60048036038101906104a691906153ca565b61118e565b6040516104b89190614c2e565b60405180910390f35b3480156104cd57600080fd5b506104e860048036038101906104e39190614f68565b6112dc565b6040516104f59190614c2e565b60405180910390f35b34801561050a57600080fd5b5061051361131a565b6040516105209190615494565b60405180910390f35b34801561053557600080fd5b5061053e61133e565b60405161054b9190614c2e565b60405180910390f35b34801561056057600080fd5b5061057b600480360381019061057691906154af565b611347565b6040516105889190614c2e565b60405180910390f35b34801561059d57600080fd5b506105b860048036038101906105b39190614f68565b6113d1565b6040516105c591906155a1565b60405180910390f35b3480156105da57600080fd5b506105f560048036038101906105f091906155bc565b6113e3565b6040516106029190614bfa565b60405180910390f35b34801561061757600080fd5b50610632600480360381019061062d91906153ca565b61144e565b60405161063f9190614c2e565b60405180910390f35b34801561065457600080fd5b5061065d611590565b60405161066a919061500c565b60405180910390f35b34801561067f57600080fd5b5061069a60048036038101906106959190614f68565b611677565b6040516106a9939291906155fc565b60405180910390f35b3480156106be57600080fd5b506106c76116af565b6040516106d4919061500c565b60405180910390f35b3480156106e957600080fd5b5061070460048036038101906106ff9190615633565b6116ec565b6040516107119190614c2e565b60405180910390f35b34801561072657600080fd5b50610741600480360381019061073c9190615673565b61171d565b60405161074e9190614c2e565b60405180910390f35b34801561076357600080fd5b5061077e60048036038101906107799190614f68565b611787565b60405161078b9190614c2e565b60405180910390f35b3480156107a057600080fd5b506107bb60048036038101906107b69190615717565b6118fa565b6040516107c89190614c2e565b60405180910390f35b3480156107dd57600080fd5b506107f860048036038101906107f3919061582c565b611962565b6040516108059190614c2e565b60405180910390f35b34801561081a57600080fd5b5061082361197a565b60405161083697969594939291906159fc565b60405180910390f35b34801561084b57600080fd5b50610854611a7c565b6040516108619190615aa1565b60405180910390f35b34801561087657600080fd5b5061087f611b31565b60405161088c9190614c2e565b60405180910390f35b3480156108a157600080fd5b506108bc60048036038101906108b79190615abc565b611b3a565b6040516108c99190614c2e565b60405180910390f35b3480156108de57600080fd5b506108e7611b50565b6040516108f49190614c2e565b60405180910390f35b34801561090957600080fd5b50610924600480360381019061091f9190615b7b565b611b97565b005b34801561093257600080fd5b5061094d60048036038101906109489190614f68565b611c93565b60405161095a9190614c2e565b60405180910390f35b34801561096f57600080fd5b50610978611d6f565b6040516109859190614c2e565b60405180910390f35b34801561099a57600080fd5b506109b560048036038101906109b09190615ba8565b611d80565b6040516109c29190615148565b60405180910390f35b3480156109d757600080fd5b506109f260048036038101906109ed9190614f68565b611d95565b6040516109ff9190614c2e565b60405180910390f35b610a226004803603810190610a1d9190615ccd565b611dd3565b005b348015610a3057600080fd5b50610a4b6004803603810190610a4691906153ca565b611f61565b604051610a589190614c2e565b60405180910390f35b348015610a6d57600080fd5b50610a76611f9d565b604051610a83919061506f565b60405180910390f35b348015610a9857600080fd5b50610aa1611fc7565b604051610aae919061500c565b60405180910390f35b348015610ac357600080fd5b50610acc612004565b604051610ad99190615494565b60405180910390f35b348015610aee57600080fd5b50610b096004803603810190610b049190615d41565b612028565b604051610b169190614c2e565b60405180910390f35b348015610b2b57600080fd5b50610b466004803603810190610b419190615d81565b612044565b604051610b539190615148565b60405180910390f35b348015610b6857600080fd5b50610b836004803603810190610b7e9190614f68565b612059565b604051610b909190614c2e565b60405180910390f35b348015610ba557600080fd5b50610bae61206b565b604051610bbb9190615e77565b60405180910390f35b6000610bce61227e565b905090565b6000610bde826122a8565b9050919050565b600061b2fa905090565b600080610c72610c6a7fb3b3f3b703cd84ce352197dcff232b1b5d3cfb2025ce47cf04742d0651f1af888c8c8c8c604051610c2b929190615ec2565b60405180910390208b80519060200120604051602001610c4f959493929190615eea565b60405160208183030381529060405280519060200120612322565b86868661233c565b9050610cc58a828b8b8b8080601f016020809104026020016040519081016040528093929190818152602001838380828437600081840152601f19601f820116905080830192505050505050508a612367565b91505098975050505050505050565b610cdc610bc4565b73ffffffffffffffffffffffffffffffffffffffff16610cfa6124f4565b73ffffffffffffffffffffffffffffffffffffffff1614610d50576040517f08c379a0000000000000000000000000000000000000000000000000000000008152600401610d4790615f89565b60405180910390fd5b3073ffffffffffffffffffffffffffffffffffffffff16610d6f610bc4565b73ffffffffffffffffffffffffffffffffffffffff1614610dc4576000610d946124fc565b604051610da2929190615ec2565b604051809103902090505b80610db86004612509565b14610dc257610dad565b505b610dcd816125e5565b50565b606060028054610ddf90615fd8565b80601f0160208091040260200160405190810160405280929190818152602001828054610e0b90615fd8565b8015610e585780601f10610e2d57610100808354040283529160200191610e58565b820191906000526020600020905b815481529060010190602001808311610e3b57829003601f168201915b5050505050905090565b60006003600083815260200190815260200160002060000160089054906101000a900473ffffffffffffffffffffffffffffffffffffffff169050919050565b600063150b7a0260e01b9050949350505050565b600080610ec586868686611f61565b905060046007811115610edb57610eda61552a565b5b610ee4826113d1565b6007811115610ef657610ef561552a565b5b14610f36576040517f08c379a0000000000000000000000000000000000000000000000000000000008152600401610f2d9061607c565b60405180910390fd5b6000600660009054906101000a900473ffffffffffffffffffffffffffffffffffffffff1673ffffffffffffffffffffffffffffffffffffffff1663f27a0c926040518163ffffffff1660e01b815260040160206040518083038186803b158015610fa057600080fd5b505afa158015610fb4573d6000803e3d6000fd5b505050506040513d601f19601f82011682018060405250810190610fd891906160b1565b9050600660009054906101000a900473ffffffffffffffffffffffffffffffffffffffff1673ffffffffffffffffffffffffffffffffffffffff1663b1c5f4278888886000896040518663ffffffff1660e01b815260040161103e9594939291906162fb565b60206040518083038186803b15801561105657600080fd5b505afa15801561106a573d6000803e3d6000fd5b505050506040513d601f19601f8201168201806040525081019061108e9190616378565b6007600084815260200190815260200160002081905550600660009054906101000a900473ffffffffffffffffffffffffffffffffffffffff1673ffffffffffffffffffffffffffffffffffffffff16638f2a0bb0888888600089876040518763ffffffff1660e01b815260040161110b969594939291906163a5565b600060405180830381600087803b15801561112557600080fd5b505af1158015611139573d6000803e3d6000fd5b505050507f9a2e42fd6722813d69113e7d0079d3d940171428df7373df9c7f7617cfda289282824261116b919061644a565b6040516111799291906164a0565b60405180910390a18192505050949350505050565b60008061119d86868686611f61565b905060006111aa826113d1565b9050600460078111156111c0576111bf61552a565b5b8160078111156111d3576111d261552a565b5b14806112035750600560078111156111ee576111ed61552a565b5b8160078111156112015761120061552a565b5b145b611242576040517f08c379a00000000000000000000000000000000000000000000000000000000081526004016112399061607c565b60405180910390fd5b60016003600084815260200190815260200160002060020160006101000a81548160ff0219169083151502179055507f712ae1383f79ac853f8d882153778e0260ef8f03b504e2866e0593e04d2b291f826040516112a09190614c2e565b60405180910390a16112b582888888886127ba565b6112c2828888888861289e565b6112cf82888888886128b2565b8192505050949350505050565b60006003600083815260200190815260200160002060000160009054906101000a900467ffffffffffffffff1667ffffffffffffffff169050919050565b7fb3b3f3b703cd84ce352197dcff232b1b5d3cfb2025ce47cf04742d0651f1af8881565b60006001905090565b6000806113a86113a07f150214d74d59b7d1e90c73fc22ef3d991dd0a76b046543d4d80ab92d2a50328f8989604051602001611385939291906164c9565b60405160208183030381529060405280519060200120612322565b86868661233c565b90506113c58782886040518060200160405280600081525061290d565b91505095945050505050565b60006113dc8261292d565b9050919050565b6000600a600084815260200190815260200160002060030160008373ffffffffffffffffffffffffffffffffffffffff1673ffffffffffffffffffffffffffffffffffffffff16815260200190815260200160002060009054906101000a900460ff16905092915050565b60008061145d86868686611f61565b9050600060078111156114735761147261552a565b5b61147c826113d1565b600781111561148e5761148d61552a565b5b146114ce576040517f08c379a00000000000000000000000000000000000000000000000000000000081526004016114c59061654c565b60405180910390fd5b6003600082815260200190815260200160002060000160089054906101000a900473ffffffffffffffffffffffffffffffffffffffff1673ffffffffffffffffffffffffffffffffffffffff166115236124f4565b73ffffffffffffffffffffffffffffffffffffffff1614611579576040517f08c379a0000000000000000000000000000000000000000000000000000000008152600401611570906165de565b60405180910390fd5b61158586868686612b1f565b915050949350505050565b60607f000000000000000000000000000000000000000000000000000000000000000073ffffffffffffffffffffffffffffffffffffffff16634bf5d7e96040518163ffffffff1660e01b815260040160006040518083038186803b1580156115f857600080fd5b505afa92505050801561162e57506040513d6000823e3d601f19601f8201168201806040525081019061162b919061666e565b60015b61166f576040518060400160405280601d81526020017f6d6f64653d626c6f636b6e756d6265722666726f6d3d64656661756c740000008152509050611674565b809150505b90565b600080600080600a60008681526020019081526020016000209050806000015481600101548260020154935093509350509193909250565b60606040518060400160405280600181526020017f3100000000000000000000000000000000000000000000000000000000000000815250905090565b6000806116f76124f4565b90506117148482856040518060200160405280600081525061290d565b91505092915050565b6000806117286124f4565b905061177b87828888888080601f016020809104026020016040519081016040528093929190818152602001838380828437600081840152601f19601f8201169050808301925050505050505087612367565b91505095945050505050565b600080600960000180549050905060008114156117a9576008549150506118f5565b600060096000016001836117bd91906166b7565b815481106117ce576117cd6166eb565b5b906000526020600020016040518060400160405290816000820160009054906101000a900463ffffffff1663ffffffff1663ffffffff1681526020016000820160049054906101000a90047bffffffffffffffffffffffffffffffffffffffffffffffffffffffff167bffffffffffffffffffffffffffffffffffffffffffffffffffffffff167bffffffffffffffffffffffffffffffffffffffffffffffffffffffff1681525050905083816000015163ffffffff16116118b65780602001517bffffffffffffffffffffffffffffffffffffffffffffffffffffffff16925050506118f5565b6118d26118c28561214f565b6009612b3790919063ffffffff16565b7bffffffffffffffffffffffffffffffffffffffffffffffffffffffff16925050505b919050565b6000806119056124f4565b905061195786828787878080601f016020809104026020016040519081016040528093929190818152602001838380828437600081840152601f19601f8201169050808301925050505050505061290d565b915050949350505050565b600061197085858585612c2d565b9050949350505050565b6000606080600080600060606119ba60007f0000000000000000000000000000000000000000000000000000000000000000612c4590919063ffffffff16565b6119ee60017f0000000000000000000000000000000000000000000000000000000000000000612c4590919063ffffffff16565b46306000801b600067ffffffffffffffff811115611a0f57611a0e614d29565b5b604051908082528060200260200182016040528015611a3d5781602001602082028036833780820191505090505b507f0f00000000000000000000000000000000000000000000000000000000000000959493929190965096509650965096509650965090919293949596565b60007f000000000000000000000000000000000000000000000000000000000000000073ffffffffffffffffffffffffffffffffffffffff166391ddadf46040518163ffffffff1660e01b815260040160206040518083038186803b158015611ae457600080fd5b505afa925050508015611b1557506040513d601f19601f82011682018060405250810190611b129190616746565b60015b611b2957611b2243612229565b9050611b2e565b809150505b90565b60006064905090565b6000611b47848484612cf5565b90509392505050565b60008060096000018054905014611b8e57611b6b60096121bf565b7bffffffffffffffffffffffffffffffffffffffffffffffffffffffff16611b92565b6008545b905090565b611b9f610bc4565b73ffffffffffffffffffffffffffffffffffffffff16611bbd6124f4565b73ffffffffffffffffffffffffffffffffffffffff1614611c13576040517f08c379a0000000000000000000000000000000000000000000000000000000008152600401611c0a90615f89565b60405180910390fd5b3073ffffffffffffffffffffffffffffffffffffffff16611c32610bc4565b73ffffffffffffffffffffffffffffffffffffffff1614611c87576000611c576124fc565b604051611c65929190615ec2565b604051809103902090505b80611c7b6004612509565b14611c8557611c70565b505b611c9081612dab565b50565b600080600660009054906101000a900473ffffffffffffffffffffffffffffffffffffffff1673ffffffffffffffffffffffffffffffffffffffff1663d45c443560076000868152602001908152602001600020546040518263ffffffff1660e01b8152600401611d049190615494565b60206040518083038186803b158015611d1c57600080fd5b505afa158015611d30573d6000803e3d6000fd5b505050506040513d601f19601f82011682018060405250810190611d5491906160b1565b905060018114611d645780611d67565b60005b915050919050565b6000683635c9adc5dea00000905090565b600063bc197c8160e01b905095945050505050565b60006003600083815260200190815260200160002060010160009054906101000a900467ffffffffffffffff1667ffffffffffffffff169050919050565b611ddb610bc4565b73ffffffffffffffffffffffffffffffffffffffff16611df96124f4565b73ffffffffffffffffffffffffffffffffffffffff1614611e4f576040517f08c379a0000000000000000000000000000000000000000000000000000000008152600401611e4690615f89565b60405180910390fd5b3073ffffffffffffffffffffffffffffffffffffffff16611e6e610bc4565b73ffffffffffffffffffffffffffffffffffffffff1614611ec3576000611e936124fc565b604051611ea1929190615ec2565b604051809103902090505b80611eb76004612509565b14611ec157611eac565b505b6000808573ffffffffffffffffffffffffffffffffffffffff16858585604051611eee929190615ec2565b60006040518083038185875af1925050503d8060008114611f2b576040519150601f19603f3d011682016040523d82523d6000602084013e611f30565b606091505b5091509150611f5882826040518060600160405280602881526020016176e660289139612e4a565b50505050505050565b600084848484604051602001611f7a9493929190616773565b6040516020818303038152906040528051906020012060001c9050949350505050565b6000600660009054906101000a900473ffffffffffffffffffffffffffffffffffffffff16905090565b60606040518060400160405280602081526020017f737570706f72743d627261766f2671756f72756d3d666f722c6162737461696e815250905090565b7f150214d74d59b7d1e90c73fc22ef3d991dd0a76b046543d4d80ab92d2a50328f81565b600061203c8383612037612e6c565b612cf5565b905092915050565b600063f23a6e6160e01b905095945050505050565b600061206482612e83565b9050919050565b7f000000000000000000000000000000000000000000000000000000000000000081565b60006020835110156120ab576120a483612f5a565b90506120d4565b826120b5836120da565b60000190805190602001906120cb929190614a26565b5060ff60001b90505b92915050565b6000819050919050565b60007bffffffffffffffffffffffffffffffffffffffffffffffffffffffff8016821115612147576040517f08c379a000000000000000000000000000000000000000000000000000000000815260040161213e9061683f565b60405180910390fd5b819050919050565b600063ffffffff801682111561219a576040517f08c379a0000000000000000000000000000000000000000000000000000000008152600401612191906168d1565b60405180910390fd5b819050919050565b6000806121b3856000018585612fc2565b91509150935093915050565b600080826000018054905090506000811461221e576121ed836000016001836121e891906166b7565b613349565b60000160049054906101000a90047bffffffffffffffffffffffffffffffffffffffffffffffffffffffff16612221565b60005b915050919050565b600065ffffffffffff8016821115612276576040517f08c379a000000000000000000000000000000000000000000000000000000000815260040161226d90616963565b60405180910390fd5b819050919050565b6000600660009054906101000a900473ffffffffffffffffffffffffffffffffffffffff16905090565b60007f6e665ced000000000000000000000000000000000000000000000000000000007bffffffffffffffffffffffffffffffffffffffffffffffffffffffff1916827bffffffffffffffffffffffffffffffffffffffffffffffffffffffff1916148061231b575061231a8261335e565b5b9050919050565b600061233561232f61357a565b83613631565b9050919050565b600080600061234d87878787613672565b9150915061235a81613755565b8192505050949350505050565b600080600360008881526020019081526020016000209050600160078111156123935761239261552a565b5b61239c886113d1565b60078111156123ae576123ad61552a565b5b146123ee576040517f08c379a00000000000000000000000000000000000000000000000000000000081526004016123e5906169f5565b60405180910390fd5b600061241d878360000160009054906101000a900467ffffffffffffffff1667ffffffffffffffff1686612cf5565b905061242c88888884886138c3565b60008451141561248f578673ffffffffffffffffffffffffffffffffffffffff167fb8e138887d0aa13bab447e82de9d5c1777041ecd21ca36ba824ff1e6c07ddda4898884896040516124829493929190616a15565b60405180910390a26124e6565b8673ffffffffffffffffffffffffffffffffffffffff167fe2babfbac5889a709b63bb7f598b324e08bc5a4fb9ec647fb3cbc9ec07eb871289888489896040516124dd959493929190616aab565b60405180910390a25b809250505095945050505050565b600033905090565b3660008036915091509091565b600061251482613aca565b1561254b576040517f3db2a12a00000000000000000000000000000000000000000000000000000000815260040160405180910390fd5b60008260000160009054906101000a9004600f0b905082600101600082600f0b600f0b815260200190815260200160002054915082600101600082600f0b600f0b815260200190815260200160002060009055600181018360000160006101000a8154816fffffffffffffffffffffffffffffffff0219169083600f0b6fffffffffffffffffffffffffffffffff16021790555050919050565b6125ed611b31565b81111561262f576040517f08c379a000000000000000000000000000000000000000000000000000000000815260040161262690616ba4565b60405180910390fd5b6000612639611b50565b90506000811415801561265457506000600960000180549050145b156127465760096000016040518060400160405280600063ffffffff16815260200161267f846120e4565b7bffffffffffffffffffffffffffffffffffffffffffffffffffffffff168152509080600181540180825580915050600190039060005260206000200160009091909190915060008201518160000160006101000a81548163ffffffff021916908363ffffffff16021790555060208201518160000160046101000a8154817bffffffffffffffffffffffffffffffffffffffffffffffffffffffff02191690837bffffffffffffffffffffffffffffffffffffffffffffffffffffffff16021790555050505b61277b612761612754611a7c565b65ffffffffffff1661214f565b61276a846120e4565b60096121a29092919063ffffffff16565b50507f0553476bf02ef2726e8ce5ced78d63e26e602e4a2257b1f559418e24b463399781836040516127ae9291906164a0565b60405180910390a15050565b3073ffffffffffffffffffffffffffffffffffffffff166127d9610bc4565b73ffffffffffffffffffffffffffffffffffffffff16146128975760005b8451811015612895573073ffffffffffffffffffffffffffffffffffffffff1685828151811061282a576128296166eb565b5b602002602001015173ffffffffffffffffffffffffffffffffffffffff16141561288457612883838281518110612864576128636166eb565b5b6020026020010151805190602001206004613aff90919063ffffffff16565b5b8061288e90616bc4565b90506127f7565b505b5050505050565b6128ab8585858585613b7b565b5050505050565b3073ffffffffffffffffffffffffffffffffffffffff166128d1610bc4565b73ffffffffffffffffffffffffffffffffffffffff1614612906576128f66004613aca565b612905576129046004613c19565b5b5b5050505050565b60006129238585858561291e612e6c565b612367565b9050949350505050565b60008061293983613c9a565b90506004600781111561294f5761294e61552a565b5b8160078111156129625761296161552a565b5b146129705780915050612b1a565b6000600760008581526020019081526020016000205490506000801b81141561299d578192505050612b1a565b600660009054906101000a900473ffffffffffffffffffffffffffffffffffffffff1673ffffffffffffffffffffffffffffffffffffffff16632ab0f529826040518263ffffffff1660e01b81526004016129f89190615494565b60206040518083038186803b158015612a1057600080fd5b505afa158015612a24573d6000803e3d6000fd5b505050506040513d601f19601f82011682018060405250810190612a489190616c39565b15612a5857600792505050612b1a565b600660009054906101000a900473ffffffffffffffffffffffffffffffffffffffff1673ffffffffffffffffffffffffffffffffffffffff1663584b153e826040518263ffffffff1660e01b8152600401612ab39190615494565b60206040518083038186803b158015612acb57600080fd5b505afa158015612adf573d6000803e3d6000fd5b505050506040513d601f19601f82011682018060405250810190612b039190616c39565b15612b1357600592505050612b1a565b6002925050505b919050565b6000612b2d85858585613dc7565b9050949350505050565b600080836000018054905090506000808290506005831115612bb9576000612b5e84613eb9565b84612b6991906166b7565b9050612b788760000182613349565b60000160009054906101000a900463ffffffff1663ffffffff168663ffffffff161015612ba757809150612bb7565b600181612bb4919061644a565b92505b505b6000612bca87600001878585613fb3565b905060008114612c1e57612bed87600001600183612be891906166b7565b613349565b60000160049054906101000a90047bffffffffffffffffffffffffffffffffffffffffffffffffffffffff16612c21565b60005b94505050505092915050565b6000612c3b85858585614026565b9050949350505050565b606060ff60001b8314612c6257612c5b836144cf565b9050612cef565b818054612c6e90615fd8565b80601f0160208091040260200160405190810160405280929190818152602001828054612c9a90615fd8565b8015612ce75780601f10612cbc57610100808354040283529160200191612ce7565b820191906000526020600020905b815481529060010190602001808311612cca57829003601f168201915b505050505090505b92915050565b60007f000000000000000000000000000000000000000000000000000000000000000073ffffffffffffffffffffffffffffffffffffffff16633a46b1a885856040518363ffffffff1660e01b8152600401612d52929190616c66565b60206040518083038186803b158015612d6a57600080fd5b505afa158015612d7e573d6000803e3d6000fd5b505050506040513d601f19601f82011682018060405250810190612da291906160b1565b90509392505050565b7f08f74ea46ef7894f65eabfb5e6e695de773a000b47c529ab559178069b226401600660009054906101000a900473ffffffffffffffffffffffffffffffffffffffff1682604051612dfe929190616c8f565b60405180910390a180600660006101000a81548173ffffffffffffffffffffffffffffffffffffffff021916908373ffffffffffffffffffffffffffffffffffffffff16021790555050565b60608315612e5a57829050612e65565b612e648383614543565b5b9392505050565b606060405180602001604052806000815250905090565b6000612e8d611b31565b612e9683611787565b7f000000000000000000000000000000000000000000000000000000000000000073ffffffffffffffffffffffffffffffffffffffff16638e539e8c856040518263ffffffff1660e01b8152600401612eef9190614c2e565b60206040518083038186803b158015612f0757600080fd5b505afa158015612f1b573d6000803e3d6000fd5b505050506040513d601f19601f82011682018060405250810190612f3f91906160b1565b612f499190616cb8565b612f539190616d41565b9050919050565b600080829050601f81511115612fa757826040517f305a27a9000000000000000000000000000000000000000000000000000000008152600401612f9e919061500c565b60405180910390fd5b805181612fb390616da4565b60001c1760001b915050919050565b6000806000858054905090506000811115613259576000612fef87600184612fea91906166b7565b613349565b6040518060400160405290816000820160009054906101000a900463ffffffff1663ffffffff1663ffffffff1681526020016000820160049054906101000a90047bffffffffffffffffffffffffffffffffffffffffffffffffffffffff167bffffffffffffffffffffffffffffffffffffffffffffffffffffffff167bffffffffffffffffffffffffffffffffffffffffffffffffffffffff168152505090508563ffffffff16816000015163ffffffff1611156130e3576040517f08c379a00000000000000000000000000000000000000000000000000000000081526004016130da90616e57565b60405180910390fd5b8563ffffffff16816000015163ffffffff16141561316857846131128860018561310d91906166b7565b613349565b60000160046101000a8154817bffffffffffffffffffffffffffffffffffffffffffffffffffffffff02191690837bffffffffffffffffffffffffffffffffffffffffffffffffffffffff160217905550613248565b8660405180604001604052808863ffffffff168152602001877bffffffffffffffffffffffffffffffffffffffffffffffffffffffff168152509080600181540180825580915050600190039060005260206000200160009091909190915060008201518160000160006101000a81548163ffffffff021916908363ffffffff16021790555060208201518160000160046101000a8154817bffffffffffffffffffffffffffffffffffffffffffffffffffffffff02191690837bffffffffffffffffffffffffffffffffffffffffffffffffffffffff16021790555050505b806020015185935093505050613341565b8560405180604001604052808763ffffffff168152602001867bffffffffffffffffffffffffffffffffffffffffffffffffffffffff168152509080600181540180825580915050600190039060005260206000200160009091909190915060008201518160000160006101000a81548163ffffffff021916908363ffffffff16021790555060208201518160000160046101000a8154817bffffffffffffffffffffffffffffffffffffffffffffffffffffffff02191690837bffffffffffffffffffffffffffffffffffffffffffffffffffffffff160217905550505060008492509250505b935093915050565b60008260005281602060002001905092915050565b60008063143489d060e01b63452115d660e01b1890506000639a802a6d60e01b630342018160e01b635f398a1460e01b18189050600081837fda287a1d000000000000000000000000000000000000000000000000000000007ff2e09f740000000000000000000000000000000000000000000000000000000018181890506000837fda287a1d000000000000000000000000000000000000000000000000000000007ff2e09f740000000000000000000000000000000000000000000000000000000018189050817bffffffffffffffffffffffffffffffffffffffffffffffffffffffff1916867bffffffffffffffffffffffffffffffffffffffffffffffffffffffff191614806134af5750807bffffffffffffffffffffffffffffffffffffffffffffffffffffffff1916867bffffffffffffffffffffffffffffffffffffffffffffffffffffffff1916145b806134f75750837bffffffffffffffffffffffffffffffffffffffffffffffffffffffff1916867bffffffffffffffffffffffffffffffffffffffffffffffffffffffff1916145b8061355f57507f4e2312e0000000000000000000000000000000000000000000000000000000007bffffffffffffffffffffffffffffffffffffffffffffffffffffffff1916867bffffffffffffffffffffffffffffffffffffffffffffffffffffffff1916145b8061356f575061356e86614593565b5b945050505050919050565b60007f000000000000000000000000000000000000000000000000000000000000000073ffffffffffffffffffffffffffffffffffffffff163073ffffffffffffffffffffffffffffffffffffffff161480156135f657507f000000000000000000000000000000000000000000000000000000000000000046145b15613623577f0000000000000000000000000000000000000000000000000000000000000000905061362e565b61362b6145fd565b90505b90565b60006040517f190100000000000000000000000000000000000000000000000000000000000081528360028201528260228201526042812091505092915050565b6000807f7fffffffffffffffffffffffffffffff5d576e7357a4501ddfe92f46681b20a08360001c11156136ad57600060039150915061374c565b6000600187878787604051600081526020016040526040516136d29493929190616e77565b6020604051602081039080840390855afa1580156136f4573d6000803e3d6000fd5b505050602060405103519050600073ffffffffffffffffffffffffffffffffffffffff168173ffffffffffffffffffffffffffffffffffffffff1614156137435760006001925092505061374c565b80600092509250505b94509492505050565b600060048111156137695761376861552a565b5b81600481111561377c5761377b61552a565b5b1415613787576138c0565b6001600481111561379b5761379a61552a565b5b8160048111156137ae576137ad61552a565b5b14156137ef576040517f08c379a00000000000000000000000000000000000000000000000000000000081526004016137e690616f08565b60405180910390fd5b600260048111156138035761380261552a565b5b8160048111156138165761381561552a565b5b1415613857576040517f08c379a000000000000000000000000000000000000000000000000000000000815260040161384e90616f74565b60405180910390fd5b6003600481111561386b5761386a61552a565b5b81600481111561387e5761387d61552a565b5b14156138bf576040517f08c379a00000000000000000000000000000000000000000000000000000000081526004016138b690617006565b60405180910390fd5b5b50565b6000600a600087815260200190815260200160002090508060030160008673ffffffffffffffffffffffffffffffffffffffff1673ffffffffffffffffffffffffffffffffffffffff16815260200190815260200160002060009054906101000a900460ff1615613969576040517f08c379a000000000000000000000000000000000000000000000000000000000815260040161396090617098565b60405180910390fd5b60018160030160008773ffffffffffffffffffffffffffffffffffffffff1673ffffffffffffffffffffffffffffffffffffffff16815260200190815260200160002060006101000a81548160ff021916908315150217905550600060028111156139d7576139d661552a565b5b60ff168460ff161415613a0457828160000160008282546139f8919061644a565b92505081905550613ac2565b60016002811115613a1857613a1761552a565b5b60ff168460ff161415613a455782816001016000828254613a39919061644a565b92505081905550613ac1565b600280811115613a5857613a5761552a565b5b60ff168460ff161415613a855782816002016000828254613a79919061644a565b92505081905550613ac0565b6040517f08c379a0000000000000000000000000000000000000000000000000000000008152600401613ab79061712a565b60405180910390fd5b5b5b505050505050565b60008160000160009054906101000a9004600f0b600f0b8260000160109054906101000a9004600f0b600f0b13159050919050565b60008260000160109054906101000a9004600f0b90508183600101600083600f0b600f0b815260200190815260200160002081905550600181018360000160106101000a8154816fffffffffffffffffffffffffffffffff0219169083600f0b6fffffffffffffffffffffffffffffffff160217905550505050565b600660009054906101000a900473ffffffffffffffffffffffffffffffffffffffff1673ffffffffffffffffffffffffffffffffffffffff1663e38335e5348686866000876040518763ffffffff1660e01b8152600401613be09594939291906162fb565b6000604051808303818588803b158015613bf957600080fd5b505af1158015613c0d573d6000803e3d6000fd5b50505050505050505050565b60008160000160006101000a8154816fffffffffffffffffffffffffffffffff0219169083600f0b6fffffffffffffffffffffffffffffffff16021790555060008160000160106101000a8154816fffffffffffffffffffffffffffffffff0219169083600f0b6fffffffffffffffffffffffffffffffff16021790555050565b6000806003600084815260200190815260200160002090508060020160009054906101000a900460ff1615613cd3576007915050613dc2565b8060020160019054906101000a900460ff1615613cf4576002915050613dc2565b6000613cff846112dc565b90506000811415613d45576040517f08c379a0000000000000000000000000000000000000000000000000000000008152600401613d3c90617196565b60405180910390fd5b6000613d4f611a7c565b65ffffffffffff169050808210613d6c5760009350505050613dc2565b6000613d7786611d95565b9050818110613d8d576001945050505050613dc2565b613d9686614693565b8015613da75750613da6866146da565b5b15613db9576004945050505050613dc2565b60039450505050505b919050565b600080613dd686868686614705565b90506000801b600760008381526020019081526020016000205414613ead57600660009054906101000a900473ffffffffffffffffffffffffffffffffffffffff1673ffffffffffffffffffffffffffffffffffffffff1663c4d252f560076000848152602001908152602001600020546040518263ffffffff1660e01b8152600401613e639190615494565b600060405180830381600087803b158015613e7d57600080fd5b505af1158015613e91573d6000803e3d6000fd5b5050505060076000828152602001908152602001600020600090555b80915050949350505050565b600080821415613ecc5760009050613fae565b60006001613ed98461485f565b901c6001901b90506001818481613ef357613ef2616d12565b5b048201901c90506001818481613f0c57613f0b616d12565b5b048201901c90506001818481613f2557613f24616d12565b5b048201901c90506001818481613f3e57613f3d616d12565b5b048201901c90506001818481613f5757613f56616d12565b5b048201901c90506001818481613f7057613f6f616d12565b5b048201901c90506001818481613f8957613f88616d12565b5b048201901c9050613faa81828581613fa457613fa3616d12565b5b04614940565b9150505b919050565b60005b8183101561401b576000613fca8484614959565b90508463ffffffff16613fdd8783613349565b60000160009054906101000a900463ffffffff1663ffffffff16111561400557809250614015565b600181614012919061644a565b93505b50613fb6565b819050949350505050565b6000806140316124f4565b9050600061403d611a7c565b65ffffffffffff16905061404f611d6f565b6140658360018461406091906166b7565b612028565b10156140a6576040517f08c379a000000000000000000000000000000000000000000000000000000000815260040161409d90617228565b60405180910390fd5b60006140bb8888888880519060200120611f61565b90508651885114614101576040517f08c379a00000000000000000000000000000000000000000000000000000000081526004016140f8906172ba565b60405180910390fd5b8551885114614145576040517f08c379a000000000000000000000000000000000000000000000000000000000815260040161413c906172ba565b60405180910390fd5b6000885111614189576040517f08c379a000000000000000000000000000000000000000000000000000000000815260040161418090617326565b60405180910390fd5b60006003600083815260200190815260200160002060000160009054906101000a900467ffffffffffffffff1667ffffffffffffffff1614614200576040517f08c379a00000000000000000000000000000000000000000000000000000000081526004016141f7906173b8565b60405180910390fd5b600061420a61133e565b83614215919061644a565b90506000614221610be5565b8261422c919061644a565b90506040518060e001604052806142428461497f565b67ffffffffffffffff1681526020018673ffffffffffffffffffffffffffffffffffffffff168152602001600060e01b7bffffffffffffffffffffffffffffffffffffffffffffffffffffffff1916815260200161429f8361497f565b67ffffffffffffffff168152602001600060401b67ffffffffffffffff19168152602001600015158152602001600015158152506003600085815260200190815260200160002060008201518160000160006101000a81548167ffffffffffffffff021916908367ffffffffffffffff16021790555060208201518160000160086101000a81548173ffffffffffffffffffffffffffffffffffffffff021916908373ffffffffffffffffffffffffffffffffffffffff160217905550604082015181600001601c6101000a81548163ffffffff021916908360e01c021790555060608201518160010160006101000a81548167ffffffffffffffff021916908367ffffffffffffffff16021790555060808201518160010160086101000a81548177ffffffffffffffffffffffffffffffffffffffffffffffff021916908360401c021790555060a08201518160020160006101000a81548160ff02191690831515021790555060c08201518160020160016101000a81548160ff0219169083151502179055509050507f7d84a6263ae0d98d3329bd7b46bb4e8d6f98cd35a7adb45c274c8b7fd5ebd5e083868c8c8e5167ffffffffffffffff81111561446a57614469614d29565b5b60405190808252806020026020018201604052801561449d57816020015b60608152602001906001900390816144885790505b508d88888f6040516144b7999897969594939291906174e4565b60405180910390a18295505050505050949350505050565b606060006144dc836149d6565b90506000602067ffffffffffffffff8111156144fb576144fa614d29565b5b6040519080825280601f01601f19166020018201604052801561452d5781602001600182028036833780820191505090505b5090508181528360208201528092505050919050565b6000825111156145565781518083602001fd5b806040517f08c379a000000000000000000000000000000000000000000000000000000000815260040161458a919061500c565b60405180910390fd5b60007f01ffc9a7000000000000000000000000000000000000000000000000000000007bffffffffffffffffffffffffffffffffffffffffffffffffffffffff1916827bffffffffffffffffffffffffffffffffffffffffffffffffffffffff1916149050919050565b60007f8b73c3c69bb8fe3d512ecc4cf759cc79239f7b179b0ffacaa9a75d522b39400f7f00000000000000000000000000000000000000000000000000000000000000007f00000000000000000000000000000000000000000000000000000000000000004630604051602001614678959493929190617594565b60405160208183030381529060405280519060200120905090565b600080600a60008481526020019081526020016000209050806002015481600101546146bf919061644a565b6146d06146cb856112dc565b612059565b1115915050919050565b600080600a600084815260200190815260200160002090508060000154816001015411915050919050565b60008061471486868686611f61565b90506000614721826113d1565b9050600260078111156147375761473661552a565b5b81600781111561474a5761474961552a565b5b1415801561477d5750600660078111156147675761476661552a565b5b81600781111561477a5761477961552a565b5b14155b80156147ad57506007808111156147975761479661552a565b5b8160078111156147aa576147a961552a565b5b14155b6147ec576040517f08c379a00000000000000000000000000000000000000000000000000000000081526004016147e390617633565b60405180910390fd5b60016003600084815260200190815260200160002060020160016101000a81548160ff0219169083151502179055507f789cf55be980739dad1d0699b93b58e806b51c9d96619bfa8fe0a28abaa7b30c8260405161484a9190614c2e565b60405180910390a18192505050949350505050565b600080600090506000608084901c111561488157608083901c92506080810190505b6000604084901c111561489c57604083901c92506040810190505b6000602084901c11156148b757602083901c92506020810190505b6000601084901c11156148d257601083901c92506010810190505b6000600884901c11156148ed57600883901c92506008810190505b6000600484901c111561490857600483901c92506004810190505b6000600284901c111561492357600283901c92506002810190505b6000600184901c1115614937576001810190505b80915050919050565b600081831061494f5781614951565b825b905092915050565b6000600282841861496a9190616d41565b828416614977919061644a565b905092915050565b600067ffffffffffffffff80168211156149ce576040517f08c379a00000000000000000000000000000000000000000000000000000000081526004016149c5906176c5565b60405180910390fd5b819050919050565b60008060ff8360001c169050601f811115614a1d576040517fb3512b0c00000000000000000000000000000000000000000000000000000000815260040160405180910390fd5b80915050919050565b828054614a3290615fd8565b90600052602060002090601f016020900481019282614a545760008555614a9b565b82601f10614a6d57805160ff1916838001178555614a9b565b82800160010185558215614a9b579182015b82811115614a9a578251825591602001919060010190614a7f565b5b509050614aa89190614aac565b5090565b5b80821115614ac5576000816000905550600101614aad565b5090565b600082825260208201905092915050565b7f476f7665726e6f723a206d7573742073656e6420746f206578656375746f7200600082015250565b6000614b10601f83614ac9565b9150614b1b82614ada565b602082019050919050565b60006020820190508181036000830152614b3f81614b03565b9050919050565b6000604051905090565b600080fd5b600080fd5b60007fffffffff0000000000000000000000000000000000000000000000000000000082169050919050565b614b8f81614b5a565b8114614b9a57600080fd5b50565b600081359050614bac81614b86565b92915050565b600060208284031215614bc857614bc7614b50565b5b6000614bd684828501614b9d565b91505092915050565b60008115159050919050565b614bf481614bdf565b82525050565b6000602082019050614c0f6000830184614beb565b92915050565b6000819050919050565b614c2881614c15565b82525050565b6000602082019050614c436000830184614c1f565b92915050565b614c5281614c15565b8114614c5d57600080fd5b50565b600081359050614c6f81614c49565b92915050565b600060ff82169050919050565b614c8b81614c75565b8114614c9657600080fd5b50565b600081359050614ca881614c82565b92915050565b600080fd5b600080fd5b600080fd5b60008083601f840112614cd357614cd2614cae565b5b8235905067ffffffffffffffff811115614cf057614cef614cb3565b5b602083019150836001820283011115614d0c57614d0b614cb8565b5b9250929050565b600080fd5b6000601f19601f8301169050919050565b7f4e487b7100000000000000000000000000000000000000000000000000000000600052604160045260246000fd5b614d6182614d18565b810181811067ffffffffffffffff82111715614d8057614d7f614d29565b5b80604052505050565b6000614d93614b46565b9050614d9f8282614d58565b919050565b600067ffffffffffffffff821115614dbf57614dbe614d29565b5b614dc882614d18565b9050602081019050919050565b82818337600083830152505050565b6000614df7614df284614da4565b614d89565b905082815260208101848484011115614e1357614e12614d13565b5b614e1e848285614dd5565b509392505050565b600082601f830112614e3b57614e3a614cae565b5b8135614e4b848260208601614de4565b91505092915050565b6000819050919050565b614e6781614e54565b8114614e7257600080fd5b50565b600081359050614e8481614e5e565b92915050565b60008060008060008060008060e0898b031215614eaa57614ea9614b50565b5b6000614eb88b828c01614c60565b9850506020614ec98b828c01614c99565b975050604089013567ffffffffffffffff811115614eea57614ee9614b55565b5b614ef68b828c01614cbd565b9650965050606089013567ffffffffffffffff811115614f1957614f18614b55565b5b614f258b828c01614e26565b9450506080614f368b828c01614c99565b93505060a0614f478b828c01614e75565b92505060c0614f588b828c01614e75565b9150509295985092959890939650565b600060208284031215614f7e57614f7d614b50565b5b6000614f8c84828501614c60565b91505092915050565b600081519050919050565b60005b83811015614fbe578082015181840152602081019050614fa3565b83811115614fcd576000848401525b50505050565b6000614fde82614f95565b614fe88185614ac9565b9350614ff8818560208601614fa0565b61500181614d18565b840191505092915050565b600060208201905081810360008301526150268184614fd3565b905092915050565b600073ffffffffffffffffffffffffffffffffffffffff82169050919050565b60006150598261502e565b9050919050565b6150698161504e565b82525050565b60006020820190506150846000830184615060565b92915050565b6150938161504e565b811461509e57600080fd5b50565b6000813590506150b08161508a565b92915050565b600080600080608085870312156150d0576150cf614b50565b5b60006150de878288016150a1565b94505060206150ef878288016150a1565b935050604061510087828801614c60565b925050606085013567ffffffffffffffff81111561512157615120614b55565b5b61512d87828801614e26565b91505092959194509250565b61514281614b5a565b82525050565b600060208201905061515d6000830184615139565b92915050565b600067ffffffffffffffff82111561517e5761517d614d29565b5b602082029050602081019050919050565b60006151a261519d84615163565b614d89565b905080838252602082019050602084028301858111156151c5576151c4614cb8565b5b835b818110156151ee57806151da88826150a1565b8452602084019350506020810190506151c7565b5050509392505050565b600082601f83011261520d5761520c614cae565b5b813561521d84826020860161518f565b91505092915050565b600067ffffffffffffffff82111561524157615240614d29565b5b602082029050602081019050919050565b600061526561526084615226565b614d89565b9050808382526020820190506020840283018581111561528857615287614cb8565b5b835b818110156152b1578061529d8882614c60565b84526020840193505060208101905061528a565b5050509392505050565b600082601f8301126152d0576152cf614cae565b5b81356152e0848260208601615252565b91505092915050565b600067ffffffffffffffff82111561530457615303614d29565b5b602082029050602081019050919050565b6000615328615323846152e9565b614d89565b9050808382526020820190506020840283018581111561534b5761534a614cb8565b5b835b8181101561539257803567ffffffffffffffff8111156153705761536f614cae565b5b80860161537d8982614e26565b8552602085019450505060208101905061534d565b5050509392505050565b600082601f8301126153b1576153b0614cae565b5b81356153c1848260208601615315565b91505092915050565b600080600080608085870312156153e4576153e3614b50565b5b600085013567ffffffffffffffff81111561540257615401614b55565b5b61540e878288016151f8565b945050602085013567ffffffffffffffff81111561542f5761542e614b55565b5b61543b878288016152bb565b935050604085013567ffffffffffffffff81111561545c5761545b614b55565b5b6154688782880161539c565b925050606061547987828801614e75565b91505092959194509250565b61548e81614e54565b82525050565b60006020820190506154a96000830184615485565b92915050565b600080600080600060a086880312156154cb576154ca614b50565b5b60006154d988828901614c60565b95505060206154ea88828901614c99565b94505060406154fb88828901614c99565b935050606061550c88828901614e75565b925050608061551d88828901614e75565b9150509295509295909350565b7f4e487b7100000000000000000000000000000000000000000000000000000000600052602160045260246000fd5b6008811061556a5761556961552a565b5b50565b600081905061557b82615559565b919050565b600061558b8261556d565b9050919050565b61559b81615580565b82525050565b60006020820190506155b66000830184615592565b92915050565b600080604083850312156155d3576155d2614b50565b5b60006155e185828601614c60565b92505060206155f2858286016150a1565b9150509250929050565b60006060820190506156116000830186614c1f565b61561e6020830185614c1f565b61562b6040830184614c1f565b949350505050565b6000806040838503121561564a57615649614b50565b5b600061565885828601614c60565b925050602061566985828601614c99565b9150509250929050565b60008060008060006080868803121561568f5761568e614b50565b5b600061569d88828901614c60565b95505060206156ae88828901614c99565b945050604086013567ffffffffffffffff8111156156cf576156ce614b55565b5b6156db88828901614cbd565b9350935050606086013567ffffffffffffffff8111156156fe576156fd614b55565b5b61570a88828901614e26565b9150509295509295909350565b6000806000806060858703121561573157615730614b50565b5b600061573f87828801614c60565b945050602061575087828801614c99565b935050604085013567ffffffffffffffff81111561577157615770614b55565b5b61577d87828801614cbd565b925092505092959194509250565b600067ffffffffffffffff8211156157a6576157a5614d29565b5b6157af82614d18565b9050602081019050919050565b60006157cf6157ca8461578b565b614d89565b9050828152602081018484840111156157eb576157ea614d13565b5b6157f6848285614dd5565b509392505050565b600082601f83011261581357615812614cae565b5b81356158238482602086016157bc565b91505092915050565b6000806000806080858703121561584657615845614b50565b5b600085013567ffffffffffffffff81111561586457615863614b55565b5b615870878288016151f8565b945050602085013567ffffffffffffffff81111561589157615890614b55565b5b61589d878288016152bb565b935050604085013567ffffffffffffffff8111156158be576158bd614b55565b5b6158ca8782880161539c565b925050606085013567ffffffffffffffff8111156158eb576158ea614b55565b5b6158f7878288016157fe565b91505092959194509250565b60007fff0000000000000000000000000000000000000000000000000000000000000082169050919050565b61593881615903565b82525050565b600081519050919050565b600082825260208201905092915050565b6000819050602082019050919050565b61597381614c15565b82525050565b6000615985838361596a565b60208301905092915050565b6000602082019050919050565b60006159a98261593e565b6159b38185615949565b93506159be8361595a565b8060005b838110156159ef5781516159d68882615979565b97506159e183615991565b9250506001810190506159c2565b5085935050505092915050565b600060e082019050615a11600083018a61592f565b8181036020830152615a238189614fd3565b90508181036040830152615a378188614fd3565b9050615a466060830187614c1f565b615a536080830186615060565b615a6060a0830185615485565b81810360c0830152615a72818461599e565b905098975050505050505050565b600065ffffffffffff82169050919050565b615a9b81615a80565b82525050565b6000602082019050615ab66000830184615a92565b92915050565b600080600060608486031215615ad557615ad4614b50565b5b6000615ae3868287016150a1565b9350506020615af486828701614c60565b925050604084013567ffffffffffffffff811115615b1557615b14614b55565b5b615b2186828701614e26565b9150509250925092565b6000615b368261502e565b9050919050565b6000615b4882615b2b565b9050919050565b615b5881615b3d565b8114615b6357600080fd5b50565b600081359050615b7581615b4f565b92915050565b600060208284031215615b9157615b90614b50565b5b6000615b9f84828501615b66565b91505092915050565b600080600080600060a08688031215615bc457615bc3614b50565b5b6000615bd2888289016150a1565b9550506020615be3888289016150a1565b945050604086013567ffffffffffffffff811115615c0457615c03614b55565b5b615c10888289016152bb565b935050606086013567ffffffffffffffff811115615c3157615c30614b55565b5b615c3d888289016152bb565b925050608086013567ffffffffffffffff811115615c5e57615c5d614b55565b5b615c6a88828901614e26565b9150509295509295909350565b60008083601f840112615c8d57615c8c614cae565b5b8235905067ffffffffffffffff811115615caa57615ca9614cb3565b5b602083019150836001820283011115615cc657615cc5614cb8565b5b9250929050565b60008060008060608587031215615ce757615ce6614b50565b5b6000615cf5878288016150a1565b9450506020615d0687828801614c60565b935050604085013567ffffffffffffffff811115615d2757615d26614b55565b5b615d3387828801615c77565b925092505092959194509250565b60008060408385031215615d5857615d57614b50565b5b6000615d66858286016150a1565b9250506020615d7785828601614c60565b9150509250929050565b600080600080600060a08688031215615d9d57615d9c614b50565b5b6000615dab888289016150a1565b9550506020615dbc888289016150a1565b9450506040615dcd88828901614c60565b9350506060615dde88828901614c60565b925050608086013567ffffffffffffffff811115615dff57615dfe614b55565b5b615e0b88828901614e26565b9150509295509295909350565b6000819050919050565b6000615e3d615e38615e338461502e565b615e18565b61502e565b9050919050565b6000615e4f82615e22565b9050919050565b6000615e6182615e44565b9050919050565b615e7181615e56565b82525050565b6000602082019050615e8c6000830184615e68565b92915050565b600081905092915050565b6000615ea98385615e92565b9350615eb6838584614dd5565b82840190509392505050565b6000615ecf828486615e9d565b91508190509392505050565b615ee481614c75565b82525050565b600060a082019050615eff6000830188615485565b615f0c6020830187614c1f565b615f196040830186615edb565b615f266060830185615485565b615f336080830184615485565b9695505050505050565b7f476f7665726e6f723a206f6e6c79476f7665726e616e63650000000000000000600082015250565b6000615f73601883614ac9565b9150615f7e82615f3d565b602082019050919050565b60006020820190508181036000830152615fa281615f66565b9050919050565b7f4e487b7100000000000000000000000000000000000000000000000000000000600052602260045260246000fd5b60006002820490506001821680615ff057607f821691505b6020821081141561600457616003615fa9565b5b50919050565b7f476f7665726e6f723a2070726f706f73616c206e6f742073756363657373667560008201527f6c00000000000000000000000000000000000000000000000000000000000000602082015250565b6000616066602183614ac9565b91506160718261600a565b604082019050919050565b6000602082019050818103600083015261609581616059565b9050919050565b6000815190506160ab81614c49565b92915050565b6000602082840312156160c7576160c6614b50565b5b60006160d58482850161609c565b91505092915050565b600081519050919050565b600082825260208201905092915050565b6000819050602082019050919050565b6161138161504e565b82525050565b6000616125838361610a565b60208301905092915050565b6000602082019050919050565b6000616149826160de565b61615381856160e9565b935061615e836160fa565b8060005b8381101561618f5781516161768882616119565b975061618183616131565b925050600181019050616162565b5085935050505092915050565b600081519050919050565b600082825260208201905092915050565b6000819050602082019050919050565b600081519050919050565b600082825260208201905092915050565b60006161ef826161c8565b6161f981856161d3565b9350616209818560208601614fa0565b61621281614d18565b840191505092915050565b600061622983836161e4565b905092915050565b6000602082019050919050565b60006162498261619c565b61625381856161a7565b935083602082028501616265856161b8565b8060005b858110156162a15784840389528151616282858261621d565b945061628d83616231565b925060208a01995050600181019050616269565b50829750879550505050505092915050565b6000819050919050565b60008160001b9050919050565b60006162e56162e06162db846162b3565b6162bd565b614e54565b9050919050565b6162f5816162ca565b82525050565b600060a0820190508181036000830152616315818861613e565b90508181036020830152616329818761599e565b9050818103604083015261633d818661623e565b905061634c60608301856162ec565b6163596080830184615485565b9695505050505050565b60008151905061637281614e5e565b92915050565b60006020828403121561638e5761638d614b50565b5b600061639c84828501616363565b91505092915050565b600060c08201905081810360008301526163bf818961613e565b905081810360208301526163d3818861599e565b905081810360408301526163e7818761623e565b90506163f660608301866162ec565b6164036080830185615485565b61641060a0830184614c1f565b979650505050505050565b7f4e487b7100000000000000000000000000000000000000000000000000000000600052601160045260246000fd5b600061645582614c15565b915061646083614c15565b9250827fffffffffffffffffffffffffffffffffffffffffffffffffffffffffffffffff038211156164955761649461641b565b5b828201905092915050565b60006040820190506164b56000830185614c1f565b6164c26020830184614c1f565b9392505050565b60006060820190506164de6000830186615485565b6164eb6020830185614c1f565b6164f86040830184615edb565b949350505050565b7f476f7665726e6f723a20746f6f206c61746520746f2063616e63656c00000000600082015250565b6000616536601c83614ac9565b915061654182616500565b602082019050919050565b6000602082019050818103600083015261656581616529565b9050919050565b7f476f7665726e6f723a206f6e6c792070726f706f7365722063616e2063616e6360008201527f656c000000000000000000000000000000000000000000000000000000000000602082015250565b60006165c8602283614ac9565b91506165d38261656c565b604082019050919050565b600060208201905081810360008301526165f7816165bb565b9050919050565b600061661161660c8461578b565b614d89565b90508281526020810184848401111561662d5761662c614d13565b5b616638848285614fa0565b509392505050565b600082601f83011261665557616654614cae565b5b81516166658482602086016165fe565b91505092915050565b60006020828403121561668457616683614b50565b5b600082015167ffffffffffffffff8111156166a2576166a1614b55565b5b6166ae84828501616640565b91505092915050565b60006166c282614c15565b91506166cd83614c15565b9250828210156166e0576166df61641b565b5b828203905092915050565b7f4e487b7100000000000000000000000000000000000000000000000000000000600052603260045260246000fd5b61672381615a80565b811461672e57600080fd5b50565b6000815190506167408161671a565b92915050565b60006020828403121561675c5761675b614b50565b5b600061676a84828501616731565b91505092915050565b6000608082019050818103600083015261678d818761613e565b905081810360208301526167a1818661599e565b905081810360408301526167b5818561623e565b90506167c46060830184615485565b95945050505050565b7f53616665436173743a2076616c756520646f65736e27742066697420696e203260008201527f3234206269747300000000000000000000000000000000000000000000000000602082015250565b6000616829602783614ac9565b9150616834826167cd565b604082019050919050565b600060208201905081810360008301526168588161681c565b9050919050565b7f53616665436173743a2076616c756520646f65736e27742066697420696e203360008201527f3220626974730000000000000000000000000000000000000000000000000000602082015250565b60006168bb602683614ac9565b91506168c68261685f565b604082019050919050565b600060208201905081810360008301526168ea816168ae565b9050919050565b7f53616665436173743a2076616c756520646f65736e27742066697420696e203460008201527f3820626974730000000000000000000000000000000000000000000000000000602082015250565b600061694d602683614ac9565b9150616958826168f1565b604082019050919050565b6000602082019050818103600083015261697c81616940565b9050919050565b7f476f7665726e6f723a20766f7465206e6f742063757272656e746c792061637460008201527f6976650000000000000000000000000000000000000000000000000000000000602082015250565b60006169df602383614ac9565b91506169ea82616983565b604082019050919050565b60006020820190508181036000830152616a0e816169d2565b9050919050565b6000608082019050616a2a6000830187614c1f565b616a376020830186615edb565b616a446040830185614c1f565b8181036060830152616a568184614fd3565b905095945050505050565b600082825260208201905092915050565b6000616a7d826161c8565b616a878185616a61565b9350616a97818560208601614fa0565b616aa081614d18565b840191505092915050565b600060a082019050616ac06000830188614c1f565b616acd6020830187615edb565b616ada6040830186614c1f565b8181036060830152616aec8185614fd3565b90508181036080830152616b008184616a72565b90509695505050505050565b7f476f7665726e6f72566f74657351756f72756d4672616374696f6e3a2071756f60008201527f72756d4e756d657261746f72206f7665722071756f72756d44656e6f6d696e6160208201527f746f720000000000000000000000000000000000000000000000000000000000604082015250565b6000616b8e604383614ac9565b9150616b9982616b0c565b606082019050919050565b60006020820190508181036000830152616bbd81616b81565b9050919050565b6000616bcf82614c15565b91507fffffffffffffffffffffffffffffffffffffffffffffffffffffffffffffffff821415616c0257616c0161641b565b5b600182019050919050565b616c1681614bdf565b8114616c2157600080fd5b50565b600081519050616c3381616c0d565b92915050565b600060208284031215616c4f57616c4e614b50565b5b6000616c5d84828501616c24565b91505092915050565b6000604082019050616c7b6000830185615060565b616c886020830184614c1f565b9392505050565b6000604082019050616ca46000830185615060565b616cb16020830184615060565b9392505050565b6000616cc382614c15565b9150616cce83614c15565b9250817fffffffffffffffffffffffffffffffffffffffffffffffffffffffffffffffff0483118215151615616d0757616d0661641b565b5b828202905092915050565b7f4e487b7100000000000000000000000000000000000000000000000000000000600052601260045260246000fd5b6000616d4c82614c15565b9150616d5783614c15565b925082616d6757616d66616d12565b5b828204905092915050565b6000819050602082019050919050565b6000616d8e8251614e54565b80915050919050565b600082821b905092915050565b6000616daf826161c8565b82616db984616d72565b9050616dc481616d82565b92506020821015616e0457616dff7fffffffffffffffffffffffffffffffffffffffffffffffffffffffffffffffff83602003600802616d97565b831692505b5050919050565b7f436865636b706f696e743a2064656372656173696e67206b6579730000000000600082015250565b6000616e41601b83614ac9565b9150616e4c82616e0b565b602082019050919050565b60006020820190508181036000830152616e7081616e34565b9050919050565b6000608082019050616e8c6000830187615485565b616e996020830186615edb565b616ea66040830185615485565b616eb36060830184615485565b95945050505050565b7f45434453413a20696e76616c6964207369676e61747572650000000000000000600082015250565b6000616ef2601883614ac9565b9150616efd82616ebc565b602082019050919050565b60006020820190508181036000830152616f2181616ee5565b9050919050565b7f45434453413a20696e76616c6964207369676e6174757265206c656e67746800600082015250565b6000616f5e601f83614ac9565b9150616f6982616f28565b602082019050919050565b60006020820190508181036000830152616f8d81616f51565b9050919050565b7f45434453413a20696e76616c6964207369676e6174757265202773272076616c60008201527f7565000000000000000000000000000000000000000000000000000000000000602082015250565b6000616ff0602283614ac9565b9150616ffb82616f94565b604082019050919050565b6000602082019050818103600083015261701f81616fe3565b9050919050565b7f476f7665726e6f72566f74696e6753696d706c653a20766f746520616c72656160008201527f6479206361737400000000000000000000000000000000000000000000000000602082015250565b6000617082602783614ac9565b915061708d82617026565b604082019050919050565b600060208201905081810360008301526170b181617075565b9050919050565b7f476f7665726e6f72566f74696e6753696d706c653a20696e76616c696420766160008201527f6c756520666f7220656e756d20566f7465547970650000000000000000000000602082015250565b6000617114603583614ac9565b915061711f826170b8565b604082019050919050565b6000602082019050818103600083015261714381617107565b9050919050565b7f476f7665726e6f723a20756e6b6e6f776e2070726f706f73616c206964000000600082015250565b6000617180601d83614ac9565b915061718b8261714a565b602082019050919050565b600060208201905081810360008301526171af81617173565b9050919050565b7f476f7665726e6f723a2070726f706f73657220766f7465732062656c6f77207060008201527f726f706f73616c207468726573686f6c64000000000000000000000000000000602082015250565b6000617212603183614ac9565b915061721d826171b6565b604082019050919050565b6000602082019050818103600083015261724181617205565b9050919050565b7f476f7665726e6f723a20696e76616c69642070726f706f73616c206c656e677460008201527f6800000000000000000000000000000000000000000000000000000000000000602082015250565b60006172a4602183614ac9565b91506172af82617248565b604082019050919050565b600060208201905081810360008301526172d381617297565b9050919050565b7f476f7665726e6f723a20656d7074792070726f706f73616c0000000000000000600082015250565b6000617310601883614ac9565b915061731b826172da565b602082019050919050565b6000602082019050818103600083015261733f81617303565b9050919050565b7f476f7665726e6f723a2070726f706f73616c20616c726561647920657869737460008201527f7300000000000000000000000000000000000000000000000000000000000000602082015250565b60006173a2602183614ac9565b91506173ad82617346565b604082019050919050565b600060208201905081810360008301526173d181617395565b9050919050565b600081519050919050565b600082825260208201905092915050565b6000819050602082019050919050565b600082825260208201905092915050565b600061742082614f95565b61742a8185617404565b935061743a818560208601614fa0565b61744381614d18565b840191505092915050565b600061745a8383617415565b905092915050565b6000602082019050919050565b600061747a826173d8565b61748481856173e3565b935083602082028501617496856173f4565b8060005b858110156174d257848403895281516174b3858261744e565b94506174be83617462565b925060208a0199505060018101905061749a565b50829750879550505050505092915050565b6000610120820190506174fa600083018c614c1f565b617507602083018b615060565b8181036040830152617519818a61613e565b9050818103606083015261752d818961599e565b90508181036080830152617541818861746f565b905081810360a0830152617555818761623e565b905061756460c0830186614c1f565b61757160e0830185614c1f565b8181036101008301526175848184614fd3565b90509a9950505050505050505050565b600060a0820190506175a96000830188615485565b6175b66020830187615485565b6175c36040830186615485565b6175d06060830185614c1f565b6175dd6080830184615060565b9695505050505050565b7f476f7665726e6f723a2070726f706f73616c206e6f7420616374697665000000600082015250565b600061761d601d83614ac9565b9150617628826175e7565b602082019050919050565b6000602082019050818103600083015261764c81617610565b9050919050565b7f53616665436173743a2076616c756520646f65736e27742066697420696e203660008201527f3420626974730000000000000000000000000000000000000000000000000000602082015250565b60006176af602683614ac9565b91506176ba82617653565b604082019050919050565b600060208201905081810360008301526176de816176a2565b905091905056fe476f7665726e6f723a2072656c617920726576657274656420776974686f7574206d657373616765a264697066735822122036790f7bce3b77526282e58d3dbaa16e1b8623ffb83be097846a19663cdb5c1e64736f6c63430008090033",
  "linkReferences": {},
  "deployedLinkReferences": {}
}