{
  "_format": "hh-sol-artifact-1",
  "contractName": "MultisigControl",
  "sourceName": "contracts/MultisigControl.sol",
  "abi": [
    {
      "inputs": [],
      "stateMutability": "nonpayable",
      "type": "constructor"
    },
    {
      "anonymous": false,
      "inputs": [
        {
          "indexed": false,
          "internalType": "uint256",
          "name": "nonce",
          "type": "uint256"
        }
      ],
      "name": "NonceBurnt",
      "type": "event"
    },
    {
      "anonymous": false,
      "inputs": [
        {
          "indexed": false,
          "internalType": "address",
          "name": "new_signer",
          "type": "address"
        },
        {
          "indexed": false,
          "internalType": "uint256",
          "name": "nonce",
          "type": "uint256"
        }
      ],
      "name": "SignerAdded",
      "type": "event"
    },
    {
      "anonymous": false,
      "inputs": [
        {
          "indexed": false,
          "internalType": "address",
          "name": "old_signer",
          "type": "address"
        },
        {
          "indexed": false,
          "internalType": "uint256",
          "name": "nonce",
          "type": "uint256"
        }
      ],
      "name": "SignerRemoved",
      "type": "event"
    },
    {
      "anonymous": false,
      "inputs": [
        {
          "indexed": false,
          "internalType": "uint16",
          "name": "new_threshold",
          "type": "uint16"
        },
        {
          "indexed": false,
          "internalType": "uint256",
          "name": "nonce",
          "type": "uint256"
        }
      ],
      "name": "ThresholdSet",
      "type": "event"
    },
    {
      "inputs": [
        {
          "internalType": "address",
          "name": "new_signer",
          "type": "address"
        },
        {
          "internalType": "uint256",
          "name": "nonce",
          "type": "uint256"
        },
        {
          "internalType": "bytes",
          "name": "signatures",
          "type": "bytes"
        }
      ],
      "name": "add_signer",
      "outputs": [],
      "stateMutability": "nonpayable",
      "type": "function"
    },
    {
      "inputs": [
        {
          "internalType": "uint256",
          "name": "nonce",
          "type": "uint256"
        },
        {
          "internalType": "bytes",
          "name": "signatures",
          "type": "bytes"
        }
      ],
      "name": "burn_nonce",
      "outputs": [],
      "stateMutability": "nonpayable",
      "type": "function"
    },
    {
      "inputs": [],
      "name": "get_current_threshold",
      "outputs": [
        {
          "internalType": "uint16",
          "name": "",
          "type": "uint16"
        }
      ],
      "stateMutability": "view",
      "type": "function"
    },
    {
      "inputs": [],
      "name": "get_valid_signer_count",
      "outputs": [
        {
          "internalType": "uint8",
          "name": "",
          "type": "uint8"
        }
      ],
      "stateMutability": "view",
      "type": "function"
    },
    {
      "inputs": [
        {
          "internalType": "uint256",
          "name": "nonce",
          "type": "uint256"
        }
      ],
      "name": "is_nonce_used",
      "outputs": [
        {
          "internalType": "bool",
          "name": "",
          "type": "bool"
        }
      ],
      "stateMutability": "view",
      "type": "function"
    },
    {
      "inputs": [
        {
          "internalType": "address",
          "name": "signer_address",
          "type": "address"
        }
      ],
      "name": "is_valid_signer",
      "outputs": [
        {
          "internalType": "bool",
          "name": "",
          "type": "bool"
        }
      ],
      "stateMutability": "view",
      "type": "function"
    },
    {
      "inputs": [
        {
          "internalType": "address",
          "name": "old_signer",
          "type": "address"
        },
        {
          "internalType": "uint256",
          "name": "nonce",
          "type": "uint256"
        },
        {
          "internalType": "bytes",
          "name": "signatures",
          "type": "bytes"
        }
      ],
      "name": "remove_signer",
      "outputs": [],
      "stateMutability": "nonpayable",
      "type": "function"
    },
    {
      "inputs": [
        {
          "internalType": "uint16",
          "name": "new_threshold",
          "type": "uint16"
        },
        {
          "internalType": "uint256",
          "name": "nonce",
          "type": "uint256"
        },
        {
          "internalType": "bytes",
          "name": "signatures",
          "type": "bytes"
        }
      ],
      "name": "set_threshold",
      "outputs": [],
      "stateMutability": "nonpayable",
      "type": "function"
    },
    {
      "inputs": [
        {
          "internalType": "address",
          "name": "",
          "type": "address"
        }
      ],
      "name": "signers",
      "outputs": [
        {
          "internalType": "bool",
          "name": "",
          "type": "bool"
        }
      ],
      "stateMutability": "view",
      "type": "function"
    },
    {
      "inputs": [
        {
          "internalType": "bytes",
          "name": "signatures",
          "type": "bytes"
        },
        {
          "internalType": "bytes",
          "name": "message",
          "type": "bytes"
        },
        {
          "internalType": "uint256",
          "name": "nonce",
          "type": "uint256"
        }
      ],
      "name": "verify_signatures",
      "outputs": [
        {
          "internalType": "bool",
          "name": "",
          "type": "bool"
        }
      ],
      "stateMutability": "nonpayable",
      "type": "function"
    }
  ],
  "bytecode": "0x60806040523480156200001157600080fd5b506101f46000806101000a81548161ffff021916908361ffff16021790555060018060003373ffffffffffffffffffffffffffffffffffffffff1673ffffffffffffffffffffffffffffffffffffffff16815260200190815260200160002060006101000a81548160ff0219169083151502179055506000600281819054906101000a900460ff1680929190620000a8906200013f565b91906101000a81548160ff021916908360ff160217905550507f50999ebf9b59bf3157a58816611976f2d723378ad51457d7b0413209e0cdee59336000604051620000f59291906200020a565b60405180910390a162000237565b7f4e487b7100000000000000000000000000000000000000000000000000000000600052601160045260246000fd5b600060ff82169050919050565b60006200014c8262000132565b915060ff82141562000163576200016262000103565b5b600182019050919050565b600073ffffffffffffffffffffffffffffffffffffffff82169050919050565b60006200019b826200016e565b9050919050565b620001ad816200018e565b82525050565b6000819050919050565b6000819050919050565b6000819050919050565b6000620001f2620001ec620001e684620001b3565b620001c7565b620001bd565b9050919050565b6200020481620001d1565b82525050565b6000604082019050620002216000830185620001a2565b620002306020830184620001f9565b9392505050565b611bf480620002476000396000f3fe608060405234801561001057600080fd5b506004361061009e5760003560e01c806398c5f73e1161006657806398c5f73e1461016b578063b04e3dd114610187578063ba73659a146101a5578063dbe528df146101d5578063f8e3a660146101f35761009e565b806350ac8df8146100a35780635b9fe26b146100bf5780635ec51639146100ef5780635f0615591461010b578063736c0d5b1461013b575b600080fd5b6100bd60048036038101906100b89190610dbf565b61020f565b005b6100d960048036038101906100d49190610e33565b610334565b6040516100e69190610e7b565b60405180910390f35b61010960048036038101906101049190610e96565b61035e565b005b61012560048036038101906101209190610f54565b61040a565b6040516101329190610e7b565b60405180910390f35b61015560048036038101906101509190610f54565b610460565b6040516101629190610e7b565b60405180910390f35b61018560048036038101906101809190610f81565b610480565b005b61018f61064d565b60405161019c9190611011565b60405180910390f35b6101bf60048036038101906101ba919061116d565b610663565b6040516101cc9190610e7b565b60405180910390f35b6101dd610a6b565b6040516101ea919061120c565b60405180910390f35b61020d60048036038101906102089190610f81565b610a82565b005b6103e88461ffff16108015610228575060008461ffff16115b610267576040517f08c379a000000000000000000000000000000000000000000000000000000000815260040161025e90611284565b60405180910390fd5b6000848460405160200161027c9291906112ff565b604051602081830303815290604052905061029983838387610663565b6102d8576040517f08c379a00000000000000000000000000000000000000000000000000000000081526004016102cf90611387565b60405180910390fd5b846000806101000a81548161ffff021916908361ffff1602179055507ff6d24c23627520a3b70e5dc66aa1249844b4bb407c2c153d9000a2b14a1e3c1185856040516103259291906113a7565b60405180910390a15050505050565b60006002600083815260200190815260200160002060009054906101000a900460ff169050919050565b600083604051602001610371919061141c565b604051602081830303815290604052905061038e83838387610663565b6103cd576040517f08c379a00000000000000000000000000000000000000000000000000000000081526004016103c490611387565b60405180910390fd5b7fb33a7fc220f9e1c644c0f616b48edee1956a978a7dcb37a10f16e148969e4c0b846040516103fc919061144a565b60405180910390a150505050565b6000600160008373ffffffffffffffffffffffffffffffffffffffff1673ffffffffffffffffffffffffffffffffffffffff16815260200190815260200160002060009054906101000a900460ff169050919050565b60016020528060005260406000206000915054906101000a900460ff1681565b600084846040516020016104959291906114c0565b6040516020818303038152906040529050600160008673ffffffffffffffffffffffffffffffffffffffff1673ffffffffffffffffffffffffffffffffffffffff16815260200190815260200160002060009054906101000a900460ff16610532576040517f08c379a000000000000000000000000000000000000000000000000000000000815260040161052990611548565b60405180910390fd5b61053e83838387610663565b61057d576040517f08c379a000000000000000000000000000000000000000000000000000000000815260040161057490611387565b60405180910390fd5b6000600160008773ffffffffffffffffffffffffffffffffffffffff1673ffffffffffffffffffffffffffffffffffffffff16815260200190815260200160002060006101000a81548160ff0219169083151502179055506000600281819054906101000a900460ff16809291906105f490611597565b91906101000a81548160ff021916908360ff160217905550507f99c1d2c0ed8107e4db2e5dbfb10a2549cd2a63cbe39cf99d2adffbcd03954418858560405161063e9291906115c1565b60405180910390a15050505050565b60008060029054906101000a900460ff16905090565b6000806041868690506106769190611619565b146106b6576040517f08c379a00000000000000000000000000000000000000000000000000000000081526004016106ad90611696565b60405180910390fd5b600085859050116106fc576040517f08c379a00000000000000000000000000000000000000000000000000000000081526004016106f390611702565b60405180910390fd5b6002600083815260200190815260200160002060009054906101000a900460ff161561075d576040517f08c379a00000000000000000000000000000000000000000000000000000000081526004016107549061176e565b60405180910390fd5b6000808060029054906101000a900460ff1660ff1667ffffffffffffffff81111561078b5761078a611042565b5b6040519080825280602002602001820160405280156107b95781602001602082028036833780820191505090505b509050600085336040516020016107d1929190611816565b604051602081830303815290604052805190602001209050600088905060005b898990508110156109cf5760008060008385013592506020848601013591506040848601013560001a90507f7fffffffffffffffffffffffffffffff5d576e7357a4501ddfe92f46681b20a08260001c1115610882576040517f08c379a000000000000000000000000000000000000000000000000000000000815260040161087990611892565b60405180910390fd5b601b8160ff16101561089e57601b8161089b91906118b2565b90505b6000600187838686604051600081526020016040526040516108c39493929190611902565b6020604051602081039080840390855afa1580156108e5573d6000803e3d6000fd5b505050602060405103519050600160008273ffffffffffffffffffffffffffffffffffffffff1673ffffffffffffffffffffffffffffffffffffffff16815260200190815260200160002060009054906101000a900460ff168015610952575061095088828b610c4f565b155b156109b75780888a60ff168151811061096e5761096d611947565b5b602002602001019073ffffffffffffffffffffffffffffffffffffffff16908173ffffffffffffffffffffffffffffffffffffffff168152505088806109b390611976565b9950505b505050506041816109c891906119a0565b90506107f1565b5060008054906101000a900461ffff1661ffff16600060029054906101000a900460ff1660ff166103e88660ff16610a0791906119f6565b610a119190611a50565b116002600088815260200190815260200160002060006101000a81548160ff0219169083151502179055506002600087815260200190815260200160002060009054906101000a900460ff16945050505050949350505050565b60008060009054906101000a900461ffff16905090565b60008484604051602001610a97929190611acd565b6040516020818303038152906040529050600160008673ffffffffffffffffffffffffffffffffffffffff1673ffffffffffffffffffffffffffffffffffffffff16815260200190815260200160002060009054906101000a900460ff1615610b35576040517f08c379a0000000000000000000000000000000000000000000000000000000008152600401610b2c90611b55565b60405180910390fd5b610b4183838387610663565b610b80576040517f08c379a0000000000000000000000000000000000000000000000000000000008152600401610b7790611387565b60405180910390fd5b60018060008773ffffffffffffffffffffffffffffffffffffffff1673ffffffffffffffffffffffffffffffffffffffff16815260200190815260200160002060006101000a81548160ff0219169083151502179055506000600281819054906101000a900460ff1680929190610bf690611976565b91906101000a81548160ff021916908360ff160217905550507f50999ebf9b59bf3157a58816611976f2d723378ad51457d7b0413209e0cdee598585604051610c409291906115c1565b60405180910390a15050505050565b6000805b8260ff16811015610cc9578373ffffffffffffffffffffffffffffffffffffffff16858281518110610c8857610c87611947565b5b602002602001015173ffffffffffffffffffffffffffffffffffffffff161415610cb6576001915050610ccf565b8080610cc190611b75565b915050610c53565b50600090505b9392505050565b6000604051905090565b600080fd5b600080fd5b600061ffff82169050919050565b610d0181610cea565b8114610d0c57600080fd5b50565b600081359050610d1e81610cf8565b92915050565b6000819050919050565b610d3781610d24565b8114610d4257600080fd5b50565b600081359050610d5481610d2e565b92915050565b600080fd5b600080fd5b600080fd5b60008083601f840112610d7f57610d7e610d5a565b5b8235905067ffffffffffffffff811115610d9c57610d9b610d5f565b5b602083019150836001820283011115610db857610db7610d64565b5b9250929050565b60008060008060608587031215610dd957610dd8610ce0565b5b6000610de787828801610d0f565b9450506020610df887828801610d45565b935050604085013567ffffffffffffffff811115610e1957610e18610ce5565b5b610e2587828801610d69565b925092505092959194509250565b600060208284031215610e4957610e48610ce0565b5b6000610e5784828501610d45565b91505092915050565b60008115159050919050565b610e7581610e60565b82525050565b6000602082019050610e906000830184610e6c565b92915050565b600080600060408486031215610eaf57610eae610ce0565b5b6000610ebd86828701610d45565b935050602084013567ffffffffffffffff811115610ede57610edd610ce5565b5b610eea86828701610d69565b92509250509250925092565b600073ffffffffffffffffffffffffffffffffffffffff82169050919050565b6000610f2182610ef6565b9050919050565b610f3181610f16565b8114610f3c57600080fd5b50565b600081359050610f4e81610f28565b92915050565b600060208284031215610f6a57610f69610ce0565b5b6000610f7884828501610f3f565b91505092915050565b60008060008060608587031215610f9b57610f9a610ce0565b5b6000610fa987828801610f3f565b9450506020610fba87828801610d45565b935050604085013567ffffffffffffffff811115610fdb57610fda610ce5565b5b610fe787828801610d69565b925092505092959194509250565b600060ff82169050919050565b61100b81610ff5565b82525050565b60006020820190506110266000830184611002565b92915050565b600080fd5b6000601f19601f8301169050919050565b7f4e487b7100000000000000000000000000000000000000000000000000000000600052604160045260246000fd5b61107a82611031565b810181811067ffffffffffffffff8211171561109957611098611042565b5b80604052505050565b60006110ac610cd6565b90506110b88282611071565b919050565b600067ffffffffffffffff8211156110d8576110d7611042565b5b6110e182611031565b9050602081019050919050565b82818337600083830152505050565b600061111061110b846110bd565b6110a2565b90508281526020810184848401111561112c5761112b61102c565b5b6111378482856110ee565b509392505050565b600082601f83011261115457611153610d5a565b5b81356111648482602086016110fd565b91505092915050565b6000806000806060858703121561118757611186610ce0565b5b600085013567ffffffffffffffff8111156111a5576111a4610ce5565b5b6111b187828801610d69565b9450945050602085013567ffffffffffffffff8111156111d4576111d3610ce5565b5b6111e08782880161113f565b92505060406111f187828801610d45565b91505092959194509250565b61120681610cea565b82525050565b600060208201905061122160008301846111fd565b92915050565b600082825260208201905092915050565b7f6e6577207468726573686f6c64206f7574736964652072616e67650000000000600082015250565b600061126e601b83611227565b915061127982611238565b602082019050919050565b6000602082019050818103600083015261129d81611261565b9050919050565b6112ad81610d24565b82525050565b7f7365745f7468726573686f6c6400000000000000000000000000000000000000600082015250565b60006112e9600d83611227565b91506112f4826112b3565b602082019050919050565b600060608201905061131460008301856111fd565b61132160208301846112a4565b8181036040830152611332816112dc565b90509392505050565b7f626164207369676e617475726573000000000000000000000000000000000000600082015250565b6000611371600e83611227565b915061137c8261133b565b602082019050919050565b600060208201905081810360008301526113a081611364565b9050919050565b60006040820190506113bc60008301856111fd565b6113c960208301846112a4565b9392505050565b7f6275726e5f6e6f6e636500000000000000000000000000000000000000000000600082015250565b6000611406600a83611227565b9150611411826113d0565b602082019050919050565b600060408201905061143160008301846112a4565b8181036020830152611442816113f9565b905092915050565b600060208201905061145f60008301846112a4565b92915050565b61146e81610f16565b82525050565b7f72656d6f76655f7369676e657200000000000000000000000000000000000000600082015250565b60006114aa600d83611227565b91506114b582611474565b602082019050919050565b60006060820190506114d56000830185611465565b6114e260208301846112a4565b81810360408301526114f38161149d565b90509392505050565b7f7369676e657220646f65736e2774206578697374000000000000000000000000600082015250565b6000611532601483611227565b915061153d826114fc565b602082019050919050565b6000602082019050818103600083015261156181611525565b9050919050565b7f4e487b7100000000000000000000000000000000000000000000000000000000600052601160045260246000fd5b60006115a282610ff5565b915060008214156115b6576115b5611568565b5b600182039050919050565b60006040820190506115d66000830185611465565b6115e360208301846112a4565b9392505050565b7f4e487b7100000000000000000000000000000000000000000000000000000000600052601260045260246000fd5b600061162482610d24565b915061162f83610d24565b92508261163f5761163e6115ea565b5b828206905092915050565b7f62616420736967206c656e677468000000000000000000000000000000000000600082015250565b6000611680600e83611227565b915061168b8261164a565b602082019050919050565b600060208201905081810360008301526116af81611673565b9050919050565b7f6d75737420636f6e7461696e206174206c656173742031207369670000000000600082015250565b60006116ec601b83611227565b91506116f7826116b6565b602082019050919050565b6000602082019050818103600083015261171b816116df565b9050919050565b7f6e6f6e636520616c726561647920757365640000000000000000000000000000600082015250565b6000611758601283611227565b915061176382611722565b602082019050919050565b600060208201905081810360008301526117878161174b565b9050919050565b600081519050919050565b600082825260208201905092915050565b60005b838110156117c85780820151818401526020810190506117ad565b838111156117d7576000848401525b50505050565b60006117e88261178e565b6117f28185611799565b93506118028185602086016117aa565b61180b81611031565b840191505092915050565b6000604082019050818103600083015261183081856117dd565b905061183f6020830184611465565b9392505050565b7f4d616c6c6561626c65207369676e6174757265206572726f7200000000000000600082015250565b600061187c601983611227565b915061188782611846565b602082019050919050565b600060208201905081810360008301526118ab8161186f565b9050919050565b60006118bd82610ff5565b91506118c883610ff5565b92508260ff038211156118de576118dd611568565b5b828201905092915050565b6000819050919050565b6118fc816118e9565b82525050565b600060808201905061191760008301876118f3565b6119246020830186611002565b61193160408301856118f3565b61193e60608301846118f3565b95945050505050565b7f4e487b7100000000000000000000000000000000000000000000000000000000600052603260045260246000fd5b600061198182610ff5565b915060ff82141561199557611994611568565b5b600182019050919050565b60006119ab82610d24565b91506119b683610d24565b9250827fffffffffffffffffffffffffffffffffffffffffffffffffffffffffffffffff038211156119eb576119ea611568565b5b828201905092915050565b6000611a0182610d24565b9150611a0c83610d24565b9250817fffffffffffffffffffffffffffffffffffffffffffffffffffffffffffffffff0483118215151615611a4557611a44611568565b5b828202905092915050565b6000611a5b82610d24565b9150611a6683610d24565b925082611a7657611a756115ea565b5b828204905092915050565b7f6164645f7369676e657200000000000000000000000000000000000000000000600082015250565b6000611ab7600a83611227565b9150611ac282611a81565b602082019050919050565b6000606082019050611ae26000830185611465565b611aef60208301846112a4565b8181036040830152611b0081611aaa565b90509392505050565b7f7369676e657220616c7265616479206578697374730000000000000000000000600082015250565b6000611b3f601583611227565b9150611b4a82611b09565b602082019050919050565b60006020820190508181036000830152611b6e81611b32565b9050919050565b6000611b8082610d24565b91507fffffffffffffffffffffffffffffffffffffffffffffffffffffffffffffffff821415611bb357611bb2611568565b5b60018201905091905056fea2646970667358221220077af5f9c933787193be8fc83fd80643d6b8dddbf12c780ec473245c81118b0c64736f6c63430008090033",
  "linkReferences": {},
  "deployedLinkReferences": {}
}