{
  "_format": "hh-sol-artifact-1",
  "contractName": "ERC20Reentrant",
  "sourceName": "contracts/oz_contracts/mocks/ERC20Reentrant.sol",
  "abi": [
    {
      "anonymous": false,
      "inputs": [
        {
          "indexed": true,
          "internalType": "address",
          "name": "owner",
          "type": "address"
        },
        {
          "indexed": true,
          "internalType": "address",
          "name": "spender",
          "type": "address"
        },
        {
          "indexed": false,
          "internalType": "uint256",
          "name": "value",
          "type": "uint256"
        }
      ],
      "name": "Approval",
      "type": "event"
    },
    {
      "anonymous": false,
      "inputs": [
        {
          "indexed": true,
          "internalType": "address",
          "name": "from",
          "type": "address"
        },
        {
          "indexed": true,
          "internalType": "address",
          "name": "to",
          "type": "address"
        },
        {
          "indexed": false,
          "internalType": "uint256",
          "name": "value",
          "type": "uint256"
        }
      ],
      "name": "Transfer",
      "type": "event"
    },
    {
      "inputs": [
        {
          "internalType": "address",
          "name": "owner",
          "type": "address"
        },
        {
          "internalType": "address",
          "name": "spender",
          "type": "address"
        }
      ],
      "name": "allowance",
      "outputs": [
        {
          "internalType": "uint256",
          "name": "",
          "type": "uint256"
        }
      ],
      "stateMutability": "view",
      "type": "function"
    },
    {
      "inputs": [
        {
          "internalType": "address",
          "name": "spender",
          "type": "address"
        },
        {
          "internalType": "uint256",
          "name": "amount",
          "type": "uint256"
        }
      ],
      "name": "approve",
      "outputs": [
        {
          "internalType": "bool",
          "name": "",
          "type": "bool"
        }
      ],
      "stateMutability": "nonpayable",
      "type": "function"
    },
    {
      "inputs": [
        {
          "internalType": "address",
          "name": "account",
          "type": "address"
        }
      ],
      "name": "balanceOf",
      "outputs": [
        {
          "internalType": "uint256",
          "name": "",
          "type": "uint256"
        }
      ],
      "stateMutability": "view",
      "type": "function"
    },
    {
      "inputs": [],
      "name": "decimals",
      "outputs": [
        {
          "internalType": "uint8",
          "name": "",
          "type": "uint8"
        }
      ],
      "stateMutability": "view",
      "type": "function"
    },
    {
      "inputs": [
        {
          "internalType": "address",
          "name": "spender",
          "type": "address"
        },
        {
          "internalType": "uint256",
          "name": "subtractedValue",
          "type": "uint256"
        }
      ],
      "name": "decreaseAllowance",
      "outputs": [
        {
          "internalType": "bool",
          "name": "",
          "type": "bool"
        }
      ],
      "stateMutability": "nonpayable",
      "type": "function"
    },
    {
      "inputs": [
        {
          "internalType": "address",
          "name": "target",
          "type": "address"
        },
        {
          "internalType": "bytes",
          "name": "data",
          "type": "bytes"
        }
      ],
      "name": "functionCall",
      "outputs": [
        {
          "internalType": "bytes",
          "name": "",
          "type": "bytes"
        }
      ],
      "stateMutability": "nonpayable",
      "type": "function"
    },
    {
      "inputs": [
        {
          "internalType": "address",
          "name": "spender",
          "type": "address"
        },
        {
          "internalType": "uint256",
          "name": "addedValue",
          "type": "uint256"
        }
      ],
      "name": "increaseAllowance",
      "outputs": [
        {
          "internalType": "bool",
          "name": "",
          "type": "bool"
        }
      ],
      "stateMutability": "nonpayable",
      "type": "function"
    },
    {
      "inputs": [],
      "name": "name",
      "outputs": [
        {
          "internalType": "string",
          "name": "",
          "type": "string"
        }
      ],
      "stateMutability": "view",
      "type": "function"
    },
    {
      "inputs": [
        {
          "internalType": "enum ERC20Reentrant.Type",
          "name": "when",
          "type": "uint8"
        },
        {
          "internalType": "address",
          "name": "target",
          "type": "address"
        },
        {
          "internalType": "bytes",
          "name": "data",
          "type": "bytes"
        }
      ],
      "name": "scheduleReenter",
      "outputs": [],
      "stateMutability": "nonpayable",
      "type": "function"
    },
    {
      "inputs": [],
      "name": "symbol",
      "outputs": [
        {
          "internalType": "string",
          "name": "",
          "type": "string"
        }
      ],
      "stateMutability": "view",
      "type": "function"
    },
    {
      "inputs": [],
      "name": "totalSupply",
      "outputs": [
        {
          "internalType": "uint256",
          "name": "",
          "type": "uint256"
        }
      ],
      "stateMutability": "view",
      "type": "function"
    },
    {
      "inputs": [
        {
          "internalType": "address",
          "name": "to",
          "type": "address"
        },
        {
          "internalType": "uint256",
          "name": "amount",
          "type": "uint256"
        }
      ],
      "name": "transfer",
      "outputs": [
        {
          "internalType": "bool",
          "name": "",
          "type": "bool"
        }
      ],
      "stateMutability": "nonpayable",
      "type": "function"
    },
    {
      "inputs": [
        {
          "internalType": "address",
          "name": "from",
          "type": "address"
        },
        {
          "internalType": "address",
          "name": "to",
          "type": "address"
        },
        {
          "internalType": "uint256",
          "name": "amount",
          "type": "uint256"
        }
      ],
      "name": "transferFrom",
      "outputs": [
        {
          "internalType": "bool",
          "name": "",
          "type": "bool"
        }
      ],
      "stateMutability": "nonpayable",
      "type": "function"
    }
  ],
  "bytecode": "0x60806040523480156200001157600080fd5b506040518060400160405280600481526020017f54455354000000000000000000000000000000000000000000000000000000008152506040518060400160405280600381526020017f5453540000000000000000000000000000000000000000000000000000000000815250816003908051906020019062000096929190620000b8565b508060049080519060200190620000af929190620000b8565b505050620001cd565b828054620000c69062000197565b90600052602060002090601f016020900481019282620000ea576000855562000136565b82601f106200010557805160ff191683800117855562000136565b8280016001018555821562000136579182015b828111156200013557825182559160200191906001019062000118565b5b50905062000145919062000149565b5090565b5b80821115620001645760008160009055506001016200014a565b5090565b7f4e487b7100000000000000000000000000000000000000000000000000000000600052602260045260246000fd5b60006002820490506001821680620001b057607f821691505b60208210811415620001c757620001c662000168565b5b50919050565b611cfa80620001dd6000396000f3fe608060405234801561001057600080fd5b50600436106100cf5760003560e01c806370a082311161008c578063a457c2d711610066578063a457c2d71461023c578063a9059cbb1461026c578063cd594b631461029c578063dd62ed3e146102b8576100cf565b806370a08231146101be57806395d89b41146101ee578063a0b5ffb01461020c576100cf565b806306fdde03146100d4578063095ea7b3146100f257806318160ddd1461012257806323b872dd14610140578063313ce56714610170578063395093511461018e575b600080fd5b6100dc6102e8565b6040516100e99190611124565b60405180910390f35b61010c600480360381019061010791906111ee565b61037a565b6040516101199190611249565b60405180910390f35b61012a61039d565b6040516101379190611273565b60405180910390f35b61015a6004803603810190610155919061128e565b6103a7565b6040516101679190611249565b60405180910390f35b6101786103d6565b60405161018591906112fd565b60405180910390f35b6101a860048036038101906101a391906111ee565b6103df565b6040516101b59190611249565b60405180910390f35b6101d860048036038101906101d39190611318565b610416565b6040516101e59190611273565b60405180910390f35b6101f661045e565b6040516102039190611124565b60405180910390f35b6102266004803603810190610221919061147a565b6104f0565b604051610233919061152b565b60405180910390f35b610256600480360381019061025191906111ee565b610504565b6040516102639190611249565b60405180910390f35b610286600480360381019061028191906111ee565b61057b565b6040516102939190611249565b60405180910390f35b6102b660048036038101906102b191906115d2565b61059e565b005b6102d260048036038101906102cd9190611646565b610621565b6040516102df9190611273565b60405180910390f35b6060600380546102f7906116b5565b80601f0160208091040260200160405190810160405280929190818152602001828054610323906116b5565b80156103705780601f1061034557610100808354040283529160200191610370565b820191906000526020600020905b81548152906001019060200180831161035357829003601f168201915b5050505050905090565b6000806103856106a8565b90506103928185856106b0565b600191505092915050565b6000600254905090565b6000806103b26106a8565b90506103bf85828561087b565b6103ca858585610907565b60019150509392505050565b60006012905090565b6000806103ea6106a8565b905061040b8185856103fc8589610621565b6104069190611716565b6106b0565b600191505092915050565b60008060008373ffffffffffffffffffffffffffffffffffffffff1673ffffffffffffffffffffffffffffffffffffffff168152602001908152602001600020549050919050565b60606004805461046d906116b5565b80601f0160208091040260200160405190810160405280929190818152602001828054610499906116b5565b80156104e65780601f106104bb576101008083540402835291602001916104e6565b820191906000526020600020905b8154815290600101906020018083116104c957829003601f168201915b5050505050905090565b60606104fc8383610b7f565b905092915050565b60008061050f6106a8565b9050600061051d8286610621565b905083811015610562576040517f08c379a0000000000000000000000000000000000000000000000000000000008152600401610559906117de565b60405180910390fd5b61056f82868684036106b0565b60019250505092915050565b6000806105866106a8565b9050610593818585610907565b600191505092915050565b83600560006101000a81548160ff021916908360028111156105c3576105c26117fe565b5b021790555082600560016101000a81548173ffffffffffffffffffffffffffffffffffffffff021916908373ffffffffffffffffffffffffffffffffffffffff16021790555081816006919061061a929190610fe8565b5050505050565b6000600160008473ffffffffffffffffffffffffffffffffffffffff1673ffffffffffffffffffffffffffffffffffffffff16815260200190815260200160002060008373ffffffffffffffffffffffffffffffffffffffff1673ffffffffffffffffffffffffffffffffffffffff16815260200190815260200160002054905092915050565b600033905090565b600073ffffffffffffffffffffffffffffffffffffffff168373ffffffffffffffffffffffffffffffffffffffff161415610720576040517f08c379a00000000000000000000000000000000000000000000000000000000081526004016107179061189f565b60405180910390fd5b600073ffffffffffffffffffffffffffffffffffffffff168273ffffffffffffffffffffffffffffffffffffffff161415610790576040517f08c379a000000000000000000000000000000000000000000000000000000000815260040161078790611931565b60405180910390fd5b80600160008573ffffffffffffffffffffffffffffffffffffffff1673ffffffffffffffffffffffffffffffffffffffff16815260200190815260200160002060008473ffffffffffffffffffffffffffffffffffffffff1673ffffffffffffffffffffffffffffffffffffffff168152602001908152602001600020819055508173ffffffffffffffffffffffffffffffffffffffff168373ffffffffffffffffffffffffffffffffffffffff167f8c5be1e5ebec7d5bd14f71427d1e84f3dd0314c0f7b2291e5b200ac8c7c3b9258360405161086e9190611273565b60405180910390a3505050565b60006108878484610621565b90507fffffffffffffffffffffffffffffffffffffffffffffffffffffffffffffffff811461090157818110156108f3576040517f08c379a00000000000000000000000000000000000000000000000000000000081526004016108ea9061199d565b60405180910390fd5b61090084848484036106b0565b5b50505050565b600073ffffffffffffffffffffffffffffffffffffffff168373ffffffffffffffffffffffffffffffffffffffff161415610977576040517f08c379a000000000000000000000000000000000000000000000000000000000815260040161096e90611a2f565b60405180910390fd5b600073ffffffffffffffffffffffffffffffffffffffff168273ffffffffffffffffffffffffffffffffffffffff1614156109e7576040517f08c379a00000000000000000000000000000000000000000000000000000000081526004016109de90611ac1565b60405180910390fd5b6109f2838383610bcb565b60008060008573ffffffffffffffffffffffffffffffffffffffff1673ffffffffffffffffffffffffffffffffffffffff16815260200190815260200160002054905081811015610a78576040517f08c379a0000000000000000000000000000000000000000000000000000000008152600401610a6f90611b53565b60405180910390fd5b8181036000808673ffffffffffffffffffffffffffffffffffffffff1673ffffffffffffffffffffffffffffffffffffffff16815260200190815260200160002081905550816000808573ffffffffffffffffffffffffffffffffffffffff1673ffffffffffffffffffffffffffffffffffffffff168152602001908152602001600020600082825401925050819055508273ffffffffffffffffffffffffffffffffffffffff168473ffffffffffffffffffffffffffffffffffffffff167fddf252ad1be2c89b69c2b068fc378daa952ba7f163c4a11628f55a4df523b3ef84604051610b669190611273565b60405180910390a3610b79848484610cfa565b50505050565b6060610bc3838360006040518060400160405280601e81526020017f416464726573733a206c6f772d6c6576656c2063616c6c206661696c65640000815250610e28565b905092915050565b60016002811115610bdf57610bde6117fe565b5b600560009054906101000a900460ff166002811115610c0157610c006117fe565b5b1415610cea576000600560006101000a81548160ff02191690836002811115610c2d57610c2c6117fe565b5b0217905550610ce8600560019054906101000a900473ffffffffffffffffffffffffffffffffffffffff1660068054610c65906116b5565b80601f0160208091040260200160405190810160405280929190818152602001828054610c91906116b5565b8015610cde5780601f10610cb357610100808354040283529160200191610cde565b820191906000526020600020905b815481529060010190602001808311610cc157829003601f168201915b50505050506104f0565b505b610cf5838383610ef5565b505050565b610d05838383610efa565b600280811115610d1857610d176117fe565b5b600560009054906101000a900460ff166002811115610d3a57610d396117fe565b5b1415610e23576000600560006101000a81548160ff02191690836002811115610d6657610d656117fe565b5b0217905550610e21600560019054906101000a900473ffffffffffffffffffffffffffffffffffffffff1660068054610d9e906116b5565b80601f0160208091040260200160405190810160405280929190818152602001828054610dca906116b5565b8015610e175780601f10610dec57610100808354040283529160200191610e17565b820191906000526020600020905b815481529060010190602001808311610dfa57829003601f168201915b50505050506104f0565b505b505050565b606082471015610e6d576040517f08c379a0000000000000000000000000000000000000000000000000000000008152600401610e6490611be5565b60405180910390fd5b6000808673ffffffffffffffffffffffffffffffffffffffff168587604051610e969190611c41565b60006040518083038185875af1925050503d8060008114610ed3576040519150601f19603f3d011682016040523d82523d6000602084013e610ed8565b606091505b5091509150610ee987838387610eff565b92505050949350505050565b505050565b505050565b60608315610f6257600083511415610f5a57610f1a85610f75565b610f59576040517f08c379a0000000000000000000000000000000000000000000000000000000008152600401610f5090611ca4565b60405180910390fd5b5b829050610f6d565b610f6c8383610f98565b5b949350505050565b6000808273ffffffffffffffffffffffffffffffffffffffff163b119050919050565b600082511115610fab5781518083602001fd5b806040517f08c379a0000000000000000000000000000000000000000000000000000000008152600401610fdf9190611124565b60405180910390fd5b828054610ff4906116b5565b90600052602060002090601f016020900481019282611016576000855561105d565b82601f1061102f57803560ff191683800117855561105d565b8280016001018555821561105d579182015b8281111561105c578235825591602001919060010190611041565b5b50905061106a919061106e565b5090565b5b8082111561108757600081600090555060010161106f565b5090565b600081519050919050565b600082825260208201905092915050565b60005b838110156110c55780820151818401526020810190506110aa565b838111156110d4576000848401525b50505050565b6000601f19601f8301169050919050565b60006110f68261108b565b6111008185611096565b93506111108185602086016110a7565b611119816110da565b840191505092915050565b6000602082019050818103600083015261113e81846110eb565b905092915050565b6000604051905090565b600080fd5b600080fd5b600073ffffffffffffffffffffffffffffffffffffffff82169050919050565b60006111858261115a565b9050919050565b6111958161117a565b81146111a057600080fd5b50565b6000813590506111b28161118c565b92915050565b6000819050919050565b6111cb816111b8565b81146111d657600080fd5b50565b6000813590506111e8816111c2565b92915050565b6000806040838503121561120557611204611150565b5b6000611213858286016111a3565b9250506020611224858286016111d9565b9150509250929050565b60008115159050919050565b6112438161122e565b82525050565b600060208201905061125e600083018461123a565b92915050565b61126d816111b8565b82525050565b60006020820190506112886000830184611264565b92915050565b6000806000606084860312156112a7576112a6611150565b5b60006112b5868287016111a3565b93505060206112c6868287016111a3565b92505060406112d7868287016111d9565b9150509250925092565b600060ff82169050919050565b6112f7816112e1565b82525050565b600060208201905061131260008301846112ee565b92915050565b60006020828403121561132e5761132d611150565b5b600061133c848285016111a3565b91505092915050565b600080fd5b600080fd5b7f4e487b7100000000000000000000000000000000000000000000000000000000600052604160045260246000fd5b611387826110da565b810181811067ffffffffffffffff821117156113a6576113a561134f565b5b80604052505050565b60006113b9611146565b90506113c5828261137e565b919050565b600067ffffffffffffffff8211156113e5576113e461134f565b5b6113ee826110da565b9050602081019050919050565b82818337600083830152505050565b600061141d611418846113ca565b6113af565b9050828152602081018484840111156114395761143861134a565b5b6114448482856113fb565b509392505050565b600082601f83011261146157611460611345565b5b813561147184826020860161140a565b91505092915050565b6000806040838503121561149157611490611150565b5b600061149f858286016111a3565b925050602083013567ffffffffffffffff8111156114c0576114bf611155565b5b6114cc8582860161144c565b9150509250929050565b600081519050919050565b600082825260208201905092915050565b60006114fd826114d6565b61150781856114e1565b93506115178185602086016110a7565b611520816110da565b840191505092915050565b6000602082019050818103600083015261154581846114f2565b905092915050565b6003811061155a57600080fd5b50565b60008135905061156c8161154d565b92915050565b600080fd5b600080fd5b60008083601f84011261159257611591611345565b5b8235905067ffffffffffffffff8111156115af576115ae611572565b5b6020830191508360018202830111156115cb576115ca611577565b5b9250929050565b600080600080606085870312156115ec576115eb611150565b5b60006115fa8782880161155d565b945050602061160b878288016111a3565b935050604085013567ffffffffffffffff81111561162c5761162b611155565b5b6116388782880161157c565b925092505092959194509250565b6000806040838503121561165d5761165c611150565b5b600061166b858286016111a3565b925050602061167c858286016111a3565b9150509250929050565b7f4e487b7100000000000000000000000000000000000000000000000000000000600052602260045260246000fd5b600060028204905060018216806116cd57607f821691505b602082108114156116e1576116e0611686565b5b50919050565b7f4e487b7100000000000000000000000000000000000000000000000000000000600052601160045260246000fd5b6000611721826111b8565b915061172c836111b8565b9250827fffffffffffffffffffffffffffffffffffffffffffffffffffffffffffffffff03821115611761576117606116e7565b5b828201905092915050565b7f45524332303a2064656372656173656420616c6c6f77616e63652062656c6f7760008201527f207a65726f000000000000000000000000000000000000000000000000000000602082015250565b60006117c8602583611096565b91506117d38261176c565b604082019050919050565b600060208201905081810360008301526117f7816117bb565b9050919050565b7f4e487b7100000000000000000000000000000000000000000000000000000000600052602160045260246000fd5b7f45524332303a20617070726f76652066726f6d20746865207a65726f2061646460008201527f7265737300000000000000000000000000000000000000000000000000000000602082015250565b6000611889602483611096565b91506118948261182d565b604082019050919050565b600060208201905081810360008301526118b88161187c565b9050919050565b7f45524332303a20617070726f766520746f20746865207a65726f20616464726560008201527f7373000000000000000000000000000000000000000000000000000000000000602082015250565b600061191b602283611096565b9150611926826118bf565b604082019050919050565b6000602082019050818103600083015261194a8161190e565b9050919050565b7f45524332303a20696e73756666696369656e7420616c6c6f77616e6365000000600082015250565b6000611987601d83611096565b915061199282611951565b602082019050919050565b600060208201905081810360008301526119b68161197a565b9050919050565b7f45524332303a207472616e736665722066726f6d20746865207a65726f20616460008201527f6472657373000000000000000000000000000000000000000000000000000000602082015250565b6000611a19602583611096565b9150611a24826119bd565b604082019050919050565b60006020820190508181036000830152611a4881611a0c565b9050919050565b7f45524332303a207472616e7366657220746f20746865207a65726f206164647260008201527f6573730000000000000000000000000000000000000000000000000000000000602082015250565b6000611aab602383611096565b9150611ab682611a4f565b604082019050919050565b60006020820190508181036000830152611ada81611a9e565b9050919050565b7f45524332303a207472616e7366657220616d6f756e742065786365656473206260008201527f616c616e63650000000000000000000000000000000000000000000000000000602082015250565b6000611b3d602683611096565b9150611b4882611ae1565b604082019050919050565b60006020820190508181036000830152611b6c81611b30565b9050919050565b7f416464726573733a20696e73756666696369656e742062616c616e636520666f60008201527f722063616c6c0000000000000000000000000000000000000000000000000000602082015250565b6000611bcf602683611096565b9150611bda82611b73565b604082019050919050565b60006020820190508181036000830152611bfe81611bc2565b9050919050565b600081905092915050565b6000611c1b826114d6565b611c258185611c05565b9350611c358185602086016110a7565b80840191505092915050565b6000611c4d8284611c10565b915081905092915050565b7f416464726573733a2063616c6c20746f206e6f6e2d636f6e7472616374000000600082015250565b6000611c8e601d83611096565b9150611c9982611c58565b602082019050919050565b60006020820190508181036000830152611cbd81611c81565b905091905056fea2646970667358221220c2751c4ec51b76c1c7b37a0d1dd8fd0270194d33cf2d61e3c273e3c89ecb510464736f6c63430008090033",
  "linkReferences": {},
  "deployedLinkReferences": {}
}