{
  "_format": "hh-sol-artifact-1",
  "contractName": "MyGovernor",
  "sourceName": "contracts/oz_contracts/mocks/wizard/MyGovernor3.sol",
  "abi": [
    {
      "inputs": [
        {
          "internalType": "contract IVotes",
          "name": "_token",
          "type": "address"
        },
        {
          "internalType": "contract TimelockController",
          "name": "_timelock",
          "type": "address"
        }
      ],
      "stateMutability": "nonpayable",
      "type": "constructor"
    },
    {
      "inputs": [],
      "name": "Empty",
      "type": "error"
    },
    {
      "inputs": [],
      "name": "InvalidShortString",
      "type": "error"
    },
    {
      "inputs": [
        {
          "internalType": "string",
          "name": "str",
          "type": "string"
        }
      ],
      "name": "StringTooLong",
      "type": "error"
    },
    {
      "anonymous": false,
      "inputs": [],
      "name": "EIP712DomainChanged",
      "type": "event"
    },
    {
      "anonymous": false,
      "inputs": [
        {
          "indexed": false,
          "internalType": "uint256",
          "name": "proposalId",
          "type": "uint256"
        }
      ],
      "name": "ProposalCanceled",
      "type": "event"
    },
    {
      "anonymous": false,
      "inputs": [
        {
          "indexed": false,
          "internalType": "uint256",
          "name": "proposalId",
          "type": "uint256"
        },
        {
          "indexed": false,
          "internalType": "address",
          "name": "proposer",
          "type": "address"
        },
        {
          "indexed": false,
          "internalType": "address[]",
          "name": "targets",
          "type": "address[]"
        },
        {
          "indexed": false,
          "internalType": "uint256[]",
          "name": "values",
          "type": "uint256[]"
        },
        {
          "indexed": false,
          "internalType": "string[]",
          "name": "signatures",
          "type": "string[]"
        },
        {
          "indexed": false,
          "internalType": "bytes[]",
          "name": "calldatas",
          "type": "bytes[]"
        },
        {
          "indexed": false,
          "internalType": "uint256",
          "name": "voteStart",
          "type": "uint256"
        },
        {
          "indexed": false,
          "internalType": "uint256",
          "name": "voteEnd",
          "type": "uint256"
        },
        {
          "indexed": false,
          "internalType": "string",
          "name": "description",
          "type": "string"
        }
      ],
      "name": "ProposalCreated",
      "type": "event"
    },
    {
      "anonymous": false,
      "inputs": [
        {
          "indexed": false,
          "internalType": "uint256",
          "name": "proposalId",
          "type": "uint256"
        }
      ],
      "name": "ProposalExecuted",
      "type": "event"
    },
    {
      "anonymous": false,
      "inputs": [
        {
          "indexed": false,
          "internalType": "uint256",
          "name": "proposalId",
          "type": "uint256"
        },
        {
          "indexed": false,
          "internalType": "uint256",
          "name": "eta",
          "type": "uint256"
        }
      ],
      "name": "ProposalQueued",
      "type": "event"
    },
    {
      "anonymous": false,
      "inputs": [
        {
          "indexed": false,
          "internalType": "uint256",
          "name": "oldQuorumNumerator",
          "type": "uint256"
        },
        {
          "indexed": false,
          "internalType": "uint256",
          "name": "newQuorumNumerator",
          "type": "uint256"
        }
      ],
      "name": "QuorumNumeratorUpdated",
      "type": "event"
    },
    {
      "anonymous": false,
      "inputs": [
        {
          "indexed": false,
          "internalType": "address",
          "name": "oldTimelock",
          "type": "address"
        },
        {
          "indexed": false,
          "internalType": "address",
          "name": "newTimelock",
          "type": "address"
        }
      ],
      "name": "TimelockChange",
      "type": "event"
    },
    {
      "anonymous": false,
      "inputs": [
        {
          "indexed": true,
          "internalType": "address",
          "name": "voter",
          "type": "address"
        },
        {
          "indexed": false,
          "internalType": "uint256",
          "name": "proposalId",
          "type": "uint256"
        },
        {
          "indexed": false,
          "internalType": "uint8",
          "name": "support",
          "type": "uint8"
        },
        {
          "indexed": false,
          "internalType": "uint256",
          "name": "weight",
          "type": "uint256"
        },
        {
          "indexed": false,
          "internalType": "string",
          "name": "reason",
          "type": "string"
        }
      ],
      "name": "VoteCast",
      "type": "event"
    },
    {
      "anonymous": false,
      "inputs": [
        {
          "indexed": true,
          "internalType": "address",
          "name": "voter",
          "type": "address"
        },
        {
          "indexed": false,
          "internalType": "uint256",
          "name": "proposalId",
          "type": "uint256"
        },
        {
          "indexed": false,
          "internalType": "uint8",
          "name": "support",
          "type": "uint8"
        },
        {
          "indexed": false,
          "internalType": "uint256",
          "name": "weight",
          "type": "uint256"
        },
        {
          "indexed": false,
          "internalType": "string",
          "name": "reason",
          "type": "string"
        },
        {
          "indexed": false,
          "internalType": "bytes",
          "name": "params",
          "type": "bytes"
        }
      ],
      "name": "VoteCastWithParams",
      "type": "event"
    },
    {
      "inputs": [],
      "name": "BALLOT_TYPEHASH",
      "outputs": [
        {
          "internalType": "bytes32",
          "name": "",
          "type": "bytes32"
        }
      ],
      "stateMutability": "view",
      "type": "function"
    },
    {
      "inputs": [],
      "name": "CLOCK_MODE",
      "outputs": [
        {
          "internalType": "string",
          "name": "",
          "type": "string"
        }
      ],
      "stateMutability": "view",
      "type": "function"
    },
    {
      "inputs": [],
      "name": "COUNTING_MODE",
      "outputs": [
        {
          "internalType": "string",
          "name": "",
          "type": "string"
        }
      ],
      "stateMutability": "pure",
      "type": "function"
    },
    {
      "inputs": [],
      "name": "EXTENDED_BALLOT_TYPEHASH",
      "outputs": [
        {
          "internalType": "bytes32",
          "name": "",
          "type": "bytes32"
        }
      ],
      "stateMutability": "view",
      "type": "function"
    },
    {
      "inputs": [
        {
          "internalType": "uint256",
          "name": "proposalId",
          "type": "uint256"
        }
      ],
      "name": "cancel",
      "outputs": [],
      "stateMutability": "nonpayable",
      "type": "function"
    },
    {
      "inputs": [
        {
          "internalType": "address[]",
          "name": "targets",
          "type": "address[]"
        },
        {
          "internalType": "uint256[]",
          "name": "values",
          "type": "uint256[]"
        },
        {
          "internalType": "bytes[]",
          "name": "calldatas",
          "type": "bytes[]"
        },
        {
          "internalType": "bytes32",
          "name": "descriptionHash",
          "type": "bytes32"
        }
      ],
      "name": "cancel",
      "outputs": [
        {
          "internalType": "uint256",
          "name": "",
          "type": "uint256"
        }
      ],
      "stateMutability": "nonpayable",
      "type": "function"
    },
    {
      "inputs": [
        {
          "internalType": "uint256",
          "name": "proposalId",
          "type": "uint256"
        },
        {
          "internalType": "uint8",
          "name": "support",
          "type": "uint8"
        }
      ],
      "name": "castVote",
      "outputs": [
        {
          "internalType": "uint256",
          "name": "",
          "type": "uint256"
        }
      ],
      "stateMutability": "nonpayable",
      "type": "function"
    },
    {
      "inputs": [
        {
          "internalType": "uint256",
          "name": "proposalId",
          "type": "uint256"
        },
        {
          "internalType": "uint8",
          "name": "support",
          "type": "uint8"
        },
        {
          "internalType": "uint8",
          "name": "v",
          "type": "uint8"
        },
        {
          "internalType": "bytes32",
          "name": "r",
          "type": "bytes32"
        },
        {
          "internalType": "bytes32",
          "name": "s",
          "type": "bytes32"
        }
      ],
      "name": "castVoteBySig",
      "outputs": [
        {
          "internalType": "uint256",
          "name": "",
          "type": "uint256"
        }
      ],
      "stateMutability": "nonpayable",
      "type": "function"
    },
    {
      "inputs": [
        {
          "internalType": "uint256",
          "name": "proposalId",
          "type": "uint256"
        },
        {
          "internalType": "uint8",
          "name": "support",
          "type": "uint8"
        },
        {
          "internalType": "string",
          "name": "reason",
          "type": "string"
        }
      ],
      "name": "castVoteWithReason",
      "outputs": [
        {
          "internalType": "uint256",
          "name": "",
          "type": "uint256"
        }
      ],
      "stateMutability": "nonpayable",
      "type": "function"
    },
    {
      "inputs": [
        {
          "internalType": "uint256",
          "name": "proposalId",
          "type": "uint256"
        },
        {
          "internalType": "uint8",
          "name": "support",
          "type": "uint8"
        },
        {
          "internalType": "string",
          "name": "reason",
          "type": "string"
        },
        {
          "internalType": "bytes",
          "name": "params",
          "type": "bytes"
        }
      ],
      "name": "castVoteWithReasonAndParams",
      "outputs": [
        {
          "internalType": "uint256",
          "name": "",
          "type": "uint256"
        }
      ],
      "stateMutability": "nonpayable",
      "type": "function"
    },
    {
      "inputs": [
        {
          "internalType": "uint256",
          "name": "proposalId",
          "type": "uint256"
        },
        {
          "internalType": "uint8",
          "name": "support",
          "type": "uint8"
        },
        {
          "internalType": "string",
          "name": "reason",
          "type": "string"
        },
        {
          "internalType": "bytes",
          "name": "params",
          "type": "bytes"
        },
        {
          "internalType": "uint8",
          "name": "v",
          "type": "uint8"
        },
        {
          "internalType": "bytes32",
          "name": "r",
          "type": "bytes32"
        },
        {
          "internalType": "bytes32",
          "name": "s",
          "type": "bytes32"
        }
      ],
      "name": "castVoteWithReasonAndParamsBySig",
      "outputs": [
        {
          "internalType": "uint256",
          "name": "",
          "type": "uint256"
        }
      ],
      "stateMutability": "nonpayable",
      "type": "function"
    },
    {
      "inputs": [],
      "name": "clock",
      "outputs": [
        {
          "internalType": "uint48",
          "name": "",
          "type": "uint48"
        }
      ],
      "stateMutability": "view",
      "type": "function"
    },
    {
      "inputs": [],
      "name": "eip712Domain",
      "outputs": [
        {
          "internalType": "bytes1",
          "name": "fields",
          "type": "bytes1"
        },
        {
          "internalType": "string",
          "name": "name",
          "type": "string"
        },
        {
          "internalType": "string",
          "name": "version",
          "type": "string"
        },
        {
          "internalType": "uint256",
          "name": "chainId",
          "type": "uint256"
        },
        {
          "internalType": "address",
          "name": "verifyingContract",
          "type": "address"
        },
        {
          "internalType": "bytes32",
          "name": "salt",
          "type": "bytes32"
        },
        {
          "internalType": "uint256[]",
          "name": "extensions",
          "type": "uint256[]"
        }
      ],
      "stateMutability": "view",
      "type": "function"
    },
    {
      "inputs": [
        {
          "internalType": "address[]",
          "name": "targets",
          "type": "address[]"
        },
        {
          "internalType": "uint256[]",
          "name": "values",
          "type": "uint256[]"
        },
        {
          "internalType": "bytes[]",
          "name": "calldatas",
          "type": "bytes[]"
        },
        {
          "internalType": "bytes32",
          "name": "descriptionHash",
          "type": "bytes32"
        }
      ],
      "name": "execute",
      "outputs": [
        {
          "internalType": "uint256",
          "name": "",
          "type": "uint256"
        }
      ],
      "stateMutability": "payable",
      "type": "function"
    },
    {
      "inputs": [
        {
          "internalType": "uint256",
          "name": "proposalId",
          "type": "uint256"
        }
      ],
      "name": "execute",
      "outputs": [],
      "stateMutability": "payable",
      "type": "function"
    },
    {
      "inputs": [
        {
          "internalType": "uint256",
          "name": "proposalId",
          "type": "uint256"
        }
      ],
      "name": "getActions",
      "outputs": [
        {
          "internalType": "address[]",
          "name": "targets",
          "type": "address[]"
        },
        {
          "internalType": "uint256[]",
          "name": "values",
          "type": "uint256[]"
        },
        {
          "internalType": "string[]",
          "name": "signatures",
          "type": "string[]"
        },
        {
          "internalType": "bytes[]",
          "name": "calldatas",
          "type": "bytes[]"
        }
      ],
      "stateMutability": "view",
      "type": "function"
    },
    {
      "inputs": [
        {
          "internalType": "uint256",
          "name": "proposalId",
          "type": "uint256"
        },
        {
          "internalType": "address",
          "name": "voter",
          "type": "address"
        }
      ],
      "name": "getReceipt",
      "outputs": [
        {
          "components": [
            {
              "internalType": "bool",
              "name": "hasVoted",
              "type": "bool"
            },
            {
              "internalType": "uint8",
              "name": "support",
              "type": "uint8"
            },
            {
              "internalType": "uint96",
              "name": "votes",
              "type": "uint96"
            }
          ],
          "internalType": "struct IGovernorCompatibilityBravo.Receipt",
          "name": "",
          "type": "tuple"
        }
      ],
      "stateMutability": "view",
      "type": "function"
    },
    {
      "inputs": [
        {
          "internalType": "address",
          "name": "account",
          "type": "address"
        },
        {
          "internalType": "uint256",
          "name": "timepoint",
          "type": "uint256"
        }
      ],
      "name": "getVotes",
      "outputs": [
        {
          "internalType": "uint256",
          "name": "",
          "type": "uint256"
        }
      ],
      "stateMutability": "view",
      "type": "function"
    },
    {
      "inputs": [
        {
          "internalType": "address",
          "name": "account",
          "type": "address"
        },
        {
          "internalType": "uint256",
          "name": "timepoint",
          "type": "uint256"
        },
        {
          "internalType": "bytes",
          "name": "params",
          "type": "bytes"
        }
      ],
      "name": "getVotesWithParams",
      "outputs": [
        {
          "internalType": "uint256",
          "name": "",
          "type": "uint256"
        }
      ],
      "stateMutability": "view",
      "type": "function"
    },
    {
      "inputs": [
        {
          "internalType": "uint256",
          "name": "proposalId",
          "type": "uint256"
        },
        {
          "internalType": "address",
          "name": "account",
          "type": "address"
        }
      ],
      "name": "hasVoted",
      "outputs": [
        {
          "internalType": "bool",
          "name": "",
          "type": "bool"
        }
      ],
      "stateMutability": "view",
      "type": "function"
    },
    {
      "inputs": [
        {
          "internalType": "address[]",
          "name": "targets",
          "type": "address[]"
        },
        {
          "internalType": "uint256[]",
          "name": "values",
          "type": "uint256[]"
        },
        {
          "internalType": "bytes[]",
          "name": "calldatas",
          "type": "bytes[]"
        },
        {
          "internalType": "bytes32",
          "name": "descriptionHash",
          "type": "bytes32"
        }
      ],
      "name": "hashProposal",
      "outputs": [
        {
          "internalType": "uint256",
          "name": "",
          "type": "uint256"
        }
      ],
      "stateMutability": "pure",
      "type": "function"
    },
    {
      "inputs": [],
      "name": "name",
      "outputs": [
        {
          "internalType": "string",
          "name": "",
          "type": "string"
        }
      ],
      "stateMutability": "view",
      "type": "function"
    },
    {
      "inputs": [
        {
          "internalType": "address",
          "name": "",
          "type": "address"
        },
        {
          "internalType": "address",
          "name": "",
          "type": "address"
        },
        {
          "internalType": "uint256[]",
          "name": "",
          "type": "uint256[]"
        },
        {
          "internalType": "uint256[]",
          "name": "",
          "type": "uint256[]"
        },
        {
          "internalType": "bytes",
          "name": "",
          "type": "bytes"
        }
      ],
      "name": "onERC1155BatchReceived",
      "outputs": [
        {
          "internalType": "bytes4",
          "name": "",
          "type": "bytes4"
        }
      ],
      "stateMutability": "nonpayable",
      "type": "function"
    },
    {
      "inputs": [
        {
          "internalType": "address",
          "name": "",
          "type": "address"
        },
        {
          "internalType": "address",
          "name": "",
          "type": "address"
        },
        {
          "internalType": "uint256",
          "name": "",
          "type": "uint256"
        },
        {
          "internalType": "uint256",
          "name": "",
          "type": "uint256"
        },
        {
          "internalType": "bytes",
          "name": "",
          "type": "bytes"
        }
      ],
      "name": "onERC1155Received",
      "outputs": [
        {
          "internalType": "bytes4",
          "name": "",
          "type": "bytes4"
        }
      ],
      "stateMutability": "nonpayable",
      "type": "function"
    },
    {
      "inputs": [
        {
          "internalType": "address",
          "name": "",
          "type": "address"
        },
        {
          "internalType": "address",
          "name": "",
          "type": "address"
        },
        {
          "internalType": "uint256",
          "name": "",
          "type": "uint256"
        },
        {
          "internalType": "bytes",
          "name": "",
          "type": "bytes"
        }
      ],
      "name": "onERC721Received",
      "outputs": [
        {
          "internalType": "bytes4",
          "name": "",
          "type": "bytes4"
        }
      ],
      "stateMutability": "nonpayable",
      "type": "function"
    },
    {
      "inputs": [
        {
          "internalType": "uint256",
          "name": "proposalId",
          "type": "uint256"
        }
      ],
      "name": "proposalDeadline",
      "outputs": [
        {
          "internalType": "uint256",
          "name": "",
          "type": "uint256"
        }
      ],
      "stateMutability": "view",
      "type": "function"
    },
    {
      "inputs": [
        {
          "internalType": "uint256",
          "name": "proposalId",
          "type": "uint256"
        }
      ],
      "name": "proposalEta",
      "outputs": [
        {
          "internalType": "uint256",
          "name": "",
          "type": "uint256"
        }
      ],
      "stateMutability": "view",
      "type": "function"
    },
    {
      "inputs": [
        {
          "internalType": "uint256",
          "name": "proposalId",
          "type": "uint256"
        }
      ],
      "name": "proposalProposer",
      "outputs": [
        {
          "internalType": "address",
          "name": "",
          "type": "address"
        }
      ],
      "stateMutability": "view",
      "type": "function"
    },
    {
      "inputs": [
        {
          "internalType": "uint256",
          "name": "proposalId",
          "type": "uint256"
        }
      ],
      "name": "proposalSnapshot",
      "outputs": [
        {
          "internalType": "uint256",
          "name": "",
          "type": "uint256"
        }
      ],
      "stateMutability": "view",
      "type": "function"
    },
    {
      "inputs": [],
      "name": "proposalThreshold",
      "outputs": [
        {
          "internalType": "uint256",
          "name": "",
          "type": "uint256"
        }
      ],
      "stateMutability": "pure",
      "type": "function"
    },
    {
      "inputs": [
        {
          "internalType": "uint256",
          "name": "proposalId",
          "type": "uint256"
        }
      ],
      "name": "proposals",
      "outputs": [
        {
          "internalType": "uint256",
          "name": "id",
          "type": "uint256"
        },
        {
          "internalType": "address",
          "name": "proposer",
          "type": "address"
        },
        {
          "internalType": "uint256",
          "name": "eta",
          "type": "uint256"
        },
        {
          "internalType": "uint256",
          "name": "startBlock",
          "type": "uint256"
        },
        {
          "internalType": "uint256",
          "name": "endBlock",
          "type": "uint256"
        },
        {
          "internalType": "uint256",
          "name": "forVotes",
          "type": "uint256"
        },
        {
          "internalType": "uint256",
          "name": "againstVotes",
          "type": "uint256"
        },
        {
          "internalType": "uint256",
          "name": "abstainVotes",
          "type": "uint256"
        },
        {
          "internalType": "bool",
          "name": "canceled",
          "type": "bool"
        },
        {
          "internalType": "bool",
          "name": "executed",
          "type": "bool"
        }
      ],
      "stateMutability": "view",
      "type": "function"
    },
    {
      "inputs": [
        {
          "internalType": "address[]",
          "name": "targets",
          "type": "address[]"
        },
        {
          "internalType": "uint256[]",
          "name": "values",
          "type": "uint256[]"
        },
        {
          "internalType": "bytes[]",
          "name": "calldatas",
          "type": "bytes[]"
        },
        {
          "internalType": "string",
          "name": "description",
          "type": "string"
        }
      ],
      "name": "propose",
      "outputs": [
        {
          "internalType": "uint256",
          "name": "",
          "type": "uint256"
        }
      ],
      "stateMutability": "nonpayable",
      "type": "function"
    },
    {
      "inputs": [
        {
          "internalType": "address[]",
          "name": "targets",
          "type": "address[]"
        },
        {
          "internalType": "uint256[]",
          "name": "values",
          "type": "uint256[]"
        },
        {
          "internalType": "string[]",
          "name": "signatures",
          "type": "string[]"
        },
        {
          "internalType": "bytes[]",
          "name": "calldatas",
          "type": "bytes[]"
        },
        {
          "internalType": "string",
          "name": "description",
          "type": "string"
        }
      ],
      "name": "propose",
      "outputs": [
        {
          "internalType": "uint256",
          "name": "",
          "type": "uint256"
        }
      ],
      "stateMutability": "nonpayable",
      "type": "function"
    },
    {
      "inputs": [
        {
          "internalType": "address[]",
          "name": "targets",
          "type": "address[]"
        },
        {
          "internalType": "uint256[]",
          "name": "values",
          "type": "uint256[]"
        },
        {
          "internalType": "bytes[]",
          "name": "calldatas",
          "type": "bytes[]"
        },
        {
          "internalType": "bytes32",
          "name": "descriptionHash",
          "type": "bytes32"
        }
      ],
      "name": "queue",
      "outputs": [
        {
          "internalType": "uint256",
          "name": "",
          "type": "uint256"
        }
      ],
      "stateMutability": "nonpayable",
      "type": "function"
    },
    {
      "inputs": [
        {
          "internalType": "uint256",
          "name": "proposalId",
          "type": "uint256"
        }
      ],
      "name": "queue",
      "outputs": [],
      "stateMutability": "nonpayable",
      "type": "function"
    },
    {
      "inputs": [
        {
          "internalType": "uint256",
          "name": "blockNumber",
          "type": "uint256"
        }
      ],
      "name": "quorum",
      "outputs": [
        {
          "internalType": "uint256",
          "name": "",
          "type": "uint256"
        }
      ],
      "stateMutability": "view",
      "type": "function"
    },
    {
      "inputs": [],
      "name": "quorumDenominator",
      "outputs": [
        {
          "internalType": "uint256",
          "name": "",
          "type": "uint256"
        }
      ],
      "stateMutability": "view",
      "type": "function"
    },
    {
      "inputs": [
        {
          "internalType": "uint256",
          "name": "timepoint",
          "type": "uint256"
        }
      ],
      "name": "quorumNumerator",
      "outputs": [
        {
          "internalType": "uint256",
          "name": "",
          "type": "uint256"
        }
      ],
      "stateMutability": "view",
      "type": "function"
    },
    {
      "inputs": [],
      "name": "quorumNumerator",
      "outputs": [
        {
          "internalType": "uint256",
          "name": "",
          "type": "uint256"
        }
      ],
      "stateMutability": "view",
      "type": "function"
    },
    {
      "inputs": [],
      "name": "quorumVotes",
      "outputs": [
        {
          "internalType": "uint256",
          "name": "",
          "type": "uint256"
        }
      ],
      "stateMutability": "view",
      "type": "function"
    },
    {
      "inputs": [
        {
          "internalType": "address",
          "name": "target",
          "type": "address"
        },
        {
          "internalType": "uint256",
          "name": "value",
          "type": "uint256"
        },
        {
          "internalType": "bytes",
          "name": "data",
          "type": "bytes"
        }
      ],
      "name": "relay",
      "outputs": [],
      "stateMutability": "payable",
      "type": "function"
    },
    {
      "inputs": [
        {
          "internalType": "uint256",
          "name": "proposalId",
          "type": "uint256"
        }
      ],
      "name": "state",
      "outputs": [
        {
          "internalType": "enum IGovernor.ProposalState",
          "name": "",
          "type": "uint8"
        }
      ],
      "stateMutability": "view",
      "type": "function"
    },
    {
      "inputs": [
        {
          "internalType": "bytes4",
          "name": "interfaceId",
          "type": "bytes4"
        }
      ],
      "name": "supportsInterface",
      "outputs": [
        {
          "internalType": "bool",
          "name": "",
          "type": "bool"
        }
      ],
      "stateMutability": "view",
      "type": "function"
    },
    {
      "inputs": [],
      "name": "timelock",
      "outputs": [
        {
          "internalType": "address",
          "name": "",
          "type": "address"
        }
      ],
      "stateMutability": "view",
      "type": "function"
    },
    {
      "inputs": [],
      "name": "token",
      "outputs": [
        {
          "internalType": "contract IERC5805",
          "name": "",
          "type": "address"
        }
      ],
      "stateMutability": "view",
      "type": "function"
    },
    {
      "inputs": [
        {
          "internalType": "uint256",
          "name": "newQuorumNumerator",
          "type": "uint256"
        }
      ],
      "name": "updateQuorumNumerator",
      "outputs": [],
      "stateMutability": "nonpayable",
      "type": "function"
    },
    {
      "inputs": [
        {
          "internalType": "contract TimelockController",
          "name": "newTimelock",
          "type": "address"
        }
      ],
      "name": "updateTimelock",
      "outputs": [],
      "stateMutability": "nonpayable",
      "type": "function"
    },
    {
      "inputs": [],
      "name": "version",
      "outputs": [
        {
          "internalType": "string",
          "name": "",
          "type": "string"
        }
      ],
      "stateMutability": "view",
      "type": "function"
    },
    {
      "inputs": [],
      "name": "votingDelay",
      "outputs": [
        {
          "internalType": "uint256",
          "name": "",
          "type": "uint256"
        }
      ],
      "stateMutability": "pure",
      "type": "function"
    },
    {
      "inputs": [],
      "name": "votingPeriod",
      "outputs": [
        {
          "internalType": "uint256",
          "name": "",
          "type": "uint256"
        }
      ],
      "stateMutability": "pure",
      "type": "function"
    },
    {
      "stateMutability": "payable",
      "type": "receive"
    }
  ],
  "bytecode": "0x6101806040523480156200001257600080fd5b506040516200a1893803806200a189833981810160405281019062000038919062000df0565b600482826040518060400160405280600a81526020017f4d79476f7665726e6f72000000000000000000000000000000000000000000008152508062000083620001b960201b60201c565b6200009e600083620001f660201b620026b41790919060201c565b6101208181525050620000c1600182620001f660201b620026b41790919060201c565b6101408181525050818051906020012060e08181525050808051906020012061010081815250504660a08181525050620001006200025a60201b60201c565b608081815250503073ffffffffffffffffffffffffffffffffffffffff1660c08173ffffffffffffffffffffffffffffffffffffffff1681525050505080600290805190602001906200015592919062000c69565b50506200016881620002b760201b60201c565b508073ffffffffffffffffffffffffffffffffffffffff166101608173ffffffffffffffffffffffffffffffffffffffff168152505050620001b0816200035860201b60201c565b505050620014e8565b60606040518060400160405280600181526020017f3100000000000000000000000000000000000000000000000000000000000000815250905090565b60006020835110156200021c5762000214836200057a60201b60201c565b905062000254565b826200023383620005e760201b620026ff1760201c565b60000190805190602001906200024b92919062000c69565b5060ff60001b90505b92915050565b60007f8b73c3c69bb8fe3d512ecc4cf759cc79239f7b179b0ffacaa9a75d522b39400f60e0516101005146306040516020016200029c95949392919062000e7e565b60405160208183030381529060405280519060200120905090565b7f08f74ea46ef7894f65eabfb5e6e695de773a000b47c529ab559178069b226401600660009054906101000a900473ffffffffffffffffffffffffffffffffffffffff16826040516200030c92919062000edb565b60405180910390a180600660006101000a81548173ffffffffffffffffffffffffffffffffffffffff021916908373ffffffffffffffffffffffffffffffffffffffff16021790555050565b62000368620005f160201b60201c565b811115620003ad576040517f08c379a0000000000000000000000000000000000000000000000000000000008152600401620003a49062000fb5565b60405180910390fd5b6000620003bf620005fa60201b60201c565b905060008114158015620003db57506000600a60000180549050145b15620004db57600a6000016040518060400160405280600063ffffffff16815260200162000414846200065060201b620027091760201c565b7bffffffffffffffffffffffffffffffffffffffffffffffffffffffff168152509080600181540180825580915050600190039060005260206000200160009091909190915060008201518160000160006101000a81548163ffffffff021916908363ffffffff16021790555060208201518160000160046101000a8154817bffffffffffffffffffffffffffffffffffffffffffffffffffffffff02191690837bffffffffffffffffffffffffffffffffffffffffffffffffffffffff16021790555050505b620005396200050c620004f3620006be60201b60201c565b65ffffffffffff166200076960201b620027741760201c565b62000522846200065060201b620027091760201c565b600a620007bf60201b620027c7179092919060201c565b50507f0553476bf02ef2726e8ce5ced78d63e26e602e4a2257b1f559418e24b463399781836040516200056e92919062000fd7565b60405180910390a15050565b600080829050601f81511115620005ca57826040517f305a27a9000000000000000000000000000000000000000000000000000000008152600401620005c1919062001097565b60405180910390fd5b805181620005d890620010fa565b60001c1760001b915050919050565b6000819050919050565b60006064905090565b600080600a6000018054905014620006475762000623600a620007e460201b620027e41760201c565b7bffffffffffffffffffffffffffffffffffffffffffffffffffffffff166200064b565b6009545b905090565b60007bffffffffffffffffffffffffffffffffffffffffffffffffffffffff8016821115620006b6576040517f08c379a0000000000000000000000000000000000000000000000000000000008152600401620006ad90620011e0565b60405180910390fd5b819050919050565b60006101605173ffffffffffffffffffffffffffffffffffffffff166391ddadf46040518163ffffffff1660e01b815260040160206040518083038186803b1580156200070a57600080fd5b505afa9250505080156200073e57506040513d601f19601f820116820180604052508101906200073b919062001245565b60015b620007615762000759436200085a60201b6200284e1760201c565b905062000766565b809150505b90565b600063ffffffff8016821115620007b7576040517f08c379a0000000000000000000000000000000000000000000000000000000008152600401620007ae90620012ed565b60405180910390fd5b819050919050565b600080620007d8856000018585620008b260201b60201c565b91509150935093915050565b60008082600001805490509050600081146200084f576200081d836000016001836200081191906200133e565b62000c5460201b60201c565b60000160049054906101000a90047bffffffffffffffffffffffffffffffffffffffffffffffffffffffff1662000852565b60005b915050919050565b600065ffffffffffff8016821115620008aa576040517f08c379a0000000000000000000000000000000000000000000000000000000008152600401620008a190620013ef565b60405180910390fd5b819050919050565b600080600085805490509050600081111562000b64576000620008ea87600184620008de91906200133e565b62000c5460201b60201c565b6040518060400160405290816000820160009054906101000a900463ffffffff1663ffffffff1663ffffffff1681526020016000820160049054906101000a90047bffffffffffffffffffffffffffffffffffffffffffffffffffffffff167bffffffffffffffffffffffffffffffffffffffffffffffffffffffff167bffffffffffffffffffffffffffffffffffffffffffffffffffffffff168152505090508563ffffffff16816000015163ffffffff161115620009e1576040517f08c379a0000000000000000000000000000000000000000000000000000000008152600401620009d89062001461565b60405180910390fd5b8563ffffffff16816000015163ffffffff16141562000a72578462000a1b8860018562000a0f91906200133e565b62000c5460201b60201c565b60000160046101000a8154817bffffffffffffffffffffffffffffffffffffffffffffffffffffffff02191690837bffffffffffffffffffffffffffffffffffffffffffffffffffffffff16021790555062000b52565b8660405180604001604052808863ffffffff168152602001877bffffffffffffffffffffffffffffffffffffffffffffffffffffffff168152509080600181540180825580915050600190039060005260206000200160009091909190915060008201518160000160006101000a81548163ffffffff021916908363ffffffff16021790555060208201518160000160046101000a8154817bffffffffffffffffffffffffffffffffffffffffffffffffffffffff02191690837bffffffffffffffffffffffffffffffffffffffffffffffffffffffff16021790555050505b80602001518593509350505062000c4c565b8560405180604001604052808763ffffffff168152602001867bffffffffffffffffffffffffffffffffffffffffffffffffffffffff168152509080600181540180825580915050600190039060005260206000200160009091909190915060008201518160000160006101000a81548163ffffffff021916908363ffffffff16021790555060208201518160000160046101000a8154817bffffffffffffffffffffffffffffffffffffffffffffffffffffffff02191690837bffffffffffffffffffffffffffffffffffffffffffffffffffffffff160217905550505060008492509250505b935093915050565b60008260005281602060002001905092915050565b82805462000c7790620014b2565b90600052602060002090601f01602090048101928262000c9b576000855562000ce7565b82601f1062000cb657805160ff191683800117855562000ce7565b8280016001018555821562000ce7579182015b8281111562000ce657825182559160200191906001019062000cc9565b5b50905062000cf6919062000cfa565b5090565b5b8082111562000d1557600081600090555060010162000cfb565b5090565b600080fd5b600073ffffffffffffffffffffffffffffffffffffffff82169050919050565b600062000d4b8262000d1e565b9050919050565b600062000d5f8262000d3e565b9050919050565b62000d718162000d52565b811462000d7d57600080fd5b50565b60008151905062000d918162000d66565b92915050565b600062000da48262000d1e565b9050919050565b600062000db88262000d97565b9050919050565b62000dca8162000dab565b811462000dd657600080fd5b50565b60008151905062000dea8162000dbf565b92915050565b6000806040838503121562000e0a5762000e0962000d19565b5b600062000e1a8582860162000d80565b925050602062000e2d8582860162000dd9565b9150509250929050565b6000819050919050565b62000e4c8162000e37565b82525050565b6000819050919050565b62000e678162000e52565b82525050565b62000e788162000d3e565b82525050565b600060a08201905062000e95600083018862000e41565b62000ea4602083018762000e41565b62000eb3604083018662000e41565b62000ec2606083018562000e5c565b62000ed1608083018462000e6d565b9695505050505050565b600060408201905062000ef2600083018562000e6d565b62000f01602083018462000e6d565b9392505050565b600082825260208201905092915050565b7f476f7665726e6f72566f74657351756f72756d4672616374696f6e3a2071756f60008201527f72756d4e756d657261746f72206f7665722071756f72756d44656e6f6d696e6160208201527f746f720000000000000000000000000000000000000000000000000000000000604082015250565b600062000f9d60438362000f08565b915062000faa8262000f19565b606082019050919050565b6000602082019050818103600083015262000fd08162000f8e565b9050919050565b600060408201905062000fee600083018562000e5c565b62000ffd602083018462000e5c565b9392505050565b600081519050919050565b60005b838110156200102f57808201518184015260208101905062001012565b838111156200103f576000848401525b50505050565b6000601f19601f8301169050919050565b6000620010638262001004565b6200106f818562000f08565b9350620010818185602086016200100f565b6200108c8162001045565b840191505092915050565b60006020820190508181036000830152620010b3818462001056565b905092915050565b600081519050919050565b6000819050602082019050919050565b6000620010e4825162000e37565b80915050919050565b600082821b905092915050565b60006200110782620010bb565b826200111384620010c6565b90506200112081620010d6565b9250602082101562001163576200115e7fffffffffffffffffffffffffffffffffffffffffffffffffffffffffffffffff83602003600802620010ed565b831692505b5050919050565b7f53616665436173743a2076616c756520646f65736e27742066697420696e203260008201527f3234206269747300000000000000000000000000000000000000000000000000602082015250565b6000620011c860278362000f08565b9150620011d5826200116a565b604082019050919050565b60006020820190508181036000830152620011fb81620011b9565b9050919050565b600065ffffffffffff82169050919050565b6200121f8162001202565b81146200122b57600080fd5b50565b6000815190506200123f8162001214565b92915050565b6000602082840312156200125e576200125d62000d19565b5b60006200126e848285016200122e565b91505092915050565b7f53616665436173743a2076616c756520646f65736e27742066697420696e203360008201527f3220626974730000000000000000000000000000000000000000000000000000602082015250565b6000620012d560268362000f08565b9150620012e28262001277565b604082019050919050565b600060208201905081810360008301526200130881620012c6565b9050919050565b7f4e487b7100000000000000000000000000000000000000000000000000000000600052601160045260246000fd5b60006200134b8262000e52565b9150620013588362000e52565b9250828210156200136e576200136d6200130f565b5b828203905092915050565b7f53616665436173743a2076616c756520646f65736e27742066697420696e203460008201527f3820626974730000000000000000000000000000000000000000000000000000602082015250565b6000620013d760268362000f08565b9150620013e48262001379565b604082019050919050565b600060208201905081810360008301526200140a81620013c8565b9050919050565b7f436865636b706f696e743a2064656372656173696e67206b6579730000000000600082015250565b600062001449601b8362000f08565b9150620014568262001411565b602082019050919050565b600060208201905081810360008301526200147c816200143a565b9050919050565b7f4e487b7100000000000000000000000000000000000000000000000000000000600052602260045260246000fd5b60006002820490506001821680620014cb57607f821691505b60208210811415620014e257620014e162001483565b5b50919050565b60805160a05160c05160e05161010051610120516101405161016051618c1f6200156a60003960008181611a3c01528181611ef0015281816126670152818161373b0152613b1d01526000611e3101526000611dfd01526000615212015260006151f10152600061420301526000614259015260006142820152618c1f6000f3fe6080604052600436106102cd5760003560e01c80637b3c71d311610175578063c28bc2fa116100dc578063deaaa7cc11610095578063f23a6e611161006f578063f23a6e6114610cca578063f8ce560a14610d07578063fc0c546a14610d44578063fe0d94c114610d6f57610349565b8063deaaa7cc14610c25578063e23a9a5214610c50578063eb9019d414610c8d57610349565b8063c28bc2fa14610b10578063c59057e414610b2c578063d33219b414610b69578063da95691a14610b94578063dd4e2ba514610bd1578063ddf0b00914610bfc57610349565b8063a7713a701161012e578063a7713a70146109da578063a890c91014610a05578063ab58fb8e14610a2e578063b58131b014610a6b578063bc197c8114610a96578063c01f9e3714610ad357610349565b80637b3c71d31461089c5780637d5e81e2146108d957806384b0196e1461091657806391ddadf41461094757806397c3d334146109725780639a802a6d1461099d57610349565b80632fe3e2611161023457806343859632116101ed57806354fd4d50116101c757806354fd4d50146107ba57806356781388146107e55780635f398a141461082257806360c4247f1461085f57610349565b80634385963214610715578063452115d6146107525780634bf5d7e91461078f57610349565b80632fe3e261146105dc578063328dd982146106075780633932abb1146106475780633bccf4fd146106725780633e4f49e6146106af57806340e58ee5146106ec57610349565b8063143489d011610286578063143489d01461048d578063150b7a02146104ca578063160cbed71461050757806324bc1a64146105445780632656227d1461056f5780632d63f6931461059f57610349565b8063013cf08b1461034e57806301ffc9a71461039457806302a251a3146103d157806303420181146103fc57806306f3f9e61461043957806306fdde031461046257610349565b36610349573073ffffffffffffffffffffffffffffffffffffffff166102f1610d8b565b73ffffffffffffffffffffffffffffffffffffffff1614610347576040517f08c379a000000000000000000000000000000000000000000000000000000000815260040161033e90615b4c565b60405180910390fd5b005b600080fd5b34801561035a57600080fd5b5061037560048036038101906103709190615bb6565b610d9a565b60405161038b9a99989796959493929190615c4e565b60405180910390f35b3480156103a057600080fd5b506103bb60048036038101906103b69190615d42565b610e8f565b6040516103c89190615d6f565b60405180910390f35b3480156103dd57600080fd5b506103e6610ea1565b6040516103f39190615d8a565b60405180910390f35b34801561040857600080fd5b50610423600480360381019061041e9190615fba565b610eab565b6040516104309190615d8a565b60405180910390f35b34801561044557600080fd5b50610460600480360381019061045b9190615bb6565b610f90565b005b34801561046e57600080fd5b5061047761108c565b604051610484919061610f565b60405180910390f35b34801561049957600080fd5b506104b460048036038101906104af9190615bb6565b61111e565b6040516104c19190616131565b60405180910390f35b3480156104d657600080fd5b506104f160048036038101906104ec9190616178565b61115e565b6040516104fe919061620a565b60405180910390f35b34801561051357600080fd5b5061052e6004803603810190610529919061648c565b611172565b60405161053b9190615d8a565b60405180910390f35b34801561055057600080fd5b5061055961144a565b6040516105669190615d8a565b60405180910390f35b6105896004803603810190610584919061648c565b611475565b6040516105969190615d8a565b60405180910390f35b3480156105ab57600080fd5b506105c660048036038101906105c19190615bb6565b6115c3565b6040516105d39190615d8a565b60405180910390f35b3480156105e857600080fd5b506105f1611601565b6040516105fe9190616556565b60405180910390f35b34801561061357600080fd5b5061062e60048036038101906106299190615bb6565b611625565b60405161063e9493929190616910565b60405180910390f35b34801561065357600080fd5b5061065c6118e2565b6040516106699190615d8a565b60405180910390f35b34801561067e57600080fd5b5061069960048036038101906106949190616971565b6118eb565b6040516106a69190615d8a565b60405180910390f35b3480156106bb57600080fd5b506106d660048036038101906106d19190615bb6565b611975565b6040516106e39190616a63565b60405180910390f35b3480156106f857600080fd5b50610713600480360381019061070e9190615bb6565b611987565b005b34801561072157600080fd5b5061073c60048036038101906107379190616a7e565b6119b2565b6040516107499190615d6f565b60405180910390f35b34801561075e57600080fd5b506107796004803603810190610774919061648c565b611a20565b6040516107869190615d8a565b60405180910390f35b34801561079b57600080fd5b506107a4611a38565b6040516107b1919061610f565b60405180910390f35b3480156107c657600080fd5b506107cf611b1f565b6040516107dc919061610f565b60405180910390f35b3480156107f157600080fd5b5061080c60048036038101906108079190616abe565b611b5c565b6040516108199190615d8a565b60405180910390f35b34801561082e57600080fd5b5061084960048036038101906108449190616afe565b611b8d565b6040516108569190615d8a565b60405180910390f35b34801561086b57600080fd5b5061088660048036038101906108819190615bb6565b611bf7565b6040516108939190615d8a565b60405180910390f35b3480156108a857600080fd5b506108c360048036038101906108be9190616ba2565b611d6a565b6040516108d09190615d8a565b60405180910390f35b3480156108e557600080fd5b5061090060048036038101906108fb9190616cb7565b611dd2565b60405161090d9190615d8a565b60405180910390f35b34801561092257600080fd5b5061092b611dea565b60405161093e9796959493929190616dc9565b60405180910390f35b34801561095357600080fd5b5061095c611eec565b6040516109699190616e6e565b60405180910390f35b34801561097e57600080fd5b50610987611fa1565b6040516109949190615d8a565b60405180910390f35b3480156109a957600080fd5b506109c460048036038101906109bf9190616e89565b611faa565b6040516109d19190615d8a565b60405180910390f35b3480156109e657600080fd5b506109ef611fc0565b6040516109fc9190615d8a565b60405180910390f35b348015610a1157600080fd5b50610a2c6004803603810190610a279190616f48565b612007565b005b348015610a3a57600080fd5b50610a556004803603810190610a509190615bb6565b612103565b604051610a629190615d8a565b60405180910390f35b348015610a7757600080fd5b50610a806121df565b604051610a8d9190615d8a565b60405180910390f35b348015610aa257600080fd5b50610abd6004803603810190610ab89190616f75565b6121f0565b604051610aca919061620a565b60405180910390f35b348015610adf57600080fd5b50610afa6004803603810190610af59190615bb6565b612205565b604051610b079190615d8a565b60405180910390f35b610b2a6004803603810190610b25919061709a565b612243565b005b348015610b3857600080fd5b50610b536004803603810190610b4e919061648c565b6123d1565b604051610b609190615d8a565b60405180910390f35b348015610b7557600080fd5b50610b7e61240d565b604051610b8b9190616131565b60405180910390f35b348015610ba057600080fd5b50610bbb6004803603810190610bb691906171ef565b612437565b604051610bc89190615d8a565b60405180910390f35b348015610bdd57600080fd5b50610be66124b2565b604051610bf3919061610f565b60405180910390f35b348015610c0857600080fd5b50610c236004803603810190610c1e9190615bb6565b6124ef565b005b348015610c3157600080fd5b50610c3a61251a565b604051610c479190616556565b60405180910390f35b348015610c5c57600080fd5b50610c776004803603810190610c729190616a7e565b61253e565b604051610c84919061737d565b60405180910390f35b348015610c9957600080fd5b50610cb46004803603810190610caf9190617398565b612622565b604051610cc19190615d8a565b60405180910390f35b348015610cd657600080fd5b50610cf16004803603810190610cec91906173d8565b61263e565b604051610cfe919061620a565b60405180910390f35b348015610d1357600080fd5b50610d2e6004803603810190610d299190615bb6565b612653565b604051610d3b9190615d8a565b60405180910390f35b348015610d5057600080fd5b50610d59612665565b604051610d6691906174ce565b60405180910390f35b610d896004803603810190610d849190615bb6565b612689565b005b6000610d956128a3565b905090565b6000806000806000806000806000808a9950610db58b612103565b9750610dc08b6115c3565b9650610dcb8b612205565b95506000600860008d815260200190815260200160002090508060000160009054906101000a900473ffffffffffffffffffffffffffffffffffffffff1699508060050154955080600601549450806007015493506000610e2b8d611975565b905060026007811115610e4157610e406169ec565b5b816007811115610e5457610e536169ec565b5b149350600780811115610e6a57610e696169ec565b5b816007811115610e7d57610e7c6169ec565b5b14925050509193959799509193959799565b6000610e9a826128cd565b9050919050565b600061b2fa905090565b600080610f2e610f267fb3b3f3b703cd84ce352197dcff232b1b5d3cfb2025ce47cf04742d0651f1af888c8c8c8c604051610ee7929190617519565b60405180910390208b80519060200120604051602001610f0b959493929190617541565b60405160208183030381529060405280519060200120612947565b868686612961565b9050610f818a828b8b8b8080601f016020809104026020016040519081016040528093929190818152602001838380828437600081840152601f19601f820116905080830192505050505050508a61298c565b91505098975050505050505050565b610f98610d8b565b73ffffffffffffffffffffffffffffffffffffffff16610fb6612b19565b73ffffffffffffffffffffffffffffffffffffffff161461100c576040517f08c379a0000000000000000000000000000000000000000000000000000000008152600401611003906175e0565b60405180910390fd5b3073ffffffffffffffffffffffffffffffffffffffff1661102b610d8b565b73ffffffffffffffffffffffffffffffffffffffff1614611080576000611050612b21565b60405161105e929190617519565b604051809103902090505b806110746004612b2e565b1461107e57611069565b505b61108981612c0a565b50565b60606002805461109b9061762f565b80601f01602080910402602001604051908101604052809291908181526020018280546110c79061762f565b80156111145780601f106110e957610100808354040283529160200191611114565b820191906000526020600020905b8154815290600101906020018083116110f757829003601f168201915b5050505050905090565b60006003600083815260200190815260200160002060000160089054906101000a900473ffffffffffffffffffffffffffffffffffffffff169050919050565b600063150b7a0260e01b9050949350505050565b600080611181868686866123d1565b905060046007811115611197576111966169ec565b5b6111a082611975565b60078111156111b2576111b16169ec565b5b146111f2576040517f08c379a00000000000000000000000000000000000000000000000000000000081526004016111e9906176d3565b60405180910390fd5b6000600660009054906101000a900473ffffffffffffffffffffffffffffffffffffffff1673ffffffffffffffffffffffffffffffffffffffff1663f27a0c926040518163ffffffff1660e01b815260040160206040518083038186803b15801561125c57600080fd5b505afa158015611270573d6000803e3d6000fd5b505050506040513d601f19601f820116820180604052508101906112949190617708565b9050600660009054906101000a900473ffffffffffffffffffffffffffffffffffffffff1673ffffffffffffffffffffffffffffffffffffffff1663b1c5f4278888886000896040518663ffffffff1660e01b81526004016112fa95949392919061777d565b60206040518083038186803b15801561131257600080fd5b505afa158015611326573d6000803e3d6000fd5b505050506040513d601f19601f8201168201806040525081019061134a91906177fa565b6007600084815260200190815260200160002081905550600660009054906101000a900473ffffffffffffffffffffffffffffffffffffffff1673ffffffffffffffffffffffffffffffffffffffff16638f2a0bb0888888600089876040518763ffffffff1660e01b81526004016113c796959493929190617827565b600060405180830381600087803b1580156113e157600080fd5b505af11580156113f5573d6000803e3d6000fd5b505050507f9a2e42fd6722813d69113e7d0079d3d940171428df7373df9c7f7617cfda289282824261142791906178cc565b604051611435929190617922565b60405180910390a18192505050949350505050565b60006114706001611459611eec565b611463919061794b565b65ffffffffffff16612653565b905090565b600080611484868686866123d1565b9050600061149182611975565b9050600460078111156114a7576114a66169ec565b5b8160078111156114ba576114b96169ec565b5b14806114ea5750600560078111156114d5576114d46169ec565b5b8160078111156114e8576114e76169ec565b5b145b611529576040517f08c379a0000000000000000000000000000000000000000000000000000000008152600401611520906176d3565b60405180910390fd5b60016003600084815260200190815260200160002060020160006101000a81548160ff0219169083151502179055507f712ae1383f79ac853f8d882153778e0260ef8f03b504e2866e0593e04d2b291f826040516115879190615d8a565b60405180910390a161159c8288888888612ddf565b6115a98288888888612ec3565b6115b68288888888612ed7565b8192505050949350505050565b60006003600083815260200190815260200160002060000160009054906101000a900467ffffffffffffffff1667ffffffffffffffff169050919050565b7fb3b3f3b703cd84ce352197dcff232b1b5d3cfb2025ce47cf04742d0651f1af8881565b606080606080600060086000878152602001908152602001600020905080600101816002018260030183600401838054806020026020016040519081016040528092919081815260200182805480156116d357602002820191906000526020600020905b8160009054906101000a900473ffffffffffffffffffffffffffffffffffffffff1673ffffffffffffffffffffffffffffffffffffffff1681526020019060010190808311611689575b505050505093508280548060200260200160405190810160405280929190818152602001828054801561172557602002820191906000526020600020905b815481526020019060010190808311611711575b5050505050925081805480602002602001604051908101604052809291908181526020016000905b828210156117f957838290600052602060002001805461176c9061762f565b80601f01602080910402602001604051908101604052809291908181526020018280546117989061762f565b80156117e55780601f106117ba576101008083540402835291602001916117e5565b820191906000526020600020905b8154815290600101906020018083116117c857829003601f168201915b50505050508152602001906001019061174d565b50505050915080805480602002602001604051908101604052809291908181526020016000905b828210156118cc57838290600052602060002001805461183f9061762f565b80601f016020809104026020016040519081016040528092919081815260200182805461186b9061762f565b80156118b85780601f1061188d576101008083540402835291602001916118b8565b820191906000526020600020905b81548152906001019060200180831161189b57829003601f168201915b505050505081526020019060010190611820565b5050505090509450945094509450509193509193565b60006001905090565b60008061194c6119447f150214d74d59b7d1e90c73fc22ef3d991dd0a76b046543d4d80ab92d2a50328f89896040516020016119299392919061797f565b60405160208183030381529060405280519060200120612947565b868686612961565b905061196987828860405180602001604052806000815250612f32565b91505095945050505050565b600061198082612f52565b9050919050565b60008060008061199685613144565b93509350935093506119aa84848484611a20565b505050505050565b60006008600084815260200190815260200160002060080160008373ffffffffffffffffffffffffffffffffffffffff1673ffffffffffffffffffffffffffffffffffffffff16815260200190815260200160002060000160009054906101000a900460ff16905092915050565b6000611a2e85858585613408565b9050949350505050565b60607f000000000000000000000000000000000000000000000000000000000000000073ffffffffffffffffffffffffffffffffffffffff16634bf5d7e96040518163ffffffff1660e01b815260040160006040518083038186803b158015611aa057600080fd5b505afa925050508015611ad657506040513d6000823e3d601f19601f82011682018060405250810190611ad39190617a26565b60015b611b17576040518060400160405280601d81526020017f6d6f64653d626c6f636b6e756d6265722666726f6d3d64656661756c740000008152509050611b1c565b809150505b90565b60606040518060400160405280600181526020017f3100000000000000000000000000000000000000000000000000000000000000815250905090565b600080611b67612b19565b9050611b8484828560405180602001604052806000815250612f32565b91505092915050565b600080611b98612b19565b9050611beb87828888888080601f016020809104026020016040519081016040528093929190818152602001838380828437600081840152601f19601f820116905080830192505050505050508761298c565b91505095945050505050565b600080600a6000018054905090506000811415611c1957600954915050611d65565b6000600a600001600183611c2d9190617a6f565b81548110611c3e57611c3d617aa3565b5b906000526020600020016040518060400160405290816000820160009054906101000a900463ffffffff1663ffffffff1663ffffffff1681526020016000820160049054906101000a90047bffffffffffffffffffffffffffffffffffffffffffffffffffffffff167bffffffffffffffffffffffffffffffffffffffffffffffffffffffff167bffffffffffffffffffffffffffffffffffffffffffffffffffffffff1681525050905083816000015163ffffffff1611611d265780602001517bffffffffffffffffffffffffffffffffffffffffffffffffffffffff1692505050611d65565b611d42611d3285612774565b600a61351690919063ffffffff16565b7bffffffffffffffffffffffffffffffffffffffffffffffffffffffff16925050505b919050565b600080611d75612b19565b9050611dc786828787878080601f016020809104026020016040519081016040528093929190818152602001838380828437600081840152601f19601f82011690508083019250505050505050612f32565b915050949350505050565b6000611de08585858561360c565b9050949350505050565b600060608060008060006060611e2a60007f000000000000000000000000000000000000000000000000000000000000000061368790919063ffffffff16565b611e5e60017f000000000000000000000000000000000000000000000000000000000000000061368790919063ffffffff16565b46306000801b600067ffffffffffffffff811115611e7f57611e7e615e59565b5b604051908082528060200260200182016040528015611ead5781602001602082028036833780820191505090505b507f0f00000000000000000000000000000000000000000000000000000000000000959493929190965096509650965096509650965090919293949596565b60007f000000000000000000000000000000000000000000000000000000000000000073ffffffffffffffffffffffffffffffffffffffff166391ddadf46040518163ffffffff1660e01b815260040160206040518083038186803b158015611f5457600080fd5b505afa925050508015611f8557506040513d601f19601f82011682018060405250810190611f829190617afe565b60015b611f9957611f924361284e565b9050611f9e565b809150505b90565b60006064905090565b6000611fb7848484613737565b90509392505050565b600080600a6000018054905014611ffe57611fdb600a6127e4565b7bffffffffffffffffffffffffffffffffffffffffffffffffffffffff16612002565b6009545b905090565b61200f610d8b565b73ffffffffffffffffffffffffffffffffffffffff1661202d612b19565b73ffffffffffffffffffffffffffffffffffffffff1614612083576040517f08c379a000000000000000000000000000000000000000000000000000000000815260040161207a906175e0565b60405180910390fd5b3073ffffffffffffffffffffffffffffffffffffffff166120a2610d8b565b73ffffffffffffffffffffffffffffffffffffffff16146120f75760006120c7612b21565b6040516120d5929190617519565b604051809103902090505b806120eb6004612b2e565b146120f5576120e0565b505b612100816137ed565b50565b600080600660009054906101000a900473ffffffffffffffffffffffffffffffffffffffff1673ffffffffffffffffffffffffffffffffffffffff1663d45c443560076000868152602001908152602001600020546040518263ffffffff1660e01b81526004016121749190616556565b60206040518083038186803b15801561218c57600080fd5b505afa1580156121a0573d6000803e3d6000fd5b505050506040513d601f19601f820116820180604052508101906121c49190617708565b9050600181146121d457806121d7565b60005b915050919050565b6000683635c9adc5dea00000905090565b600063bc197c8160e01b905095945050505050565b60006003600083815260200190815260200160002060010160009054906101000a900467ffffffffffffffff1667ffffffffffffffff169050919050565b61224b610d8b565b73ffffffffffffffffffffffffffffffffffffffff16612269612b19565b73ffffffffffffffffffffffffffffffffffffffff16146122bf576040517f08c379a00000000000000000000000000000000000000000000000000000000081526004016122b6906175e0565b60405180910390fd5b3073ffffffffffffffffffffffffffffffffffffffff166122de610d8b565b73ffffffffffffffffffffffffffffffffffffffff1614612333576000612303612b21565b604051612311929190617519565b604051809103902090505b806123276004612b2e565b146123315761231c565b505b6000808573ffffffffffffffffffffffffffffffffffffffff1685858560405161235e929190617519565b60006040518083038185875af1925050503d806000811461239b576040519150601f19603f3d011682016040523d82523d6000602084013e6123a0565b606091505b50915091506123c88282604051806060016040528060288152602001618bc26028913961388c565b50505050505050565b6000848484846040516020016123ea9493929190617b2b565b6040516020818303038152906040528051906020012060001c9050949350505050565b6000600660009054906101000a900473ffffffffffffffffffffffffffffffffffffffff16905090565b6000825184511461247d576040517f08c379a000000000000000000000000000000000000000000000000000000000815260040161247490617bf7565b60405180910390fd5b612492612488612b19565b87878787876138ae565b6124a786866124a187876139b5565b85611dd2565b905095945050505050565b60606040518060400160405280601a81526020017f737570706f72743d627261766f2671756f72756d3d627261766f000000000000815250905090565b6000806000806124fe85613144565b935093509350935061251284848484611172565b505050505050565b7f150214d74d59b7d1e90c73fc22ef3d991dd0a76b046543d4d80ab92d2a50328f81565b612546615733565b6008600084815260200190815260200160002060080160008373ffffffffffffffffffffffffffffffffffffffff1673ffffffffffffffffffffffffffffffffffffffff1681526020019081526020016000206040518060600160405290816000820160009054906101000a900460ff161515151581526020016000820160019054906101000a900460ff1660ff1660ff1681526020016000820160029054906101000a90046bffffffffffffffffffffffff166bffffffffffffffffffffffff166bffffffffffffffffffffffff1681525050905092915050565b60006126368383612631613af1565b613737565b905092915050565b600063f23a6e6160e01b905095945050505050565b600061265e82613b08565b9050919050565b7f000000000000000000000000000000000000000000000000000000000000000081565b60008060008061269885613144565b93509350935093506126ac84848484611475565b505050505050565b60006020835110156126d0576126c983613bdf565b90506126f9565b826126da836126ff565b60000190805190602001906126f0929190615767565b5060ff60001b90505b92915050565b6000819050919050565b60007bffffffffffffffffffffffffffffffffffffffffffffffffffffffff801682111561276c576040517f08c379a000000000000000000000000000000000000000000000000000000000815260040161276390617c89565b60405180910390fd5b819050919050565b600063ffffffff80168211156127bf576040517f08c379a00000000000000000000000000000000000000000000000000000000081526004016127b690617d1b565b60405180910390fd5b819050919050565b6000806127d8856000018585613c47565b91509150935093915050565b6000808260000180549050905060008114612843576128128360000160018361280d9190617a6f565b613fce565b60000160049054906101000a90047bffffffffffffffffffffffffffffffffffffffffffffffffffffffff16612846565b60005b915050919050565b600065ffffffffffff801682111561289b576040517f08c379a000000000000000000000000000000000000000000000000000000000815260040161289290617dad565b60405180910390fd5b819050919050565b6000600660009054906101000a900473ffffffffffffffffffffffffffffffffffffffff16905090565b60007f6e665ced000000000000000000000000000000000000000000000000000000007bffffffffffffffffffffffffffffffffffffffffffffffffffffffff1916827bffffffffffffffffffffffffffffffffffffffffffffffffffffffff19161480612940575061293f82613fe3565b5b9050919050565b600061295a6129546141ff565b836142b6565b9050919050565b6000806000612972878787876142f7565b9150915061297f816143da565b8192505050949350505050565b600080600360008881526020019081526020016000209050600160078111156129b8576129b76169ec565b5b6129c188611975565b60078111156129d3576129d26169ec565b5b14612a13576040517f08c379a0000000000000000000000000000000000000000000000000000000008152600401612a0a90617e3f565b60405180910390fd5b6000612a42878360000160009054906101000a900467ffffffffffffffff1667ffffffffffffffff1686613737565b9050612a518888888488614548565b600084511415612ab4578673ffffffffffffffffffffffffffffffffffffffff167fb8e138887d0aa13bab447e82de9d5c1777041ecd21ca36ba824ff1e6c07ddda489888489604051612aa79493929190617e5f565b60405180910390a2612b0b565b8673ffffffffffffffffffffffffffffffffffffffff167fe2babfbac5889a709b63bb7f598b324e08bc5a4fb9ec647fb3cbc9ec07eb87128988848989604051612b02959493929190617ef5565b60405180910390a25b809250505095945050505050565b600033905090565b3660008036915091509091565b6000612b3982614773565b15612b70576040517f3db2a12a00000000000000000000000000000000000000000000000000000000815260040160405180910390fd5b60008260000160009054906101000a9004600f0b905082600101600082600f0b600f0b815260200190815260200160002054915082600101600082600f0b600f0b815260200190815260200160002060009055600181018360000160006101000a8154816fffffffffffffffffffffffffffffffff0219169083600f0b6fffffffffffffffffffffffffffffffff16021790555050919050565b612c12611fa1565b811115612c54576040517f08c379a0000000000000000000000000000000000000000000000000000000008152600401612c4b90617fee565b60405180910390fd5b6000612c5e611fc0565b905060008114158015612c7957506000600a60000180549050145b15612d6b57600a6000016040518060400160405280600063ffffffff168152602001612ca484612709565b7bffffffffffffffffffffffffffffffffffffffffffffffffffffffff168152509080600181540180825580915050600190039060005260206000200160009091909190915060008201518160000160006101000a81548163ffffffff021916908363ffffffff16021790555060208201518160000160046101000a8154817bffffffffffffffffffffffffffffffffffffffffffffffffffffffff02191690837bffffffffffffffffffffffffffffffffffffffffffffffffffffffff16021790555050505b612da0612d86612d79611eec565b65ffffffffffff16612774565b612d8f84612709565b600a6127c79092919063ffffffff16565b50507f0553476bf02ef2726e8ce5ced78d63e26e602e4a2257b1f559418e24b46339978183604051612dd3929190617922565b60405180910390a15050565b3073ffffffffffffffffffffffffffffffffffffffff16612dfe610d8b565b73ffffffffffffffffffffffffffffffffffffffff1614612ebc5760005b8451811015612eba573073ffffffffffffffffffffffffffffffffffffffff16858281518110612e4f57612e4e617aa3565b5b602002602001015173ffffffffffffffffffffffffffffffffffffffff161415612ea957612ea8838281518110612e8957612e88617aa3565b5b60200260200101518051906020012060046147a890919063ffffffff16565b5b80612eb39061800e565b9050612e1c565b505b5050505050565b612ed08585858585614824565b5050505050565b3073ffffffffffffffffffffffffffffffffffffffff16612ef6610d8b565b73ffffffffffffffffffffffffffffffffffffffff1614612f2b57612f1b6004614773565b612f2a57612f2960046148c2565b5b5b5050505050565b6000612f4885858585612f43613af1565b61298c565b9050949350505050565b600080612f5e83614943565b905060046007811115612f7457612f736169ec565b5b816007811115612f8757612f866169ec565b5b14612f95578091505061313f565b6000600760008581526020019081526020016000205490506000801b811415612fc257819250505061313f565b600660009054906101000a900473ffffffffffffffffffffffffffffffffffffffff1673ffffffffffffffffffffffffffffffffffffffff16632ab0f529826040518263ffffffff1660e01b815260040161301d9190616556565b60206040518083038186803b15801561303557600080fd5b505afa158015613049573d6000803e3d6000fd5b505050506040513d601f19601f8201168201806040525081019061306d9190618083565b1561307d5760079250505061313f565b600660009054906101000a900473ffffffffffffffffffffffffffffffffffffffff1673ffffffffffffffffffffffffffffffffffffffff1663584b153e826040518263ffffffff1660e01b81526004016130d89190616556565b60206040518083038186803b1580156130f057600080fd5b505afa158015613104573d6000803e3d6000fd5b505050506040513d601f19601f820116820180604052508101906131289190618083565b156131385760059250505061313f565b6002925050505b919050565b6060806060600080600860008781526020019081526020016000209050806001018160020161331983600301805480602002602001604051908101604052809291908181526020016000905b8282101561323c5783829060005260206000200180546131af9061762f565b80601f01602080910402602001604051908101604052809291908181526020018280546131db9061762f565b80156132285780601f106131fd57610100808354040283529160200191613228565b820191906000526020600020905b81548152906001019060200180831161320b57829003601f168201915b505050505081526020019060010190613190565b5050505084600401805480602002602001604051908101604052809291908181526020016000905b828210156133105783829060005260206000200180546132839061762f565b80601f01602080910402602001604051908101604052809291908181526020018280546132af9061762f565b80156132fc5780601f106132d1576101008083540402835291602001916132fc565b820191906000526020600020905b8154815290600101906020018083116132df57829003601f168201915b505050505081526020019060010190613264565b505050506139b5565b83600901548380548060200260200160405190810160405280929190818152602001828054801561339f57602002820191906000526020600020905b8160009054906101000a900473ffffffffffffffffffffffffffffffffffffffff1673ffffffffffffffffffffffffffffffffffffffff1681526020019060010190808311613355575b50505050509350828054806020026020016040519081016040528092919081815260200182805480156133f157602002820191906000526020600020905b8154815260200190600101908083116133dd575b505050505092509450945094509450509193509193565b600080613417868686866123d1565b905060006008600083815260200190815260200160002060000160009054906101000a900473ffffffffffffffffffffffffffffffffffffffff1690508073ffffffffffffffffffffffffffffffffffffffff16613473612b19565b73ffffffffffffffffffffffffffffffffffffffff1614806134bf57506134986121df565b6134bd8260016134a6611eec565b6134b0919061794b565b65ffffffffffff16612622565b105b6134fe576040517f08c379a00000000000000000000000000000000000000000000000000000000081526004016134f590618122565b60405180910390fd5b61350a87878787614a70565b92505050949350505050565b60008083600001805490509050600080829050600583111561359857600061353d84614a88565b846135489190617a6f565b90506135578760000182613fce565b60000160009054906101000a900463ffffffff1663ffffffff168663ffffffff16101561358657809150613596565b60018161359391906178cc565b92505b505b60006135a987600001878585614b82565b9050600081146135fd576135cc876000016001836135c79190617a6f565b613fce565b60000160049054906101000a90047bffffffffffffffffffffffffffffffffffffffffffffffffffffffff16613600565b60005b94505050505092915050565b6000613671613619612b19565b8686865167ffffffffffffffff81111561363657613635615e59565b5b60405190808252806020026020018201604052801561366957816020015b60608152602001906001900390816136545790505b5087876138ae565b61367d85858585614bf5565b9050949350505050565b606060ff60001b83146136a45761369d8361509e565b9050613731565b8180546136b09061762f565b80601f01602080910402602001604051908101604052809291908181526020018280546136dc9061762f565b80156137295780601f106136fe57610100808354040283529160200191613729565b820191906000526020600020905b81548152906001019060200180831161370c57829003601f168201915b505050505090505b92915050565b60007f000000000000000000000000000000000000000000000000000000000000000073ffffffffffffffffffffffffffffffffffffffff16633a46b1a885856040518363ffffffff1660e01b8152600401613794929190618142565b60206040518083038186803b1580156137ac57600080fd5b505afa1580156137c0573d6000803e3d6000fd5b505050506040513d601f19601f820116820180604052508101906137e49190617708565b90509392505050565b7f08f74ea46ef7894f65eabfb5e6e695de773a000b47c529ab559178069b226401600660009054906101000a900473ffffffffffffffffffffffffffffffffffffffff168260405161384092919061816b565b60405180910390a180600660006101000a81548173ffffffffffffffffffffffffffffffffffffffff021916908373ffffffffffffffffffffffffffffffffffffffff16021790555050565b6060831561389c578290506138a7565b6138a68383615112565b5b9392505050565b60008180519060200120905060006138d187876138cb88886139b5565b856123d1565b905060006008600083815260200190815260200160002090506000801b816009015414156139aa57888160000160006101000a81548173ffffffffffffffffffffffffffffffffffffffff021916908373ffffffffffffffffffffffffffffffffffffffff160217905550878160010190805190602001906139549291906157ed565b508681600201908051906020019061396d929190615877565b50858160030190805190602001906139869291906158c4565b508481600401908051906020019061399f929190615924565b508281600901819055505b505050505050505050565b60606000825167ffffffffffffffff8111156139d4576139d3615e59565b5b604051908082528060200260200182016040528015613a0757816020015b60608152602001906001900390816139f25790505b50905060005b8151811015613ae6576000858281518110613a2b57613a2a617aa3565b5b60200260200101515114613a9b57848181518110613a4c57613a4b617aa3565b5b602002602001015180519060200120848281518110613a6e57613a6d617aa3565b5b6020026020010151604051602001613a879291906181e6565b604051602081830303815290604052613ab7565b838181518110613aae57613aad617aa3565b5b60200260200101515b828281518110613aca57613ac9617aa3565b5b602002602001018190525080613adf9061800e565b9050613a0d565b508091505092915050565b606060405180602001604052806000815250905090565b6000613b12611fa1565b613b1b83611bf7565b7f000000000000000000000000000000000000000000000000000000000000000073ffffffffffffffffffffffffffffffffffffffff16638e539e8c856040518263ffffffff1660e01b8152600401613b749190615d8a565b60206040518083038186803b158015613b8c57600080fd5b505afa158015613ba0573d6000803e3d6000fd5b505050506040513d601f19601f82011682018060405250810190613bc49190617708565b613bce919061820e565b613bd89190618297565b9050919050565b600080829050601f81511115613c2c57826040517f305a27a9000000000000000000000000000000000000000000000000000000008152600401613c23919061610f565b60405180910390fd5b805181613c38906182fa565b60001c1760001b915050919050565b6000806000858054905090506000811115613ede576000613c7487600184613c6f9190617a6f565b613fce565b6040518060400160405290816000820160009054906101000a900463ffffffff1663ffffffff1663ffffffff1681526020016000820160049054906101000a90047bffffffffffffffffffffffffffffffffffffffffffffffffffffffff167bffffffffffffffffffffffffffffffffffffffffffffffffffffffff167bffffffffffffffffffffffffffffffffffffffffffffffffffffffff168152505090508563ffffffff16816000015163ffffffff161115613d68576040517f08c379a0000000000000000000000000000000000000000000000000000000008152600401613d5f906183ad565b60405180910390fd5b8563ffffffff16816000015163ffffffff161415613ded5784613d9788600185613d929190617a6f565b613fce565b60000160046101000a8154817bffffffffffffffffffffffffffffffffffffffffffffffffffffffff02191690837bffffffffffffffffffffffffffffffffffffffffffffffffffffffff160217905550613ecd565b8660405180604001604052808863ffffffff168152602001877bffffffffffffffffffffffffffffffffffffffffffffffffffffffff168152509080600181540180825580915050600190039060005260206000200160009091909190915060008201518160000160006101000a81548163ffffffff021916908363ffffffff16021790555060208201518160000160046101000a8154817bffffffffffffffffffffffffffffffffffffffffffffffffffffffff02191690837bffffffffffffffffffffffffffffffffffffffffffffffffffffffff16021790555050505b806020015185935093505050613fc6565b8560405180604001604052808763ffffffff168152602001867bffffffffffffffffffffffffffffffffffffffffffffffffffffffff168152509080600181540180825580915050600190039060005260206000200160009091909190915060008201518160000160006101000a81548163ffffffff021916908363ffffffff16021790555060208201518160000160046101000a8154817bffffffffffffffffffffffffffffffffffffffffffffffffffffffff02191690837bffffffffffffffffffffffffffffffffffffffffffffffffffffffff160217905550505060008492509250505b935093915050565b60008260005281602060002001905092915050565b60008063143489d060e01b63452115d660e01b1890506000639a802a6d60e01b630342018160e01b635f398a1460e01b18189050600081837fda287a1d000000000000000000000000000000000000000000000000000000007ff2e09f740000000000000000000000000000000000000000000000000000000018181890506000837fda287a1d000000000000000000000000000000000000000000000000000000007ff2e09f740000000000000000000000000000000000000000000000000000000018189050817bffffffffffffffffffffffffffffffffffffffffffffffffffffffff1916867bffffffffffffffffffffffffffffffffffffffffffffffffffffffff191614806141345750807bffffffffffffffffffffffffffffffffffffffffffffffffffffffff1916867bffffffffffffffffffffffffffffffffffffffffffffffffffffffff1916145b8061417c5750837bffffffffffffffffffffffffffffffffffffffffffffffffffffffff1916867bffffffffffffffffffffffffffffffffffffffffffffffffffffffff1916145b806141e457507f4e2312e0000000000000000000000000000000000000000000000000000000007bffffffffffffffffffffffffffffffffffffffffffffffffffffffff1916867bffffffffffffffffffffffffffffffffffffffffffffffffffffffff1916145b806141f457506141f386615162565b5b945050505050919050565b60007f000000000000000000000000000000000000000000000000000000000000000073ffffffffffffffffffffffffffffffffffffffff163073ffffffffffffffffffffffffffffffffffffffff1614801561427b57507f000000000000000000000000000000000000000000000000000000000000000046145b156142a8577f000000000000000000000000000000000000000000000000000000000000000090506142b3565b6142b06151cc565b90505b90565b60006040517f190100000000000000000000000000000000000000000000000000000000000081528360028201528260228201526042812091505092915050565b6000807f7fffffffffffffffffffffffffffffff5d576e7357a4501ddfe92f46681b20a08360001c11156143325760006003915091506143d1565b60006001878787876040516000815260200160405260405161435794939291906183cd565b6020604051602081039080840390855afa158015614379573d6000803e3d6000fd5b505050602060405103519050600073ffffffffffffffffffffffffffffffffffffffff168173ffffffffffffffffffffffffffffffffffffffff1614156143c8576000600192509250506143d1565b80600092509250505b94509492505050565b600060048111156143ee576143ed6169ec565b5b816004811115614401576144006169ec565b5b141561440c57614545565b600160048111156144205761441f6169ec565b5b816004811115614433576144326169ec565b5b1415614474576040517f08c379a000000000000000000000000000000000000000000000000000000000815260040161446b9061845e565b60405180910390fd5b60026004811115614488576144876169ec565b5b81600481111561449b5761449a6169ec565b5b14156144dc576040517f08c379a00000000000000000000000000000000000000000000000000000000081526004016144d3906184ca565b60405180910390fd5b600360048111156144f0576144ef6169ec565b5b816004811115614503576145026169ec565b5b1415614544576040517f08c379a000000000000000000000000000000000000000000000000000000000815260040161453b9061855c565b60405180910390fd5b5b50565b600060086000878152602001908152602001600020905060008160080160008773ffffffffffffffffffffffffffffffffffffffff1673ffffffffffffffffffffffffffffffffffffffff16815260200190815260200160002090508060000160009054906101000a900460ff16156145f6576040517f08c379a00000000000000000000000000000000000000000000000000000000081526004016145ed906185ee565b60405180910390fd5b60018160000160006101000a81548160ff021916908315150217905550848160000160016101000a81548160ff021916908360ff16021790555061463984615262565b8160000160026101000a8154816bffffffffffffffffffffffff02191690836bffffffffffffffffffffffff1602179055506000600281111561467f5761467e6169ec565b5b60ff168560ff1614156146ac57838260060160008282546146a091906178cc565b9250508190555061476a565b600160028111156146c0576146bf6169ec565b5b60ff168560ff1614156146ed57838260050160008282546146e191906178cc565b92505081905550614769565b600280811115614700576146ff6169ec565b5b60ff168560ff16141561472d578382600701600082825461472191906178cc565b92505081905550614768565b6040517f08c379a000000000000000000000000000000000000000000000000000000000815260040161475f90618680565b60405180910390fd5b5b5b50505050505050565b60008160000160009054906101000a9004600f0b600f0b8260000160109054906101000a9004600f0b600f0b13159050919050565b60008260000160109054906101000a9004600f0b90508183600101600083600f0b600f0b815260200190815260200160002081905550600181018360000160106101000a8154816fffffffffffffffffffffffffffffffff0219169083600f0b6fffffffffffffffffffffffffffffffff160217905550505050565b600660009054906101000a900473ffffffffffffffffffffffffffffffffffffffff1673ffffffffffffffffffffffffffffffffffffffff1663e38335e5348686866000876040518763ffffffff1660e01b815260040161488995949392919061777d565b6000604051808303818588803b1580156148a257600080fd5b505af11580156148b6573d6000803e3d6000fd5b50505050505050505050565b60008160000160006101000a8154816fffffffffffffffffffffffffffffffff0219169083600f0b6fffffffffffffffffffffffffffffffff16021790555060008160000160106101000a8154816fffffffffffffffffffffffffffffffff0219169083600f0b6fffffffffffffffffffffffffffffffff16021790555050565b6000806003600084815260200190815260200160002090508060020160009054906101000a900460ff161561497c576007915050614a6b565b8060020160019054906101000a900460ff161561499d576002915050614a6b565b60006149a8846115c3565b905060008114156149ee576040517f08c379a00000000000000000000000000000000000000000000000000000000081526004016149e5906186ec565b60405180910390fd5b60006149f8611eec565b65ffffffffffff169050808210614a155760009350505050614a6b565b6000614a2086612205565b9050818110614a36576001945050505050614a6b565b614a3f866152bd565b8015614a505750614a4f866152f5565b5b15614a62576004945050505050614a6b565b60039450505050505b919050565b6000614a7e85858585615320565b9050949350505050565b600080821415614a9b5760009050614b7d565b60006001614aa884615412565b901c6001901b90506001818481614ac257614ac1618268565b5b048201901c90506001818481614adb57614ada618268565b5b048201901c90506001818481614af457614af3618268565b5b048201901c90506001818481614b0d57614b0c618268565b5b048201901c90506001818481614b2657614b25618268565b5b048201901c90506001818481614b3f57614b3e618268565b5b048201901c90506001818481614b5857614b57618268565b5b048201901c9050614b7981828581614b7357614b72618268565b5b046154f3565b9150505b919050565b60005b81831015614bea576000614b99848461550c565b90508463ffffffff16614bac8783613fce565b60000160009054906101000a900463ffffffff1663ffffffff161115614bd457809250614be4565b600181614be191906178cc565b93505b50614b85565b819050949350505050565b600080614c00612b19565b90506000614c0c611eec565b65ffffffffffff169050614c1e6121df565b614c3483600184614c2f9190617a6f565b612622565b1015614c75576040517f08c379a0000000000000000000000000000000000000000000000000000000008152600401614c6c9061877e565b60405180910390fd5b6000614c8a88888888805190602001206123d1565b90508651885114614cd0576040517f08c379a0000000000000000000000000000000000000000000000000000000008152600401614cc790618810565b60405180910390fd5b8551885114614d14576040517f08c379a0000000000000000000000000000000000000000000000000000000008152600401614d0b90618810565b60405180910390fd5b6000885111614d58576040517f08c379a0000000000000000000000000000000000000000000000000000000008152600401614d4f9061887c565b60405180910390fd5b60006003600083815260200190815260200160002060000160009054906101000a900467ffffffffffffffff1667ffffffffffffffff1614614dcf576040517f08c379a0000000000000000000000000000000000000000000000000000000008152600401614dc69061890e565b60405180910390fd5b6000614dd96118e2565b83614de491906178cc565b90506000614df0610ea1565b82614dfb91906178cc565b90506040518060e00160405280614e1184615532565b67ffffffffffffffff1681526020018673ffffffffffffffffffffffffffffffffffffffff168152602001600060e01b7bffffffffffffffffffffffffffffffffffffffffffffffffffffffff19168152602001614e6e83615532565b67ffffffffffffffff168152602001600060401b67ffffffffffffffff19168152602001600015158152602001600015158152506003600085815260200190815260200160002060008201518160000160006101000a81548167ffffffffffffffff021916908367ffffffffffffffff16021790555060208201518160000160086101000a81548173ffffffffffffffffffffffffffffffffffffffff021916908373ffffffffffffffffffffffffffffffffffffffff160217905550604082015181600001601c6101000a81548163ffffffff021916908360e01c021790555060608201518160010160006101000a81548167ffffffffffffffff021916908367ffffffffffffffff16021790555060808201518160010160086101000a81548177ffffffffffffffffffffffffffffffffffffffffffffffff021916908360401c021790555060a08201518160020160006101000a81548160ff02191690831515021790555060c08201518160020160016101000a81548160ff0219169083151502179055509050507f7d84a6263ae0d98d3329bd7b46bb4e8d6f98cd35a7adb45c274c8b7fd5ebd5e083868c8c8e5167ffffffffffffffff81111561503957615038615e59565b5b60405190808252806020026020018201604052801561506c57816020015b60608152602001906001900390816150575790505b508d88888f6040516150869998979695949392919061892e565b60405180910390a18295505050505050949350505050565b606060006150ab83615589565b90506000602067ffffffffffffffff8111156150ca576150c9615e59565b5b6040519080825280601f01601f1916602001820160405280156150fc5781602001600182028036833780820191505090505b5090508181528360208201528092505050919050565b6000825111156151255781518083602001fd5b806040517f08c379a0000000000000000000000000000000000000000000000000000000008152600401615159919061610f565b60405180910390fd5b60007f01ffc9a7000000000000000000000000000000000000000000000000000000007bffffffffffffffffffffffffffffffffffffffffffffffffffffffff1916827bffffffffffffffffffffffffffffffffffffffffffffffffffffffff1916149050919050565b60007f8b73c3c69bb8fe3d512ecc4cf759cc79239f7b179b0ffacaa9a75d522b39400f7f00000000000000000000000000000000000000000000000000000000000000007f000000000000000000000000000000000000000000000000000000000000000046306040516020016152479594939291906189de565b60405160208183030381529060405280519060200120905090565b60006bffffffffffffffffffffffff80168211156152b5576040517f08c379a00000000000000000000000000000000000000000000000000000000081526004016152ac90618aa3565b60405180910390fd5b819050919050565b60008060086000848152602001908152602001600020905080600501546152eb6152e6856115c3565b612653565b1115915050919050565b6000806008600084815260200190815260200160002090508060060154816005015411915050919050565b60008061532f868686866155d9565b90506000801b60076000838152602001908152602001600020541461540657600660009054906101000a900473ffffffffffffffffffffffffffffffffffffffff1673ffffffffffffffffffffffffffffffffffffffff1663c4d252f560076000848152602001908152602001600020546040518263ffffffff1660e01b81526004016153bc9190616556565b600060405180830381600087803b1580156153d657600080fd5b505af11580156153ea573d6000803e3d6000fd5b5050505060076000828152602001908152602001600020600090555b80915050949350505050565b600080600090506000608084901c111561543457608083901c92506080810190505b6000604084901c111561544f57604083901c92506040810190505b6000602084901c111561546a57602083901c92506020810190505b6000601084901c111561548557601083901c92506010810190505b6000600884901c11156154a057600883901c92506008810190505b6000600484901c11156154bb57600483901c92506004810190505b6000600284901c11156154d657600283901c92506002810190505b6000600184901c11156154ea576001810190505b80915050919050565b60008183106155025781615504565b825b905092915050565b6000600282841861551d9190618297565b82841661552a91906178cc565b905092915050565b600067ffffffffffffffff8016821115615581576040517f08c379a000000000000000000000000000000000000000000000000000000000815260040161557890618b35565b60405180910390fd5b819050919050565b60008060ff8360001c169050601f8111156155d0576040517fb3512b0c00000000000000000000000000000000000000000000000000000000815260040160405180910390fd5b80915050919050565b6000806155e8868686866123d1565b905060006155f582611975565b90506002600781111561560b5761560a6169ec565b5b81600781111561561e5761561d6169ec565b5b1415801561565157506006600781111561563b5761563a6169ec565b5b81600781111561564e5761564d6169ec565b5b14155b8015615681575060078081111561566b5761566a6169ec565b5b81600781111561567e5761567d6169ec565b5b14155b6156c0576040517f08c379a00000000000000000000000000000000000000000000000000000000081526004016156b790618ba1565b60405180910390fd5b60016003600084815260200190815260200160002060020160016101000a81548160ff0219169083151502179055507f789cf55be980739dad1d0699b93b58e806b51c9d96619bfa8fe0a28abaa7b30c8260405161571e9190615d8a565b60405180910390a18192505050949350505050565b6040518060600160405280600015158152602001600060ff16815260200160006bffffffffffffffffffffffff1681525090565b8280546157739061762f565b90600052602060002090601f01602090048101928261579557600085556157dc565b82601f106157ae57805160ff19168380011785556157dc565b828001600101855582156157dc579182015b828111156157db5782518255916020019190600101906157c0565b5b5090506157e99190615984565b5090565b828054828255906000526020600020908101928215615866579160200282015b828111156158655782518260006101000a81548173ffffffffffffffffffffffffffffffffffffffff021916908373ffffffffffffffffffffffffffffffffffffffff1602179055509160200191906001019061580d565b5b5090506158739190615984565b5090565b8280548282559060005260206000209081019282156158b3579160200282015b828111156158b2578251825591602001919060010190615897565b5b5090506158c09190615984565b5090565b828054828255906000526020600020908101928215615913579160200282015b82811115615912578251829080519060200190615902929190615767565b50916020019190600101906158e4565b5b50905061592091906159a1565b5090565b828054828255906000526020600020908101928215615973579160200282015b828111156159725782518290805190602001906159629291906159c5565b5091602001919060010190615944565b5b5090506159809190615a4b565b5090565b5b8082111561599d576000816000905550600101615985565b5090565b5b808211156159c157600081816159b89190615a6f565b506001016159a2565b5090565b8280546159d19061762f565b90600052602060002090601f0160209004810192826159f35760008555615a3a565b82601f10615a0c57805160ff1916838001178555615a3a565b82800160010185558215615a3a579182015b82811115615a39578251825591602001919060010190615a1e565b5b509050615a479190615984565b5090565b5b80821115615a6b5760008181615a629190615aaf565b50600101615a4c565b5090565b508054615a7b9061762f565b6000825580601f10615a8d5750615aac565b601f016020900490600052602060002090810190615aab9190615984565b5b50565b508054615abb9061762f565b6000825580601f10615acd5750615aec565b601f016020900490600052602060002090810190615aeb9190615984565b5b50565b600082825260208201905092915050565b7f476f7665726e6f723a206d7573742073656e6420746f206578656375746f7200600082015250565b6000615b36601f83615aef565b9150615b4182615b00565b602082019050919050565b60006020820190508181036000830152615b6581615b29565b9050919050565b6000604051905090565b600080fd5b600080fd5b6000819050919050565b615b9381615b80565b8114615b9e57600080fd5b50565b600081359050615bb081615b8a565b92915050565b600060208284031215615bcc57615bcb615b76565b5b6000615bda84828501615ba1565b91505092915050565b615bec81615b80565b82525050565b600073ffffffffffffffffffffffffffffffffffffffff82169050919050565b6000615c1d82615bf2565b9050919050565b615c2d81615c12565b82525050565b60008115159050919050565b615c4881615c33565b82525050565b600061014082019050615c64600083018d615be3565b615c71602083018c615c24565b615c7e604083018b615be3565b615c8b606083018a615be3565b615c986080830189615be3565b615ca560a0830188615be3565b615cb260c0830187615be3565b615cbf60e0830186615be3565b615ccd610100830185615c3f565b615cdb610120830184615c3f565b9b9a5050505050505050505050565b60007fffffffff0000000000000000000000000000000000000000000000000000000082169050919050565b615d1f81615cea565b8114615d2a57600080fd5b50565b600081359050615d3c81615d16565b92915050565b600060208284031215615d5857615d57615b76565b5b6000615d6684828501615d2d565b91505092915050565b6000602082019050615d846000830184615c3f565b92915050565b6000602082019050615d9f6000830184615be3565b92915050565b600060ff82169050919050565b615dbb81615da5565b8114615dc657600080fd5b50565b600081359050615dd881615db2565b92915050565b600080fd5b600080fd5b600080fd5b60008083601f840112615e0357615e02615dde565b5b8235905067ffffffffffffffff811115615e2057615e1f615de3565b5b602083019150836001820283011115615e3c57615e3b615de8565b5b9250929050565b600080fd5b6000601f19601f8301169050919050565b7f4e487b7100000000000000000000000000000000000000000000000000000000600052604160045260246000fd5b615e9182615e48565b810181811067ffffffffffffffff82111715615eb057615eaf615e59565b5b80604052505050565b6000615ec3615b6c565b9050615ecf8282615e88565b919050565b600067ffffffffffffffff821115615eef57615eee615e59565b5b615ef882615e48565b9050602081019050919050565b82818337600083830152505050565b6000615f27615f2284615ed4565b615eb9565b905082815260208101848484011115615f4357615f42615e43565b5b615f4e848285615f05565b509392505050565b600082601f830112615f6b57615f6a615dde565b5b8135615f7b848260208601615f14565b91505092915050565b6000819050919050565b615f9781615f84565b8114615fa257600080fd5b50565b600081359050615fb481615f8e565b92915050565b60008060008060008060008060e0898b031215615fda57615fd9615b76565b5b6000615fe88b828c01615ba1565b9850506020615ff98b828c01615dc9565b975050604089013567ffffffffffffffff81111561601a57616019615b7b565b5b6160268b828c01615ded565b9650965050606089013567ffffffffffffffff81111561604957616048615b7b565b5b6160558b828c01615f56565b94505060806160668b828c01615dc9565b93505060a06160778b828c01615fa5565b92505060c06160888b828c01615fa5565b9150509295985092959890939650565b600081519050919050565b60005b838110156160c15780820151818401526020810190506160a6565b838111156160d0576000848401525b50505050565b60006160e182616098565b6160eb8185615aef565b93506160fb8185602086016160a3565b61610481615e48565b840191505092915050565b6000602082019050818103600083015261612981846160d6565b905092915050565b60006020820190506161466000830184615c24565b92915050565b61615581615c12565b811461616057600080fd5b50565b6000813590506161728161614c565b92915050565b6000806000806080858703121561619257616191615b76565b5b60006161a087828801616163565b94505060206161b187828801616163565b93505060406161c287828801615ba1565b925050606085013567ffffffffffffffff8111156161e3576161e2615b7b565b5b6161ef87828801615f56565b91505092959194509250565b61620481615cea565b82525050565b600060208201905061621f60008301846161fb565b92915050565b600067ffffffffffffffff8211156162405761623f615e59565b5b602082029050602081019050919050565b600061626461625f84616225565b615eb9565b9050808382526020820190506020840283018581111561628757616286615de8565b5b835b818110156162b0578061629c8882616163565b845260208401935050602081019050616289565b5050509392505050565b600082601f8301126162cf576162ce615dde565b5b81356162df848260208601616251565b91505092915050565b600067ffffffffffffffff82111561630357616302615e59565b5b602082029050602081019050919050565b6000616327616322846162e8565b615eb9565b9050808382526020820190506020840283018581111561634a57616349615de8565b5b835b81811015616373578061635f8882615ba1565b84526020840193505060208101905061634c565b5050509392505050565b600082601f83011261639257616391615dde565b5b81356163a2848260208601616314565b91505092915050565b600067ffffffffffffffff8211156163c6576163c5615e59565b5b602082029050602081019050919050565b60006163ea6163e5846163ab565b615eb9565b9050808382526020820190506020840283018581111561640d5761640c615de8565b5b835b8181101561645457803567ffffffffffffffff81111561643257616431615dde565b5b80860161643f8982615f56565b8552602085019450505060208101905061640f565b5050509392505050565b600082601f83011261647357616472615dde565b5b81356164838482602086016163d7565b91505092915050565b600080600080608085870312156164a6576164a5615b76565b5b600085013567ffffffffffffffff8111156164c4576164c3615b7b565b5b6164d0878288016162ba565b945050602085013567ffffffffffffffff8111156164f1576164f0615b7b565b5b6164fd8782880161637d565b935050604085013567ffffffffffffffff81111561651e5761651d615b7b565b5b61652a8782880161645e565b925050606061653b87828801615fa5565b91505092959194509250565b61655081615f84565b82525050565b600060208201905061656b6000830184616547565b92915050565b600081519050919050565b600082825260208201905092915050565b6000819050602082019050919050565b6165a681615c12565b82525050565b60006165b8838361659d565b60208301905092915050565b6000602082019050919050565b60006165dc82616571565b6165e6818561657c565b93506165f18361658d565b8060005b8381101561662257815161660988826165ac565b9750616614836165c4565b9250506001810190506165f5565b5085935050505092915050565b600081519050919050565b600082825260208201905092915050565b6000819050602082019050919050565b61666481615b80565b82525050565b6000616676838361665b565b60208301905092915050565b6000602082019050919050565b600061669a8261662f565b6166a4818561663a565b93506166af8361664b565b8060005b838110156166e05781516166c7888261666a565b97506166d283616682565b9250506001810190506166b3565b5085935050505092915050565b600081519050919050565b600082825260208201905092915050565b6000819050602082019050919050565b600082825260208201905092915050565b600061673582616098565b61673f8185616719565b935061674f8185602086016160a3565b61675881615e48565b840191505092915050565b600061676f838361672a565b905092915050565b6000602082019050919050565b600061678f826166ed565b61679981856166f8565b9350836020820285016167ab85616709565b8060005b858110156167e757848403895281516167c88582616763565b94506167d383616777565b925060208a019950506001810190506167af565b50829750879550505050505092915050565b600081519050919050565b600082825260208201905092915050565b6000819050602082019050919050565b600081519050919050565b600082825260208201905092915050565b600061684c82616825565b6168568185616830565b93506168668185602086016160a3565b61686f81615e48565b840191505092915050565b60006168868383616841565b905092915050565b6000602082019050919050565b60006168a6826167f9565b6168b08185616804565b9350836020820285016168c285616815565b8060005b858110156168fe57848403895281516168df858261687a565b94506168ea8361688e565b925060208a019950506001810190506168c6565b50829750879550505050505092915050565b6000608082019050818103600083015261692a81876165d1565b9050818103602083015261693e818661668f565b905081810360408301526169528185616784565b90508181036060830152616966818461689b565b905095945050505050565b600080600080600060a0868803121561698d5761698c615b76565b5b600061699b88828901615ba1565b95505060206169ac88828901615dc9565b94505060406169bd88828901615dc9565b93505060606169ce88828901615fa5565b92505060806169df88828901615fa5565b9150509295509295909350565b7f4e487b7100000000000000000000000000000000000000000000000000000000600052602160045260246000fd5b60088110616a2c57616a2b6169ec565b5b50565b6000819050616a3d82616a1b565b919050565b6000616a4d82616a2f565b9050919050565b616a5d81616a42565b82525050565b6000602082019050616a786000830184616a54565b92915050565b60008060408385031215616a9557616a94615b76565b5b6000616aa385828601615ba1565b9250506020616ab485828601616163565b9150509250929050565b60008060408385031215616ad557616ad4615b76565b5b6000616ae385828601615ba1565b9250506020616af485828601615dc9565b9150509250929050565b600080600080600060808688031215616b1a57616b19615b76565b5b6000616b2888828901615ba1565b9550506020616b3988828901615dc9565b945050604086013567ffffffffffffffff811115616b5a57616b59615b7b565b5b616b6688828901615ded565b9350935050606086013567ffffffffffffffff811115616b8957616b88615b7b565b5b616b9588828901615f56565b9150509295509295909350565b60008060008060608587031215616bbc57616bbb615b76565b5b6000616bca87828801615ba1565b9450506020616bdb87828801615dc9565b935050604085013567ffffffffffffffff811115616bfc57616bfb615b7b565b5b616c0887828801615ded565b925092505092959194509250565b600067ffffffffffffffff821115616c3157616c30615e59565b5b616c3a82615e48565b9050602081019050919050565b6000616c5a616c5584616c16565b615eb9565b905082815260208101848484011115616c7657616c75615e43565b5b616c81848285615f05565b509392505050565b600082601f830112616c9e57616c9d615dde565b5b8135616cae848260208601616c47565b91505092915050565b60008060008060808587031215616cd157616cd0615b76565b5b600085013567ffffffffffffffff811115616cef57616cee615b7b565b5b616cfb878288016162ba565b945050602085013567ffffffffffffffff811115616d1c57616d1b615b7b565b5b616d288782880161637d565b935050604085013567ffffffffffffffff811115616d4957616d48615b7b565b5b616d558782880161645e565b925050606085013567ffffffffffffffff811115616d7657616d75615b7b565b5b616d8287828801616c89565b91505092959194509250565b60007fff0000000000000000000000000000000000000000000000000000000000000082169050919050565b616dc381616d8e565b82525050565b600060e082019050616dde600083018a616dba565b8181036020830152616df081896160d6565b90508181036040830152616e0481886160d6565b9050616e136060830187615be3565b616e206080830186615c24565b616e2d60a0830185616547565b81810360c0830152616e3f818461668f565b905098975050505050505050565b600065ffffffffffff82169050919050565b616e6881616e4d565b82525050565b6000602082019050616e836000830184616e5f565b92915050565b600080600060608486031215616ea257616ea1615b76565b5b6000616eb086828701616163565b9350506020616ec186828701615ba1565b925050604084013567ffffffffffffffff811115616ee257616ee1615b7b565b5b616eee86828701615f56565b9150509250925092565b6000616f0382615bf2565b9050919050565b6000616f1582616ef8565b9050919050565b616f2581616f0a565b8114616f3057600080fd5b50565b600081359050616f4281616f1c565b92915050565b600060208284031215616f5e57616f5d615b76565b5b6000616f6c84828501616f33565b91505092915050565b600080600080600060a08688031215616f9157616f90615b76565b5b6000616f9f88828901616163565b9550506020616fb088828901616163565b945050604086013567ffffffffffffffff811115616fd157616fd0615b7b565b5b616fdd8882890161637d565b935050606086013567ffffffffffffffff811115616ffe57616ffd615b7b565b5b61700a8882890161637d565b925050608086013567ffffffffffffffff81111561702b5761702a615b7b565b5b61703788828901615f56565b9150509295509295909350565b60008083601f84011261705a57617059615dde565b5b8235905067ffffffffffffffff81111561707757617076615de3565b5b60208301915083600182028301111561709357617092615de8565b5b9250929050565b600080600080606085870312156170b4576170b3615b76565b5b60006170c287828801616163565b94505060206170d387828801615ba1565b935050604085013567ffffffffffffffff8111156170f4576170f3615b7b565b5b61710087828801617044565b925092505092959194509250565b600067ffffffffffffffff82111561712957617128615e59565b5b602082029050602081019050919050565b600061714d6171488461710e565b615eb9565b905080838252602082019050602084028301858111156171705761716f615de8565b5b835b818110156171b757803567ffffffffffffffff81111561719557617194615dde565b5b8086016171a28982616c89565b85526020850194505050602081019050617172565b5050509392505050565b600082601f8301126171d6576171d5615dde565b5b81356171e684826020860161713a565b91505092915050565b600080600080600060a0868803121561720b5761720a615b76565b5b600086013567ffffffffffffffff81111561722957617228615b7b565b5b617235888289016162ba565b955050602086013567ffffffffffffffff81111561725657617255615b7b565b5b6172628882890161637d565b945050604086013567ffffffffffffffff81111561728357617282615b7b565b5b61728f888289016171c1565b935050606086013567ffffffffffffffff8111156172b0576172af615b7b565b5b6172bc8882890161645e565b925050608086013567ffffffffffffffff8111156172dd576172dc615b7b565b5b6172e988828901616c89565b9150509295509295909350565b6172ff81615c33565b82525050565b61730e81615da5565b82525050565b60006bffffffffffffffffffffffff82169050919050565b61733581617314565b82525050565b60608201600082015161735160008501826172f6565b5060208201516173646020850182617305565b506040820151617377604085018261732c565b50505050565b6000606082019050617392600083018461733b565b92915050565b600080604083850312156173af576173ae615b76565b5b60006173bd85828601616163565b92505060206173ce85828601615ba1565b9150509250929050565b600080600080600060a086880312156173f4576173f3615b76565b5b600061740288828901616163565b955050602061741388828901616163565b945050604061742488828901615ba1565b935050606061743588828901615ba1565b925050608086013567ffffffffffffffff81111561745657617455615b7b565b5b61746288828901615f56565b9150509295509295909350565b6000819050919050565b600061749461748f61748a84615bf2565b61746f565b615bf2565b9050919050565b60006174a682617479565b9050919050565b60006174b88261749b565b9050919050565b6174c8816174ad565b82525050565b60006020820190506174e360008301846174bf565b92915050565b600081905092915050565b600061750083856174e9565b935061750d838584615f05565b82840190509392505050565b60006175268284866174f4565b91508190509392505050565b61753b81615da5565b82525050565b600060a0820190506175566000830188616547565b6175636020830187615be3565b6175706040830186617532565b61757d6060830185616547565b61758a6080830184616547565b9695505050505050565b7f476f7665726e6f723a206f6e6c79476f7665726e616e63650000000000000000600082015250565b60006175ca601883615aef565b91506175d582617594565b602082019050919050565b600060208201905081810360008301526175f9816175bd565b9050919050565b7f4e487b7100000000000000000000000000000000000000000000000000000000600052602260045260246000fd5b6000600282049050600182168061764757607f821691505b6020821081141561765b5761765a617600565b5b50919050565b7f476f7665726e6f723a2070726f706f73616c206e6f742073756363657373667560008201527f6c00000000000000000000000000000000000000000000000000000000000000602082015250565b60006176bd602183615aef565b91506176c882617661565b604082019050919050565b600060208201905081810360008301526176ec816176b0565b9050919050565b60008151905061770281615b8a565b92915050565b60006020828403121561771e5761771d615b76565b5b600061772c848285016176f3565b91505092915050565b6000819050919050565b60008160001b9050919050565b600061776761776261775d84617735565b61773f565b615f84565b9050919050565b6177778161774c565b82525050565b600060a082019050818103600083015261779781886165d1565b905081810360208301526177ab818761668f565b905081810360408301526177bf818661689b565b90506177ce606083018561776e565b6177db6080830184616547565b9695505050505050565b6000815190506177f481615f8e565b92915050565b6000602082840312156178105761780f615b76565b5b600061781e848285016177e5565b91505092915050565b600060c082019050818103600083015261784181896165d1565b90508181036020830152617855818861668f565b90508181036040830152617869818761689b565b9050617878606083018661776e565b6178856080830185616547565b61789260a0830184615be3565b979650505050505050565b7f4e487b7100000000000000000000000000000000000000000000000000000000600052601160045260246000fd5b60006178d782615b80565b91506178e283615b80565b9250827fffffffffffffffffffffffffffffffffffffffffffffffffffffffffffffffff038211156179175761791661789d565b5b828201905092915050565b60006040820190506179376000830185615be3565b6179446020830184615be3565b9392505050565b600061795682616e4d565b915061796183616e4d565b9250828210156179745761797361789d565b5b828203905092915050565b60006060820190506179946000830186616547565b6179a16020830185615be3565b6179ae6040830184617532565b949350505050565b60006179c96179c484616c16565b615eb9565b9050828152602081018484840111156179e5576179e4615e43565b5b6179f08482856160a3565b509392505050565b600082601f830112617a0d57617a0c615dde565b5b8151617a1d8482602086016179b6565b91505092915050565b600060208284031215617a3c57617a3b615b76565b5b600082015167ffffffffffffffff811115617a5a57617a59615b7b565b5b617a66848285016179f8565b91505092915050565b6000617a7a82615b80565b9150617a8583615b80565b925082821015617a9857617a9761789d565b5b828203905092915050565b7f4e487b7100000000000000000000000000000000000000000000000000000000600052603260045260246000fd5b617adb81616e4d565b8114617ae657600080fd5b50565b600081519050617af881617ad2565b92915050565b600060208284031215617b1457617b13615b76565b5b6000617b2284828501617ae9565b91505092915050565b60006080820190508181036000830152617b4581876165d1565b90508181036020830152617b59818661668f565b90508181036040830152617b6d818561689b565b9050617b7c6060830184616547565b95945050505050565b7f476f7665726e6f72427261766f3a20696e76616c6964207369676e617475726560008201527f73206c656e677468000000000000000000000000000000000000000000000000602082015250565b6000617be1602883615aef565b9150617bec82617b85565b604082019050919050565b60006020820190508181036000830152617c1081617bd4565b9050919050565b7f53616665436173743a2076616c756520646f65736e27742066697420696e203260008201527f3234206269747300000000000000000000000000000000000000000000000000602082015250565b6000617c73602783615aef565b9150617c7e82617c17565b604082019050919050565b60006020820190508181036000830152617ca281617c66565b9050919050565b7f53616665436173743a2076616c756520646f65736e27742066697420696e203360008201527f3220626974730000000000000000000000000000000000000000000000000000602082015250565b6000617d05602683615aef565b9150617d1082617ca9565b604082019050919050565b60006020820190508181036000830152617d3481617cf8565b9050919050565b7f53616665436173743a2076616c756520646f65736e27742066697420696e203460008201527f3820626974730000000000000000000000000000000000000000000000000000602082015250565b6000617d97602683615aef565b9150617da282617d3b565b604082019050919050565b60006020820190508181036000830152617dc681617d8a565b9050919050565b7f476f7665726e6f723a20766f7465206e6f742063757272656e746c792061637460008201527f6976650000000000000000000000000000000000000000000000000000000000602082015250565b6000617e29602383615aef565b9150617e3482617dcd565b604082019050919050565b60006020820190508181036000830152617e5881617e1c565b9050919050565b6000608082019050617e746000830187615be3565b617e816020830186617532565b617e8e6040830185615be3565b8181036060830152617ea081846160d6565b905095945050505050565b600082825260208201905092915050565b6000617ec782616825565b617ed18185617eab565b9350617ee18185602086016160a3565b617eea81615e48565b840191505092915050565b600060a082019050617f0a6000830188615be3565b617f176020830187617532565b617f246040830186615be3565b8181036060830152617f3681856160d6565b90508181036080830152617f4a8184617ebc565b90509695505050505050565b7f476f7665726e6f72566f74657351756f72756d4672616374696f6e3a2071756f60008201527f72756d4e756d657261746f72206f7665722071756f72756d44656e6f6d696e6160208201527f746f720000000000000000000000000000000000000000000000000000000000604082015250565b6000617fd8604383615aef565b9150617fe382617f56565b606082019050919050565b6000602082019050818103600083015261800781617fcb565b9050919050565b600061801982615b80565b91507fffffffffffffffffffffffffffffffffffffffffffffffffffffffffffffffff82141561804c5761804b61789d565b5b600182019050919050565b61806081615c33565b811461806b57600080fd5b50565b60008151905061807d81618057565b92915050565b60006020828403121561809957618098615b76565b5b60006180a78482850161806e565b91505092915050565b7f476f7665726e6f72427261766f3a2070726f706f7365722061626f766520746860008201527f726573686f6c6400000000000000000000000000000000000000000000000000602082015250565b600061810c602783615aef565b9150618117826180b0565b604082019050919050565b6000602082019050818103600083015261813b816180ff565b9050919050565b60006040820190506181576000830185615c24565b6181646020830184615be3565b9392505050565b60006040820190506181806000830185615c24565b61818d6020830184615c24565b9392505050565b6000819050919050565b6181af6181aa82615cea565b618194565b82525050565b60006181c082616825565b6181ca81856174e9565b93506181da8185602086016160a3565b80840191505092915050565b60006181f2828561819e565b60048201915061820282846181b5565b91508190509392505050565b600061821982615b80565b915061822483615b80565b9250817fffffffffffffffffffffffffffffffffffffffffffffffffffffffffffffffff048311821515161561825d5761825c61789d565b5b828202905092915050565b7f4e487b7100000000000000000000000000000000000000000000000000000000600052601260045260246000fd5b60006182a282615b80565b91506182ad83615b80565b9250826182bd576182bc618268565b5b828204905092915050565b6000819050602082019050919050565b60006182e48251615f84565b80915050919050565b600082821b905092915050565b600061830582616825565b8261830f846182c8565b905061831a816182d8565b9250602082101561835a576183557fffffffffffffffffffffffffffffffffffffffffffffffffffffffffffffffff836020036008026182ed565b831692505b5050919050565b7f436865636b706f696e743a2064656372656173696e67206b6579730000000000600082015250565b6000618397601b83615aef565b91506183a282618361565b602082019050919050565b600060208201905081810360008301526183c68161838a565b9050919050565b60006080820190506183e26000830187616547565b6183ef6020830186617532565b6183fc6040830185616547565b6184096060830184616547565b95945050505050565b7f45434453413a20696e76616c6964207369676e61747572650000000000000000600082015250565b6000618448601883615aef565b915061845382618412565b602082019050919050565b600060208201905081810360008301526184778161843b565b9050919050565b7f45434453413a20696e76616c6964207369676e6174757265206c656e67746800600082015250565b60006184b4601f83615aef565b91506184bf8261847e565b602082019050919050565b600060208201905081810360008301526184e3816184a7565b9050919050565b7f45434453413a20696e76616c6964207369676e6174757265202773272076616c60008201527f7565000000000000000000000000000000000000000000000000000000000000602082015250565b6000618546602283615aef565b9150618551826184ea565b604082019050919050565b6000602082019050818103600083015261857581618539565b9050919050565b7f476f7665726e6f72436f6d7061746962696c697479427261766f3a20766f746560008201527f20616c7265616479206361737400000000000000000000000000000000000000602082015250565b60006185d8602d83615aef565b91506185e38261857c565b604082019050919050565b60006020820190508181036000830152618607816185cb565b9050919050565b7f476f7665726e6f72436f6d7061746962696c697479427261766f3a20696e766160008201527f6c696420766f7465207479706500000000000000000000000000000000000000602082015250565b600061866a602d83615aef565b91506186758261860e565b604082019050919050565b600060208201905081810360008301526186998161865d565b9050919050565b7f476f7665726e6f723a20756e6b6e6f776e2070726f706f73616c206964000000600082015250565b60006186d6601d83615aef565b91506186e1826186a0565b602082019050919050565b60006020820190508181036000830152618705816186c9565b9050919050565b7f476f7665726e6f723a2070726f706f73657220766f7465732062656c6f77207060008201527f726f706f73616c207468726573686f6c64000000000000000000000000000000602082015250565b6000618768603183615aef565b91506187738261870c565b604082019050919050565b600060208201905081810360008301526187978161875b565b9050919050565b7f476f7665726e6f723a20696e76616c69642070726f706f73616c206c656e677460008201527f6800000000000000000000000000000000000000000000000000000000000000602082015250565b60006187fa602183615aef565b91506188058261879e565b604082019050919050565b60006020820190508181036000830152618829816187ed565b9050919050565b7f476f7665726e6f723a20656d7074792070726f706f73616c0000000000000000600082015250565b6000618866601883615aef565b915061887182618830565b602082019050919050565b6000602082019050818103600083015261889581618859565b9050919050565b7f476f7665726e6f723a2070726f706f73616c20616c726561647920657869737460008201527f7300000000000000000000000000000000000000000000000000000000000000602082015250565b60006188f8602183615aef565b91506189038261889c565b604082019050919050565b60006020820190508181036000830152618927816188eb565b9050919050565b600061012082019050618944600083018c615be3565b618951602083018b615c24565b8181036040830152618963818a6165d1565b90508181036060830152618977818961668f565b9050818103608083015261898b8188616784565b905081810360a083015261899f818761689b565b90506189ae60c0830186615be3565b6189bb60e0830185615be3565b8181036101008301526189ce81846160d6565b90509a9950505050505050505050565b600060a0820190506189f36000830188616547565b618a006020830187616547565b618a0d6040830186616547565b618a1a6060830185615be3565b618a276080830184615c24565b9695505050505050565b7f53616665436173743a2076616c756520646f65736e27742066697420696e203960008201527f3620626974730000000000000000000000000000000000000000000000000000602082015250565b6000618a8d602683615aef565b9150618a9882618a31565b604082019050919050565b60006020820190508181036000830152618abc81618a80565b9050919050565b7f53616665436173743a2076616c756520646f65736e27742066697420696e203660008201527f3420626974730000000000000000000000000000000000000000000000000000602082015250565b6000618b1f602683615aef565b9150618b2a82618ac3565b604082019050919050565b60006020820190508181036000830152618b4e81618b12565b9050919050565b7f476f7665726e6f723a2070726f706f73616c206e6f7420616374697665000000600082015250565b6000618b8b601d83615aef565b9150618b9682618b55565b602082019050919050565b60006020820190508181036000830152618bba81618b7e565b905091905056fe476f7665726e6f723a2072656c617920726576657274656420776974686f7574206d657373616765a2646970667358221220f6b0130c3370c38c49b4fc764a5fd9377f6b5e34979759f76deeb6c856eee0a564736f6c63430008090033",
  "linkReferences": {},
  "deployedLinkReferences": {}
}