{"contracts/ERC20_Bridge_Logic_Restricted.sol":{"ERC20_Bridge_Logic_Restricted":{"abi":[{"inputs":[{"internalType":"address payable","name":"erc20_asset_pool","type":"address"},{"internalType":"address","name":"multisig_control","type":"address"}],"stateMutability":"nonpayable","type":"constructor"},{"anonymous":false,"inputs":[{"indexed":true,"internalType":"address","name":"asset_source","type":"address"},{"indexed":false,"internalType":"uint256","name":"new_maximum","type":"uint256"},{"indexed":false,"internalType":"uint256","name":"nonce","type":"uint256"}],"name":"Asset_Deposit_Maximum_Set","type":"event"},{"anonymous":false,"inputs":[{"indexed":true,"internalType":"address","name":"asset_source","type":"address"},{"indexed":false,"internalType":"uint256","name":"new_minimum","type":"uint256"},{"indexed":false,"internalType":"uint256","name":"nonce","type":"uint256"}],"name":"Asset_Deposit_Minimum_Set","type":"event"},{"anonymous":false,"inputs":[{"indexed":true,"internalType":"address","name":"user_address","type":"address"},{"indexed":true,"internalType":"address","name":"asset_source","type":"address"},{"indexed":false,"internalType":"uint256","name":"amount","type":"uint256"},{"indexed":false,"internalType":"bytes32","name":"vega_public_key","type":"bytes32"}],"name":"Asset_Deposited","type":"event"},{"anonymous":false,"inputs":[{"indexed":true,"internalType":"address","name":"asset_source","type":"address"},{"indexed":true,"internalType":"bytes32","name":"vega_asset_id","type":"bytes32"},{"indexed":false,"internalType":"uint256","name":"nonce","type":"uint256"}],"name":"Asset_Listed","type":"event"},{"anonymous":false,"inputs":[{"indexed":true,"internalType":"address","name":"asset_source","type":"address"},{"indexed":false,"internalType":"uint256","name":"nonce","type":"uint256"}],"name":"Asset_Removed","type":"event"},{"anonymous":false,"inputs":[{"indexed":true,"internalType":"address","name":"user_address","type":"address"},{"indexed":true,"internalType":"address","name":"asset_source","type":"address"},{"indexed":false,"internalType":"uint256","name":"amount","type":"uint256"},{"indexed":false,"internalType":"uint256","name":"nonce","type":"uint256"}],"name":"Asset_Withdrawn","type":"event"},{"anonymous":false,"inputs":[],"name":"Bridge_Resumed","type":"event"},{"anonymous":false,"inputs":[],"name":"Bridge_Stopped","type":"event"},{"anonymous":false,"inputs":[{"indexed":true,"internalType":"address","name":"depositor","type":"address"}],"name":"Depositor_Exempted","type":"event"},{"anonymous":false,"inputs":[{"indexed":true,"internalType":"address","name":"depositor","type":"address"}],"name":"Depositor_Exemption_Revoked","type":"event"},{"anonymous":false,"inputs":[{"indexed":true,"internalType":"address","name":"lister","type":"address"}],"name":"Exemption_Lister_Set","type":"event"},{"inputs":[],"name":"default_withdraw_delay","outputs":[{"internalType":"uint256","name":"","type":"uint256"}],"stateMutability":"view","type":"function"},{"inputs":[{"internalType":"address","name":"asset_source","type":"address"},{"internalType":"uint256","name":"amount","type":"uint256"},{"internalType":"bytes32","name":"vega_public_key","type":"bytes32"}],"name":"deposit_asset","outputs":[],"stateMutability":"nonpayable","type":"function"},{"inputs":[{"internalType":"address","name":"depositor","type":"address"}],"name":"exempt_depositor","outputs":[],"stateMutability":"nonpayable","type":"function"},{"inputs":[{"internalType":"address","name":"asset_source","type":"address"}],"name":"get_asset_deposit_limit","outputs":[{"internalType":"uint256","name":"","type":"uint256"}],"stateMutability":"view","type":"function"},{"inputs":[{"internalType":"bytes32","name":"vega_asset_id","type":"bytes32"}],"name":"get_asset_source","outputs":[{"internalType":"address","name":"","type":"address"}],"stateMutability":"view","type":"function"},{"inputs":[{"internalType":"address","name":"asset_source","type":"address"}],"name":"get_deposit_maximum","outputs":[{"internalType":"uint256","name":"","type":"uint256"}],"stateMutability":"view","type":"function"},{"inputs":[{"internalType":"address","name":"asset_source","type":"address"}],"name":"get_deposit_minimum","outputs":[{"internalType":"uint256","name":"","type":"uint256"}],"stateMutability":"view","type":"function"},{"inputs":[],"name":"get_exemption_lister","outputs":[{"internalType":"address","name":"","type":"address"}],"stateMutability":"view","type":"function"},{"inputs":[],"name":"get_multisig_control_address","outputs":[{"internalType":"address","name":"","type":"address"}],"stateMutability":"view","type":"function"},{"inputs":[{"internalType":"address","name":"asset_source","type":"address"}],"name":"get_vega_asset_id","outputs":[{"internalType":"bytes32","name":"","type":"bytes32"}],"stateMutability":"view","type":"function"},{"inputs":[{"internalType":"address","name":"asset_source","type":"address"}],"name":"get_withdraw_threshold","outputs":[{"internalType":"uint256","name":"","type":"uint256"}],"stateMutability":"view","type":"function"},{"inputs":[{"internalType":"uint256","name":"nonce","type":"uint256"},{"internalType":"bytes","name":"signatures","type":"bytes"}],"name":"global_resume","outputs":[],"stateMutability":"nonpayable","type":"function"},{"inputs":[{"internalType":"uint256","name":"nonce","type":"uint256"},{"internalType":"bytes","name":"signatures","type":"bytes"}],"name":"global_stop","outputs":[],"stateMutability":"nonpayable","type":"function"},{"inputs":[{"internalType":"address","name":"asset_source","type":"address"}],"name":"is_asset_listed","outputs":[{"internalType":"bool","name":"","type":"bool"}],"stateMutability":"view","type":"function"},{"inputs":[{"internalType":"address","name":"depositor","type":"address"}],"name":"is_exempt_depositor","outputs":[{"internalType":"bool","name":"","type":"bool"}],"stateMutability":"view","type":"function"},{"inputs":[],"name":"is_stopped","outputs":[{"internalType":"bool","name":"","type":"bool"}],"stateMutability":"view","type":"function"},{"inputs":[{"internalType":"address","name":"asset_source","type":"address"},{"internalType":"bytes32","name":"vega_asset_id","type":"bytes32"},{"internalType":"uint256","name":"lifetime_limit","type":"uint256"},{"internalType":"uint256","name":"withdraw_threshold","type":"uint256"},{"internalType":"uint256","name":"nonce","type":"uint256"},{"internalType":"bytes","name":"signatures","type":"bytes"}],"name":"list_asset","outputs":[],"stateMutability":"nonpayable","type":"function"},{"inputs":[{"internalType":"address","name":"asset_source","type":"address"},{"internalType":"uint256","name":"nonce","type":"uint256"},{"internalType":"bytes","name":"signatures","type":"bytes"}],"name":"remove_asset","outputs":[],"stateMutability":"nonpayable","type":"function"},{"inputs":[{"internalType":"address","name":"depositor","type":"address"}],"name":"revoke_exempt_depositor","outputs":[],"stateMutability":"nonpayable","type":"function"},{"inputs":[{"internalType":"address","name":"asset_source","type":"address"},{"internalType":"uint256","name":"maximum_amount","type":"uint256"},{"internalType":"uint256","name":"nonce","type":"uint256"},{"internalType":"bytes","name":"signatures","type":"bytes"}],"name":"set_deposit_maximum","outputs":[],"stateMutability":"nonpayable","type":"function"},{"inputs":[{"internalType":"address","name":"asset_source","type":"address"},{"internalType":"uint256","name":"minimum_amount","type":"uint256"},{"internalType":"uint256","name":"nonce","type":"uint256"},{"internalType":"bytes","name":"signatures","type":"bytes"}],"name":"set_deposit_minimum","outputs":[],"stateMutability":"nonpayable","type":"function"},{"inputs":[{"internalType":"address","name":"lister","type":"address"},{"internalType":"uint256","name":"nonce","type":"uint256"},{"internalType":"bytes","name":"signatures","type":"bytes"}],"name":"set_exemption_lister","outputs":[],"stateMutability":"nonpayable","type":"function"},{"inputs":[{"internalType":"address","name":"asset_source","type":"address"},{"internalType":"uint256","name":"lifetime_limit","type":"uint256"},{"internalType":"uint256","name":"nonce","type":"uint256"},{"internalType":"bytes","name":"signatures","type":"bytes"}],"name":"set_lifetime_deposit_max","outputs":[],"stateMutability":"nonpayable","type":"function"},{"inputs":[{"internalType":"uint256","name":"delay","type":"uint256"},{"internalType":"uint256","name":"nonce","type":"uint256"},{"internalType":"bytes","name":"signatures","type":"bytes"}],"name":"set_withdraw_delay","outputs":[],"stateMutability":"nonpayable","type":"function"},{"inputs":[{"internalType":"address","name":"asset_source","type":"address"},{"internalType":"uint256","name":"threshold","type":"uint256"},{"internalType":"uint256","name":"nonce","type":"uint256"},{"internalType":"bytes","name":"signatures","type":"bytes"}],"name":"set_withdraw_threshold","outputs":[],"stateMutability":"nonpayable","type":"function"},{"inputs":[{"internalType":"address","name":"asset_source","type":"address"},{"internalType":"uint256","name":"amount","type":"uint256"},{"internalType":"address","name":"target","type":"address"},{"internalType":"uint256","name":"creation","type":"uint256"},{"internalType":"uint256","name":"nonce","type":"uint256"},{"internalType":"bytes","name":"signatures","type":"bytes"}],"name":"withdraw_asset","outputs":[],"stateMutability":"nonpayable","type":"function"}],"evm":{"bytecode":{"linkReferences":{},"object":"6080604052620697806009553480156200001857600080fd5b50604051620042ba380380620042ba83398181016040528101906200003e919062000176565b81600160006101000a81548173ffffffffffffffffffffffffffffffffffffffff021916908373ffffffffffffffffffffffffffffffffffffffff160217905550806000806101000a81548173ffffffffffffffffffffffffffffffffffffffff021916908373ffffffffffffffffffffffffffffffffffffffff1602179055505050620001bd565b600080fd5b600073ffffffffffffffffffffffffffffffffffffffff82169050919050565b6000620000f982620000cc565b9050919050565b6200010b81620000ec565b81146200011757600080fd5b50565b6000815190506200012b8162000100565b92915050565b60006200013e82620000cc565b9050919050565b620001508162000131565b81146200015c57600080fd5b50565b600081519050620001708162000145565b92915050565b6000806040838503121562000190576200018f620000c7565b5b6000620001a0858286016200011a565b9250506020620001b3858286016200015f565b9150509250929050565b6140ed80620001cd6000396000f3fe608060405234801561001057600080fd5b506004361061018e5760003560e01c8063786b0bc0116100de578063a06b5d3911610097578063d72ed52911610071578063d72ed5291461048d578063e272e9d0146104a9578063e8a7bce0146104c7578063f7683932146104f75761018e565b8063a06b5d3914610423578063c58dc3b914610453578063c76de358146104715761018e565b8063786b0bc0146103535780637aba7ee8146103835780637fd27b7f1461039f57806383d81590146103cf57806386175569146103eb5780639dfd3c88146104075761018e565b80633ad906351161014b57806341fcef9f1161012557806341fcef9f146102bb5780634322b1f2146102eb578063459320261461031b5780635a246728146103375761018e565b80633ad90635146102635780633d5bcf681461027f5780633f4f199d1461029d5761018e565b8063049315e2146101935780630ff3562c146101af57806315c0df9d146101cb5780631d501b5d146101fb578063292463b11461022b5780633882b3da14610247575b600080fd5b6101ad60048036038101906101a8919061294e565b610513565b005b6101c960048036038101906101c49190612b39565b6106b4565b005b6101e560048036038101906101e09190612be2565b610a29565b6040516101f29190612c2a565b60405180910390f35b61021560048036038101906102109190612be2565b610a7f565b6040516102229190612c54565b60405180910390f35b61024560048036038101906102409190612c6f565b610ac8565b005b610261600480360381019061025c9190612c6f565b610d05565b005b61027d60048036038101906102789190612cf2565b610f42565b005b6102876112a5565b6040516102949190612daa565b60405180910390f35b6102a56112cf565b6040516102b29190612c54565b60405180910390f35b6102d560048036038101906102d09190612be2565b6112d5565b6040516102e29190612c54565b60405180910390f35b61030560048036038101906103009190612be2565b61131e565b6040516103129190612c54565b60405180910390f35b61033560048036038101906103309190612be2565b611367565b005b610351600480360381019061034c9190612dc5565b611521565b005b61036d60048036038101906103689190612e39565b611645565b60405161037a9190612daa565b60405180910390f35b61039d60048036038101906103989190612e66565b611682565b005b6103b960048036038101906103b49190612be2565b611872565b6040516103c69190612c2a565b60405180910390f35b6103e960048036038101906103e49190612be2565b6118c8565b005b61040560048036038101906104009190612e66565b611af3565b005b610421600480360381019061041c9190612eee565b611ce3565b005b61043d60048036038101906104389190612be2565b611e94565b60405161044a9190612f5d565b60405180910390f35b61045b611edd565b6040516104689190612daa565b60405180910390f35b61048b60048036038101906104869190612f78565b611f06565b005b6104a760048036038101906104a29190612eee565b612152565b005b6104b1612302565b6040516104be9190612c2a565b60405180910390f35b6104e160048036038101906104dc9190612be2565b612315565b6040516104ee9190612c54565b60405180910390f35b610511600480360381019061050c9190612fe7565b61235e565b005b60008484604051602001610528929190613097565b604051602081830303815290604052905060008054906101000a900473ffffffffffffffffffffffffffffffffffffffff1673ffffffffffffffffffffffffffffffffffffffff1663ba73659a848484886040518563ffffffff1660e01b81526004016105989493929190613188565b602060405180830381600087803b1580156105b257600080fd5b505af11580156105c6573d6000803e3d6000fd5b505050506040513d601f19601f820116820180604052508101906105ea91906131fb565b610629576040517f08c379a000000000000000000000000000000000000000000000000000000000815260040161062090613274565b60405180910390fd5b84600d60006101000a81548173ffffffffffffffffffffffffffffffffffffffff021916908373ffffffffffffffffffffffffffffffffffffffff1602179055508473ffffffffffffffffffffffffffffffffffffffff167f91722710e0f6ac79b9106bc5993c461775b648571b12f0a5bf17740d43d1dbaf60405160405180910390a25050505050565b600260008773ffffffffffffffffffffffffffffffffffffffff1673ffffffffffffffffffffffffffffffffffffffff16815260200190815260200160002060009054906101000a900460ff1615610741576040517f08c379a0000000000000000000000000000000000000000000000000000000008152600401610738906132e0565b60405180910390fd5b6000868686868660405160200161075c95949392919061334c565b604051602081830303815290604052905060008054906101000a900473ffffffffffffffffffffffffffffffffffffffff1673ffffffffffffffffffffffffffffffffffffffff1663ba73659a8383866040518463ffffffff1660e01b81526004016107ca939291906133b2565b602060405180830381600087803b1580156107e457600080fd5b505af11580156107f8573d6000803e3d6000fd5b505050506040513d601f19601f8201168201806040525081019061081c91906131fb565b61085b576040517f08c379a000000000000000000000000000000000000000000000000000000000815260040161085290613274565b60405180910390fd5b6001600260008973ffffffffffffffffffffffffffffffffffffffff1673ffffffffffffffffffffffffffffffffffffffff16815260200190815260200160002060006101000a81548160ff021916908315150217905550866005600088815260200190815260200160002060006101000a81548173ffffffffffffffffffffffffffffffffffffffff021916908373ffffffffffffffffffffffffffffffffffffffff16021790555085600660008973ffffffffffffffffffffffffffffffffffffffff1673ffffffffffffffffffffffffffffffffffffffff1681526020019081526020016000208190555084600860008973ffffffffffffffffffffffffffffffffffffffff1673ffffffffffffffffffffffffffffffffffffffff1681526020019081526020016000208190555083600a60008973ffffffffffffffffffffffffffffffffffffffff1673ffffffffffffffffffffffffffffffffffffffff16815260200190815260200160002081905550858773ffffffffffffffffffffffffffffffffffffffff167f4180d77d05ff0d31650c548c23f2de07a3da3ad42e3dd6edd817b438a150452e85604051610a189190612c54565b60405180910390a350505050505050565b6000600c60008373ffffffffffffffffffffffffffffffffffffffff1673ffffffffffffffffffffffffffffffffffffffff16815260200190815260200160002060009054906101000a900460ff169050919050565b6000600460008373ffffffffffffffffffffffffffffffffffffffff1673ffffffffffffffffffffffffffffffffffffffff168152602001908152602001600020549050919050565b600260008573ffffffffffffffffffffffffffffffffffffffff1673ffffffffffffffffffffffffffffffffffffffff16815260200190815260200160002060009054906101000a900460ff16610b54576040517f08c379a0000000000000000000000000000000000000000000000000000000008152600401610b4b90613443565b60405180910390fd5b6000848484604051602001610b6b939291906134af565b604051602081830303815290604052905060008054906101000a900473ffffffffffffffffffffffffffffffffffffffff1673ffffffffffffffffffffffffffffffffffffffff1663ba73659a8383866040518463ffffffff1660e01b8152600401610bd9939291906133b2565b602060405180830381600087803b158015610bf357600080fd5b505af1158015610c07573d6000803e3d6000fd5b505050506040513d601f19601f82011682018060405250810190610c2b91906131fb565b610c6a576040517f08c379a0000000000000000000000000000000000000000000000000000000008152600401610c6190613274565b60405180910390fd5b83600460008773ffffffffffffffffffffffffffffffffffffffff1673ffffffffffffffffffffffffffffffffffffffff168152602001908152602001600020819055508473ffffffffffffffffffffffffffffffffffffffff167f8861dbda4052c4bf7ba24aad82097ef1e6ade8e6f1b42341640db8a12abfa9938585604051610cf69291906134f9565b60405180910390a25050505050565b600260008573ffffffffffffffffffffffffffffffffffffffff1673ffffffffffffffffffffffffffffffffffffffff16815260200190815260200160002060009054906101000a900460ff16610d91576040517f08c379a0000000000000000000000000000000000000000000000000000000008152600401610d8890613443565b60405180910390fd5b6000848484604051602001610da89392919061356e565b604051602081830303815290604052905060008054906101000a900473ffffffffffffffffffffffffffffffffffffffff1673ffffffffffffffffffffffffffffffffffffffff1663ba73659a8383866040518463ffffffff1660e01b8152600401610e16939291906133b2565b602060405180830381600087803b158015610e3057600080fd5b505af1158015610e44573d6000803e3d6000fd5b505050506040513d601f19601f82011682018060405250810190610e6891906131fb565b610ea7576040517f08c379a0000000000000000000000000000000000000000000000000000000008152600401610e9e90613274565b60405180910390fd5b83600360008773ffffffffffffffffffffffffffffffffffffffff1673ffffffffffffffffffffffffffffffffffffffff168152602001908152602001600020819055508473ffffffffffffffffffffffffffffffffffffffff167f4ed0df0b169b573722ecdcc12333646a6efd0445c28fe277470bbfca620e8ad58585604051610f339291906134f9565b60405180910390a25050505050565b600b60009054906101000a900460ff1615610f92576040517f08c379a0000000000000000000000000000000000000000000000000000000008152600401610f8990613604565b60405180910390fd5b84600a60008873ffffffffffffffffffffffffffffffffffffffff1673ffffffffffffffffffffffffffffffffffffffff168152602001908152602001600020541180610fec57504260095484610fe99190613653565b11155b61102b576040517f08c379a0000000000000000000000000000000000000000000000000000000008152600401611022906136f5565b60405180910390fd5b60008686868686604051602001611046959493929190613761565b604051602081830303815290604052905060008054906101000a900473ffffffffffffffffffffffffffffffffffffffff1673ffffffffffffffffffffffffffffffffffffffff1663ba73659a8383866040518463ffffffff1660e01b81526004016110b4939291906133b2565b602060405180830381600087803b1580156110ce57600080fd5b505af11580156110e2573d6000803e3d6000fd5b505050506040513d601f19601f8201168201806040525081019061110691906131fb565b611145576040517f08c379a000000000000000000000000000000000000000000000000000000000815260040161113c90613274565b60405180910390fd5b600160009054906101000a900473ffffffffffffffffffffffffffffffffffffffff1673ffffffffffffffffffffffffffffffffffffffff1663d9caed128887896040518463ffffffff1660e01b81526004016111a4939291906137c7565b602060405180830381600087803b1580156111be57600080fd5b505af11580156111d2573d6000803e3d6000fd5b505050506040513d601f19601f820116820180604052508101906111f691906131fb565b611235576040517f08c379a000000000000000000000000000000000000000000000000000000000815260040161122c90613870565b60405180910390fd5b8673ffffffffffffffffffffffffffffffffffffffff168573ffffffffffffffffffffffffffffffffffffffff167fa79be4f3361e32d396d64c478ecef73732cb40b2a75702c3b3b3226a2c83b5df88866040516112949291906134f9565b60405180910390a350505050505050565b6000600d60009054906101000a900473ffffffffffffffffffffffffffffffffffffffff16905090565b60095481565b6000600860008373ffffffffffffffffffffffffffffffffffffffff1673ffffffffffffffffffffffffffffffffffffffff168152602001908152602001600020549050919050565b6000600360008373ffffffffffffffffffffffffffffffffffffffff1673ffffffffffffffffffffffffffffffffffffffff168152602001908152602001600020549050919050565b600d60009054906101000a900473ffffffffffffffffffffffffffffffffffffffff1673ffffffffffffffffffffffffffffffffffffffff163373ffffffffffffffffffffffffffffffffffffffff16146113f7576040517f08c379a00000000000000000000000000000000000000000000000000000000081526004016113ee906138dc565b60405180910390fd5b600c60008273ffffffffffffffffffffffffffffffffffffffff1673ffffffffffffffffffffffffffffffffffffffff16815260200190815260200160002060009054906101000a900460ff16611483576040517f08c379a000000000000000000000000000000000000000000000000000000000815260040161147a90613948565b60405180910390fd5b6000600c60008373ffffffffffffffffffffffffffffffffffffffff1673ffffffffffffffffffffffffffffffffffffffff16815260200190815260200160002060006101000a81548160ff0219169083151502179055508073ffffffffffffffffffffffffffffffffffffffff167fe74b113dca87276d976f476a9b4b9da3c780a3262eaabad051ee4e98912936a460405160405180910390a250565b600084846040516020016115369291906139b4565b604051602081830303815290604052905060008054906101000a900473ffffffffffffffffffffffffffffffffffffffff1673ffffffffffffffffffffffffffffffffffffffff1663ba73659a848484886040518563ffffffff1660e01b81526004016115a69493929190613188565b602060405180830381600087803b1580156115c057600080fd5b505af11580156115d4573d6000803e3d6000fd5b505050506040513d601f19601f820116820180604052508101906115f891906131fb565b611637576040517f08c379a000000000000000000000000000000000000000000000000000000000815260040161162e90613274565b60405180910390fd5b846009819055505050505050565b60006005600083815260200190815260200160002060009054906101000a900473ffffffffffffffffffffffffffffffffffffffff169050919050565b600260008673ffffffffffffffffffffffffffffffffffffffff1673ffffffffffffffffffffffffffffffffffffffff16815260200190815260200160002060009054906101000a900460ff1661170e576040517f08c379a000000000000000000000000000000000000000000000000000000000815260040161170590613443565b60405180910390fd5b600085858560405160200161172593929190613a3c565b604051602081830303815290604052905060008054906101000a900473ffffffffffffffffffffffffffffffffffffffff1673ffffffffffffffffffffffffffffffffffffffff1663ba73659a848484886040518563ffffffff1660e01b81526004016117959493929190613188565b602060405180830381600087803b1580156117af57600080fd5b505af11580156117c3573d6000803e3d6000fd5b505050506040513d601f19601f820116820180604052508101906117e791906131fb565b611826576040517f08c379a000000000000000000000000000000000000000000000000000000000815260040161181d90613274565b60405180910390fd5b84600860008873ffffffffffffffffffffffffffffffffffffffff1673ffffffffffffffffffffffffffffffffffffffff16815260200190815260200160002081905550505050505050565b6000600260008373ffffffffffffffffffffffffffffffffffffffff1673ffffffffffffffffffffffffffffffffffffffff16815260200190815260200160002060009054906101000a900460ff169050919050565b600073ffffffffffffffffffffffffffffffffffffffff168173ffffffffffffffffffffffffffffffffffffffff161415611938576040517f08c379a000000000000000000000000000000000000000000000000000000000815260040161192f90613ad2565b60405180910390fd5b600c60008273ffffffffffffffffffffffffffffffffffffffff1673ffffffffffffffffffffffffffffffffffffffff16815260200190815260200160002060009054906101000a900460ff16156119c5576040517f08c379a00000000000000000000000000000000000000000000000000000000081526004016119bc90613b3e565b60405180910390fd5b600d60009054906101000a900473ffffffffffffffffffffffffffffffffffffffff1673ffffffffffffffffffffffffffffffffffffffff163373ffffffffffffffffffffffffffffffffffffffff1614611a55576040517f08c379a0000000000000000000000000000000000000000000000000000000008152600401611a4c906138dc565b60405180910390fd5b6001600c60008373ffffffffffffffffffffffffffffffffffffffff1673ffffffffffffffffffffffffffffffffffffffff16815260200190815260200160002060006101000a81548160ff0219169083151502179055508073ffffffffffffffffffffffffffffffffffffffff167ff56e0868b913034a60dbca9c89ee79f8b0fa18dadbc5f6665f2f9a2cf3f51cdb60405160405180910390a250565b600260008673ffffffffffffffffffffffffffffffffffffffff1673ffffffffffffffffffffffffffffffffffffffff16815260200190815260200160002060009054906101000a900460ff16611b7f576040517f08c379a0000000000000000000000000000000000000000000000000000000008152600401611b7690613443565b60405180910390fd5b6000858585604051602001611b9693929190613baa565b604051602081830303815290604052905060008054906101000a900473ffffffffffffffffffffffffffffffffffffffff1673ffffffffffffffffffffffffffffffffffffffff1663ba73659a848484886040518563ffffffff1660e01b8152600401611c069493929190613188565b602060405180830381600087803b158015611c2057600080fd5b505af1158015611c34573d6000803e3d6000fd5b505050506040513d601f19601f82011682018060405250810190611c5891906131fb565b611c97576040517f08c379a0000000000000000000000000000000000000000000000000000000008152600401611c8e90613274565b60405180910390fd5b84600a60008873ffffffffffffffffffffffffffffffffffffffff1673ffffffffffffffffffffffffffffffffffffffff16815260200190815260200160002081905550505050505050565b600b60009054906101000a900460ff1615611d33576040517f08c379a0000000000000000000000000000000000000000000000000000000008152600401611d2a90613c40565b60405180910390fd5b600083604051602001611d469190613cac565b604051602081830303815290604052905060008054906101000a900473ffffffffffffffffffffffffffffffffffffffff1673ffffffffffffffffffffffffffffffffffffffff1663ba73659a848484886040518563ffffffff1660e01b8152600401611db69493929190613188565b602060405180830381600087803b158015611dd057600080fd5b505af1158015611de4573d6000803e3d6000fd5b505050506040513d601f19601f82011682018060405250810190611e0891906131fb565b611e47576040517f08c379a0000000000000000000000000000000000000000000000000000000008152600401611e3e90613274565b60405180910390fd5b6001600b60006101000a81548160ff0219169083151502179055507f129d99581c8e70519df1f0733d3212f33d0ed3ea6144adacc336c647f1d3638260405160405180910390a150505050565b6000600660008373ffffffffffffffffffffffffffffffffffffffff1673ffffffffffffffffffffffffffffffffffffffff168152602001908152602001600020549050919050565b60008060009054906101000a900473ffffffffffffffffffffffffffffffffffffffff16905090565b600260008473ffffffffffffffffffffffffffffffffffffffff1673ffffffffffffffffffffffffffffffffffffffff16815260200190815260200160002060009054906101000a900460ff16611f92576040517f08c379a0000000000000000000000000000000000000000000000000000000008152600401611f8990613443565b60405180910390fd5b60008383604051602001611fa7929190613d26565b604051602081830303815290604052905060008054906101000a900473ffffffffffffffffffffffffffffffffffffffff1673ffffffffffffffffffffffffffffffffffffffff1663ba73659a8383866040518463ffffffff1660e01b8152600401612015939291906133b2565b602060405180830381600087803b15801561202f57600080fd5b505af1158015612043573d6000803e3d6000fd5b505050506040513d601f19601f8201168201806040525081019061206791906131fb565b6120a6576040517f08c379a000000000000000000000000000000000000000000000000000000000815260040161209d90613274565b60405180910390fd5b6000600260008673ffffffffffffffffffffffffffffffffffffffff1673ffffffffffffffffffffffffffffffffffffffff16815260200190815260200160002060006101000a81548160ff0219169083151502179055508373ffffffffffffffffffffffffffffffffffffffff167f58ad5e799e2df93ab408be0e5c1870d44c80b5bca99dfaf7ddf0dab5e6b155c9846040516121449190612c54565b60405180910390a250505050565b600b60009054906101000a900460ff166121a1576040517f08c379a000000000000000000000000000000000000000000000000000000000815260040161219890613dae565b60405180910390fd5b6000836040516020016121b49190613e1a565b604051602081830303815290604052905060008054906101000a900473ffffffffffffffffffffffffffffffffffffffff1673ffffffffffffffffffffffffffffffffffffffff1663ba73659a848484886040518563ffffffff1660e01b81526004016122249493929190613188565b602060405180830381600087803b15801561223e57600080fd5b505af1158015612252573d6000803e3d6000fd5b505050506040513d601f19601f8201168201806040525081019061227691906131fb565b6122b5576040517f08c379a00000000000000000000000000000000000000000000000000000000081526004016122ac90613274565b60405180910390fd5b6000600b60006101000a81548160ff0219169083151502179055507f79c02b0e60e0f00fe0370791204f2f175fe3f06f4816f3506ad4fa1b8e8cde0f60405160405180910390a150505050565b600b60009054906101000a900460ff1681565b6000600a60008373ffffffffffffffffffffffffffffffffffffffff1673ffffffffffffffffffffffffffffffffffffffff168152602001908152602001600020549050919050565b600b60009054906101000a900460ff16156123ae576040517f08c379a00000000000000000000000000000000000000000000000000000000081526004016123a590613604565b60405180910390fd5b600c60003373ffffffffffffffffffffffffffffffffffffffff1673ffffffffffffffffffffffffffffffffffffffff16815260200190815260200160002060009054906101000a900460ff16806124cc5750600860008473ffffffffffffffffffffffffffffffffffffffff1673ffffffffffffffffffffffffffffffffffffffff1681526020019081526020016000205482600760003373ffffffffffffffffffffffffffffffffffffffff1673ffffffffffffffffffffffffffffffffffffffff16815260200190815260200160002060008673ffffffffffffffffffffffffffffffffffffffff1673ffffffffffffffffffffffffffffffffffffffff168152602001908152602001600020546124c99190613653565b11155b61250b576040517f08c379a000000000000000000000000000000000000000000000000000000000815260040161250290613e94565b60405180910390fd5b600260008473ffffffffffffffffffffffffffffffffffffffff1673ffffffffffffffffffffffffffffffffffffffff16815260200190815260200160002060009054906101000a900460ff16612597576040517f08c379a000000000000000000000000000000000000000000000000000000000815260040161258e90613443565b60405180910390fd5b6000600460008573ffffffffffffffffffffffffffffffffffffffff1673ffffffffffffffffffffffffffffffffffffffff1681526020019081526020016000205414806126245750600460008473ffffffffffffffffffffffffffffffffffffffff1673ffffffffffffffffffffffffffffffffffffffff168152602001908152602001600020548211155b612663576040517f08c379a000000000000000000000000000000000000000000000000000000000815260040161265a90613f00565b60405180910390fd5b600360008473ffffffffffffffffffffffffffffffffffffffff1673ffffffffffffffffffffffffffffffffffffffff168152602001908152602001600020548210156126e5576040517f08c379a00000000000000000000000000000000000000000000000000000000081526004016126dc90613f6c565b60405180910390fd5b8273ffffffffffffffffffffffffffffffffffffffff166323b872dd33600160009054906101000a900473ffffffffffffffffffffffffffffffffffffffff16856040518463ffffffff1660e01b815260040161274493929190613feb565b602060405180830381600087803b15801561275e57600080fd5b505af1158015612772573d6000803e3d6000fd5b505050506040513d601f19601f8201168201806040525081019061279691906131fb565b6127d5576040517f08c379a00000000000000000000000000000000000000000000000000000000081526004016127cc9061406e565b60405180910390fd5b8273ffffffffffffffffffffffffffffffffffffffff163373ffffffffffffffffffffffffffffffffffffffff167f3724ff5e82ddc640a08d68b0b782a5991aea0de51a8dd10a59cdbe5b3ec4e6bf848460405161283492919061408e565b60405180910390a3505050565b6000604051905090565b600080fd5b600080fd5b600073ffffffffffffffffffffffffffffffffffffffff82169050919050565b600061288082612855565b9050919050565b61289081612875565b811461289b57600080fd5b50565b6000813590506128ad81612887565b92915050565b6000819050919050565b6128c6816128b3565b81146128d157600080fd5b50565b6000813590506128e3816128bd565b92915050565b600080fd5b600080fd5b600080fd5b60008083601f84011261290e5761290d6128e9565b5b8235905067ffffffffffffffff81111561292b5761292a6128ee565b5b602083019150836001820283011115612947576129466128f3565b5b9250929050565b600080600080606085870312156129685761296761284b565b5b60006129768782880161289e565b9450506020612987878288016128d4565b935050604085013567ffffffffffffffff8111156129a8576129a7612850565b5b6129b4878288016128f8565b925092505092959194509250565b6000819050919050565b6129d5816129c2565b81146129e057600080fd5b50565b6000813590506129f2816129cc565b92915050565b600080fd5b6000601f19601f8301169050919050565b7f4e487b7100000000000000000000000000000000000000000000000000000000600052604160045260246000fd5b612a46826129fd565b810181811067ffffffffffffffff82111715612a6557612a64612a0e565b5b80604052505050565b6000612a78612841565b9050612a848282612a3d565b919050565b600067ffffffffffffffff821115612aa457612aa3612a0e565b5b612aad826129fd565b9050602081019050919050565b82818337600083830152505050565b6000612adc612ad784612a89565b612a6e565b905082815260208101848484011115612af857612af76129f8565b5b612b03848285612aba565b509392505050565b600082601f830112612b2057612b1f6128e9565b5b8135612b30848260208601612ac9565b91505092915050565b60008060008060008060c08789031215612b5657612b5561284b565b5b6000612b6489828a0161289e565b9650506020612b7589828a016129e3565b9550506040612b8689828a016128d4565b9450506060612b9789828a016128d4565b9350506080612ba889828a016128d4565b92505060a087013567ffffffffffffffff811115612bc957612bc8612850565b5b612bd589828a01612b0b565b9150509295509295509295565b600060208284031215612bf857612bf761284b565b5b6000612c068482850161289e565b91505092915050565b60008115159050919050565b612c2481612c0f565b82525050565b6000602082019050612c3f6000830184612c1b565b92915050565b612c4e816128b3565b82525050565b6000602082019050612c696000830184612c45565b92915050565b60008060008060808587031215612c8957612c8861284b565b5b6000612c978782880161289e565b9450506020612ca8878288016128d4565b9350506040612cb9878288016128d4565b925050606085013567ffffffffffffffff811115612cda57612cd9612850565b5b612ce687828801612b0b565b91505092959194509250565b60008060008060008060c08789031215612d0f57612d0e61284b565b5b6000612d1d89828a0161289e565b9650506020612d2e89828a016128d4565b9550506040612d3f89828a0161289e565b9450506060612d5089828a016128d4565b9350506080612d6189828a016128d4565b92505060a087013567ffffffffffffffff811115612d8257612d81612850565b5b612d8e89828a01612b0b565b9150509295509295509295565b612da481612875565b82525050565b6000602082019050612dbf6000830184612d9b565b92915050565b60008060008060608587031215612ddf57612dde61284b565b5b6000612ded878288016128d4565b9450506020612dfe878288016128d4565b935050604085013567ffffffffffffffff811115612e1f57612e1e612850565b5b612e2b878288016128f8565b925092505092959194509250565b600060208284031215612e4f57612e4e61284b565b5b6000612e5d848285016129e3565b91505092915050565b600080600080600060808688031215612e8257612e8161284b565b5b6000612e908882890161289e565b9550506020612ea1888289016128d4565b9450506040612eb2888289016128d4565b935050606086013567ffffffffffffffff811115612ed357612ed2612850565b5b612edf888289016128f8565b92509250509295509295909350565b600080600060408486031215612f0757612f0661284b565b5b6000612f15868287016128d4565b935050602084013567ffffffffffffffff811115612f3657612f35612850565b5b612f42868287016128f8565b92509250509250925092565b612f57816129c2565b82525050565b6000602082019050612f726000830184612f4e565b92915050565b600080600060608486031215612f9157612f9061284b565b5b6000612f9f8682870161289e565b9350506020612fb0868287016128d4565b925050604084013567ffffffffffffffff811115612fd157612fd0612850565b5b612fdd86828701612b0b565b9150509250925092565b60008060006060848603121561300057612fff61284b565b5b600061300e8682870161289e565b935050602061301f868287016128d4565b9250506040613030868287016129e3565b9150509250925092565b600082825260208201905092915050565b7f7365745f6578656d7074696f6e5f6c6973746572000000000000000000000000600082015250565b600061308160148361303a565b915061308c8261304b565b602082019050919050565b60006060820190506130ac6000830185612d9b565b6130b96020830184612c45565b81810360408301526130ca81613074565b90509392505050565b600082825260208201905092915050565b60006130f083856130d3565b93506130fd838584612aba565b613106836129fd565b840190509392505050565b600081519050919050565b60005b8381101561313a57808201518184015260208101905061311f565b83811115613149576000848401525b50505050565b600061315a82613111565b61316481856130d3565b935061317481856020860161311c565b61317d816129fd565b840191505092915050565b600060608201905081810360008301526131a38186886130e4565b905081810360208301526131b7818561314f565b90506131c66040830184612c45565b95945050505050565b6131d881612c0f565b81146131e357600080fd5b50565b6000815190506131f5816131cf565b92915050565b6000602082840312156132115761321061284b565b5b600061321f848285016131e6565b91505092915050565b7f626164207369676e617475726573000000000000000000000000000000000000600082015250565b600061325e600e8361303a565b915061326982613228565b602082019050919050565b6000602082019050818103600083015261328d81613251565b9050919050565b7f617373657420616c7265616479206c6973746564000000000000000000000000600082015250565b60006132ca60148361303a565b91506132d582613294565b602082019050919050565b600060208201905081810360008301526132f9816132bd565b9050919050565b7f6c6973745f617373657400000000000000000000000000000000000000000000600082015250565b6000613336600a8361303a565b915061334182613300565b602082019050919050565b600060c0820190506133616000830188612d9b565b61336e6020830187612f4e565b61337b6040830186612c45565b6133886060830185612c45565b6133956080830184612c45565b81810360a08301526133a681613329565b90509695505050505050565b600060608201905081810360008301526133cc818661314f565b905081810360208301526133e0818561314f565b90506133ef6040830184612c45565b949350505050565b7f6173736574206e6f74206c697374656400000000000000000000000000000000600082015250565b600061342d60108361303a565b9150613438826133f7565b602082019050919050565b6000602082019050818103600083015261345c81613420565b9050919050565b7f7365745f6465706f7369745f6d6178696d756d00000000000000000000000000600082015250565b600061349960138361303a565b91506134a482613463565b602082019050919050565b60006080820190506134c46000830186612d9b565b6134d16020830185612c45565b6134de6040830184612c45565b81810360608301526134ef8161348c565b9050949350505050565b600060408201905061350e6000830185612c45565b61351b6020830184612c45565b9392505050565b7f7365745f6465706f7369745f6d696e696d756d00000000000000000000000000600082015250565b600061355860138361303a565b915061356382613522565b602082019050919050565b60006080820190506135836000830186612d9b565b6135906020830185612c45565b61359d6040830184612c45565b81810360608301526135ae8161354b565b9050949350505050565b7f6272696467652073746f70706564000000000000000000000000000000000000600082015250565b60006135ee600e8361303a565b91506135f9826135b8565b602082019050919050565b6000602082019050818103600083015261361d816135e1565b9050919050565b7f4e487b7100000000000000000000000000000000000000000000000000000000600052601160045260246000fd5b600061365e826128b3565b9150613669836128b3565b9250827fffffffffffffffffffffffffffffffffffffffffffffffffffffffffffffffff0382111561369e5761369d613624565b5b828201905092915050565b7f6c61726765207769746864726177206973206e6f74206f6c6420656e6f756768600082015250565b60006136df60208361303a565b91506136ea826136a9565b602082019050919050565b6000602082019050818103600083015261370e816136d2565b9050919050565b7f77697468647261775f6173736574000000000000000000000000000000000000600082015250565b600061374b600e8361303a565b915061375682613715565b602082019050919050565b600060c0820190506137766000830188612d9b565b6137836020830187612c45565b6137906040830186612d9b565b61379d6060830185612c45565b6137aa6080830184612c45565b81810360a08301526137bb8161373e565b90509695505050505050565b60006060820190506137dc6000830186612d9b565b6137e96020830185612d9b565b6137f66040830184612c45565b949350505050565b7f746f6b656e206469646e2774207472616e736665722c2072656a65637465642060008201527f627920617373657420706f6f6c2e000000000000000000000000000000000000602082015250565b600061385a602e8361303a565b9150613865826137fe565b604082019050919050565b600060208201905081810360008301526138898161384d565b9050919050565b7f756e617574686f72697a6564206578656d7074696f6e206c6973746572000000600082015250565b60006138c6601d8361303a565b91506138d182613890565b602082019050919050565b600060208201905081810360008301526138f5816138b9565b9050919050565b7f6465706f7369746f72206e6f74206578656d7074000000000000000000000000600082015250565b600061393260148361303a565b915061393d826138fc565b602082019050919050565b6000602082019050818103600083015261396181613925565b9050919050565b7f7365745f77697468647261775f64656c61790000000000000000000000000000600082015250565b600061399e60128361303a565b91506139a982613968565b602082019050919050565b60006060820190506139c96000830185612c45565b6139d66020830184612c45565b81810360408301526139e781613991565b90509392505050565b7f7365745f6c69666574696d655f6465706f7369745f6d61780000000000000000600082015250565b6000613a2660188361303a565b9150613a31826139f0565b602082019050919050565b6000608082019050613a516000830186612d9b565b613a5e6020830185612c45565b613a6b6040830184612c45565b8181036060830152613a7c81613a19565b9050949350505050565b7f63616e6e6f74206578656d7074207a65726f2061646472657373000000000000600082015250565b6000613abc601a8361303a565b9150613ac782613a86565b602082019050919050565b60006020820190508181036000830152613aeb81613aaf565b9050919050565b7f6465706f7369746f7220616c7265616479206578656d70740000000000000000600082015250565b6000613b2860188361303a565b9150613b3382613af2565b602082019050919050565b60006020820190508181036000830152613b5781613b1b565b9050919050565b7f7365745f77697468647261775f7468726573686f6c6400000000000000000000600082015250565b6000613b9460168361303a565b9150613b9f82613b5e565b602082019050919050565b6000608082019050613bbf6000830186612d9b565b613bcc6020830185612c45565b613bd96040830184612c45565b8181036060830152613bea81613b87565b9050949350505050565b7f62726964676520616c72656164792073746f7070656400000000000000000000600082015250565b6000613c2a60168361303a565b9150613c3582613bf4565b602082019050919050565b60006020820190508181036000830152613c5981613c1d565b9050919050565b7f676c6f62616c5f73746f70000000000000000000000000000000000000000000600082015250565b6000613c96600b8361303a565b9150613ca182613c60565b602082019050919050565b6000604082019050613cc16000830184612c45565b8181036020830152613cd281613c89565b905092915050565b7f72656d6f76655f61737365740000000000000000000000000000000000000000600082015250565b6000613d10600c8361303a565b9150613d1b82613cda565b602082019050919050565b6000606082019050613d3b6000830185612d9b565b613d486020830184612c45565b8181036040830152613d5981613d03565b90509392505050565b7f627269646765206e6f742073746f707065640000000000000000000000000000600082015250565b6000613d9860128361303a565b9150613da382613d62565b602082019050919050565b60006020820190508181036000830152613dc781613d8b565b9050919050565b7f676c6f62616c5f726573756d6500000000000000000000000000000000000000600082015250565b6000613e04600d8361303a565b9150613e0f82613dce565b602082019050919050565b6000604082019050613e2f6000830184612c45565b8181036020830152613e4081613df7565b905092915050565b7f6465706f736974206f766572206c69666574696d65206c696d69740000000000600082015250565b6000613e7e601b8361303a565b9150613e8982613e48565b602082019050919050565b60006020820190508181036000830152613ead81613e71565b9050919050565b7f6465706f7369742061626f7665206d6178696d756d0000000000000000000000600082015250565b6000613eea60158361303a565b9150613ef582613eb4565b602082019050919050565b60006020820190508181036000830152613f1981613edd565b9050919050565b7f6465706f7369742062656c6f77206d696e696d756d0000000000000000000000600082015250565b6000613f5660158361303a565b9150613f6182613f20565b602082019050919050565b60006020820190508181036000830152613f8581613f49565b9050919050565b6000819050919050565b6000613fb1613fac613fa784612855565b613f8c565b612855565b9050919050565b6000613fc382613f96565b9050919050565b6000613fd582613fb8565b9050919050565b613fe581613fca565b82525050565b60006060820190506140006000830186612d9b565b61400d6020830185613fdc565b61401a6040830184612c45565b949350505050565b7f7472616e73666572206661696c656420696e206465706f736974000000000000600082015250565b6000614058601a8361303a565b915061406382614022565b602082019050919050565b600060208201905081810360008301526140878161404b565b9050919050565b60006040820190506140a36000830185612c45565b6140b06020830184612f4e565b939250505056fea2646970667358221220acb22a50dfc9df455035ede6e66907c6ae7aab3b64f79f53d81545fb82ee5d4264736f6c63430008080033","opcodes":"PUSH1 0x80 PUSH1 0x40 MSTORE PUSH3 0x69780 PUSH1 0x9 SSTORE CALLVALUE DUP1 ISZERO PUSH3 0x18 JUMPI PUSH1 0x0 DUP1 REVERT JUMPDEST POP PUSH1 0x40 MLOAD PUSH3 0x42BA CODESIZE SUB DUP1 PUSH3 0x42BA DUP4 CODECOPY DUP2 DUP2 ADD PUSH1 0x40 MSTORE DUP2 ADD SWAP1 PUSH3 0x3E SWAP2 SWAP1 PUSH3 0x176 JUMP JUMPDEST DUP2 PUSH1 0x1 PUSH1 0x0 PUSH2 0x100 EXP DUP2 SLOAD DUP2 PUSH20 0xFFFFFFFFFFFFFFFFFFFFFFFFFFFFFFFFFFFFFFFF MUL NOT AND SWAP1 DUP4 PUSH20 0xFFFFFFFFFFFFFFFFFFFFFFFFFFFFFFFFFFFFFFFF AND MUL OR SWAP1 SSTORE POP DUP1 PUSH1 0x0 DUP1 PUSH2 0x100 EXP DUP2 SLOAD DUP2 PUSH20 0xFFFFFFFFFFFFFFFFFFFFFFFFFFFFFFFFFFFFFFFF MUL NOT AND SWAP1 DUP4 PUSH20 0xFFFFFFFFFFFFFFFFFFFFFFFFFFFFFFFFFFFFFFFF AND MUL OR SWAP1 SSTORE POP POP POP PUSH3 0x1BD JUMP JUMPDEST PUSH1 0x0 DUP1 REVERT JUMPDEST PUSH1 0x0 PUSH20 0xFFFFFFFFFFFFFFFFFFFFFFFFFFFFFFFFFFFFFFFF DUP3 AND SWAP1 POP SWAP2 SWAP1 POP JUMP JUMPDEST PUSH1 0x0 PUSH3 0xF9 DUP3 PUSH3 0xCC JUMP JUMPDEST SWAP1 POP SWAP2 SWAP1 POP JUMP JUMPDEST PUSH3 0x10B DUP2 PUSH3 0xEC JUMP JUMPDEST DUP2 EQ PUSH3 0x117 JUMPI PUSH1 0x0 DUP1 REVERT JUMPDEST POP JUMP JUMPDEST PUSH1 0x0 DUP2 MLOAD SWAP1 POP PUSH3 0x12B DUP2 PUSH3 0x100 JUMP JUMPDEST SWAP3 SWAP2 POP POP JUMP JUMPDEST PUSH1 0x0 PUSH3 0x13E DUP3 PUSH3 0xCC JUMP JUMPDEST SWAP1 POP SWAP2 SWAP1 POP JUMP JUMPDEST PUSH3 0x150 DUP2 PUSH3 0x131 JUMP JUMPDEST DUP2 EQ PUSH3 0x15C JUMPI PUSH1 0x0 DUP1 REVERT JUMPDEST POP JUMP JUMPDEST PUSH1 0x0 DUP2 MLOAD SWAP1 POP PUSH3 0x170 DUP2 PUSH3 0x145 JUMP JUMPDEST SWAP3 SWAP2 POP POP JUMP JUMPDEST PUSH1 0x0 DUP1 PUSH1 0x40 DUP4 DUP6 SUB SLT ISZERO PUSH3 0x190 JUMPI PUSH3 0x18F PUSH3 0xC7 JUMP JUMPDEST JUMPDEST PUSH1 0x0 PUSH3 0x1A0 DUP6 DUP3 DUP7 ADD PUSH3 0x11A JUMP JUMPDEST SWAP3 POP POP PUSH1 0x20 PUSH3 0x1B3 DUP6 DUP3 DUP7 ADD PUSH3 0x15F JUMP JUMPDEST SWAP2 POP POP SWAP3 POP SWAP3 SWAP1 POP JUMP JUMPDEST PUSH2 0x40ED DUP1 PUSH3 0x1CD PUSH1 0x0 CODECOPY PUSH1 0x0 RETURN INVALID PUSH1 0x80 PUSH1 0x40 MSTORE CALLVALUE DUP1 ISZERO PUSH2 0x10 JUMPI PUSH1 0x0 DUP1 REVERT JUMPDEST POP PUSH1 0x4 CALLDATASIZE LT PUSH2 0x18E JUMPI PUSH1 0x0 CALLDATALOAD PUSH1 0xE0 SHR DUP1 PUSH4 0x786B0BC0 GT PUSH2 0xDE JUMPI DUP1 PUSH4 0xA06B5D39 GT PUSH2 0x97 JUMPI DUP1 PUSH4 0xD72ED529 GT PUSH2 0x71 JUMPI DUP1 PUSH4 0xD72ED529 EQ PUSH2 0x48D JUMPI DUP1 PUSH4 0xE272E9D0 EQ PUSH2 0x4A9 JUMPI DUP1 PUSH4 0xE8A7BCE0 EQ PUSH2 0x4C7 JUMPI DUP1 PUSH4 0xF7683932 EQ PUSH2 0x4F7 JUMPI PUSH2 0x18E JUMP JUMPDEST DUP1 PUSH4 0xA06B5D39 EQ PUSH2 0x423 JUMPI DUP1 PUSH4 0xC58DC3B9 EQ PUSH2 0x453 JUMPI DUP1 PUSH4 0xC76DE358 EQ PUSH2 0x471 JUMPI PUSH2 0x18E JUMP JUMPDEST DUP1 PUSH4 0x786B0BC0 EQ PUSH2 0x353 JUMPI DUP1 PUSH4 0x7ABA7EE8 EQ PUSH2 0x383 JUMPI DUP1 PUSH4 0x7FD27B7F EQ PUSH2 0x39F JUMPI DUP1 PUSH4 0x83D81590 EQ PUSH2 0x3CF JUMPI DUP1 PUSH4 0x86175569 EQ PUSH2 0x3EB JUMPI DUP1 PUSH4 0x9DFD3C88 EQ PUSH2 0x407 JUMPI PUSH2 0x18E JUMP JUMPDEST DUP1 PUSH4 0x3AD90635 GT PUSH2 0x14B JUMPI DUP1 PUSH4 0x41FCEF9F GT PUSH2 0x125 JUMPI DUP1 PUSH4 0x41FCEF9F EQ PUSH2 0x2BB JUMPI DUP1 PUSH4 0x4322B1F2 EQ PUSH2 0x2EB JUMPI DUP1 PUSH4 0x45932026 EQ PUSH2 0x31B JUMPI DUP1 PUSH4 0x5A246728 EQ PUSH2 0x337 JUMPI PUSH2 0x18E JUMP JUMPDEST DUP1 PUSH4 0x3AD90635 EQ PUSH2 0x263 JUMPI DUP1 PUSH4 0x3D5BCF68 EQ PUSH2 0x27F JUMPI DUP1 PUSH4 0x3F4F199D EQ PUSH2 0x29D JUMPI PUSH2 0x18E JUMP JUMPDEST DUP1 PUSH4 0x49315E2 EQ PUSH2 0x193 JUMPI DUP1 PUSH4 0xFF3562C EQ PUSH2 0x1AF JUMPI DUP1 PUSH4 0x15C0DF9D EQ PUSH2 0x1CB JUMPI DUP1 PUSH4 0x1D501B5D EQ PUSH2 0x1FB JUMPI DUP1 PUSH4 0x292463B1 EQ PUSH2 0x22B JUMPI DUP1 PUSH4 0x3882B3DA EQ PUSH2 0x247 JUMPI JUMPDEST PUSH1 0x0 DUP1 REVERT JUMPDEST PUSH2 0x1AD PUSH1 0x4 DUP1 CALLDATASIZE SUB DUP2 ADD SWAP1 PUSH2 0x1A8 SWAP2 SWAP1 PUSH2 0x294E JUMP JUMPDEST PUSH2 0x513 JUMP JUMPDEST STOP JUMPDEST PUSH2 0x1C9 PUSH1 0x4 DUP1 CALLDATASIZE SUB DUP2 ADD SWAP1 PUSH2 0x1C4 SWAP2 SWAP1 PUSH2 0x2B39 JUMP JUMPDEST PUSH2 0x6B4 JUMP JUMPDEST STOP JUMPDEST PUSH2 0x1E5 PUSH1 0x4 DUP1 CALLDATASIZE SUB DUP2 ADD SWAP1 PUSH2 0x1E0 SWAP2 SWAP1 PUSH2 0x2BE2 JUMP JUMPDEST PUSH2 0xA29 JUMP JUMPDEST PUSH1 0x40 MLOAD PUSH2 0x1F2 SWAP2 SWAP1 PUSH2 0x2C2A JUMP JUMPDEST PUSH1 0x40 MLOAD DUP1 SWAP2 SUB SWAP1 RETURN JUMPDEST PUSH2 0x215 PUSH1 0x4 DUP1 CALLDATASIZE SUB DUP2 ADD SWAP1 PUSH2 0x210 SWAP2 SWAP1 PUSH2 0x2BE2 JUMP JUMPDEST PUSH2 0xA7F JUMP JUMPDEST PUSH1 0x40 MLOAD PUSH2 0x222 SWAP2 SWAP1 PUSH2 0x2C54 JUMP JUMPDEST PUSH1 0x40 MLOAD DUP1 SWAP2 SUB SWAP1 RETURN JUMPDEST PUSH2 0x245 PUSH1 0x4 DUP1 CALLDATASIZE SUB DUP2 ADD SWAP1 PUSH2 0x240 SWAP2 SWAP1 PUSH2 0x2C6F JUMP JUMPDEST PUSH2 0xAC8 JUMP JUMPDEST STOP JUMPDEST PUSH2 0x261 PUSH1 0x4 DUP1 CALLDATASIZE SUB DUP2 ADD SWAP1 PUSH2 0x25C SWAP2 SWAP1 PUSH2 0x2C6F JUMP JUMPDEST PUSH2 0xD05 JUMP JUMPDEST STOP JUMPDEST PUSH2 0x27D PUSH1 0x4 DUP1 CALLDATASIZE SUB DUP2 ADD SWAP1 PUSH2 0x278 SWAP2 SWAP1 PUSH2 0x2CF2 JUMP JUMPDEST PUSH2 0xF42 JUMP JUMPDEST STOP JUMPDEST PUSH2 0x287 PUSH2 0x12A5 JUMP JUMPDEST PUSH1 0x40 MLOAD PUSH2 0x294 SWAP2 SWAP1 PUSH2 0x2DAA JUMP JUMPDEST PUSH1 0x40 MLOAD DUP1 SWAP2 SUB SWAP1 RETURN JUMPDEST PUSH2 0x2A5 PUSH2 0x12CF JUMP JUMPDEST PUSH1 0x40 MLOAD PUSH2 0x2B2 SWAP2 SWAP1 PUSH2 0x2C54 JUMP JUMPDEST PUSH1 0x40 MLOAD DUP1 SWAP2 SUB SWAP1 RETURN JUMPDEST PUSH2 0x2D5 PUSH1 0x4 DUP1 CALLDATASIZE SUB DUP2 ADD SWAP1 PUSH2 0x2D0 SWAP2 SWAP1 PUSH2 0x2BE2 JUMP JUMPDEST PUSH2 0x12D5 JUMP JUMPDEST PUSH1 0x40 MLOAD PUSH2 0x2E2 SWAP2 SWAP1 PUSH2 0x2C54 JUMP JUMPDEST PUSH1 0x40 MLOAD DUP1 SWAP2 SUB SWAP1 RETURN JUMPDEST PUSH2 0x305 PUSH1 0x4 DUP1 CALLDATASIZE SUB DUP2 ADD SWAP1 PUSH2 0x300 SWAP2 SWAP1 PUSH2 0x2BE2 JUMP JUMPDEST PUSH2 0x131E JUMP JUMPDEST PUSH1 0x40 MLOAD PUSH2 0x312 SWAP2 SWAP1 PUSH2 0x2C54 JUMP JUMPDEST PUSH1 0x40 MLOAD DUP1 SWAP2 SUB SWAP1 RETURN JUMPDEST PUSH2 0x335 PUSH1 0x4 DUP1 CALLDATASIZE SUB DUP2 ADD SWAP1 PUSH2 0x330 SWAP2 SWAP1 PUSH2 0x2BE2 JUMP JUMPDEST PUSH2 0x1367 JUMP JUMPDEST STOP JUMPDEST PUSH2 0x351 PUSH1 0x4 DUP1 CALLDATASIZE SUB DUP2 ADD SWAP1 PUSH2 0x34C SWAP2 SWAP1 PUSH2 0x2DC5 JUMP JUMPDEST PUSH2 0x1521 JUMP JUMPDEST STOP JUMPDEST PUSH2 0x36D PUSH1 0x4 DUP1 CALLDATASIZE SUB DUP2 ADD SWAP1 PUSH2 0x368 SWAP2 SWAP1 PUSH2 0x2E39 JUMP JUMPDEST PUSH2 0x1645 JUMP JUMPDEST PUSH1 0x40 MLOAD PUSH2 0x37A SWAP2 SWAP1 PUSH2 0x2DAA JUMP JUMPDEST PUSH1 0x40 MLOAD DUP1 SWAP2 SUB SWAP1 RETURN JUMPDEST PUSH2 0x39D PUSH1 0x4 DUP1 CALLDATASIZE SUB DUP2 ADD SWAP1 PUSH2 0x398 SWAP2 SWAP1 PUSH2 0x2E66 JUMP JUMPDEST PUSH2 0x1682 JUMP JUMPDEST STOP JUMPDEST PUSH2 0x3B9 PUSH1 0x4 DUP1 CALLDATASIZE SUB DUP2 ADD SWAP1 PUSH2 0x3B4 SWAP2 SWAP1 PUSH2 0x2BE2 JUMP JUMPDEST PUSH2 0x1872 JUMP JUMPDEST PUSH1 0x40 MLOAD PUSH2 0x3C6 SWAP2 SWAP1 PUSH2 0x2C2A JUMP JUMPDEST PUSH1 0x40 MLOAD DUP1 SWAP2 SUB SWAP1 RETURN JUMPDEST PUSH2 0x3E9 PUSH1 0x4 DUP1 CALLDATASIZE SUB DUP2 ADD SWAP1 PUSH2 0x3E4 SWAP2 SWAP1 PUSH2 0x2BE2 JUMP JUMPDEST PUSH2 0x18C8 JUMP JUMPDEST STOP JUMPDEST PUSH2 0x405 PUSH1 0x4 DUP1 CALLDATASIZE SUB DUP2 ADD SWAP1 PUSH2 0x400 SWAP2 SWAP1 PUSH2 0x2E66 JUMP JUMPDEST PUSH2 0x1AF3 JUMP JUMPDEST STOP JUMPDEST PUSH2 0x421 PUSH1 0x4 DUP1 CALLDATASIZE SUB DUP2 ADD SWAP1 PUSH2 0x41C SWAP2 SWAP1 PUSH2 0x2EEE JUMP JUMPDEST PUSH2 0x1CE3 JUMP JUMPDEST STOP JUMPDEST PUSH2 0x43D PUSH1 0x4 DUP1 CALLDATASIZE SUB DUP2 ADD SWAP1 PUSH2 0x438 SWAP2 SWAP1 PUSH2 0x2BE2 JUMP JUMPDEST PUSH2 0x1E94 JUMP JUMPDEST PUSH1 0x40 MLOAD PUSH2 0x44A SWAP2 SWAP1 PUSH2 0x2F5D JUMP JUMPDEST PUSH1 0x40 MLOAD DUP1 SWAP2 SUB SWAP1 RETURN JUMPDEST PUSH2 0x45B PUSH2 0x1EDD JUMP JUMPDEST PUSH1 0x40 MLOAD PUSH2 0x468 SWAP2 SWAP1 PUSH2 0x2DAA JUMP JUMPDEST PUSH1 0x40 MLOAD DUP1 SWAP2 SUB SWAP1 RETURN JUMPDEST PUSH2 0x48B PUSH1 0x4 DUP1 CALLDATASIZE SUB DUP2 ADD SWAP1 PUSH2 0x486 SWAP2 SWAP1 PUSH2 0x2F78 JUMP JUMPDEST PUSH2 0x1F06 JUMP JUMPDEST STOP JUMPDEST PUSH2 0x4A7 PUSH1 0x4 DUP1 CALLDATASIZE SUB DUP2 ADD SWAP1 PUSH2 0x4A2 SWAP2 SWAP1 PUSH2 0x2EEE JUMP JUMPDEST PUSH2 0x2152 JUMP JUMPDEST STOP JUMPDEST PUSH2 0x4B1 PUSH2 0x2302 JUMP JUMPDEST PUSH1 0x40 MLOAD PUSH2 0x4BE SWAP2 SWAP1 PUSH2 0x2C2A JUMP JUMPDEST PUSH1 0x40 MLOAD DUP1 SWAP2 SUB SWAP1 RETURN JUMPDEST PUSH2 0x4E1 PUSH1 0x4 DUP1 CALLDATASIZE SUB DUP2 ADD SWAP1 PUSH2 0x4DC SWAP2 SWAP1 PUSH2 0x2BE2 JUMP JUMPDEST PUSH2 0x2315 JUMP JUMPDEST PUSH1 0x40 MLOAD PUSH2 0x4EE SWAP2 SWAP1 PUSH2 0x2C54 JUMP JUMPDEST PUSH1 0x40 MLOAD DUP1 SWAP2 SUB SWAP1 RETURN JUMPDEST PUSH2 0x511 PUSH1 0x4 DUP1 CALLDATASIZE SUB DUP2 ADD SWAP1 PUSH2 0x50C SWAP2 SWAP1 PUSH2 0x2FE7 JUMP JUMPDEST PUSH2 0x235E JUMP JUMPDEST STOP JUMPDEST PUSH1 0x0 DUP5 DUP5 PUSH1 0x40 MLOAD PUSH1 0x20 ADD PUSH2 0x528 SWAP3 SWAP2 SWAP1 PUSH2 0x3097 JUMP JUMPDEST PUSH1 0x40 MLOAD PUSH1 0x20 DUP2 DUP4 SUB SUB DUP2 MSTORE SWAP1 PUSH1 0x40 MSTORE SWAP1 POP PUSH1 0x0 DUP1 SLOAD SWAP1 PUSH2 0x100 EXP SWAP1 DIV PUSH20 0xFFFFFFFFFFFFFFFFFFFFFFFFFFFFFFFFFFFFFFFF AND PUSH20 0xFFFFFFFFFFFFFFFFFFFFFFFFFFFFFFFFFFFFFFFF AND PUSH4 0xBA73659A DUP5 DUP5 DUP5 DUP9 PUSH1 0x40 MLOAD DUP6 PUSH4 0xFFFFFFFF AND PUSH1 0xE0 SHL DUP2 MSTORE PUSH1 0x4 ADD PUSH2 0x598 SWAP5 SWAP4 SWAP3 SWAP2 SWAP1 PUSH2 0x3188 JUMP JUMPDEST PUSH1 0x20 PUSH1 0x40 MLOAD DUP1 DUP4 SUB DUP2 PUSH1 0x0 DUP8 DUP1 EXTCODESIZE ISZERO DUP1 ISZERO PUSH2 0x5B2 JUMPI PUSH1 0x0 DUP1 REVERT JUMPDEST POP GAS CALL ISZERO DUP1 ISZERO PUSH2 0x5C6 JUMPI RETURNDATASIZE PUSH1 0x0 DUP1 RETURNDATACOPY RETURNDATASIZE PUSH1 0x0 REVERT JUMPDEST POP POP POP POP PUSH1 0x40 MLOAD RETURNDATASIZE PUSH1 0x1F NOT PUSH1 0x1F DUP3 ADD AND DUP3 ADD DUP1 PUSH1 0x40 MSTORE POP DUP2 ADD SWAP1 PUSH2 0x5EA SWAP2 SWAP1 PUSH2 0x31FB JUMP JUMPDEST PUSH2 0x629 JUMPI PUSH1 0x40 MLOAD PUSH32 0x8C379A000000000000000000000000000000000000000000000000000000000 DUP2 MSTORE PUSH1 0x4 ADD PUSH2 0x620 SWAP1 PUSH2 0x3274 JUMP JUMPDEST PUSH1 0x40 MLOAD DUP1 SWAP2 SUB SWAP1 REVERT JUMPDEST DUP5 PUSH1 0xD PUSH1 0x0 PUSH2 0x100 EXP DUP2 SLOAD DUP2 PUSH20 0xFFFFFFFFFFFFFFFFFFFFFFFFFFFFFFFFFFFFFFFF MUL NOT AND SWAP1 DUP4 PUSH20 0xFFFFFFFFFFFFFFFFFFFFFFFFFFFFFFFFFFFFFFFF AND MUL OR SWAP1 SSTORE POP DUP5 PUSH20 0xFFFFFFFFFFFFFFFFFFFFFFFFFFFFFFFFFFFFFFFF AND PUSH32 0x91722710E0F6AC79B9106BC5993C461775B648571B12F0A5BF17740D43D1DBAF PUSH1 0x40 MLOAD PUSH1 0x40 MLOAD DUP1 SWAP2 SUB SWAP1 LOG2 POP POP POP POP POP JUMP JUMPDEST PUSH1 0x2 PUSH1 0x0 DUP8 PUSH20 0xFFFFFFFFFFFFFFFFFFFFFFFFFFFFFFFFFFFFFFFF AND PUSH20 0xFFFFFFFFFFFFFFFFFFFFFFFFFFFFFFFFFFFFFFFF AND DUP2 MSTORE PUSH1 0x20 ADD SWAP1 DUP2 MSTORE PUSH1 0x20 ADD PUSH1 0x0 KECCAK256 PUSH1 0x0 SWAP1 SLOAD SWAP1 PUSH2 0x100 EXP SWAP1 DIV PUSH1 0xFF AND ISZERO PUSH2 0x741 JUMPI PUSH1 0x40 MLOAD PUSH32 0x8C379A000000000000000000000000000000000000000000000000000000000 DUP2 MSTORE PUSH1 0x4 ADD PUSH2 0x738 SWAP1 PUSH2 0x32E0 JUMP JUMPDEST PUSH1 0x40 MLOAD DUP1 SWAP2 SUB SWAP1 REVERT JUMPDEST PUSH1 0x0 DUP7 DUP7 DUP7 DUP7 DUP7 PUSH1 0x40 MLOAD PUSH1 0x20 ADD PUSH2 0x75C SWAP6 SWAP5 SWAP4 SWAP3 SWAP2 SWAP1 PUSH2 0x334C JUMP JUMPDEST PUSH1 0x40 MLOAD PUSH1 0x20 DUP2 DUP4 SUB SUB DUP2 MSTORE SWAP1 PUSH1 0x40 MSTORE SWAP1 POP PUSH1 0x0 DUP1 SLOAD SWAP1 PUSH2 0x100 EXP SWAP1 DIV PUSH20 0xFFFFFFFFFFFFFFFFFFFFFFFFFFFFFFFFFFFFFFFF AND PUSH20 0xFFFFFFFFFFFFFFFFFFFFFFFFFFFFFFFFFFFFFFFF AND PUSH4 0xBA73659A DUP4 DUP4 DUP7 PUSH1 0x40 MLOAD DUP5 PUSH4 0xFFFFFFFF AND PUSH1 0xE0 SHL DUP2 MSTORE PUSH1 0x4 ADD PUSH2 0x7CA SWAP4 SWAP3 SWAP2 SWAP1 PUSH2 0x33B2 JUMP JUMPDEST PUSH1 0x20 PUSH1 0x40 MLOAD DUP1 DUP4 SUB DUP2 PUSH1 0x0 DUP8 DUP1 EXTCODESIZE ISZERO DUP1 ISZERO PUSH2 0x7E4 JUMPI PUSH1 0x0 DUP1 REVERT JUMPDEST POP GAS CALL ISZERO DUP1 ISZERO PUSH2 0x7F8 JUMPI RETURNDATASIZE PUSH1 0x0 DUP1 RETURNDATACOPY RETURNDATASIZE PUSH1 0x0 REVERT JUMPDEST POP POP POP POP PUSH1 0x40 MLOAD RETURNDATASIZE PUSH1 0x1F NOT PUSH1 0x1F DUP3 ADD AND DUP3 ADD DUP1 PUSH1 0x40 MSTORE POP DUP2 ADD SWAP1 PUSH2 0x81C SWAP2 SWAP1 PUSH2 0x31FB JUMP JUMPDEST PUSH2 0x85B JUMPI PUSH1 0x40 MLOAD PUSH32 0x8C379A000000000000000000000000000000000000000000000000000000000 DUP2 MSTORE PUSH1 0x4 ADD PUSH2 0x852 SWAP1 PUSH2 0x3274 JUMP JUMPDEST PUSH1 0x40 MLOAD DUP1 SWAP2 SUB SWAP1 REVERT JUMPDEST PUSH1 0x1 PUSH1 0x2 PUSH1 0x0 DUP10 PUSH20 0xFFFFFFFFFFFFFFFFFFFFFFFFFFFFFFFFFFFFFFFF AND PUSH20 0xFFFFFFFFFFFFFFFFFFFFFFFFFFFFFFFFFFFFFFFF AND DUP2 MSTORE PUSH1 0x20 ADD SWAP1 DUP2 MSTORE PUSH1 0x20 ADD PUSH1 0x0 KECCAK256 PUSH1 0x0 PUSH2 0x100 EXP DUP2 SLOAD DUP2 PUSH1 0xFF MUL NOT AND SWAP1 DUP4 ISZERO ISZERO MUL OR SWAP1 SSTORE POP DUP7 PUSH1 0x5 PUSH1 0x0 DUP9 DUP2 MSTORE PUSH1 0x20 ADD SWAP1 DUP2 MSTORE PUSH1 0x20 ADD PUSH1 0x0 KECCAK256 PUSH1 0x0 PUSH2 0x100 EXP DUP2 SLOAD DUP2 PUSH20 0xFFFFFFFFFFFFFFFFFFFFFFFFFFFFFFFFFFFFFFFF MUL NOT AND SWAP1 DUP4 PUSH20 0xFFFFFFFFFFFFFFFFFFFFFFFFFFFFFFFFFFFFFFFF AND MUL OR SWAP1 SSTORE POP DUP6 PUSH1 0x6 PUSH1 0x0 DUP10 PUSH20 0xFFFFFFFFFFFFFFFFFFFFFFFFFFFFFFFFFFFFFFFF AND PUSH20 0xFFFFFFFFFFFFFFFFFFFFFFFFFFFFFFFFFFFFFFFF AND DUP2 MSTORE PUSH1 0x20 ADD SWAP1 DUP2 MSTORE PUSH1 0x20 ADD PUSH1 0x0 KECCAK256 DUP2 SWAP1 SSTORE POP DUP5 PUSH1 0x8 PUSH1 0x0 DUP10 PUSH20 0xFFFFFFFFFFFFFFFFFFFFFFFFFFFFFFFFFFFFFFFF AND PUSH20 0xFFFFFFFFFFFFFFFFFFFFFFFFFFFFFFFFFFFFFFFF AND DUP2 MSTORE PUSH1 0x20 ADD SWAP1 DUP2 MSTORE PUSH1 0x20 ADD PUSH1 0x0 KECCAK256 DUP2 SWAP1 SSTORE POP DUP4 PUSH1 0xA PUSH1 0x0 DUP10 PUSH20 0xFFFFFFFFFFFFFFFFFFFFFFFFFFFFFFFFFFFFFFFF AND PUSH20 0xFFFFFFFFFFFFFFFFFFFFFFFFFFFFFFFFFFFFFFFF AND DUP2 MSTORE PUSH1 0x20 ADD SWAP1 DUP2 MSTORE PUSH1 0x20 ADD PUSH1 0x0 KECCAK256 DUP2 SWAP1 SSTORE POP DUP6 DUP8 PUSH20 0xFFFFFFFFFFFFFFFFFFFFFFFFFFFFFFFFFFFFFFFF AND PUSH32 0x4180D77D05FF0D31650C548C23F2DE07A3DA3AD42E3DD6EDD817B438A150452E DUP6 PUSH1 0x40 MLOAD PUSH2 0xA18 SWAP2 SWAP1 PUSH2 0x2C54 JUMP JUMPDEST PUSH1 0x40 MLOAD DUP1 SWAP2 SUB SWAP1 LOG3 POP POP POP POP POP POP POP JUMP JUMPDEST PUSH1 0x0 PUSH1 0xC PUSH1 0x0 DUP4 PUSH20 0xFFFFFFFFFFFFFFFFFFFFFFFFFFFFFFFFFFFFFFFF AND PUSH20 0xFFFFFFFFFFFFFFFFFFFFFFFFFFFFFFFFFFFFFFFF AND DUP2 MSTORE PUSH1 0x20 ADD SWAP1 DUP2 MSTORE PUSH1 0x20 ADD PUSH1 0x0 KECCAK256 PUSH1 0x0 SWAP1 SLOAD SWAP1 PUSH2 0x100 EXP SWAP1 DIV PUSH1 0xFF AND SWAP1 POP SWAP2 SWAP1 POP JUMP JUMPDEST PUSH1 0x0 PUSH1 0x4 PUSH1 0x0 DUP4 PUSH20 0xFFFFFFFFFFFFFFFFFFFFFFFFFFFFFFFFFFFFFFFF AND PUSH20 0xFFFFFFFFFFFFFFFFFFFFFFFFFFFFFFFFFFFFFFFF AND DUP2 MSTORE PUSH1 0x20 ADD SWAP1 DUP2 MSTORE PUSH1 0x20 ADD PUSH1 0x0 KECCAK256 SLOAD SWAP1 POP SWAP2 SWAP1 POP JUMP JUMPDEST PUSH1 0x2 PUSH1 0x0 DUP6 PUSH20 0xFFFFFFFFFFFFFFFFFFFFFFFFFFFFFFFFFFFFFFFF AND PUSH20 0xFFFFFFFFFFFFFFFFFFFFFFFFFFFFFFFFFFFFFFFF AND DUP2 MSTORE PUSH1 0x20 ADD SWAP1 DUP2 MSTORE PUSH1 0x20 ADD PUSH1 0x0 KECCAK256 PUSH1 0x0 SWAP1 SLOAD SWAP1 PUSH2 0x100 EXP SWAP1 DIV PUSH1 0xFF AND PUSH2 0xB54 JUMPI PUSH1 0x40 MLOAD PUSH32 0x8C379A000000000000000000000000000000000000000000000000000000000 DUP2 MSTORE PUSH1 0x4 ADD PUSH2 0xB4B SWAP1 PUSH2 0x3443 JUMP JUMPDEST PUSH1 0x40 MLOAD DUP1 SWAP2 SUB SWAP1 REVERT JUMPDEST PUSH1 0x0 DUP5 DUP5 DUP5 PUSH1 0x40 MLOAD PUSH1 0x20 ADD PUSH2 0xB6B SWAP4 SWAP3 SWAP2 SWAP1 PUSH2 0x34AF JUMP JUMPDEST PUSH1 0x40 MLOAD PUSH1 0x20 DUP2 DUP4 SUB SUB DUP2 MSTORE SWAP1 PUSH1 0x40 MSTORE SWAP1 POP PUSH1 0x0 DUP1 SLOAD SWAP1 PUSH2 0x100 EXP SWAP1 DIV PUSH20 0xFFFFFFFFFFFFFFFFFFFFFFFFFFFFFFFFFFFFFFFF AND PUSH20 0xFFFFFFFFFFFFFFFFFFFFFFFFFFFFFFFFFFFFFFFF AND PUSH4 0xBA73659A DUP4 DUP4 DUP7 PUSH1 0x40 MLOAD DUP5 PUSH4 0xFFFFFFFF AND PUSH1 0xE0 SHL DUP2 MSTORE PUSH1 0x4 ADD PUSH2 0xBD9 SWAP4 SWAP3 SWAP2 SWAP1 PUSH2 0x33B2 JUMP JUMPDEST PUSH1 0x20 PUSH1 0x40 MLOAD DUP1 DUP4 SUB DUP2 PUSH1 0x0 DUP8 DUP1 EXTCODESIZE ISZERO DUP1 ISZERO PUSH2 0xBF3 JUMPI PUSH1 0x0 DUP1 REVERT JUMPDEST POP GAS CALL ISZERO DUP1 ISZERO PUSH2 0xC07 JUMPI RETURNDATASIZE PUSH1 0x0 DUP1 RETURNDATACOPY RETURNDATASIZE PUSH1 0x0 REVERT JUMPDEST POP POP POP POP PUSH1 0x40 MLOAD RETURNDATASIZE PUSH1 0x1F NOT PUSH1 0x1F DUP3 ADD AND DUP3 ADD DUP1 PUSH1 0x40 MSTORE POP DUP2 ADD SWAP1 PUSH2 0xC2B SWAP2 SWAP1 PUSH2 0x31FB JUMP JUMPDEST PUSH2 0xC6A JUMPI PUSH1 0x40 MLOAD PUSH32 0x8C379A000000000000000000000000000000000000000000000000000000000 DUP2 MSTORE PUSH1 0x4 ADD PUSH2 0xC61 SWAP1 PUSH2 0x3274 JUMP JUMPDEST PUSH1 0x40 MLOAD DUP1 SWAP2 SUB SWAP1 REVERT JUMPDEST DUP4 PUSH1 0x4 PUSH1 0x0 DUP8 PUSH20 0xFFFFFFFFFFFFFFFFFFFFFFFFFFFFFFFFFFFFFFFF AND PUSH20 0xFFFFFFFFFFFFFFFFFFFFFFFFFFFFFFFFFFFFFFFF AND DUP2 MSTORE PUSH1 0x20 ADD SWAP1 DUP2 MSTORE PUSH1 0x20 ADD PUSH1 0x0 KECCAK256 DUP2 SWAP1 SSTORE POP DUP5 PUSH20 0xFFFFFFFFFFFFFFFFFFFFFFFFFFFFFFFFFFFFFFFF AND PUSH32 0x8861DBDA4052C4BF7BA24AAD82097EF1E6ADE8E6F1B42341640DB8A12ABFA993 DUP6 DUP6 PUSH1 0x40 MLOAD PUSH2 0xCF6 SWAP3 SWAP2 SWAP1 PUSH2 0x34F9 JUMP JUMPDEST PUSH1 0x40 MLOAD DUP1 SWAP2 SUB SWAP1 LOG2 POP POP POP POP POP JUMP JUMPDEST PUSH1 0x2 PUSH1 0x0 DUP6 PUSH20 0xFFFFFFFFFFFFFFFFFFFFFFFFFFFFFFFFFFFFFFFF AND PUSH20 0xFFFFFFFFFFFFFFFFFFFFFFFFFFFFFFFFFFFFFFFF AND DUP2 MSTORE PUSH1 0x20 ADD SWAP1 DUP2 MSTORE PUSH1 0x20 ADD PUSH1 0x0 KECCAK256 PUSH1 0x0 SWAP1 SLOAD SWAP1 PUSH2 0x100 EXP SWAP1 DIV PUSH1 0xFF AND PUSH2 0xD91 JUMPI PUSH1 0x40 MLOAD PUSH32 0x8C379A000000000000000000000000000000000000000000000000000000000 DUP2 MSTORE PUSH1 0x4 ADD PUSH2 0xD88 SWAP1 PUSH2 0x3443 JUMP JUMPDEST PUSH1 0x40 MLOAD DUP1 SWAP2 SUB SWAP1 REVERT JUMPDEST PUSH1 0x0 DUP5 DUP5 DUP5 PUSH1 0x40 MLOAD PUSH1 0x20 ADD PUSH2 0xDA8 SWAP4 SWAP3 SWAP2 SWAP1 PUSH2 0x356E JUMP JUMPDEST PUSH1 0x40 MLOAD PUSH1 0x20 DUP2 DUP4 SUB SUB DUP2 MSTORE SWAP1 PUSH1 0x40 MSTORE SWAP1 POP PUSH1 0x0 DUP1 SLOAD SWAP1 PUSH2 0x100 EXP SWAP1 DIV PUSH20 0xFFFFFFFFFFFFFFFFFFFFFFFFFFFFFFFFFFFFFFFF AND PUSH20 0xFFFFFFFFFFFFFFFFFFFFFFFFFFFFFFFFFFFFFFFF AND PUSH4 0xBA73659A DUP4 DUP4 DUP7 PUSH1 0x40 MLOAD DUP5 PUSH4 0xFFFFFFFF AND PUSH1 0xE0 SHL DUP2 MSTORE PUSH1 0x4 ADD PUSH2 0xE16 SWAP4 SWAP3 SWAP2 SWAP1 PUSH2 0x33B2 JUMP JUMPDEST PUSH1 0x20 PUSH1 0x40 MLOAD DUP1 DUP4 SUB DUP2 PUSH1 0x0 DUP8 DUP1 EXTCODESIZE ISZERO DUP1 ISZERO PUSH2 0xE30 JUMPI PUSH1 0x0 DUP1 REVERT JUMPDEST POP GAS CALL ISZERO DUP1 ISZERO PUSH2 0xE44 JUMPI RETURNDATASIZE PUSH1 0x0 DUP1 RETURNDATACOPY RETURNDATASIZE PUSH1 0x0 REVERT JUMPDEST POP POP POP POP PUSH1 0x40 MLOAD RETURNDATASIZE PUSH1 0x1F NOT PUSH1 0x1F DUP3 ADD AND DUP3 ADD DUP1 PUSH1 0x40 MSTORE POP DUP2 ADD SWAP1 PUSH2 0xE68 SWAP2 SWAP1 PUSH2 0x31FB JUMP JUMPDEST PUSH2 0xEA7 JUMPI PUSH1 0x40 MLOAD PUSH32 0x8C379A000000000000000000000000000000000000000000000000000000000 DUP2 MSTORE PUSH1 0x4 ADD PUSH2 0xE9E SWAP1 PUSH2 0x3274 JUMP JUMPDEST PUSH1 0x40 MLOAD DUP1 SWAP2 SUB SWAP1 REVERT JUMPDEST DUP4 PUSH1 0x3 PUSH1 0x0 DUP8 PUSH20 0xFFFFFFFFFFFFFFFFFFFFFFFFFFFFFFFFFFFFFFFF AND PUSH20 0xFFFFFFFFFFFFFFFFFFFFFFFFFFFFFFFFFFFFFFFF AND DUP2 MSTORE PUSH1 0x20 ADD SWAP1 DUP2 MSTORE PUSH1 0x20 ADD PUSH1 0x0 KECCAK256 DUP2 SWAP1 SSTORE POP DUP5 PUSH20 0xFFFFFFFFFFFFFFFFFFFFFFFFFFFFFFFFFFFFFFFF AND PUSH32 0x4ED0DF0B169B573722ECDCC12333646A6EFD0445C28FE277470BBFCA620E8AD5 DUP6 DUP6 PUSH1 0x40 MLOAD PUSH2 0xF33 SWAP3 SWAP2 SWAP1 PUSH2 0x34F9 JUMP JUMPDEST PUSH1 0x40 MLOAD DUP1 SWAP2 SUB SWAP1 LOG2 POP POP POP POP POP JUMP JUMPDEST PUSH1 0xB PUSH1 0x0 SWAP1 SLOAD SWAP1 PUSH2 0x100 EXP SWAP1 DIV PUSH1 0xFF AND ISZERO PUSH2 0xF92 JUMPI PUSH1 0x40 MLOAD PUSH32 0x8C379A000000000000000000000000000000000000000000000000000000000 DUP2 MSTORE PUSH1 0x4 ADD PUSH2 0xF89 SWAP1 PUSH2 0x3604 JUMP JUMPDEST PUSH1 0x40 MLOAD DUP1 SWAP2 SUB SWAP1 REVERT JUMPDEST DUP5 PUSH1 0xA PUSH1 0x0 DUP9 PUSH20 0xFFFFFFFFFFFFFFFFFFFFFFFFFFFFFFFFFFFFFFFF AND PUSH20 0xFFFFFFFFFFFFFFFFFFFFFFFFFFFFFFFFFFFFFFFF AND DUP2 MSTORE PUSH1 0x20 ADD SWAP1 DUP2 MSTORE PUSH1 0x20 ADD PUSH1 0x0 KECCAK256 SLOAD GT DUP1 PUSH2 0xFEC JUMPI POP TIMESTAMP PUSH1 0x9 SLOAD DUP5 PUSH2 0xFE9 SWAP2 SWAP1 PUSH2 0x3653 JUMP JUMPDEST GT ISZERO JUMPDEST PUSH2 0x102B JUMPI PUSH1 0x40 MLOAD PUSH32 0x8C379A000000000000000000000000000000000000000000000000000000000 DUP2 MSTORE PUSH1 0x4 ADD PUSH2 0x1022 SWAP1 PUSH2 0x36F5 JUMP JUMPDEST PUSH1 0x40 MLOAD DUP1 SWAP2 SUB SWAP1 REVERT JUMPDEST PUSH1 0x0 DUP7 DUP7 DUP7 DUP7 DUP7 PUSH1 0x40 MLOAD PUSH1 0x20 ADD PUSH2 0x1046 SWAP6 SWAP5 SWAP4 SWAP3 SWAP2 SWAP1 PUSH2 0x3761 JUMP JUMPDEST PUSH1 0x40 MLOAD PUSH1 0x20 DUP2 DUP4 SUB SUB DUP2 MSTORE SWAP1 PUSH1 0x40 MSTORE SWAP1 POP PUSH1 0x0 DUP1 SLOAD SWAP1 PUSH2 0x100 EXP SWAP1 DIV PUSH20 0xFFFFFFFFFFFFFFFFFFFFFFFFFFFFFFFFFFFFFFFF AND PUSH20 0xFFFFFFFFFFFFFFFFFFFFFFFFFFFFFFFFFFFFFFFF AND PUSH4 0xBA73659A DUP4 DUP4 DUP7 PUSH1 0x40 MLOAD DUP5 PUSH4 0xFFFFFFFF AND PUSH1 0xE0 SHL DUP2 MSTORE PUSH1 0x4 ADD PUSH2 0x10B4 SWAP4 SWAP3 SWAP2 SWAP1 PUSH2 0x33B2 JUMP JUMPDEST PUSH1 0x20 PUSH1 0x40 MLOAD DUP1 DUP4 SUB DUP2 PUSH1 0x0 DUP8 DUP1 EXTCODESIZE ISZERO DUP1 ISZERO PUSH2 0x10CE JUMPI PUSH1 0x0 DUP1 REVERT JUMPDEST POP GAS CALL ISZERO DUP1 ISZERO PUSH2 0x10E2 JUMPI RETURNDATASIZE PUSH1 0x0 DUP1 RETURNDATACOPY RETURNDATASIZE PUSH1 0x0 REVERT JUMPDEST POP POP POP POP PUSH1 0x40 MLOAD RETURNDATASIZE PUSH1 0x1F NOT PUSH1 0x1F DUP3 ADD AND DUP3 ADD DUP1 PUSH1 0x40 MSTORE POP DUP2 ADD SWAP1 PUSH2 0x1106 SWAP2 SWAP1 PUSH2 0x31FB JUMP JUMPDEST PUSH2 0x1145 JUMPI PUSH1 0x40 MLOAD PUSH32 0x8C379A000000000000000000000000000000000000000000000000000000000 DUP2 MSTORE PUSH1 0x4 ADD PUSH2 0x113C SWAP1 PUSH2 0x3274 JUMP JUMPDEST PUSH1 0x40 MLOAD DUP1 SWAP2 SUB SWAP1 REVERT JUMPDEST PUSH1 0x1 PUSH1 0x0 SWAP1 SLOAD SWAP1 PUSH2 0x100 EXP SWAP1 DIV PUSH20 0xFFFFFFFFFFFFFFFFFFFFFFFFFFFFFFFFFFFFFFFF AND PUSH20 0xFFFFFFFFFFFFFFFFFFFFFFFFFFFFFFFFFFFFFFFF AND PUSH4 0xD9CAED12 DUP9 DUP8 DUP10 PUSH1 0x40 MLOAD DUP5 PUSH4 0xFFFFFFFF AND PUSH1 0xE0 SHL DUP2 MSTORE PUSH1 0x4 ADD PUSH2 0x11A4 SWAP4 SWAP3 SWAP2 SWAP1 PUSH2 0x37C7 JUMP JUMPDEST PUSH1 0x20 PUSH1 0x40 MLOAD DUP1 DUP4 SUB DUP2 PUSH1 0x0 DUP8 DUP1 EXTCODESIZE ISZERO DUP1 ISZERO PUSH2 0x11BE JUMPI PUSH1 0x0 DUP1 REVERT JUMPDEST POP GAS CALL ISZERO DUP1 ISZERO PUSH2 0x11D2 JUMPI RETURNDATASIZE PUSH1 0x0 DUP1 RETURNDATACOPY RETURNDATASIZE PUSH1 0x0 REVERT JUMPDEST POP POP POP POP PUSH1 0x40 MLOAD RETURNDATASIZE PUSH1 0x1F NOT PUSH1 0x1F DUP3 ADD AND DUP3 ADD DUP1 PUSH1 0x40 MSTORE POP DUP2 ADD SWAP1 PUSH2 0x11F6 SWAP2 SWAP1 PUSH2 0x31FB JUMP JUMPDEST PUSH2 0x1235 JUMPI PUSH1 0x40 MLOAD PUSH32 0x8C379A000000000000000000000000000000000000000000000000000000000 DUP2 MSTORE PUSH1 0x4 ADD PUSH2 0x122C SWAP1 PUSH2 0x3870 JUMP JUMPDEST PUSH1 0x40 MLOAD DUP1 SWAP2 SUB SWAP1 REVERT JUMPDEST DUP7 PUSH20 0xFFFFFFFFFFFFFFFFFFFFFFFFFFFFFFFFFFFFFFFF AND DUP6 PUSH20 0xFFFFFFFFFFFFFFFFFFFFFFFFFFFFFFFFFFFFFFFF AND PUSH32 0xA79BE4F3361E32D396D64C478ECEF73732CB40B2A75702C3B3B3226A2C83B5DF DUP9 DUP7 PUSH1 0x40 MLOAD PUSH2 0x1294 SWAP3 SWAP2 SWAP1 PUSH2 0x34F9 JUMP JUMPDEST PUSH1 0x40 MLOAD DUP1 SWAP2 SUB SWAP1 LOG3 POP POP POP POP POP POP POP JUMP JUMPDEST PUSH1 0x0 PUSH1 0xD PUSH1 0x0 SWAP1 SLOAD SWAP1 PUSH2 0x100 EXP SWAP1 DIV PUSH20 0xFFFFFFFFFFFFFFFFFFFFFFFFFFFFFFFFFFFFFFFF AND SWAP1 POP SWAP1 JUMP JUMPDEST PUSH1 0x9 SLOAD DUP2 JUMP JUMPDEST PUSH1 0x0 PUSH1 0x8 PUSH1 0x0 DUP4 PUSH20 0xFFFFFFFFFFFFFFFFFFFFFFFFFFFFFFFFFFFFFFFF AND PUSH20 0xFFFFFFFFFFFFFFFFFFFFFFFFFFFFFFFFFFFFFFFF AND DUP2 MSTORE PUSH1 0x20 ADD SWAP1 DUP2 MSTORE PUSH1 0x20 ADD PUSH1 0x0 KECCAK256 SLOAD SWAP1 POP SWAP2 SWAP1 POP JUMP JUMPDEST PUSH1 0x0 PUSH1 0x3 PUSH1 0x0 DUP4 PUSH20 0xFFFFFFFFFFFFFFFFFFFFFFFFFFFFFFFFFFFFFFFF AND PUSH20 0xFFFFFFFFFFFFFFFFFFFFFFFFFFFFFFFFFFFFFFFF AND DUP2 MSTORE PUSH1 0x20 ADD SWAP1 DUP2 MSTORE PUSH1 0x20 ADD PUSH1 0x0 KECCAK256 SLOAD SWAP1 POP SWAP2 SWAP1 POP JUMP JUMPDEST PUSH1 0xD PUSH1 0x0 SWAP1 SLOAD SWAP1 PUSH2 0x100 EXP SWAP1 DIV PUSH20 0xFFFFFFFFFFFFFFFFFFFFFFFFFFFFFFFFFFFFFFFF AND PUSH20 0xFFFFFFFFFFFFFFFFFFFFFFFFFFFFFFFFFFFFFFFF AND CALLER PUSH20 0xFFFFFFFFFFFFFFFFFFFFFFFFFFFFFFFFFFFFFFFF AND EQ PUSH2 0x13F7 JUMPI PUSH1 0x40 MLOAD PUSH32 0x8C379A000000000000000000000000000000000000000000000000000000000 DUP2 MSTORE PUSH1 0x4 ADD PUSH2 0x13EE SWAP1 PUSH2 0x38DC JUMP JUMPDEST PUSH1 0x40 MLOAD DUP1 SWAP2 SUB SWAP1 REVERT JUMPDEST PUSH1 0xC PUSH1 0x0 DUP3 PUSH20 0xFFFFFFFFFFFFFFFFFFFFFFFFFFFFFFFFFFFFFFFF AND PUSH20 0xFFFFFFFFFFFFFFFFFFFFFFFFFFFFFFFFFFFFFFFF AND DUP2 MSTORE PUSH1 0x20 ADD SWAP1 DUP2 MSTORE PUSH1 0x20 ADD PUSH1 0x0 KECCAK256 PUSH1 0x0 SWAP1 SLOAD SWAP1 PUSH2 0x100 EXP SWAP1 DIV PUSH1 0xFF AND PUSH2 0x1483 JUMPI PUSH1 0x40 MLOAD PUSH32 0x8C379A000000000000000000000000000000000000000000000000000000000 DUP2 MSTORE PUSH1 0x4 ADD PUSH2 0x147A SWAP1 PUSH2 0x3948 JUMP JUMPDEST PUSH1 0x40 MLOAD DUP1 SWAP2 SUB SWAP1 REVERT JUMPDEST PUSH1 0x0 PUSH1 0xC PUSH1 0x0 DUP4 PUSH20 0xFFFFFFFFFFFFFFFFFFFFFFFFFFFFFFFFFFFFFFFF AND PUSH20 0xFFFFFFFFFFFFFFFFFFFFFFFFFFFFFFFFFFFFFFFF AND DUP2 MSTORE PUSH1 0x20 ADD SWAP1 DUP2 MSTORE PUSH1 0x20 ADD PUSH1 0x0 KECCAK256 PUSH1 0x0 PUSH2 0x100 EXP DUP2 SLOAD DUP2 PUSH1 0xFF MUL NOT AND SWAP1 DUP4 ISZERO ISZERO MUL OR SWAP1 SSTORE POP DUP1 PUSH20 0xFFFFFFFFFFFFFFFFFFFFFFFFFFFFFFFFFFFFFFFF AND PUSH32 0xE74B113DCA87276D976F476A9B4B9DA3C780A3262EAABAD051EE4E98912936A4 PUSH1 0x40 MLOAD PUSH1 0x40 MLOAD DUP1 SWAP2 SUB SWAP1 LOG2 POP JUMP JUMPDEST PUSH1 0x0 DUP5 DUP5 PUSH1 0x40 MLOAD PUSH1 0x20 ADD PUSH2 0x1536 SWAP3 SWAP2 SWAP1 PUSH2 0x39B4 JUMP JUMPDEST PUSH1 0x40 MLOAD PUSH1 0x20 DUP2 DUP4 SUB SUB DUP2 MSTORE SWAP1 PUSH1 0x40 MSTORE SWAP1 POP PUSH1 0x0 DUP1 SLOAD SWAP1 PUSH2 0x100 EXP SWAP1 DIV PUSH20 0xFFFFFFFFFFFFFFFFFFFFFFFFFFFFFFFFFFFFFFFF AND PUSH20 0xFFFFFFFFFFFFFFFFFFFFFFFFFFFFFFFFFFFFFFFF AND PUSH4 0xBA73659A DUP5 DUP5 DUP5 DUP9 PUSH1 0x40 MLOAD DUP6 PUSH4 0xFFFFFFFF AND PUSH1 0xE0 SHL DUP2 MSTORE PUSH1 0x4 ADD PUSH2 0x15A6 SWAP5 SWAP4 SWAP3 SWAP2 SWAP1 PUSH2 0x3188 JUMP JUMPDEST PUSH1 0x20 PUSH1 0x40 MLOAD DUP1 DUP4 SUB DUP2 PUSH1 0x0 DUP8 DUP1 EXTCODESIZE ISZERO DUP1 ISZERO PUSH2 0x15C0 JUMPI PUSH1 0x0 DUP1 REVERT JUMPDEST POP GAS CALL ISZERO DUP1 ISZERO PUSH2 0x15D4 JUMPI RETURNDATASIZE PUSH1 0x0 DUP1 RETURNDATACOPY RETURNDATASIZE PUSH1 0x0 REVERT JUMPDEST POP POP POP POP PUSH1 0x40 MLOAD RETURNDATASIZE PUSH1 0x1F NOT PUSH1 0x1F DUP3 ADD AND DUP3 ADD DUP1 PUSH1 0x40 MSTORE POP DUP2 ADD SWAP1 PUSH2 0x15F8 SWAP2 SWAP1 PUSH2 0x31FB JUMP JUMPDEST PUSH2 0x1637 JUMPI PUSH1 0x40 MLOAD PUSH32 0x8C379A000000000000000000000000000000000000000000000000000000000 DUP2 MSTORE PUSH1 0x4 ADD PUSH2 0x162E SWAP1 PUSH2 0x3274 JUMP JUMPDEST PUSH1 0x40 MLOAD DUP1 SWAP2 SUB SWAP1 REVERT JUMPDEST DUP5 PUSH1 0x9 DUP2 SWAP1 SSTORE POP POP POP POP POP POP JUMP JUMPDEST PUSH1 0x0 PUSH1 0x5 PUSH1 0x0 DUP4 DUP2 MSTORE PUSH1 0x20 ADD SWAP1 DUP2 MSTORE PUSH1 0x20 ADD PUSH1 0x0 KECCAK256 PUSH1 0x0 SWAP1 SLOAD SWAP1 PUSH2 0x100 EXP SWAP1 DIV PUSH20 0xFFFFFFFFFFFFFFFFFFFFFFFFFFFFFFFFFFFFFFFF AND SWAP1 POP SWAP2 SWAP1 POP JUMP JUMPDEST PUSH1 0x2 PUSH1 0x0 DUP7 PUSH20 0xFFFFFFFFFFFFFFFFFFFFFFFFFFFFFFFFFFFFFFFF AND PUSH20 0xFFFFFFFFFFFFFFFFFFFFFFFFFFFFFFFFFFFFFFFF AND DUP2 MSTORE PUSH1 0x20 ADD SWAP1 DUP2 MSTORE PUSH1 0x20 ADD PUSH1 0x0 KECCAK256 PUSH1 0x0 SWAP1 SLOAD SWAP1 PUSH2 0x100 EXP SWAP1 DIV PUSH1 0xFF AND PUSH2 0x170E JUMPI PUSH1 0x40 MLOAD PUSH32 0x8C379A000000000000000000000000000000000000000000000000000000000 DUP2 MSTORE PUSH1 0x4 ADD PUSH2 0x1705 SWAP1 PUSH2 0x3443 JUMP JUMPDEST PUSH1 0x40 MLOAD DUP1 SWAP2 SUB SWAP1 REVERT JUMPDEST PUSH1 0x0 DUP6 DUP6 DUP6 PUSH1 0x40 MLOAD PUSH1 0x20 ADD PUSH2 0x1725 SWAP4 SWAP3 SWAP2 SWAP1 PUSH2 0x3A3C JUMP JUMPDEST PUSH1 0x40 MLOAD PUSH1 0x20 DUP2 DUP4 SUB SUB DUP2 MSTORE SWAP1 PUSH1 0x40 MSTORE SWAP1 POP PUSH1 0x0 DUP1 SLOAD SWAP1 PUSH2 0x100 EXP SWAP1 DIV PUSH20 0xFFFFFFFFFFFFFFFFFFFFFFFFFFFFFFFFFFFFFFFF AND PUSH20 0xFFFFFFFFFFFFFFFFFFFFFFFFFFFFFFFFFFFFFFFF AND PUSH4 0xBA73659A DUP5 DUP5 DUP5 DUP9 PUSH1 0x40 MLOAD DUP6 PUSH4 0xFFFFFFFF AND PUSH1 0xE0 SHL DUP2 MSTORE PUSH1 0x4 ADD PUSH2 0x1795 SWAP5 SWAP4 SWAP3 SWAP2 SWAP1 PUSH2 0x3188 JUMP JUMPDEST PUSH1 0x20 PUSH1 0x40 MLOAD DUP1 DUP4 SUB DUP2 PUSH1 0x0 DUP8 DUP1 EXTCODESIZE ISZERO DUP1 ISZERO PUSH2 0x17AF JUMPI PUSH1 0x0 DUP1 REVERT JUMPDEST POP GAS CALL ISZERO DUP1 ISZERO PUSH2 0x17C3 JUMPI RETURNDATASIZE PUSH1 0x0 DUP1 RETURNDATACOPY RETURNDATASIZE PUSH1 0x0 REVERT JUMPDEST POP POP POP POP PUSH1 0x40 MLOAD RETURNDATASIZE PUSH1 0x1F NOT PUSH1 0x1F DUP3 ADD AND DUP3 ADD DUP1 PUSH1 0x40 MSTORE POP DUP2 ADD SWAP1 PUSH2 0x17E7 SWAP2 SWAP1 PUSH2 0x31FB JUMP JUMPDEST PUSH2 0x1826 JUMPI PUSH1 0x40 MLOAD PUSH32 0x8C379A000000000000000000000000000000000000000000000000000000000 DUP2 MSTORE PUSH1 0x4 ADD PUSH2 0x181D SWAP1 PUSH2 0x3274 JUMP JUMPDEST PUSH1 0x40 MLOAD DUP1 SWAP2 SUB SWAP1 REVERT JUMPDEST DUP5 PUSH1 0x8 PUSH1 0x0 DUP9 PUSH20 0xFFFFFFFFFFFFFFFFFFFFFFFFFFFFFFFFFFFFFFFF AND PUSH20 0xFFFFFFFFFFFFFFFFFFFFFFFFFFFFFFFFFFFFFFFF AND DUP2 MSTORE PUSH1 0x20 ADD SWAP1 DUP2 MSTORE PUSH1 0x20 ADD PUSH1 0x0 KECCAK256 DUP2 SWAP1 SSTORE POP POP POP POP POP POP POP JUMP JUMPDEST PUSH1 0x0 PUSH1 0x2 PUSH1 0x0 DUP4 PUSH20 0xFFFFFFFFFFFFFFFFFFFFFFFFFFFFFFFFFFFFFFFF AND PUSH20 0xFFFFFFFFFFFFFFFFFFFFFFFFFFFFFFFFFFFFFFFF AND DUP2 MSTORE PUSH1 0x20 ADD SWAP1 DUP2 MSTORE PUSH1 0x20 ADD PUSH1 0x0 KECCAK256 PUSH1 0x0 SWAP1 SLOAD SWAP1 PUSH2 0x100 EXP SWAP1 DIV PUSH1 0xFF AND SWAP1 POP SWAP2 SWAP1 POP JUMP JUMPDEST PUSH1 0x0 PUSH20 0xFFFFFFFFFFFFFFFFFFFFFFFFFFFFFFFFFFFFFFFF AND DUP2 PUSH20 0xFFFFFFFFFFFFFFFFFFFFFFFFFFFFFFFFFFFFFFFF AND EQ ISZERO PUSH2 0x1938 JUMPI PUSH1 0x40 MLOAD PUSH32 0x8C379A000000000000000000000000000000000000000000000000000000000 DUP2 MSTORE PUSH1 0x4 ADD PUSH2 0x192F SWAP1 PUSH2 0x3AD2 JUMP JUMPDEST PUSH1 0x40 MLOAD DUP1 SWAP2 SUB SWAP1 REVERT JUMPDEST PUSH1 0xC PUSH1 0x0 DUP3 PUSH20 0xFFFFFFFFFFFFFFFFFFFFFFFFFFFFFFFFFFFFFFFF AND PUSH20 0xFFFFFFFFFFFFFFFFFFFFFFFFFFFFFFFFFFFFFFFF AND DUP2 MSTORE PUSH1 0x20 ADD SWAP1 DUP2 MSTORE PUSH1 0x20 ADD PUSH1 0x0 KECCAK256 PUSH1 0x0 SWAP1 SLOAD SWAP1 PUSH2 0x100 EXP SWAP1 DIV PUSH1 0xFF AND ISZERO PUSH2 0x19C5 JUMPI PUSH1 0x40 MLOAD PUSH32 0x8C379A000000000000000000000000000000000000000000000000000000000 DUP2 MSTORE PUSH1 0x4 ADD PUSH2 0x19BC SWAP1 PUSH2 0x3B3E JUMP JUMPDEST PUSH1 0x40 MLOAD DUP1 SWAP2 SUB SWAP1 REVERT JUMPDEST PUSH1 0xD PUSH1 0x0 SWAP1 SLOAD SWAP1 PUSH2 0x100 EXP SWAP1 DIV PUSH20 0xFFFFFFFFFFFFFFFFFFFFFFFFFFFFFFFFFFFFFFFF AND PUSH20 0xFFFFFFFFFFFFFFFFFFFFFFFFFFFFFFFFFFFFFFFF AND CALLER PUSH20 0xFFFFFFFFFFFFFFFFFFFFFFFFFFFFFFFFFFFFFFFF AND EQ PUSH2 0x1A55 JUMPI PUSH1 0x40 MLOAD PUSH32 0x8C379A000000000000000000000000000000000000000000000000000000000 DUP2 MSTORE PUSH1 0x4 ADD PUSH2 0x1A4C SWAP1 PUSH2 0x38DC JUMP JUMPDEST PUSH1 0x40 MLOAD DUP1 SWAP2 SUB SWAP1 REVERT JUMPDEST PUSH1 0x1 PUSH1 0xC PUSH1 0x0 DUP4 PUSH20 0xFFFFFFFFFFFFFFFFFFFFFFFFFFFFFFFFFFFFFFFF AND PUSH20 0xFFFFFFFFFFFFFFFFFFFFFFFFFFFFFFFFFFFFFFFF AND DUP2 MSTORE PUSH1 0x20 ADD SWAP1 DUP2 MSTORE PUSH1 0x20 ADD PUSH1 0x0 KECCAK256 PUSH1 0x0 PUSH2 0x100 EXP DUP2 SLOAD DUP2 PUSH1 0xFF MUL NOT AND SWAP1 DUP4 ISZERO ISZERO MUL OR SWAP1 SSTORE POP DUP1 PUSH20 0xFFFFFFFFFFFFFFFFFFFFFFFFFFFFFFFFFFFFFFFF AND PUSH32 0xF56E0868B913034A60DBCA9C89EE79F8B0FA18DADBC5F6665F2F9A2CF3F51CDB PUSH1 0x40 MLOAD PUSH1 0x40 MLOAD DUP1 SWAP2 SUB SWAP1 LOG2 POP JUMP JUMPDEST PUSH1 0x2 PUSH1 0x0 DUP7 PUSH20 0xFFFFFFFFFFFFFFFFFFFFFFFFFFFFFFFFFFFFFFFF AND PUSH20 0xFFFFFFFFFFFFFFFFFFFFFFFFFFFFFFFFFFFFFFFF AND DUP2 MSTORE PUSH1 0x20 ADD SWAP1 DUP2 MSTORE PUSH1 0x20 ADD PUSH1 0x0 KECCAK256 PUSH1 0x0 SWAP1 SLOAD SWAP1 PUSH2 0x100 EXP SWAP1 DIV PUSH1 0xFF AND PUSH2 0x1B7F JUMPI PUSH1 0x40 MLOAD PUSH32 0x8C379A000000000000000000000000000000000000000000000000000000000 DUP2 MSTORE PUSH1 0x4 ADD PUSH2 0x1B76 SWAP1 PUSH2 0x3443 JUMP JUMPDEST PUSH1 0x40 MLOAD DUP1 SWAP2 SUB SWAP1 REVERT JUMPDEST PUSH1 0x0 DUP6 DUP6 DUP6 PUSH1 0x40 MLOAD PUSH1 0x20 ADD PUSH2 0x1B96 SWAP4 SWAP3 SWAP2 SWAP1 PUSH2 0x3BAA JUMP JUMPDEST PUSH1 0x40 MLOAD PUSH1 0x20 DUP2 DUP4 SUB SUB DUP2 MSTORE SWAP1 PUSH1 0x40 MSTORE SWAP1 POP PUSH1 0x0 DUP1 SLOAD SWAP1 PUSH2 0x100 EXP SWAP1 DIV PUSH20 0xFFFFFFFFFFFFFFFFFFFFFFFFFFFFFFFFFFFFFFFF AND PUSH20 0xFFFFFFFFFFFFFFFFFFFFFFFFFFFFFFFFFFFFFFFF AND PUSH4 0xBA73659A DUP5 DUP5 DUP5 DUP9 PUSH1 0x40 MLOAD DUP6 PUSH4 0xFFFFFFFF AND PUSH1 0xE0 SHL DUP2 MSTORE PUSH1 0x4 ADD PUSH2 0x1C06 SWAP5 SWAP4 SWAP3 SWAP2 SWAP1 PUSH2 0x3188 JUMP JUMPDEST PUSH1 0x20 PUSH1 0x40 MLOAD DUP1 DUP4 SUB DUP2 PUSH1 0x0 DUP8 DUP1 EXTCODESIZE ISZERO DUP1 ISZERO PUSH2 0x1C20 JUMPI PUSH1 0x0 DUP1 REVERT JUMPDEST POP GAS CALL ISZERO DUP1 ISZERO PUSH2 0x1C34 JUMPI RETURNDATASIZE PUSH1 0x0 DUP1 RETURNDATACOPY RETURNDATASIZE PUSH1 0x0 REVERT JUMPDEST POP POP POP POP PUSH1 0x40 MLOAD RETURNDATASIZE PUSH1 0x1F NOT PUSH1 0x1F DUP3 ADD AND DUP3 ADD DUP1 PUSH1 0x40 MSTORE POP DUP2 ADD SWAP1 PUSH2 0x1C58 SWAP2 SWAP1 PUSH2 0x31FB JUMP JUMPDEST PUSH2 0x1C97 JUMPI PUSH1 0x40 MLOAD PUSH32 0x8C379A000000000000000000000000000000000000000000000000000000000 DUP2 MSTORE PUSH1 0x4 ADD PUSH2 0x1C8E SWAP1 PUSH2 0x3274 JUMP JUMPDEST PUSH1 0x40 MLOAD DUP1 SWAP2 SUB SWAP1 REVERT JUMPDEST DUP5 PUSH1 0xA PUSH1 0x0 DUP9 PUSH20 0xFFFFFFFFFFFFFFFFFFFFFFFFFFFFFFFFFFFFFFFF AND PUSH20 0xFFFFFFFFFFFFFFFFFFFFFFFFFFFFFFFFFFFFFFFF AND DUP2 MSTORE PUSH1 0x20 ADD SWAP1 DUP2 MSTORE PUSH1 0x20 ADD PUSH1 0x0 KECCAK256 DUP2 SWAP1 SSTORE POP POP POP POP POP POP POP JUMP JUMPDEST PUSH1 0xB PUSH1 0x0 SWAP1 SLOAD SWAP1 PUSH2 0x100 EXP SWAP1 DIV PUSH1 0xFF AND ISZERO PUSH2 0x1D33 JUMPI PUSH1 0x40 MLOAD PUSH32 0x8C379A000000000000000000000000000000000000000000000000000000000 DUP2 MSTORE PUSH1 0x4 ADD PUSH2 0x1D2A SWAP1 PUSH2 0x3C40 JUMP JUMPDEST PUSH1 0x40 MLOAD DUP1 SWAP2 SUB SWAP1 REVERT JUMPDEST PUSH1 0x0 DUP4 PUSH1 0x40 MLOAD PUSH1 0x20 ADD PUSH2 0x1D46 SWAP2 SWAP1 PUSH2 0x3CAC JUMP JUMPDEST PUSH1 0x40 MLOAD PUSH1 0x20 DUP2 DUP4 SUB SUB DUP2 MSTORE SWAP1 PUSH1 0x40 MSTORE SWAP1 POP PUSH1 0x0 DUP1 SLOAD SWAP1 PUSH2 0x100 EXP SWAP1 DIV PUSH20 0xFFFFFFFFFFFFFFFFFFFFFFFFFFFFFFFFFFFFFFFF AND PUSH20 0xFFFFFFFFFFFFFFFFFFFFFFFFFFFFFFFFFFFFFFFF AND PUSH4 0xBA73659A DUP5 DUP5 DUP5 DUP9 PUSH1 0x40 MLOAD DUP6 PUSH4 0xFFFFFFFF AND PUSH1 0xE0 SHL DUP2 MSTORE PUSH1 0x4 ADD PUSH2 0x1DB6 SWAP5 SWAP4 SWAP3 SWAP2 SWAP1 PUSH2 0x3188 JUMP JUMPDEST PUSH1 0x20 PUSH1 0x40 MLOAD DUP1 DUP4 SUB DUP2 PUSH1 0x0 DUP8 DUP1 EXTCODESIZE ISZERO DUP1 ISZERO PUSH2 0x1DD0 JUMPI PUSH1 0x0 DUP1 REVERT JUMPDEST POP GAS CALL ISZERO DUP1 ISZERO PUSH2 0x1DE4 JUMPI RETURNDATASIZE PUSH1 0x0 DUP1 RETURNDATACOPY RETURNDATASIZE PUSH1 0x0 REVERT JUMPDEST POP POP POP POP PUSH1 0x40 MLOAD RETURNDATASIZE PUSH1 0x1F NOT PUSH1 0x1F DUP3 ADD AND DUP3 ADD DUP1 PUSH1 0x40 MSTORE POP DUP2 ADD SWAP1 PUSH2 0x1E08 SWAP2 SWAP1 PUSH2 0x31FB JUMP JUMPDEST PUSH2 0x1E47 JUMPI PUSH1 0x40 MLOAD PUSH32 0x8C379A000000000000000000000000000000000000000000000000000000000 DUP2 MSTORE PUSH1 0x4 ADD PUSH2 0x1E3E SWAP1 PUSH2 0x3274 JUMP JUMPDEST PUSH1 0x40 MLOAD DUP1 SWAP2 SUB SWAP1 REVERT JUMPDEST PUSH1 0x1 PUSH1 0xB PUSH1 0x0 PUSH2 0x100 EXP DUP2 SLOAD DUP2 PUSH1 0xFF MUL NOT AND SWAP1 DUP4 ISZERO ISZERO MUL OR SWAP1 SSTORE POP PUSH32 0x129D99581C8E70519DF1F0733D3212F33D0ED3EA6144ADACC336C647F1D36382 PUSH1 0x40 MLOAD PUSH1 0x40 MLOAD DUP1 SWAP2 SUB SWAP1 LOG1 POP POP POP POP JUMP JUMPDEST PUSH1 0x0 PUSH1 0x6 PUSH1 0x0 DUP4 PUSH20 0xFFFFFFFFFFFFFFFFFFFFFFFFFFFFFFFFFFFFFFFF AND PUSH20 0xFFFFFFFFFFFFFFFFFFFFFFFFFFFFFFFFFFFFFFFF AND DUP2 MSTORE PUSH1 0x20 ADD SWAP1 DUP2 MSTORE PUSH1 0x20 ADD PUSH1 0x0 KECCAK256 SLOAD SWAP1 POP SWAP2 SWAP1 POP JUMP JUMPDEST PUSH1 0x0 DUP1 PUSH1 0x0 SWAP1 SLOAD SWAP1 PUSH2 0x100 EXP SWAP1 DIV PUSH20 0xFFFFFFFFFFFFFFFFFFFFFFFFFFFFFFFFFFFFFFFF AND SWAP1 POP SWAP1 JUMP JUMPDEST PUSH1 0x2 PUSH1 0x0 DUP5 PUSH20 0xFFFFFFFFFFFFFFFFFFFFFFFFFFFFFFFFFFFFFFFF AND PUSH20 0xFFFFFFFFFFFFFFFFFFFFFFFFFFFFFFFFFFFFFFFF AND DUP2 MSTORE PUSH1 0x20 ADD SWAP1 DUP2 MSTORE PUSH1 0x20 ADD PUSH1 0x0 KECCAK256 PUSH1 0x0 SWAP1 SLOAD SWAP1 PUSH2 0x100 EXP SWAP1 DIV PUSH1 0xFF AND PUSH2 0x1F92 JUMPI PUSH1 0x40 MLOAD PUSH32 0x8C379A000000000000000000000000000000000000000000000000000000000 DUP2 MSTORE PUSH1 0x4 ADD PUSH2 0x1F89 SWAP1 PUSH2 0x3443 JUMP JUMPDEST PUSH1 0x40 MLOAD DUP1 SWAP2 SUB SWAP1 REVERT JUMPDEST PUSH1 0x0 DUP4 DUP4 PUSH1 0x40 MLOAD PUSH1 0x20 ADD PUSH2 0x1FA7 SWAP3 SWAP2 SWAP1 PUSH2 0x3D26 JUMP JUMPDEST PUSH1 0x40 MLOAD PUSH1 0x20 DUP2 DUP4 SUB SUB DUP2 MSTORE SWAP1 PUSH1 0x40 MSTORE SWAP1 POP PUSH1 0x0 DUP1 SLOAD SWAP1 PUSH2 0x100 EXP SWAP1 DIV PUSH20 0xFFFFFFFFFFFFFFFFFFFFFFFFFFFFFFFFFFFFFFFF AND PUSH20 0xFFFFFFFFFFFFFFFFFFFFFFFFFFFFFFFFFFFFFFFF AND PUSH4 0xBA73659A DUP4 DUP4 DUP7 PUSH1 0x40 MLOAD DUP5 PUSH4 0xFFFFFFFF AND PUSH1 0xE0 SHL DUP2 MSTORE PUSH1 0x4 ADD PUSH2 0x2015 SWAP4 SWAP3 SWAP2 SWAP1 PUSH2 0x33B2 JUMP JUMPDEST PUSH1 0x20 PUSH1 0x40 MLOAD DUP1 DUP4 SUB DUP2 PUSH1 0x0 DUP8 DUP1 EXTCODESIZE ISZERO DUP1 ISZERO PUSH2 0x202F JUMPI PUSH1 0x0 DUP1 REVERT JUMPDEST POP GAS CALL ISZERO DUP1 ISZERO PUSH2 0x2043 JUMPI RETURNDATASIZE PUSH1 0x0 DUP1 RETURNDATACOPY RETURNDATASIZE PUSH1 0x0 REVERT JUMPDEST POP POP POP POP PUSH1 0x40 MLOAD RETURNDATASIZE PUSH1 0x1F NOT PUSH1 0x1F DUP3 ADD AND DUP3 ADD DUP1 PUSH1 0x40 MSTORE POP DUP2 ADD SWAP1 PUSH2 0x2067 SWAP2 SWAP1 PUSH2 0x31FB JUMP JUMPDEST PUSH2 0x20A6 JUMPI PUSH1 0x40 MLOAD PUSH32 0x8C379A000000000000000000000000000000000000000000000000000000000 DUP2 MSTORE PUSH1 0x4 ADD PUSH2 0x209D SWAP1 PUSH2 0x3274 JUMP JUMPDEST PUSH1 0x40 MLOAD DUP1 SWAP2 SUB SWAP1 REVERT JUMPDEST PUSH1 0x0 PUSH1 0x2 PUSH1 0x0 DUP7 PUSH20 0xFFFFFFFFFFFFFFFFFFFFFFFFFFFFFFFFFFFFFFFF AND PUSH20 0xFFFFFFFFFFFFFFFFFFFFFFFFFFFFFFFFFFFFFFFF AND DUP2 MSTORE PUSH1 0x20 ADD SWAP1 DUP2 MSTORE PUSH1 0x20 ADD PUSH1 0x0 KECCAK256 PUSH1 0x0 PUSH2 0x100 EXP DUP2 SLOAD DUP2 PUSH1 0xFF MUL NOT AND SWAP1 DUP4 ISZERO ISZERO MUL OR SWAP1 SSTORE POP DUP4 PUSH20 0xFFFFFFFFFFFFFFFFFFFFFFFFFFFFFFFFFFFFFFFF AND PUSH32 0x58AD5E799E2DF93AB408BE0E5C1870D44C80B5BCA99DFAF7DDF0DAB5E6B155C9 DUP5 PUSH1 0x40 MLOAD PUSH2 0x2144 SWAP2 SWAP1 PUSH2 0x2C54 JUMP JUMPDEST PUSH1 0x40 MLOAD DUP1 SWAP2 SUB SWAP1 LOG2 POP POP POP POP JUMP JUMPDEST PUSH1 0xB PUSH1 0x0 SWAP1 SLOAD SWAP1 PUSH2 0x100 EXP SWAP1 DIV PUSH1 0xFF AND PUSH2 0x21A1 JUMPI PUSH1 0x40 MLOAD PUSH32 0x8C379A000000000000000000000000000000000000000000000000000000000 DUP2 MSTORE PUSH1 0x4 ADD PUSH2 0x2198 SWAP1 PUSH2 0x3DAE JUMP JUMPDEST PUSH1 0x40 MLOAD DUP1 SWAP2 SUB SWAP1 REVERT JUMPDEST PUSH1 0x0 DUP4 PUSH1 0x40 MLOAD PUSH1 0x20 ADD PUSH2 0x21B4 SWAP2 SWAP1 PUSH2 0x3E1A JUMP JUMPDEST PUSH1 0x40 MLOAD PUSH1 0x20 DUP2 DUP4 SUB SUB DUP2 MSTORE SWAP1 PUSH1 0x40 MSTORE SWAP1 POP PUSH1 0x0 DUP1 SLOAD SWAP1 PUSH2 0x100 EXP SWAP1 DIV PUSH20 0xFFFFFFFFFFFFFFFFFFFFFFFFFFFFFFFFFFFFFFFF AND PUSH20 0xFFFFFFFFFFFFFFFFFFFFFFFFFFFFFFFFFFFFFFFF AND PUSH4 0xBA73659A DUP5 DUP5 DUP5 DUP9 PUSH1 0x40 MLOAD DUP6 PUSH4 0xFFFFFFFF AND PUSH1 0xE0 SHL DUP2 MSTORE PUSH1 0x4 ADD PUSH2 0x2224 SWAP5 SWAP4 SWAP3 SWAP2 SWAP1 PUSH2 0x3188 JUMP JUMPDEST PUSH1 0x20 PUSH1 0x40 MLOAD DUP1 DUP4 SUB DUP2 PUSH1 0x0 DUP8 DUP1 EXTCODESIZE ISZERO DUP1 ISZERO PUSH2 0x223E JUMPI PUSH1 0x0 DUP1 REVERT JUMPDEST POP GAS CALL ISZERO DUP1 ISZERO PUSH2 0x2252 JUMPI RETURNDATASIZE PUSH1 0x0 DUP1 RETURNDATACOPY RETURNDATASIZE PUSH1 0x0 REVERT JUMPDEST POP POP POP POP PUSH1 0x40 MLOAD RETURNDATASIZE PUSH1 0x1F NOT PUSH1 0x1F DUP3 ADD AND DUP3 ADD DUP1 PUSH1 0x40 MSTORE POP DUP2 ADD SWAP1 PUSH2 0x2276 SWAP2 SWAP1 PUSH2 0x31FB JUMP JUMPDEST PUSH2 0x22B5 JUMPI PUSH1 0x40 MLOAD PUSH32 0x8C379A000000000000000000000000000000000000000000000000000000000 DUP2 MSTORE PUSH1 0x4 ADD PUSH2 0x22AC SWAP1 PUSH2 0x3274 JUMP JUMPDEST PUSH1 0x40 MLOAD DUP1 SWAP2 SUB SWAP1 REVERT JUMPDEST PUSH1 0x0 PUSH1 0xB PUSH1 0x0 PUSH2 0x100 EXP DUP2 SLOAD DUP2 PUSH1 0xFF MUL NOT AND SWAP1 DUP4 ISZERO ISZERO MUL OR SWAP1 SSTORE POP PUSH32 0x79C02B0E60E0F00FE0370791204F2F175FE3F06F4816F3506AD4FA1B8E8CDE0F PUSH1 0x40 MLOAD PUSH1 0x40 MLOAD DUP1 SWAP2 SUB SWAP1 LOG1 POP POP POP POP JUMP JUMPDEST PUSH1 0xB PUSH1 0x0 SWAP1 SLOAD SWAP1 PUSH2 0x100 EXP SWAP1 DIV PUSH1 0xFF AND DUP2 JUMP JUMPDEST PUSH1 0x0 PUSH1 0xA PUSH1 0x0 DUP4 PUSH20 0xFFFFFFFFFFFFFFFFFFFFFFFFFFFFFFFFFFFFFFFF AND PUSH20 0xFFFFFFFFFFFFFFFFFFFFFFFFFFFFFFFFFFFFFFFF AND DUP2 MSTORE PUSH1 0x20 ADD SWAP1 DUP2 MSTORE PUSH1 0x20 ADD PUSH1 0x0 KECCAK256 SLOAD SWAP1 POP SWAP2 SWAP1 POP JUMP JUMPDEST PUSH1 0xB PUSH1 0x0 SWAP1 SLOAD SWAP1 PUSH2 0x100 EXP SWAP1 DIV PUSH1 0xFF AND ISZERO PUSH2 0x23AE JUMPI PUSH1 0x40 MLOAD PUSH32 0x8C379A000000000000000000000000000000000000000000000000000000000 DUP2 MSTORE PUSH1 0x4 ADD PUSH2 0x23A5 SWAP1 PUSH2 0x3604 JUMP JUMPDEST PUSH1 0x40 MLOAD DUP1 SWAP2 SUB SWAP1 REVERT JUMPDEST PUSH1 0xC PUSH1 0x0 CALLER PUSH20 0xFFFFFFFFFFFFFFFFFFFFFFFFFFFFFFFFFFFFFFFF AND PUSH20 0xFFFFFFFFFFFFFFFFFFFFFFFFFFFFFFFFFFFFFFFF AND DUP2 MSTORE PUSH1 0x20 ADD SWAP1 DUP2 MSTORE PUSH1 0x20 ADD PUSH1 0x0 KECCAK256 PUSH1 0x0 SWAP1 SLOAD SWAP1 PUSH2 0x100 EXP SWAP1 DIV PUSH1 0xFF AND DUP1 PUSH2 0x24CC JUMPI POP PUSH1 0x8 PUSH1 0x0 DUP5 PUSH20 0xFFFFFFFFFFFFFFFFFFFFFFFFFFFFFFFFFFFFFFFF AND PUSH20 0xFFFFFFFFFFFFFFFFFFFFFFFFFFFFFFFFFFFFFFFF AND DUP2 MSTORE PUSH1 0x20 ADD SWAP1 DUP2 MSTORE PUSH1 0x20 ADD PUSH1 0x0 KECCAK256 SLOAD DUP3 PUSH1 0x7 PUSH1 0x0 CALLER PUSH20 0xFFFFFFFFFFFFFFFFFFFFFFFFFFFFFFFFFFFFFFFF AND PUSH20 0xFFFFFFFFFFFFFFFFFFFFFFFFFFFFFFFFFFFFFFFF AND DUP2 MSTORE PUSH1 0x20 ADD SWAP1 DUP2 MSTORE PUSH1 0x20 ADD PUSH1 0x0 KECCAK256 PUSH1 0x0 DUP7 PUSH20 0xFFFFFFFFFFFFFFFFFFFFFFFFFFFFFFFFFFFFFFFF AND PUSH20 0xFFFFFFFFFFFFFFFFFFFFFFFFFFFFFFFFFFFFFFFF AND DUP2 MSTORE PUSH1 0x20 ADD SWAP1 DUP2 MSTORE PUSH1 0x20 ADD PUSH1 0x0 KECCAK256 SLOAD PUSH2 0x24C9 SWAP2 SWAP1 PUSH2 0x3653 JUMP JUMPDEST GT ISZERO JUMPDEST PUSH2 0x250B JUMPI PUSH1 0x40 MLOAD PUSH32 0x8C379A000000000000000000000000000000000000000000000000000000000 DUP2 MSTORE PUSH1 0x4 ADD PUSH2 0x2502 SWAP1 PUSH2 0x3E94 JUMP JUMPDEST PUSH1 0x40 MLOAD DUP1 SWAP2 SUB SWAP1 REVERT JUMPDEST PUSH1 0x2 PUSH1 0x0 DUP5 PUSH20 0xFFFFFFFFFFFFFFFFFFFFFFFFFFFFFFFFFFFFFFFF AND PUSH20 0xFFFFFFFFFFFFFFFFFFFFFFFFFFFFFFFFFFFFFFFF AND DUP2 MSTORE PUSH1 0x20 ADD SWAP1 DUP2 MSTORE PUSH1 0x20 ADD PUSH1 0x0 KECCAK256 PUSH1 0x0 SWAP1 SLOAD SWAP1 PUSH2 0x100 EXP SWAP1 DIV PUSH1 0xFF AND PUSH2 0x2597 JUMPI PUSH1 0x40 MLOAD PUSH32 0x8C379A000000000000000000000000000000000000000000000000000000000 DUP2 MSTORE PUSH1 0x4 ADD PUSH2 0x258E SWAP1 PUSH2 0x3443 JUMP JUMPDEST PUSH1 0x40 MLOAD DUP1 SWAP2 SUB SWAP1 REVERT JUMPDEST PUSH1 0x0 PUSH1 0x4 PUSH1 0x0 DUP6 PUSH20 0xFFFFFFFFFFFFFFFFFFFFFFFFFFFFFFFFFFFFFFFF AND PUSH20 0xFFFFFFFFFFFFFFFFFFFFFFFFFFFFFFFFFFFFFFFF AND DUP2 MSTORE PUSH1 0x20 ADD SWAP1 DUP2 MSTORE PUSH1 0x20 ADD PUSH1 0x0 KECCAK256 SLOAD EQ DUP1 PUSH2 0x2624 JUMPI POP PUSH1 0x4 PUSH1 0x0 DUP5 PUSH20 0xFFFFFFFFFFFFFFFFFFFFFFFFFFFFFFFFFFFFFFFF AND PUSH20 0xFFFFFFFFFFFFFFFFFFFFFFFFFFFFFFFFFFFFFFFF AND DUP2 MSTORE PUSH1 0x20 ADD SWAP1 DUP2 MSTORE PUSH1 0x20 ADD PUSH1 0x0 KECCAK256 SLOAD DUP3 GT ISZERO JUMPDEST PUSH2 0x2663 JUMPI PUSH1 0x40 MLOAD PUSH32 0x8C379A000000000000000000000000000000000000000000000000000000000 DUP2 MSTORE PUSH1 0x4 ADD PUSH2 0x265A SWAP1 PUSH2 0x3F00 JUMP JUMPDEST PUSH1 0x40 MLOAD DUP1 SWAP2 SUB SWAP1 REVERT JUMPDEST PUSH1 0x3 PUSH1 0x0 DUP5 PUSH20 0xFFFFFFFFFFFFFFFFFFFFFFFFFFFFFFFFFFFFFFFF AND PUSH20 0xFFFFFFFFFFFFFFFFFFFFFFFFFFFFFFFFFFFFFFFF AND DUP2 MSTORE PUSH1 0x20 ADD SWAP1 DUP2 MSTORE PUSH1 0x20 ADD PUSH1 0x0 KECCAK256 SLOAD DUP3 LT ISZERO PUSH2 0x26E5 JUMPI PUSH1 0x40 MLOAD PUSH32 0x8C379A000000000000000000000000000000000000000000000000000000000 DUP2 MSTORE PUSH1 0x4 ADD PUSH2 0x26DC SWAP1 PUSH2 0x3F6C JUMP JUMPDEST PUSH1 0x40 MLOAD DUP1 SWAP2 SUB SWAP1 REVERT JUMPDEST DUP3 PUSH20 0xFFFFFFFFFFFFFFFFFFFFFFFFFFFFFFFFFFFFFFFF AND PUSH4 0x23B872DD CALLER PUSH1 0x1 PUSH1 0x0 SWAP1 SLOAD SWAP1 PUSH2 0x100 EXP SWAP1 DIV PUSH20 0xFFFFFFFFFFFFFFFFFFFFFFFFFFFFFFFFFFFFFFFF AND DUP6 PUSH1 0x40 MLOAD DUP5 PUSH4 0xFFFFFFFF AND PUSH1 0xE0 SHL DUP2 MSTORE PUSH1 0x4 ADD PUSH2 0x2744 SWAP4 SWAP3 SWAP2 SWAP1 PUSH2 0x3FEB JUMP JUMPDEST PUSH1 0x20 PUSH1 0x40 MLOAD DUP1 DUP4 SUB DUP2 PUSH1 0x0 DUP8 DUP1 EXTCODESIZE ISZERO DUP1 ISZERO PUSH2 0x275E JUMPI PUSH1 0x0 DUP1 REVERT JUMPDEST POP GAS CALL ISZERO DUP1 ISZERO PUSH2 0x2772 JUMPI RETURNDATASIZE PUSH1 0x0 DUP1 RETURNDATACOPY RETURNDATASIZE PUSH1 0x0 REVERT JUMPDEST POP POP POP POP PUSH1 0x40 MLOAD RETURNDATASIZE PUSH1 0x1F NOT PUSH1 0x1F DUP3 ADD AND DUP3 ADD DUP1 PUSH1 0x40 MSTORE POP DUP2 ADD SWAP1 PUSH2 0x2796 SWAP2 SWAP1 PUSH2 0x31FB JUMP JUMPDEST PUSH2 0x27D5 JUMPI PUSH1 0x40 MLOAD PUSH32 0x8C379A000000000000000000000000000000000000000000000000000000000 DUP2 MSTORE PUSH1 0x4 ADD PUSH2 0x27CC SWAP1 PUSH2 0x406E JUMP JUMPDEST PUSH1 0x40 MLOAD DUP1 SWAP2 SUB SWAP1 REVERT JUMPDEST DUP3 PUSH20 0xFFFFFFFFFFFFFFFFFFFFFFFFFFFFFFFFFFFFFFFF AND CALLER PUSH20 0xFFFFFFFFFFFFFFFFFFFFFFFFFFFFFFFFFFFFFFFF AND PUSH32 0x3724FF5E82DDC640A08D68B0B782A5991AEA0DE51A8DD10A59CDBE5B3EC4E6BF DUP5 DUP5 PUSH1 0x40 MLOAD PUSH2 0x2834 SWAP3 SWAP2 SWAP1 PUSH2 0x408E JUMP JUMPDEST PUSH1 0x40 MLOAD DUP1 SWAP2 SUB SWAP1 LOG3 POP POP POP JUMP JUMPDEST PUSH1 0x0 PUSH1 0x40 MLOAD SWAP1 POP SWAP1 JUMP JUMPDEST PUSH1 0x0 DUP1 REVERT JUMPDEST PUSH1 0x0 DUP1 REVERT JUMPDEST PUSH1 0x0 PUSH20 0xFFFFFFFFFFFFFFFFFFFFFFFFFFFFFFFFFFFFFFFF DUP3 AND SWAP1 POP SWAP2 SWAP1 POP JUMP JUMPDEST PUSH1 0x0 PUSH2 0x2880 DUP3 PUSH2 0x2855 JUMP JUMPDEST SWAP1 POP SWAP2 SWAP1 POP JUMP JUMPDEST PUSH2 0x2890 DUP2 PUSH2 0x2875 JUMP JUMPDEST DUP2 EQ PUSH2 0x289B JUMPI PUSH1 0x0 DUP1 REVERT JUMPDEST POP JUMP JUMPDEST PUSH1 0x0 DUP2 CALLDATALOAD SWAP1 POP PUSH2 0x28AD DUP2 PUSH2 0x2887 JUMP JUMPDEST SWAP3 SWAP2 POP POP JUMP JUMPDEST PUSH1 0x0 DUP2 SWAP1 POP SWAP2 SWAP1 POP JUMP JUMPDEST PUSH2 0x28C6 DUP2 PUSH2 0x28B3 JUMP JUMPDEST DUP2 EQ PUSH2 0x28D1 JUMPI PUSH1 0x0 DUP1 REVERT JUMPDEST POP JUMP JUMPDEST PUSH1 0x0 DUP2 CALLDATALOAD SWAP1 POP PUSH2 0x28E3 DUP2 PUSH2 0x28BD JUMP JUMPDEST SWAP3 SWAP2 POP POP JUMP JUMPDEST PUSH1 0x0 DUP1 REVERT JUMPDEST PUSH1 0x0 DUP1 REVERT JUMPDEST PUSH1 0x0 DUP1 REVERT JUMPDEST PUSH1 0x0 DUP1 DUP4 PUSH1 0x1F DUP5 ADD SLT PUSH2 0x290E JUMPI PUSH2 0x290D PUSH2 0x28E9 JUMP JUMPDEST JUMPDEST DUP3 CALLDATALOAD SWAP1 POP PUSH8 0xFFFFFFFFFFFFFFFF DUP2 GT ISZERO PUSH2 0x292B JUMPI PUSH2 0x292A PUSH2 0x28EE JUMP JUMPDEST JUMPDEST PUSH1 0x20 DUP4 ADD SWAP2 POP DUP4 PUSH1 0x1 DUP3 MUL DUP4 ADD GT ISZERO PUSH2 0x2947 JUMPI PUSH2 0x2946 PUSH2 0x28F3 JUMP JUMPDEST JUMPDEST SWAP3 POP SWAP3 SWAP1 POP JUMP JUMPDEST PUSH1 0x0 DUP1 PUSH1 0x0 DUP1 PUSH1 0x60 DUP6 DUP8 SUB SLT ISZERO PUSH2 0x2968 JUMPI PUSH2 0x2967 PUSH2 0x284B JUMP JUMPDEST JUMPDEST PUSH1 0x0 PUSH2 0x2976 DUP8 DUP3 DUP9 ADD PUSH2 0x289E JUMP JUMPDEST SWAP5 POP POP PUSH1 0x20 PUSH2 0x2987 DUP8 DUP3 DUP9 ADD PUSH2 0x28D4 JUMP JUMPDEST SWAP4 POP POP PUSH1 0x40 DUP6 ADD CALLDATALOAD PUSH8 0xFFFFFFFFFFFFFFFF DUP2 GT ISZERO PUSH2 0x29A8 JUMPI PUSH2 0x29A7 PUSH2 0x2850 JUMP JUMPDEST JUMPDEST PUSH2 0x29B4 DUP8 DUP3 DUP9 ADD PUSH2 0x28F8 JUMP JUMPDEST SWAP3 POP SWAP3 POP POP SWAP3 SWAP6 SWAP2 SWAP5 POP SWAP3 POP JUMP JUMPDEST PUSH1 0x0 DUP2 SWAP1 POP SWAP2 SWAP1 POP JUMP JUMPDEST PUSH2 0x29D5 DUP2 PUSH2 0x29C2 JUMP JUMPDEST DUP2 EQ PUSH2 0x29E0 JUMPI PUSH1 0x0 DUP1 REVERT JUMPDEST POP JUMP JUMPDEST PUSH1 0x0 DUP2 CALLDATALOAD SWAP1 POP PUSH2 0x29F2 DUP2 PUSH2 0x29CC JUMP JUMPDEST SWAP3 SWAP2 POP POP JUMP JUMPDEST PUSH1 0x0 DUP1 REVERT JUMPDEST PUSH1 0x0 PUSH1 0x1F NOT PUSH1 0x1F DUP4 ADD AND SWAP1 POP SWAP2 SWAP1 POP JUMP JUMPDEST PUSH32 0x4E487B7100000000000000000000000000000000000000000000000000000000 PUSH1 0x0 MSTORE PUSH1 0x41 PUSH1 0x4 MSTORE PUSH1 0x24 PUSH1 0x0 REVERT JUMPDEST PUSH2 0x2A46 DUP3 PUSH2 0x29FD JUMP JUMPDEST DUP2 ADD DUP2 DUP2 LT PUSH8 0xFFFFFFFFFFFFFFFF DUP3 GT OR ISZERO PUSH2 0x2A65 JUMPI PUSH2 0x2A64 PUSH2 0x2A0E JUMP JUMPDEST JUMPDEST DUP1 PUSH1 0x40 MSTORE POP POP POP JUMP JUMPDEST PUSH1 0x0 PUSH2 0x2A78 PUSH2 0x2841 JUMP JUMPDEST SWAP1 POP PUSH2 0x2A84 DUP3 DUP3 PUSH2 0x2A3D JUMP JUMPDEST SWAP2 SWAP1 POP JUMP JUMPDEST PUSH1 0x0 PUSH8 0xFFFFFFFFFFFFFFFF DUP3 GT ISZERO PUSH2 0x2AA4 JUMPI PUSH2 0x2AA3 PUSH2 0x2A0E JUMP JUMPDEST JUMPDEST PUSH2 0x2AAD DUP3 PUSH2 0x29FD JUMP JUMPDEST SWAP1 POP PUSH1 0x20 DUP2 ADD SWAP1 POP SWAP2 SWAP1 POP JUMP JUMPDEST DUP3 DUP2 DUP4 CALLDATACOPY PUSH1 0x0 DUP4 DUP4 ADD MSTORE POP POP POP JUMP JUMPDEST PUSH1 0x0 PUSH2 0x2ADC PUSH2 0x2AD7 DUP5 PUSH2 0x2A89 JUMP JUMPDEST PUSH2 0x2A6E JUMP JUMPDEST SWAP1 POP DUP3 DUP2 MSTORE PUSH1 0x20 DUP2 ADD DUP5 DUP5 DUP5 ADD GT ISZERO PUSH2 0x2AF8 JUMPI PUSH2 0x2AF7 PUSH2 0x29F8 JUMP JUMPDEST JUMPDEST PUSH2 0x2B03 DUP5 DUP3 DUP6 PUSH2 0x2ABA JUMP JUMPDEST POP SWAP4 SWAP3 POP POP POP JUMP JUMPDEST PUSH1 0x0 DUP3 PUSH1 0x1F DUP4 ADD SLT PUSH2 0x2B20 JUMPI PUSH2 0x2B1F PUSH2 0x28E9 JUMP JUMPDEST JUMPDEST DUP2 CALLDATALOAD PUSH2 0x2B30 DUP5 DUP3 PUSH1 0x20 DUP7 ADD PUSH2 0x2AC9 JUMP JUMPDEST SWAP2 POP POP SWAP3 SWAP2 POP POP JUMP JUMPDEST PUSH1 0x0 DUP1 PUSH1 0x0 DUP1 PUSH1 0x0 DUP1 PUSH1 0xC0 DUP8 DUP10 SUB SLT ISZERO PUSH2 0x2B56 JUMPI PUSH2 0x2B55 PUSH2 0x284B JUMP JUMPDEST JUMPDEST PUSH1 0x0 PUSH2 0x2B64 DUP10 DUP3 DUP11 ADD PUSH2 0x289E JUMP JUMPDEST SWAP7 POP POP PUSH1 0x20 PUSH2 0x2B75 DUP10 DUP3 DUP11 ADD PUSH2 0x29E3 JUMP JUMPDEST SWAP6 POP POP PUSH1 0x40 PUSH2 0x2B86 DUP10 DUP3 DUP11 ADD PUSH2 0x28D4 JUMP JUMPDEST SWAP5 POP POP PUSH1 0x60 PUSH2 0x2B97 DUP10 DUP3 DUP11 ADD PUSH2 0x28D4 JUMP JUMPDEST SWAP4 POP POP PUSH1 0x80 PUSH2 0x2BA8 DUP10 DUP3 DUP11 ADD PUSH2 0x28D4 JUMP JUMPDEST SWAP3 POP POP PUSH1 0xA0 DUP8 ADD CALLDATALOAD PUSH8 0xFFFFFFFFFFFFFFFF DUP2 GT ISZERO PUSH2 0x2BC9 JUMPI PUSH2 0x2BC8 PUSH2 0x2850 JUMP JUMPDEST JUMPDEST PUSH2 0x2BD5 DUP10 DUP3 DUP11 ADD PUSH2 0x2B0B JUMP JUMPDEST SWAP2 POP POP SWAP3 SWAP6 POP SWAP3 SWAP6 POP SWAP3 SWAP6 JUMP JUMPDEST PUSH1 0x0 PUSH1 0x20 DUP3 DUP5 SUB SLT ISZERO PUSH2 0x2BF8 JUMPI PUSH2 0x2BF7 PUSH2 0x284B JUMP JUMPDEST JUMPDEST PUSH1 0x0 PUSH2 0x2C06 DUP5 DUP3 DUP6 ADD PUSH2 0x289E JUMP JUMPDEST SWAP2 POP POP SWAP3 SWAP2 POP POP JUMP JUMPDEST PUSH1 0x0 DUP2 ISZERO ISZERO SWAP1 POP SWAP2 SWAP1 POP JUMP JUMPDEST PUSH2 0x2C24 DUP2 PUSH2 0x2C0F JUMP JUMPDEST DUP3 MSTORE POP POP JUMP JUMPDEST PUSH1 0x0 PUSH1 0x20 DUP3 ADD SWAP1 POP PUSH2 0x2C3F PUSH1 0x0 DUP4 ADD DUP5 PUSH2 0x2C1B JUMP JUMPDEST SWAP3 SWAP2 POP POP JUMP JUMPDEST PUSH2 0x2C4E DUP2 PUSH2 0x28B3 JUMP JUMPDEST DUP3 MSTORE POP POP JUMP JUMPDEST PUSH1 0x0 PUSH1 0x20 DUP3 ADD SWAP1 POP PUSH2 0x2C69 PUSH1 0x0 DUP4 ADD DUP5 PUSH2 0x2C45 JUMP JUMPDEST SWAP3 SWAP2 POP POP JUMP JUMPDEST PUSH1 0x0 DUP1 PUSH1 0x0 DUP1 PUSH1 0x80 DUP6 DUP8 SUB SLT ISZERO PUSH2 0x2C89 JUMPI PUSH2 0x2C88 PUSH2 0x284B JUMP JUMPDEST JUMPDEST PUSH1 0x0 PUSH2 0x2C97 DUP8 DUP3 DUP9 ADD PUSH2 0x289E JUMP JUMPDEST SWAP5 POP POP PUSH1 0x20 PUSH2 0x2CA8 DUP8 DUP3 DUP9 ADD PUSH2 0x28D4 JUMP JUMPDEST SWAP4 POP POP PUSH1 0x40 PUSH2 0x2CB9 DUP8 DUP3 DUP9 ADD PUSH2 0x28D4 JUMP JUMPDEST SWAP3 POP POP PUSH1 0x60 DUP6 ADD CALLDATALOAD PUSH8 0xFFFFFFFFFFFFFFFF DUP2 GT ISZERO PUSH2 0x2CDA JUMPI PUSH2 0x2CD9 PUSH2 0x2850 JUMP JUMPDEST JUMPDEST PUSH2 0x2CE6 DUP8 DUP3 DUP9 ADD PUSH2 0x2B0B JUMP JUMPDEST SWAP2 POP POP SWAP3 SWAP6 SWAP2 SWAP5 POP SWAP3 POP JUMP JUMPDEST PUSH1 0x0 DUP1 PUSH1 0x0 DUP1 PUSH1 0x0 DUP1 PUSH1 0xC0 DUP8 DUP10 SUB SLT ISZERO PUSH2 0x2D0F JUMPI PUSH2 0x2D0E PUSH2 0x284B JUMP JUMPDEST JUMPDEST PUSH1 0x0 PUSH2 0x2D1D DUP10 DUP3 DUP11 ADD PUSH2 0x289E JUMP JUMPDEST SWAP7 POP POP PUSH1 0x20 PUSH2 0x2D2E DUP10 DUP3 DUP11 ADD PUSH2 0x28D4 JUMP JUMPDEST SWAP6 POP POP PUSH1 0x40 PUSH2 0x2D3F DUP10 DUP3 DUP11 ADD PUSH2 0x289E JUMP JUMPDEST SWAP5 POP POP PUSH1 0x60 PUSH2 0x2D50 DUP10 DUP3 DUP11 ADD PUSH2 0x28D4 JUMP JUMPDEST SWAP4 POP POP PUSH1 0x80 PUSH2 0x2D61 DUP10 DUP3 DUP11 ADD PUSH2 0x28D4 JUMP JUMPDEST SWAP3 POP POP PUSH1 0xA0 DUP8 ADD CALLDATALOAD PUSH8 0xFFFFFFFFFFFFFFFF DUP2 GT ISZERO PUSH2 0x2D82 JUMPI PUSH2 0x2D81 PUSH2 0x2850 JUMP JUMPDEST JUMPDEST PUSH2 0x2D8E DUP10 DUP3 DUP11 ADD PUSH2 0x2B0B JUMP JUMPDEST SWAP2 POP POP SWAP3 SWAP6 POP SWAP3 SWAP6 POP SWAP3 SWAP6 JUMP JUMPDEST PUSH2 0x2DA4 DUP2 PUSH2 0x2875 JUMP JUMPDEST DUP3 MSTORE POP POP JUMP JUMPDEST PUSH1 0x0 PUSH1 0x20 DUP3 ADD SWAP1 POP PUSH2 0x2DBF PUSH1 0x0 DUP4 ADD DUP5 PUSH2 0x2D9B JUMP JUMPDEST SWAP3 SWAP2 POP POP JUMP JUMPDEST PUSH1 0x0 DUP1 PUSH1 0x0 DUP1 PUSH1 0x60 DUP6 DUP8 SUB SLT ISZERO PUSH2 0x2DDF JUMPI PUSH2 0x2DDE PUSH2 0x284B JUMP JUMPDEST JUMPDEST PUSH1 0x0 PUSH2 0x2DED DUP8 DUP3 DUP9 ADD PUSH2 0x28D4 JUMP JUMPDEST SWAP5 POP POP PUSH1 0x20 PUSH2 0x2DFE DUP8 DUP3 DUP9 ADD PUSH2 0x28D4 JUMP JUMPDEST SWAP4 POP POP PUSH1 0x40 DUP6 ADD CALLDATALOAD PUSH8 0xFFFFFFFFFFFFFFFF DUP2 GT ISZERO PUSH2 0x2E1F JUMPI PUSH2 0x2E1E PUSH2 0x2850 JUMP JUMPDEST JUMPDEST PUSH2 0x2E2B DUP8 DUP3 DUP9 ADD PUSH2 0x28F8 JUMP JUMPDEST SWAP3 POP SWAP3 POP POP SWAP3 SWAP6 SWAP2 SWAP5 POP SWAP3 POP JUMP JUMPDEST PUSH1 0x0 PUSH1 0x20 DUP3 DUP5 SUB SLT ISZERO PUSH2 0x2E4F JUMPI PUSH2 0x2E4E PUSH2 0x284B JUMP JUMPDEST JUMPDEST PUSH1 0x0 PUSH2 0x2E5D DUP5 DUP3 DUP6 ADD PUSH2 0x29E3 JUMP JUMPDEST SWAP2 POP POP SWAP3 SWAP2 POP POP JUMP JUMPDEST PUSH1 0x0 DUP1 PUSH1 0x0 DUP1 PUSH1 0x0 PUSH1 0x80 DUP7 DUP9 SUB SLT ISZERO PUSH2 0x2E82 JUMPI PUSH2 0x2E81 PUSH2 0x284B JUMP JUMPDEST JUMPDEST PUSH1 0x0 PUSH2 0x2E90 DUP9 DUP3 DUP10 ADD PUSH2 0x289E JUMP JUMPDEST SWAP6 POP POP PUSH1 0x20 PUSH2 0x2EA1 DUP9 DUP3 DUP10 ADD PUSH2 0x28D4 JUMP JUMPDEST SWAP5 POP POP PUSH1 0x40 PUSH2 0x2EB2 DUP9 DUP3 DUP10 ADD PUSH2 0x28D4 JUMP JUMPDEST SWAP4 POP POP PUSH1 0x60 DUP7 ADD CALLDATALOAD PUSH8 0xFFFFFFFFFFFFFFFF DUP2 GT ISZERO PUSH2 0x2ED3 JUMPI PUSH2 0x2ED2 PUSH2 0x2850 JUMP JUMPDEST JUMPDEST PUSH2 0x2EDF DUP9 DUP3 DUP10 ADD PUSH2 0x28F8 JUMP JUMPDEST SWAP3 POP SWAP3 POP POP SWAP3 SWAP6 POP SWAP3 SWAP6 SWAP1 SWAP4 POP JUMP JUMPDEST PUSH1 0x0 DUP1 PUSH1 0x0 PUSH1 0x40 DUP5 DUP7 SUB SLT ISZERO PUSH2 0x2F07 JUMPI PUSH2 0x2F06 PUSH2 0x284B JUMP JUMPDEST JUMPDEST PUSH1 0x0 PUSH2 0x2F15 DUP7 DUP3 DUP8 ADD PUSH2 0x28D4 JUMP JUMPDEST SWAP4 POP POP PUSH1 0x20 DUP5 ADD CALLDATALOAD PUSH8 0xFFFFFFFFFFFFFFFF DUP2 GT ISZERO PUSH2 0x2F36 JUMPI PUSH2 0x2F35 PUSH2 0x2850 JUMP JUMPDEST JUMPDEST PUSH2 0x2F42 DUP7 DUP3 DUP8 ADD PUSH2 0x28F8 JUMP JUMPDEST SWAP3 POP SWAP3 POP POP SWAP3 POP SWAP3 POP SWAP3 JUMP JUMPDEST PUSH2 0x2F57 DUP2 PUSH2 0x29C2 JUMP JUMPDEST DUP3 MSTORE POP POP JUMP JUMPDEST PUSH1 0x0 PUSH1 0x20 DUP3 ADD SWAP1 POP PUSH2 0x2F72 PUSH1 0x0 DUP4 ADD DUP5 PUSH2 0x2F4E JUMP JUMPDEST SWAP3 SWAP2 POP POP JUMP JUMPDEST PUSH1 0x0 DUP1 PUSH1 0x0 PUSH1 0x60 DUP5 DUP7 SUB SLT ISZERO PUSH2 0x2F91 JUMPI PUSH2 0x2F90 PUSH2 0x284B JUMP JUMPDEST JUMPDEST PUSH1 0x0 PUSH2 0x2F9F DUP7 DUP3 DUP8 ADD PUSH2 0x289E JUMP JUMPDEST SWAP4 POP POP PUSH1 0x20 PUSH2 0x2FB0 DUP7 DUP3 DUP8 ADD PUSH2 0x28D4 JUMP JUMPDEST SWAP3 POP POP PUSH1 0x40 DUP5 ADD CALLDATALOAD PUSH8 0xFFFFFFFFFFFFFFFF DUP2 GT ISZERO PUSH2 0x2FD1 JUMPI PUSH2 0x2FD0 PUSH2 0x2850 JUMP JUMPDEST JUMPDEST PUSH2 0x2FDD DUP7 DUP3 DUP8 ADD PUSH2 0x2B0B JUMP JUMPDEST SWAP2 POP POP SWAP3 POP SWAP3 POP SWAP3 JUMP JUMPDEST PUSH1 0x0 DUP1 PUSH1 0x0 PUSH1 0x60 DUP5 DUP7 SUB SLT ISZERO PUSH2 0x3000 JUMPI PUSH2 0x2FFF PUSH2 0x284B JUMP JUMPDEST JUMPDEST PUSH1 0x0 PUSH2 0x300E DUP7 DUP3 DUP8 ADD PUSH2 0x289E JUMP JUMPDEST SWAP4 POP POP PUSH1 0x20 PUSH2 0x301F DUP7 DUP3 DUP8 ADD PUSH2 0x28D4 JUMP JUMPDEST SWAP3 POP POP PUSH1 0x40 PUSH2 0x3030 DUP7 DUP3 DUP8 ADD PUSH2 0x29E3 JUMP JUMPDEST SWAP2 POP POP SWAP3 POP SWAP3 POP SWAP3 JUMP JUMPDEST PUSH1 0x0 DUP3 DUP3 MSTORE PUSH1 0x20 DUP3 ADD SWAP1 POP SWAP3 SWAP2 POP POP JUMP JUMPDEST PUSH32 0x7365745F6578656D7074696F6E5F6C6973746572000000000000000000000000 PUSH1 0x0 DUP3 ADD MSTORE POP JUMP JUMPDEST PUSH1 0x0 PUSH2 0x3081 PUSH1 0x14 DUP4 PUSH2 0x303A JUMP JUMPDEST SWAP2 POP PUSH2 0x308C DUP3 PUSH2 0x304B JUMP JUMPDEST PUSH1 0x20 DUP3 ADD SWAP1 POP SWAP2 SWAP1 POP JUMP JUMPDEST PUSH1 0x0 PUSH1 0x60 DUP3 ADD SWAP1 POP PUSH2 0x30AC PUSH1 0x0 DUP4 ADD DUP6 PUSH2 0x2D9B JUMP JUMPDEST PUSH2 0x30B9 PUSH1 0x20 DUP4 ADD DUP5 PUSH2 0x2C45 JUMP JUMPDEST DUP2 DUP2 SUB PUSH1 0x40 DUP4 ADD MSTORE PUSH2 0x30CA DUP2 PUSH2 0x3074 JUMP JUMPDEST SWAP1 POP SWAP4 SWAP3 POP POP POP JUMP JUMPDEST PUSH1 0x0 DUP3 DUP3 MSTORE PUSH1 0x20 DUP3 ADD SWAP1 POP SWAP3 SWAP2 POP POP JUMP JUMPDEST PUSH1 0x0 PUSH2 0x30F0 DUP4 DUP6 PUSH2 0x30D3 JUMP JUMPDEST SWAP4 POP PUSH2 0x30FD DUP4 DUP6 DUP5 PUSH2 0x2ABA JUMP JUMPDEST PUSH2 0x3106 DUP4 PUSH2 0x29FD JUMP JUMPDEST DUP5 ADD SWAP1 POP SWAP4 SWAP3 POP POP POP JUMP JUMPDEST PUSH1 0x0 DUP2 MLOAD SWAP1 POP SWAP2 SWAP1 POP JUMP JUMPDEST PUSH1 0x0 JUMPDEST DUP4 DUP2 LT ISZERO PUSH2 0x313A JUMPI DUP1 DUP3 ADD MLOAD DUP2 DUP5 ADD MSTORE PUSH1 0x20 DUP2 ADD SWAP1 POP PUSH2 0x311F JUMP JUMPDEST DUP4 DUP2 GT ISZERO PUSH2 0x3149 JUMPI PUSH1 0x0 DUP5 DUP5 ADD MSTORE JUMPDEST POP POP POP POP JUMP JUMPDEST PUSH1 0x0 PUSH2 0x315A DUP3 PUSH2 0x3111 JUMP JUMPDEST PUSH2 0x3164 DUP2 DUP6 PUSH2 0x30D3 JUMP JUMPDEST SWAP4 POP PUSH2 0x3174 DUP2 DUP6 PUSH1 0x20 DUP7 ADD PUSH2 0x311C JUMP JUMPDEST PUSH2 0x317D DUP2 PUSH2 0x29FD JUMP JUMPDEST DUP5 ADD SWAP2 POP POP SWAP3 SWAP2 POP POP JUMP JUMPDEST PUSH1 0x0 PUSH1 0x60 DUP3 ADD SWAP1 POP DUP2 DUP2 SUB PUSH1 0x0 DUP4 ADD MSTORE PUSH2 0x31A3 DUP2 DUP7 DUP9 PUSH2 0x30E4 JUMP JUMPDEST SWAP1 POP DUP2 DUP2 SUB PUSH1 0x20 DUP4 ADD MSTORE PUSH2 0x31B7 DUP2 DUP6 PUSH2 0x314F JUMP JUMPDEST SWAP1 POP PUSH2 0x31C6 PUSH1 0x40 DUP4 ADD DUP5 PUSH2 0x2C45 JUMP JUMPDEST SWAP6 SWAP5 POP POP POP POP POP JUMP JUMPDEST PUSH2 0x31D8 DUP2 PUSH2 0x2C0F JUMP JUMPDEST DUP2 EQ PUSH2 0x31E3 JUMPI PUSH1 0x0 DUP1 REVERT JUMPDEST POP JUMP JUMPDEST PUSH1 0x0 DUP2 MLOAD SWAP1 POP PUSH2 0x31F5 DUP2 PUSH2 0x31CF JUMP JUMPDEST SWAP3 SWAP2 POP POP JUMP JUMPDEST PUSH1 0x0 PUSH1 0x20 DUP3 DUP5 SUB SLT ISZERO PUSH2 0x3211 JUMPI PUSH2 0x3210 PUSH2 0x284B JUMP JUMPDEST JUMPDEST PUSH1 0x0 PUSH2 0x321F DUP5 DUP3 DUP6 ADD PUSH2 0x31E6 JUMP JUMPDEST SWAP2 POP POP SWAP3 SWAP2 POP POP JUMP JUMPDEST PUSH32 0x626164207369676E617475726573000000000000000000000000000000000000 PUSH1 0x0 DUP3 ADD MSTORE POP JUMP JUMPDEST PUSH1 0x0 PUSH2 0x325E PUSH1 0xE DUP4 PUSH2 0x303A JUMP JUMPDEST SWAP2 POP PUSH2 0x3269 DUP3 PUSH2 0x3228 JUMP JUMPDEST PUSH1 0x20 DUP3 ADD SWAP1 POP SWAP2 SWAP1 POP JUMP JUMPDEST PUSH1 0x0 PUSH1 0x20 DUP3 ADD SWAP1 POP DUP2 DUP2 SUB PUSH1 0x0 DUP4 ADD MSTORE PUSH2 0x328D DUP2 PUSH2 0x3251 JUMP JUMPDEST SWAP1 POP SWAP2 SWAP1 POP JUMP JUMPDEST PUSH32 0x617373657420616C7265616479206C6973746564000000000000000000000000 PUSH1 0x0 DUP3 ADD MSTORE POP JUMP JUMPDEST PUSH1 0x0 PUSH2 0x32CA PUSH1 0x14 DUP4 PUSH2 0x303A JUMP JUMPDEST SWAP2 POP PUSH2 0x32D5 DUP3 PUSH2 0x3294 JUMP JUMPDEST PUSH1 0x20 DUP3 ADD SWAP1 POP SWAP2 SWAP1 POP JUMP JUMPDEST PUSH1 0x0 PUSH1 0x20 DUP3 ADD SWAP1 POP DUP2 DUP2 SUB PUSH1 0x0 DUP4 ADD MSTORE PUSH2 0x32F9 DUP2 PUSH2 0x32BD JUMP JUMPDEST SWAP1 POP SWAP2 SWAP1 POP JUMP JUMPDEST PUSH32 0x6C6973745F617373657400000000000000000000000000000000000000000000 PUSH1 0x0 DUP3 ADD MSTORE POP JUMP JUMPDEST PUSH1 0x0 PUSH2 0x3336 PUSH1 0xA DUP4 PUSH2 0x303A JUMP JUMPDEST SWAP2 POP PUSH2 0x3341 DUP3 PUSH2 0x3300 JUMP JUMPDEST PUSH1 0x20 DUP3 ADD SWAP1 POP SWAP2 SWAP1 POP JUMP JUMPDEST PUSH1 0x0 PUSH1 0xC0 DUP3 ADD SWAP1 POP PUSH2 0x3361 PUSH1 0x0 DUP4 ADD DUP9 PUSH2 0x2D9B JUMP JUMPDEST PUSH2 0x336E PUSH1 0x20 DUP4 ADD DUP8 PUSH2 0x2F4E JUMP JUMPDEST PUSH2 0x337B PUSH1 0x40 DUP4 ADD DUP7 PUSH2 0x2C45 JUMP JUMPDEST PUSH2 0x3388 PUSH1 0x60 DUP4 ADD DUP6 PUSH2 0x2C45 JUMP JUMPDEST PUSH2 0x3395 PUSH1 0x80 DUP4 ADD DUP5 PUSH2 0x2C45 JUMP JUMPDEST DUP2 DUP2 SUB PUSH1 0xA0 DUP4 ADD MSTORE PUSH2 0x33A6 DUP2 PUSH2 0x3329 JUMP JUMPDEST SWAP1 POP SWAP7 SWAP6 POP POP POP POP POP POP JUMP JUMPDEST PUSH1 0x0 PUSH1 0x60 DUP3 ADD SWAP1 POP DUP2 DUP2 SUB PUSH1 0x0 DUP4 ADD MSTORE PUSH2 0x33CC DUP2 DUP7 PUSH2 0x314F JUMP JUMPDEST SWAP1 POP DUP2 DUP2 SUB PUSH1 0x20 DUP4 ADD MSTORE PUSH2 0x33E0 DUP2 DUP6 PUSH2 0x314F JUMP JUMPDEST SWAP1 POP PUSH2 0x33EF PUSH1 0x40 DUP4 ADD DUP5 PUSH2 0x2C45 JUMP JUMPDEST SWAP5 SWAP4 POP POP POP POP JUMP JUMPDEST PUSH32 0x6173736574206E6F74206C697374656400000000000000000000000000000000 PUSH1 0x0 DUP3 ADD MSTORE POP JUMP JUMPDEST PUSH1 0x0 PUSH2 0x342D PUSH1 0x10 DUP4 PUSH2 0x303A JUMP JUMPDEST SWAP2 POP PUSH2 0x3438 DUP3 PUSH2 0x33F7 JUMP JUMPDEST PUSH1 0x20 DUP3 ADD SWAP1 POP SWAP2 SWAP1 POP JUMP JUMPDEST PUSH1 0x0 PUSH1 0x20 DUP3 ADD SWAP1 POP DUP2 DUP2 SUB PUSH1 0x0 DUP4 ADD MSTORE PUSH2 0x345C DUP2 PUSH2 0x3420 JUMP JUMPDEST SWAP1 POP SWAP2 SWAP1 POP JUMP JUMPDEST PUSH32 0x7365745F6465706F7369745F6D6178696D756D00000000000000000000000000 PUSH1 0x0 DUP3 ADD MSTORE POP JUMP JUMPDEST PUSH1 0x0 PUSH2 0x3499 PUSH1 0x13 DUP4 PUSH2 0x303A JUMP JUMPDEST SWAP2 POP PUSH2 0x34A4 DUP3 PUSH2 0x3463 JUMP JUMPDEST PUSH1 0x20 DUP3 ADD SWAP1 POP SWAP2 SWAP1 POP JUMP JUMPDEST PUSH1 0x0 PUSH1 0x80 DUP3 ADD SWAP1 POP PUSH2 0x34C4 PUSH1 0x0 DUP4 ADD DUP7 PUSH2 0x2D9B JUMP JUMPDEST PUSH2 0x34D1 PUSH1 0x20 DUP4 ADD DUP6 PUSH2 0x2C45 JUMP JUMPDEST PUSH2 0x34DE PUSH1 0x40 DUP4 ADD DUP5 PUSH2 0x2C45 JUMP JUMPDEST DUP2 DUP2 SUB PUSH1 0x60 DUP4 ADD MSTORE PUSH2 0x34EF DUP2 PUSH2 0x348C JUMP JUMPDEST SWAP1 POP SWAP5 SWAP4 POP POP POP POP JUMP JUMPDEST PUSH1 0x0 PUSH1 0x40 DUP3 ADD SWAP1 POP PUSH2 0x350E PUSH1 0x0 DUP4 ADD DUP6 PUSH2 0x2C45 JUMP JUMPDEST PUSH2 0x351B PUSH1 0x20 DUP4 ADD DUP5 PUSH2 0x2C45 JUMP JUMPDEST SWAP4 SWAP3 POP POP POP JUMP JUMPDEST PUSH32 0x7365745F6465706F7369745F6D696E696D756D00000000000000000000000000 PUSH1 0x0 DUP3 ADD MSTORE POP JUMP JUMPDEST PUSH1 0x0 PUSH2 0x3558 PUSH1 0x13 DUP4 PUSH2 0x303A JUMP JUMPDEST SWAP2 POP PUSH2 0x3563 DUP3 PUSH2 0x3522 JUMP JUMPDEST PUSH1 0x20 DUP3 ADD SWAP1 POP SWAP2 SWAP1 POP JUMP JUMPDEST PUSH1 0x0 PUSH1 0x80 DUP3 ADD SWAP1 POP PUSH2 0x3583 PUSH1 0x0 DUP4 ADD DUP7 PUSH2 0x2D9B JUMP JUMPDEST PUSH2 0x3590 PUSH1 0x20 DUP4 ADD DUP6 PUSH2 0x2C45 JUMP JUMPDEST PUSH2 0x359D PUSH1 0x40 DUP4 ADD DUP5 PUSH2 0x2C45 JUMP JUMPDEST DUP2 DUP2 SUB PUSH1 0x60 DUP4 ADD MSTORE PUSH2 0x35AE DUP2 PUSH2 0x354B JUMP JUMPDEST SWAP1 POP SWAP5 SWAP4 POP POP POP POP JUMP JUMPDEST PUSH32 0x6272696467652073746F70706564000000000000000000000000000000000000 PUSH1 0x0 DUP3 ADD MSTORE POP JUMP JUMPDEST PUSH1 0x0 PUSH2 0x35EE PUSH1 0xE DUP4 PUSH2 0x303A JUMP JUMPDEST SWAP2 POP PUSH2 0x35F9 DUP3 PUSH2 0x35B8 JUMP JUMPDEST PUSH1 0x20 DUP3 ADD SWAP1 POP SWAP2 SWAP1 POP JUMP JUMPDEST PUSH1 0x0 PUSH1 0x20 DUP3 ADD SWAP1 POP DUP2 DUP2 SUB PUSH1 0x0 DUP4 ADD MSTORE PUSH2 0x361D DUP2 PUSH2 0x35E1 JUMP JUMPDEST SWAP1 POP SWAP2 SWAP1 POP JUMP JUMPDEST PUSH32 0x4E487B7100000000000000000000000000000000000000000000000000000000 PUSH1 0x0 MSTORE PUSH1 0x11 PUSH1 0x4 MSTORE PUSH1 0x24 PUSH1 0x0 REVERT JUMPDEST PUSH1 0x0 PUSH2 0x365E DUP3 PUSH2 0x28B3 JUMP JUMPDEST SWAP2 POP PUSH2 0x3669 DUP4 PUSH2 0x28B3 JUMP JUMPDEST SWAP3 POP DUP3 PUSH32 0xFFFFFFFFFFFFFFFFFFFFFFFFFFFFFFFFFFFFFFFFFFFFFFFFFFFFFFFFFFFFFFFF SUB DUP3 GT ISZERO PUSH2 0x369E JUMPI PUSH2 0x369D PUSH2 0x3624 JUMP JUMPDEST JUMPDEST DUP3 DUP3 ADD SWAP1 POP SWAP3 SWAP2 POP POP JUMP JUMPDEST PUSH32 0x6C61726765207769746864726177206973206E6F74206F6C6420656E6F756768 PUSH1 0x0 DUP3 ADD MSTORE POP JUMP JUMPDEST PUSH1 0x0 PUSH2 0x36DF PUSH1 0x20 DUP4 PUSH2 0x303A JUMP JUMPDEST SWAP2 POP PUSH2 0x36EA DUP3 PUSH2 0x36A9 JUMP JUMPDEST PUSH1 0x20 DUP3 ADD SWAP1 POP SWAP2 SWAP1 POP JUMP JUMPDEST PUSH1 0x0 PUSH1 0x20 DUP3 ADD SWAP1 POP DUP2 DUP2 SUB PUSH1 0x0 DUP4 ADD MSTORE PUSH2 0x370E DUP2 PUSH2 0x36D2 JUMP JUMPDEST SWAP1 POP SWAP2 SWAP1 POP JUMP JUMPDEST PUSH32 0x77697468647261775F6173736574000000000000000000000000000000000000 PUSH1 0x0 DUP3 ADD MSTORE POP JUMP JUMPDEST PUSH1 0x0 PUSH2 0x374B PUSH1 0xE DUP4 PUSH2 0x303A JUMP JUMPDEST SWAP2 POP PUSH2 0x3756 DUP3 PUSH2 0x3715 JUMP JUMPDEST PUSH1 0x20 DUP3 ADD SWAP1 POP SWAP2 SWAP1 POP JUMP JUMPDEST PUSH1 0x0 PUSH1 0xC0 DUP3 ADD SWAP1 POP PUSH2 0x3776 PUSH1 0x0 DUP4 ADD DUP9 PUSH2 0x2D9B JUMP JUMPDEST PUSH2 0x3783 PUSH1 0x20 DUP4 ADD DUP8 PUSH2 0x2C45 JUMP JUMPDEST PUSH2 0x3790 PUSH1 0x40 DUP4 ADD DUP7 PUSH2 0x2D9B JUMP JUMPDEST PUSH2 0x379D PUSH1 0x60 DUP4 ADD DUP6 PUSH2 0x2C45 JUMP JUMPDEST PUSH2 0x37AA PUSH1 0x80 DUP4 ADD DUP5 PUSH2 0x2C45 JUMP JUMPDEST DUP2 DUP2 SUB PUSH1 0xA0 DUP4 ADD MSTORE PUSH2 0x37BB DUP2 PUSH2 0x373E JUMP JUMPDEST SWAP1 POP SWAP7 SWAP6 POP POP POP POP POP POP JUMP JUMPDEST PUSH1 0x0 PUSH1 0x60 DUP3 ADD SWAP1 POP PUSH2 0x37DC PUSH1 0x0 DUP4 ADD DUP7 PUSH2 0x2D9B JUMP JUMPDEST PUSH2 0x37E9 PUSH1 0x20 DUP4 ADD DUP6 PUSH2 0x2D9B JUMP JUMPDEST PUSH2 0x37F6 PUSH1 0x40 DUP4 ADD DUP5 PUSH2 0x2C45 JUMP JUMPDEST SWAP5 SWAP4 POP POP POP POP JUMP JUMPDEST PUSH32 0x746F6B656E206469646E2774207472616E736665722C2072656A656374656420 PUSH1 0x0 DUP3 ADD MSTORE PUSH32 0x627920617373657420706F6F6C2E000000000000000000000000000000000000 PUSH1 0x20 DUP3 ADD MSTORE POP JUMP JUMPDEST PUSH1 0x0 PUSH2 0x385A PUSH1 0x2E DUP4 PUSH2 0x303A JUMP JUMPDEST SWAP2 POP PUSH2 0x3865 DUP3 PUSH2 0x37FE JUMP JUMPDEST PUSH1 0x40 DUP3 ADD SWAP1 POP SWAP2 SWAP1 POP JUMP JUMPDEST PUSH1 0x0 PUSH1 0x20 DUP3 ADD SWAP1 POP DUP2 DUP2 SUB PUSH1 0x0 DUP4 ADD MSTORE PUSH2 0x3889 DUP2 PUSH2 0x384D JUMP JUMPDEST SWAP1 POP SWAP2 SWAP1 POP JUMP JUMPDEST PUSH32 0x756E617574686F72697A6564206578656D7074696F6E206C6973746572000000 PUSH1 0x0 DUP3 ADD MSTORE POP JUMP JUMPDEST PUSH1 0x0 PUSH2 0x38C6 PUSH1 0x1D DUP4 PUSH2 0x303A JUMP JUMPDEST SWAP2 POP PUSH2 0x38D1 DUP3 PUSH2 0x3890 JUMP JUMPDEST PUSH1 0x20 DUP3 ADD SWAP1 POP SWAP2 SWAP1 POP JUMP JUMPDEST PUSH1 0x0 PUSH1 0x20 DUP3 ADD SWAP1 POP DUP2 DUP2 SUB PUSH1 0x0 DUP4 ADD MSTORE PUSH2 0x38F5 DUP2 PUSH2 0x38B9 JUMP JUMPDEST SWAP1 POP SWAP2 SWAP1 POP JUMP JUMPDEST PUSH32 0x6465706F7369746F72206E6F74206578656D7074000000000000000000000000 PUSH1 0x0 DUP3 ADD MSTORE POP JUMP JUMPDEST PUSH1 0x0 PUSH2 0x3932 PUSH1 0x14 DUP4 PUSH2 0x303A JUMP JUMPDEST SWAP2 POP PUSH2 0x393D DUP3 PUSH2 0x38FC JUMP JUMPDEST PUSH1 0x20 DUP3 ADD SWAP1 POP SWAP2 SWAP1 POP JUMP JUMPDEST PUSH1 0x0 PUSH1 0x20 DUP3 ADD SWAP1 POP DUP2 DUP2 SUB PUSH1 0x0 DUP4 ADD MSTORE PUSH2 0x3961 DUP2 PUSH2 0x3925 JUMP JUMPDEST SWAP1 POP SWAP2 SWAP1 POP JUMP JUMPDEST PUSH32 0x7365745F77697468647261775F64656C61790000000000000000000000000000 PUSH1 0x0 DUP3 ADD MSTORE POP JUMP JUMPDEST PUSH1 0x0 PUSH2 0x399E PUSH1 0x12 DUP4 PUSH2 0x303A JUMP JUMPDEST SWAP2 POP PUSH2 0x39A9 DUP3 PUSH2 0x3968 JUMP JUMPDEST PUSH1 0x20 DUP3 ADD SWAP1 POP SWAP2 SWAP1 POP JUMP JUMPDEST PUSH1 0x0 PUSH1 0x60 DUP3 ADD SWAP1 POP PUSH2 0x39C9 PUSH1 0x0 DUP4 ADD DUP6 PUSH2 0x2C45 JUMP JUMPDEST PUSH2 0x39D6 PUSH1 0x20 DUP4 ADD DUP5 PUSH2 0x2C45 JUMP JUMPDEST DUP2 DUP2 SUB PUSH1 0x40 DUP4 ADD MSTORE PUSH2 0x39E7 DUP2 PUSH2 0x3991 JUMP JUMPDEST SWAP1 POP SWAP4 SWAP3 POP POP POP JUMP JUMPDEST PUSH32 0x7365745F6C69666574696D655F6465706F7369745F6D61780000000000000000 PUSH1 0x0 DUP3 ADD MSTORE POP JUMP JUMPDEST PUSH1 0x0 PUSH2 0x3A26 PUSH1 0x18 DUP4 PUSH2 0x303A JUMP JUMPDEST SWAP2 POP PUSH2 0x3A31 DUP3 PUSH2 0x39F0 JUMP JUMPDEST PUSH1 0x20 DUP3 ADD SWAP1 POP SWAP2 SWAP1 POP JUMP JUMPDEST PUSH1 0x0 PUSH1 0x80 DUP3 ADD SWAP1 POP PUSH2 0x3A51 PUSH1 0x0 DUP4 ADD DUP7 PUSH2 0x2D9B JUMP JUMPDEST PUSH2 0x3A5E PUSH1 0x20 DUP4 ADD DUP6 PUSH2 0x2C45 JUMP JUMPDEST PUSH2 0x3A6B PUSH1 0x40 DUP4 ADD DUP5 PUSH2 0x2C45 JUMP JUMPDEST DUP2 DUP2 SUB PUSH1 0x60 DUP4 ADD MSTORE PUSH2 0x3A7C DUP2 PUSH2 0x3A19 JUMP JUMPDEST SWAP1 POP SWAP5 SWAP4 POP POP POP POP JUMP JUMPDEST PUSH32 0x63616E6E6F74206578656D7074207A65726F2061646472657373000000000000 PUSH1 0x0 DUP3 ADD MSTORE POP JUMP JUMPDEST PUSH1 0x0 PUSH2 0x3ABC PUSH1 0x1A DUP4 PUSH2 0x303A JUMP JUMPDEST SWAP2 POP PUSH2 0x3AC7 DUP3 PUSH2 0x3A86 JUMP JUMPDEST PUSH1 0x20 DUP3 ADD SWAP1 POP SWAP2 SWAP1 POP JUMP JUMPDEST PUSH1 0x0 PUSH1 0x20 DUP3 ADD SWAP1 POP DUP2 DUP2 SUB PUSH1 0x0 DUP4 ADD MSTORE PUSH2 0x3AEB DUP2 PUSH2 0x3AAF JUMP JUMPDEST SWAP1 POP SWAP2 SWAP1 POP JUMP JUMPDEST PUSH32 0x6465706F7369746F7220616C7265616479206578656D70740000000000000000 PUSH1 0x0 DUP3 ADD MSTORE POP JUMP JUMPDEST PUSH1 0x0 PUSH2 0x3B28 PUSH1 0x18 DUP4 PUSH2 0x303A JUMP JUMPDEST SWAP2 POP PUSH2 0x3B33 DUP3 PUSH2 0x3AF2 JUMP JUMPDEST PUSH1 0x20 DUP3 ADD SWAP1 POP SWAP2 SWAP1 POP JUMP JUMPDEST PUSH1 0x0 PUSH1 0x20 DUP3 ADD SWAP1 POP DUP2 DUP2 SUB PUSH1 0x0 DUP4 ADD MSTORE PUSH2 0x3B57 DUP2 PUSH2 0x3B1B JUMP JUMPDEST SWAP1 POP SWAP2 SWAP1 POP JUMP JUMPDEST PUSH32 0x7365745F77697468647261775F7468726573686F6C6400000000000000000000 PUSH1 0x0 DUP3 ADD MSTORE POP JUMP JUMPDEST PUSH1 0x0 PUSH2 0x3B94 PUSH1 0x16 DUP4 PUSH2 0x303A JUMP JUMPDEST SWAP2 POP PUSH2 0x3B9F DUP3 PUSH2 0x3B5E JUMP JUMPDEST PUSH1 0x20 DUP3 ADD SWAP1 POP SWAP2 SWAP1 POP JUMP JUMPDEST PUSH1 0x0 PUSH1 0x80 DUP3 ADD SWAP1 POP PUSH2 0x3BBF PUSH1 0x0 DUP4 ADD DUP7 PUSH2 0x2D9B JUMP JUMPDEST PUSH2 0x3BCC PUSH1 0x20 DUP4 ADD DUP6 PUSH2 0x2C45 JUMP JUMPDEST PUSH2 0x3BD9 PUSH1 0x40 DUP4 ADD DUP5 PUSH2 0x2C45 JUMP JUMPDEST DUP2 DUP2 SUB PUSH1 0x60 DUP4 ADD MSTORE PUSH2 0x3BEA DUP2 PUSH2 0x3B87 JUMP JUMPDEST SWAP1 POP SWAP5 SWAP4 POP POP POP POP JUMP JUMPDEST PUSH32 0x62726964676520616C72656164792073746F7070656400000000000000000000 PUSH1 0x0 DUP3 ADD MSTORE POP JUMP JUMPDEST PUSH1 0x0 PUSH2 0x3C2A PUSH1 0x16 DUP4 PUSH2 0x303A JUMP JUMPDEST SWAP2 POP PUSH2 0x3C35 DUP3 PUSH2 0x3BF4 JUMP JUMPDEST PUSH1 0x20 DUP3 ADD SWAP1 POP SWAP2 SWAP1 POP JUMP JUMPDEST PUSH1 0x0 PUSH1 0x20 DUP3 ADD SWAP1 POP DUP2 DUP2 SUB PUSH1 0x0 DUP4 ADD MSTORE PUSH2 0x3C59 DUP2 PUSH2 0x3C1D JUMP JUMPDEST SWAP1 POP SWAP2 SWAP1 POP JUMP JUMPDEST PUSH32 0x676C6F62616C5F73746F70000000000000000000000000000000000000000000 PUSH1 0x0 DUP3 ADD MSTORE POP JUMP JUMPDEST PUSH1 0x0 PUSH2 0x3C96 PUSH1 0xB DUP4 PUSH2 0x303A JUMP JUMPDEST SWAP2 POP PUSH2 0x3CA1 DUP3 PUSH2 0x3C60 JUMP JUMPDEST PUSH1 0x20 DUP3 ADD SWAP1 POP SWAP2 SWAP1 POP JUMP JUMPDEST PUSH1 0x0 PUSH1 0x40 DUP3 ADD SWAP1 POP PUSH2 0x3CC1 PUSH1 0x0 DUP4 ADD DUP5 PUSH2 0x2C45 JUMP JUMPDEST DUP2 DUP2 SUB PUSH1 0x20 DUP4 ADD MSTORE PUSH2 0x3CD2 DUP2 PUSH2 0x3C89 JUMP JUMPDEST SWAP1 POP SWAP3 SWAP2 POP POP JUMP JUMPDEST PUSH32 0x72656D6F76655F61737365740000000000000000000000000000000000000000 PUSH1 0x0 DUP3 ADD MSTORE POP JUMP JUMPDEST PUSH1 0x0 PUSH2 0x3D10 PUSH1 0xC DUP4 PUSH2 0x303A JUMP JUMPDEST SWAP2 POP PUSH2 0x3D1B DUP3 PUSH2 0x3CDA JUMP JUMPDEST PUSH1 0x20 DUP3 ADD SWAP1 POP SWAP2 SWAP1 POP JUMP JUMPDEST PUSH1 0x0 PUSH1 0x60 DUP3 ADD SWAP1 POP PUSH2 0x3D3B PUSH1 0x0 DUP4 ADD DUP6 PUSH2 0x2D9B JUMP JUMPDEST PUSH2 0x3D48 PUSH1 0x20 DUP4 ADD DUP5 PUSH2 0x2C45 JUMP JUMPDEST DUP2 DUP2 SUB PUSH1 0x40 DUP4 ADD MSTORE PUSH2 0x3D59 DUP2 PUSH2 0x3D03 JUMP JUMPDEST SWAP1 POP SWAP4 SWAP3 POP POP POP JUMP JUMPDEST PUSH32 0x627269646765206E6F742073746F707065640000000000000000000000000000 PUSH1 0x0 DUP3 ADD MSTORE POP JUMP JUMPDEST PUSH1 0x0 PUSH2 0x3D98 PUSH1 0x12 DUP4 PUSH2 0x303A JUMP JUMPDEST SWAP2 POP PUSH2 0x3DA3 DUP3 PUSH2 0x3D62 JUMP JUMPDEST PUSH1 0x20 DUP3 ADD SWAP1 POP SWAP2 SWAP1 POP JUMP JUMPDEST PUSH1 0x0 PUSH1 0x20 DUP3 ADD SWAP1 POP DUP2 DUP2 SUB PUSH1 0x0 DUP4 ADD MSTORE PUSH2 0x3DC7 DUP2 PUSH2 0x3D8B JUMP JUMPDEST SWAP1 POP SWAP2 SWAP1 POP JUMP JUMPDEST PUSH32 0x676C6F62616C5F726573756D6500000000000000000000000000000000000000 PUSH1 0x0 DUP3 ADD MSTORE POP JUMP JUMPDEST PUSH1 0x0 PUSH2 0x3E04 PUSH1 0xD DUP4 PUSH2 0x303A JUMP JUMPDEST SWAP2 POP PUSH2 0x3E0F DUP3 PUSH2 0x3DCE JUMP JUMPDEST PUSH1 0x20 DUP3 ADD SWAP1 POP SWAP2 SWAP1 POP JUMP JUMPDEST PUSH1 0x0 PUSH1 0x40 DUP3 ADD SWAP1 POP PUSH2 0x3E2F PUSH1 0x0 DUP4 ADD DUP5 PUSH2 0x2C45 JUMP JUMPDEST DUP2 DUP2 SUB PUSH1 0x20 DUP4 ADD MSTORE PUSH2 0x3E40 DUP2 PUSH2 0x3DF7 JUMP JUMPDEST SWAP1 POP SWAP3 SWAP2 POP POP JUMP JUMPDEST PUSH32 0x6465706F736974206F766572206C69666574696D65206C696D69740000000000 PUSH1 0x0 DUP3 ADD MSTORE POP JUMP JUMPDEST PUSH1 0x0 PUSH2 0x3E7E PUSH1 0x1B DUP4 PUSH2 0x303A JUMP JUMPDEST SWAP2 POP PUSH2 0x3E89 DUP3 PUSH2 0x3E48 JUMP JUMPDEST PUSH1 0x20 DUP3 ADD SWAP1 POP SWAP2 SWAP1 POP JUMP JUMPDEST PUSH1 0x0 PUSH1 0x20 DUP3 ADD SWAP1 POP DUP2 DUP2 SUB PUSH1 0x0 DUP4 ADD MSTORE PUSH2 0x3EAD DUP2 PUSH2 0x3E71 JUMP JUMPDEST SWAP1 POP SWAP2 SWAP1 POP JUMP JUMPDEST PUSH32 0x6465706F7369742061626F7665206D6178696D756D0000000000000000000000 PUSH1 0x0 DUP3 ADD MSTORE POP JUMP JUMPDEST PUSH1 0x0 PUSH2 0x3EEA PUSH1 0x15 DUP4 PUSH2 0x303A JUMP JUMPDEST SWAP2 POP PUSH2 0x3EF5 DUP3 PUSH2 0x3EB4 JUMP JUMPDEST PUSH1 0x20 DUP3 ADD SWAP1 POP SWAP2 SWAP1 POP JUMP JUMPDEST PUSH1 0x0 PUSH1 0x20 DUP3 ADD SWAP1 POP DUP2 DUP2 SUB PUSH1 0x0 DUP4 ADD MSTORE PUSH2 0x3F19 DUP2 PUSH2 0x3EDD JUMP JUMPDEST SWAP1 POP SWAP2 SWAP1 POP JUMP JUMPDEST PUSH32 0x6465706F7369742062656C6F77206D696E696D756D0000000000000000000000 PUSH1 0x0 DUP3 ADD MSTORE POP JUMP JUMPDEST PUSH1 0x0 PUSH2 0x3F56 PUSH1 0x15 DUP4 PUSH2 0x303A JUMP JUMPDEST SWAP2 POP PUSH2 0x3F61 DUP3 PUSH2 0x3F20 JUMP JUMPDEST PUSH1 0x20 DUP3 ADD SWAP1 POP SWAP2 SWAP1 POP JUMP JUMPDEST PUSH1 0x0 PUSH1 0x20 DUP3 ADD SWAP1 POP DUP2 DUP2 SUB PUSH1 0x0 DUP4 ADD MSTORE PUSH2 0x3F85 DUP2 PUSH2 0x3F49 JUMP JUMPDEST SWAP1 POP SWAP2 SWAP1 POP JUMP JUMPDEST PUSH1 0x0 DUP2 SWAP1 POP SWAP2 SWAP1 POP JUMP JUMPDEST PUSH1 0x0 PUSH2 0x3FB1 PUSH2 0x3FAC PUSH2 0x3FA7 DUP5 PUSH2 0x2855 JUMP JUMPDEST PUSH2 0x3F8C JUMP JUMPDEST PUSH2 0x2855 JUMP JUMPDEST SWAP1 POP SWAP2 SWAP1 POP JUMP JUMPDEST PUSH1 0x0 PUSH2 0x3FC3 DUP3 PUSH2 0x3F96 JUMP JUMPDEST SWAP1 POP SWAP2 SWAP1 POP JUMP JUMPDEST PUSH1 0x0 PUSH2 0x3FD5 DUP3 PUSH2 0x3FB8 JUMP JUMPDEST SWAP1 POP SWAP2 SWAP1 POP JUMP JUMPDEST PUSH2 0x3FE5 DUP2 PUSH2 0x3FCA JUMP JUMPDEST DUP3 MSTORE POP POP JUMP JUMPDEST PUSH1 0x0 PUSH1 0x60 DUP3 ADD SWAP1 POP PUSH2 0x4000 PUSH1 0x0 DUP4 ADD DUP7 PUSH2 0x2D9B JUMP JUMPDEST PUSH2 0x400D PUSH1 0x20 DUP4 ADD DUP6 PUSH2 0x3FDC JUMP JUMPDEST PUSH2 0x401A PUSH1 0x40 DUP4 ADD DUP5 PUSH2 0x2C45 JUMP JUMPDEST SWAP5 SWAP4 POP POP POP POP JUMP JUMPDEST PUSH32 0x7472616E73666572206661696C656420696E206465706F736974000000000000 PUSH1 0x0 DUP3 ADD MSTORE POP JUMP JUMPDEST PUSH1 0x0 PUSH2 0x4058 PUSH1 0x1A DUP4 PUSH2 0x303A JUMP JUMPDEST SWAP2 POP PUSH2 0x4063 DUP3 PUSH2 0x4022 JUMP JUMPDEST PUSH1 0x20 DUP3 ADD SWAP1 POP SWAP2 SWAP1 POP JUMP JUMPDEST PUSH1 0x0 PUSH1 0x20 DUP3 ADD SWAP1 POP DUP2 DUP2 SUB PUSH1 0x0 DUP4 ADD MSTORE PUSH2 0x4087 DUP2 PUSH2 0x404B JUMP JUMPDEST SWAP1 POP SWAP2 SWAP1 POP JUMP JUMPDEST PUSH1 0x0 PUSH1 0x40 DUP3 ADD SWAP1 POP PUSH2 0x40A3 PUSH1 0x0 DUP4 ADD DUP6 PUSH2 0x2C45 JUMP JUMPDEST PUSH2 0x40B0 PUSH1 0x20 DUP4 ADD DUP5 PUSH2 0x2F4E JUMP JUMPDEST SWAP4 SWAP3 POP POP POP JUMP INVALID LOG2 PUSH5 0x6970667358 0x22 SLT KECCAK256 0xAC 0xB2 0x2A POP 0xDF 0xC9 0xDF GASLIMIT POP CALLDATALOAD 0xED 0xE6 0xE6 PUSH10 0x7C6AE7AAB3B64F79F53 0xD8 ISZERO GASLIMIT 0xFB DUP3 0xEE 0x5D TIMESTAMP PUSH5 0x736F6C6343 STOP ADDMOD ADDMOD STOP CALLER "},"methodIdentifiers":{"default_withdraw_delay()":"3f4f199d","deposit_asset(address,uint256,bytes32)":"f7683932","exempt_depositor(address)":"83d81590","get_asset_deposit_limit(address)":"41fcef9f","get_asset_source(bytes32)":"786b0bc0","get_deposit_maximum(address)":"1d501b5d","get_deposit_minimum(address)":"4322b1f2","get_exemption_lister()":"3d5bcf68","get_multisig_control_address()":"c58dc3b9","get_vega_asset_id(address)":"a06b5d39","get_withdraw_threshold(address)":"e8a7bce0","global_resume(uint256,bytes)":"d72ed529","global_stop(uint256,bytes)":"9dfd3c88","is_asset_listed(address)":"7fd27b7f","is_exempt_depositor(address)":"15c0df9d","is_stopped()":"e272e9d0","list_asset(address,bytes32,uint256,uint256,uint256,bytes)":"0ff3562c","remove_asset(address,uint256,bytes)":"c76de358","revoke_exempt_depositor(address)":"45932026","set_deposit_maximum(address,uint256,uint256,bytes)":"292463b1","set_deposit_minimum(address,uint256,uint256,bytes)":"3882b3da","set_exemption_lister(address,uint256,bytes)":"049315e2","set_lifetime_deposit_max(address,uint256,uint256,bytes)":"7aba7ee8","set_withdraw_delay(uint256,uint256,bytes)":"5a246728","set_withdraw_threshold(address,uint256,uint256,bytes)":"86175569","withdraw_asset(address,uint256,address,uint256,uint256,bytes)":"3ad90635"}}}}}