{"contracts/ERC20_Asset_Pool.sol":{"ERC20_Asset_Pool":{"abi":[{"inputs":[{"internalType":"address","name":"multisig_control","type":"address"}],"stateMutability":"nonpayable","type":"constructor"},{"anonymous":false,"inputs":[{"indexed":true,"internalType":"address","name":"new_address","type":"address"}],"name":"Bridge_Address_Set","type":"event"},{"anonymous":false,"inputs":[{"indexed":true,"internalType":"address","name":"new_address","type":"address"}],"name":"Multisig_Control_Set","type":"event"},{"inputs":[],"name":"erc20_bridge_address","outputs":[{"internalType":"address","name":"","type":"address"}],"stateMutability":"view","type":"function"},{"inputs":[],"name":"multisig_control_address","outputs":[{"internalType":"address","name":"","type":"address"}],"stateMutability":"view","type":"function"},{"inputs":[{"internalType":"address","name":"new_address","type":"address"},{"internalType":"uint256","name":"nonce","type":"uint256"},{"internalType":"bytes","name":"signatures","type":"bytes"}],"name":"set_bridge_address","outputs":[],"stateMutability":"nonpayable","type":"function"},{"inputs":[{"internalType":"address","name":"new_address","type":"address"},{"internalType":"uint256","name":"nonce","type":"uint256"},{"internalType":"bytes","name":"signatures","type":"bytes"}],"name":"set_multisig_control","outputs":[],"stateMutability":"nonpayable","type":"function"},{"inputs":[{"internalType":"address","name":"token_address","type":"address"},{"internalType":"address","name":"target","type":"address"},{"internalType":"uint256","name":"amount","type":"uint256"}],"name":"withdraw","outputs":[{"internalType":"bool","name":"","type":"bool"}],"stateMutability":"nonpayable","type":"function"},{"stateMutability":"payable","type":"receive"}],"evm":{"bytecode":{"linkReferences":{},"object":"60806040523480156200001157600080fd5b50604051620011313803806200113183398181016040528101906200003791906200012b565b806000806101000a81548173ffffffffffffffffffffffffffffffffffffffff021916908373ffffffffffffffffffffffffffffffffffffffff1602179055508073ffffffffffffffffffffffffffffffffffffffff167f1143e675ad794f5bd81a05b165b166be3a4e91f17d065f08809d88cefbd6540660405160405180910390a2506200015d565b600080fd5b600073ffffffffffffffffffffffffffffffffffffffff82169050919050565b6000620000f382620000c6565b9050919050565b6200010581620000e6565b81146200011157600080fd5b50565b6000815190506200012581620000fa565b92915050565b600060208284031215620001445762000143620000c1565b5b6000620001548482850162000114565b91505092915050565b610fc4806200016d6000396000f3fe60806040526004361061004e5760003560e01c806363bb28e014610093578063aeed8f95146100bc578063b82d5abd146100e5578063d9caed1214610110578063e98dfffd1461014d5761008e565b3661008e576040517f08c379a0000000000000000000000000000000000000000000000000000000008152600401610085906107d4565b60405180910390fd5b600080fd5b34801561009f57600080fd5b506100ba60048036038101906100b591906109e2565b610178565b005b3480156100c857600080fd5b506100e360048036038101906100de91906109e2565b610316565b005b3480156100f157600080fd5b506100fa61056d565b6040516101079190610a60565b60405180910390f35b34801561011c57600080fd5b5061013760048036038101906101329190610a7b565b610591565b6040516101449190610ae9565b60405180910390f35b34801561015957600080fd5b5061016261072b565b60405161016f9190610a60565b60405180910390f35b6000838360405160200161018d929190610b5f565b604051602081830303815290604052905060008054906101000a900473ffffffffffffffffffffffffffffffffffffffff1673ffffffffffffffffffffffffffffffffffffffff1663ba73659a8383866040518463ffffffff1660e01b81526004016101fb93929190610c23565b602060405180830381600087803b15801561021557600080fd5b505af1158015610229573d6000803e3d6000fd5b505050506040513d601f19601f8201168201806040525081019061024d9190610c94565b61028c576040517f08c379a000000000000000000000000000000000000000000000000000000000815260040161028390610d0d565b60405180910390fd5b83600160006101000a81548173ffffffffffffffffffffffffffffffffffffffff021916908373ffffffffffffffffffffffffffffffffffffffff1602179055508373ffffffffffffffffffffffffffffffffffffffff167ff57d83269802e794395bfd99d93c82bf997d03ec73f8d4c607e8ff18b8cc62f260405160405180910390a250505050565b600073ffffffffffffffffffffffffffffffffffffffff168373ffffffffffffffffffffffffffffffffffffffff161415610386576040517f08c379a000000000000000000000000000000000000000000000000000000000815260040161037d90610d79565b60405180910390fd5b6000833b9050600081116103cf576040517f08c379a00000000000000000000000000000000000000000000000000000000081526004016103c690610de5565b60405180910390fd5b600084846040516020016103e4929190610e51565b604051602081830303815290604052905060008054906101000a900473ffffffffffffffffffffffffffffffffffffffff1673ffffffffffffffffffffffffffffffffffffffff1663ba73659a8483876040518463ffffffff1660e01b815260040161045293929190610c23565b602060405180830381600087803b15801561046c57600080fd5b505af1158015610480573d6000803e3d6000fd5b505050506040513d601f19601f820116820180604052508101906104a49190610c94565b6104e3576040517f08c379a00000000000000000000000000000000000000000000000000000000081526004016104da90610d0d565b60405180910390fd5b846000806101000a81548173ffffffffffffffffffffffffffffffffffffffff021916908373ffffffffffffffffffffffffffffffffffffffff1602179055508473ffffffffffffffffffffffffffffffffffffffff167f1143e675ad794f5bd81a05b165b166be3a4e91f17d065f08809d88cefbd6540660405160405180910390a25050505050565b60008054906101000a900473ffffffffffffffffffffffffffffffffffffffff1681565b6000600160009054906101000a900473ffffffffffffffffffffffffffffffffffffffff1673ffffffffffffffffffffffffffffffffffffffff163373ffffffffffffffffffffffffffffffffffffffff1614610623576040517f08c379a000000000000000000000000000000000000000000000000000000000815260040161061a90610ed9565b60405180910390fd5b8373ffffffffffffffffffffffffffffffffffffffff1663a9059cbb84846040518363ffffffff1660e01b815260040161065e929190610ef9565b602060405180830381600087803b15801561067857600080fd5b505af115801561068c573d6000803e3d6000fd5b505050506040513d601f19601f820116820180604052508101906106b09190610c94565b5060003d600081146106c957602081146106d2576106de565b600191506106de565b60206000803e60005191505b508061071f576040517f08c379a000000000000000000000000000000000000000000000000000000000815260040161071690610f6e565b60405180910390fd5b60019150509392505050565b600160009054906101000a900473ffffffffffffffffffffffffffffffffffffffff1681565b600082825260208201905092915050565b7f7468697320636f6e747261637420646f6573206e6f742061636365707420455460008201527f4800000000000000000000000000000000000000000000000000000000000000602082015250565b60006107be602183610751565b91506107c982610762565b604082019050919050565b600060208201905081810360008301526107ed816107b1565b9050919050565b6000604051905090565b600080fd5b600080fd5b600073ffffffffffffffffffffffffffffffffffffffff82169050919050565b600061083382610808565b9050919050565b61084381610828565b811461084e57600080fd5b50565b6000813590506108608161083a565b92915050565b6000819050919050565b61087981610866565b811461088457600080fd5b50565b60008135905061089681610870565b92915050565b600080fd5b600080fd5b6000601f19601f8301169050919050565b7f4e487b7100000000000000000000000000000000000000000000000000000000600052604160045260246000fd5b6108ef826108a6565b810181811067ffffffffffffffff8211171561090e5761090d6108b7565b5b80604052505050565b60006109216107f4565b905061092d82826108e6565b919050565b600067ffffffffffffffff82111561094d5761094c6108b7565b5b610956826108a6565b9050602081019050919050565b82818337600083830152505050565b600061098561098084610932565b610917565b9050828152602081018484840111156109a1576109a06108a1565b5b6109ac848285610963565b509392505050565b600082601f8301126109c9576109c861089c565b5b81356109d9848260208601610972565b91505092915050565b6000806000606084860312156109fb576109fa6107fe565b5b6000610a0986828701610851565b9350506020610a1a86828701610887565b925050604084013567ffffffffffffffff811115610a3b57610a3a610803565b5b610a47868287016109b4565b9150509250925092565b610a5a81610828565b82525050565b6000602082019050610a756000830184610a51565b92915050565b600080600060608486031215610a9457610a936107fe565b5b6000610aa286828701610851565b9350506020610ab386828701610851565b9250506040610ac486828701610887565b9150509250925092565b60008115159050919050565b610ae381610ace565b82525050565b6000602082019050610afe6000830184610ada565b92915050565b610b0d81610866565b82525050565b7f7365745f6272696467655f616464726573730000000000000000000000000000600082015250565b6000610b49601283610751565b9150610b5482610b13565b602082019050919050565b6000606082019050610b746000830185610a51565b610b816020830184610b04565b8181036040830152610b9281610b3c565b90509392505050565b600081519050919050565b600082825260208201905092915050565b60005b83811015610bd5578082015181840152602081019050610bba565b83811115610be4576000848401525b50505050565b6000610bf582610b9b565b610bff8185610ba6565b9350610c0f818560208601610bb7565b610c18816108a6565b840191505092915050565b60006060820190508181036000830152610c3d8186610bea565b90508181036020830152610c518185610bea565b9050610c606040830184610b04565b949350505050565b610c7181610ace565b8114610c7c57600080fd5b50565b600081519050610c8e81610c68565b92915050565b600060208284031215610caa57610ca96107fe565b5b6000610cb884828501610c7f565b91505092915050565b7f626164207369676e617475726573000000000000000000000000000000000000600082015250565b6000610cf7600e83610751565b9150610d0282610cc1565b602082019050919050565b60006020820190508181036000830152610d2681610cea565b9050919050565b7f696e76616c6964204d756c7469736967436f6e74726f6c206164647265737300600082015250565b6000610d63601f83610751565b9150610d6e82610d2d565b602082019050919050565b60006020820190508181036000830152610d9281610d56565b9050919050565b7f6e65772061646472657373206d75737420626520636f6e747261637400000000600082015250565b6000610dcf601c83610751565b9150610dda82610d99565b602082019050919050565b60006020820190508181036000830152610dfe81610dc2565b9050919050565b7f7365745f6d756c74697369675f636f6e74726f6c000000000000000000000000600082015250565b6000610e3b601483610751565b9150610e4682610e05565b602082019050919050565b6000606082019050610e666000830185610a51565b610e736020830184610b04565b8181036040830152610e8481610e2e565b90509392505050565b7f6d73672e73656e646572206e6f7420617574686f72697a656420627269646765600082015250565b6000610ec3602083610751565b9150610ece82610e8d565b602082019050919050565b60006020820190508181036000830152610ef281610eb6565b9050919050565b6000604082019050610f0e6000830185610a51565b610f1b6020830184610b04565b9392505050565b7f746f6b656e207472616e73666572206661696c65640000000000000000000000600082015250565b6000610f58601583610751565b9150610f6382610f22565b602082019050919050565b60006020820190508181036000830152610f8781610f4b565b905091905056fea26469706673582212208d9bb01bda780fa3dbc8f84ed5af5fef4eba863437dd8395bf6833d2658ca17764736f6c63430008080033","opcodes":"PUSH1 0x80 PUSH1 0x40 MSTORE CALLVALUE DUP1 ISZERO PUSH3 0x11 JUMPI PUSH1 0x0 DUP1 REVERT JUMPDEST POP PUSH1 0x40 MLOAD PUSH3 0x1131 CODESIZE SUB DUP1 PUSH3 0x1131 DUP4 CODECOPY DUP2 DUP2 ADD PUSH1 0x40 MSTORE DUP2 ADD SWAP1 PUSH3 0x37 SWAP2 SWAP1 PUSH3 0x12B JUMP JUMPDEST DUP1 PUSH1 0x0 DUP1 PUSH2 0x100 EXP DUP2 SLOAD DUP2 PUSH20 0xFFFFFFFFFFFFFFFFFFFFFFFFFFFFFFFFFFFFFFFF MUL NOT AND SWAP1 DUP4 PUSH20 0xFFFFFFFFFFFFFFFFFFFFFFFFFFFFFFFFFFFFFFFF AND MUL OR SWAP1 SSTORE POP DUP1 PUSH20 0xFFFFFFFFFFFFFFFFFFFFFFFFFFFFFFFFFFFFFFFF AND PUSH32 0x1143E675AD794F5BD81A05B165B166BE3A4E91F17D065F08809D88CEFBD65406 PUSH1 0x40 MLOAD PUSH1 0x40 MLOAD DUP1 SWAP2 SUB SWAP1 LOG2 POP PUSH3 0x15D JUMP JUMPDEST PUSH1 0x0 DUP1 REVERT JUMPDEST PUSH1 0x0 PUSH20 0xFFFFFFFFFFFFFFFFFFFFFFFFFFFFFFFFFFFFFFFF DUP3 AND SWAP1 POP SWAP2 SWAP1 POP JUMP JUMPDEST PUSH1 0x0 PUSH3 0xF3 DUP3 PUSH3 0xC6 JUMP JUMPDEST SWAP1 POP SWAP2 SWAP1 POP JUMP JUMPDEST PUSH3 0x105 DUP2 PUSH3 0xE6 JUMP JUMPDEST DUP2 EQ PUSH3 0x111 JUMPI PUSH1 0x0 DUP1 REVERT JUMPDEST POP JUMP JUMPDEST PUSH1 0x0 DUP2 MLOAD SWAP1 POP PUSH3 0x125 DUP2 PUSH3 0xFA JUMP JUMPDEST SWAP3 SWAP2 POP POP JUMP JUMPDEST PUSH1 0x0 PUSH1 0x20 DUP3 DUP5 SUB SLT ISZERO PUSH3 0x144 JUMPI PUSH3 0x143 PUSH3 0xC1 JUMP JUMPDEST JUMPDEST PUSH1 0x0 PUSH3 0x154 DUP5 DUP3 DUP6 ADD PUSH3 0x114 JUMP JUMPDEST SWAP2 POP POP SWAP3 SWAP2 POP POP JUMP JUMPDEST PUSH2 0xFC4 DUP1 PUSH3 0x16D PUSH1 0x0 CODECOPY PUSH1 0x0 RETURN INVALID PUSH1 0x80 PUSH1 0x40 MSTORE PUSH1 0x4 CALLDATASIZE LT PUSH2 0x4E JUMPI PUSH1 0x0 CALLDATALOAD PUSH1 0xE0 SHR DUP1 PUSH4 0x63BB28E0 EQ PUSH2 0x93 JUMPI DUP1 PUSH4 0xAEED8F95 EQ PUSH2 0xBC JUMPI DUP1 PUSH4 0xB82D5ABD EQ PUSH2 0xE5 JUMPI DUP1 PUSH4 0xD9CAED12 EQ PUSH2 0x110 JUMPI DUP1 PUSH4 0xE98DFFFD EQ PUSH2 0x14D JUMPI PUSH2 0x8E JUMP JUMPDEST CALLDATASIZE PUSH2 0x8E JUMPI PUSH1 0x40 MLOAD PUSH32 0x8C379A000000000000000000000000000000000000000000000000000000000 DUP2 MSTORE PUSH1 0x4 ADD PUSH2 0x85 SWAP1 PUSH2 0x7D4 JUMP JUMPDEST PUSH1 0x40 MLOAD DUP1 SWAP2 SUB SWAP1 REVERT JUMPDEST PUSH1 0x0 DUP1 REVERT JUMPDEST CALLVALUE DUP1 ISZERO PUSH2 0x9F JUMPI PUSH1 0x0 DUP1 REVERT JUMPDEST POP PUSH2 0xBA PUSH1 0x4 DUP1 CALLDATASIZE SUB DUP2 ADD SWAP1 PUSH2 0xB5 SWAP2 SWAP1 PUSH2 0x9E2 JUMP JUMPDEST PUSH2 0x178 JUMP JUMPDEST STOP JUMPDEST CALLVALUE DUP1 ISZERO PUSH2 0xC8 JUMPI PUSH1 0x0 DUP1 REVERT JUMPDEST POP PUSH2 0xE3 PUSH1 0x4 DUP1 CALLDATASIZE SUB DUP2 ADD SWAP1 PUSH2 0xDE SWAP2 SWAP1 PUSH2 0x9E2 JUMP JUMPDEST PUSH2 0x316 JUMP JUMPDEST STOP JUMPDEST CALLVALUE DUP1 ISZERO PUSH2 0xF1 JUMPI PUSH1 0x0 DUP1 REVERT JUMPDEST POP PUSH2 0xFA PUSH2 0x56D JUMP JUMPDEST PUSH1 0x40 MLOAD PUSH2 0x107 SWAP2 SWAP1 PUSH2 0xA60 JUMP JUMPDEST PUSH1 0x40 MLOAD DUP1 SWAP2 SUB SWAP1 RETURN JUMPDEST CALLVALUE DUP1 ISZERO PUSH2 0x11C JUMPI PUSH1 0x0 DUP1 REVERT JUMPDEST POP PUSH2 0x137 PUSH1 0x4 DUP1 CALLDATASIZE SUB DUP2 ADD SWAP1 PUSH2 0x132 SWAP2 SWAP1 PUSH2 0xA7B JUMP JUMPDEST PUSH2 0x591 JUMP JUMPDEST PUSH1 0x40 MLOAD PUSH2 0x144 SWAP2 SWAP1 PUSH2 0xAE9 JUMP JUMPDEST PUSH1 0x40 MLOAD DUP1 SWAP2 SUB SWAP1 RETURN JUMPDEST CALLVALUE DUP1 ISZERO PUSH2 0x159 JUMPI PUSH1 0x0 DUP1 REVERT JUMPDEST POP PUSH2 0x162 PUSH2 0x72B JUMP JUMPDEST PUSH1 0x40 MLOAD PUSH2 0x16F SWAP2 SWAP1 PUSH2 0xA60 JUMP JUMPDEST PUSH1 0x40 MLOAD DUP1 SWAP2 SUB SWAP1 RETURN JUMPDEST PUSH1 0x0 DUP4 DUP4 PUSH1 0x40 MLOAD PUSH1 0x20 ADD PUSH2 0x18D SWAP3 SWAP2 SWAP1 PUSH2 0xB5F JUMP JUMPDEST PUSH1 0x40 MLOAD PUSH1 0x20 DUP2 DUP4 SUB SUB DUP2 MSTORE SWAP1 PUSH1 0x40 MSTORE SWAP1 POP PUSH1 0x0 DUP1 SLOAD SWAP1 PUSH2 0x100 EXP SWAP1 DIV PUSH20 0xFFFFFFFFFFFFFFFFFFFFFFFFFFFFFFFFFFFFFFFF AND PUSH20 0xFFFFFFFFFFFFFFFFFFFFFFFFFFFFFFFFFFFFFFFF AND PUSH4 0xBA73659A DUP4 DUP4 DUP7 PUSH1 0x40 MLOAD DUP5 PUSH4 0xFFFFFFFF AND PUSH1 0xE0 SHL DUP2 MSTORE PUSH1 0x4 ADD PUSH2 0x1FB SWAP4 SWAP3 SWAP2 SWAP1 PUSH2 0xC23 JUMP JUMPDEST PUSH1 0x20 PUSH1 0x40 MLOAD DUP1 DUP4 SUB DUP2 PUSH1 0x0 DUP8 DUP1 EXTCODESIZE ISZERO DUP1 ISZERO PUSH2 0x215 JUMPI PUSH1 0x0 DUP1 REVERT JUMPDEST POP GAS CALL ISZERO DUP1 ISZERO PUSH2 0x229 JUMPI RETURNDATASIZE PUSH1 0x0 DUP1 RETURNDATACOPY RETURNDATASIZE PUSH1 0x0 REVERT JUMPDEST POP POP POP POP PUSH1 0x40 MLOAD RETURNDATASIZE PUSH1 0x1F NOT PUSH1 0x1F DUP3 ADD AND DUP3 ADD DUP1 PUSH1 0x40 MSTORE POP DUP2 ADD SWAP1 PUSH2 0x24D SWAP2 SWAP1 PUSH2 0xC94 JUMP JUMPDEST PUSH2 0x28C JUMPI PUSH1 0x40 MLOAD PUSH32 0x8C379A000000000000000000000000000000000000000000000000000000000 DUP2 MSTORE PUSH1 0x4 ADD PUSH2 0x283 SWAP1 PUSH2 0xD0D JUMP JUMPDEST PUSH1 0x40 MLOAD DUP1 SWAP2 SUB SWAP1 REVERT JUMPDEST DUP4 PUSH1 0x1 PUSH1 0x0 PUSH2 0x100 EXP DUP2 SLOAD DUP2 PUSH20 0xFFFFFFFFFFFFFFFFFFFFFFFFFFFFFFFFFFFFFFFF MUL NOT AND SWAP1 DUP4 PUSH20 0xFFFFFFFFFFFFFFFFFFFFFFFFFFFFFFFFFFFFFFFF AND MUL OR SWAP1 SSTORE POP DUP4 PUSH20 0xFFFFFFFFFFFFFFFFFFFFFFFFFFFFFFFFFFFFFFFF AND PUSH32 0xF57D83269802E794395BFD99D93C82BF997D03EC73F8D4C607E8FF18B8CC62F2 PUSH1 0x40 MLOAD PUSH1 0x40 MLOAD DUP1 SWAP2 SUB SWAP1 LOG2 POP POP POP POP JUMP JUMPDEST PUSH1 0x0 PUSH20 0xFFFFFFFFFFFFFFFFFFFFFFFFFFFFFFFFFFFFFFFF AND DUP4 PUSH20 0xFFFFFFFFFFFFFFFFFFFFFFFFFFFFFFFFFFFFFFFF AND EQ ISZERO PUSH2 0x386 JUMPI PUSH1 0x40 MLOAD PUSH32 0x8C379A000000000000000000000000000000000000000000000000000000000 DUP2 MSTORE PUSH1 0x4 ADD PUSH2 0x37D SWAP1 PUSH2 0xD79 JUMP JUMPDEST PUSH1 0x40 MLOAD DUP1 SWAP2 SUB SWAP1 REVERT JUMPDEST PUSH1 0x0 DUP4 EXTCODESIZE SWAP1 POP PUSH1 0x0 DUP2 GT PUSH2 0x3CF JUMPI PUSH1 0x40 MLOAD PUSH32 0x8C379A000000000000000000000000000000000000000000000000000000000 DUP2 MSTORE PUSH1 0x4 ADD PUSH2 0x3C6 SWAP1 PUSH2 0xDE5 JUMP JUMPDEST PUSH1 0x40 MLOAD DUP1 SWAP2 SUB SWAP1 REVERT JUMPDEST PUSH1 0x0 DUP5 DUP5 PUSH1 0x40 MLOAD PUSH1 0x20 ADD PUSH2 0x3E4 SWAP3 SWAP2 SWAP1 PUSH2 0xE51 JUMP JUMPDEST PUSH1 0x40 MLOAD PUSH1 0x20 DUP2 DUP4 SUB SUB DUP2 MSTORE SWAP1 PUSH1 0x40 MSTORE SWAP1 POP PUSH1 0x0 DUP1 SLOAD SWAP1 PUSH2 0x100 EXP SWAP1 DIV PUSH20 0xFFFFFFFFFFFFFFFFFFFFFFFFFFFFFFFFFFFFFFFF AND PUSH20 0xFFFFFFFFFFFFFFFFFFFFFFFFFFFFFFFFFFFFFFFF AND PUSH4 0xBA73659A DUP5 DUP4 DUP8 PUSH1 0x40 MLOAD DUP5 PUSH4 0xFFFFFFFF AND PUSH1 0xE0 SHL DUP2 MSTORE PUSH1 0x4 ADD PUSH2 0x452 SWAP4 SWAP3 SWAP2 SWAP1 PUSH2 0xC23 JUMP JUMPDEST PUSH1 0x20 PUSH1 0x40 MLOAD DUP1 DUP4 SUB DUP2 PUSH1 0x0 DUP8 DUP1 EXTCODESIZE ISZERO DUP1 ISZERO PUSH2 0x46C JUMPI PUSH1 0x0 DUP1 REVERT JUMPDEST POP GAS CALL ISZERO DUP1 ISZERO PUSH2 0x480 JUMPI RETURNDATASIZE PUSH1 0x0 DUP1 RETURNDATACOPY RETURNDATASIZE PUSH1 0x0 REVERT JUMPDEST POP POP POP POP PUSH1 0x40 MLOAD RETURNDATASIZE PUSH1 0x1F NOT PUSH1 0x1F DUP3 ADD AND DUP3 ADD DUP1 PUSH1 0x40 MSTORE POP DUP2 ADD SWAP1 PUSH2 0x4A4 SWAP2 SWAP1 PUSH2 0xC94 JUMP JUMPDEST PUSH2 0x4E3 JUMPI PUSH1 0x40 MLOAD PUSH32 0x8C379A000000000000000000000000000000000000000000000000000000000 DUP2 MSTORE PUSH1 0x4 ADD PUSH2 0x4DA SWAP1 PUSH2 0xD0D JUMP JUMPDEST PUSH1 0x40 MLOAD DUP1 SWAP2 SUB SWAP1 REVERT JUMPDEST DUP5 PUSH1 0x0 DUP1 PUSH2 0x100 EXP DUP2 SLOAD DUP2 PUSH20 0xFFFFFFFFFFFFFFFFFFFFFFFFFFFFFFFFFFFFFFFF MUL NOT AND SWAP1 DUP4 PUSH20 0xFFFFFFFFFFFFFFFFFFFFFFFFFFFFFFFFFFFFFFFF AND MUL OR SWAP1 SSTORE POP DUP5 PUSH20 0xFFFFFFFFFFFFFFFFFFFFFFFFFFFFFFFFFFFFFFFF AND PUSH32 0x1143E675AD794F5BD81A05B165B166BE3A4E91F17D065F08809D88CEFBD65406 PUSH1 0x40 MLOAD PUSH1 0x40 MLOAD DUP1 SWAP2 SUB SWAP1 LOG2 POP POP POP POP POP JUMP JUMPDEST PUSH1 0x0 DUP1 SLOAD SWAP1 PUSH2 0x100 EXP SWAP1 DIV PUSH20 0xFFFFFFFFFFFFFFFFFFFFFFFFFFFFFFFFFFFFFFFF AND DUP2 JUMP JUMPDEST PUSH1 0x0 PUSH1 0x1 PUSH1 0x0 SWAP1 SLOAD SWAP1 PUSH2 0x100 EXP SWAP1 DIV PUSH20 0xFFFFFFFFFFFFFFFFFFFFFFFFFFFFFFFFFFFFFFFF AND PUSH20 0xFFFFFFFFFFFFFFFFFFFFFFFFFFFFFFFFFFFFFFFF AND CALLER PUSH20 0xFFFFFFFFFFFFFFFFFFFFFFFFFFFFFFFFFFFFFFFF AND EQ PUSH2 0x623 JUMPI PUSH1 0x40 MLOAD PUSH32 0x8C379A000000000000000000000000000000000000000000000000000000000 DUP2 MSTORE PUSH1 0x4 ADD PUSH2 0x61A SWAP1 PUSH2 0xED9 JUMP JUMPDEST PUSH1 0x40 MLOAD DUP1 SWAP2 SUB SWAP1 REVERT JUMPDEST DUP4 PUSH20 0xFFFFFFFFFFFFFFFFFFFFFFFFFFFFFFFFFFFFFFFF AND PUSH4 0xA9059CBB DUP5 DUP5 PUSH1 0x40 MLOAD DUP4 PUSH4 0xFFFFFFFF AND PUSH1 0xE0 SHL DUP2 MSTORE PUSH1 0x4 ADD PUSH2 0x65E SWAP3 SWAP2 SWAP1 PUSH2 0xEF9 JUMP JUMPDEST PUSH1 0x20 PUSH1 0x40 MLOAD DUP1 DUP4 SUB DUP2 PUSH1 0x0 DUP8 DUP1 EXTCODESIZE ISZERO DUP1 ISZERO PUSH2 0x678 JUMPI PUSH1 0x0 DUP1 REVERT JUMPDEST POP GAS CALL ISZERO DUP1 ISZERO PUSH2 0x68C JUMPI RETURNDATASIZE PUSH1 0x0 DUP1 RETURNDATACOPY RETURNDATASIZE PUSH1 0x0 REVERT JUMPDEST POP POP POP POP PUSH1 0x40 MLOAD RETURNDATASIZE PUSH1 0x1F NOT PUSH1 0x1F DUP3 ADD AND DUP3 ADD DUP1 PUSH1 0x40 MSTORE POP DUP2 ADD SWAP1 PUSH2 0x6B0 SWAP2 SWAP1 PUSH2 0xC94 JUMP JUMPDEST POP PUSH1 0x0 RETURNDATASIZE PUSH1 0x0 DUP2 EQ PUSH2 0x6C9 JUMPI PUSH1 0x20 DUP2 EQ PUSH2 0x6D2 JUMPI PUSH2 0x6DE JUMP JUMPDEST PUSH1 0x1 SWAP2 POP PUSH2 0x6DE JUMP JUMPDEST PUSH1 0x20 PUSH1 0x0 DUP1 RETURNDATACOPY PUSH1 0x0 MLOAD SWAP2 POP JUMPDEST POP DUP1 PUSH2 0x71F JUMPI PUSH1 0x40 MLOAD PUSH32 0x8C379A000000000000000000000000000000000000000000000000000000000 DUP2 MSTORE PUSH1 0x4 ADD PUSH2 0x716 SWAP1 PUSH2 0xF6E JUMP JUMPDEST PUSH1 0x40 MLOAD DUP1 SWAP2 SUB SWAP1 REVERT JUMPDEST PUSH1 0x1 SWAP2 POP POP SWAP4 SWAP3 POP POP POP JUMP JUMPDEST PUSH1 0x1 PUSH1 0x0 SWAP1 SLOAD SWAP1 PUSH2 0x100 EXP SWAP1 DIV PUSH20 0xFFFFFFFFFFFFFFFFFFFFFFFFFFFFFFFFFFFFFFFF AND DUP2 JUMP JUMPDEST PUSH1 0x0 DUP3 DUP3 MSTORE PUSH1 0x20 DUP3 ADD SWAP1 POP SWAP3 SWAP2 POP POP JUMP JUMPDEST PUSH32 0x7468697320636F6E747261637420646F6573206E6F7420616363657074204554 PUSH1 0x0 DUP3 ADD MSTORE PUSH32 0x4800000000000000000000000000000000000000000000000000000000000000 PUSH1 0x20 DUP3 ADD MSTORE POP JUMP JUMPDEST PUSH1 0x0 PUSH2 0x7BE PUSH1 0x21 DUP4 PUSH2 0x751 JUMP JUMPDEST SWAP2 POP PUSH2 0x7C9 DUP3 PUSH2 0x762 JUMP JUMPDEST PUSH1 0x40 DUP3 ADD SWAP1 POP SWAP2 SWAP1 POP JUMP JUMPDEST PUSH1 0x0 PUSH1 0x20 DUP3 ADD SWAP1 POP DUP2 DUP2 SUB PUSH1 0x0 DUP4 ADD MSTORE PUSH2 0x7ED DUP2 PUSH2 0x7B1 JUMP JUMPDEST SWAP1 POP SWAP2 SWAP1 POP JUMP JUMPDEST PUSH1 0x0 PUSH1 0x40 MLOAD SWAP1 POP SWAP1 JUMP JUMPDEST PUSH1 0x0 DUP1 REVERT JUMPDEST PUSH1 0x0 DUP1 REVERT JUMPDEST PUSH1 0x0 PUSH20 0xFFFFFFFFFFFFFFFFFFFFFFFFFFFFFFFFFFFFFFFF DUP3 AND SWAP1 POP SWAP2 SWAP1 POP JUMP JUMPDEST PUSH1 0x0 PUSH2 0x833 DUP3 PUSH2 0x808 JUMP JUMPDEST SWAP1 POP SWAP2 SWAP1 POP JUMP JUMPDEST PUSH2 0x843 DUP2 PUSH2 0x828 JUMP JUMPDEST DUP2 EQ PUSH2 0x84E JUMPI PUSH1 0x0 DUP1 REVERT JUMPDEST POP JUMP JUMPDEST PUSH1 0x0 DUP2 CALLDATALOAD SWAP1 POP PUSH2 0x860 DUP2 PUSH2 0x83A JUMP JUMPDEST SWAP3 SWAP2 POP POP JUMP JUMPDEST PUSH1 0x0 DUP2 SWAP1 POP SWAP2 SWAP1 POP JUMP JUMPDEST PUSH2 0x879 DUP2 PUSH2 0x866 JUMP JUMPDEST DUP2 EQ PUSH2 0x884 JUMPI PUSH1 0x0 DUP1 REVERT JUMPDEST POP JUMP JUMPDEST PUSH1 0x0 DUP2 CALLDATALOAD SWAP1 POP PUSH2 0x896 DUP2 PUSH2 0x870 JUMP JUMPDEST SWAP3 SWAP2 POP POP JUMP JUMPDEST PUSH1 0x0 DUP1 REVERT JUMPDEST PUSH1 0x0 DUP1 REVERT JUMPDEST PUSH1 0x0 PUSH1 0x1F NOT PUSH1 0x1F DUP4 ADD AND SWAP1 POP SWAP2 SWAP1 POP JUMP JUMPDEST PUSH32 0x4E487B7100000000000000000000000000000000000000000000000000000000 PUSH1 0x0 MSTORE PUSH1 0x41 PUSH1 0x4 MSTORE PUSH1 0x24 PUSH1 0x0 REVERT JUMPDEST PUSH2 0x8EF DUP3 PUSH2 0x8A6 JUMP JUMPDEST DUP2 ADD DUP2 DUP2 LT PUSH8 0xFFFFFFFFFFFFFFFF DUP3 GT OR ISZERO PUSH2 0x90E JUMPI PUSH2 0x90D PUSH2 0x8B7 JUMP JUMPDEST JUMPDEST DUP1 PUSH1 0x40 MSTORE POP POP POP JUMP JUMPDEST PUSH1 0x0 PUSH2 0x921 PUSH2 0x7F4 JUMP JUMPDEST SWAP1 POP PUSH2 0x92D DUP3 DUP3 PUSH2 0x8E6 JUMP JUMPDEST SWAP2 SWAP1 POP JUMP JUMPDEST PUSH1 0x0 PUSH8 0xFFFFFFFFFFFFFFFF DUP3 GT ISZERO PUSH2 0x94D JUMPI PUSH2 0x94C PUSH2 0x8B7 JUMP JUMPDEST JUMPDEST PUSH2 0x956 DUP3 PUSH2 0x8A6 JUMP JUMPDEST SWAP1 POP PUSH1 0x20 DUP2 ADD SWAP1 POP SWAP2 SWAP1 POP JUMP JUMPDEST DUP3 DUP2 DUP4 CALLDATACOPY PUSH1 0x0 DUP4 DUP4 ADD MSTORE POP POP POP JUMP JUMPDEST PUSH1 0x0 PUSH2 0x985 PUSH2 0x980 DUP5 PUSH2 0x932 JUMP JUMPDEST PUSH2 0x917 JUMP JUMPDEST SWAP1 POP DUP3 DUP2 MSTORE PUSH1 0x20 DUP2 ADD DUP5 DUP5 DUP5 ADD GT ISZERO PUSH2 0x9A1 JUMPI PUSH2 0x9A0 PUSH2 0x8A1 JUMP JUMPDEST JUMPDEST PUSH2 0x9AC DUP5 DUP3 DUP6 PUSH2 0x963 JUMP JUMPDEST POP SWAP4 SWAP3 POP POP POP JUMP JUMPDEST PUSH1 0x0 DUP3 PUSH1 0x1F DUP4 ADD SLT PUSH2 0x9C9 JUMPI PUSH2 0x9C8 PUSH2 0x89C JUMP JUMPDEST JUMPDEST DUP2 CALLDATALOAD PUSH2 0x9D9 DUP5 DUP3 PUSH1 0x20 DUP7 ADD PUSH2 0x972 JUMP JUMPDEST SWAP2 POP POP SWAP3 SWAP2 POP POP JUMP JUMPDEST PUSH1 0x0 DUP1 PUSH1 0x0 PUSH1 0x60 DUP5 DUP7 SUB SLT ISZERO PUSH2 0x9FB JUMPI PUSH2 0x9FA PUSH2 0x7FE JUMP JUMPDEST JUMPDEST PUSH1 0x0 PUSH2 0xA09 DUP7 DUP3 DUP8 ADD PUSH2 0x851 JUMP JUMPDEST SWAP4 POP POP PUSH1 0x20 PUSH2 0xA1A DUP7 DUP3 DUP8 ADD PUSH2 0x887 JUMP JUMPDEST SWAP3 POP POP PUSH1 0x40 DUP5 ADD CALLDATALOAD PUSH8 0xFFFFFFFFFFFFFFFF DUP2 GT ISZERO PUSH2 0xA3B JUMPI PUSH2 0xA3A PUSH2 0x803 JUMP JUMPDEST JUMPDEST PUSH2 0xA47 DUP7 DUP3 DUP8 ADD PUSH2 0x9B4 JUMP JUMPDEST SWAP2 POP POP SWAP3 POP SWAP3 POP SWAP3 JUMP JUMPDEST PUSH2 0xA5A DUP2 PUSH2 0x828 JUMP JUMPDEST DUP3 MSTORE POP POP JUMP JUMPDEST PUSH1 0x0 PUSH1 0x20 DUP3 ADD SWAP1 POP PUSH2 0xA75 PUSH1 0x0 DUP4 ADD DUP5 PUSH2 0xA51 JUMP JUMPDEST SWAP3 SWAP2 POP POP JUMP JUMPDEST PUSH1 0x0 DUP1 PUSH1 0x0 PUSH1 0x60 DUP5 DUP7 SUB SLT ISZERO PUSH2 0xA94 JUMPI PUSH2 0xA93 PUSH2 0x7FE JUMP JUMPDEST JUMPDEST PUSH1 0x0 PUSH2 0xAA2 DUP7 DUP3 DUP8 ADD PUSH2 0x851 JUMP JUMPDEST SWAP4 POP POP PUSH1 0x20 PUSH2 0xAB3 DUP7 DUP3 DUP8 ADD PUSH2 0x851 JUMP JUMPDEST SWAP3 POP POP PUSH1 0x40 PUSH2 0xAC4 DUP7 DUP3 DUP8 ADD PUSH2 0x887 JUMP JUMPDEST SWAP2 POP POP SWAP3 POP SWAP3 POP SWAP3 JUMP JUMPDEST PUSH1 0x0 DUP2 ISZERO ISZERO SWAP1 POP SWAP2 SWAP1 POP JUMP JUMPDEST PUSH2 0xAE3 DUP2 PUSH2 0xACE JUMP JUMPDEST DUP3 MSTORE POP POP JUMP JUMPDEST PUSH1 0x0 PUSH1 0x20 DUP3 ADD SWAP1 POP PUSH2 0xAFE PUSH1 0x0 DUP4 ADD DUP5 PUSH2 0xADA JUMP JUMPDEST SWAP3 SWAP2 POP POP JUMP JUMPDEST PUSH2 0xB0D DUP2 PUSH2 0x866 JUMP JUMPDEST DUP3 MSTORE POP POP JUMP JUMPDEST PUSH32 0x7365745F6272696467655F616464726573730000000000000000000000000000 PUSH1 0x0 DUP3 ADD MSTORE POP JUMP JUMPDEST PUSH1 0x0 PUSH2 0xB49 PUSH1 0x12 DUP4 PUSH2 0x751 JUMP JUMPDEST SWAP2 POP PUSH2 0xB54 DUP3 PUSH2 0xB13 JUMP JUMPDEST PUSH1 0x20 DUP3 ADD SWAP1 POP SWAP2 SWAP1 POP JUMP JUMPDEST PUSH1 0x0 PUSH1 0x60 DUP3 ADD SWAP1 POP PUSH2 0xB74 PUSH1 0x0 DUP4 ADD DUP6 PUSH2 0xA51 JUMP JUMPDEST PUSH2 0xB81 PUSH1 0x20 DUP4 ADD DUP5 PUSH2 0xB04 JUMP JUMPDEST DUP2 DUP2 SUB PUSH1 0x40 DUP4 ADD MSTORE PUSH2 0xB92 DUP2 PUSH2 0xB3C JUMP JUMPDEST SWAP1 POP SWAP4 SWAP3 POP POP POP JUMP JUMPDEST PUSH1 0x0 DUP2 MLOAD SWAP1 POP SWAP2 SWAP1 POP JUMP JUMPDEST PUSH1 0x0 DUP3 DUP3 MSTORE PUSH1 0x20 DUP3 ADD SWAP1 POP SWAP3 SWAP2 POP POP JUMP JUMPDEST PUSH1 0x0 JUMPDEST DUP4 DUP2 LT ISZERO PUSH2 0xBD5 JUMPI DUP1 DUP3 ADD MLOAD DUP2 DUP5 ADD MSTORE PUSH1 0x20 DUP2 ADD SWAP1 POP PUSH2 0xBBA JUMP JUMPDEST DUP4 DUP2 GT ISZERO PUSH2 0xBE4 JUMPI PUSH1 0x0 DUP5 DUP5 ADD MSTORE JUMPDEST POP POP POP POP JUMP JUMPDEST PUSH1 0x0 PUSH2 0xBF5 DUP3 PUSH2 0xB9B JUMP JUMPDEST PUSH2 0xBFF DUP2 DUP6 PUSH2 0xBA6 JUMP JUMPDEST SWAP4 POP PUSH2 0xC0F DUP2 DUP6 PUSH1 0x20 DUP7 ADD PUSH2 0xBB7 JUMP JUMPDEST PUSH2 0xC18 DUP2 PUSH2 0x8A6 JUMP JUMPDEST DUP5 ADD SWAP2 POP POP SWAP3 SWAP2 POP POP JUMP JUMPDEST PUSH1 0x0 PUSH1 0x60 DUP3 ADD SWAP1 POP DUP2 DUP2 SUB PUSH1 0x0 DUP4 ADD MSTORE PUSH2 0xC3D DUP2 DUP7 PUSH2 0xBEA JUMP JUMPDEST SWAP1 POP DUP2 DUP2 SUB PUSH1 0x20 DUP4 ADD MSTORE PUSH2 0xC51 DUP2 DUP6 PUSH2 0xBEA JUMP JUMPDEST SWAP1 POP PUSH2 0xC60 PUSH1 0x40 DUP4 ADD DUP5 PUSH2 0xB04 JUMP JUMPDEST SWAP5 SWAP4 POP POP POP POP JUMP JUMPDEST PUSH2 0xC71 DUP2 PUSH2 0xACE JUMP JUMPDEST DUP2 EQ PUSH2 0xC7C JUMPI PUSH1 0x0 DUP1 REVERT JUMPDEST POP JUMP JUMPDEST PUSH1 0x0 DUP2 MLOAD SWAP1 POP PUSH2 0xC8E DUP2 PUSH2 0xC68 JUMP JUMPDEST SWAP3 SWAP2 POP POP JUMP JUMPDEST PUSH1 0x0 PUSH1 0x20 DUP3 DUP5 SUB SLT ISZERO PUSH2 0xCAA JUMPI PUSH2 0xCA9 PUSH2 0x7FE JUMP JUMPDEST JUMPDEST PUSH1 0x0 PUSH2 0xCB8 DUP5 DUP3 DUP6 ADD PUSH2 0xC7F JUMP JUMPDEST SWAP2 POP POP SWAP3 SWAP2 POP POP JUMP JUMPDEST PUSH32 0x626164207369676E617475726573000000000000000000000000000000000000 PUSH1 0x0 DUP3 ADD MSTORE POP JUMP JUMPDEST PUSH1 0x0 PUSH2 0xCF7 PUSH1 0xE DUP4 PUSH2 0x751 JUMP JUMPDEST SWAP2 POP PUSH2 0xD02 DUP3 PUSH2 0xCC1 JUMP JUMPDEST PUSH1 0x20 DUP3 ADD SWAP1 POP SWAP2 SWAP1 POP JUMP JUMPDEST PUSH1 0x0 PUSH1 0x20 DUP3 ADD SWAP1 POP DUP2 DUP2 SUB PUSH1 0x0 DUP4 ADD MSTORE PUSH2 0xD26 DUP2 PUSH2 0xCEA JUMP JUMPDEST SWAP1 POP SWAP2 SWAP1 POP JUMP JUMPDEST PUSH32 0x696E76616C6964204D756C7469736967436F6E74726F6C206164647265737300 PUSH1 0x0 DUP3 ADD MSTORE POP JUMP JUMPDEST PUSH1 0x0 PUSH2 0xD63 PUSH1 0x1F DUP4 PUSH2 0x751 JUMP JUMPDEST SWAP2 POP PUSH2 0xD6E DUP3 PUSH2 0xD2D JUMP JUMPDEST PUSH1 0x20 DUP3 ADD SWAP1 POP SWAP2 SWAP1 POP JUMP JUMPDEST PUSH1 0x0 PUSH1 0x20 DUP3 ADD SWAP1 POP DUP2 DUP2 SUB PUSH1 0x0 DUP4 ADD MSTORE PUSH2 0xD92 DUP2 PUSH2 0xD56 JUMP JUMPDEST SWAP1 POP SWAP2 SWAP1 POP JUMP JUMPDEST PUSH32 0x6E65772061646472657373206D75737420626520636F6E747261637400000000 PUSH1 0x0 DUP3 ADD MSTORE POP JUMP JUMPDEST PUSH1 0x0 PUSH2 0xDCF PUSH1 0x1C DUP4 PUSH2 0x751 JUMP JUMPDEST SWAP2 POP PUSH2 0xDDA DUP3 PUSH2 0xD99 JUMP JUMPDEST PUSH1 0x20 DUP3 ADD SWAP1 POP SWAP2 SWAP1 POP JUMP JUMPDEST PUSH1 0x0 PUSH1 0x20 DUP3 ADD SWAP1 POP DUP2 DUP2 SUB PUSH1 0x0 DUP4 ADD MSTORE PUSH2 0xDFE DUP2 PUSH2 0xDC2 JUMP JUMPDEST SWAP1 POP SWAP2 SWAP1 POP JUMP JUMPDEST PUSH32 0x7365745F6D756C74697369675F636F6E74726F6C000000000000000000000000 PUSH1 0x0 DUP3 ADD MSTORE POP JUMP JUMPDEST PUSH1 0x0 PUSH2 0xE3B PUSH1 0x14 DUP4 PUSH2 0x751 JUMP JUMPDEST SWAP2 POP PUSH2 0xE46 DUP3 PUSH2 0xE05 JUMP JUMPDEST PUSH1 0x20 DUP3 ADD SWAP1 POP SWAP2 SWAP1 POP JUMP JUMPDEST PUSH1 0x0 PUSH1 0x60 DUP3 ADD SWAP1 POP PUSH2 0xE66 PUSH1 0x0 DUP4 ADD DUP6 PUSH2 0xA51 JUMP JUMPDEST PUSH2 0xE73 PUSH1 0x20 DUP4 ADD DUP5 PUSH2 0xB04 JUMP JUMPDEST DUP2 DUP2 SUB PUSH1 0x40 DUP4 ADD MSTORE PUSH2 0xE84 DUP2 PUSH2 0xE2E JUMP JUMPDEST SWAP1 POP SWAP4 SWAP3 POP POP POP JUMP JUMPDEST PUSH32 0x6D73672E73656E646572206E6F7420617574686F72697A656420627269646765 PUSH1 0x0 DUP3 ADD MSTORE POP JUMP JUMPDEST PUSH1 0x0 PUSH2 0xEC3 PUSH1 0x20 DUP4 PUSH2 0x751 JUMP JUMPDEST SWAP2 POP PUSH2 0xECE DUP3 PUSH2 0xE8D JUMP JUMPDEST PUSH1 0x20 DUP3 ADD SWAP1 POP SWAP2 SWAP1 POP JUMP JUMPDEST PUSH1 0x0 PUSH1 0x20 DUP3 ADD SWAP1 POP DUP2 DUP2 SUB PUSH1 0x0 DUP4 ADD MSTORE PUSH2 0xEF2 DUP2 PUSH2 0xEB6 JUMP JUMPDEST SWAP1 POP SWAP2 SWAP1 POP JUMP JUMPDEST PUSH1 0x0 PUSH1 0x40 DUP3 ADD SWAP1 POP PUSH2 0xF0E PUSH1 0x0 DUP4 ADD DUP6 PUSH2 0xA51 JUMP JUMPDEST PUSH2 0xF1B PUSH1 0x20 DUP4 ADD DUP5 PUSH2 0xB04 JUMP JUMPDEST SWAP4 SWAP3 POP POP POP JUMP JUMPDEST PUSH32 0x746F6B656E207472616E73666572206661696C65640000000000000000000000 PUSH1 0x0 DUP3 ADD MSTORE POP JUMP JUMPDEST PUSH1 0x0 PUSH2 0xF58 PUSH1 0x15 DUP4 PUSH2 0x751 JUMP JUMPDEST SWAP2 POP PUSH2 0xF63 DUP3 PUSH2 0xF22 JUMP JUMPDEST PUSH1 0x20 DUP3 ADD SWAP1 POP SWAP2 SWAP1 POP JUMP JUMPDEST PUSH1 0x0 PUSH1 0x20 DUP3 ADD SWAP1 POP DUP2 DUP2 SUB PUSH1 0x0 DUP4 ADD MSTORE PUSH2 0xF87 DUP2 PUSH2 0xF4B JUMP JUMPDEST SWAP1 POP SWAP2 SWAP1 POP JUMP INVALID LOG2 PUSH5 0x6970667358 0x22 SLT KECCAK256 DUP14 SWAP12 0xB0 SHL 0xDA PUSH25 0xFA3DBC8F84ED5AF5FEF4EBA863437DD8395BF6833D2658CA1 PUSH24 0x64736F6C6343000808003300000000000000000000000000 "},"methodIdentifiers":{"erc20_bridge_address()":"e98dfffd","multisig_control_address()":"b82d5abd","set_bridge_address(address,uint256,bytes)":"63bb28e0","set_multisig_control(address,uint256,bytes)":"aeed8f95","withdraw(address,address,uint256)":"d9caed12"}}}}}