{"contracts/ETH_Bridge_Logic.sol":{"ETH_Bridge_Logic":{"abi":[{"inputs":[{"internalType":"address payable","name":"ETH_asset_pool","type":"address"},{"internalType":"address","name":"multisig_control","type":"address"}],"stateMutability":"nonpayable","type":"constructor"},{"anonymous":false,"inputs":[{"indexed":false,"internalType":"uint256","name":"new_maximum","type":"uint256"},{"indexed":false,"internalType":"uint256","name":"nonce","type":"uint256"}],"name":"ETH_Deposit_Maximum_Set","type":"event"},{"anonymous":false,"inputs":[{"indexed":false,"internalType":"uint256","name":"new_minimum","type":"uint256"},{"indexed":false,"internalType":"uint256","name":"nonce","type":"uint256"}],"name":"ETH_Deposit_Minimum_Set","type":"event"},{"anonymous":false,"inputs":[{"indexed":true,"internalType":"address","name":"user_address","type":"address"},{"indexed":false,"internalType":"uint256","name":"amount","type":"uint256"},{"indexed":false,"internalType":"bytes32","name":"vega_public_key","type":"bytes32"}],"name":"ETH_Deposited","type":"event"},{"anonymous":false,"inputs":[{"indexed":true,"internalType":"address","name":"user_address","type":"address"},{"indexed":false,"internalType":"uint256","name":"amount","type":"uint256"},{"indexed":false,"internalType":"uint256","name":"nonce","type":"uint256"}],"name":"ETH_Withdrawn","type":"event"},{"inputs":[{"internalType":"bytes32","name":"vega_public_key","type":"bytes32"}],"name":"deposit_asset","outputs":[],"stateMutability":"payable","type":"function"},{"inputs":[],"name":"get_deposit_maximum","outputs":[{"internalType":"uint256","name":"","type":"uint256"}],"stateMutability":"view","type":"function"},{"inputs":[],"name":"get_deposit_minimum","outputs":[{"internalType":"uint256","name":"","type":"uint256"}],"stateMutability":"view","type":"function"},{"inputs":[],"name":"get_multisig_control_address","outputs":[{"internalType":"address","name":"","type":"address"}],"stateMutability":"view","type":"function"},{"inputs":[],"name":"get_vega_asset_id","outputs":[{"internalType":"bytes32","name":"","type":"bytes32"}],"stateMutability":"view","type":"function"},{"inputs":[{"internalType":"uint256","name":"maximum_amount","type":"uint256"},{"internalType":"uint256","name":"nonce","type":"uint256"},{"internalType":"bytes","name":"signatures","type":"bytes"}],"name":"set_deposit_maximum","outputs":[],"stateMutability":"nonpayable","type":"function"},{"inputs":[{"internalType":"uint256","name":"minimum_amount","type":"uint256"},{"internalType":"uint256","name":"nonce","type":"uint256"},{"internalType":"bytes","name":"signatures","type":"bytes"}],"name":"set_deposit_minimum","outputs":[],"stateMutability":"nonpayable","type":"function"},{"inputs":[{"internalType":"uint256","name":"amount","type":"uint256"},{"internalType":"uint256","name":"expiry","type":"uint256"},{"internalType":"address payable","name":"target","type":"address"},{"internalType":"uint256","name":"nonce","type":"uint256"},{"internalType":"bytes","name":"signatures","type":"bytes"}],"name":"withdraw_asset","outputs":[],"stateMutability":"nonpayable","type":"function"}],"evm":{"bytecode":{"linkReferences":{},"object":"60806040523480156200001157600080fd5b50604051620014573803806200145783398181016040528101906200003791906200016f565b81600160006101000a81548173ffffffffffffffffffffffffffffffffffffffff021916908373ffffffffffffffffffffffffffffffffffffffff160217905550806000806101000a81548173ffffffffffffffffffffffffffffffffffffffff021916908373ffffffffffffffffffffffffffffffffffffffff1602179055505050620001b6565b600080fd5b600073ffffffffffffffffffffffffffffffffffffffff82169050919050565b6000620000f282620000c5565b9050919050565b6200010481620000e5565b81146200011057600080fd5b50565b6000815190506200012481620000f9565b92915050565b60006200013782620000c5565b9050919050565b62000149816200012a565b81146200015557600080fd5b50565b60008151905062000169816200013e565b92915050565b60008060408385031215620001895762000188620000c0565b5b6000620001998582860162000113565b9250506020620001ac8582860162000158565b9150509250929050565b61129180620001c66000396000f3fe60806040526004361061007b5760003560e01c8063b38ec4061161004e578063b38ec40614610128578063c58dc3b914610151578063ceaf221b1461017c578063d172369c146101985761007b565b806339a2c7db1461008057806344957f74146100a95780637db94c82146100d457806380bc0668146100fd575b600080fd5b34801561008c57600080fd5b506100a760048036038101906100a29190610a9f565b6101c3565b005b3480156100b557600080fd5b506100be610463565b6040516100cb9190610b4f565b60405180910390f35b3480156100e057600080fd5b506100fb60048036038101906100f69190610b6a565b61046d565b005b34801561010957600080fd5b506101126105c7565b60405161011f9190610be8565b60405180910390f35b34801561013457600080fd5b5061014f600480360381019061014a9190610b6a565b6105d1565b005b34801561015d57600080fd5b5061016661072b565b6040516101739190610c24565b60405180910390f35b61019660048036038101906101919190610c6b565b610754565b005b3480156101a457600080fd5b506101ad6108a7565b6040516101ba9190610be8565b60405180910390f35b428411610205576040517f08c379a00000000000000000000000000000000000000000000000000000000081526004016101fc90610cf5565b60405180910390fd5b60008585858560405160200161021e9493929190610d70565b604051602081830303815290604052905060008054906101000a900473ffffffffffffffffffffffffffffffffffffffff1673ffffffffffffffffffffffffffffffffffffffff1663ba73659a8383866040518463ffffffff1660e01b815260040161028c93929190610e50565b602060405180830381600087803b1580156102a657600080fd5b505af11580156102ba573d6000803e3d6000fd5b505050506040513d601f19601f820116820180604052508101906102de9190610ecd565b61031d576040517f08c379a000000000000000000000000000000000000000000000000000000000815260040161031490610f46565b60405180910390fd5b600160009054906101000a900473ffffffffffffffffffffffffffffffffffffffff1673ffffffffffffffffffffffffffffffffffffffff1663f3fef3a385886040518363ffffffff1660e01b815260040161037a929190610f66565b602060405180830381600087803b15801561039457600080fd5b505af11580156103a8573d6000803e3d6000fd5b505050506040513d601f19601f820116820180604052508101906103cc9190610ecd565b61040b576040517f08c379a000000000000000000000000000000000000000000000000000000000815260040161040290611001565b60405180910390fd5b8373ffffffffffffffffffffffffffffffffffffffff167f6875a38a87618c964b80397bb7582ce2d937c2d458335f1ef75bbb9b8a69ce538785604051610453929190611021565b60405180910390a2505050505050565b6000600454905090565b60008383604051602001610482929190611096565b604051602081830303815290604052905060008054906101000a900473ffffffffffffffffffffffffffffffffffffffff1673ffffffffffffffffffffffffffffffffffffffff1663ba73659a8383866040518463ffffffff1660e01b81526004016104f093929190610e50565b602060405180830381600087803b15801561050a57600080fd5b505af115801561051e573d6000803e3d6000fd5b505050506040513d601f19601f820116820180604052508101906105429190610ecd565b610581576040517f08c379a000000000000000000000000000000000000000000000000000000000815260040161057890610f46565b60405180910390fd5b836003819055507f833d0d7919b4ba3e0dfbd5d7bd9ed614652dcfd8f80b43dcfc1ce2a7356a38fa84846040516105b9929190611021565b60405180910390a150505050565b6000600254905090565b600083836040516020016105e692919061111e565b604051602081830303815290604052905060008054906101000a900473ffffffffffffffffffffffffffffffffffffffff1673ffffffffffffffffffffffffffffffffffffffff1663ba73659a8383866040518463ffffffff1660e01b815260040161065493929190610e50565b602060405180830381600087803b15801561066e57600080fd5b505af1158015610682573d6000803e3d6000fd5b505050506040513d601f19601f820116820180604052508101906106a69190610ecd565b6106e5576040517f08c379a00000000000000000000000000000000000000000000000000000000081526004016106dc90610f46565b60405180910390fd5b836002819055507f963cdad18217aff9ffb0f4b78a5ad965769f190aff78736f0f958d58ab3ef9c9848460405161071d929190611021565b60405180910390a150505050565b60008060009054906101000a900473ffffffffffffffffffffffffffffffffffffffff16905090565b6000600354148061076757506003543411155b6107a6576040517f08c379a000000000000000000000000000000000000000000000000000000000815260040161079d906111a6565b60405180910390fd5b6002543410156107eb576040517f08c379a00000000000000000000000000000000000000000000000000000000081526004016107e290611212565b60405180910390fd5b600160009054906101000a900473ffffffffffffffffffffffffffffffffffffffff1673ffffffffffffffffffffffffffffffffffffffff166108fc349081150290604051600060405180830381858888f19350505050158015610853573d6000803e3d6000fd5b503373ffffffffffffffffffffffffffffffffffffffff167fb1f58f9eaf7eb348df2fd084d223a7a441bc2c9f80c1bdae06db7131d9b7d7eb348360405161089c929190611232565b60405180910390a250565b6000600354905090565b6000604051905090565b600080fd5b600080fd5b6000819050919050565b6108d8816108c5565b81146108e357600080fd5b50565b6000813590506108f5816108cf565b92915050565b600073ffffffffffffffffffffffffffffffffffffffff82169050919050565b6000610926826108fb565b9050919050565b6109368161091b565b811461094157600080fd5b50565b6000813590506109538161092d565b92915050565b600080fd5b600080fd5b6000601f19601f8301169050919050565b7f4e487b7100000000000000000000000000000000000000000000000000000000600052604160045260246000fd5b6109ac82610963565b810181811067ffffffffffffffff821117156109cb576109ca610974565b5b80604052505050565b60006109de6108b1565b90506109ea82826109a3565b919050565b600067ffffffffffffffff821115610a0a57610a09610974565b5b610a1382610963565b9050602081019050919050565b82818337600083830152505050565b6000610a42610a3d846109ef565b6109d4565b905082815260208101848484011115610a5e57610a5d61095e565b5b610a69848285610a20565b509392505050565b600082601f830112610a8657610a85610959565b5b8135610a96848260208601610a2f565b91505092915050565b600080600080600060a08688031215610abb57610aba6108bb565b5b6000610ac9888289016108e6565b9550506020610ada888289016108e6565b9450506040610aeb88828901610944565b9350506060610afc888289016108e6565b925050608086013567ffffffffffffffff811115610b1d57610b1c6108c0565b5b610b2988828901610a71565b9150509295509295909350565b6000819050919050565b610b4981610b36565b82525050565b6000602082019050610b646000830184610b40565b92915050565b600080600060608486031215610b8357610b826108bb565b5b6000610b91868287016108e6565b9350506020610ba2868287016108e6565b925050604084013567ffffffffffffffff811115610bc357610bc26108c0565b5b610bcf86828701610a71565b9150509250925092565b610be2816108c5565b82525050565b6000602082019050610bfd6000830184610bd9565b92915050565b6000610c0e826108fb565b9050919050565b610c1e81610c03565b82525050565b6000602082019050610c396000830184610c15565b92915050565b610c4881610b36565b8114610c5357600080fd5b50565b600081359050610c6581610c3f565b92915050565b600060208284031215610c8157610c806108bb565b5b6000610c8f84828501610c56565b91505092915050565b600082825260208201905092915050565b7f7769746864726177616c20686173206578706972656400000000000000000000600082015250565b6000610cdf601683610c98565b9150610cea82610ca9565b602082019050919050565b60006020820190508181036000830152610d0e81610cd2565b9050919050565b610d1e8161091b565b82525050565b7f77697468647261775f6173736574000000000000000000000000000000000000600082015250565b6000610d5a600e83610c98565b9150610d6582610d24565b602082019050919050565b600060a082019050610d856000830187610bd9565b610d926020830186610bd9565b610d9f6040830185610d15565b610dac6060830184610bd9565b8181036080830152610dbd81610d4d565b905095945050505050565b600081519050919050565b600082825260208201905092915050565b60005b83811015610e02578082015181840152602081019050610de7565b83811115610e11576000848401525b50505050565b6000610e2282610dc8565b610e2c8185610dd3565b9350610e3c818560208601610de4565b610e4581610963565b840191505092915050565b60006060820190508181036000830152610e6a8186610e17565b90508181036020830152610e7e8185610e17565b9050610e8d6040830184610bd9565b949350505050565b60008115159050919050565b610eaa81610e95565b8114610eb557600080fd5b50565b600081519050610ec781610ea1565b92915050565b600060208284031215610ee357610ee26108bb565b5b6000610ef184828501610eb8565b91505092915050565b7f626164207369676e617475726573000000000000000000000000000000000000600082015250565b6000610f30600e83610c98565b9150610f3b82610efa565b602082019050919050565b60006020820190508181036000830152610f5f81610f23565b9050919050565b6000604082019050610f7b6000830185610d15565b610f886020830184610bd9565b9392505050565b7f746f6b656e20646964206e6f74207472616e736665722c2072656a656374656460008201527f20627920617373657420706f6f6c2e0000000000000000000000000000000000602082015250565b6000610feb602f83610c98565b9150610ff682610f8f565b604082019050919050565b6000602082019050818103600083015261101a81610fde565b9050919050565b60006040820190506110366000830185610bd9565b6110436020830184610bd9565b9392505050565b7f7365745f6465706f7369745f6d6178696d756d00000000000000000000000000600082015250565b6000611080601383610c98565b915061108b8261104a565b602082019050919050565b60006060820190506110ab6000830185610bd9565b6110b86020830184610bd9565b81810360408301526110c981611073565b90509392505050565b7f7365745f6465706f7369745f6d696e696d756d00000000000000000000000000600082015250565b6000611108601383610c98565b9150611113826110d2565b602082019050919050565b60006060820190506111336000830185610bd9565b6111406020830184610bd9565b8181036040830152611151816110fb565b90509392505050565b7f6465706f7369742061626f7665206d6178696d756d0000000000000000000000600082015250565b6000611190601583610c98565b915061119b8261115a565b602082019050919050565b600060208201905081810360008301526111bf81611183565b9050919050565b7f6465706f7369742062656c6f77206d696e696d756d0000000000000000000000600082015250565b60006111fc601583610c98565b9150611207826111c6565b602082019050919050565b6000602082019050818103600083015261122b816111ef565b9050919050565b60006040820190506112476000830185610bd9565b6112546020830184610b40565b939250505056fea26469706673582212209e85d70bd8c98539a66da08a1c7a06bf86ff51ccdbd77e4d9dba1d8717814b1b64736f6c63430008080033","opcodes":"PUSH1 0x80 PUSH1 0x40 MSTORE CALLVALUE DUP1 ISZERO PUSH3 0x11 JUMPI PUSH1 0x0 DUP1 REVERT JUMPDEST POP PUSH1 0x40 MLOAD PUSH3 0x1457 CODESIZE SUB DUP1 PUSH3 0x1457 DUP4 CODECOPY DUP2 DUP2 ADD PUSH1 0x40 MSTORE DUP2 ADD SWAP1 PUSH3 0x37 SWAP2 SWAP1 PUSH3 0x16F JUMP JUMPDEST DUP2 PUSH1 0x1 PUSH1 0x0 PUSH2 0x100 EXP DUP2 SLOAD DUP2 PUSH20 0xFFFFFFFFFFFFFFFFFFFFFFFFFFFFFFFFFFFFFFFF MUL NOT AND SWAP1 DUP4 PUSH20 0xFFFFFFFFFFFFFFFFFFFFFFFFFFFFFFFFFFFFFFFF AND MUL OR SWAP1 SSTORE POP DUP1 PUSH1 0x0 DUP1 PUSH2 0x100 EXP DUP2 SLOAD DUP2 PUSH20 0xFFFFFFFFFFFFFFFFFFFFFFFFFFFFFFFFFFFFFFFF MUL NOT AND SWAP1 DUP4 PUSH20 0xFFFFFFFFFFFFFFFFFFFFFFFFFFFFFFFFFFFFFFFF AND MUL OR SWAP1 SSTORE POP POP POP PUSH3 0x1B6 JUMP JUMPDEST PUSH1 0x0 DUP1 REVERT JUMPDEST PUSH1 0x0 PUSH20 0xFFFFFFFFFFFFFFFFFFFFFFFFFFFFFFFFFFFFFFFF DUP3 AND SWAP1 POP SWAP2 SWAP1 POP JUMP JUMPDEST PUSH1 0x0 PUSH3 0xF2 DUP3 PUSH3 0xC5 JUMP JUMPDEST SWAP1 POP SWAP2 SWAP1 POP JUMP JUMPDEST PUSH3 0x104 DUP2 PUSH3 0xE5 JUMP JUMPDEST DUP2 EQ PUSH3 0x110 JUMPI PUSH1 0x0 DUP1 REVERT JUMPDEST POP JUMP JUMPDEST PUSH1 0x0 DUP2 MLOAD SWAP1 POP PUSH3 0x124 DUP2 PUSH3 0xF9 JUMP JUMPDEST SWAP3 SWAP2 POP POP JUMP JUMPDEST PUSH1 0x0 PUSH3 0x137 DUP3 PUSH3 0xC5 JUMP JUMPDEST SWAP1 POP SWAP2 SWAP1 POP JUMP JUMPDEST PUSH3 0x149 DUP2 PUSH3 0x12A JUMP JUMPDEST DUP2 EQ PUSH3 0x155 JUMPI PUSH1 0x0 DUP1 REVERT JUMPDEST POP JUMP JUMPDEST PUSH1 0x0 DUP2 MLOAD SWAP1 POP PUSH3 0x169 DUP2 PUSH3 0x13E JUMP JUMPDEST SWAP3 SWAP2 POP POP JUMP JUMPDEST PUSH1 0x0 DUP1 PUSH1 0x40 DUP4 DUP6 SUB SLT ISZERO PUSH3 0x189 JUMPI PUSH3 0x188 PUSH3 0xC0 JUMP JUMPDEST JUMPDEST PUSH1 0x0 PUSH3 0x199 DUP6 DUP3 DUP7 ADD PUSH3 0x113 JUMP JUMPDEST SWAP3 POP POP PUSH1 0x20 PUSH3 0x1AC DUP6 DUP3 DUP7 ADD PUSH3 0x158 JUMP JUMPDEST SWAP2 POP POP SWAP3 POP SWAP3 SWAP1 POP JUMP JUMPDEST PUSH2 0x1291 DUP1 PUSH3 0x1C6 PUSH1 0x0 CODECOPY PUSH1 0x0 RETURN INVALID PUSH1 0x80 PUSH1 0x40 MSTORE PUSH1 0x4 CALLDATASIZE LT PUSH2 0x7B JUMPI PUSH1 0x0 CALLDATALOAD PUSH1 0xE0 SHR DUP1 PUSH4 0xB38EC406 GT PUSH2 0x4E JUMPI DUP1 PUSH4 0xB38EC406 EQ PUSH2 0x128 JUMPI DUP1 PUSH4 0xC58DC3B9 EQ PUSH2 0x151 JUMPI DUP1 PUSH4 0xCEAF221B EQ PUSH2 0x17C JUMPI DUP1 PUSH4 0xD172369C EQ PUSH2 0x198 JUMPI PUSH2 0x7B JUMP JUMPDEST DUP1 PUSH4 0x39A2C7DB EQ PUSH2 0x80 JUMPI DUP1 PUSH4 0x44957F74 EQ PUSH2 0xA9 JUMPI DUP1 PUSH4 0x7DB94C82 EQ PUSH2 0xD4 JUMPI DUP1 PUSH4 0x80BC0668 EQ PUSH2 0xFD JUMPI JUMPDEST PUSH1 0x0 DUP1 REVERT JUMPDEST CALLVALUE DUP1 ISZERO PUSH2 0x8C JUMPI PUSH1 0x0 DUP1 REVERT JUMPDEST POP PUSH2 0xA7 PUSH1 0x4 DUP1 CALLDATASIZE SUB DUP2 ADD SWAP1 PUSH2 0xA2 SWAP2 SWAP1 PUSH2 0xA9F JUMP JUMPDEST PUSH2 0x1C3 JUMP JUMPDEST STOP JUMPDEST CALLVALUE DUP1 ISZERO PUSH2 0xB5 JUMPI PUSH1 0x0 DUP1 REVERT JUMPDEST POP PUSH2 0xBE PUSH2 0x463 JUMP JUMPDEST PUSH1 0x40 MLOAD PUSH2 0xCB SWAP2 SWAP1 PUSH2 0xB4F JUMP JUMPDEST PUSH1 0x40 MLOAD DUP1 SWAP2 SUB SWAP1 RETURN JUMPDEST CALLVALUE DUP1 ISZERO PUSH2 0xE0 JUMPI PUSH1 0x0 DUP1 REVERT JUMPDEST POP PUSH2 0xFB PUSH1 0x4 DUP1 CALLDATASIZE SUB DUP2 ADD SWAP1 PUSH2 0xF6 SWAP2 SWAP1 PUSH2 0xB6A JUMP JUMPDEST PUSH2 0x46D JUMP JUMPDEST STOP JUMPDEST CALLVALUE DUP1 ISZERO PUSH2 0x109 JUMPI PUSH1 0x0 DUP1 REVERT JUMPDEST POP PUSH2 0x112 PUSH2 0x5C7 JUMP JUMPDEST PUSH1 0x40 MLOAD PUSH2 0x11F SWAP2 SWAP1 PUSH2 0xBE8 JUMP JUMPDEST PUSH1 0x40 MLOAD DUP1 SWAP2 SUB SWAP1 RETURN JUMPDEST CALLVALUE DUP1 ISZERO PUSH2 0x134 JUMPI PUSH1 0x0 DUP1 REVERT JUMPDEST POP PUSH2 0x14F PUSH1 0x4 DUP1 CALLDATASIZE SUB DUP2 ADD SWAP1 PUSH2 0x14A SWAP2 SWAP1 PUSH2 0xB6A JUMP JUMPDEST PUSH2 0x5D1 JUMP JUMPDEST STOP JUMPDEST CALLVALUE DUP1 ISZERO PUSH2 0x15D JUMPI PUSH1 0x0 DUP1 REVERT JUMPDEST POP PUSH2 0x166 PUSH2 0x72B JUMP JUMPDEST PUSH1 0x40 MLOAD PUSH2 0x173 SWAP2 SWAP1 PUSH2 0xC24 JUMP JUMPDEST PUSH1 0x40 MLOAD DUP1 SWAP2 SUB SWAP1 RETURN JUMPDEST PUSH2 0x196 PUSH1 0x4 DUP1 CALLDATASIZE SUB DUP2 ADD SWAP1 PUSH2 0x191 SWAP2 SWAP1 PUSH2 0xC6B JUMP JUMPDEST PUSH2 0x754 JUMP JUMPDEST STOP JUMPDEST CALLVALUE DUP1 ISZERO PUSH2 0x1A4 JUMPI PUSH1 0x0 DUP1 REVERT JUMPDEST POP PUSH2 0x1AD PUSH2 0x8A7 JUMP JUMPDEST PUSH1 0x40 MLOAD PUSH2 0x1BA SWAP2 SWAP1 PUSH2 0xBE8 JUMP JUMPDEST PUSH1 0x40 MLOAD DUP1 SWAP2 SUB SWAP1 RETURN JUMPDEST TIMESTAMP DUP5 GT PUSH2 0x205 JUMPI PUSH1 0x40 MLOAD PUSH32 0x8C379A000000000000000000000000000000000000000000000000000000000 DUP2 MSTORE PUSH1 0x4 ADD PUSH2 0x1FC SWAP1 PUSH2 0xCF5 JUMP JUMPDEST PUSH1 0x40 MLOAD DUP1 SWAP2 SUB SWAP1 REVERT JUMPDEST PUSH1 0x0 DUP6 DUP6 DUP6 DUP6 PUSH1 0x40 MLOAD PUSH1 0x20 ADD PUSH2 0x21E SWAP5 SWAP4 SWAP3 SWAP2 SWAP1 PUSH2 0xD70 JUMP JUMPDEST PUSH1 0x40 MLOAD PUSH1 0x20 DUP2 DUP4 SUB SUB DUP2 MSTORE SWAP1 PUSH1 0x40 MSTORE SWAP1 POP PUSH1 0x0 DUP1 SLOAD SWAP1 PUSH2 0x100 EXP SWAP1 DIV PUSH20 0xFFFFFFFFFFFFFFFFFFFFFFFFFFFFFFFFFFFFFFFF AND PUSH20 0xFFFFFFFFFFFFFFFFFFFFFFFFFFFFFFFFFFFFFFFF AND PUSH4 0xBA73659A DUP4 DUP4 DUP7 PUSH1 0x40 MLOAD DUP5 PUSH4 0xFFFFFFFF AND PUSH1 0xE0 SHL DUP2 MSTORE PUSH1 0x4 ADD PUSH2 0x28C SWAP4 SWAP3 SWAP2 SWAP1 PUSH2 0xE50 JUMP JUMPDEST PUSH1 0x20 PUSH1 0x40 MLOAD DUP1 DUP4 SUB DUP2 PUSH1 0x0 DUP8 DUP1 EXTCODESIZE ISZERO DUP1 ISZERO PUSH2 0x2A6 JUMPI PUSH1 0x0 DUP1 REVERT JUMPDEST POP GAS CALL ISZERO DUP1 ISZERO PUSH2 0x2BA JUMPI RETURNDATASIZE PUSH1 0x0 DUP1 RETURNDATACOPY RETURNDATASIZE PUSH1 0x0 REVERT JUMPDEST POP POP POP POP PUSH1 0x40 MLOAD RETURNDATASIZE PUSH1 0x1F NOT PUSH1 0x1F DUP3 ADD AND DUP3 ADD DUP1 PUSH1 0x40 MSTORE POP DUP2 ADD SWAP1 PUSH2 0x2DE SWAP2 SWAP1 PUSH2 0xECD JUMP JUMPDEST PUSH2 0x31D JUMPI PUSH1 0x40 MLOAD PUSH32 0x8C379A000000000000000000000000000000000000000000000000000000000 DUP2 MSTORE PUSH1 0x4 ADD PUSH2 0x314 SWAP1 PUSH2 0xF46 JUMP JUMPDEST PUSH1 0x40 MLOAD DUP1 SWAP2 SUB SWAP1 REVERT JUMPDEST PUSH1 0x1 PUSH1 0x0 SWAP1 SLOAD SWAP1 PUSH2 0x100 EXP SWAP1 DIV PUSH20 0xFFFFFFFFFFFFFFFFFFFFFFFFFFFFFFFFFFFFFFFF AND PUSH20 0xFFFFFFFFFFFFFFFFFFFFFFFFFFFFFFFFFFFFFFFF AND PUSH4 0xF3FEF3A3 DUP6 DUP9 PUSH1 0x40 MLOAD DUP4 PUSH4 0xFFFFFFFF AND PUSH1 0xE0 SHL DUP2 MSTORE PUSH1 0x4 ADD PUSH2 0x37A SWAP3 SWAP2 SWAP1 PUSH2 0xF66 JUMP JUMPDEST PUSH1 0x20 PUSH1 0x40 MLOAD DUP1 DUP4 SUB DUP2 PUSH1 0x0 DUP8 DUP1 EXTCODESIZE ISZERO DUP1 ISZERO PUSH2 0x394 JUMPI PUSH1 0x0 DUP1 REVERT JUMPDEST POP GAS CALL ISZERO DUP1 ISZERO PUSH2 0x3A8 JUMPI RETURNDATASIZE PUSH1 0x0 DUP1 RETURNDATACOPY RETURNDATASIZE PUSH1 0x0 REVERT JUMPDEST POP POP POP POP PUSH1 0x40 MLOAD RETURNDATASIZE PUSH1 0x1F NOT PUSH1 0x1F DUP3 ADD AND DUP3 ADD DUP1 PUSH1 0x40 MSTORE POP DUP2 ADD SWAP1 PUSH2 0x3CC SWAP2 SWAP1 PUSH2 0xECD JUMP JUMPDEST PUSH2 0x40B JUMPI PUSH1 0x40 MLOAD PUSH32 0x8C379A000000000000000000000000000000000000000000000000000000000 DUP2 MSTORE PUSH1 0x4 ADD PUSH2 0x402 SWAP1 PUSH2 0x1001 JUMP JUMPDEST PUSH1 0x40 MLOAD DUP1 SWAP2 SUB SWAP1 REVERT JUMPDEST DUP4 PUSH20 0xFFFFFFFFFFFFFFFFFFFFFFFFFFFFFFFFFFFFFFFF AND PUSH32 0x6875A38A87618C964B80397BB7582CE2D937C2D458335F1EF75BBB9B8A69CE53 DUP8 DUP6 PUSH1 0x40 MLOAD PUSH2 0x453 SWAP3 SWAP2 SWAP1 PUSH2 0x1021 JUMP JUMPDEST PUSH1 0x40 MLOAD DUP1 SWAP2 SUB SWAP1 LOG2 POP POP POP POP POP POP JUMP JUMPDEST PUSH1 0x0 PUSH1 0x4 SLOAD SWAP1 POP SWAP1 JUMP JUMPDEST PUSH1 0x0 DUP4 DUP4 PUSH1 0x40 MLOAD PUSH1 0x20 ADD PUSH2 0x482 SWAP3 SWAP2 SWAP1 PUSH2 0x1096 JUMP JUMPDEST PUSH1 0x40 MLOAD PUSH1 0x20 DUP2 DUP4 SUB SUB DUP2 MSTORE SWAP1 PUSH1 0x40 MSTORE SWAP1 POP PUSH1 0x0 DUP1 SLOAD SWAP1 PUSH2 0x100 EXP SWAP1 DIV PUSH20 0xFFFFFFFFFFFFFFFFFFFFFFFFFFFFFFFFFFFFFFFF AND PUSH20 0xFFFFFFFFFFFFFFFFFFFFFFFFFFFFFFFFFFFFFFFF AND PUSH4 0xBA73659A DUP4 DUP4 DUP7 PUSH1 0x40 MLOAD DUP5 PUSH4 0xFFFFFFFF AND PUSH1 0xE0 SHL DUP2 MSTORE PUSH1 0x4 ADD PUSH2 0x4F0 SWAP4 SWAP3 SWAP2 SWAP1 PUSH2 0xE50 JUMP JUMPDEST PUSH1 0x20 PUSH1 0x40 MLOAD DUP1 DUP4 SUB DUP2 PUSH1 0x0 DUP8 DUP1 EXTCODESIZE ISZERO DUP1 ISZERO PUSH2 0x50A JUMPI PUSH1 0x0 DUP1 REVERT JUMPDEST POP GAS CALL ISZERO DUP1 ISZERO PUSH2 0x51E JUMPI RETURNDATASIZE PUSH1 0x0 DUP1 RETURNDATACOPY RETURNDATASIZE PUSH1 0x0 REVERT JUMPDEST POP POP POP POP PUSH1 0x40 MLOAD RETURNDATASIZE PUSH1 0x1F NOT PUSH1 0x1F DUP3 ADD AND DUP3 ADD DUP1 PUSH1 0x40 MSTORE POP DUP2 ADD SWAP1 PUSH2 0x542 SWAP2 SWAP1 PUSH2 0xECD JUMP JUMPDEST PUSH2 0x581 JUMPI PUSH1 0x40 MLOAD PUSH32 0x8C379A000000000000000000000000000000000000000000000000000000000 DUP2 MSTORE PUSH1 0x4 ADD PUSH2 0x578 SWAP1 PUSH2 0xF46 JUMP JUMPDEST PUSH1 0x40 MLOAD DUP1 SWAP2 SUB SWAP1 REVERT JUMPDEST DUP4 PUSH1 0x3 DUP2 SWAP1 SSTORE POP PUSH32 0x833D0D7919B4BA3E0DFBD5D7BD9ED614652DCFD8F80B43DCFC1CE2A7356A38FA DUP5 DUP5 PUSH1 0x40 MLOAD PUSH2 0x5B9 SWAP3 SWAP2 SWAP1 PUSH2 0x1021 JUMP JUMPDEST PUSH1 0x40 MLOAD DUP1 SWAP2 SUB SWAP1 LOG1 POP POP POP POP JUMP JUMPDEST PUSH1 0x0 PUSH1 0x2 SLOAD SWAP1 POP SWAP1 JUMP JUMPDEST PUSH1 0x0 DUP4 DUP4 PUSH1 0x40 MLOAD PUSH1 0x20 ADD PUSH2 0x5E6 SWAP3 SWAP2 SWAP1 PUSH2 0x111E JUMP JUMPDEST PUSH1 0x40 MLOAD PUSH1 0x20 DUP2 DUP4 SUB SUB DUP2 MSTORE SWAP1 PUSH1 0x40 MSTORE SWAP1 POP PUSH1 0x0 DUP1 SLOAD SWAP1 PUSH2 0x100 EXP SWAP1 DIV PUSH20 0xFFFFFFFFFFFFFFFFFFFFFFFFFFFFFFFFFFFFFFFF AND PUSH20 0xFFFFFFFFFFFFFFFFFFFFFFFFFFFFFFFFFFFFFFFF AND PUSH4 0xBA73659A DUP4 DUP4 DUP7 PUSH1 0x40 MLOAD DUP5 PUSH4 0xFFFFFFFF AND PUSH1 0xE0 SHL DUP2 MSTORE PUSH1 0x4 ADD PUSH2 0x654 SWAP4 SWAP3 SWAP2 SWAP1 PUSH2 0xE50 JUMP JUMPDEST PUSH1 0x20 PUSH1 0x40 MLOAD DUP1 DUP4 SUB DUP2 PUSH1 0x0 DUP8 DUP1 EXTCODESIZE ISZERO DUP1 ISZERO PUSH2 0x66E JUMPI PUSH1 0x0 DUP1 REVERT JUMPDEST POP GAS CALL ISZERO DUP1 ISZERO PUSH2 0x682 JUMPI RETURNDATASIZE PUSH1 0x0 DUP1 RETURNDATACOPY RETURNDATASIZE PUSH1 0x0 REVERT JUMPDEST POP POP POP POP PUSH1 0x40 MLOAD RETURNDATASIZE PUSH1 0x1F NOT PUSH1 0x1F DUP3 ADD AND DUP3 ADD DUP1 PUSH1 0x40 MSTORE POP DUP2 ADD SWAP1 PUSH2 0x6A6 SWAP2 SWAP1 PUSH2 0xECD JUMP JUMPDEST PUSH2 0x6E5 JUMPI PUSH1 0x40 MLOAD PUSH32 0x8C379A000000000000000000000000000000000000000000000000000000000 DUP2 MSTORE PUSH1 0x4 ADD PUSH2 0x6DC SWAP1 PUSH2 0xF46 JUMP JUMPDEST PUSH1 0x40 MLOAD DUP1 SWAP2 SUB SWAP1 REVERT JUMPDEST DUP4 PUSH1 0x2 DUP2 SWAP1 SSTORE POP PUSH32 0x963CDAD18217AFF9FFB0F4B78A5AD965769F190AFF78736F0F958D58AB3EF9C9 DUP5 DUP5 PUSH1 0x40 MLOAD PUSH2 0x71D SWAP3 SWAP2 SWAP1 PUSH2 0x1021 JUMP JUMPDEST PUSH1 0x40 MLOAD DUP1 SWAP2 SUB SWAP1 LOG1 POP POP POP POP JUMP JUMPDEST PUSH1 0x0 DUP1 PUSH1 0x0 SWAP1 SLOAD SWAP1 PUSH2 0x100 EXP SWAP1 DIV PUSH20 0xFFFFFFFFFFFFFFFFFFFFFFFFFFFFFFFFFFFFFFFF AND SWAP1 POP SWAP1 JUMP JUMPDEST PUSH1 0x0 PUSH1 0x3 SLOAD EQ DUP1 PUSH2 0x767 JUMPI POP PUSH1 0x3 SLOAD CALLVALUE GT ISZERO JUMPDEST PUSH2 0x7A6 JUMPI PUSH1 0x40 MLOAD PUSH32 0x8C379A000000000000000000000000000000000000000000000000000000000 DUP2 MSTORE PUSH1 0x4 ADD PUSH2 0x79D SWAP1 PUSH2 0x11A6 JUMP JUMPDEST PUSH1 0x40 MLOAD DUP1 SWAP2 SUB SWAP1 REVERT JUMPDEST PUSH1 0x2 SLOAD CALLVALUE LT ISZERO PUSH2 0x7EB JUMPI PUSH1 0x40 MLOAD PUSH32 0x8C379A000000000000000000000000000000000000000000000000000000000 DUP2 MSTORE PUSH1 0x4 ADD PUSH2 0x7E2 SWAP1 PUSH2 0x1212 JUMP JUMPDEST PUSH1 0x40 MLOAD DUP1 SWAP2 SUB SWAP1 REVERT JUMPDEST PUSH1 0x1 PUSH1 0x0 SWAP1 SLOAD SWAP1 PUSH2 0x100 EXP SWAP1 DIV PUSH20 0xFFFFFFFFFFFFFFFFFFFFFFFFFFFFFFFFFFFFFFFF AND PUSH20 0xFFFFFFFFFFFFFFFFFFFFFFFFFFFFFFFFFFFFFFFF AND PUSH2 0x8FC CALLVALUE SWAP1 DUP2 ISZERO MUL SWAP1 PUSH1 0x40 MLOAD PUSH1 0x0 PUSH1 0x40 MLOAD DUP1 DUP4 SUB DUP2 DUP6 DUP9 DUP9 CALL SWAP4 POP POP POP POP ISZERO DUP1 ISZERO PUSH2 0x853 JUMPI RETURNDATASIZE PUSH1 0x0 DUP1 RETURNDATACOPY RETURNDATASIZE PUSH1 0x0 REVERT JUMPDEST POP CALLER PUSH20 0xFFFFFFFFFFFFFFFFFFFFFFFFFFFFFFFFFFFFFFFF AND PUSH32 0xB1F58F9EAF7EB348DF2FD084D223A7A441BC2C9F80C1BDAE06DB7131D9B7D7EB CALLVALUE DUP4 PUSH1 0x40 MLOAD PUSH2 0x89C SWAP3 SWAP2 SWAP1 PUSH2 0x1232 JUMP JUMPDEST PUSH1 0x40 MLOAD DUP1 SWAP2 SUB SWAP1 LOG2 POP JUMP JUMPDEST PUSH1 0x0 PUSH1 0x3 SLOAD SWAP1 POP SWAP1 JUMP JUMPDEST PUSH1 0x0 PUSH1 0x40 MLOAD SWAP1 POP SWAP1 JUMP JUMPDEST PUSH1 0x0 DUP1 REVERT JUMPDEST PUSH1 0x0 DUP1 REVERT JUMPDEST PUSH1 0x0 DUP2 SWAP1 POP SWAP2 SWAP1 POP JUMP JUMPDEST PUSH2 0x8D8 DUP2 PUSH2 0x8C5 JUMP JUMPDEST DUP2 EQ PUSH2 0x8E3 JUMPI PUSH1 0x0 DUP1 REVERT JUMPDEST POP JUMP JUMPDEST PUSH1 0x0 DUP2 CALLDATALOAD SWAP1 POP PUSH2 0x8F5 DUP2 PUSH2 0x8CF JUMP JUMPDEST SWAP3 SWAP2 POP POP JUMP JUMPDEST PUSH1 0x0 PUSH20 0xFFFFFFFFFFFFFFFFFFFFFFFFFFFFFFFFFFFFFFFF DUP3 AND SWAP1 POP SWAP2 SWAP1 POP JUMP JUMPDEST PUSH1 0x0 PUSH2 0x926 DUP3 PUSH2 0x8FB JUMP JUMPDEST SWAP1 POP SWAP2 SWAP1 POP JUMP JUMPDEST PUSH2 0x936 DUP2 PUSH2 0x91B JUMP JUMPDEST DUP2 EQ PUSH2 0x941 JUMPI PUSH1 0x0 DUP1 REVERT JUMPDEST POP JUMP JUMPDEST PUSH1 0x0 DUP2 CALLDATALOAD SWAP1 POP PUSH2 0x953 DUP2 PUSH2 0x92D JUMP JUMPDEST SWAP3 SWAP2 POP POP JUMP JUMPDEST PUSH1 0x0 DUP1 REVERT JUMPDEST PUSH1 0x0 DUP1 REVERT JUMPDEST PUSH1 0x0 PUSH1 0x1F NOT PUSH1 0x1F DUP4 ADD AND SWAP1 POP SWAP2 SWAP1 POP JUMP JUMPDEST PUSH32 0x4E487B7100000000000000000000000000000000000000000000000000000000 PUSH1 0x0 MSTORE PUSH1 0x41 PUSH1 0x4 MSTORE PUSH1 0x24 PUSH1 0x0 REVERT JUMPDEST PUSH2 0x9AC DUP3 PUSH2 0x963 JUMP JUMPDEST DUP2 ADD DUP2 DUP2 LT PUSH8 0xFFFFFFFFFFFFFFFF DUP3 GT OR ISZERO PUSH2 0x9CB JUMPI PUSH2 0x9CA PUSH2 0x974 JUMP JUMPDEST JUMPDEST DUP1 PUSH1 0x40 MSTORE POP POP POP JUMP JUMPDEST PUSH1 0x0 PUSH2 0x9DE PUSH2 0x8B1 JUMP JUMPDEST SWAP1 POP PUSH2 0x9EA DUP3 DUP3 PUSH2 0x9A3 JUMP JUMPDEST SWAP2 SWAP1 POP JUMP JUMPDEST PUSH1 0x0 PUSH8 0xFFFFFFFFFFFFFFFF DUP3 GT ISZERO PUSH2 0xA0A JUMPI PUSH2 0xA09 PUSH2 0x974 JUMP JUMPDEST JUMPDEST PUSH2 0xA13 DUP3 PUSH2 0x963 JUMP JUMPDEST SWAP1 POP PUSH1 0x20 DUP2 ADD SWAP1 POP SWAP2 SWAP1 POP JUMP JUMPDEST DUP3 DUP2 DUP4 CALLDATACOPY PUSH1 0x0 DUP4 DUP4 ADD MSTORE POP POP POP JUMP JUMPDEST PUSH1 0x0 PUSH2 0xA42 PUSH2 0xA3D DUP5 PUSH2 0x9EF JUMP JUMPDEST PUSH2 0x9D4 JUMP JUMPDEST SWAP1 POP DUP3 DUP2 MSTORE PUSH1 0x20 DUP2 ADD DUP5 DUP5 DUP5 ADD GT ISZERO PUSH2 0xA5E JUMPI PUSH2 0xA5D PUSH2 0x95E JUMP JUMPDEST JUMPDEST PUSH2 0xA69 DUP5 DUP3 DUP6 PUSH2 0xA20 JUMP JUMPDEST POP SWAP4 SWAP3 POP POP POP JUMP JUMPDEST PUSH1 0x0 DUP3 PUSH1 0x1F DUP4 ADD SLT PUSH2 0xA86 JUMPI PUSH2 0xA85 PUSH2 0x959 JUMP JUMPDEST JUMPDEST DUP2 CALLDATALOAD PUSH2 0xA96 DUP5 DUP3 PUSH1 0x20 DUP7 ADD PUSH2 0xA2F JUMP JUMPDEST SWAP2 POP POP SWAP3 SWAP2 POP POP JUMP JUMPDEST PUSH1 0x0 DUP1 PUSH1 0x0 DUP1 PUSH1 0x0 PUSH1 0xA0 DUP7 DUP9 SUB SLT ISZERO PUSH2 0xABB JUMPI PUSH2 0xABA PUSH2 0x8BB JUMP JUMPDEST JUMPDEST PUSH1 0x0 PUSH2 0xAC9 DUP9 DUP3 DUP10 ADD PUSH2 0x8E6 JUMP JUMPDEST SWAP6 POP POP PUSH1 0x20 PUSH2 0xADA DUP9 DUP3 DUP10 ADD PUSH2 0x8E6 JUMP JUMPDEST SWAP5 POP POP PUSH1 0x40 PUSH2 0xAEB DUP9 DUP3 DUP10 ADD PUSH2 0x944 JUMP JUMPDEST SWAP4 POP POP PUSH1 0x60 PUSH2 0xAFC DUP9 DUP3 DUP10 ADD PUSH2 0x8E6 JUMP JUMPDEST SWAP3 POP POP PUSH1 0x80 DUP7 ADD CALLDATALOAD PUSH8 0xFFFFFFFFFFFFFFFF DUP2 GT ISZERO PUSH2 0xB1D JUMPI PUSH2 0xB1C PUSH2 0x8C0 JUMP JUMPDEST JUMPDEST PUSH2 0xB29 DUP9 DUP3 DUP10 ADD PUSH2 0xA71 JUMP JUMPDEST SWAP2 POP POP SWAP3 SWAP6 POP SWAP3 SWAP6 SWAP1 SWAP4 POP JUMP JUMPDEST PUSH1 0x0 DUP2 SWAP1 POP SWAP2 SWAP1 POP JUMP JUMPDEST PUSH2 0xB49 DUP2 PUSH2 0xB36 JUMP JUMPDEST DUP3 MSTORE POP POP JUMP JUMPDEST PUSH1 0x0 PUSH1 0x20 DUP3 ADD SWAP1 POP PUSH2 0xB64 PUSH1 0x0 DUP4 ADD DUP5 PUSH2 0xB40 JUMP JUMPDEST SWAP3 SWAP2 POP POP JUMP JUMPDEST PUSH1 0x0 DUP1 PUSH1 0x0 PUSH1 0x60 DUP5 DUP7 SUB SLT ISZERO PUSH2 0xB83 JUMPI PUSH2 0xB82 PUSH2 0x8BB JUMP JUMPDEST JUMPDEST PUSH1 0x0 PUSH2 0xB91 DUP7 DUP3 DUP8 ADD PUSH2 0x8E6 JUMP JUMPDEST SWAP4 POP POP PUSH1 0x20 PUSH2 0xBA2 DUP7 DUP3 DUP8 ADD PUSH2 0x8E6 JUMP JUMPDEST SWAP3 POP POP PUSH1 0x40 DUP5 ADD CALLDATALOAD PUSH8 0xFFFFFFFFFFFFFFFF DUP2 GT ISZERO PUSH2 0xBC3 JUMPI PUSH2 0xBC2 PUSH2 0x8C0 JUMP JUMPDEST JUMPDEST PUSH2 0xBCF DUP7 DUP3 DUP8 ADD PUSH2 0xA71 JUMP JUMPDEST SWAP2 POP POP SWAP3 POP SWAP3 POP SWAP3 JUMP JUMPDEST PUSH2 0xBE2 DUP2 PUSH2 0x8C5 JUMP JUMPDEST DUP3 MSTORE POP POP JUMP JUMPDEST PUSH1 0x0 PUSH1 0x20 DUP3 ADD SWAP1 POP PUSH2 0xBFD PUSH1 0x0 DUP4 ADD DUP5 PUSH2 0xBD9 JUMP JUMPDEST SWAP3 SWAP2 POP POP JUMP JUMPDEST PUSH1 0x0 PUSH2 0xC0E DUP3 PUSH2 0x8FB JUMP JUMPDEST SWAP1 POP SWAP2 SWAP1 POP JUMP JUMPDEST PUSH2 0xC1E DUP2 PUSH2 0xC03 JUMP JUMPDEST DUP3 MSTORE POP POP JUMP JUMPDEST PUSH1 0x0 PUSH1 0x20 DUP3 ADD SWAP1 POP PUSH2 0xC39 PUSH1 0x0 DUP4 ADD DUP5 PUSH2 0xC15 JUMP JUMPDEST SWAP3 SWAP2 POP POP JUMP JUMPDEST PUSH2 0xC48 DUP2 PUSH2 0xB36 JUMP JUMPDEST DUP2 EQ PUSH2 0xC53 JUMPI PUSH1 0x0 DUP1 REVERT JUMPDEST POP JUMP JUMPDEST PUSH1 0x0 DUP2 CALLDATALOAD SWAP1 POP PUSH2 0xC65 DUP2 PUSH2 0xC3F JUMP JUMPDEST SWAP3 SWAP2 POP POP JUMP JUMPDEST PUSH1 0x0 PUSH1 0x20 DUP3 DUP5 SUB SLT ISZERO PUSH2 0xC81 JUMPI PUSH2 0xC80 PUSH2 0x8BB JUMP JUMPDEST JUMPDEST PUSH1 0x0 PUSH2 0xC8F DUP5 DUP3 DUP6 ADD PUSH2 0xC56 JUMP JUMPDEST SWAP2 POP POP SWAP3 SWAP2 POP POP JUMP JUMPDEST PUSH1 0x0 DUP3 DUP3 MSTORE PUSH1 0x20 DUP3 ADD SWAP1 POP SWAP3 SWAP2 POP POP JUMP JUMPDEST PUSH32 0x7769746864726177616C20686173206578706972656400000000000000000000 PUSH1 0x0 DUP3 ADD MSTORE POP JUMP JUMPDEST PUSH1 0x0 PUSH2 0xCDF PUSH1 0x16 DUP4 PUSH2 0xC98 JUMP JUMPDEST SWAP2 POP PUSH2 0xCEA DUP3 PUSH2 0xCA9 JUMP JUMPDEST PUSH1 0x20 DUP3 ADD SWAP1 POP SWAP2 SWAP1 POP JUMP JUMPDEST PUSH1 0x0 PUSH1 0x20 DUP3 ADD SWAP1 POP DUP2 DUP2 SUB PUSH1 0x0 DUP4 ADD MSTORE PUSH2 0xD0E DUP2 PUSH2 0xCD2 JUMP JUMPDEST SWAP1 POP SWAP2 SWAP1 POP JUMP JUMPDEST PUSH2 0xD1E DUP2 PUSH2 0x91B JUMP JUMPDEST DUP3 MSTORE POP POP JUMP JUMPDEST PUSH32 0x77697468647261775F6173736574000000000000000000000000000000000000 PUSH1 0x0 DUP3 ADD MSTORE POP JUMP JUMPDEST PUSH1 0x0 PUSH2 0xD5A PUSH1 0xE DUP4 PUSH2 0xC98 JUMP JUMPDEST SWAP2 POP PUSH2 0xD65 DUP3 PUSH2 0xD24 JUMP JUMPDEST PUSH1 0x20 DUP3 ADD SWAP1 POP SWAP2 SWAP1 POP JUMP JUMPDEST PUSH1 0x0 PUSH1 0xA0 DUP3 ADD SWAP1 POP PUSH2 0xD85 PUSH1 0x0 DUP4 ADD DUP8 PUSH2 0xBD9 JUMP JUMPDEST PUSH2 0xD92 PUSH1 0x20 DUP4 ADD DUP7 PUSH2 0xBD9 JUMP JUMPDEST PUSH2 0xD9F PUSH1 0x40 DUP4 ADD DUP6 PUSH2 0xD15 JUMP JUMPDEST PUSH2 0xDAC PUSH1 0x60 DUP4 ADD DUP5 PUSH2 0xBD9 JUMP JUMPDEST DUP2 DUP2 SUB PUSH1 0x80 DUP4 ADD MSTORE PUSH2 0xDBD DUP2 PUSH2 0xD4D JUMP JUMPDEST SWAP1 POP SWAP6 SWAP5 POP POP POP POP POP JUMP JUMPDEST PUSH1 0x0 DUP2 MLOAD SWAP1 POP SWAP2 SWAP1 POP JUMP JUMPDEST PUSH1 0x0 DUP3 DUP3 MSTORE PUSH1 0x20 DUP3 ADD SWAP1 POP SWAP3 SWAP2 POP POP JUMP JUMPDEST PUSH1 0x0 JUMPDEST DUP4 DUP2 LT ISZERO PUSH2 0xE02 JUMPI DUP1 DUP3 ADD MLOAD DUP2 DUP5 ADD MSTORE PUSH1 0x20 DUP2 ADD SWAP1 POP PUSH2 0xDE7 JUMP JUMPDEST DUP4 DUP2 GT ISZERO PUSH2 0xE11 JUMPI PUSH1 0x0 DUP5 DUP5 ADD MSTORE JUMPDEST POP POP POP POP JUMP JUMPDEST PUSH1 0x0 PUSH2 0xE22 DUP3 PUSH2 0xDC8 JUMP JUMPDEST PUSH2 0xE2C DUP2 DUP6 PUSH2 0xDD3 JUMP JUMPDEST SWAP4 POP PUSH2 0xE3C DUP2 DUP6 PUSH1 0x20 DUP7 ADD PUSH2 0xDE4 JUMP JUMPDEST PUSH2 0xE45 DUP2 PUSH2 0x963 JUMP JUMPDEST DUP5 ADD SWAP2 POP POP SWAP3 SWAP2 POP POP JUMP JUMPDEST PUSH1 0x0 PUSH1 0x60 DUP3 ADD SWAP1 POP DUP2 DUP2 SUB PUSH1 0x0 DUP4 ADD MSTORE PUSH2 0xE6A DUP2 DUP7 PUSH2 0xE17 JUMP JUMPDEST SWAP1 POP DUP2 DUP2 SUB PUSH1 0x20 DUP4 ADD MSTORE PUSH2 0xE7E DUP2 DUP6 PUSH2 0xE17 JUMP JUMPDEST SWAP1 POP PUSH2 0xE8D PUSH1 0x40 DUP4 ADD DUP5 PUSH2 0xBD9 JUMP JUMPDEST SWAP5 SWAP4 POP POP POP POP JUMP JUMPDEST PUSH1 0x0 DUP2 ISZERO ISZERO SWAP1 POP SWAP2 SWAP1 POP JUMP JUMPDEST PUSH2 0xEAA DUP2 PUSH2 0xE95 JUMP JUMPDEST DUP2 EQ PUSH2 0xEB5 JUMPI PUSH1 0x0 DUP1 REVERT JUMPDEST POP JUMP JUMPDEST PUSH1 0x0 DUP2 MLOAD SWAP1 POP PUSH2 0xEC7 DUP2 PUSH2 0xEA1 JUMP JUMPDEST SWAP3 SWAP2 POP POP JUMP JUMPDEST PUSH1 0x0 PUSH1 0x20 DUP3 DUP5 SUB SLT ISZERO PUSH2 0xEE3 JUMPI PUSH2 0xEE2 PUSH2 0x8BB JUMP JUMPDEST JUMPDEST PUSH1 0x0 PUSH2 0xEF1 DUP5 DUP3 DUP6 ADD PUSH2 0xEB8 JUMP JUMPDEST SWAP2 POP POP SWAP3 SWAP2 POP POP JUMP JUMPDEST PUSH32 0x626164207369676E617475726573000000000000000000000000000000000000 PUSH1 0x0 DUP3 ADD MSTORE POP JUMP JUMPDEST PUSH1 0x0 PUSH2 0xF30 PUSH1 0xE DUP4 PUSH2 0xC98 JUMP JUMPDEST SWAP2 POP PUSH2 0xF3B DUP3 PUSH2 0xEFA JUMP JUMPDEST PUSH1 0x20 DUP3 ADD SWAP1 POP SWAP2 SWAP1 POP JUMP JUMPDEST PUSH1 0x0 PUSH1 0x20 DUP3 ADD SWAP1 POP DUP2 DUP2 SUB PUSH1 0x0 DUP4 ADD MSTORE PUSH2 0xF5F DUP2 PUSH2 0xF23 JUMP JUMPDEST SWAP1 POP SWAP2 SWAP1 POP JUMP JUMPDEST PUSH1 0x0 PUSH1 0x40 DUP3 ADD SWAP1 POP PUSH2 0xF7B PUSH1 0x0 DUP4 ADD DUP6 PUSH2 0xD15 JUMP JUMPDEST PUSH2 0xF88 PUSH1 0x20 DUP4 ADD DUP5 PUSH2 0xBD9 JUMP JUMPDEST SWAP4 SWAP3 POP POP POP JUMP JUMPDEST PUSH32 0x746F6B656E20646964206E6F74207472616E736665722C2072656A6563746564 PUSH1 0x0 DUP3 ADD MSTORE PUSH32 0x20627920617373657420706F6F6C2E0000000000000000000000000000000000 PUSH1 0x20 DUP3 ADD MSTORE POP JUMP JUMPDEST PUSH1 0x0 PUSH2 0xFEB PUSH1 0x2F DUP4 PUSH2 0xC98 JUMP JUMPDEST SWAP2 POP PUSH2 0xFF6 DUP3 PUSH2 0xF8F JUMP JUMPDEST PUSH1 0x40 DUP3 ADD SWAP1 POP SWAP2 SWAP1 POP JUMP JUMPDEST PUSH1 0x0 PUSH1 0x20 DUP3 ADD SWAP1 POP DUP2 DUP2 SUB PUSH1 0x0 DUP4 ADD MSTORE PUSH2 0x101A DUP2 PUSH2 0xFDE JUMP JUMPDEST SWAP1 POP SWAP2 SWAP1 POP JUMP JUMPDEST PUSH1 0x0 PUSH1 0x40 DUP3 ADD SWAP1 POP PUSH2 0x1036 PUSH1 0x0 DUP4 ADD DUP6 PUSH2 0xBD9 JUMP JUMPDEST PUSH2 0x1043 PUSH1 0x20 DUP4 ADD DUP5 PUSH2 0xBD9 JUMP JUMPDEST SWAP4 SWAP3 POP POP POP JUMP JUMPDEST PUSH32 0x7365745F6465706F7369745F6D6178696D756D00000000000000000000000000 PUSH1 0x0 DUP3 ADD MSTORE POP JUMP JUMPDEST PUSH1 0x0 PUSH2 0x1080 PUSH1 0x13 DUP4 PUSH2 0xC98 JUMP JUMPDEST SWAP2 POP PUSH2 0x108B DUP3 PUSH2 0x104A JUMP JUMPDEST PUSH1 0x20 DUP3 ADD SWAP1 POP SWAP2 SWAP1 POP JUMP JUMPDEST PUSH1 0x0 PUSH1 0x60 DUP3 ADD SWAP1 POP PUSH2 0x10AB PUSH1 0x0 DUP4 ADD DUP6 PUSH2 0xBD9 JUMP JUMPDEST PUSH2 0x10B8 PUSH1 0x20 DUP4 ADD DUP5 PUSH2 0xBD9 JUMP JUMPDEST DUP2 DUP2 SUB PUSH1 0x40 DUP4 ADD MSTORE PUSH2 0x10C9 DUP2 PUSH2 0x1073 JUMP JUMPDEST SWAP1 POP SWAP4 SWAP3 POP POP POP JUMP JUMPDEST PUSH32 0x7365745F6465706F7369745F6D696E696D756D00000000000000000000000000 PUSH1 0x0 DUP3 ADD MSTORE POP JUMP JUMPDEST PUSH1 0x0 PUSH2 0x1108 PUSH1 0x13 DUP4 PUSH2 0xC98 JUMP JUMPDEST SWAP2 POP PUSH2 0x1113 DUP3 PUSH2 0x10D2 JUMP JUMPDEST PUSH1 0x20 DUP3 ADD SWAP1 POP SWAP2 SWAP1 POP JUMP JUMPDEST PUSH1 0x0 PUSH1 0x60 DUP3 ADD SWAP1 POP PUSH2 0x1133 PUSH1 0x0 DUP4 ADD DUP6 PUSH2 0xBD9 JUMP JUMPDEST PUSH2 0x1140 PUSH1 0x20 DUP4 ADD DUP5 PUSH2 0xBD9 JUMP JUMPDEST DUP2 DUP2 SUB PUSH1 0x40 DUP4 ADD MSTORE PUSH2 0x1151 DUP2 PUSH2 0x10FB JUMP JUMPDEST SWAP1 POP SWAP4 SWAP3 POP POP POP JUMP JUMPDEST PUSH32 0x6465706F7369742061626F7665206D6178696D756D0000000000000000000000 PUSH1 0x0 DUP3 ADD MSTORE POP JUMP JUMPDEST PUSH1 0x0 PUSH2 0x1190 PUSH1 0x15 DUP4 PUSH2 0xC98 JUMP JUMPDEST SWAP2 POP PUSH2 0x119B DUP3 PUSH2 0x115A JUMP JUMPDEST PUSH1 0x20 DUP3 ADD SWAP1 POP SWAP2 SWAP1 POP JUMP JUMPDEST PUSH1 0x0 PUSH1 0x20 DUP3 ADD SWAP1 POP DUP2 DUP2 SUB PUSH1 0x0 DUP4 ADD MSTORE PUSH2 0x11BF DUP2 PUSH2 0x1183 JUMP JUMPDEST SWAP1 POP SWAP2 SWAP1 POP JUMP JUMPDEST PUSH32 0x6465706F7369742062656C6F77206D696E696D756D0000000000000000000000 PUSH1 0x0 DUP3 ADD MSTORE POP JUMP JUMPDEST PUSH1 0x0 PUSH2 0x11FC PUSH1 0x15 DUP4 PUSH2 0xC98 JUMP JUMPDEST SWAP2 POP PUSH2 0x1207 DUP3 PUSH2 0x11C6 JUMP JUMPDEST PUSH1 0x20 DUP3 ADD SWAP1 POP SWAP2 SWAP1 POP JUMP JUMPDEST PUSH1 0x0 PUSH1 0x20 DUP3 ADD SWAP1 POP DUP2 DUP2 SUB PUSH1 0x0 DUP4 ADD MSTORE PUSH2 0x122B DUP2 PUSH2 0x11EF JUMP JUMPDEST SWAP1 POP SWAP2 SWAP1 POP JUMP JUMPDEST PUSH1 0x0 PUSH1 0x40 DUP3 ADD SWAP1 POP PUSH2 0x1247 PUSH1 0x0 DUP4 ADD DUP6 PUSH2 0xBD9 JUMP JUMPDEST PUSH2 0x1254 PUSH1 0x20 DUP4 ADD DUP5 PUSH2 0xB40 JUMP JUMPDEST SWAP4 SWAP3 POP POP POP JUMP INVALID LOG2 PUSH5 0x6970667358 0x22 SLT KECCAK256 SWAP15 DUP6 0xD7 SIGNEXTEND 0xD8 0xC9 DUP6 CODECOPY 0xA6 PUSH14 0xA08A1C7A06BF86FF51CCDBD77E4D SWAP14 0xBA SAR DUP8 OR DUP2 0x4B SHL PUSH5 0x736F6C6343 STOP ADDMOD ADDMOD STOP CALLER "},"methodIdentifiers":{"deposit_asset(bytes32)":"ceaf221b","get_deposit_maximum()":"d172369c","get_deposit_minimum()":"80bc0668","get_multisig_control_address()":"c58dc3b9","get_vega_asset_id()":"44957f74","set_deposit_maximum(uint256,uint256,bytes)":"7db94c82","set_deposit_minimum(uint256,uint256,bytes)":"b38ec406","withdraw_asset(uint256,uint256,address,uint256,bytes)":"39a2c7db"}}}}}