{"contracts/ETH_Asset_Pool.sol":{"ETH_Asset_Pool":{"abi":[{"inputs":[{"internalType":"address","name":"multisig_control","type":"address"}],"stateMutability":"nonpayable","type":"constructor"},{"anonymous":false,"inputs":[{"indexed":true,"internalType":"address","name":"new_address","type":"address"}],"name":"Bridge_Address_Set","type":"event"},{"anonymous":false,"inputs":[{"indexed":true,"internalType":"address","name":"new_address","type":"address"}],"name":"Multisig_Control_Set","type":"event"},{"anonymous":false,"inputs":[{"indexed":true,"internalType":"address","name":"sender","type":"address"},{"indexed":false,"internalType":"uint256","name":"amount","type":"uint256"}],"name":"Received","type":"event"},{"inputs":[],"name":"ETH_bridge_address","outputs":[{"internalType":"address","name":"","type":"address"}],"stateMutability":"view","type":"function"},{"inputs":[],"name":"multisig_control_address","outputs":[{"internalType":"address","name":"","type":"address"}],"stateMutability":"view","type":"function"},{"inputs":[{"internalType":"address","name":"new_address","type":"address"},{"internalType":"uint256","name":"nonce","type":"uint256"},{"internalType":"bytes","name":"signatures","type":"bytes"}],"name":"set_bridge_address","outputs":[],"stateMutability":"nonpayable","type":"function"},{"inputs":[{"internalType":"address","name":"new_address","type":"address"},{"internalType":"uint256","name":"nonce","type":"uint256"},{"internalType":"bytes","name":"signatures","type":"bytes"}],"name":"set_multisig_control","outputs":[],"stateMutability":"nonpayable","type":"function"},{"inputs":[{"internalType":"address payable","name":"target","type":"address"},{"internalType":"uint256","name":"amount","type":"uint256"}],"name":"withdraw","outputs":[{"internalType":"bool","name":"","type":"bool"}],"stateMutability":"nonpayable","type":"function"},{"stateMutability":"payable","type":"receive"}],"evm":{"bytecode":{"linkReferences":{},"object":"60806040523480156200001157600080fd5b50604051620011753803806200117583398181016040528101906200003791906200012b565b806000806101000a81548173ffffffffffffffffffffffffffffffffffffffff021916908373ffffffffffffffffffffffffffffffffffffffff1602179055508073ffffffffffffffffffffffffffffffffffffffff167f1143e675ad794f5bd81a05b165b166be3a4e91f17d065f08809d88cefbd6540660405160405180910390a2506200015d565b600080fd5b600073ffffffffffffffffffffffffffffffffffffffff82169050919050565b6000620000f382620000c6565b9050919050565b6200010581620000e6565b81146200011157600080fd5b50565b6000815190506200012581620000fa565b92915050565b600060208284031215620001445762000143620000c1565b5b6000620001548482850162000114565b91505092915050565b611008806200016d6000396000f3fe60806040526004361061004e5760003560e01c806317aec1b4146100a857806363bb28e0146100d3578063aeed8f95146100fc578063b82d5abd14610125578063f3fef3a314610150576100a3565b366100a3573373ffffffffffffffffffffffffffffffffffffffff167f88a5966d370b9919b20f3e2c13ff65706f196a4e32cc2c12bf57088f88525874346040516100999190610771565b60405180910390a2005b600080fd5b3480156100b457600080fd5b506100bd61018d565b6040516100ca91906107cd565b60405180910390f35b3480156100df57600080fd5b506100fa60048036038101906100f5919061099a565b6101b3565b005b34801561010857600080fd5b50610123600480360381019061011e919061099a565b610351565b005b34801561013157600080fd5b5061013a6105a8565b60405161014791906107cd565b60405180910390f35b34801561015c57600080fd5b5061017760048036038101906101729190610a47565b6105cc565b6040516101849190610aa2565b60405180910390f35b600160009054906101000a900473ffffffffffffffffffffffffffffffffffffffff1681565b600083836040516020016101c8929190610b1a565b604051602081830303815290604052905060008054906101000a900473ffffffffffffffffffffffffffffffffffffffff1673ffffffffffffffffffffffffffffffffffffffff1663ba73659a8383866040518463ffffffff1660e01b815260040161023693929190610bde565b602060405180830381600087803b15801561025057600080fd5b505af1158015610264573d6000803e3d6000fd5b505050506040513d601f19601f820116820180604052508101906102889190610c4f565b6102c7576040517f08c379a00000000000000000000000000000000000000000000000000000000081526004016102be90610cc8565b60405180910390fd5b83600160006101000a81548173ffffffffffffffffffffffffffffffffffffffff021916908373ffffffffffffffffffffffffffffffffffffffff1602179055508373ffffffffffffffffffffffffffffffffffffffff167ff57d83269802e794395bfd99d93c82bf997d03ec73f8d4c607e8ff18b8cc62f260405160405180910390a250505050565b600073ffffffffffffffffffffffffffffffffffffffff168373ffffffffffffffffffffffffffffffffffffffff1614156103c1576040517f08c379a00000000000000000000000000000000000000000000000000000000081526004016103b890610d34565b60405180910390fd5b6000833b90506000811161040a576040517f08c379a000000000000000000000000000000000000000000000000000000000815260040161040190610da0565b60405180910390fd5b6000848460405160200161041f929190610e0c565b604051602081830303815290604052905060008054906101000a900473ffffffffffffffffffffffffffffffffffffffff1673ffffffffffffffffffffffffffffffffffffffff1663ba73659a8483876040518463ffffffff1660e01b815260040161048d93929190610bde565b602060405180830381600087803b1580156104a757600080fd5b505af11580156104bb573d6000803e3d6000fd5b505050506040513d601f19601f820116820180604052508101906104df9190610c4f565b61051e576040517f08c379a000000000000000000000000000000000000000000000000000000000815260040161051590610cc8565b60405180910390fd5b846000806101000a81548173ffffffffffffffffffffffffffffffffffffffff021916908373ffffffffffffffffffffffffffffffffffffffff1602179055508473ffffffffffffffffffffffffffffffffffffffff167f1143e675ad794f5bd81a05b165b166be3a4e91f17d065f08809d88cefbd6540660405160405180910390a25050505050565b60008054906101000a900473ffffffffffffffffffffffffffffffffffffffff1681565b6000600160009054906101000a900473ffffffffffffffffffffffffffffffffffffffff1673ffffffffffffffffffffffffffffffffffffffff163373ffffffffffffffffffffffffffffffffffffffff161461065e576040517f08c379a000000000000000000000000000000000000000000000000000000000815260040161065590610e94565b60405180910390fd5b814710156106a1576040517f08c379a000000000000000000000000000000000000000000000000000000000815260040161069890610f00565b60405180910390fd5b60008373ffffffffffffffffffffffffffffffffffffffff16836040516106c790610f51565b60006040518083038185875af1925050503d8060008114610704576040519150601f19603f3d011682016040523d82523d6000602084013e610709565b606091505b505090508061074d576040517f08c379a000000000000000000000000000000000000000000000000000000000815260040161074490610fb2565b60405180910390fd5b600191505092915050565b6000819050919050565b61076b81610758565b82525050565b60006020820190506107866000830184610762565b92915050565b600073ffffffffffffffffffffffffffffffffffffffff82169050919050565b60006107b78261078c565b9050919050565b6107c7816107ac565b82525050565b60006020820190506107e260008301846107be565b92915050565b6000604051905090565b600080fd5b600080fd5b610805816107ac565b811461081057600080fd5b50565b600081359050610822816107fc565b92915050565b61083181610758565b811461083c57600080fd5b50565b60008135905061084e81610828565b92915050565b600080fd5b600080fd5b6000601f19601f8301169050919050565b7f4e487b7100000000000000000000000000000000000000000000000000000000600052604160045260246000fd5b6108a78261085e565b810181811067ffffffffffffffff821117156108c6576108c561086f565b5b80604052505050565b60006108d96107e8565b90506108e5828261089e565b919050565b600067ffffffffffffffff8211156109055761090461086f565b5b61090e8261085e565b9050602081019050919050565b82818337600083830152505050565b600061093d610938846108ea565b6108cf565b90508281526020810184848401111561095957610958610859565b5b61096484828561091b565b509392505050565b600082601f83011261098157610980610854565b5b813561099184826020860161092a565b91505092915050565b6000806000606084860312156109b3576109b26107f2565b5b60006109c186828701610813565b93505060206109d28682870161083f565b925050604084013567ffffffffffffffff8111156109f3576109f26107f7565b5b6109ff8682870161096c565b9150509250925092565b6000610a148261078c565b9050919050565b610a2481610a09565b8114610a2f57600080fd5b50565b600081359050610a4181610a1b565b92915050565b60008060408385031215610a5e57610a5d6107f2565b5b6000610a6c85828601610a32565b9250506020610a7d8582860161083f565b9150509250929050565b60008115159050919050565b610a9c81610a87565b82525050565b6000602082019050610ab76000830184610a93565b92915050565b600082825260208201905092915050565b7f7365745f6272696467655f616464726573730000000000000000000000000000600082015250565b6000610b04601283610abd565b9150610b0f82610ace565b602082019050919050565b6000606082019050610b2f60008301856107be565b610b3c6020830184610762565b8181036040830152610b4d81610af7565b90509392505050565b600081519050919050565b600082825260208201905092915050565b60005b83811015610b90578082015181840152602081019050610b75565b83811115610b9f576000848401525b50505050565b6000610bb082610b56565b610bba8185610b61565b9350610bca818560208601610b72565b610bd38161085e565b840191505092915050565b60006060820190508181036000830152610bf88186610ba5565b90508181036020830152610c0c8185610ba5565b9050610c1b6040830184610762565b949350505050565b610c2c81610a87565b8114610c3757600080fd5b50565b600081519050610c4981610c23565b92915050565b600060208284031215610c6557610c646107f2565b5b6000610c7384828501610c3a565b91505092915050565b7f626164207369676e617475726573000000000000000000000000000000000000600082015250565b6000610cb2600e83610abd565b9150610cbd82610c7c565b602082019050919050565b60006020820190508181036000830152610ce181610ca5565b9050919050565b7f696e76616c6964204d756c7469736967436f6e74726f6c206164647265737300600082015250565b6000610d1e601f83610abd565b9150610d2982610ce8565b602082019050919050565b60006020820190508181036000830152610d4d81610d11565b9050919050565b7f6e65772061646472657373206d75737420626520636f6e747261637400000000600082015250565b6000610d8a601c83610abd565b9150610d9582610d54565b602082019050919050565b60006020820190508181036000830152610db981610d7d565b9050919050565b7f7365745f6d756c74697369675f636f6e74726f6c000000000000000000000000600082015250565b6000610df6601483610abd565b9150610e0182610dc0565b602082019050919050565b6000606082019050610e2160008301856107be565b610e2e6020830184610762565b8181036040830152610e3f81610de9565b90509392505050565b7f6d73672e73656e646572206e6f7420617574686f72697a656420627269646765600082015250565b6000610e7e602083610abd565b9150610e8982610e48565b602082019050919050565b60006020820190508181036000830152610ead81610e71565b9050919050565b7f696e73756666696369656e742062616c616e6365000000000000000000000000600082015250565b6000610eea601483610abd565b9150610ef582610eb4565b602082019050919050565b60006020820190508181036000830152610f1981610edd565b9050919050565b600081905092915050565b50565b6000610f3b600083610f20565b9150610f4682610f2b565b600082019050919050565b6000610f5c82610f2e565b9150819050919050565b7f657468207472616e73666572206661696c656400000000000000000000000000600082015250565b6000610f9c601383610abd565b9150610fa782610f66565b602082019050919050565b60006020820190508181036000830152610fcb81610f8f565b905091905056fea26469706673582212203aeeaa99e64da0915865fc86ae1a81af81ebdb43e8d540d44868b16e41c8360464736f6c63430008080033","opcodes":"PUSH1 0x80 PUSH1 0x40 MSTORE CALLVALUE DUP1 ISZERO PUSH3 0x11 JUMPI PUSH1 0x0 DUP1 REVERT JUMPDEST POP PUSH1 0x40 MLOAD PUSH3 0x1175 CODESIZE SUB DUP1 PUSH3 0x1175 DUP4 CODECOPY DUP2 DUP2 ADD PUSH1 0x40 MSTORE DUP2 ADD SWAP1 PUSH3 0x37 SWAP2 SWAP1 PUSH3 0x12B JUMP JUMPDEST DUP1 PUSH1 0x0 DUP1 PUSH2 0x100 EXP DUP2 SLOAD DUP2 PUSH20 0xFFFFFFFFFFFFFFFFFFFFFFFFFFFFFFFFFFFFFFFF MUL NOT AND SWAP1 DUP4 PUSH20 0xFFFFFFFFFFFFFFFFFFFFFFFFFFFFFFFFFFFFFFFF AND MUL OR SWAP1 SSTORE POP DUP1 PUSH20 0xFFFFFFFFFFFFFFFFFFFFFFFFFFFFFFFFFFFFFFFF AND PUSH32 0x1143E675AD794F5BD81A05B165B166BE3A4E91F17D065F08809D88CEFBD65406 PUSH1 0x40 MLOAD PUSH1 0x40 MLOAD DUP1 SWAP2 SUB SWAP1 LOG2 POP PUSH3 0x15D JUMP JUMPDEST PUSH1 0x0 DUP1 REVERT JUMPDEST PUSH1 0x0 PUSH20 0xFFFFFFFFFFFFFFFFFFFFFFFFFFFFFFFFFFFFFFFF DUP3 AND SWAP1 POP SWAP2 SWAP1 POP JUMP JUMPDEST PUSH1 0x0 PUSH3 0xF3 DUP3 PUSH3 0xC6 JUMP JUMPDEST SWAP1 POP SWAP2 SWAP1 POP JUMP JUMPDEST PUSH3 0x105 DUP2 PUSH3 0xE6 JUMP JUMPDEST DUP2 EQ PUSH3 0x111 JUMPI PUSH1 0x0 DUP1 REVERT JUMPDEST POP JUMP JUMPDEST PUSH1 0x0 DUP2 MLOAD SWAP1 POP PUSH3 0x125 DUP2 PUSH3 0xFA JUMP JUMPDEST SWAP3 SWAP2 POP POP JUMP JUMPDEST PUSH1 0x0 PUSH1 0x20 DUP3 DUP5 SUB SLT ISZERO PUSH3 0x144 JUMPI PUSH3 0x143 PUSH3 0xC1 JUMP JUMPDEST JUMPDEST PUSH1 0x0 PUSH3 0x154 DUP5 DUP3 DUP6 ADD PUSH3 0x114 JUMP JUMPDEST SWAP2 POP POP SWAP3 SWAP2 POP POP JUMP JUMPDEST PUSH2 0x1008 DUP1 PUSH3 0x16D PUSH1 0x0 CODECOPY PUSH1 0x0 RETURN INVALID PUSH1 0x80 PUSH1 0x40 MSTORE PUSH1 0x4 CALLDATASIZE LT PUSH2 0x4E JUMPI PUSH1 0x0 CALLDATALOAD PUSH1 0xE0 SHR DUP1 PUSH4 0x17AEC1B4 EQ PUSH2 0xA8 JUMPI DUP1 PUSH4 0x63BB28E0 EQ PUSH2 0xD3 JUMPI DUP1 PUSH4 0xAEED8F95 EQ PUSH2 0xFC JUMPI DUP1 PUSH4 0xB82D5ABD EQ PUSH2 0x125 JUMPI DUP1 PUSH4 0xF3FEF3A3 EQ PUSH2 0x150 JUMPI PUSH2 0xA3 JUMP JUMPDEST CALLDATASIZE PUSH2 0xA3 JUMPI CALLER PUSH20 0xFFFFFFFFFFFFFFFFFFFFFFFFFFFFFFFFFFFFFFFF AND PUSH32 0x88A5966D370B9919B20F3E2C13FF65706F196A4E32CC2C12BF57088F88525874 CALLVALUE PUSH1 0x40 MLOAD PUSH2 0x99 SWAP2 SWAP1 PUSH2 0x771 JUMP JUMPDEST PUSH1 0x40 MLOAD DUP1 SWAP2 SUB SWAP1 LOG2 STOP JUMPDEST PUSH1 0x0 DUP1 REVERT JUMPDEST CALLVALUE DUP1 ISZERO PUSH2 0xB4 JUMPI PUSH1 0x0 DUP1 REVERT JUMPDEST POP PUSH2 0xBD PUSH2 0x18D JUMP JUMPDEST PUSH1 0x40 MLOAD PUSH2 0xCA SWAP2 SWAP1 PUSH2 0x7CD JUMP JUMPDEST PUSH1 0x40 MLOAD DUP1 SWAP2 SUB SWAP1 RETURN JUMPDEST CALLVALUE DUP1 ISZERO PUSH2 0xDF JUMPI PUSH1 0x0 DUP1 REVERT JUMPDEST POP PUSH2 0xFA PUSH1 0x4 DUP1 CALLDATASIZE SUB DUP2 ADD SWAP1 PUSH2 0xF5 SWAP2 SWAP1 PUSH2 0x99A JUMP JUMPDEST PUSH2 0x1B3 JUMP JUMPDEST STOP JUMPDEST CALLVALUE DUP1 ISZERO PUSH2 0x108 JUMPI PUSH1 0x0 DUP1 REVERT JUMPDEST POP PUSH2 0x123 PUSH1 0x4 DUP1 CALLDATASIZE SUB DUP2 ADD SWAP1 PUSH2 0x11E SWAP2 SWAP1 PUSH2 0x99A JUMP JUMPDEST PUSH2 0x351 JUMP JUMPDEST STOP JUMPDEST CALLVALUE DUP1 ISZERO PUSH2 0x131 JUMPI PUSH1 0x0 DUP1 REVERT JUMPDEST POP PUSH2 0x13A PUSH2 0x5A8 JUMP JUMPDEST PUSH1 0x40 MLOAD PUSH2 0x147 SWAP2 SWAP1 PUSH2 0x7CD JUMP JUMPDEST PUSH1 0x40 MLOAD DUP1 SWAP2 SUB SWAP1 RETURN JUMPDEST CALLVALUE DUP1 ISZERO PUSH2 0x15C JUMPI PUSH1 0x0 DUP1 REVERT JUMPDEST POP PUSH2 0x177 PUSH1 0x4 DUP1 CALLDATASIZE SUB DUP2 ADD SWAP1 PUSH2 0x172 SWAP2 SWAP1 PUSH2 0xA47 JUMP JUMPDEST PUSH2 0x5CC JUMP JUMPDEST PUSH1 0x40 MLOAD PUSH2 0x184 SWAP2 SWAP1 PUSH2 0xAA2 JUMP JUMPDEST PUSH1 0x40 MLOAD DUP1 SWAP2 SUB SWAP1 RETURN JUMPDEST PUSH1 0x1 PUSH1 0x0 SWAP1 SLOAD SWAP1 PUSH2 0x100 EXP SWAP1 DIV PUSH20 0xFFFFFFFFFFFFFFFFFFFFFFFFFFFFFFFFFFFFFFFF AND DUP2 JUMP JUMPDEST PUSH1 0x0 DUP4 DUP4 PUSH1 0x40 MLOAD PUSH1 0x20 ADD PUSH2 0x1C8 SWAP3 SWAP2 SWAP1 PUSH2 0xB1A JUMP JUMPDEST PUSH1 0x40 MLOAD PUSH1 0x20 DUP2 DUP4 SUB SUB DUP2 MSTORE SWAP1 PUSH1 0x40 MSTORE SWAP1 POP PUSH1 0x0 DUP1 SLOAD SWAP1 PUSH2 0x100 EXP SWAP1 DIV PUSH20 0xFFFFFFFFFFFFFFFFFFFFFFFFFFFFFFFFFFFFFFFF AND PUSH20 0xFFFFFFFFFFFFFFFFFFFFFFFFFFFFFFFFFFFFFFFF AND PUSH4 0xBA73659A DUP4 DUP4 DUP7 PUSH1 0x40 MLOAD DUP5 PUSH4 0xFFFFFFFF AND PUSH1 0xE0 SHL DUP2 MSTORE PUSH1 0x4 ADD PUSH2 0x236 SWAP4 SWAP3 SWAP2 SWAP1 PUSH2 0xBDE JUMP JUMPDEST PUSH1 0x20 PUSH1 0x40 MLOAD DUP1 DUP4 SUB DUP2 PUSH1 0x0 DUP8 DUP1 EXTCODESIZE ISZERO DUP1 ISZERO PUSH2 0x250 JUMPI PUSH1 0x0 DUP1 REVERT JUMPDEST POP GAS CALL ISZERO DUP1 ISZERO PUSH2 0x264 JUMPI RETURNDATASIZE PUSH1 0x0 DUP1 RETURNDATACOPY RETURNDATASIZE PUSH1 0x0 REVERT JUMPDEST POP POP POP POP PUSH1 0x40 MLOAD RETURNDATASIZE PUSH1 0x1F NOT PUSH1 0x1F DUP3 ADD AND DUP3 ADD DUP1 PUSH1 0x40 MSTORE POP DUP2 ADD SWAP1 PUSH2 0x288 SWAP2 SWAP1 PUSH2 0xC4F JUMP JUMPDEST PUSH2 0x2C7 JUMPI PUSH1 0x40 MLOAD PUSH32 0x8C379A000000000000000000000000000000000000000000000000000000000 DUP2 MSTORE PUSH1 0x4 ADD PUSH2 0x2BE SWAP1 PUSH2 0xCC8 JUMP JUMPDEST PUSH1 0x40 MLOAD DUP1 SWAP2 SUB SWAP1 REVERT JUMPDEST DUP4 PUSH1 0x1 PUSH1 0x0 PUSH2 0x100 EXP DUP2 SLOAD DUP2 PUSH20 0xFFFFFFFFFFFFFFFFFFFFFFFFFFFFFFFFFFFFFFFF MUL NOT AND SWAP1 DUP4 PUSH20 0xFFFFFFFFFFFFFFFFFFFFFFFFFFFFFFFFFFFFFFFF AND MUL OR SWAP1 SSTORE POP DUP4 PUSH20 0xFFFFFFFFFFFFFFFFFFFFFFFFFFFFFFFFFFFFFFFF AND PUSH32 0xF57D83269802E794395BFD99D93C82BF997D03EC73F8D4C607E8FF18B8CC62F2 PUSH1 0x40 MLOAD PUSH1 0x40 MLOAD DUP1 SWAP2 SUB SWAP1 LOG2 POP POP POP POP JUMP JUMPDEST PUSH1 0x0 PUSH20 0xFFFFFFFFFFFFFFFFFFFFFFFFFFFFFFFFFFFFFFFF AND DUP4 PUSH20 0xFFFFFFFFFFFFFFFFFFFFFFFFFFFFFFFFFFFFFFFF AND EQ ISZERO PUSH2 0x3C1 JUMPI PUSH1 0x40 MLOAD PUSH32 0x8C379A000000000000000000000000000000000000000000000000000000000 DUP2 MSTORE PUSH1 0x4 ADD PUSH2 0x3B8 SWAP1 PUSH2 0xD34 JUMP JUMPDEST PUSH1 0x40 MLOAD DUP1 SWAP2 SUB SWAP1 REVERT JUMPDEST PUSH1 0x0 DUP4 EXTCODESIZE SWAP1 POP PUSH1 0x0 DUP2 GT PUSH2 0x40A JUMPI PUSH1 0x40 MLOAD PUSH32 0x8C379A000000000000000000000000000000000000000000000000000000000 DUP2 MSTORE PUSH1 0x4 ADD PUSH2 0x401 SWAP1 PUSH2 0xDA0 JUMP JUMPDEST PUSH1 0x40 MLOAD DUP1 SWAP2 SUB SWAP1 REVERT JUMPDEST PUSH1 0x0 DUP5 DUP5 PUSH1 0x40 MLOAD PUSH1 0x20 ADD PUSH2 0x41F SWAP3 SWAP2 SWAP1 PUSH2 0xE0C JUMP JUMPDEST PUSH1 0x40 MLOAD PUSH1 0x20 DUP2 DUP4 SUB SUB DUP2 MSTORE SWAP1 PUSH1 0x40 MSTORE SWAP1 POP PUSH1 0x0 DUP1 SLOAD SWAP1 PUSH2 0x100 EXP SWAP1 DIV PUSH20 0xFFFFFFFFFFFFFFFFFFFFFFFFFFFFFFFFFFFFFFFF AND PUSH20 0xFFFFFFFFFFFFFFFFFFFFFFFFFFFFFFFFFFFFFFFF AND PUSH4 0xBA73659A DUP5 DUP4 DUP8 PUSH1 0x40 MLOAD DUP5 PUSH4 0xFFFFFFFF AND PUSH1 0xE0 SHL DUP2 MSTORE PUSH1 0x4 ADD PUSH2 0x48D SWAP4 SWAP3 SWAP2 SWAP1 PUSH2 0xBDE JUMP JUMPDEST PUSH1 0x20 PUSH1 0x40 MLOAD DUP1 DUP4 SUB DUP2 PUSH1 0x0 DUP8 DUP1 EXTCODESIZE ISZERO DUP1 ISZERO PUSH2 0x4A7 JUMPI PUSH1 0x0 DUP1 REVERT JUMPDEST POP GAS CALL ISZERO DUP1 ISZERO PUSH2 0x4BB JUMPI RETURNDATASIZE PUSH1 0x0 DUP1 RETURNDATACOPY RETURNDATASIZE PUSH1 0x0 REVERT JUMPDEST POP POP POP POP PUSH1 0x40 MLOAD RETURNDATASIZE PUSH1 0x1F NOT PUSH1 0x1F DUP3 ADD AND DUP3 ADD DUP1 PUSH1 0x40 MSTORE POP DUP2 ADD SWAP1 PUSH2 0x4DF SWAP2 SWAP1 PUSH2 0xC4F JUMP JUMPDEST PUSH2 0x51E JUMPI PUSH1 0x40 MLOAD PUSH32 0x8C379A000000000000000000000000000000000000000000000000000000000 DUP2 MSTORE PUSH1 0x4 ADD PUSH2 0x515 SWAP1 PUSH2 0xCC8 JUMP JUMPDEST PUSH1 0x40 MLOAD DUP1 SWAP2 SUB SWAP1 REVERT JUMPDEST DUP5 PUSH1 0x0 DUP1 PUSH2 0x100 EXP DUP2 SLOAD DUP2 PUSH20 0xFFFFFFFFFFFFFFFFFFFFFFFFFFFFFFFFFFFFFFFF MUL NOT AND SWAP1 DUP4 PUSH20 0xFFFFFFFFFFFFFFFFFFFFFFFFFFFFFFFFFFFFFFFF AND MUL OR SWAP1 SSTORE POP DUP5 PUSH20 0xFFFFFFFFFFFFFFFFFFFFFFFFFFFFFFFFFFFFFFFF AND PUSH32 0x1143E675AD794F5BD81A05B165B166BE3A4E91F17D065F08809D88CEFBD65406 PUSH1 0x40 MLOAD PUSH1 0x40 MLOAD DUP1 SWAP2 SUB SWAP1 LOG2 POP POP POP POP POP JUMP JUMPDEST PUSH1 0x0 DUP1 SLOAD SWAP1 PUSH2 0x100 EXP SWAP1 DIV PUSH20 0xFFFFFFFFFFFFFFFFFFFFFFFFFFFFFFFFFFFFFFFF AND DUP2 JUMP JUMPDEST PUSH1 0x0 PUSH1 0x1 PUSH1 0x0 SWAP1 SLOAD SWAP1 PUSH2 0x100 EXP SWAP1 DIV PUSH20 0xFFFFFFFFFFFFFFFFFFFFFFFFFFFFFFFFFFFFFFFF AND PUSH20 0xFFFFFFFFFFFFFFFFFFFFFFFFFFFFFFFFFFFFFFFF AND CALLER PUSH20 0xFFFFFFFFFFFFFFFFFFFFFFFFFFFFFFFFFFFFFFFF AND EQ PUSH2 0x65E JUMPI PUSH1 0x40 MLOAD PUSH32 0x8C379A000000000000000000000000000000000000000000000000000000000 DUP2 MSTORE PUSH1 0x4 ADD PUSH2 0x655 SWAP1 PUSH2 0xE94 JUMP JUMPDEST PUSH1 0x40 MLOAD DUP1 SWAP2 SUB SWAP1 REVERT JUMPDEST DUP2 SELFBALANCE LT ISZERO PUSH2 0x6A1 JUMPI PUSH1 0x40 MLOAD PUSH32 0x8C379A000000000000000000000000000000000000000000000000000000000 DUP2 MSTORE PUSH1 0x4 ADD PUSH2 0x698 SWAP1 PUSH2 0xF00 JUMP JUMPDEST PUSH1 0x40 MLOAD DUP1 SWAP2 SUB SWAP1 REVERT JUMPDEST PUSH1 0x0 DUP4 PUSH20 0xFFFFFFFFFFFFFFFFFFFFFFFFFFFFFFFFFFFFFFFF AND DUP4 PUSH1 0x40 MLOAD PUSH2 0x6C7 SWAP1 PUSH2 0xF51 JUMP JUMPDEST PUSH1 0x0 PUSH1 0x40 MLOAD DUP1 DUP4 SUB DUP2 DUP6 DUP8 GAS CALL SWAP3 POP POP POP RETURNDATASIZE DUP1 PUSH1 0x0 DUP2 EQ PUSH2 0x704 JUMPI PUSH1 0x40 MLOAD SWAP2 POP PUSH1 0x1F NOT PUSH1 0x3F RETURNDATASIZE ADD AND DUP3 ADD PUSH1 0x40 MSTORE RETURNDATASIZE DUP3 MSTORE RETURNDATASIZE PUSH1 0x0 PUSH1 0x20 DUP5 ADD RETURNDATACOPY PUSH2 0x709 JUMP JUMPDEST PUSH1 0x60 SWAP2 POP JUMPDEST POP POP SWAP1 POP DUP1 PUSH2 0x74D JUMPI PUSH1 0x40 MLOAD PUSH32 0x8C379A000000000000000000000000000000000000000000000000000000000 DUP2 MSTORE PUSH1 0x4 ADD PUSH2 0x744 SWAP1 PUSH2 0xFB2 JUMP JUMPDEST PUSH1 0x40 MLOAD DUP1 SWAP2 SUB SWAP1 REVERT JUMPDEST PUSH1 0x1 SWAP2 POP POP SWAP3 SWAP2 POP POP JUMP JUMPDEST PUSH1 0x0 DUP2 SWAP1 POP SWAP2 SWAP1 POP JUMP JUMPDEST PUSH2 0x76B DUP2 PUSH2 0x758 JUMP JUMPDEST DUP3 MSTORE POP POP JUMP JUMPDEST PUSH1 0x0 PUSH1 0x20 DUP3 ADD SWAP1 POP PUSH2 0x786 PUSH1 0x0 DUP4 ADD DUP5 PUSH2 0x762 JUMP JUMPDEST SWAP3 SWAP2 POP POP JUMP JUMPDEST PUSH1 0x0 PUSH20 0xFFFFFFFFFFFFFFFFFFFFFFFFFFFFFFFFFFFFFFFF DUP3 AND SWAP1 POP SWAP2 SWAP1 POP JUMP JUMPDEST PUSH1 0x0 PUSH2 0x7B7 DUP3 PUSH2 0x78C JUMP JUMPDEST SWAP1 POP SWAP2 SWAP1 POP JUMP JUMPDEST PUSH2 0x7C7 DUP2 PUSH2 0x7AC JUMP JUMPDEST DUP3 MSTORE POP POP JUMP JUMPDEST PUSH1 0x0 PUSH1 0x20 DUP3 ADD SWAP1 POP PUSH2 0x7E2 PUSH1 0x0 DUP4 ADD DUP5 PUSH2 0x7BE JUMP JUMPDEST SWAP3 SWAP2 POP POP JUMP JUMPDEST PUSH1 0x0 PUSH1 0x40 MLOAD SWAP1 POP SWAP1 JUMP JUMPDEST PUSH1 0x0 DUP1 REVERT JUMPDEST PUSH1 0x0 DUP1 REVERT JUMPDEST PUSH2 0x805 DUP2 PUSH2 0x7AC JUMP JUMPDEST DUP2 EQ PUSH2 0x810 JUMPI PUSH1 0x0 DUP1 REVERT JUMPDEST POP JUMP JUMPDEST PUSH1 0x0 DUP2 CALLDATALOAD SWAP1 POP PUSH2 0x822 DUP2 PUSH2 0x7FC JUMP JUMPDEST SWAP3 SWAP2 POP POP JUMP JUMPDEST PUSH2 0x831 DUP2 PUSH2 0x758 JUMP JUMPDEST DUP2 EQ PUSH2 0x83C JUMPI PUSH1 0x0 DUP1 REVERT JUMPDEST POP JUMP JUMPDEST PUSH1 0x0 DUP2 CALLDATALOAD SWAP1 POP PUSH2 0x84E DUP2 PUSH2 0x828 JUMP JUMPDEST SWAP3 SWAP2 POP POP JUMP JUMPDEST PUSH1 0x0 DUP1 REVERT JUMPDEST PUSH1 0x0 DUP1 REVERT JUMPDEST PUSH1 0x0 PUSH1 0x1F NOT PUSH1 0x1F DUP4 ADD AND SWAP1 POP SWAP2 SWAP1 POP JUMP JUMPDEST PUSH32 0x4E487B7100000000000000000000000000000000000000000000000000000000 PUSH1 0x0 MSTORE PUSH1 0x41 PUSH1 0x4 MSTORE PUSH1 0x24 PUSH1 0x0 REVERT JUMPDEST PUSH2 0x8A7 DUP3 PUSH2 0x85E JUMP JUMPDEST DUP2 ADD DUP2 DUP2 LT PUSH8 0xFFFFFFFFFFFFFFFF DUP3 GT OR ISZERO PUSH2 0x8C6 JUMPI PUSH2 0x8C5 PUSH2 0x86F JUMP JUMPDEST JUMPDEST DUP1 PUSH1 0x40 MSTORE POP POP POP JUMP JUMPDEST PUSH1 0x0 PUSH2 0x8D9 PUSH2 0x7E8 JUMP JUMPDEST SWAP1 POP PUSH2 0x8E5 DUP3 DUP3 PUSH2 0x89E JUMP JUMPDEST SWAP2 SWAP1 POP JUMP JUMPDEST PUSH1 0x0 PUSH8 0xFFFFFFFFFFFFFFFF DUP3 GT ISZERO PUSH2 0x905 JUMPI PUSH2 0x904 PUSH2 0x86F JUMP JUMPDEST JUMPDEST PUSH2 0x90E DUP3 PUSH2 0x85E JUMP JUMPDEST SWAP1 POP PUSH1 0x20 DUP2 ADD SWAP1 POP SWAP2 SWAP1 POP JUMP JUMPDEST DUP3 DUP2 DUP4 CALLDATACOPY PUSH1 0x0 DUP4 DUP4 ADD MSTORE POP POP POP JUMP JUMPDEST PUSH1 0x0 PUSH2 0x93D PUSH2 0x938 DUP5 PUSH2 0x8EA JUMP JUMPDEST PUSH2 0x8CF JUMP JUMPDEST SWAP1 POP DUP3 DUP2 MSTORE PUSH1 0x20 DUP2 ADD DUP5 DUP5 DUP5 ADD GT ISZERO PUSH2 0x959 JUMPI PUSH2 0x958 PUSH2 0x859 JUMP JUMPDEST JUMPDEST PUSH2 0x964 DUP5 DUP3 DUP6 PUSH2 0x91B JUMP JUMPDEST POP SWAP4 SWAP3 POP POP POP JUMP JUMPDEST PUSH1 0x0 DUP3 PUSH1 0x1F DUP4 ADD SLT PUSH2 0x981 JUMPI PUSH2 0x980 PUSH2 0x854 JUMP JUMPDEST JUMPDEST DUP2 CALLDATALOAD PUSH2 0x991 DUP5 DUP3 PUSH1 0x20 DUP7 ADD PUSH2 0x92A JUMP JUMPDEST SWAP2 POP POP SWAP3 SWAP2 POP POP JUMP JUMPDEST PUSH1 0x0 DUP1 PUSH1 0x0 PUSH1 0x60 DUP5 DUP7 SUB SLT ISZERO PUSH2 0x9B3 JUMPI PUSH2 0x9B2 PUSH2 0x7F2 JUMP JUMPDEST JUMPDEST PUSH1 0x0 PUSH2 0x9C1 DUP7 DUP3 DUP8 ADD PUSH2 0x813 JUMP JUMPDEST SWAP4 POP POP PUSH1 0x20 PUSH2 0x9D2 DUP7 DUP3 DUP8 ADD PUSH2 0x83F JUMP JUMPDEST SWAP3 POP POP PUSH1 0x40 DUP5 ADD CALLDATALOAD PUSH8 0xFFFFFFFFFFFFFFFF DUP2 GT ISZERO PUSH2 0x9F3 JUMPI PUSH2 0x9F2 PUSH2 0x7F7 JUMP JUMPDEST JUMPDEST PUSH2 0x9FF DUP7 DUP3 DUP8 ADD PUSH2 0x96C JUMP JUMPDEST SWAP2 POP POP SWAP3 POP SWAP3 POP SWAP3 JUMP JUMPDEST PUSH1 0x0 PUSH2 0xA14 DUP3 PUSH2 0x78C JUMP JUMPDEST SWAP1 POP SWAP2 SWAP1 POP JUMP JUMPDEST PUSH2 0xA24 DUP2 PUSH2 0xA09 JUMP JUMPDEST DUP2 EQ PUSH2 0xA2F JUMPI PUSH1 0x0 DUP1 REVERT JUMPDEST POP JUMP JUMPDEST PUSH1 0x0 DUP2 CALLDATALOAD SWAP1 POP PUSH2 0xA41 DUP2 PUSH2 0xA1B JUMP JUMPDEST SWAP3 SWAP2 POP POP JUMP JUMPDEST PUSH1 0x0 DUP1 PUSH1 0x40 DUP4 DUP6 SUB SLT ISZERO PUSH2 0xA5E JUMPI PUSH2 0xA5D PUSH2 0x7F2 JUMP JUMPDEST JUMPDEST PUSH1 0x0 PUSH2 0xA6C DUP6 DUP3 DUP7 ADD PUSH2 0xA32 JUMP JUMPDEST SWAP3 POP POP PUSH1 0x20 PUSH2 0xA7D DUP6 DUP3 DUP7 ADD PUSH2 0x83F JUMP JUMPDEST SWAP2 POP POP SWAP3 POP SWAP3 SWAP1 POP JUMP JUMPDEST PUSH1 0x0 DUP2 ISZERO ISZERO SWAP1 POP SWAP2 SWAP1 POP JUMP JUMPDEST PUSH2 0xA9C DUP2 PUSH2 0xA87 JUMP JUMPDEST DUP3 MSTORE POP POP JUMP JUMPDEST PUSH1 0x0 PUSH1 0x20 DUP3 ADD SWAP1 POP PUSH2 0xAB7 PUSH1 0x0 DUP4 ADD DUP5 PUSH2 0xA93 JUMP JUMPDEST SWAP3 SWAP2 POP POP JUMP JUMPDEST PUSH1 0x0 DUP3 DUP3 MSTORE PUSH1 0x20 DUP3 ADD SWAP1 POP SWAP3 SWAP2 POP POP JUMP JUMPDEST PUSH32 0x7365745F6272696467655F616464726573730000000000000000000000000000 PUSH1 0x0 DUP3 ADD MSTORE POP JUMP JUMPDEST PUSH1 0x0 PUSH2 0xB04 PUSH1 0x12 DUP4 PUSH2 0xABD JUMP JUMPDEST SWAP2 POP PUSH2 0xB0F DUP3 PUSH2 0xACE JUMP JUMPDEST PUSH1 0x20 DUP3 ADD SWAP1 POP SWAP2 SWAP1 POP JUMP JUMPDEST PUSH1 0x0 PUSH1 0x60 DUP3 ADD SWAP1 POP PUSH2 0xB2F PUSH1 0x0 DUP4 ADD DUP6 PUSH2 0x7BE JUMP JUMPDEST PUSH2 0xB3C PUSH1 0x20 DUP4 ADD DUP5 PUSH2 0x762 JUMP JUMPDEST DUP2 DUP2 SUB PUSH1 0x40 DUP4 ADD MSTORE PUSH2 0xB4D DUP2 PUSH2 0xAF7 JUMP JUMPDEST SWAP1 POP SWAP4 SWAP3 POP POP POP JUMP JUMPDEST PUSH1 0x0 DUP2 MLOAD SWAP1 POP SWAP2 SWAP1 POP JUMP JUMPDEST PUSH1 0x0 DUP3 DUP3 MSTORE PUSH1 0x20 DUP3 ADD SWAP1 POP SWAP3 SWAP2 POP POP JUMP JUMPDEST PUSH1 0x0 JUMPDEST DUP4 DUP2 LT ISZERO PUSH2 0xB90 JUMPI DUP1 DUP3 ADD MLOAD DUP2 DUP5 ADD MSTORE PUSH1 0x20 DUP2 ADD SWAP1 POP PUSH2 0xB75 JUMP JUMPDEST DUP4 DUP2 GT ISZERO PUSH2 0xB9F JUMPI PUSH1 0x0 DUP5 DUP5 ADD MSTORE JUMPDEST POP POP POP POP JUMP JUMPDEST PUSH1 0x0 PUSH2 0xBB0 DUP3 PUSH2 0xB56 JUMP JUMPDEST PUSH2 0xBBA DUP2 DUP6 PUSH2 0xB61 JUMP JUMPDEST SWAP4 POP PUSH2 0xBCA DUP2 DUP6 PUSH1 0x20 DUP7 ADD PUSH2 0xB72 JUMP JUMPDEST PUSH2 0xBD3 DUP2 PUSH2 0x85E JUMP JUMPDEST DUP5 ADD SWAP2 POP POP SWAP3 SWAP2 POP POP JUMP JUMPDEST PUSH1 0x0 PUSH1 0x60 DUP3 ADD SWAP1 POP DUP2 DUP2 SUB PUSH1 0x0 DUP4 ADD MSTORE PUSH2 0xBF8 DUP2 DUP7 PUSH2 0xBA5 JUMP JUMPDEST SWAP1 POP DUP2 DUP2 SUB PUSH1 0x20 DUP4 ADD MSTORE PUSH2 0xC0C DUP2 DUP6 PUSH2 0xBA5 JUMP JUMPDEST SWAP1 POP PUSH2 0xC1B PUSH1 0x40 DUP4 ADD DUP5 PUSH2 0x762 JUMP JUMPDEST SWAP5 SWAP4 POP POP POP POP JUMP JUMPDEST PUSH2 0xC2C DUP2 PUSH2 0xA87 JUMP JUMPDEST DUP2 EQ PUSH2 0xC37 JUMPI PUSH1 0x0 DUP1 REVERT JUMPDEST POP JUMP JUMPDEST PUSH1 0x0 DUP2 MLOAD SWAP1 POP PUSH2 0xC49 DUP2 PUSH2 0xC23 JUMP JUMPDEST SWAP3 SWAP2 POP POP JUMP JUMPDEST PUSH1 0x0 PUSH1 0x20 DUP3 DUP5 SUB SLT ISZERO PUSH2 0xC65 JUMPI PUSH2 0xC64 PUSH2 0x7F2 JUMP JUMPDEST JUMPDEST PUSH1 0x0 PUSH2 0xC73 DUP5 DUP3 DUP6 ADD PUSH2 0xC3A JUMP JUMPDEST SWAP2 POP POP SWAP3 SWAP2 POP POP JUMP JUMPDEST PUSH32 0x626164207369676E617475726573000000000000000000000000000000000000 PUSH1 0x0 DUP3 ADD MSTORE POP JUMP JUMPDEST PUSH1 0x0 PUSH2 0xCB2 PUSH1 0xE DUP4 PUSH2 0xABD JUMP JUMPDEST SWAP2 POP PUSH2 0xCBD DUP3 PUSH2 0xC7C JUMP JUMPDEST PUSH1 0x20 DUP3 ADD SWAP1 POP SWAP2 SWAP1 POP JUMP JUMPDEST PUSH1 0x0 PUSH1 0x20 DUP3 ADD SWAP1 POP DUP2 DUP2 SUB PUSH1 0x0 DUP4 ADD MSTORE PUSH2 0xCE1 DUP2 PUSH2 0xCA5 JUMP JUMPDEST SWAP1 POP SWAP2 SWAP1 POP JUMP JUMPDEST PUSH32 0x696E76616C6964204D756C7469736967436F6E74726F6C206164647265737300 PUSH1 0x0 DUP3 ADD MSTORE POP JUMP JUMPDEST PUSH1 0x0 PUSH2 0xD1E PUSH1 0x1F DUP4 PUSH2 0xABD JUMP JUMPDEST SWAP2 POP PUSH2 0xD29 DUP3 PUSH2 0xCE8 JUMP JUMPDEST PUSH1 0x20 DUP3 ADD SWAP1 POP SWAP2 SWAP1 POP JUMP JUMPDEST PUSH1 0x0 PUSH1 0x20 DUP3 ADD SWAP1 POP DUP2 DUP2 SUB PUSH1 0x0 DUP4 ADD MSTORE PUSH2 0xD4D DUP2 PUSH2 0xD11 JUMP JUMPDEST SWAP1 POP SWAP2 SWAP1 POP JUMP JUMPDEST PUSH32 0x6E65772061646472657373206D75737420626520636F6E747261637400000000 PUSH1 0x0 DUP3 ADD MSTORE POP JUMP JUMPDEST PUSH1 0x0 PUSH2 0xD8A PUSH1 0x1C DUP4 PUSH2 0xABD JUMP JUMPDEST SWAP2 POP PUSH2 0xD95 DUP3 PUSH2 0xD54 JUMP JUMPDEST PUSH1 0x20 DUP3 ADD SWAP1 POP SWAP2 SWAP1 POP JUMP JUMPDEST PUSH1 0x0 PUSH1 0x20 DUP3 ADD SWAP1 POP DUP2 DUP2 SUB PUSH1 0x0 DUP4 ADD MSTORE PUSH2 0xDB9 DUP2 PUSH2 0xD7D JUMP JUMPDEST SWAP1 POP SWAP2 SWAP1 POP JUMP JUMPDEST PUSH32 0x7365745F6D756C74697369675F636F6E74726F6C000000000000000000000000 PUSH1 0x0 DUP3 ADD MSTORE POP JUMP JUMPDEST PUSH1 0x0 PUSH2 0xDF6 PUSH1 0x14 DUP4 PUSH2 0xABD JUMP JUMPDEST SWAP2 POP PUSH2 0xE01 DUP3 PUSH2 0xDC0 JUMP JUMPDEST PUSH1 0x20 DUP3 ADD SWAP1 POP SWAP2 SWAP1 POP JUMP JUMPDEST PUSH1 0x0 PUSH1 0x60 DUP3 ADD SWAP1 POP PUSH2 0xE21 PUSH1 0x0 DUP4 ADD DUP6 PUSH2 0x7BE JUMP JUMPDEST PUSH2 0xE2E PUSH1 0x20 DUP4 ADD DUP5 PUSH2 0x762 JUMP JUMPDEST DUP2 DUP2 SUB PUSH1 0x40 DUP4 ADD MSTORE PUSH2 0xE3F DUP2 PUSH2 0xDE9 JUMP JUMPDEST SWAP1 POP SWAP4 SWAP3 POP POP POP JUMP JUMPDEST PUSH32 0x6D73672E73656E646572206E6F7420617574686F72697A656420627269646765 PUSH1 0x0 DUP3 ADD MSTORE POP JUMP JUMPDEST PUSH1 0x0 PUSH2 0xE7E PUSH1 0x20 DUP4 PUSH2 0xABD JUMP JUMPDEST SWAP2 POP PUSH2 0xE89 DUP3 PUSH2 0xE48 JUMP JUMPDEST PUSH1 0x20 DUP3 ADD SWAP1 POP SWAP2 SWAP1 POP JUMP JUMPDEST PUSH1 0x0 PUSH1 0x20 DUP3 ADD SWAP1 POP DUP2 DUP2 SUB PUSH1 0x0 DUP4 ADD MSTORE PUSH2 0xEAD DUP2 PUSH2 0xE71 JUMP JUMPDEST SWAP1 POP SWAP2 SWAP1 POP JUMP JUMPDEST PUSH32 0x696E73756666696369656E742062616C616E6365000000000000000000000000 PUSH1 0x0 DUP3 ADD MSTORE POP JUMP JUMPDEST PUSH1 0x0 PUSH2 0xEEA PUSH1 0x14 DUP4 PUSH2 0xABD JUMP JUMPDEST SWAP2 POP PUSH2 0xEF5 DUP3 PUSH2 0xEB4 JUMP JUMPDEST PUSH1 0x20 DUP3 ADD SWAP1 POP SWAP2 SWAP1 POP JUMP JUMPDEST PUSH1 0x0 PUSH1 0x20 DUP3 ADD SWAP1 POP DUP2 DUP2 SUB PUSH1 0x0 DUP4 ADD MSTORE PUSH2 0xF19 DUP2 PUSH2 0xEDD JUMP JUMPDEST SWAP1 POP SWAP2 SWAP1 POP JUMP JUMPDEST PUSH1 0x0 DUP2 SWAP1 POP SWAP3 SWAP2 POP POP JUMP JUMPDEST POP JUMP JUMPDEST PUSH1 0x0 PUSH2 0xF3B PUSH1 0x0 DUP4 PUSH2 0xF20 JUMP JUMPDEST SWAP2 POP PUSH2 0xF46 DUP3 PUSH2 0xF2B JUMP JUMPDEST PUSH1 0x0 DUP3 ADD SWAP1 POP SWAP2 SWAP1 POP JUMP JUMPDEST PUSH1 0x0 PUSH2 0xF5C DUP3 PUSH2 0xF2E JUMP JUMPDEST SWAP2 POP DUP2 SWAP1 POP SWAP2 SWAP1 POP JUMP JUMPDEST PUSH32 0x657468207472616E73666572206661696C656400000000000000000000000000 PUSH1 0x0 DUP3 ADD MSTORE POP JUMP JUMPDEST PUSH1 0x0 PUSH2 0xF9C PUSH1 0x13 DUP4 PUSH2 0xABD JUMP JUMPDEST SWAP2 POP PUSH2 0xFA7 DUP3 PUSH2 0xF66 JUMP JUMPDEST PUSH1 0x20 DUP3 ADD SWAP1 POP SWAP2 SWAP1 POP JUMP JUMPDEST PUSH1 0x0 PUSH1 0x20 DUP3 ADD SWAP1 POP DUP2 DUP2 SUB PUSH1 0x0 DUP4 ADD MSTORE PUSH2 0xFCB DUP2 PUSH2 0xF8F JUMP JUMPDEST SWAP1 POP SWAP2 SWAP1 POP JUMP INVALID LOG2 PUSH5 0x6970667358 0x22 SLT KECCAK256 GASPRICE 0xEE 0xAA SWAP10 0xE6 0x4D LOG0 SWAP2 PC PUSH6 0xFC86AE1A81AF DUP2 0xEB 0xDB NUMBER 0xE8 0xD5 BLOCKHASH 0xD4 BASEFEE PUSH9 0xB16E41C8360464736F PUSH13 0x63430008080033000000000000 "},"methodIdentifiers":{"ETH_bridge_address()":"17aec1b4","multisig_control_address()":"b82d5abd","set_bridge_address(address,uint256,bytes)":"63bb28e0","set_multisig_control(address,uint256,bytes)":"aeed8f95","withdraw(address,uint256)":"f3fef3a3"}}}}}