{
  "_format": "hh-sol-artifact-1",
  "contractName": "UUPSUpgradeableLegacyMock",
  "sourceName": "contracts/oz_contracts/mocks/proxy/UUPSLegacy.sol",
  "abi": [
    {
      "anonymous": false,
      "inputs": [
        {
          "indexed": false,
          "internalType": "address",
          "name": "previousAdmin",
          "type": "address"
        },
        {
          "indexed": false,
          "internalType": "address",
          "name": "newAdmin",
          "type": "address"
        }
      ],
      "name": "AdminChanged",
      "type": "event"
    },
    {
      "anonymous": false,
      "inputs": [
        {
          "indexed": true,
          "internalType": "address",
          "name": "beacon",
          "type": "address"
        }
      ],
      "name": "BeaconUpgraded",
      "type": "event"
    },
    {
      "anonymous": false,
      "inputs": [
        {
          "indexed": true,
          "internalType": "address",
          "name": "implementation",
          "type": "address"
        }
      ],
      "name": "Upgraded",
      "type": "event"
    },
    {
      "inputs": [],
      "name": "current",
      "outputs": [
        {
          "internalType": "uint256",
          "name": "",
          "type": "uint256"
        }
      ],
      "stateMutability": "view",
      "type": "function"
    },
    {
      "inputs": [],
      "name": "increment",
      "outputs": [],
      "stateMutability": "nonpayable",
      "type": "function"
    },
    {
      "inputs": [],
      "name": "proxiableUUID",
      "outputs": [
        {
          "internalType": "bytes32",
          "name": "",
          "type": "bytes32"
        }
      ],
      "stateMutability": "view",
      "type": "function"
    },
    {
      "inputs": [
        {
          "internalType": "address",
          "name": "newImplementation",
          "type": "address"
        }
      ],
      "name": "upgradeTo",
      "outputs": [],
      "stateMutability": "nonpayable",
      "type": "function"
    },
    {
      "inputs": [
        {
          "internalType": "address",
          "name": "newImplementation",
          "type": "address"
        },
        {
          "internalType": "bytes",
          "name": "data",
          "type": "bytes"
        }
      ],
      "name": "upgradeToAndCall",
      "outputs": [],
      "stateMutability": "payable",
      "type": "function"
    }
  ],
  "bytecode": "0x60a06040523073ffffffffffffffffffffffffffffffffffffffff1660809073ffffffffffffffffffffffffffffffffffffffff1681525034801561004357600080fd5b50608051610e1c61005f60003960006101330152610e1c6000f3fe60806040526004361061004a5760003560e01c80633659cfe61461004f5780634f1ef2861461007857806352d1902d146100945780639fa6a6e3146100bf578063d09de08a146100ea575b600080fd5b34801561005b57600080fd5b5061007660048036038101906100719190610834565b610101565b005b610092600480360381019061008d91906109a7565b61011f565b005b3480156100a057600080fd5b506100a961012f565b6040516100b69190610a1c565b60405180910390f35b3480156100cb57600080fd5b506100d46101e8565b6040516100e19190610a50565b60405180910390f35b3480156100f657600080fd5b506100ff6101f9565b005b61011c81604051806020016040528060008152506000610205565b50565b61012b82826000610205565b5050565b60007f000000000000000000000000000000000000000000000000000000000000000073ffffffffffffffffffffffffffffffffffffffff163073ffffffffffffffffffffffffffffffffffffffff16146101bf576040517f08c379a00000000000000000000000000000000000000000000000000000000081526004016101b690610aee565b60405180910390fd5b7f360894a13ba1a3210667c828492db98dca3e2076cc3735a920a3ca505d382bbc60001b905090565b60006101f460006103d6565b905090565b61020360006103e4565b565b600061020f6103fa565b905061021a84610451565b6000835111806102275750815b1561023857610236848461050a565b505b60006102667f4910fdfa16fed3260ed0e7147f7cc6da11a60208b5b9406d12a635614ffd914360001b610537565b90508060000160009054906101000a900460ff166103cf5760018160000160006101000a81548160ff02191690831515021790555061033285836040516024016102b09190610b1d565b6040516020818303038152906040527f3659cfe6000000000000000000000000000000000000000000000000000000007bffffffffffffffffffffffffffffffffffffffffffffffffffffffff19166020820180517bffffffffffffffffffffffffffffffffffffffffffffffffffffffff838183161783525050505061050a565b5060008160000160006101000a81548160ff0219169083151502179055506103586103fa565b73ffffffffffffffffffffffffffffffffffffffff168273ffffffffffffffffffffffffffffffffffffffff16146103c5576040517f08c379a00000000000000000000000000000000000000000000000000000000081526004016103bc90610baa565b60405180910390fd5b6103ce85610541565b5b5050505050565b600081600001549050919050565b6001816000016000828254019250508190555050565b60006104287f360894a13ba1a3210667c828492db98dca3e2076cc3735a920a3ca505d382bbc60001b610590565b60000160009054906101000a900473ffffffffffffffffffffffffffffffffffffffff16905090565b61045a8161059a565b610499576040517f08c379a000000000000000000000000000000000000000000000000000000000815260040161049090610c3c565b60405180910390fd5b806104c67f360894a13ba1a3210667c828492db98dca3e2076cc3735a920a3ca505d382bbc60001b610590565b60000160006101000a81548173ffffffffffffffffffffffffffffffffffffffff021916908373ffffffffffffffffffffffffffffffffffffffff16021790555050565b606061052f8383604051806060016040528060278152602001610dc0602791396105bd565b905092915050565b6000819050919050565b61054a81610643565b8073ffffffffffffffffffffffffffffffffffffffff167fbc7cd75a20ee27fd9adebab32041f755214dbc6bffa90cc0225b39da2e5c2d3b60405160405180910390a250565b6000819050919050565b6000808273ffffffffffffffffffffffffffffffffffffffff163b119050919050565b60606000808573ffffffffffffffffffffffffffffffffffffffff16856040516105e79190610cd6565b600060405180830381855af49150503d8060008114610622576040519150601f19603f3d011682016040523d82523d6000602084013e610627565b606091505b5091509150610638868383876106fc565b925050509392505050565b61064c8161059a565b61068b576040517f08c379a000000000000000000000000000000000000000000000000000000000815260040161068290610c3c565b60405180910390fd5b806106b87f360894a13ba1a3210667c828492db98dca3e2076cc3735a920a3ca505d382bbc60001b610590565b60000160006101000a81548173ffffffffffffffffffffffffffffffffffffffff021916908373ffffffffffffffffffffffffffffffffffffffff16021790555050565b6060831561075f57600083511415610757576107178561059a565b610756576040517f08c379a000000000000000000000000000000000000000000000000000000000815260040161074d90610d39565b60405180910390fd5b5b82905061076a565b6107698383610772565b5b949350505050565b6000825111156107855781518083602001fd5b806040517f08c379a00000000000000000000000000000000000000000000000000000000081526004016107b99190610d9d565b60405180910390fd5b6000604051905090565b600080fd5b600080fd5b600073ffffffffffffffffffffffffffffffffffffffff82169050919050565b6000610801826107d6565b9050919050565b610811816107f6565b811461081c57600080fd5b50565b60008135905061082e81610808565b92915050565b60006020828403121561084a576108496107cc565b5b60006108588482850161081f565b91505092915050565b600080fd5b600080fd5b6000601f19601f8301169050919050565b7f4e487b7100000000000000000000000000000000000000000000000000000000600052604160045260246000fd5b6108b48261086b565b810181811067ffffffffffffffff821117156108d3576108d261087c565b5b80604052505050565b60006108e66107c2565b90506108f282826108ab565b919050565b600067ffffffffffffffff8211156109125761091161087c565b5b61091b8261086b565b9050602081019050919050565b82818337600083830152505050565b600061094a610945846108f7565b6108dc565b90508281526020810184848401111561096657610965610866565b5b610971848285610928565b509392505050565b600082601f83011261098e5761098d610861565b5b813561099e848260208601610937565b91505092915050565b600080604083850312156109be576109bd6107cc565b5b60006109cc8582860161081f565b925050602083013567ffffffffffffffff8111156109ed576109ec6107d1565b5b6109f985828601610979565b9150509250929050565b6000819050919050565b610a1681610a03565b82525050565b6000602082019050610a316000830184610a0d565b92915050565b6000819050919050565b610a4a81610a37565b82525050565b6000602082019050610a656000830184610a41565b92915050565b600082825260208201905092915050565b7f555550535570677261646561626c653a206d757374206e6f742062652063616c60008201527f6c6564207468726f7567682064656c656761746563616c6c0000000000000000602082015250565b6000610ad8603883610a6b565b9150610ae382610a7c565b604082019050919050565b60006020820190508181036000830152610b0781610acb565b9050919050565b610b17816107f6565b82525050565b6000602082019050610b326000830184610b0e565b92915050565b7f45524331393637557067726164653a207570677261646520627265616b73206660008201527f7572746865722075706772616465730000000000000000000000000000000000602082015250565b6000610b94602f83610a6b565b9150610b9f82610b38565b604082019050919050565b60006020820190508181036000830152610bc381610b87565b9050919050565b7f455243313936373a206e657720696d706c656d656e746174696f6e206973206e60008201527f6f74206120636f6e747261637400000000000000000000000000000000000000602082015250565b6000610c26602d83610a6b565b9150610c3182610bca565b604082019050919050565b60006020820190508181036000830152610c5581610c19565b9050919050565b600081519050919050565b600081905092915050565b60005b83811015610c90578082015181840152602081019050610c75565b83811115610c9f576000848401525b50505050565b6000610cb082610c5c565b610cba8185610c67565b9350610cca818560208601610c72565b80840191505092915050565b6000610ce28284610ca5565b915081905092915050565b7f416464726573733a2063616c6c20746f206e6f6e2d636f6e7472616374000000600082015250565b6000610d23601d83610a6b565b9150610d2e82610ced565b602082019050919050565b60006020820190508181036000830152610d5281610d16565b9050919050565b600081519050919050565b6000610d6f82610d59565b610d798185610a6b565b9350610d89818560208601610c72565b610d928161086b565b840191505092915050565b60006020820190508181036000830152610db78184610d64565b90509291505056fe416464726573733a206c6f772d6c6576656c2064656c65676174652063616c6c206661696c6564a2646970667358221220a56c212bc2fefff11b6e1fc92ba81f9db40d9a3990b4b1167252a55c55d9bd1064736f6c63430008090033",
  "linkReferences": {},
  "deployedLinkReferences": {}
}