{
  "_format": "hh-sol-artifact-1",
  "contractName": "VestingWallet",
  "sourceName": "contracts/oz_contracts/finance/VestingWallet.sol",
  "abi": [
    {
      "inputs": [
        {
          "internalType": "address",
          "name": "beneficiaryAddress",
          "type": "address"
        },
        {
          "internalType": "uint64",
          "name": "startTimestamp",
          "type": "uint64"
        },
        {
          "internalType": "uint64",
          "name": "durationSeconds",
          "type": "uint64"
        }
      ],
      "stateMutability": "payable",
      "type": "constructor"
    },
    {
      "anonymous": false,
      "inputs": [
        {
          "indexed": true,
          "internalType": "address",
          "name": "token",
          "type": "address"
        },
        {
          "indexed": false,
          "internalType": "uint256",
          "name": "amount",
          "type": "uint256"
        }
      ],
      "name": "ERC20Released",
      "type": "event"
    },
    {
      "anonymous": false,
      "inputs": [
        {
          "indexed": false,
          "internalType": "uint256",
          "name": "amount",
          "type": "uint256"
        }
      ],
      "name": "EtherReleased",
      "type": "event"
    },
    {
      "inputs": [],
      "name": "beneficiary",
      "outputs": [
        {
          "internalType": "address",
          "name": "",
          "type": "address"
        }
      ],
      "stateMutability": "view",
      "type": "function"
    },
    {
      "inputs": [],
      "name": "duration",
      "outputs": [
        {
          "internalType": "uint256",
          "name": "",
          "type": "uint256"
        }
      ],
      "stateMutability": "view",
      "type": "function"
    },
    {
      "inputs": [
        {
          "internalType": "address",
          "name": "token",
          "type": "address"
        }
      ],
      "name": "releasable",
      "outputs": [
        {
          "internalType": "uint256",
          "name": "",
          "type": "uint256"
        }
      ],
      "stateMutability": "view",
      "type": "function"
    },
    {
      "inputs": [],
      "name": "releasable",
      "outputs": [
        {
          "internalType": "uint256",
          "name": "",
          "type": "uint256"
        }
      ],
      "stateMutability": "view",
      "type": "function"
    },
    {
      "inputs": [
        {
          "internalType": "address",
          "name": "token",
          "type": "address"
        }
      ],
      "name": "release",
      "outputs": [],
      "stateMutability": "nonpayable",
      "type": "function"
    },
    {
      "inputs": [],
      "name": "release",
      "outputs": [],
      "stateMutability": "nonpayable",
      "type": "function"
    },
    {
      "inputs": [],
      "name": "released",
      "outputs": [
        {
          "internalType": "uint256",
          "name": "",
          "type": "uint256"
        }
      ],
      "stateMutability": "view",
      "type": "function"
    },
    {
      "inputs": [
        {
          "internalType": "address",
          "name": "token",
          "type": "address"
        }
      ],
      "name": "released",
      "outputs": [
        {
          "internalType": "uint256",
          "name": "",
          "type": "uint256"
        }
      ],
      "stateMutability": "view",
      "type": "function"
    },
    {
      "inputs": [],
      "name": "start",
      "outputs": [
        {
          "internalType": "uint256",
          "name": "",
          "type": "uint256"
        }
      ],
      "stateMutability": "view",
      "type": "function"
    },
    {
      "inputs": [
        {
          "internalType": "uint64",
          "name": "timestamp",
          "type": "uint64"
        }
      ],
      "name": "vestedAmount",
      "outputs": [
        {
          "internalType": "uint256",
          "name": "",
          "type": "uint256"
        }
      ],
      "stateMutability": "view",
      "type": "function"
    },
    {
      "inputs": [
        {
          "internalType": "address",
          "name": "token",
          "type": "address"
        },
        {
          "internalType": "uint64",
          "name": "timestamp",
          "type": "uint64"
        }
      ],
      "name": "vestedAmount",
      "outputs": [
        {
          "internalType": "uint256",
          "name": "",
          "type": "uint256"
        }
      ],
      "stateMutability": "view",
      "type": "function"
    },
    {
      "stateMutability": "payable",
      "type": "receive"
    }
  ],
  "bytecode": "0x60e060405260405162001593380380620015938339818101604052810190620000299190620001c0565b600073ffffffffffffffffffffffffffffffffffffffff168373ffffffffffffffffffffffffffffffffffffffff1614156200009c576040517f08c379a00000000000000000000000000000000000000000000000000000000081526004016200009390620002a3565b60405180910390fd5b8273ffffffffffffffffffffffffffffffffffffffff1660808173ffffffffffffffffffffffffffffffffffffffff16815250508167ffffffffffffffff1660a08167ffffffffffffffff16815250508067ffffffffffffffff1660c08167ffffffffffffffff1681525050505050620002c5565b600080fd5b600073ffffffffffffffffffffffffffffffffffffffff82169050919050565b6000620001438262000116565b9050919050565b620001558162000136565b81146200016157600080fd5b50565b60008151905062000175816200014a565b92915050565b600067ffffffffffffffff82169050919050565b6200019a816200017b565b8114620001a657600080fd5b50565b600081519050620001ba816200018f565b92915050565b600080600060608486031215620001dc57620001db62000111565b5b6000620001ec8682870162000164565b9350506020620001ff86828701620001a9565b92505060406200021286828701620001a9565b9150509250925092565b600082825260208201905092915050565b7f56657374696e6757616c6c65743a2062656e6566696369617279206973207a6560008201527f726f206164647265737300000000000000000000000000000000000000000000602082015250565b60006200028b602a836200021c565b915062000298826200022d565b604082019050919050565b60006020820190508181036000830152620002be816200027c565b9050919050565b60805160a05160c05161129e620002f560003960006102e001526000610597015260006103d9015261129e6000f3fe6080604052600436106100a05760003560e01c806386d1a69f1161006457806386d1a69f146101a557806396132521146101bc5780639852595c146101e7578063a3f8eace14610224578063be9a655514610261578063fbccedae1461028c576100a7565b80630a17b06b146100ac5780630fb5a6b4146100e9578063191655871461011457806338af3eed1461013d578063810ec23b14610168576100a7565b366100a757005b600080fd5b3480156100b857600080fd5b506100d360048036038101906100ce9190610ad6565b6102b7565b6040516100e09190610b1c565b60405180910390f35b3480156100f557600080fd5b506100fe6102dc565b60405161010b9190610b1c565b60405180910390f35b34801561012057600080fd5b5061013b60048036038101906101369190610b95565b61030e565b005b34801561014957600080fd5b506101526103d5565b60405161015f9190610bd1565b60405180910390f35b34801561017457600080fd5b5061018f600480360381019061018a9190610bec565b6103fd565b60405161019c9190610b1c565b60405180910390f35b3480156101b157600080fd5b506101ba6104ac565b005b3480156101c857600080fd5b506101d161051b565b6040516101de9190610b1c565b60405180910390f35b3480156101f357600080fd5b5061020e60048036038101906102099190610b95565b610524565b60405161021b9190610b1c565b60405180910390f35b34801561023057600080fd5b5061024b60048036038101906102469190610b95565b61056d565b6040516102589190610b1c565b60405180910390f35b34801561026d57600080fd5b50610276610593565b6040516102839190610b1c565b60405180910390f35b34801561029857600080fd5b506102a16105c5565b6040516102ae9190610b1c565b60405180910390f35b60006102d56102c461051b565b476102cf9190610c5b565b836105e7565b9050919050565b60007f000000000000000000000000000000000000000000000000000000000000000067ffffffffffffffff16905090565b60006103198261056d565b905080600160008473ffffffffffffffffffffffffffffffffffffffff1673ffffffffffffffffffffffffffffffffffffffff168152602001908152602001600020600082825461036a9190610c5b565b925050819055508173ffffffffffffffffffffffffffffffffffffffff167fc0e523490dd523c33b1878c9eb14ff46991e3f5b2cd33710918618f2a39cba1b826040516103b79190610b1c565b60405180910390a26103d1826103cb6103d5565b83610681565b5050565b60007f0000000000000000000000000000000000000000000000000000000000000000905090565b60006104a461040b84610524565b8473ffffffffffffffffffffffffffffffffffffffff166370a08231306040518263ffffffff1660e01b81526004016104449190610bd1565b60206040518083038186803b15801561045c57600080fd5b505afa158015610470573d6000803e3d6000fd5b505050506040513d601f19601f820116820180604052508101906104949190610cdd565b61049e9190610c5b565b836105e7565b905092915050565b60006104b66105c5565b9050806000808282546104c99190610c5b565b925050819055507fda9d4e5f101b8b9b1c5b76d0c5a9f7923571acfc02376aa076b75a8c080c956b816040516104ff9190610b1c565b60405180910390a16105186105126103d5565b82610707565b50565b60008054905090565b6000600160008373ffffffffffffffffffffffffffffffffffffffff1673ffffffffffffffffffffffffffffffffffffffff168152602001908152602001600020549050919050565b600061057882610524565b61058283426103fd565b61058c9190610d0a565b9050919050565b60007f000000000000000000000000000000000000000000000000000000000000000067ffffffffffffffff16905090565b60006105cf61051b565b6105d8426102b7565b6105e29190610d0a565b905090565b60006105f1610593565b8267ffffffffffffffff16101561060b576000905061067b565b6106136102dc565b61061b610593565b6106259190610c5b565b8267ffffffffffffffff16111561063e5782905061067b565b6106466102dc565b61064e610593565b8367ffffffffffffffff166106639190610d0a565b8461066e9190610d3e565b6106789190610dc7565b90505b92915050565b6107028363a9059cbb60e01b84846040516024016106a0929190610df8565b604051602081830303815290604052907bffffffffffffffffffffffffffffffffffffffffffffffffffffffff19166020820180517bffffffffffffffffffffffffffffffffffffffffffffffffffffffff83818316178352505050506107fb565b505050565b8047101561074a576040517f08c379a000000000000000000000000000000000000000000000000000000000815260040161074190610e7e565b60405180910390fd5b60008273ffffffffffffffffffffffffffffffffffffffff168260405161077090610ecf565b60006040518083038185875af1925050503d80600081146107ad576040519150601f19603f3d011682016040523d82523d6000602084013e6107b2565b606091505b50509050806107f6576040517f08c379a00000000000000000000000000000000000000000000000000000000081526004016107ed90610f56565b60405180910390fd5b505050565b600061085d826040518060400160405280602081526020017f5361666545524332303a206c6f772d6c6576656c2063616c6c206661696c65648152508573ffffffffffffffffffffffffffffffffffffffff166108c39092919063ffffffff16565b905060008151148061087f57508080602001905181019061087e9190610fae565b5b6108be576040517f08c379a00000000000000000000000000000000000000000000000000000000081526004016108b59061104d565b60405180910390fd5b505050565b60606108d284846000856108db565b90509392505050565b606082471015610920576040517f08c379a0000000000000000000000000000000000000000000000000000000008152600401610917906110df565b60405180910390fd5b6000808673ffffffffffffffffffffffffffffffffffffffff168587604051610949919061116e565b60006040518083038185875af1925050503d8060008114610986576040519150601f19603f3d011682016040523d82523d6000602084013e61098b565b606091505b509150915061099c878383876109a8565b92505050949350505050565b60608315610a0b57600083511415610a03576109c385610a1e565b610a02576040517f08c379a00000000000000000000000000000000000000000000000000000000081526004016109f9906111d1565b60405180910390fd5b5b829050610a16565b610a158383610a41565b5b949350505050565b6000808273ffffffffffffffffffffffffffffffffffffffff163b119050919050565b600082511115610a545781518083602001fd5b806040517f08c379a0000000000000000000000000000000000000000000000000000000008152600401610a889190611246565b60405180910390fd5b600080fd5b600067ffffffffffffffff82169050919050565b610ab381610a96565b8114610abe57600080fd5b50565b600081359050610ad081610aaa565b92915050565b600060208284031215610aec57610aeb610a91565b5b6000610afa84828501610ac1565b91505092915050565b6000819050919050565b610b1681610b03565b82525050565b6000602082019050610b316000830184610b0d565b92915050565b600073ffffffffffffffffffffffffffffffffffffffff82169050919050565b6000610b6282610b37565b9050919050565b610b7281610b57565b8114610b7d57600080fd5b50565b600081359050610b8f81610b69565b92915050565b600060208284031215610bab57610baa610a91565b5b6000610bb984828501610b80565b91505092915050565b610bcb81610b57565b82525050565b6000602082019050610be66000830184610bc2565b92915050565b60008060408385031215610c0357610c02610a91565b5b6000610c1185828601610b80565b9250506020610c2285828601610ac1565b9150509250929050565b7f4e487b7100000000000000000000000000000000000000000000000000000000600052601160045260246000fd5b6000610c6682610b03565b9150610c7183610b03565b9250827fffffffffffffffffffffffffffffffffffffffffffffffffffffffffffffffff03821115610ca657610ca5610c2c565b5b828201905092915050565b610cba81610b03565b8114610cc557600080fd5b50565b600081519050610cd781610cb1565b92915050565b600060208284031215610cf357610cf2610a91565b5b6000610d0184828501610cc8565b91505092915050565b6000610d1582610b03565b9150610d2083610b03565b925082821015610d3357610d32610c2c565b5b828203905092915050565b6000610d4982610b03565b9150610d5483610b03565b9250817fffffffffffffffffffffffffffffffffffffffffffffffffffffffffffffffff0483118215151615610d8d57610d8c610c2c565b5b828202905092915050565b7f4e487b7100000000000000000000000000000000000000000000000000000000600052601260045260246000fd5b6000610dd282610b03565b9150610ddd83610b03565b925082610ded57610dec610d98565b5b828204905092915050565b6000604082019050610e0d6000830185610bc2565b610e1a6020830184610b0d565b9392505050565b600082825260208201905092915050565b7f416464726573733a20696e73756666696369656e742062616c616e6365000000600082015250565b6000610e68601d83610e21565b9150610e7382610e32565b602082019050919050565b60006020820190508181036000830152610e9781610e5b565b9050919050565b600081905092915050565b50565b6000610eb9600083610e9e565b9150610ec482610ea9565b600082019050919050565b6000610eda82610eac565b9150819050919050565b7f416464726573733a20756e61626c6520746f2073656e642076616c75652c207260008201527f6563697069656e74206d61792068617665207265766572746564000000000000602082015250565b6000610f40603a83610e21565b9150610f4b82610ee4565b604082019050919050565b60006020820190508181036000830152610f6f81610f33565b9050919050565b60008115159050919050565b610f8b81610f76565b8114610f9657600080fd5b50565b600081519050610fa881610f82565b92915050565b600060208284031215610fc457610fc3610a91565b5b6000610fd284828501610f99565b91505092915050565b7f5361666545524332303a204552433230206f7065726174696f6e20646964206e60008201527f6f74207375636365656400000000000000000000000000000000000000000000602082015250565b6000611037602a83610e21565b915061104282610fdb565b604082019050919050565b600060208201905081810360008301526110668161102a565b9050919050565b7f416464726573733a20696e73756666696369656e742062616c616e636520666f60008201527f722063616c6c0000000000000000000000000000000000000000000000000000602082015250565b60006110c9602683610e21565b91506110d48261106d565b604082019050919050565b600060208201905081810360008301526110f8816110bc565b9050919050565b600081519050919050565b60005b8381101561112857808201518184015260208101905061110d565b83811115611137576000848401525b50505050565b6000611148826110ff565b6111528185610e9e565b935061116281856020860161110a565b80840191505092915050565b600061117a828461113d565b915081905092915050565b7f416464726573733a2063616c6c20746f206e6f6e2d636f6e7472616374000000600082015250565b60006111bb601d83610e21565b91506111c682611185565b602082019050919050565b600060208201905081810360008301526111ea816111ae565b9050919050565b600081519050919050565b6000601f19601f8301169050919050565b6000611218826111f1565b6112228185610e21565b935061123281856020860161110a565b61123b816111fc565b840191505092915050565b60006020820190508181036000830152611260818461120d565b90509291505056fea26469706673582212207c665abc4c0e8834cf3a2405d705f0cc5928fee4ec2148e42f64f8d5180c303464736f6c63430008090033",
  "linkReferences": {},
  "deployedLinkReferences": {}
}