{
  "_format": "hh-sol-artifact-1",
  "contractName": "Nonstandard_ERC20",
  "sourceName": "contracts/tests/Nonstandard_ERC20.sol",
  "abi": [
    {
      "inputs": [
        {
          "internalType": "string",
          "name": "name_",
          "type": "string"
        },
        {
          "internalType": "string",
          "name": "symbol_",
          "type": "string"
        }
      ],
      "stateMutability": "nonpayable",
      "type": "constructor"
    },
    {
      "anonymous": false,
      "inputs": [
        {
          "indexed": true,
          "internalType": "address",
          "name": "owner",
          "type": "address"
        },
        {
          "indexed": true,
          "internalType": "address",
          "name": "spender",
          "type": "address"
        },
        {
          "indexed": false,
          "internalType": "uint256",
          "name": "value",
          "type": "uint256"
        }
      ],
      "name": "Approval",
      "type": "event"
    },
    {
      "anonymous": false,
      "inputs": [
        {
          "indexed": true,
          "internalType": "address",
          "name": "from",
          "type": "address"
        },
        {
          "indexed": true,
          "internalType": "address",
          "name": "to",
          "type": "address"
        },
        {
          "indexed": false,
          "internalType": "uint256",
          "name": "value",
          "type": "uint256"
        }
      ],
      "name": "Transfer",
      "type": "event"
    },
    {
      "inputs": [
        {
          "internalType": "address",
          "name": "owner",
          "type": "address"
        },
        {
          "internalType": "address",
          "name": "spender",
          "type": "address"
        }
      ],
      "name": "allowance",
      "outputs": [
        {
          "internalType": "uint256",
          "name": "",
          "type": "uint256"
        }
      ],
      "stateMutability": "view",
      "type": "function"
    },
    {
      "inputs": [
        {
          "internalType": "address",
          "name": "spender",
          "type": "address"
        },
        {
          "internalType": "uint256",
          "name": "amount",
          "type": "uint256"
        }
      ],
      "name": "approve",
      "outputs": [
        {
          "internalType": "bool",
          "name": "",
          "type": "bool"
        }
      ],
      "stateMutability": "nonpayable",
      "type": "function"
    },
    {
      "inputs": [
        {
          "internalType": "address",
          "name": "account",
          "type": "address"
        }
      ],
      "name": "balanceOf",
      "outputs": [
        {
          "internalType": "uint256",
          "name": "",
          "type": "uint256"
        }
      ],
      "stateMutability": "view",
      "type": "function"
    },
    {
      "inputs": [],
      "name": "decimals",
      "outputs": [
        {
          "internalType": "uint8",
          "name": "",
          "type": "uint8"
        }
      ],
      "stateMutability": "view",
      "type": "function"
    },
    {
      "inputs": [
        {
          "internalType": "address",
          "name": "spender",
          "type": "address"
        },
        {
          "internalType": "uint256",
          "name": "subtractedValue",
          "type": "uint256"
        }
      ],
      "name": "decreaseAllowance",
      "outputs": [
        {
          "internalType": "bool",
          "name": "",
          "type": "bool"
        }
      ],
      "stateMutability": "nonpayable",
      "type": "function"
    },
    {
      "inputs": [],
      "name": "faucet",
      "outputs": [],
      "stateMutability": "nonpayable",
      "type": "function"
    },
    {
      "inputs": [
        {
          "internalType": "address",
          "name": "spender",
          "type": "address"
        },
        {
          "internalType": "uint256",
          "name": "addedValue",
          "type": "uint256"
        }
      ],
      "name": "increaseAllowance",
      "outputs": [
        {
          "internalType": "bool",
          "name": "",
          "type": "bool"
        }
      ],
      "stateMutability": "nonpayable",
      "type": "function"
    },
    {
      "inputs": [],
      "name": "name",
      "outputs": [
        {
          "internalType": "string",
          "name": "",
          "type": "string"
        }
      ],
      "stateMutability": "view",
      "type": "function"
    },
    {
      "inputs": [],
      "name": "symbol",
      "outputs": [
        {
          "internalType": "string",
          "name": "",
          "type": "string"
        }
      ],
      "stateMutability": "view",
      "type": "function"
    },
    {
      "inputs": [],
      "name": "totalSupply",
      "outputs": [
        {
          "internalType": "uint256",
          "name": "",
          "type": "uint256"
        }
      ],
      "stateMutability": "view",
      "type": "function"
    },
    {
      "inputs": [
        {
          "internalType": "address",
          "name": "to",
          "type": "address"
        },
        {
          "internalType": "uint256",
          "name": "amount",
          "type": "uint256"
        }
      ],
      "name": "transfer",
      "outputs": [],
      "stateMutability": "nonpayable",
      "type": "function"
    },
    {
      "inputs": [
        {
          "internalType": "address",
          "name": "from",
          "type": "address"
        },
        {
          "internalType": "address",
          "name": "to",
          "type": "address"
        },
        {
          "internalType": "uint256",
          "name": "amount",
          "type": "uint256"
        }
      ],
      "name": "transferFrom",
      "outputs": [],
      "stateMutability": "nonpayable",
      "type": "function"
    }
  ],
  "bytecode": "0x60806040523480156200001157600080fd5b50604051620017b4380380620017b48339818101604052810190620000379190620002be565b81600390805190602001906200004f92919062000071565b5080600490805190602001906200006892919062000071565b505050620003a8565b8280546200007f9062000372565b90600052602060002090601f016020900481019282620000a35760008555620000ef565b82601f10620000be57805160ff1916838001178555620000ef565b82800160010185558215620000ef579182015b82811115620000ee578251825591602001919060010190620000d1565b5b509050620000fe919062000102565b5090565b5b808211156200011d57600081600090555060010162000103565b5090565b6000604051905090565b600080fd5b600080fd5b600080fd5b600080fd5b6000601f19601f8301169050919050565b7f4e487b7100000000000000000000000000000000000000000000000000000000600052604160045260246000fd5b6200018a826200013f565b810181811067ffffffffffffffff82111715620001ac57620001ab62000150565b5b80604052505050565b6000620001c162000121565b9050620001cf82826200017f565b919050565b600067ffffffffffffffff821115620001f257620001f162000150565b5b620001fd826200013f565b9050602081019050919050565b60005b838110156200022a5780820151818401526020810190506200020d565b838111156200023a576000848401525b50505050565b6000620002576200025184620001d4565b620001b5565b9050828152602081018484840111156200027657620002756200013a565b5b620002838482856200020a565b509392505050565b600082601f830112620002a357620002a262000135565b5b8151620002b584826020860162000240565b91505092915050565b60008060408385031215620002d857620002d76200012b565b5b600083015167ffffffffffffffff811115620002f957620002f862000130565b5b62000307858286016200028b565b925050602083015167ffffffffffffffff8111156200032b576200032a62000130565b5b62000339858286016200028b565b9150509250929050565b7f4e487b7100000000000000000000000000000000000000000000000000000000600052602260045260246000fd5b600060028204905060018216806200038b57607f821691505b60208210811415620003a257620003a162000343565b5b50919050565b6113fc80620003b86000396000f3fe608060405234801561001057600080fd5b50600436106100b45760003560e01c806370a082311161007157806370a082311461018f57806395d89b41146101bf578063a457c2d7146101dd578063a9059cbb1461020d578063dd62ed3e14610229578063de5f72fd14610259576100b4565b806306fdde03146100b9578063095ea7b3146100d757806318160ddd1461010757806323b872dd14610125578063313ce56714610141578063395093511461015f575b600080fd5b6100c1610263565b6040516100ce9190610c4a565b60405180910390f35b6100f160048036038101906100ec9190610d05565b6102f5565b6040516100fe9190610d60565b60405180910390f35b61010f610311565b60405161011c9190610d8a565b60405180910390f35b61013f600480360381019061013a9190610da5565b61031b565b005b61014961033c565b6040516101569190610e14565b60405180910390f35b61017960048036038101906101749190610d05565b610345565b6040516101869190610d60565b60405180910390f35b6101a960048036038101906101a49190610e2f565b610375565b6040516101b69190610d8a565b60405180910390f35b6101c76103bd565b6040516101d49190610c4a565b60405180910390f35b6101f760048036038101906101f29190610d05565b61044f565b6040516102049190610d60565b60405180910390f35b61022760048036038101906102229190610d05565b6104bf565b005b610243600480360381019061023e9190610e5c565b6104d4565b6040516102509190610d8a565b60405180910390f35b61026161055b565b005b60606003805461027290610ecb565b80601f016020809104026020016040519081016040528092919081815260200182805461029e90610ecb565b80156102eb5780601f106102c0576101008083540402835291602001916102eb565b820191906000526020600020905b8154815290600101906020018083116102ce57829003601f168201915b5050505050905090565b60008033905061030681858561056f565b600191505092915050565b6000600254905090565b600033905061032b84828461073a565b6103368484846107c6565b50505050565b60006012905090565b60008033905061036a81858561035b85896104d4565b6103659190610f2c565b61056f565b600191505092915050565b60008060008373ffffffffffffffffffffffffffffffffffffffff1673ffffffffffffffffffffffffffffffffffffffff168152602001908152602001600020549050919050565b6060600480546103cc90610ecb565b80601f01602080910402602001604051908101604052809291908181526020018280546103f890610ecb565b80156104455780601f1061041a57610100808354040283529160200191610445565b820191906000526020600020905b81548152906001019060200180831161042857829003601f168201915b5050505050905090565b600080339050600061046182866104d4565b9050838110156104a6576040517f08c379a000000000000000000000000000000000000000000000000000000000815260040161049d90610ff4565b60405180910390fd5b6104b3828686840361056f565b60019250505092915050565b60003390506104cf8184846107c6565b505050565b6000600160008473ffffffffffffffffffffffffffffffffffffffff1673ffffffffffffffffffffffffffffffffffffffff16815260200190815260200160002060008373ffffffffffffffffffffffffffffffffffffffff1673ffffffffffffffffffffffffffffffffffffffff16815260200190815260200160002054905092915050565b61056d33670de0b6b3a7640000610a47565b565b600073ffffffffffffffffffffffffffffffffffffffff168373ffffffffffffffffffffffffffffffffffffffff1614156105df576040517f08c379a00000000000000000000000000000000000000000000000000000000081526004016105d690611086565b60405180910390fd5b600073ffffffffffffffffffffffffffffffffffffffff168273ffffffffffffffffffffffffffffffffffffffff16141561064f576040517f08c379a000000000000000000000000000000000000000000000000000000000815260040161064690611118565b60405180910390fd5b80600160008573ffffffffffffffffffffffffffffffffffffffff1673ffffffffffffffffffffffffffffffffffffffff16815260200190815260200160002060008473ffffffffffffffffffffffffffffffffffffffff1673ffffffffffffffffffffffffffffffffffffffff168152602001908152602001600020819055508173ffffffffffffffffffffffffffffffffffffffff168373ffffffffffffffffffffffffffffffffffffffff167f8c5be1e5ebec7d5bd14f71427d1e84f3dd0314c0f7b2291e5b200ac8c7c3b9258360405161072d9190610d8a565b60405180910390a3505050565b600061074684846104d4565b90507fffffffffffffffffffffffffffffffffffffffffffffffffffffffffffffffff81146107c057818110156107b2576040517f08c379a00000000000000000000000000000000000000000000000000000000081526004016107a990611184565b60405180910390fd5b6107bf848484840361056f565b5b50505050565b600073ffffffffffffffffffffffffffffffffffffffff168373ffffffffffffffffffffffffffffffffffffffff161415610836576040517f08c379a000000000000000000000000000000000000000000000000000000000815260040161082d90611216565b60405180910390fd5b600073ffffffffffffffffffffffffffffffffffffffff168273ffffffffffffffffffffffffffffffffffffffff1614156108a6576040517f08c379a000000000000000000000000000000000000000000000000000000000815260040161089d906112a8565b60405180910390fd5b6108b1838383610ba7565b60008060008573ffffffffffffffffffffffffffffffffffffffff1673ffffffffffffffffffffffffffffffffffffffff16815260200190815260200160002054905081811015610937576040517f08c379a000000000000000000000000000000000000000000000000000000000815260040161092e9061133a565b60405180910390fd5b8181036000808673ffffffffffffffffffffffffffffffffffffffff1673ffffffffffffffffffffffffffffffffffffffff16815260200190815260200160002081905550816000808573ffffffffffffffffffffffffffffffffffffffff1673ffffffffffffffffffffffffffffffffffffffff16815260200190815260200160002060008282546109ca9190610f2c565b925050819055508273ffffffffffffffffffffffffffffffffffffffff168473ffffffffffffffffffffffffffffffffffffffff167fddf252ad1be2c89b69c2b068fc378daa952ba7f163c4a11628f55a4df523b3ef84604051610a2e9190610d8a565b60405180910390a3610a41848484610bac565b50505050565b600073ffffffffffffffffffffffffffffffffffffffff168273ffffffffffffffffffffffffffffffffffffffff161415610ab7576040517f08c379a0000000000000000000000000000000000000000000000000000000008152600401610aae906113a6565b60405180910390fd5b610ac360008383610ba7565b8060026000828254610ad59190610f2c565b92505081905550806000808473ffffffffffffffffffffffffffffffffffffffff1673ffffffffffffffffffffffffffffffffffffffff1681526020019081526020016000206000828254610b2a9190610f2c565b925050819055508173ffffffffffffffffffffffffffffffffffffffff16600073ffffffffffffffffffffffffffffffffffffffff167fddf252ad1be2c89b69c2b068fc378daa952ba7f163c4a11628f55a4df523b3ef83604051610b8f9190610d8a565b60405180910390a3610ba360008383610bac565b5050565b505050565b505050565b600081519050919050565b600082825260208201905092915050565b60005b83811015610beb578082015181840152602081019050610bd0565b83811115610bfa576000848401525b50505050565b6000601f19601f8301169050919050565b6000610c1c82610bb1565b610c268185610bbc565b9350610c36818560208601610bcd565b610c3f81610c00565b840191505092915050565b60006020820190508181036000830152610c648184610c11565b905092915050565b600080fd5b600073ffffffffffffffffffffffffffffffffffffffff82169050919050565b6000610c9c82610c71565b9050919050565b610cac81610c91565b8114610cb757600080fd5b50565b600081359050610cc981610ca3565b92915050565b6000819050919050565b610ce281610ccf565b8114610ced57600080fd5b50565b600081359050610cff81610cd9565b92915050565b60008060408385031215610d1c57610d1b610c6c565b5b6000610d2a85828601610cba565b9250506020610d3b85828601610cf0565b9150509250929050565b60008115159050919050565b610d5a81610d45565b82525050565b6000602082019050610d756000830184610d51565b92915050565b610d8481610ccf565b82525050565b6000602082019050610d9f6000830184610d7b565b92915050565b600080600060608486031215610dbe57610dbd610c6c565b5b6000610dcc86828701610cba565b9350506020610ddd86828701610cba565b9250506040610dee86828701610cf0565b9150509250925092565b600060ff82169050919050565b610e0e81610df8565b82525050565b6000602082019050610e296000830184610e05565b92915050565b600060208284031215610e4557610e44610c6c565b5b6000610e5384828501610cba565b91505092915050565b60008060408385031215610e7357610e72610c6c565b5b6000610e8185828601610cba565b9250506020610e9285828601610cba565b9150509250929050565b7f4e487b7100000000000000000000000000000000000000000000000000000000600052602260045260246000fd5b60006002820490506001821680610ee357607f821691505b60208210811415610ef757610ef6610e9c565b5b50919050565b7f4e487b7100000000000000000000000000000000000000000000000000000000600052601160045260246000fd5b6000610f3782610ccf565b9150610f4283610ccf565b9250827fffffffffffffffffffffffffffffffffffffffffffffffffffffffffffffffff03821115610f7757610f76610efd565b5b828201905092915050565b7f45524332303a2064656372656173656420616c6c6f77616e63652062656c6f7760008201527f207a65726f000000000000000000000000000000000000000000000000000000602082015250565b6000610fde602583610bbc565b9150610fe982610f82565b604082019050919050565b6000602082019050818103600083015261100d81610fd1565b9050919050565b7f45524332303a20617070726f76652066726f6d20746865207a65726f2061646460008201527f7265737300000000000000000000000000000000000000000000000000000000602082015250565b6000611070602483610bbc565b915061107b82611014565b604082019050919050565b6000602082019050818103600083015261109f81611063565b9050919050565b7f45524332303a20617070726f766520746f20746865207a65726f20616464726560008201527f7373000000000000000000000000000000000000000000000000000000000000602082015250565b6000611102602283610bbc565b915061110d826110a6565b604082019050919050565b60006020820190508181036000830152611131816110f5565b9050919050565b7f45524332303a20696e73756666696369656e7420616c6c6f77616e6365000000600082015250565b600061116e601d83610bbc565b915061117982611138565b602082019050919050565b6000602082019050818103600083015261119d81611161565b9050919050565b7f45524332303a207472616e736665722066726f6d20746865207a65726f20616460008201527f6472657373000000000000000000000000000000000000000000000000000000602082015250565b6000611200602583610bbc565b915061120b826111a4565b604082019050919050565b6000602082019050818103600083015261122f816111f3565b9050919050565b7f45524332303a207472616e7366657220746f20746865207a65726f206164647260008201527f6573730000000000000000000000000000000000000000000000000000000000602082015250565b6000611292602383610bbc565b915061129d82611236565b604082019050919050565b600060208201905081810360008301526112c181611285565b9050919050565b7f45524332303a207472616e7366657220616d6f756e742065786365656473206260008201527f616c616e63650000000000000000000000000000000000000000000000000000602082015250565b6000611324602683610bbc565b915061132f826112c8565b604082019050919050565b6000602082019050818103600083015261135381611317565b9050919050565b7f45524332303a206d696e7420746f20746865207a65726f206164647265737300600082015250565b6000611390601f83610bbc565b915061139b8261135a565b602082019050919050565b600060208201905081810360008301526113bf81611383565b905091905056fea2646970667358221220c7a02774d439b77bd36c6c8941165ec9cca0735d4b04f69b6ab919ceab66eb2964736f6c63430008090033",
  "linkReferences": {},
  "deployedLinkReferences": {}
}