{
  "_format": "hh-sol-artifact-1",
  "contractName": "TimelockReentrant",
  "sourceName": "contracts/oz_contracts/mocks/TimelockReentrant.sol",
  "abi": [
    {
      "inputs": [],
      "name": "disableReentrancy",
      "outputs": [],
      "stateMutability": "nonpayable",
      "type": "function"
    },
    {
      "inputs": [
        {
          "internalType": "address",
          "name": "target",
          "type": "address"
        },
        {
          "internalType": "bytes",
          "name": "data",
          "type": "bytes"
        }
      ],
      "name": "enableRentrancy",
      "outputs": [],
      "stateMutability": "nonpayable",
      "type": "function"
    },
    {
      "inputs": [],
      "name": "reenter",
      "outputs": [],
      "stateMutability": "nonpayable",
      "type": "function"
    }
  ],
  "bytecode": "0x608060405234801561001057600080fd5b50610851806100206000396000f3fe608060405234801561001057600080fd5b50600436106100415760003560e01c80633654421b14610046578063a0fe97e314610062578063cc23fb1c1461006c575b600080fd5b610060600480360381019061005b9190610543565b610076565b005b61006a6100cd565b005b6100746101b4565b005b826000806101000a81548173ffffffffffffffffffffffffffffffffffffffff021916908373ffffffffffffffffffffffffffffffffffffffff1602179055508181600191906100c79291906103d3565b50505050565b600260009054906101000a900460ff166101b2576001600260006101000a81548160ff0219169083151502179055506101b060008054906101000a900473ffffffffffffffffffffffffffffffffffffffff166001805461012d906105d2565b80601f0160208091040260200160405190810160405280929190818152602001828054610159906105d2565b80156101a65780601f1061017b576101008083540402835291602001916101a6565b820191906000526020600020905b81548152906001019060200180831161018957829003601f168201915b50505050506101d1565b505b565b6001600260006101000a81548160ff021916908315150217905550565b6060610215838360006040518060400160405280601e81526020017f416464726573733a206c6f772d6c6576656c2063616c6c206661696c6564000081525061021d565b905092915050565b606082471015610262576040517f08c379a000000000000000000000000000000000000000000000000000000000815260040161025990610687565b60405180910390fd5b6000808673ffffffffffffffffffffffffffffffffffffffff16858760405161028b9190610721565b60006040518083038185875af1925050503d80600081146102c8576040519150601f19603f3d011682016040523d82523d6000602084013e6102cd565b606091505b50915091506102de878383876102ea565b92505050949350505050565b6060831561034d576000835114156103455761030585610360565b610344576040517f08c379a000000000000000000000000000000000000000000000000000000000815260040161033b90610784565b60405180910390fd5b5b829050610358565b6103578383610383565b5b949350505050565b6000808273ffffffffffffffffffffffffffffffffffffffff163b119050919050565b6000825111156103965781518083602001fd5b806040517f08c379a00000000000000000000000000000000000000000000000000000000081526004016103ca91906107f9565b60405180910390fd5b8280546103df906105d2565b90600052602060002090601f0160209004810192826104015760008555610448565b82601f1061041a57803560ff1916838001178555610448565b82800160010185558215610448579182015b8281111561044757823582559160200191906001019061042c565b5b5090506104559190610459565b5090565b5b8082111561047257600081600090555060010161045a565b5090565b600080fd5b600080fd5b600073ffffffffffffffffffffffffffffffffffffffff82169050919050565b60006104ab82610480565b9050919050565b6104bb816104a0565b81146104c657600080fd5b50565b6000813590506104d8816104b2565b92915050565b600080fd5b600080fd5b600080fd5b60008083601f840112610503576105026104de565b5b8235905067ffffffffffffffff8111156105205761051f6104e3565b5b60208301915083600182028301111561053c5761053b6104e8565b5b9250929050565b60008060006040848603121561055c5761055b610476565b5b600061056a868287016104c9565b935050602084013567ffffffffffffffff81111561058b5761058a61047b565b5b610597868287016104ed565b92509250509250925092565b7f4e487b7100000000000000000000000000000000000000000000000000000000600052602260045260246000fd5b600060028204905060018216806105ea57607f821691505b602082108114156105fe576105fd6105a3565b5b50919050565b600082825260208201905092915050565b7f416464726573733a20696e73756666696369656e742062616c616e636520666f60008201527f722063616c6c0000000000000000000000000000000000000000000000000000602082015250565b6000610671602683610604565b915061067c82610615565b604082019050919050565b600060208201905081810360008301526106a081610664565b9050919050565b600081519050919050565b600081905092915050565b60005b838110156106db5780820151818401526020810190506106c0565b838111156106ea576000848401525b50505050565b60006106fb826106a7565b61070581856106b2565b93506107158185602086016106bd565b80840191505092915050565b600061072d82846106f0565b915081905092915050565b7f416464726573733a2063616c6c20746f206e6f6e2d636f6e7472616374000000600082015250565b600061076e601d83610604565b915061077982610738565b602082019050919050565b6000602082019050818103600083015261079d81610761565b9050919050565b600081519050919050565b6000601f19601f8301169050919050565b60006107cb826107a4565b6107d58185610604565b93506107e58185602086016106bd565b6107ee816107af565b840191505092915050565b6000602082019050818103600083015261081381846107c0565b90509291505056fea264697066735822122035ab643cbcf31d27f7d01678c0bb34a7efa2a522398315ff1bfb6a264b1e83c664736f6c63430008090033",
  "linkReferences": {},
  "deployedLinkReferences": {}
}