{
  "_format": "hh-sol-artifact-1",
  "contractName": "UUPSUpgradeableUnsafeMock",
  "sourceName": "contracts/oz_contracts/mocks/proxy/UUPSUpgradeableMock.sol",
  "abi": [
    {
      "anonymous": false,
      "inputs": [
        {
          "indexed": false,
          "internalType": "address",
          "name": "previousAdmin",
          "type": "address"
        },
        {
          "indexed": false,
          "internalType": "address",
          "name": "newAdmin",
          "type": "address"
        }
      ],
      "name": "AdminChanged",
      "type": "event"
    },
    {
      "anonymous": false,
      "inputs": [
        {
          "indexed": true,
          "internalType": "address",
          "name": "beacon",
          "type": "address"
        }
      ],
      "name": "BeaconUpgraded",
      "type": "event"
    },
    {
      "anonymous": false,
      "inputs": [
        {
          "indexed": true,
          "internalType": "address",
          "name": "implementation",
          "type": "address"
        }
      ],
      "name": "Upgraded",
      "type": "event"
    },
    {
      "inputs": [],
      "name": "current",
      "outputs": [
        {
          "internalType": "uint256",
          "name": "",
          "type": "uint256"
        }
      ],
      "stateMutability": "view",
      "type": "function"
    },
    {
      "inputs": [],
      "name": "increment",
      "outputs": [],
      "stateMutability": "nonpayable",
      "type": "function"
    },
    {
      "inputs": [],
      "name": "proxiableUUID",
      "outputs": [
        {
          "internalType": "bytes32",
          "name": "",
          "type": "bytes32"
        }
      ],
      "stateMutability": "view",
      "type": "function"
    },
    {
      "inputs": [
        {
          "internalType": "address",
          "name": "newImplementation",
          "type": "address"
        }
      ],
      "name": "upgradeTo",
      "outputs": [],
      "stateMutability": "nonpayable",
      "type": "function"
    },
    {
      "inputs": [
        {
          "internalType": "address",
          "name": "newImplementation",
          "type": "address"
        },
        {
          "internalType": "bytes",
          "name": "data",
          "type": "bytes"
        }
      ],
      "name": "upgradeToAndCall",
      "outputs": [],
      "stateMutability": "payable",
      "type": "function"
    }
  ],
  "bytecode": "0x60a06040523073ffffffffffffffffffffffffffffffffffffffff1660809073ffffffffffffffffffffffffffffffffffffffff1681525034801561004357600080fd5b50608051610aa161005f60003960006101330152610aa16000f3fe60806040526004361061004a5760003560e01c80633659cfe61461004f5780634f1ef2861461007857806352d1902d146100945780639fa6a6e3146100bf578063d09de08a146100ea575b600080fd5b34801561005b57600080fd5b5061007660048036038101906100719190610575565b610101565b005b610092600480360381019061008d91906106e8565b61011f565b005b3480156100a057600080fd5b506100a961012f565b6040516100b6919061075d565b60405180910390f35b3480156100cb57600080fd5b506100d46101e8565b6040516100e19190610791565b60405180910390f35b3480156100f657600080fd5b506100ff6101f9565b005b61011c81604051806020016040528060008152506000610205565b50565b61012b82826000610205565b5050565b60007f000000000000000000000000000000000000000000000000000000000000000073ffffffffffffffffffffffffffffffffffffffff163073ffffffffffffffffffffffffffffffffffffffff16146101bf576040517f08c379a00000000000000000000000000000000000000000000000000000000081526004016101b69061082f565b60405180910390fd5b7f360894a13ba1a3210667c828492db98dca3e2076cc3735a920a3ca505d382bbc60001b905090565b60006101f46000610231565b905090565b610203600061023f565b565b61020e83610255565b60008251118061021b5750805b1561022c5761022a83836102a4565b505b505050565b600081600001549050919050565b6001816000016000828254019250508190555050565b61025e816102d1565b8073ffffffffffffffffffffffffffffffffffffffff167fbc7cd75a20ee27fd9adebab32041f755214dbc6bffa90cc0225b39da2e5c2d3b60405160405180910390a250565b60606102c98383604051806060016040528060278152602001610a456027913961038a565b905092915050565b6102da81610410565b610319576040517f08c379a0000000000000000000000000000000000000000000000000000000008152600401610310906108c1565b60405180910390fd5b806103467f360894a13ba1a3210667c828492db98dca3e2076cc3735a920a3ca505d382bbc60001b610433565b60000160006101000a81548173ffffffffffffffffffffffffffffffffffffffff021916908373ffffffffffffffffffffffffffffffffffffffff16021790555050565b60606000808573ffffffffffffffffffffffffffffffffffffffff16856040516103b4919061095b565b600060405180830381855af49150503d80600081146103ef576040519150601f19603f3d011682016040523d82523d6000602084013e6103f4565b606091505b50915091506104058683838761043d565b925050509392505050565b6000808273ffffffffffffffffffffffffffffffffffffffff163b119050919050565b6000819050919050565b606083156104a0576000835114156104985761045885610410565b610497576040517f08c379a000000000000000000000000000000000000000000000000000000000815260040161048e906109be565b60405180910390fd5b5b8290506104ab565b6104aa83836104b3565b5b949350505050565b6000825111156104c65781518083602001fd5b806040517f08c379a00000000000000000000000000000000000000000000000000000000081526004016104fa9190610a22565b60405180910390fd5b6000604051905090565b600080fd5b600080fd5b600073ffffffffffffffffffffffffffffffffffffffff82169050919050565b600061054282610517565b9050919050565b61055281610537565b811461055d57600080fd5b50565b60008135905061056f81610549565b92915050565b60006020828403121561058b5761058a61050d565b5b600061059984828501610560565b91505092915050565b600080fd5b600080fd5b6000601f19601f8301169050919050565b7f4e487b7100000000000000000000000000000000000000000000000000000000600052604160045260246000fd5b6105f5826105ac565b810181811067ffffffffffffffff82111715610614576106136105bd565b5b80604052505050565b6000610627610503565b905061063382826105ec565b919050565b600067ffffffffffffffff821115610653576106526105bd565b5b61065c826105ac565b9050602081019050919050565b82818337600083830152505050565b600061068b61068684610638565b61061d565b9050828152602081018484840111156106a7576106a66105a7565b5b6106b2848285610669565b509392505050565b600082601f8301126106cf576106ce6105a2565b5b81356106df848260208601610678565b91505092915050565b600080604083850312156106ff576106fe61050d565b5b600061070d85828601610560565b925050602083013567ffffffffffffffff81111561072e5761072d610512565b5b61073a858286016106ba565b9150509250929050565b6000819050919050565b61075781610744565b82525050565b6000602082019050610772600083018461074e565b92915050565b6000819050919050565b61078b81610778565b82525050565b60006020820190506107a66000830184610782565b92915050565b600082825260208201905092915050565b7f555550535570677261646561626c653a206d757374206e6f742062652063616c60008201527f6c6564207468726f7567682064656c656761746563616c6c0000000000000000602082015250565b60006108196038836107ac565b9150610824826107bd565b604082019050919050565b600060208201905081810360008301526108488161080c565b9050919050565b7f455243313936373a206e657720696d706c656d656e746174696f6e206973206e60008201527f6f74206120636f6e747261637400000000000000000000000000000000000000602082015250565b60006108ab602d836107ac565b91506108b68261084f565b604082019050919050565b600060208201905081810360008301526108da8161089e565b9050919050565b600081519050919050565b600081905092915050565b60005b838110156109155780820151818401526020810190506108fa565b83811115610924576000848401525b50505050565b6000610935826108e1565b61093f81856108ec565b935061094f8185602086016108f7565b80840191505092915050565b6000610967828461092a565b915081905092915050565b7f416464726573733a2063616c6c20746f206e6f6e2d636f6e7472616374000000600082015250565b60006109a8601d836107ac565b91506109b382610972565b602082019050919050565b600060208201905081810360008301526109d78161099b565b9050919050565b600081519050919050565b60006109f4826109de565b6109fe81856107ac565b9350610a0e8185602086016108f7565b610a17816105ac565b840191505092915050565b60006020820190508181036000830152610a3c81846109e9565b90509291505056fe416464726573733a206c6f772d6c6576656c2064656c65676174652063616c6c206661696c6564a2646970667358221220385ff80a297e81f42a8940d0dc7668c9197148360ed27ee575c15ec14c3f215664736f6c63430008090033",
  "linkReferences": {},
  "deployedLinkReferences": {}
}