{
  "_format": "hh-sol-artifact-1",
  "contractName": "CallReceiverMock",
  "sourceName": "contracts/oz_contracts/mocks/CallReceiverMock.sol",
  "abi": [
    {
      "anonymous": false,
      "inputs": [],
      "name": "MockFunctionCalled",
      "type": "event"
    },
    {
      "anonymous": false,
      "inputs": [
        {
          "indexed": false,
          "internalType": "uint256",
          "name": "a",
          "type": "uint256"
        },
        {
          "indexed": false,
          "internalType": "uint256",
          "name": "b",
          "type": "uint256"
        }
      ],
      "name": "MockFunctionCalledWithArgs",
      "type": "event"
    },
    {
      "inputs": [],
      "name": "mockFunction",
      "outputs": [
        {
          "internalType": "string",
          "name": "",
          "type": "string"
        }
      ],
      "stateMutability": "payable",
      "type": "function"
    },
    {
      "inputs": [],
      "name": "mockFunctionEmptyReturn",
      "outputs": [],
      "stateMutability": "payable",
      "type": "function"
    },
    {
      "inputs": [],
      "name": "mockFunctionNonPayable",
      "outputs": [
        {
          "internalType": "string",
          "name": "",
          "type": "string"
        }
      ],
      "stateMutability": "nonpayable",
      "type": "function"
    },
    {
      "inputs": [],
      "name": "mockFunctionOutOfGas",
      "outputs": [],
      "stateMutability": "payable",
      "type": "function"
    },
    {
      "inputs": [],
      "name": "mockFunctionRevertsNoReason",
      "outputs": [],
      "stateMutability": "payable",
      "type": "function"
    },
    {
      "inputs": [],
      "name": "mockFunctionRevertsReason",
      "outputs": [],
      "stateMutability": "payable",
      "type": "function"
    },
    {
      "inputs": [],
      "name": "mockFunctionThrows",
      "outputs": [],
      "stateMutability": "payable",
      "type": "function"
    },
    {
      "inputs": [
        {
          "internalType": "uint256",
          "name": "a",
          "type": "uint256"
        },
        {
          "internalType": "uint256",
          "name": "b",
          "type": "uint256"
        }
      ],
      "name": "mockFunctionWithArgs",
      "outputs": [
        {
          "internalType": "string",
          "name": "",
          "type": "string"
        }
      ],
      "stateMutability": "payable",
      "type": "function"
    },
    {
      "inputs": [
        {
          "internalType": "bytes32",
          "name": "slot",
          "type": "bytes32"
        },
        {
          "internalType": "bytes32",
          "name": "value",
          "type": "bytes32"
        }
      ],
      "name": "mockFunctionWritesStorage",
      "outputs": [
        {
          "internalType": "string",
          "name": "",
          "type": "string"
        }
      ],
      "stateMutability": "nonpayable",
      "type": "function"
    },
    {
      "inputs": [],
      "name": "mockStaticFunction",
      "outputs": [
        {
          "internalType": "string",
          "name": "",
          "type": "string"
        }
      ],
      "stateMutability": "pure",
      "type": "function"
    }
  ],
  "bytecode": "0x608060405234801561001057600080fd5b5061075d806100206000396000f3fe6080604052600436106100915760003560e01c8063425397a211610059578063425397a2146100fd578063a793ab471461013a578063c292d81c14610144578063c8fc76961461014e578063fdb273251461017957610091565b80630c034968146100965780630f63e42c146100a05780632c81d638146100cb5780633bcfaa14146100d55780633e6fec04146100df575b600080fd5b61009e6101a9565b005b3480156100ac57600080fd5b506100b56101e4565b6040516100c291906104c9565b60405180910390f35b6100d361024d565b005b6100dd610252565b005b6100e7610263565b6040516100f491906104c9565b60405180910390f35b34801561010957600080fd5b50610124600480360381019061011f9190610526565b6102cc565b60405161013191906104c9565b60405180910390f35b61014261030f565b005b61014c61034c565b005b34801561015a57600080fd5b5061016361037a565b60405161017091906104c9565b60405180910390f35b610193600480360381019061018e919061059c565b6103b7565b6040516101a091906104c9565b60405180910390f35b6040517f08c379a00000000000000000000000000000000000000000000000000000000081526004016101db90610628565b60405180910390fd5b60607f52c66ed6ec9ca819cba26fe2b2650059270d8981b295af300187a964f54a8c2360405160405180910390a16040518060400160405280600681526020017f3078313233340000000000000000000000000000000000000000000000000000815250905090565b600080fd5b600061026157610260610648565b5b565b60607f52c66ed6ec9ca819cba26fe2b2650059270d8981b295af300187a964f54a8c2360405160405180910390a16040518060400160405280600681526020017f3078313233340000000000000000000000000000000000000000000000000000815250905090565b60608183556040518060400160405280600681526020017f3078313233340000000000000000000000000000000000000000000000000000815250905092915050565b60005b600081908060018154018082558091505060019003906000526020600020016000909190919091505580610345906106a6565b9050610312565b7f52c66ed6ec9ca819cba26fe2b2650059270d8981b295af300187a964f54a8c2360405160405180910390a1565b60606040518060400160405280600681526020017f3078313233340000000000000000000000000000000000000000000000000000815250905090565b60607f2b42b3c9af4187c86225f201736204c7597312c830cb5c2537dff6ef24b946ae83836040516103ea9291906106fe565b60405180910390a16040518060400160405280600681526020017f3078313233340000000000000000000000000000000000000000000000000000815250905092915050565b600081519050919050565b600082825260208201905092915050565b60005b8381101561046a57808201518184015260208101905061044f565b83811115610479576000848401525b50505050565b6000601f19601f8301169050919050565b600061049b82610430565b6104a5818561043b565b93506104b581856020860161044c565b6104be8161047f565b840191505092915050565b600060208201905081810360008301526104e38184610490565b905092915050565b600080fd5b6000819050919050565b610503816104f0565b811461050e57600080fd5b50565b600081359050610520816104fa565b92915050565b6000806040838503121561053d5761053c6104eb565b5b600061054b85828601610511565b925050602061055c85828601610511565b9150509250929050565b6000819050919050565b61057981610566565b811461058457600080fd5b50565b60008135905061059681610570565b92915050565b600080604083850312156105b3576105b26104eb565b5b60006105c185828601610587565b92505060206105d285828601610587565b9150509250929050565b7f43616c6c52656365697665724d6f636b3a20726576657274696e670000000000600082015250565b6000610612601b8361043b565b915061061d826105dc565b602082019050919050565b6000602082019050818103600083015261064181610605565b9050919050565b7f4e487b7100000000000000000000000000000000000000000000000000000000600052600160045260246000fd5b7f4e487b7100000000000000000000000000000000000000000000000000000000600052601160045260246000fd5b60006106b182610566565b91507fffffffffffffffffffffffffffffffffffffffffffffffffffffffffffffffff8214156106e4576106e3610677565b5b600182019050919050565b6106f881610566565b82525050565b600060408201905061071360008301856106ef565b61072060208301846106ef565b939250505056fea264697066735822122039faac852b4fa07a9afea8f13101efba2eafd65861824d556986bb6c2f70cbac64736f6c63430008090033",
  "linkReferences": {},
  "deployedLinkReferences": {}
}