{
  "_format": "hh-sol-artifact-1",
  "contractName": "ETH_Bridge_Logic",
  "sourceName": "contracts/ETH_Bridge_Logic.sol",
  "abi": [
    {
      "inputs": [
        {
          "internalType": "address payable",
          "name": "ETH_asset_pool",
          "type": "address"
        }
      ],
      "stateMutability": "nonpayable",
      "type": "constructor"
    },
    {
      "anonymous": false,
      "inputs": [
        {
          "indexed": false,
          "internalType": "uint256",
          "name": "new_maximum",
          "type": "uint256"
        },
        {
          "indexed": false,
          "internalType": "uint256",
          "name": "nonce",
          "type": "uint256"
        }
      ],
      "name": "ETH_Deposit_Maximum_Set",
      "type": "event"
    },
    {
      "anonymous": false,
      "inputs": [
        {
          "indexed": false,
          "internalType": "uint256",
          "name": "new_minimum",
          "type": "uint256"
        },
        {
          "indexed": false,
          "internalType": "uint256",
          "name": "nonce",
          "type": "uint256"
        }
      ],
      "name": "ETH_Deposit_Minimum_Set",
      "type": "event"
    },
    {
      "anonymous": false,
      "inputs": [
        {
          "indexed": true,
          "internalType": "address",
          "name": "user_address",
          "type": "address"
        },
        {
          "indexed": false,
          "internalType": "uint256",
          "name": "amount",
          "type": "uint256"
        },
        {
          "indexed": false,
          "internalType": "bytes32",
          "name": "vega_public_key",
          "type": "bytes32"
        }
      ],
      "name": "ETH_Deposited",
      "type": "event"
    },
    {
      "anonymous": false,
      "inputs": [
        {
          "indexed": true,
          "internalType": "address",
          "name": "user_address",
          "type": "address"
        },
        {
          "indexed": false,
          "internalType": "uint256",
          "name": "amount",
          "type": "uint256"
        },
        {
          "indexed": false,
          "internalType": "uint256",
          "name": "nonce",
          "type": "uint256"
        }
      ],
      "name": "ETH_Withdrawn",
      "type": "event"
    },
    {
      "inputs": [
        {
          "internalType": "bytes32",
          "name": "vega_public_key",
          "type": "bytes32"
        }
      ],
      "name": "deposit_asset",
      "outputs": [],
      "stateMutability": "payable",
      "type": "function"
    },
    {
      "inputs": [],
      "name": "get_deposit_maximum",
      "outputs": [
        {
          "internalType": "uint256",
          "name": "",
          "type": "uint256"
        }
      ],
      "stateMutability": "view",
      "type": "function"
    },
    {
      "inputs": [],
      "name": "get_deposit_minimum",
      "outputs": [
        {
          "internalType": "uint256",
          "name": "",
          "type": "uint256"
        }
      ],
      "stateMutability": "view",
      "type": "function"
    },
    {
      "inputs": [],
      "name": "get_multisig_control_address",
      "outputs": [
        {
          "internalType": "address",
          "name": "",
          "type": "address"
        }
      ],
      "stateMutability": "view",
      "type": "function"
    },
    {
      "inputs": [
        {
          "internalType": "uint256",
          "name": "maximum_amount",
          "type": "uint256"
        },
        {
          "internalType": "uint256",
          "name": "nonce",
          "type": "uint256"
        },
        {
          "internalType": "bytes",
          "name": "signatures",
          "type": "bytes"
        }
      ],
      "name": "set_deposit_maximum",
      "outputs": [],
      "stateMutability": "nonpayable",
      "type": "function"
    },
    {
      "inputs": [
        {
          "internalType": "uint256",
          "name": "minimum_amount",
          "type": "uint256"
        },
        {
          "internalType": "uint256",
          "name": "nonce",
          "type": "uint256"
        },
        {
          "internalType": "bytes",
          "name": "signatures",
          "type": "bytes"
        }
      ],
      "name": "set_deposit_minimum",
      "outputs": [],
      "stateMutability": "nonpayable",
      "type": "function"
    },
    {
      "inputs": [
        {
          "internalType": "uint256",
          "name": "amount",
          "type": "uint256"
        },
        {
          "internalType": "uint256",
          "name": "expiry",
          "type": "uint256"
        },
        {
          "internalType": "address payable",
          "name": "target",
          "type": "address"
        },
        {
          "internalType": "uint256",
          "name": "nonce",
          "type": "uint256"
        },
        {
          "internalType": "bytes",
          "name": "signatures",
          "type": "bytes"
        }
      ],
      "name": "withdraw_asset",
      "outputs": [],
      "stateMutability": "nonpayable",
      "type": "function"
    }
  ],
  "bytecode": "0x60806040523480156200001157600080fd5b50604051620013fb380380620013fb83398181016040528101906200003791906200015b565b600073ffffffffffffffffffffffffffffffffffffffff168173ffffffffffffffffffffffffffffffffffffffff161415620000aa576040517f08c379a0000000000000000000000000000000000000000000000000000000008152600401620000a190620001ee565b60405180910390fd5b806000806101000a81548173ffffffffffffffffffffffffffffffffffffffff021916908373ffffffffffffffffffffffffffffffffffffffff1602179055505062000210565b600080fd5b600073ffffffffffffffffffffffffffffffffffffffff82169050919050565b60006200012382620000f6565b9050919050565b620001358162000116565b81146200014157600080fd5b50565b60008151905062000155816200012a565b92915050565b600060208284031215620001745762000173620000f1565b5b6000620001848482850162000144565b91505092915050565b600082825260208201905092915050565b7f696e76616c696420617373657420706f6f6c2061646472657373000000000000600082015250565b6000620001d6601a836200018d565b9150620001e3826200019e565b602082019050919050565b600060208201905081810360008301526200020981620001c7565b9050919050565b6111db80620002206000396000f3fe6080604052600436106100705760003560e01c8063b38ec4061161004e578063b38ec406146100f2578063c58dc3b91461011b578063ceaf221b14610146578063d172369c1461016257610070565b806339a2c7db146100755780637db94c821461009e57806380bc0668146100c7575b600080fd5b34801561008157600080fd5b5061009c60048036038101906100979190610a3d565b61018d565b005b3480156100aa57600080fd5b506100c560048036038101906100c09190610ad4565b6103b3565b005b3480156100d357600080fd5b506100dc6104f4565b6040516100e99190610b52565b60405180910390f35b3480156100fe57600080fd5b5061011960048036038101906101149190610ad4565b6104fe565b005b34801561012757600080fd5b5061013061063f565b60405161013d9190610b8e565b60405180910390f35b610160600480360381019061015b9190610bdf565b61064e565b005b34801561016e57600080fd5b5061017761079f565b6040516101849190610b52565b60405180910390f35b4284116101cf576040517f08c379a00000000000000000000000000000000000000000000000000000000081526004016101c690610c69565b60405180910390fd5b6000858585856040516020016101e89493929190610ce4565b60405160208183030381529060405290506102016107a9565b73ffffffffffffffffffffffffffffffffffffffff1663ba73659a8383866040518463ffffffff1660e01b815260040161023d93929190610dc4565b602060405180830381600087803b15801561025757600080fd5b505af115801561026b573d6000803e3d6000fd5b505050506040513d601f19601f8201168201806040525081019061028f9190610e41565b6102ce576040517f08c379a00000000000000000000000000000000000000000000000000000000081526004016102c590610eba565b60405180910390fd5b60008054906101000a900473ffffffffffffffffffffffffffffffffffffffff1673ffffffffffffffffffffffffffffffffffffffff1663f3fef3a385886040518363ffffffff1660e01b8152600401610329929190610eda565b600060405180830381600087803b15801561034357600080fd5b505af1158015610357573d6000803e3d6000fd5b505050508373ffffffffffffffffffffffffffffffffffffffff167f6875a38a87618c964b80397bb7582ce2d937c2d458335f1ef75bbb9b8a69ce5387856040516103a3929190610f03565b60405180910390a2505050505050565b600083836040516020016103c8929190610f78565b60405160208183030381529060405290506103e16107a9565b73ffffffffffffffffffffffffffffffffffffffff1663ba73659a8383866040518463ffffffff1660e01b815260040161041d93929190610dc4565b602060405180830381600087803b15801561043757600080fd5b505af115801561044b573d6000803e3d6000fd5b505050506040513d601f19601f8201168201806040525081019061046f9190610e41565b6104ae576040517f08c379a00000000000000000000000000000000000000000000000000000000081526004016104a590610eba565b60405180910390fd5b836002819055507f833d0d7919b4ba3e0dfbd5d7bd9ed614652dcfd8f80b43dcfc1ce2a7356a38fa84846040516104e6929190610f03565b60405180910390a150505050565b6000600154905090565b60008383604051602001610513929190611000565b604051602081830303815290604052905061052c6107a9565b73ffffffffffffffffffffffffffffffffffffffff1663ba73659a8383866040518463ffffffff1660e01b815260040161056893929190610dc4565b602060405180830381600087803b15801561058257600080fd5b505af1158015610596573d6000803e3d6000fd5b505050506040513d601f19601f820116820180604052508101906105ba9190610e41565b6105f9576040517f08c379a00000000000000000000000000000000000000000000000000000000081526004016105f090610eba565b60405180910390fd5b836001819055507f963cdad18217aff9ffb0f4b78a5ad965769f190aff78736f0f958d58ab3ef9c98484604051610631929190610f03565b60405180910390a150505050565b60006106496107a9565b905090565b6000600254148061066157506002543411155b6106a0576040517f08c379a000000000000000000000000000000000000000000000000000000000815260040161069790611088565b60405180910390fd5b6001543410156106e5576040517f08c379a00000000000000000000000000000000000000000000000000000000081526004016106dc906110f4565b60405180910390fd5b60008054906101000a900473ffffffffffffffffffffffffffffffffffffffff1673ffffffffffffffffffffffffffffffffffffffff166108fc349081150290604051600060405180830381858888f1935050505015801561074b573d6000803e3d6000fd5b503373ffffffffffffffffffffffffffffffffffffffff167fb1f58f9eaf7eb348df2fd084d223a7a441bc2c9f80c1bdae06db7131d9b7d7eb3483604051610794929190611123565b60405180910390a250565b6000600254905090565b60008060009054906101000a900473ffffffffffffffffffffffffffffffffffffffff1673ffffffffffffffffffffffffffffffffffffffff1663b82d5abd6040518163ffffffff1660e01b815260040160206040518083038186803b15801561081257600080fd5b505afa158015610826573d6000803e3d6000fd5b505050506040513d601f19601f8201168201806040525081019061084a9190611178565b905090565b6000604051905090565b600080fd5b600080fd5b6000819050919050565b61087681610863565b811461088157600080fd5b50565b6000813590506108938161086d565b92915050565b600073ffffffffffffffffffffffffffffffffffffffff82169050919050565b60006108c482610899565b9050919050565b6108d4816108b9565b81146108df57600080fd5b50565b6000813590506108f1816108cb565b92915050565b600080fd5b600080fd5b6000601f19601f8301169050919050565b7f4e487b7100000000000000000000000000000000000000000000000000000000600052604160045260246000fd5b61094a82610901565b810181811067ffffffffffffffff8211171561096957610968610912565b5b80604052505050565b600061097c61084f565b90506109888282610941565b919050565b600067ffffffffffffffff8211156109a8576109a7610912565b5b6109b182610901565b9050602081019050919050565b82818337600083830152505050565b60006109e06109db8461098d565b610972565b9050828152602081018484840111156109fc576109fb6108fc565b5b610a078482856109be565b509392505050565b600082601f830112610a2457610a236108f7565b5b8135610a348482602086016109cd565b91505092915050565b600080600080600060a08688031215610a5957610a58610859565b5b6000610a6788828901610884565b9550506020610a7888828901610884565b9450506040610a89888289016108e2565b9350506060610a9a88828901610884565b925050608086013567ffffffffffffffff811115610abb57610aba61085e565b5b610ac788828901610a0f565b9150509295509295909350565b600080600060608486031215610aed57610aec610859565b5b6000610afb86828701610884565b9350506020610b0c86828701610884565b925050604084013567ffffffffffffffff811115610b2d57610b2c61085e565b5b610b3986828701610a0f565b9150509250925092565b610b4c81610863565b82525050565b6000602082019050610b676000830184610b43565b92915050565b6000610b7882610899565b9050919050565b610b8881610b6d565b82525050565b6000602082019050610ba36000830184610b7f565b92915050565b6000819050919050565b610bbc81610ba9565b8114610bc757600080fd5b50565b600081359050610bd981610bb3565b92915050565b600060208284031215610bf557610bf4610859565b5b6000610c0384828501610bca565b91505092915050565b600082825260208201905092915050565b7f7769746864726177616c20686173206578706972656400000000000000000000600082015250565b6000610c53601683610c0c565b9150610c5e82610c1d565b602082019050919050565b60006020820190508181036000830152610c8281610c46565b9050919050565b610c92816108b9565b82525050565b7f77697468647261775f6173736574000000000000000000000000000000000000600082015250565b6000610cce600e83610c0c565b9150610cd982610c98565b602082019050919050565b600060a082019050610cf96000830187610b43565b610d066020830186610b43565b610d136040830185610c89565b610d206060830184610b43565b8181036080830152610d3181610cc1565b905095945050505050565b600081519050919050565b600082825260208201905092915050565b60005b83811015610d76578082015181840152602081019050610d5b565b83811115610d85576000848401525b50505050565b6000610d9682610d3c565b610da08185610d47565b9350610db0818560208601610d58565b610db981610901565b840191505092915050565b60006060820190508181036000830152610dde8186610d8b565b90508181036020830152610df28185610d8b565b9050610e016040830184610b43565b949350505050565b60008115159050919050565b610e1e81610e09565b8114610e2957600080fd5b50565b600081519050610e3b81610e15565b92915050565b600060208284031215610e5757610e56610859565b5b6000610e6584828501610e2c565b91505092915050565b7f626164207369676e617475726573000000000000000000000000000000000000600082015250565b6000610ea4600e83610c0c565b9150610eaf82610e6e565b602082019050919050565b60006020820190508181036000830152610ed381610e97565b9050919050565b6000604082019050610eef6000830185610c89565b610efc6020830184610b43565b9392505050565b6000604082019050610f186000830185610b43565b610f256020830184610b43565b9392505050565b7f7365745f6465706f7369745f6d6178696d756d00000000000000000000000000600082015250565b6000610f62601383610c0c565b9150610f6d82610f2c565b602082019050919050565b6000606082019050610f8d6000830185610b43565b610f9a6020830184610b43565b8181036040830152610fab81610f55565b90509392505050565b7f7365745f6465706f7369745f6d696e696d756d00000000000000000000000000600082015250565b6000610fea601383610c0c565b9150610ff582610fb4565b602082019050919050565b60006060820190506110156000830185610b43565b6110226020830184610b43565b818103604083015261103381610fdd565b90509392505050565b7f6465706f7369742061626f7665206d6178696d756d0000000000000000000000600082015250565b6000611072601583610c0c565b915061107d8261103c565b602082019050919050565b600060208201905081810360008301526110a181611065565b9050919050565b7f6465706f7369742062656c6f77206d696e696d756d0000000000000000000000600082015250565b60006110de601583610c0c565b91506110e9826110a8565b602082019050919050565b6000602082019050818103600083015261110d816110d1565b9050919050565b61111d81610ba9565b82525050565b60006040820190506111386000830185610b43565b6111456020830184611114565b9392505050565b61115581610b6d565b811461116057600080fd5b50565b6000815190506111728161114c565b92915050565b60006020828403121561118e5761118d610859565b5b600061119c84828501611163565b9150509291505056fea264697066735822122094caa01ea1d668da60f3408e537ff22cfa0ef44065e9aeab0a5055db53030f8264736f6c63430008090033",
  "linkReferences": {},
  "deployedLinkReferences": {}
}