{
  "_format": "hh-sol-artifact-1",
  "contractName": "ERC20_Bridge_Logic_Restricted",
  "sourceName": "contracts/ERC20_Bridge_Logic_Restricted.sol",
  "abi": [
    {
      "inputs": [
        {
          "internalType": "address payable",
          "name": "erc20_asset_pool",
          "type": "address"
        }
      ],
      "stateMutability": "nonpayable",
      "type": "constructor"
    },
    {
      "anonymous": false,
      "inputs": [
        {
          "indexed": true,
          "internalType": "address",
          "name": "user_address",
          "type": "address"
        },
        {
          "indexed": true,
          "internalType": "address",
          "name": "asset_source",
          "type": "address"
        },
        {
          "indexed": false,
          "internalType": "uint256",
          "name": "amount",
          "type": "uint256"
        },
        {
          "indexed": false,
          "internalType": "bytes32",
          "name": "vega_public_key",
          "type": "bytes32"
        }
      ],
      "name": "Asset_Deposited",
      "type": "event"
    },
    {
      "anonymous": false,
      "inputs": [
        {
          "indexed": true,
          "internalType": "address",
          "name": "asset_source",
          "type": "address"
        },
        {
          "indexed": false,
          "internalType": "uint256",
          "name": "lifetime_limit",
          "type": "uint256"
        },
        {
          "indexed": false,
          "internalType": "uint256",
          "name": "withdraw_threshold",
          "type": "uint256"
        }
      ],
      "name": "Asset_Limits_Updated",
      "type": "event"
    },
    {
      "anonymous": false,
      "inputs": [
        {
          "indexed": true,
          "internalType": "address",
          "name": "asset_source",
          "type": "address"
        },
        {
          "indexed": true,
          "internalType": "bytes32",
          "name": "vega_asset_id",
          "type": "bytes32"
        },
        {
          "indexed": false,
          "internalType": "uint256",
          "name": "nonce",
          "type": "uint256"
        }
      ],
      "name": "Asset_Listed",
      "type": "event"
    },
    {
      "anonymous": false,
      "inputs": [
        {
          "indexed": true,
          "internalType": "address",
          "name": "asset_source",
          "type": "address"
        },
        {
          "indexed": false,
          "internalType": "uint256",
          "name": "nonce",
          "type": "uint256"
        }
      ],
      "name": "Asset_Removed",
      "type": "event"
    },
    {
      "anonymous": false,
      "inputs": [
        {
          "indexed": true,
          "internalType": "address",
          "name": "user_address",
          "type": "address"
        },
        {
          "indexed": true,
          "internalType": "address",
          "name": "asset_source",
          "type": "address"
        },
        {
          "indexed": false,
          "internalType": "uint256",
          "name": "amount",
          "type": "uint256"
        },
        {
          "indexed": false,
          "internalType": "uint256",
          "name": "nonce",
          "type": "uint256"
        }
      ],
      "name": "Asset_Withdrawn",
      "type": "event"
    },
    {
      "anonymous": false,
      "inputs": [],
      "name": "Bridge_Resumed",
      "type": "event"
    },
    {
      "anonymous": false,
      "inputs": [],
      "name": "Bridge_Stopped",
      "type": "event"
    },
    {
      "anonymous": false,
      "inputs": [
        {
          "indexed": false,
          "internalType": "uint256",
          "name": "withdraw_delay",
          "type": "uint256"
        }
      ],
      "name": "Bridge_Withdraw_Delay_Set",
      "type": "event"
    },
    {
      "anonymous": false,
      "inputs": [
        {
          "indexed": true,
          "internalType": "address",
          "name": "depositor",
          "type": "address"
        }
      ],
      "name": "Depositor_Exempted",
      "type": "event"
    },
    {
      "anonymous": false,
      "inputs": [
        {
          "indexed": true,
          "internalType": "address",
          "name": "depositor",
          "type": "address"
        }
      ],
      "name": "Depositor_Exemption_Revoked",
      "type": "event"
    },
    {
      "inputs": [],
      "name": "default_withdraw_delay",
      "outputs": [
        {
          "internalType": "uint256",
          "name": "",
          "type": "uint256"
        }
      ],
      "stateMutability": "view",
      "type": "function"
    },
    {
      "inputs": [
        {
          "internalType": "address",
          "name": "asset_source",
          "type": "address"
        },
        {
          "internalType": "uint256",
          "name": "amount",
          "type": "uint256"
        },
        {
          "internalType": "bytes32",
          "name": "vega_public_key",
          "type": "bytes32"
        }
      ],
      "name": "deposit_asset",
      "outputs": [],
      "stateMutability": "nonpayable",
      "type": "function"
    },
    {
      "inputs": [],
      "name": "erc20_asset_pool_address",
      "outputs": [
        {
          "internalType": "address payable",
          "name": "",
          "type": "address"
        }
      ],
      "stateMutability": "view",
      "type": "function"
    },
    {
      "inputs": [],
      "name": "exempt_depositor",
      "outputs": [],
      "stateMutability": "nonpayable",
      "type": "function"
    },
    {
      "inputs": [
        {
          "internalType": "address",
          "name": "asset_source",
          "type": "address"
        }
      ],
      "name": "get_asset_deposit_lifetime_limit",
      "outputs": [
        {
          "internalType": "uint256",
          "name": "",
          "type": "uint256"
        }
      ],
      "stateMutability": "view",
      "type": "function"
    },
    {
      "inputs": [
        {
          "internalType": "bytes32",
          "name": "vega_asset_id",
          "type": "bytes32"
        }
      ],
      "name": "get_asset_source",
      "outputs": [
        {
          "internalType": "address",
          "name": "",
          "type": "address"
        }
      ],
      "stateMutability": "view",
      "type": "function"
    },
    {
      "inputs": [],
      "name": "get_multisig_control_address",
      "outputs": [
        {
          "internalType": "address",
          "name": "",
          "type": "address"
        }
      ],
      "stateMutability": "view",
      "type": "function"
    },
    {
      "inputs": [
        {
          "internalType": "address",
          "name": "asset_source",
          "type": "address"
        }
      ],
      "name": "get_vega_asset_id",
      "outputs": [
        {
          "internalType": "bytes32",
          "name": "",
          "type": "bytes32"
        }
      ],
      "stateMutability": "view",
      "type": "function"
    },
    {
      "inputs": [
        {
          "internalType": "address",
          "name": "asset_source",
          "type": "address"
        }
      ],
      "name": "get_withdraw_threshold",
      "outputs": [
        {
          "internalType": "uint256",
          "name": "",
          "type": "uint256"
        }
      ],
      "stateMutability": "view",
      "type": "function"
    },
    {
      "inputs": [
        {
          "internalType": "uint256",
          "name": "nonce",
          "type": "uint256"
        },
        {
          "internalType": "bytes",
          "name": "signatures",
          "type": "bytes"
        }
      ],
      "name": "global_resume",
      "outputs": [],
      "stateMutability": "nonpayable",
      "type": "function"
    },
    {
      "inputs": [
        {
          "internalType": "uint256",
          "name": "nonce",
          "type": "uint256"
        },
        {
          "internalType": "bytes",
          "name": "signatures",
          "type": "bytes"
        }
      ],
      "name": "global_stop",
      "outputs": [],
      "stateMutability": "nonpayable",
      "type": "function"
    },
    {
      "inputs": [
        {
          "internalType": "address",
          "name": "asset_source",
          "type": "address"
        }
      ],
      "name": "is_asset_listed",
      "outputs": [
        {
          "internalType": "bool",
          "name": "",
          "type": "bool"
        }
      ],
      "stateMutability": "view",
      "type": "function"
    },
    {
      "inputs": [
        {
          "internalType": "address",
          "name": "depositor",
          "type": "address"
        }
      ],
      "name": "is_exempt_depositor",
      "outputs": [
        {
          "internalType": "bool",
          "name": "",
          "type": "bool"
        }
      ],
      "stateMutability": "view",
      "type": "function"
    },
    {
      "inputs": [],
      "name": "is_stopped",
      "outputs": [
        {
          "internalType": "bool",
          "name": "",
          "type": "bool"
        }
      ],
      "stateMutability": "view",
      "type": "function"
    },
    {
      "inputs": [
        {
          "internalType": "address",
          "name": "asset_source",
          "type": "address"
        },
        {
          "internalType": "bytes32",
          "name": "vega_asset_id",
          "type": "bytes32"
        },
        {
          "internalType": "uint256",
          "name": "lifetime_limit",
          "type": "uint256"
        },
        {
          "internalType": "uint256",
          "name": "withdraw_threshold",
          "type": "uint256"
        },
        {
          "internalType": "uint256",
          "name": "nonce",
          "type": "uint256"
        },
        {
          "internalType": "bytes",
          "name": "signatures",
          "type": "bytes"
        }
      ],
      "name": "list_asset",
      "outputs": [],
      "stateMutability": "nonpayable",
      "type": "function"
    },
    {
      "inputs": [
        {
          "internalType": "address",
          "name": "asset_source",
          "type": "address"
        },
        {
          "internalType": "uint256",
          "name": "nonce",
          "type": "uint256"
        },
        {
          "internalType": "bytes",
          "name": "signatures",
          "type": "bytes"
        }
      ],
      "name": "remove_asset",
      "outputs": [],
      "stateMutability": "nonpayable",
      "type": "function"
    },
    {
      "inputs": [],
      "name": "revoke_exempt_depositor",
      "outputs": [],
      "stateMutability": "nonpayable",
      "type": "function"
    },
    {
      "inputs": [
        {
          "internalType": "address",
          "name": "asset_source",
          "type": "address"
        },
        {
          "internalType": "uint256",
          "name": "lifetime_limit",
          "type": "uint256"
        },
        {
          "internalType": "uint256",
          "name": "threshold",
          "type": "uint256"
        },
        {
          "internalType": "uint256",
          "name": "nonce",
          "type": "uint256"
        },
        {
          "internalType": "bytes",
          "name": "signatures",
          "type": "bytes"
        }
      ],
      "name": "set_asset_limits",
      "outputs": [],
      "stateMutability": "nonpayable",
      "type": "function"
    },
    {
      "inputs": [
        {
          "internalType": "uint256",
          "name": "delay",
          "type": "uint256"
        },
        {
          "internalType": "uint256",
          "name": "nonce",
          "type": "uint256"
        },
        {
          "internalType": "bytes",
          "name": "signatures",
          "type": "bytes"
        }
      ],
      "name": "set_withdraw_delay",
      "outputs": [],
      "stateMutability": "nonpayable",
      "type": "function"
    },
    {
      "inputs": [
        {
          "internalType": "address",
          "name": "asset_source",
          "type": "address"
        },
        {
          "internalType": "uint256",
          "name": "amount",
          "type": "uint256"
        },
        {
          "internalType": "address",
          "name": "target",
          "type": "address"
        },
        {
          "internalType": "uint256",
          "name": "creation",
          "type": "uint256"
        },
        {
          "internalType": "uint256",
          "name": "nonce",
          "type": "uint256"
        },
        {
          "internalType": "bytes",
          "name": "signatures",
          "type": "bytes"
        }
      ],
      "name": "withdraw_asset",
      "outputs": [],
      "stateMutability": "nonpayable",
      "type": "function"
    }
  ],
  "bytecode": "0x6080604052620697806006553480156200001857600080fd5b50604051620034973803806200349783398181016040528101906200003e919062000162565b600073ffffffffffffffffffffffffffffffffffffffff168173ffffffffffffffffffffffffffffffffffffffff161415620000b1576040517f08c379a0000000000000000000000000000000000000000000000000000000008152600401620000a890620001f5565b60405180910390fd5b806000806101000a81548173ffffffffffffffffffffffffffffffffffffffff021916908373ffffffffffffffffffffffffffffffffffffffff1602179055505062000217565b600080fd5b600073ffffffffffffffffffffffffffffffffffffffff82169050919050565b60006200012a82620000fd565b9050919050565b6200013c816200011d565b81146200014857600080fd5b50565b6000815190506200015c8162000131565b92915050565b6000602082840312156200017b576200017a620000f8565b5b60006200018b848285016200014b565b91505092915050565b600082825260208201905092915050565b7f696e76616c696420617373657420706f6f6c2061646472657373000000000000600082015250565b6000620001dd601a8362000194565b9150620001ea82620001a5565b602082019050919050565b600060208201905081810360008301526200021081620001ce565b9050919050565b61327080620002276000396000f3fe608060405234801561001057600080fd5b506004361061012c5760003560e01c80639356aab8116100ad578063c76de35811610071578063c76de3581461031b578063d72ed52914610337578063e272e9d014610353578063e8a7bce014610371578063f7683932146103a15761012c565b80639356aab8146102895780639dfd3c88146102a7578063a06b5d39146102c3578063b76fbb75146102f3578063c58dc3b9146102fd5761012c565b806341fb776d116100f457806341fb776d146101e75780635a246728146102035780636a1c6fa41461021f578063786b0bc0146102295780637fd27b7f146102595761012c565b80630ff3562c1461013157806315c0df9d1461014d578063354a897a1461017d5780633ad90635146101ad5780633f4f199d146101c9575b600080fd5b61014b60048036038101906101469190612001565b6103bd565b005b610167600480360381019061016291906120aa565b610788565b60405161017491906120f2565b60405180910390f35b610197600480360381019061019291906120aa565b6107de565b6040516101a4919061211c565b60405180910390f35b6101c760048036038101906101c29190612137565b610827565b005b6101d1610b10565b6040516101de919061211c565b60405180910390f35b61020160048036038101906101fc9190612240565b610b16565b005b61021d600480360381019061021891906122da565b610d84565b005b610227610ec6565b005b610243600480360381019061023e919061234e565b610fef565b604051610250919061238a565b60405180910390f35b610273600480360381019061026e91906120aa565b61102c565b60405161028091906120f2565b60405180910390f35b610291611082565b60405161029e91906123c6565b60405180910390f35b6102c160048036038101906102bc91906123e1565b6110a6565b005b6102dd60048036038101906102d891906120aa565b61123e565b6040516102ea9190612450565b60405180910390f35b6102fb611287565b005b6103056113b1565b604051610312919061238a565b60405180910390f35b6103356004803603810190610330919061246b565b6113c0565b005b610351600480360381019061034c91906123e1565b6115f3565b005b61035b61178a565b60405161036891906120f2565b60405180910390f35b61038b600480360381019061038691906120aa565b61179d565b604051610398919061211c565b60405180910390f35b6103bb60048036038101906103b691906124da565b6117e6565b005b600073ffffffffffffffffffffffffffffffffffffffff168673ffffffffffffffffffffffffffffffffffffffff16141561042d576040517f08c379a00000000000000000000000000000000000000000000000000000000081526004016104249061258a565b60405180910390fd5b600160008773ffffffffffffffffffffffffffffffffffffffff1673ffffffffffffffffffffffffffffffffffffffff16815260200190815260200160002060009054906101000a900460ff16156104ba576040517f08c379a00000000000000000000000000000000000000000000000000000000081526004016104b1906125f6565b60405180910390fd5b600086868686866040516020016104d5959493929190612662565b60405160208183030381529060405290506104ee611d24565b73ffffffffffffffffffffffffffffffffffffffff1663ba73659a8383866040518463ffffffff1660e01b815260040161052a93929190612750565b602060405180830381600087803b15801561054457600080fd5b505af1158015610558573d6000803e3d6000fd5b505050506040513d601f19601f8201168201806040525081019061057c91906127c1565b6105bb576040517f08c379a00000000000000000000000000000000000000000000000000000000081526004016105b29061283a565b60405180910390fd5b60018060008973ffffffffffffffffffffffffffffffffffffffff1673ffffffffffffffffffffffffffffffffffffffff16815260200190815260200160002060006101000a81548160ff021916908315150217905550866002600088815260200190815260200160002060006101000a81548173ffffffffffffffffffffffffffffffffffffffff021916908373ffffffffffffffffffffffffffffffffffffffff16021790555085600360008973ffffffffffffffffffffffffffffffffffffffff1673ffffffffffffffffffffffffffffffffffffffff1681526020019081526020016000208190555084600560008973ffffffffffffffffffffffffffffffffffffffff1673ffffffffffffffffffffffffffffffffffffffff1681526020019081526020016000208190555083600760008973ffffffffffffffffffffffffffffffffffffffff1673ffffffffffffffffffffffffffffffffffffffff16815260200190815260200160002081905550858773ffffffffffffffffffffffffffffffffffffffff167f4180d77d05ff0d31650c548c23f2de07a3da3ad42e3dd6edd817b438a150452e85604051610777919061211c565b60405180910390a350505050505050565b6000600960008373ffffffffffffffffffffffffffffffffffffffff1673ffffffffffffffffffffffffffffffffffffffff16815260200190815260200160002060009054906101000a900460ff169050919050565b6000600560008373ffffffffffffffffffffffffffffffffffffffff1673ffffffffffffffffffffffffffffffffffffffff168152602001908152602001600020549050919050565b600860009054906101000a900460ff1615610877576040517f08c379a000000000000000000000000000000000000000000000000000000000815260040161086e906128a6565b60405180910390fd5b84600760008873ffffffffffffffffffffffffffffffffffffffff1673ffffffffffffffffffffffffffffffffffffffff1681526020019081526020016000205411806108d1575042600654846108ce91906128f5565b11155b610910576040517f08c379a000000000000000000000000000000000000000000000000000000000815260040161090790612997565b60405180910390fd5b6000868686868660405160200161092b959493929190612a03565b6040516020818303038152906040529050610944611d24565b73ffffffffffffffffffffffffffffffffffffffff1663ba73659a8383866040518463ffffffff1660e01b815260040161098093929190612750565b602060405180830381600087803b15801561099a57600080fd5b505af11580156109ae573d6000803e3d6000fd5b505050506040513d601f19601f820116820180604052508101906109d291906127c1565b610a11576040517f08c379a0000000000000000000000000000000000000000000000000000000008152600401610a089061283a565b60405180910390fd5b60008054906101000a900473ffffffffffffffffffffffffffffffffffffffff1673ffffffffffffffffffffffffffffffffffffffff1663d9caed128887896040518463ffffffff1660e01b8152600401610a6e93929190612a69565b600060405180830381600087803b158015610a8857600080fd5b505af1158015610a9c573d6000803e3d6000fd5b505050508673ffffffffffffffffffffffffffffffffffffffff168573ffffffffffffffffffffffffffffffffffffffff167fa79be4f3361e32d396d64c478ecef73732cb40b2a75702c3b3b3226a2c83b5df8886604051610aff929190612aa0565b60405180910390a350505050505050565b60065481565b600160008773ffffffffffffffffffffffffffffffffffffffff1673ffffffffffffffffffffffffffffffffffffffff16815260200190815260200160002060009054906101000a900460ff16610ba2576040517f08c379a0000000000000000000000000000000000000000000000000000000008152600401610b9990612b15565b60405180910390fd5b600086868686604051602001610bbb9493929190612b81565b6040516020818303038152906040529050610bd4611d24565b73ffffffffffffffffffffffffffffffffffffffff1663ba73659a848484886040518563ffffffff1660e01b8152600401610c129493929190612c06565b602060405180830381600087803b158015610c2c57600080fd5b505af1158015610c40573d6000803e3d6000fd5b505050506040513d601f19601f82011682018060405250810190610c6491906127c1565b610ca3576040517f08c379a0000000000000000000000000000000000000000000000000000000008152600401610c9a9061283a565b60405180910390fd5b85600560008973ffffffffffffffffffffffffffffffffffffffff1673ffffffffffffffffffffffffffffffffffffffff1681526020019081526020016000208190555084600760008973ffffffffffffffffffffffffffffffffffffffff1673ffffffffffffffffffffffffffffffffffffffff168152602001908152602001600020819055508673ffffffffffffffffffffffffffffffffffffffff167ffc7eab762b8751ad85c101fd1025c763b4e8d48f2093f506629b606618e884fe8787604051610d73929190612aa0565b60405180910390a250505050505050565b60008484604051602001610d99929190612c99565b6040516020818303038152906040529050610db2611d24565b73ffffffffffffffffffffffffffffffffffffffff1663ba73659a848484886040518563ffffffff1660e01b8152600401610df09493929190612c06565b602060405180830381600087803b158015610e0a57600080fd5b505af1158015610e1e573d6000803e3d6000fd5b505050506040513d601f19601f82011682018060405250810190610e4291906127c1565b610e81576040517f08c379a0000000000000000000000000000000000000000000000000000000008152600401610e789061283a565b60405180910390fd5b846006819055507f1c7e8f73a01b8af4e18dd34455a42a45ad742bdb79cfda77bbdf50db2391fc8885604051610eb7919061211c565b60405180910390a15050505050565b600960003373ffffffffffffffffffffffffffffffffffffffff1673ffffffffffffffffffffffffffffffffffffffff16815260200190815260200160002060009054906101000a900460ff16610f52576040517f08c379a0000000000000000000000000000000000000000000000000000000008152600401610f4990612d21565b60405180910390fd5b6000600960003373ffffffffffffffffffffffffffffffffffffffff1673ffffffffffffffffffffffffffffffffffffffff16815260200190815260200160002060006101000a81548160ff0219169083151502179055503373ffffffffffffffffffffffffffffffffffffffff167fe74b113dca87276d976f476a9b4b9da3c780a3262eaabad051ee4e98912936a460405160405180910390a2565b60006002600083815260200190815260200160002060009054906101000a900473ffffffffffffffffffffffffffffffffffffffff169050919050565b6000600160008373ffffffffffffffffffffffffffffffffffffffff1673ffffffffffffffffffffffffffffffffffffffff16815260200190815260200160002060009054906101000a900460ff169050919050565b60008054906101000a900473ffffffffffffffffffffffffffffffffffffffff1681565b600860009054906101000a900460ff16156110f6576040517f08c379a00000000000000000000000000000000000000000000000000000000081526004016110ed90612d8d565b60405180910390fd5b6000836040516020016111099190612df9565b6040516020818303038152906040529050611122611d24565b73ffffffffffffffffffffffffffffffffffffffff1663ba73659a848484886040518563ffffffff1660e01b81526004016111609493929190612c06565b602060405180830381600087803b15801561117a57600080fd5b505af115801561118e573d6000803e3d6000fd5b505050506040513d601f19601f820116820180604052508101906111b291906127c1565b6111f1576040517f08c379a00000000000000000000000000000000000000000000000000000000081526004016111e89061283a565b60405180910390fd5b6001600860006101000a81548160ff0219169083151502179055507f129d99581c8e70519df1f0733d3212f33d0ed3ea6144adacc336c647f1d3638260405160405180910390a150505050565b6000600360008373ffffffffffffffffffffffffffffffffffffffff1673ffffffffffffffffffffffffffffffffffffffff168152602001908152602001600020549050919050565b600960003373ffffffffffffffffffffffffffffffffffffffff1673ffffffffffffffffffffffffffffffffffffffff16815260200190815260200160002060009054906101000a900460ff1615611314576040517f08c379a000000000000000000000000000000000000000000000000000000000815260040161130b90612e73565b60405180910390fd5b6001600960003373ffffffffffffffffffffffffffffffffffffffff1673ffffffffffffffffffffffffffffffffffffffff16815260200190815260200160002060006101000a81548160ff0219169083151502179055503373ffffffffffffffffffffffffffffffffffffffff167ff56e0868b913034a60dbca9c89ee79f8b0fa18dadbc5f6665f2f9a2cf3f51cdb60405160405180910390a2565b60006113bb611d24565b905090565b600160008473ffffffffffffffffffffffffffffffffffffffff1673ffffffffffffffffffffffffffffffffffffffff16815260200190815260200160002060009054906101000a900460ff1661144c576040517f08c379a000000000000000000000000000000000000000000000000000000000815260040161144390612b15565b60405180910390fd5b60008383604051602001611461929190612edf565b604051602081830303815290604052905061147a611d24565b73ffffffffffffffffffffffffffffffffffffffff1663ba73659a8383866040518463ffffffff1660e01b81526004016114b693929190612750565b602060405180830381600087803b1580156114d057600080fd5b505af11580156114e4573d6000803e3d6000fd5b505050506040513d601f19601f8201168201806040525081019061150891906127c1565b611547576040517f08c379a000000000000000000000000000000000000000000000000000000000815260040161153e9061283a565b60405180910390fd5b6000600160008673ffffffffffffffffffffffffffffffffffffffff1673ffffffffffffffffffffffffffffffffffffffff16815260200190815260200160002060006101000a81548160ff0219169083151502179055508373ffffffffffffffffffffffffffffffffffffffff167f58ad5e799e2df93ab408be0e5c1870d44c80b5bca99dfaf7ddf0dab5e6b155c9846040516115e5919061211c565b60405180910390a250505050565b600860009054906101000a900460ff16611642576040517f08c379a000000000000000000000000000000000000000000000000000000000815260040161163990612f67565b60405180910390fd5b6000836040516020016116559190612fd3565b604051602081830303815290604052905061166e611d24565b73ffffffffffffffffffffffffffffffffffffffff1663ba73659a848484886040518563ffffffff1660e01b81526004016116ac9493929190612c06565b602060405180830381600087803b1580156116c657600080fd5b505af11580156116da573d6000803e3d6000fd5b505050506040513d601f19601f820116820180604052508101906116fe91906127c1565b61173d576040517f08c379a00000000000000000000000000000000000000000000000000000000081526004016117349061283a565b60405180910390fd5b6000600860006101000a81548160ff0219169083151502179055507f79c02b0e60e0f00fe0370791204f2f175fe3f06f4816f3506ad4fa1b8e8cde0f60405160405180910390a150505050565b600860009054906101000a900460ff1681565b6000600760008373ffffffffffffffffffffffffffffffffffffffff1673ffffffffffffffffffffffffffffffffffffffff168152602001908152602001600020549050919050565b600860009054906101000a900460ff1615611836576040517f08c379a000000000000000000000000000000000000000000000000000000000815260040161182d906128a6565b60405180910390fd5b600960003373ffffffffffffffffffffffffffffffffffffffff1673ffffffffffffffffffffffffffffffffffffffff16815260200190815260200160002060009054906101000a900460ff16611a2457600560008473ffffffffffffffffffffffffffffffffffffffff1673ffffffffffffffffffffffffffffffffffffffff1681526020019081526020016000205482600460003373ffffffffffffffffffffffffffffffffffffffff1673ffffffffffffffffffffffffffffffffffffffff16815260200190815260200160002060008673ffffffffffffffffffffffffffffffffffffffff1673ffffffffffffffffffffffffffffffffffffffff1681526020019081526020016000205461194f91906128f5565b1115611990576040517f08c379a00000000000000000000000000000000000000000000000000000000081526004016119879061304d565b60405180910390fd5b81600460003373ffffffffffffffffffffffffffffffffffffffff1673ffffffffffffffffffffffffffffffffffffffff16815260200190815260200160002060008573ffffffffffffffffffffffffffffffffffffffff1673ffffffffffffffffffffffffffffffffffffffff1681526020019081526020016000206000828254611a1c91906128f5565b925050819055505b600160008473ffffffffffffffffffffffffffffffffffffffff1673ffffffffffffffffffffffffffffffffffffffff16815260200190815260200160002060009054906101000a900460ff16611ab0576040517f08c379a0000000000000000000000000000000000000000000000000000000008152600401611aa790612b15565b60405180910390fd5b611ab983611dca565b611af8576040517f08c379a0000000000000000000000000000000000000000000000000000000008152600401611aef906130b9565b60405180910390fd5b6000808473ffffffffffffffffffffffffffffffffffffffff163360008054906101000a900473ffffffffffffffffffffffffffffffffffffffff1686604051602401611b47939291906130d9565b6040516020818303038152906040527f23b872dd000000000000000000000000000000000000000000000000000000007bffffffffffffffffffffffffffffffffffffffffffffffffffffffff19166020820180517bffffffffffffffffffffffffffffffffffffffffffffffffffffffff8381831617835250505050604051611bd1919061314c565b6000604051808303816000865af19150503d8060008114611c0e576040519150601f19603f3d011682016040523d82523d6000602084013e611c13565b606091505b509150915081611c58576040517f08c379a0000000000000000000000000000000000000000000000000000000008152600401611c4f906131af565b60405180910390fd5b600081511115611cb65780806020019051810190611c7691906127c1565b611cb5576040517f08c379a0000000000000000000000000000000000000000000000000000000008152600401611cac906131af565b60405180910390fd5b5b8473ffffffffffffffffffffffffffffffffffffffff163373ffffffffffffffffffffffffffffffffffffffff167f3724ff5e82ddc640a08d68b0b782a5991aea0de51a8dd10a59cdbe5b3ec4e6bf8686604051611d159291906131cf565b60405180910390a35050505050565b60008060009054906101000a900473ffffffffffffffffffffffffffffffffffffffff1673ffffffffffffffffffffffffffffffffffffffff1663b82d5abd6040518163ffffffff1660e01b815260040160206040518083038186803b158015611d8d57600080fd5b505afa158015611da1573d6000803e3d6000fd5b505050506040513d601f19601f82011682018060405250810190611dc5919061320d565b905090565b600080823b905060008111915050919050565b6000604051905090565b600080fd5b600080fd5b600073ffffffffffffffffffffffffffffffffffffffff82169050919050565b6000611e1c82611df1565b9050919050565b611e2c81611e11565b8114611e3757600080fd5b50565b600081359050611e4981611e23565b92915050565b6000819050919050565b611e6281611e4f565b8114611e6d57600080fd5b50565b600081359050611e7f81611e59565b92915050565b6000819050919050565b611e9881611e85565b8114611ea357600080fd5b50565b600081359050611eb581611e8f565b92915050565b600080fd5b600080fd5b6000601f19601f8301169050919050565b7f4e487b7100000000000000000000000000000000000000000000000000000000600052604160045260246000fd5b611f0e82611ec5565b810181811067ffffffffffffffff82111715611f2d57611f2c611ed6565b5b80604052505050565b6000611f40611ddd565b9050611f4c8282611f05565b919050565b600067ffffffffffffffff821115611f6c57611f6b611ed6565b5b611f7582611ec5565b9050602081019050919050565b82818337600083830152505050565b6000611fa4611f9f84611f51565b611f36565b905082815260208101848484011115611fc057611fbf611ec0565b5b611fcb848285611f82565b509392505050565b600082601f830112611fe857611fe7611ebb565b5b8135611ff8848260208601611f91565b91505092915050565b60008060008060008060c0878903121561201e5761201d611de7565b5b600061202c89828a01611e3a565b965050602061203d89828a01611e70565b955050604061204e89828a01611ea6565b945050606061205f89828a01611ea6565b935050608061207089828a01611ea6565b92505060a087013567ffffffffffffffff81111561209157612090611dec565b5b61209d89828a01611fd3565b9150509295509295509295565b6000602082840312156120c0576120bf611de7565b5b60006120ce84828501611e3a565b91505092915050565b60008115159050919050565b6120ec816120d7565b82525050565b600060208201905061210760008301846120e3565b92915050565b61211681611e85565b82525050565b6000602082019050612131600083018461210d565b92915050565b60008060008060008060c0878903121561215457612153611de7565b5b600061216289828a01611e3a565b965050602061217389828a01611ea6565b955050604061218489828a01611e3a565b945050606061219589828a01611ea6565b93505060806121a689828a01611ea6565b92505060a087013567ffffffffffffffff8111156121c7576121c6611dec565b5b6121d389828a01611fd3565b9150509295509295509295565b600080fd5b600080fd5b60008083601f840112612200576121ff611ebb565b5b8235905067ffffffffffffffff81111561221d5761221c6121e0565b5b602083019150836001820283011115612239576122386121e5565b5b9250929050565b60008060008060008060a0878903121561225d5761225c611de7565b5b600061226b89828a01611e3a565b965050602061227c89828a01611ea6565b955050604061228d89828a01611ea6565b945050606061229e89828a01611ea6565b935050608087013567ffffffffffffffff8111156122bf576122be611dec565b5b6122cb89828a016121ea565b92509250509295509295509295565b600080600080606085870312156122f4576122f3611de7565b5b600061230287828801611ea6565b945050602061231387828801611ea6565b935050604085013567ffffffffffffffff81111561233457612333611dec565b5b612340878288016121ea565b925092505092959194509250565b60006020828403121561236457612363611de7565b5b600061237284828501611e70565b91505092915050565b61238481611e11565b82525050565b600060208201905061239f600083018461237b565b92915050565b60006123b082611df1565b9050919050565b6123c0816123a5565b82525050565b60006020820190506123db60008301846123b7565b92915050565b6000806000604084860312156123fa576123f9611de7565b5b600061240886828701611ea6565b935050602084013567ffffffffffffffff81111561242957612428611dec565b5b612435868287016121ea565b92509250509250925092565b61244a81611e4f565b82525050565b60006020820190506124656000830184612441565b92915050565b60008060006060848603121561248457612483611de7565b5b600061249286828701611e3a565b93505060206124a386828701611ea6565b925050604084013567ffffffffffffffff8111156124c4576124c3611dec565b5b6124d086828701611fd3565b9150509250925092565b6000806000606084860312156124f3576124f2611de7565b5b600061250186828701611e3a565b935050602061251286828701611ea6565b925050604061252386828701611e70565b9150509250925092565b600082825260208201905092915050565b7f696e76616c696420617373657420736f75726365000000000000000000000000600082015250565b600061257460148361252d565b915061257f8261253e565b602082019050919050565b600060208201905081810360008301526125a381612567565b9050919050565b7f617373657420616c7265616479206c6973746564000000000000000000000000600082015250565b60006125e060148361252d565b91506125eb826125aa565b602082019050919050565b6000602082019050818103600083015261260f816125d3565b9050919050565b7f6c6973745f617373657400000000000000000000000000000000000000000000600082015250565b600061264c600a8361252d565b915061265782612616565b602082019050919050565b600060c082019050612677600083018861237b565b6126846020830187612441565b612691604083018661210d565b61269e606083018561210d565b6126ab608083018461210d565b81810360a08301526126bc8161263f565b90509695505050505050565b600081519050919050565b600082825260208201905092915050565b60005b838110156127025780820151818401526020810190506126e7565b83811115612711576000848401525b50505050565b6000612722826126c8565b61272c81856126d3565b935061273c8185602086016126e4565b61274581611ec5565b840191505092915050565b6000606082019050818103600083015261276a8186612717565b9050818103602083015261277e8185612717565b905061278d604083018461210d565b949350505050565b61279e816120d7565b81146127a957600080fd5b50565b6000815190506127bb81612795565b92915050565b6000602082840312156127d7576127d6611de7565b5b60006127e5848285016127ac565b91505092915050565b7f626164207369676e617475726573000000000000000000000000000000000000600082015250565b6000612824600e8361252d565b915061282f826127ee565b602082019050919050565b6000602082019050818103600083015261285381612817565b9050919050565b7f6272696467652073746f70706564000000000000000000000000000000000000600082015250565b6000612890600e8361252d565b915061289b8261285a565b602082019050919050565b600060208201905081810360008301526128bf81612883565b9050919050565b7f4e487b7100000000000000000000000000000000000000000000000000000000600052601160045260246000fd5b600061290082611e85565b915061290b83611e85565b9250827fffffffffffffffffffffffffffffffffffffffffffffffffffffffffffffffff038211156129405761293f6128c6565b5b828201905092915050565b7f6c61726765207769746864726177206973206e6f74206f6c6420656e6f756768600082015250565b600061298160208361252d565b915061298c8261294b565b602082019050919050565b600060208201905081810360008301526129b081612974565b9050919050565b7f77697468647261775f6173736574000000000000000000000000000000000000600082015250565b60006129ed600e8361252d565b91506129f8826129b7565b602082019050919050565b600060c082019050612a18600083018861237b565b612a25602083018761210d565b612a32604083018661237b565b612a3f606083018561210d565b612a4c608083018461210d565b81810360a0830152612a5d816129e0565b90509695505050505050565b6000606082019050612a7e600083018661237b565b612a8b602083018561237b565b612a98604083018461210d565b949350505050565b6000604082019050612ab5600083018561210d565b612ac2602083018461210d565b9392505050565b7f6173736574206e6f74206c697374656400000000000000000000000000000000600082015250565b6000612aff60108361252d565b9150612b0a82612ac9565b602082019050919050565b60006020820190508181036000830152612b2e81612af2565b9050919050565b7f7365745f61737365745f6c696d69747300000000000000000000000000000000600082015250565b6000612b6b60108361252d565b9150612b7682612b35565b602082019050919050565b600060a082019050612b96600083018761237b565b612ba3602083018661210d565b612bb0604083018561210d565b612bbd606083018461210d565b8181036080830152612bce81612b5e565b905095945050505050565b6000612be583856126d3565b9350612bf2838584611f82565b612bfb83611ec5565b840190509392505050565b60006060820190508181036000830152612c21818688612bd9565b90508181036020830152612c358185612717565b9050612c44604083018461210d565b95945050505050565b7f7365745f77697468647261775f64656c61790000000000000000000000000000600082015250565b6000612c8360128361252d565b9150612c8e82612c4d565b602082019050919050565b6000606082019050612cae600083018561210d565b612cbb602083018461210d565b8181036040830152612ccc81612c76565b90509392505050565b7f73656e646572206e6f74206578656d7074000000000000000000000000000000600082015250565b6000612d0b60118361252d565b9150612d1682612cd5565b602082019050919050565b60006020820190508181036000830152612d3a81612cfe565b9050919050565b7f62726964676520616c72656164792073746f7070656400000000000000000000600082015250565b6000612d7760168361252d565b9150612d8282612d41565b602082019050919050565b60006020820190508181036000830152612da681612d6a565b9050919050565b7f676c6f62616c5f73746f70000000000000000000000000000000000000000000600082015250565b6000612de3600b8361252d565b9150612dee82612dad565b602082019050919050565b6000604082019050612e0e600083018461210d565b8181036020830152612e1f81612dd6565b905092915050565b7f73656e64657220616c7265616479206578656d70740000000000000000000000600082015250565b6000612e5d60158361252d565b9150612e6882612e27565b602082019050919050565b60006020820190508181036000830152612e8c81612e50565b9050919050565b7f72656d6f76655f61737365740000000000000000000000000000000000000000600082015250565b6000612ec9600c8361252d565b9150612ed482612e93565b602082019050919050565b6000606082019050612ef4600083018561237b565b612f01602083018461210d565b8181036040830152612f1281612ebc565b90509392505050565b7f627269646765206e6f742073746f707065640000000000000000000000000000600082015250565b6000612f5160128361252d565b9150612f5c82612f1b565b602082019050919050565b60006020820190508181036000830152612f8081612f44565b9050919050565b7f676c6f62616c5f726573756d6500000000000000000000000000000000000000600082015250565b6000612fbd600d8361252d565b9150612fc882612f87565b602082019050919050565b6000604082019050612fe8600083018461210d565b8181036020830152612ff981612fb0565b905092915050565b7f6465706f736974206f766572206c69666574696d65206c696d69740000000000600082015250565b6000613037601b8361252d565b915061304282613001565b602082019050919050565b600060208201905081810360008301526130668161302a565b9050919050565b7f61737365745f736f75726365206d75737420626520636f6e7472616374000000600082015250565b60006130a3601d8361252d565b91506130ae8261306d565b602082019050919050565b600060208201905081810360008301526130d281613096565b9050919050565b60006060820190506130ee600083018661237b565b6130fb60208301856123b7565b613108604083018461210d565b949350505050565b600081905092915050565b6000613126826126c8565b6131308185613110565b93506131408185602086016126e4565b80840191505092915050565b6000613158828461311b565b915081905092915050565b7f746f6b656e207472616e73666572206661696c65640000000000000000000000600082015250565b600061319960158361252d565b91506131a482613163565b602082019050919050565b600060208201905081810360008301526131c88161318c565b9050919050565b60006040820190506131e4600083018561210d565b6131f16020830184612441565b9392505050565b60008151905061320781611e23565b92915050565b60006020828403121561322357613222611de7565b5b6000613231848285016131f8565b9150509291505056fea264697066735822122081e00f3d2d203ad1a9cda9222e42a49e212a16cacd55c7574fddd67ebcaad57764736f6c63430008090033",
  "linkReferences": {},
  "deployedLinkReferences": {}
}