{
  "_format": "hh-sol-artifact-1",
  "contractName": "Base_Faucet_Token",
  "sourceName": "contracts/tests/Base_Faucet_Token.sol",
  "abi": [
    {
      "inputs": [
        {
          "internalType": "string",
          "name": "_name",
          "type": "string"
        },
        {
          "internalType": "string",
          "name": "_symbol",
          "type": "string"
        },
        {
          "internalType": "uint8",
          "name": "_decimals",
          "type": "uint8"
        },
        {
          "internalType": "uint256",
          "name": "total_supply_whole_tokens",
          "type": "uint256"
        },
        {
          "internalType": "uint256",
          "name": "faucet_amount",
          "type": "uint256"
        }
      ],
      "stateMutability": "nonpayable",
      "type": "constructor"
    },
    {
      "anonymous": false,
      "inputs": [
        {
          "indexed": true,
          "internalType": "address",
          "name": "owner",
          "type": "address"
        },
        {
          "indexed": true,
          "internalType": "address",
          "name": "spender",
          "type": "address"
        },
        {
          "indexed": false,
          "internalType": "uint256",
          "name": "value",
          "type": "uint256"
        }
      ],
      "name": "Approval",
      "type": "event"
    },
    {
      "anonymous": false,
      "inputs": [
        {
          "indexed": true,
          "internalType": "address",
          "name": "previousOwner",
          "type": "address"
        },
        {
          "indexed": true,
          "internalType": "address",
          "name": "newOwner",
          "type": "address"
        }
      ],
      "name": "OwnershipTransferred",
      "type": "event"
    },
    {
      "anonymous": false,
      "inputs": [
        {
          "indexed": true,
          "internalType": "address",
          "name": "from",
          "type": "address"
        },
        {
          "indexed": true,
          "internalType": "address",
          "name": "to",
          "type": "address"
        },
        {
          "indexed": false,
          "internalType": "uint256",
          "name": "value",
          "type": "uint256"
        }
      ],
      "name": "Transfer",
      "type": "event"
    },
    {
      "inputs": [
        {
          "internalType": "uint256",
          "name": "amount",
          "type": "uint256"
        },
        {
          "internalType": "address",
          "name": "bridge_address",
          "type": "address"
        },
        {
          "internalType": "bytes32[]",
          "name": "vega_public_keys",
          "type": "bytes32[]"
        }
      ],
      "name": "admin_deposit_bulk",
      "outputs": [],
      "stateMutability": "nonpayable",
      "type": "function"
    },
    {
      "inputs": [
        {
          "internalType": "uint256",
          "name": "amount",
          "type": "uint256"
        },
        {
          "internalType": "address",
          "name": "bridge_address",
          "type": "address"
        },
        {
          "internalType": "bytes32",
          "name": "vega_public_key",
          "type": "bytes32"
        }
      ],
      "name": "admin_deposit_single",
      "outputs": [],
      "stateMutability": "nonpayable",
      "type": "function"
    },
    {
      "inputs": [
        {
          "internalType": "uint256",
          "name": "amount",
          "type": "uint256"
        },
        {
          "internalType": "address",
          "name": "staking_bridge_address",
          "type": "address"
        },
        {
          "internalType": "bytes32[]",
          "name": "vega_public_keys",
          "type": "bytes32[]"
        }
      ],
      "name": "admin_stake_bulk",
      "outputs": [],
      "stateMutability": "nonpayable",
      "type": "function"
    },
    {
      "inputs": [
        {
          "internalType": "address",
          "name": "owner",
          "type": "address"
        },
        {
          "internalType": "address",
          "name": "spender",
          "type": "address"
        }
      ],
      "name": "allowance",
      "outputs": [
        {
          "internalType": "uint256",
          "name": "",
          "type": "uint256"
        }
      ],
      "stateMutability": "view",
      "type": "function"
    },
    {
      "inputs": [
        {
          "internalType": "address",
          "name": "spender",
          "type": "address"
        },
        {
          "internalType": "uint256",
          "name": "value",
          "type": "uint256"
        }
      ],
      "name": "approve",
      "outputs": [
        {
          "internalType": "bool",
          "name": "",
          "type": "bool"
        }
      ],
      "stateMutability": "nonpayable",
      "type": "function"
    },
    {
      "inputs": [
        {
          "internalType": "address",
          "name": "account",
          "type": "address"
        }
      ],
      "name": "balanceOf",
      "outputs": [
        {
          "internalType": "uint256",
          "name": "",
          "type": "uint256"
        }
      ],
      "stateMutability": "view",
      "type": "function"
    },
    {
      "inputs": [],
      "name": "decimals",
      "outputs": [
        {
          "internalType": "uint8",
          "name": "",
          "type": "uint8"
        }
      ],
      "stateMutability": "view",
      "type": "function"
    },
    {
      "inputs": [
        {
          "internalType": "address",
          "name": "spender",
          "type": "address"
        },
        {
          "internalType": "uint256",
          "name": "subtractedValue",
          "type": "uint256"
        }
      ],
      "name": "decreaseAllowance",
      "outputs": [
        {
          "internalType": "bool",
          "name": "",
          "type": "bool"
        }
      ],
      "stateMutability": "nonpayable",
      "type": "function"
    },
    {
      "inputs": [],
      "name": "faucet",
      "outputs": [],
      "stateMutability": "nonpayable",
      "type": "function"
    },
    {
      "inputs": [
        {
          "internalType": "address",
          "name": "spender",
          "type": "address"
        },
        {
          "internalType": "uint256",
          "name": "addedValue",
          "type": "uint256"
        }
      ],
      "name": "increaseAllowance",
      "outputs": [
        {
          "internalType": "bool",
          "name": "",
          "type": "bool"
        }
      ],
      "stateMutability": "nonpayable",
      "type": "function"
    },
    {
      "inputs": [],
      "name": "isOwner",
      "outputs": [
        {
          "internalType": "bool",
          "name": "",
          "type": "bool"
        }
      ],
      "stateMutability": "view",
      "type": "function"
    },
    {
      "inputs": [
        {
          "internalType": "address",
          "name": "account",
          "type": "address"
        },
        {
          "internalType": "uint256",
          "name": "value",
          "type": "uint256"
        }
      ],
      "name": "issue",
      "outputs": [],
      "stateMutability": "nonpayable",
      "type": "function"
    },
    {
      "inputs": [],
      "name": "kill",
      "outputs": [],
      "stateMutability": "nonpayable",
      "type": "function"
    },
    {
      "inputs": [],
      "name": "name",
      "outputs": [
        {
          "internalType": "string",
          "name": "",
          "type": "string"
        }
      ],
      "stateMutability": "view",
      "type": "function"
    },
    {
      "inputs": [],
      "name": "owner",
      "outputs": [
        {
          "internalType": "address",
          "name": "",
          "type": "address"
        }
      ],
      "stateMutability": "view",
      "type": "function"
    },
    {
      "inputs": [],
      "name": "renounceOwnership",
      "outputs": [],
      "stateMutability": "nonpayable",
      "type": "function"
    },
    {
      "inputs": [],
      "name": "symbol",
      "outputs": [
        {
          "internalType": "string",
          "name": "",
          "type": "string"
        }
      ],
      "stateMutability": "view",
      "type": "function"
    },
    {
      "inputs": [],
      "name": "totalSupply",
      "outputs": [
        {
          "internalType": "uint256",
          "name": "",
          "type": "uint256"
        }
      ],
      "stateMutability": "view",
      "type": "function"
    },
    {
      "inputs": [
        {
          "internalType": "address",
          "name": "recipient",
          "type": "address"
        },
        {
          "internalType": "uint256",
          "name": "amount",
          "type": "uint256"
        }
      ],
      "name": "transfer",
      "outputs": [
        {
          "internalType": "bool",
          "name": "",
          "type": "bool"
        }
      ],
      "stateMutability": "nonpayable",
      "type": "function"
    },
    {
      "inputs": [
        {
          "internalType": "address",
          "name": "sender",
          "type": "address"
        },
        {
          "internalType": "address",
          "name": "recipient",
          "type": "address"
        },
        {
          "internalType": "uint256",
          "name": "amount",
          "type": "uint256"
        }
      ],
      "name": "transferFrom",
      "outputs": [
        {
          "internalType": "bool",
          "name": "",
          "type": "bool"
        }
      ],
      "stateMutability": "nonpayable",
      "type": "function"
    },
    {
      "inputs": [
        {
          "internalType": "address",
          "name": "newOwner",
          "type": "address"
        }
      ],
      "name": "transferOwnership",
      "outputs": [],
      "stateMutability": "nonpayable",
      "type": "function"
    }
  ],
  "bytecode": "0x60806040523480156200001157600080fd5b5060405162002d5f38038062002d5f8339818101604052810190620000379190620004f7565b84848482600090805190602001906200005292919062000231565b5081600190805190602001906200006b92919062000231565b5080600260006101000a81548160ff021916908360ff16021790555050505033600260016101000a81548173ffffffffffffffffffffffffffffffffffffffff021916908373ffffffffffffffffffffffffffffffffffffffff160217905550600260019054906101000a900473ffffffffffffffffffffffffffffffffffffffff1673ffffffffffffffffffffffffffffffffffffffff16600073ffffffffffffffffffffffffffffffffffffffff167f8be0079c531659141344cd1fd0a4f28419497f9722a3daafe3b4186f6b6457e060405160405180910390a360008360ff16600a6200015c919062000740565b8362000169919062000791565b9050816006819055508060058190555080600360003073ffffffffffffffffffffffffffffffffffffffff1673ffffffffffffffffffffffffffffffffffffffff168152602001908152602001600020819055503073ffffffffffffffffffffffffffffffffffffffff16600073ffffffffffffffffffffffffffffffffffffffff167fddf252ad1be2c89b69c2b068fc378daa952ba7f163c4a11628f55a4df523b3ef836040516200021d919062000803565b60405180910390a350505050505062000885565b8280546200023f906200084f565b90600052602060002090601f016020900481019282620002635760008555620002af565b82601f106200027e57805160ff1916838001178555620002af565b82800160010185558215620002af579182015b82811115620002ae57825182559160200191906001019062000291565b5b509050620002be9190620002c2565b5090565b5b80821115620002dd576000816000905550600101620002c3565b5090565b6000604051905090565b600080fd5b600080fd5b600080fd5b600080fd5b6000601f19601f8301169050919050565b7f4e487b7100000000000000000000000000000000000000000000000000000000600052604160045260246000fd5b6200034a82620002ff565b810181811067ffffffffffffffff821117156200036c576200036b62000310565b5b80604052505050565b600062000381620002e1565b90506200038f82826200033f565b919050565b600067ffffffffffffffff821115620003b257620003b162000310565b5b620003bd82620002ff565b9050602081019050919050565b60005b83811015620003ea578082015181840152602081019050620003cd565b83811115620003fa576000848401525b50505050565b600062000417620004118462000394565b62000375565b905082815260208101848484011115620004365762000435620002fa565b5b62000443848285620003ca565b509392505050565b600082601f830112620004635762000462620002f5565b5b81516200047584826020860162000400565b91505092915050565b600060ff82169050919050565b62000496816200047e565b8114620004a257600080fd5b50565b600081519050620004b6816200048b565b92915050565b6000819050919050565b620004d181620004bc565b8114620004dd57600080fd5b50565b600081519050620004f181620004c6565b92915050565b600080600080600060a08688031215620005165762000515620002eb565b5b600086015167ffffffffffffffff811115620005375762000536620002f0565b5b62000545888289016200044b565b955050602086015167ffffffffffffffff811115620005695762000568620002f0565b5b62000577888289016200044b565b94505060406200058a88828901620004a5565b93505060606200059d88828901620004e0565b9250506080620005b088828901620004e0565b9150509295509295909350565b7f4e487b7100000000000000000000000000000000000000000000000000000000600052601160045260246000fd5b60008160011c9050919050565b6000808291508390505b60018511156200064b57808604811115620006235762000622620005bd565b5b6001851615620006335780820291505b80810290506200064385620005ec565b945062000603565b94509492505050565b60008262000666576001905062000739565b8162000676576000905062000739565b81600181146200068f57600281146200069a57620006d0565b600191505062000739565b60ff841115620006af57620006ae620005bd565b5b8360020a915084821115620006c957620006c8620005bd565b5b5062000739565b5060208310610133831016604e8410600b84101617156200070a5782820a905083811115620007045762000703620005bd565b5b62000739565b620007198484846001620005f9565b92509050818404811115620007335762000732620005bd565b5b81810290505b9392505050565b60006200074d82620004bc565b91506200075a83620004bc565b9250620007897fffffffffffffffffffffffffffffffffffffffffffffffffffffffffffffffff848462000654565b905092915050565b60006200079e82620004bc565b9150620007ab83620004bc565b9250817fffffffffffffffffffffffffffffffffffffffffffffffffffffffffffffffff0483118215151615620007e757620007e6620005bd565b5b828202905092915050565b620007fd81620004bc565b82525050565b60006020820190506200081a6000830184620007f2565b92915050565b7f4e487b7100000000000000000000000000000000000000000000000000000000600052602260045260246000fd5b600060028204905060018216806200086857607f821691505b602082108114156200087f576200087e62000820565b5b50919050565b6124ca80620008956000396000f3fe608060405234801561001057600080fd5b50600436106101375760003560e01c80638da5cb5b116100b8578063b777374c1161007c578063b777374c14610340578063bc36878e1461035c578063d779cae814610378578063dd62ed3e14610394578063de5f72fd146103c4578063f2fde38b146103ce57610137565b80638da5cb5b146102865780638f32d59b146102a457806395d89b41146102c2578063a457c2d7146102e0578063a9059cbb1461031057610137565b806339509351116100ff57806339509351146101f657806341c0e1b51461022657806370a0823114610230578063715018a614610260578063867904b41461026a57610137565b806306fdde031461013c578063095ea7b31461015a57806318160ddd1461018a57806323b872dd146101a8578063313ce567146101d8575b600080fd5b6101446103ea565b6040516101519190611a18565b60405180910390f35b610174600480360381019061016f9190611ae2565b61047c565b6040516101819190611b3d565b60405180910390f35b610192610493565b60405161019f9190611b67565b60405180910390f35b6101c260048036038101906101bd9190611b82565b61049d565b6040516101cf9190611b3d565b60405180910390f35b6101e061054e565b6040516101ed9190611bf1565b60405180910390f35b610210600480360381019061020b9190611ae2565b610565565b60405161021d9190611b3d565b60405180910390f35b61022e61060a565b005b61024a60048036038101906102459190611c0c565b610676565b6040516102579190611b67565b60405180910390f35b6102686106bf565b005b610284600480360381019061027f9190611ae2565b6107c7565b005b61028e61081d565b60405161029b9190611c48565b60405180910390f35b6102ac610847565b6040516102b99190611b3d565b60405180910390f35b6102ca61089f565b6040516102d79190611a18565b60405180910390f35b6102fa60048036038101906102f59190611ae2565b610931565b6040516103079190611b3d565b60405180910390f35b61032a60048036038101906103259190611ae2565b6109d6565b6040516103379190611b3d565b60405180910390f35b61035a60048036038101906103559190611c99565b6109ed565b005b61037660048036038101906103719190611e34565b610c3f565b005b610392600480360381019061038d9190611e34565b610f03565b005b6103ae60048036038101906103a99190611ea3565b6111c5565b6040516103bb9190611b67565b60405180910390f35b6103cc61124c565b005b6103e860048036038101906103e39190611c0c565b61136a565b005b6060600080546103f990611f12565b80601f016020809104026020016040519081016040528092919081815260200182805461042590611f12565b80156104725780601f1061044757610100808354040283529160200191610472565b820191906000526020600020905b81548152906001019060200180831161045557829003601f168201915b5050505050905090565b60006104893384846113bd565b6001905092915050565b6000600554905090565b60006104aa848484611588565b610543843361053e85600460008a73ffffffffffffffffffffffffffffffffffffffff1673ffffffffffffffffffffffffffffffffffffffff16815260200190815260200160002060003373ffffffffffffffffffffffffffffffffffffffff1673ffffffffffffffffffffffffffffffffffffffff168152602001908152602001600020546117fc90919063ffffffff16565b6113bd565b600190509392505050565b6000600260009054906101000a900460ff16905090565b600061060033846105fb85600460003373ffffffffffffffffffffffffffffffffffffffff1673ffffffffffffffffffffffffffffffffffffffff16815260200190815260200160002060008973ffffffffffffffffffffffffffffffffffffffff1673ffffffffffffffffffffffffffffffffffffffff1681526020019081526020016000205461182390919063ffffffff16565b6113bd565b6001905092915050565b610612610847565b610651576040517f08c379a000000000000000000000000000000000000000000000000000000000815260040161064890611f90565b60405180910390fd5b600061065b61081d565b90508073ffffffffffffffffffffffffffffffffffffffff16ff5b6000600360008373ffffffffffffffffffffffffffffffffffffffff1673ffffffffffffffffffffffffffffffffffffffff168152602001908152602001600020549050919050565b6106c7610847565b610706576040517f08c379a00000000000000000000000000000000000000000000000000000000081526004016106fd90611f90565b60405180910390fd5b600073ffffffffffffffffffffffffffffffffffffffff16600260019054906101000a900473ffffffffffffffffffffffffffffffffffffffff1673ffffffffffffffffffffffffffffffffffffffff167f8be0079c531659141344cd1fd0a4f28419497f9722a3daafe3b4186f6b6457e060405160405180910390a36000600260016101000a81548173ffffffffffffffffffffffffffffffffffffffff021916908373ffffffffffffffffffffffffffffffffffffffff160217905550565b6107cf610847565b61080e576040517f08c379a000000000000000000000000000000000000000000000000000000000815260040161080590611f90565b60405180910390fd5b610819308383611588565b5050565b6000600260019054906101000a900473ffffffffffffffffffffffffffffffffffffffff16905090565b6000600260019054906101000a900473ffffffffffffffffffffffffffffffffffffffff1673ffffffffffffffffffffffffffffffffffffffff163373ffffffffffffffffffffffffffffffffffffffff1614905090565b6060600180546108ae90611f12565b80601f01602080910402602001604051908101604052809291908181526020018280546108da90611f12565b80156109275780601f106108fc57610100808354040283529160200191610927565b820191906000526020600020905b81548152906001019060200180831161090a57829003601f168201915b5050505050905090565b60006109cc33846109c785600460003373ffffffffffffffffffffffffffffffffffffffff1673ffffffffffffffffffffffffffffffffffffffff16815260200190815260200160002060008973ffffffffffffffffffffffffffffffffffffffff1673ffffffffffffffffffffffffffffffffffffffff168152602001908152602001600020546117fc90919063ffffffff16565b6113bd565b6001905092915050565b60006109e3338484611588565b6001905092915050565b6109f5610847565b610a34576040517f08c379a0000000000000000000000000000000000000000000000000000000008152600401610a2b90611f90565b60405180910390fd5b82600460003073ffffffffffffffffffffffffffffffffffffffff1673ffffffffffffffffffffffffffffffffffffffff16815260200190815260200160002060008473ffffffffffffffffffffffffffffffffffffffff1673ffffffffffffffffffffffffffffffffffffffff16815260200190815260200160002081905550610aca8360055461182390919063ffffffff16565b600581905550610b2283600360003073ffffffffffffffffffffffffffffffffffffffff1673ffffffffffffffffffffffffffffffffffffffff1681526020019081526020016000205461182390919063ffffffff16565b600360003073ffffffffffffffffffffffffffffffffffffffff1673ffffffffffffffffffffffffffffffffffffffff168152602001908152602001600020819055503073ffffffffffffffffffffffffffffffffffffffff16600073ffffffffffffffffffffffffffffffffffffffff167fddf252ad1be2c89b69c2b068fc378daa952ba7f163c4a11628f55a4df523b3ef85604051610bc39190611b67565b60405180910390a38173ffffffffffffffffffffffffffffffffffffffff1663f76839323085846040518463ffffffff1660e01b8152600401610c0893929190611fbf565b600060405180830381600087803b158015610c2257600080fd5b505af1158015610c36573d6000803e3d6000fd5b50505050505050565b610c47610847565b610c86576040517f08c379a0000000000000000000000000000000000000000000000000000000008152600401610c7d90611f90565b60405180910390fd5b6000815184610c959190612025565b90507fffffffffffffffffffffffffffffffffffffffffffffffffffffffffffffffff600460003073ffffffffffffffffffffffffffffffffffffffff1673ffffffffffffffffffffffffffffffffffffffff16815260200190815260200160002060008573ffffffffffffffffffffffffffffffffffffffff1673ffffffffffffffffffffffffffffffffffffffff16815260200190815260200160002081905550610d4d8160055461182390919063ffffffff16565b600581905550610da581600360003073ffffffffffffffffffffffffffffffffffffffff1673ffffffffffffffffffffffffffffffffffffffff1681526020019081526020016000205461182390919063ffffffff16565b600360003073ffffffffffffffffffffffffffffffffffffffff1673ffffffffffffffffffffffffffffffffffffffff168152602001908152602001600020819055503073ffffffffffffffffffffffffffffffffffffffff16600073ffffffffffffffffffffffffffffffffffffffff167fddf252ad1be2c89b69c2b068fc378daa952ba7f163c4a11628f55a4df523b3ef83604051610e469190611b67565b60405180910390a360005b82518160ff161015610efc578373ffffffffffffffffffffffffffffffffffffffff1663f76839323087868560ff1681518110610e9157610e9061207f565b5b60200260200101516040518463ffffffff1660e01b8152600401610eb793929190611fbf565b600060405180830381600087803b158015610ed157600080fd5b505af1158015610ee5573d6000803e3d6000fd5b505050508080610ef4906120ae565b915050610e51565b5050505050565b610f0b610847565b610f4a576040517f08c379a0000000000000000000000000000000000000000000000000000000008152600401610f4190611f90565b60405180910390fd5b6000815184610f599190612025565b90507fffffffffffffffffffffffffffffffffffffffffffffffffffffffffffffffff600460003073ffffffffffffffffffffffffffffffffffffffff1673ffffffffffffffffffffffffffffffffffffffff16815260200190815260200160002060008573ffffffffffffffffffffffffffffffffffffffff1673ffffffffffffffffffffffffffffffffffffffff168152602001908152602001600020819055506110118160055461182390919063ffffffff16565b60058190555061106981600360003073ffffffffffffffffffffffffffffffffffffffff1673ffffffffffffffffffffffffffffffffffffffff1681526020019081526020016000205461182390919063ffffffff16565b600360003073ffffffffffffffffffffffffffffffffffffffff1673ffffffffffffffffffffffffffffffffffffffff168152602001908152602001600020819055503073ffffffffffffffffffffffffffffffffffffffff16600073ffffffffffffffffffffffffffffffffffffffff167fddf252ad1be2c89b69c2b068fc378daa952ba7f163c4a11628f55a4df523b3ef8360405161110a9190611b67565b60405180910390a360005b82518160ff1610156111be578373ffffffffffffffffffffffffffffffffffffffff166383c592cf86858460ff16815181106111545761115361207f565b5b60200260200101516040518363ffffffff1660e01b81526004016111799291906120d8565b600060405180830381600087803b15801561119357600080fd5b505af11580156111a7573d6000803e3d6000fd5b5050505080806111b6906120ae565b915050611115565b5050505050565b6000600460008473ffffffffffffffffffffffffffffffffffffffff1673ffffffffffffffffffffffffffffffffffffffff16815260200190815260200160002060008373ffffffffffffffffffffffffffffffffffffffff1673ffffffffffffffffffffffffffffffffffffffff16815260200190815260200160002054905092915050565b61126360065460055461182390919063ffffffff16565b6005819055506112bd600654600360003373ffffffffffffffffffffffffffffffffffffffff1673ffffffffffffffffffffffffffffffffffffffff1681526020019081526020016000205461182390919063ffffffff16565b600360003373ffffffffffffffffffffffffffffffffffffffff1673ffffffffffffffffffffffffffffffffffffffff168152602001908152602001600020819055503373ffffffffffffffffffffffffffffffffffffffff16600073ffffffffffffffffffffffffffffffffffffffff167fddf252ad1be2c89b69c2b068fc378daa952ba7f163c4a11628f55a4df523b3ef6006546040516113609190611b67565b60405180910390a3565b611372610847565b6113b1576040517f08c379a00000000000000000000000000000000000000000000000000000000081526004016113a890611f90565b60405180910390fd5b6113ba8161184f565b50565b600073ffffffffffffffffffffffffffffffffffffffff168373ffffffffffffffffffffffffffffffffffffffff16141561142d576040517f08c379a000000000000000000000000000000000000000000000000000000000815260040161142490612173565b60405180910390fd5b600073ffffffffffffffffffffffffffffffffffffffff168273ffffffffffffffffffffffffffffffffffffffff16141561149d576040517f08c379a000000000000000000000000000000000000000000000000000000000815260040161149490612205565b60405180910390fd5b80600460008573ffffffffffffffffffffffffffffffffffffffff1673ffffffffffffffffffffffffffffffffffffffff16815260200190815260200160002060008473ffffffffffffffffffffffffffffffffffffffff1673ffffffffffffffffffffffffffffffffffffffff168152602001908152602001600020819055508173ffffffffffffffffffffffffffffffffffffffff168373ffffffffffffffffffffffffffffffffffffffff167f8c5be1e5ebec7d5bd14f71427d1e84f3dd0314c0f7b2291e5b200ac8c7c3b9258360405161157b9190611b67565b60405180910390a3505050565b600073ffffffffffffffffffffffffffffffffffffffff168373ffffffffffffffffffffffffffffffffffffffff1614156115f8576040517f08c379a00000000000000000000000000000000000000000000000000000000081526004016115ef90612297565b60405180910390fd5b600073ffffffffffffffffffffffffffffffffffffffff168273ffffffffffffffffffffffffffffffffffffffff161415611668576040517f08c379a000000000000000000000000000000000000000000000000000000000815260040161165f90612329565b60405180910390fd5b6116ba81600360008673ffffffffffffffffffffffffffffffffffffffff1673ffffffffffffffffffffffffffffffffffffffff168152602001908152602001600020546117fc90919063ffffffff16565b600360008573ffffffffffffffffffffffffffffffffffffffff1673ffffffffffffffffffffffffffffffffffffffff1681526020019081526020016000208190555061174f81600360008573ffffffffffffffffffffffffffffffffffffffff1673ffffffffffffffffffffffffffffffffffffffff1681526020019081526020016000205461182390919063ffffffff16565b600360008473ffffffffffffffffffffffffffffffffffffffff1673ffffffffffffffffffffffffffffffffffffffff168152602001908152602001600020819055508173ffffffffffffffffffffffffffffffffffffffff168373ffffffffffffffffffffffffffffffffffffffff167fddf252ad1be2c89b69c2b068fc378daa952ba7f163c4a11628f55a4df523b3ef836040516117ef9190611b67565b60405180910390a3505050565b60008282111561180f5761180e612349565b5b818361181b9190612378565b905092915050565b600080828461183291906123ac565b90508381101561184557611844612349565b5b8091505092915050565b600073ffffffffffffffffffffffffffffffffffffffff168173ffffffffffffffffffffffffffffffffffffffff1614156118bf576040517f08c379a00000000000000000000000000000000000000000000000000000000081526004016118b690612474565b60405180910390fd5b8073ffffffffffffffffffffffffffffffffffffffff16600260019054906101000a900473ffffffffffffffffffffffffffffffffffffffff1673ffffffffffffffffffffffffffffffffffffffff167f8be0079c531659141344cd1fd0a4f28419497f9722a3daafe3b4186f6b6457e060405160405180910390a380600260016101000a81548173ffffffffffffffffffffffffffffffffffffffff021916908373ffffffffffffffffffffffffffffffffffffffff16021790555050565b600081519050919050565b600082825260208201905092915050565b60005b838110156119b957808201518184015260208101905061199e565b838111156119c8576000848401525b50505050565b6000601f19601f8301169050919050565b60006119ea8261197f565b6119f4818561198a565b9350611a0481856020860161199b565b611a0d816119ce565b840191505092915050565b60006020820190508181036000830152611a3281846119df565b905092915050565b6000604051905090565b600080fd5b600080fd5b600073ffffffffffffffffffffffffffffffffffffffff82169050919050565b6000611a7982611a4e565b9050919050565b611a8981611a6e565b8114611a9457600080fd5b50565b600081359050611aa681611a80565b92915050565b6000819050919050565b611abf81611aac565b8114611aca57600080fd5b50565b600081359050611adc81611ab6565b92915050565b60008060408385031215611af957611af8611a44565b5b6000611b0785828601611a97565b9250506020611b1885828601611acd565b9150509250929050565b60008115159050919050565b611b3781611b22565b82525050565b6000602082019050611b526000830184611b2e565b92915050565b611b6181611aac565b82525050565b6000602082019050611b7c6000830184611b58565b92915050565b600080600060608486031215611b9b57611b9a611a44565b5b6000611ba986828701611a97565b9350506020611bba86828701611a97565b9250506040611bcb86828701611acd565b9150509250925092565b600060ff82169050919050565b611beb81611bd5565b82525050565b6000602082019050611c066000830184611be2565b92915050565b600060208284031215611c2257611c21611a44565b5b6000611c3084828501611a97565b91505092915050565b611c4281611a6e565b82525050565b6000602082019050611c5d6000830184611c39565b92915050565b6000819050919050565b611c7681611c63565b8114611c8157600080fd5b50565b600081359050611c9381611c6d565b92915050565b600080600060608486031215611cb257611cb1611a44565b5b6000611cc086828701611acd565b9350506020611cd186828701611a97565b9250506040611ce286828701611c84565b9150509250925092565b600080fd5b7f4e487b7100000000000000000000000000000000000000000000000000000000600052604160045260246000fd5b611d29826119ce565b810181811067ffffffffffffffff82111715611d4857611d47611cf1565b5b80604052505050565b6000611d5b611a3a565b9050611d678282611d20565b919050565b600067ffffffffffffffff821115611d8757611d86611cf1565b5b602082029050602081019050919050565b600080fd5b6000611db0611dab84611d6c565b611d51565b90508083825260208201905060208402830185811115611dd357611dd2611d98565b5b835b81811015611dfc5780611de88882611c84565b845260208401935050602081019050611dd5565b5050509392505050565b600082601f830112611e1b57611e1a611cec565b5b8135611e2b848260208601611d9d565b91505092915050565b600080600060608486031215611e4d57611e4c611a44565b5b6000611e5b86828701611acd565b9350506020611e6c86828701611a97565b925050604084013567ffffffffffffffff811115611e8d57611e8c611a49565b5b611e9986828701611e06565b9150509250925092565b60008060408385031215611eba57611eb9611a44565b5b6000611ec885828601611a97565b9250506020611ed985828601611a97565b9150509250929050565b7f4e487b7100000000000000000000000000000000000000000000000000000000600052602260045260246000fd5b60006002820490506001821680611f2a57607f821691505b60208210811415611f3e57611f3d611ee3565b5b50919050565b7f4f776e61626c653a2063616c6c6572206973206e6f7420746865206f776e6572600082015250565b6000611f7a60208361198a565b9150611f8582611f44565b602082019050919050565b60006020820190508181036000830152611fa981611f6d565b9050919050565b611fb981611c63565b82525050565b6000606082019050611fd46000830186611c39565b611fe16020830185611b58565b611fee6040830184611fb0565b949350505050565b7f4e487b7100000000000000000000000000000000000000000000000000000000600052601160045260246000fd5b600061203082611aac565b915061203b83611aac565b9250817fffffffffffffffffffffffffffffffffffffffffffffffffffffffffffffffff048311821515161561207457612073611ff6565b5b828202905092915050565b7f4e487b7100000000000000000000000000000000000000000000000000000000600052603260045260246000fd5b60006120b982611bd5565b915060ff8214156120cd576120cc611ff6565b5b600182019050919050565b60006040820190506120ed6000830185611b58565b6120fa6020830184611fb0565b9392505050565b7f45524332303a20617070726f76652066726f6d20746865207a65726f2061646460008201527f7265737300000000000000000000000000000000000000000000000000000000602082015250565b600061215d60248361198a565b915061216882612101565b604082019050919050565b6000602082019050818103600083015261218c81612150565b9050919050565b7f45524332303a20617070726f766520746f20746865207a65726f20616464726560008201527f7373000000000000000000000000000000000000000000000000000000000000602082015250565b60006121ef60228361198a565b91506121fa82612193565b604082019050919050565b6000602082019050818103600083015261221e816121e2565b9050919050565b7f45524332303a207472616e736665722066726f6d20746865207a65726f20616460008201527f6472657373000000000000000000000000000000000000000000000000000000602082015250565b600061228160258361198a565b915061228c82612225565b604082019050919050565b600060208201905081810360008301526122b081612274565b9050919050565b7f45524332303a207472616e7366657220746f20746865207a65726f206164647260008201527f6573730000000000000000000000000000000000000000000000000000000000602082015250565b600061231360238361198a565b915061231e826122b7565b604082019050919050565b6000602082019050818103600083015261234281612306565b9050919050565b7f4e487b7100000000000000000000000000000000000000000000000000000000600052600160045260246000fd5b600061238382611aac565b915061238e83611aac565b9250828210156123a1576123a0611ff6565b5b828203905092915050565b60006123b782611aac565b91506123c283611aac565b9250827fffffffffffffffffffffffffffffffffffffffffffffffffffffffffffffffff038211156123f7576123f6611ff6565b5b828201905092915050565b7f4f776e61626c653a206e6577206f776e657220697320746865207a65726f206160008201527f6464726573730000000000000000000000000000000000000000000000000000602082015250565b600061245e60268361198a565b915061246982612402565b604082019050919050565b6000602082019050818103600083015261248d81612451565b905091905056fea264697066735822122013d63fe63ee56b32d0da147c7a37676090c923637d05c2ab1345128e02b707a264736f6c63430008090033",
  "linkReferences": {},
  "deployedLinkReferences": {}
}