{
  "contractName": "Bulk_Deposit",
  "abi": [
    {
      "inputs": [
        {
          "internalType": "address",
          "name": "bridge",
          "type": "address"
        },
        {
          "internalType": "address",
          "name": "token",
          "type": "address"
        },
        {
          "internalType": "bytes32[]",
          "name": "vega_public_keys",
          "type": "bytes32[]"
        },
        {
          "internalType": "uint256[]",
          "name": "values",
          "type": "uint256[]"
        }
      ],
      "name": "bulk_deposit",
      "outputs": [],
      "stateMutability": "nonpayable",
      "type": "function"
    }
  ],
  "bytecode": "0x608060405234801561001057600080fd5b5061085e806100206000396000f3fe608060405234801561001057600080fd5b506004361061002b5760003560e01c806346abf0c014610030575b600080fd5b61004a600480360381019061004591906104bc565b61004c565b005b838390508282905014610094576040517f08c379a000000000000000000000000000000000000000000000000000000000815260040161008b906105c0565b60405180910390fd5b8473ffffffffffffffffffffffffffffffffffffffff166323b872dd33308873ffffffffffffffffffffffffffffffffffffffff166370a08231336040518263ffffffff1660e01b81526004016100eb91906105ef565b60206040518083038186803b15801561010357600080fd5b505afa158015610117573d6000803e3d6000fd5b505050506040513d601f19601f8201168201806040525081019061013b9190610640565b6040518463ffffffff1660e01b81526004016101599392919061067c565b602060405180830381600087803b15801561017357600080fd5b505af1158015610187573d6000803e3d6000fd5b505050506040513d601f19601f820116820180604052508101906101ab91906106eb565b508473ffffffffffffffffffffffffffffffffffffffff1663095ea7b3878773ffffffffffffffffffffffffffffffffffffffff166370a08231306040518263ffffffff1660e01b815260040161020291906105ef565b60206040518083038186803b15801561021a57600080fd5b505afa15801561022e573d6000803e3d6000fd5b505050506040513d601f19601f820116820180604052508101906102529190610640565b6040518363ffffffff1660e01b815260040161026f929190610718565b602060405180830381600087803b15801561028957600080fd5b505af115801561029d573d6000803e3d6000fd5b505050506040513d601f19601f820116820180604052508101906102c191906106eb565b5060005b828290508161ffff161015610390578673ffffffffffffffffffffffffffffffffffffffff1663f76839328785858561ffff1681811061030857610307610741565b5b9050602002013588888661ffff1681811061032657610325610741565b5b905060200201356040518463ffffffff1660e01b815260040161034b93929190610789565b600060405180830381600087803b15801561036557600080fd5b505af1158015610379573d6000803e3d6000fd5b505050508080610388906107fd565b9150506102c5565b50505050505050565b600080fd5b600080fd5b600073ffffffffffffffffffffffffffffffffffffffff82169050919050565b60006103ce826103a3565b9050919050565b6103de816103c3565b81146103e957600080fd5b50565b6000813590506103fb816103d5565b92915050565b600080fd5b600080fd5b600080fd5b60008083601f84011261042657610425610401565b5b8235905067ffffffffffffffff81111561044357610442610406565b5b60208301915083602082028301111561045f5761045e61040b565b5b9250929050565b60008083601f84011261047c5761047b610401565b5b8235905067ffffffffffffffff81111561049957610498610406565b5b6020830191508360208202830111156104b5576104b461040b565b5b9250929050565b600080600080600080608087890312156104d9576104d8610399565b5b60006104e789828a016103ec565b96505060206104f889828a016103ec565b955050604087013567ffffffffffffffff8111156105195761051861039e565b5b61052589828a01610410565b9450945050606087013567ffffffffffffffff8111156105485761054761039e565b5b61055489828a01610466565b92509250509295509295509295565b600082825260208201905092915050565b7f6172726179206c656e677468206d69736d617463680000000000000000000000600082015250565b60006105aa601583610563565b91506105b582610574565b602082019050919050565b600060208201905081810360008301526105d98161059d565b9050919050565b6105e9816103c3565b82525050565b600060208201905061060460008301846105e0565b92915050565b6000819050919050565b61061d8161060a565b811461062857600080fd5b50565b60008151905061063a81610614565b92915050565b60006020828403121561065657610655610399565b5b60006106648482850161062b565b91505092915050565b6106768161060a565b82525050565b600060608201905061069160008301866105e0565b61069e60208301856105e0565b6106ab604083018461066d565b949350505050565b60008115159050919050565b6106c8816106b3565b81146106d357600080fd5b50565b6000815190506106e5816106bf565b92915050565b60006020828403121561070157610700610399565b5b600061070f848285016106d6565b91505092915050565b600060408201905061072d60008301856105e0565b61073a602083018461066d565b9392505050565b7f4e487b7100000000000000000000000000000000000000000000000000000000600052603260045260246000fd5b6000819050919050565b61078381610770565b82525050565b600060608201905061079e60008301866105e0565b6107ab602083018561066d565b6107b8604083018461077a565b949350505050565b7f4e487b7100000000000000000000000000000000000000000000000000000000600052601160045260246000fd5b600061ffff82169050919050565b6000610808826107ef565b915061ffff82141561081d5761081c6107c0565b5b60018201905091905056fea2646970667358221220f29e6b4e001fe77918752cdaa5b5426c2ba4dcc047e51ffd10d026e18b7ad23164736f6c63430008080033",
  "immutableReferences": {},
  "source": "//SPDX-License-Identifier: UNLICENSED\npragma solidity 0.8.8;\n\nimport \"./IERC20.sol\";\nimport \"./IERC20_Bridge_Logic.sol\";\n\ncontract Bulk_Deposit {\n    function bulk_deposit(address bridge, address token, bytes32[] calldata vega_public_keys, uint256[] calldata values) public {\n      require(values.length == vega_public_keys.length, \"array length mismatch\");\n\n      //pull all tokens to this\n      IERC20(token).transferFrom(msg.sender, address(this), IERC20(token).balanceOf(msg.sender));\n\n      //approve\n      IERC20(token).approve(bridge, IERC20(token).balanceOf(address(this)));\n\n      for(uint16 dep_idx = 0; dep_idx < values.length; dep_idx++){\n        IERC20_Bridge_Logic(bridge).deposit_asset(token, values[dep_idx], vega_public_keys[dep_idx]);\n      }\n    }\n}\n",
  "sourcePath": "/Users/nemitariajienka/Desktop/projects/MultisigControl/contracts/tests/Bulk_Deposit.sol",
  "compiler": {
    "name": "solc",
    "version": "0.8.8+commit.dddeac2f.Emscripten.clang"
  },
  "schemaVersion": "3.3.3",
  "updatedAt": "2022-04-28T16:40:52.651Z",
  "devdoc": {
    "kind": "dev",
    "methods": {},
    "version": 1
  },
  "userdoc": {
    "kind": "user",
    "methods": {},
    "version": 1
  }
}