{
  "contractName": "ERC20_Bridge_Logic_Restricted",
  "abi": [
    {
      "inputs": [
        {
          "internalType": "address payable",
          "name": "erc20_asset_pool",
          "type": "address"
        }
      ],
      "stateMutability": "nonpayable",
      "type": "constructor"
    },
    {
      "anonymous": false,
      "inputs": [
        {
          "indexed": true,
          "internalType": "address",
          "name": "asset_source",
          "type": "address"
        },
        {
          "indexed": false,
          "internalType": "uint256",
          "name": "new_maximum",
          "type": "uint256"
        },
        {
          "indexed": false,
          "internalType": "uint256",
          "name": "nonce",
          "type": "uint256"
        }
      ],
      "name": "Asset_Deposit_Maximum_Set",
      "type": "event"
    },
    {
      "anonymous": false,
      "inputs": [
        {
          "indexed": true,
          "internalType": "address",
          "name": "asset_source",
          "type": "address"
        },
        {
          "indexed": false,
          "internalType": "uint256",
          "name": "new_minimum",
          "type": "uint256"
        },
        {
          "indexed": false,
          "internalType": "uint256",
          "name": "nonce",
          "type": "uint256"
        }
      ],
      "name": "Asset_Deposit_Minimum_Set",
      "type": "event"
    },
    {
      "anonymous": false,
      "inputs": [
        {
          "indexed": true,
          "internalType": "address",
          "name": "user_address",
          "type": "address"
        },
        {
          "indexed": true,
          "internalType": "address",
          "name": "asset_source",
          "type": "address"
        },
        {
          "indexed": false,
          "internalType": "uint256",
          "name": "amount",
          "type": "uint256"
        },
        {
          "indexed": false,
          "internalType": "bytes32",
          "name": "vega_public_key",
          "type": "bytes32"
        }
      ],
      "name": "Asset_Deposited",
      "type": "event"
    },
    {
      "anonymous": false,
      "inputs": [
        {
          "indexed": true,
          "internalType": "address",
          "name": "asset_source",
          "type": "address"
        },
        {
          "indexed": true,
          "internalType": "bytes32",
          "name": "vega_asset_id",
          "type": "bytes32"
        },
        {
          "indexed": false,
          "internalType": "uint256",
          "name": "nonce",
          "type": "uint256"
        }
      ],
      "name": "Asset_Listed",
      "type": "event"
    },
    {
      "anonymous": false,
      "inputs": [
        {
          "indexed": true,
          "internalType": "address",
          "name": "asset_source",
          "type": "address"
        },
        {
          "indexed": false,
          "internalType": "uint256",
          "name": "nonce",
          "type": "uint256"
        }
      ],
      "name": "Asset_Removed",
      "type": "event"
    },
    {
      "anonymous": false,
      "inputs": [
        {
          "indexed": true,
          "internalType": "address",
          "name": "user_address",
          "type": "address"
        },
        {
          "indexed": true,
          "internalType": "address",
          "name": "asset_source",
          "type": "address"
        },
        {
          "indexed": false,
          "internalType": "uint256",
          "name": "amount",
          "type": "uint256"
        },
        {
          "indexed": false,
          "internalType": "uint256",
          "name": "nonce",
          "type": "uint256"
        }
      ],
      "name": "Asset_Withdrawn",
      "type": "event"
    },
    {
      "anonymous": false,
      "inputs": [],
      "name": "Bridge_Resumed",
      "type": "event"
    },
    {
      "anonymous": false,
      "inputs": [],
      "name": "Bridge_Stopped",
      "type": "event"
    },
    {
      "anonymous": false,
      "inputs": [
        {
          "indexed": true,
          "internalType": "address",
          "name": "depositor",
          "type": "address"
        }
      ],
      "name": "Depositor_Exempted",
      "type": "event"
    },
    {
      "anonymous": false,
      "inputs": [
        {
          "indexed": true,
          "internalType": "address",
          "name": "depositor",
          "type": "address"
        }
      ],
      "name": "Depositor_Exemption_Revoked",
      "type": "event"
    },
    {
      "anonymous": false,
      "inputs": [
        {
          "indexed": true,
          "internalType": "address",
          "name": "lister",
          "type": "address"
        }
      ],
      "name": "Exemption_Lister_Set",
      "type": "event"
    },
    {
      "inputs": [],
      "name": "default_withdraw_delay",
      "outputs": [
        {
          "internalType": "uint256",
          "name": "",
          "type": "uint256"
        }
      ],
      "stateMutability": "view",
      "type": "function"
    },
    {
      "inputs": [],
      "name": "is_stopped",
      "outputs": [
        {
          "internalType": "bool",
          "name": "",
          "type": "bool"
        }
      ],
      "stateMutability": "view",
      "type": "function"
    },
    {
      "inputs": [
        {
          "internalType": "address",
          "name": "asset_source",
          "type": "address"
        },
        {
          "internalType": "bytes32",
          "name": "vega_asset_id",
          "type": "bytes32"
        },
        {
          "internalType": "uint256",
          "name": "lifetime_limit",
          "type": "uint256"
        },
        {
          "internalType": "uint256",
          "name": "withdraw_threshold",
          "type": "uint256"
        },
        {
          "internalType": "uint256",
          "name": "nonce",
          "type": "uint256"
        },
        {
          "internalType": "bytes",
          "name": "signatures",
          "type": "bytes"
        }
      ],
      "name": "list_asset",
      "outputs": [],
      "stateMutability": "nonpayable",
      "type": "function"
    },
    {
      "inputs": [
        {
          "internalType": "address",
          "name": "asset_source",
          "type": "address"
        },
        {
          "internalType": "uint256",
          "name": "nonce",
          "type": "uint256"
        },
        {
          "internalType": "bytes",
          "name": "signatures",
          "type": "bytes"
        }
      ],
      "name": "remove_asset",
      "outputs": [],
      "stateMutability": "nonpayable",
      "type": "function"
    },
    {
      "inputs": [
        {
          "internalType": "address",
          "name": "asset_source",
          "type": "address"
        },
        {
          "internalType": "uint256",
          "name": "minimum_amount",
          "type": "uint256"
        },
        {
          "internalType": "uint256",
          "name": "nonce",
          "type": "uint256"
        },
        {
          "internalType": "bytes",
          "name": "signatures",
          "type": "bytes"
        }
      ],
      "name": "set_deposit_minimum",
      "outputs": [],
      "stateMutability": "nonpayable",
      "type": "function"
    },
    {
      "inputs": [
        {
          "internalType": "address",
          "name": "asset_source",
          "type": "address"
        },
        {
          "internalType": "uint256",
          "name": "maximum_amount",
          "type": "uint256"
        },
        {
          "internalType": "uint256",
          "name": "nonce",
          "type": "uint256"
        },
        {
          "internalType": "bytes",
          "name": "signatures",
          "type": "bytes"
        }
      ],
      "name": "set_deposit_maximum",
      "outputs": [],
      "stateMutability": "nonpayable",
      "type": "function"
    },
    {
      "inputs": [
        {
          "internalType": "address",
          "name": "asset_source",
          "type": "address"
        },
        {
          "internalType": "uint256",
          "name": "lifetime_limit",
          "type": "uint256"
        },
        {
          "internalType": "uint256",
          "name": "nonce",
          "type": "uint256"
        },
        {
          "internalType": "bytes",
          "name": "signatures",
          "type": "bytes"
        }
      ],
      "name": "set_lifetime_deposit_max",
      "outputs": [],
      "stateMutability": "nonpayable",
      "type": "function"
    },
    {
      "inputs": [
        {
          "internalType": "address",
          "name": "asset_source",
          "type": "address"
        }
      ],
      "name": "get_asset_deposit_limit",
      "outputs": [
        {
          "internalType": "uint256",
          "name": "",
          "type": "uint256"
        }
      ],
      "stateMutability": "view",
      "type": "function"
    },
    {
      "inputs": [
        {
          "internalType": "uint256",
          "name": "delay",
          "type": "uint256"
        },
        {
          "internalType": "uint256",
          "name": "nonce",
          "type": "uint256"
        },
        {
          "internalType": "bytes",
          "name": "signatures",
          "type": "bytes"
        }
      ],
      "name": "set_withdraw_delay",
      "outputs": [],
      "stateMutability": "nonpayable",
      "type": "function"
    },
    {
      "inputs": [
        {
          "internalType": "address",
          "name": "asset_source",
          "type": "address"
        },
        {
          "internalType": "uint256",
          "name": "threshold",
          "type": "uint256"
        },
        {
          "internalType": "uint256",
          "name": "nonce",
          "type": "uint256"
        },
        {
          "internalType": "bytes",
          "name": "signatures",
          "type": "bytes"
        }
      ],
      "name": "set_withdraw_threshold",
      "outputs": [],
      "stateMutability": "nonpayable",
      "type": "function"
    },
    {
      "inputs": [
        {
          "internalType": "address",
          "name": "asset_source",
          "type": "address"
        }
      ],
      "name": "get_withdraw_threshold",
      "outputs": [
        {
          "internalType": "uint256",
          "name": "",
          "type": "uint256"
        }
      ],
      "stateMutability": "view",
      "type": "function"
    },
    {
      "inputs": [
        {
          "internalType": "uint256",
          "name": "nonce",
          "type": "uint256"
        },
        {
          "internalType": "bytes",
          "name": "signatures",
          "type": "bytes"
        }
      ],
      "name": "global_stop",
      "outputs": [],
      "stateMutability": "nonpayable",
      "type": "function"
    },
    {
      "inputs": [
        {
          "internalType": "uint256",
          "name": "nonce",
          "type": "uint256"
        },
        {
          "internalType": "bytes",
          "name": "signatures",
          "type": "bytes"
        }
      ],
      "name": "global_resume",
      "outputs": [],
      "stateMutability": "nonpayable",
      "type": "function"
    },
    {
      "inputs": [
        {
          "internalType": "address",
          "name": "lister",
          "type": "address"
        },
        {
          "internalType": "uint256",
          "name": "nonce",
          "type": "uint256"
        },
        {
          "internalType": "bytes",
          "name": "signatures",
          "type": "bytes"
        }
      ],
      "name": "set_exemption_lister",
      "outputs": [],
      "stateMutability": "nonpayable",
      "type": "function"
    },
    {
      "inputs": [
        {
          "internalType": "address",
          "name": "depositor",
          "type": "address"
        }
      ],
      "name": "exempt_depositor",
      "outputs": [],
      "stateMutability": "nonpayable",
      "type": "function"
    },
    {
      "inputs": [
        {
          "internalType": "address",
          "name": "depositor",
          "type": "address"
        }
      ],
      "name": "revoke_exempt_depositor",
      "outputs": [],
      "stateMutability": "nonpayable",
      "type": "function"
    },
    {
      "inputs": [],
      "name": "get_exemption_lister",
      "outputs": [
        {
          "internalType": "address",
          "name": "",
          "type": "address"
        }
      ],
      "stateMutability": "view",
      "type": "function"
    },
    {
      "inputs": [
        {
          "internalType": "address",
          "name": "depositor",
          "type": "address"
        }
      ],
      "name": "is_exempt_depositor",
      "outputs": [
        {
          "internalType": "bool",
          "name": "",
          "type": "bool"
        }
      ],
      "stateMutability": "view",
      "type": "function"
    },
    {
      "inputs": [
        {
          "internalType": "address",
          "name": "asset_source",
          "type": "address"
        },
        {
          "internalType": "uint256",
          "name": "amount",
          "type": "uint256"
        },
        {
          "internalType": "address",
          "name": "target",
          "type": "address"
        },
        {
          "internalType": "uint256",
          "name": "creation",
          "type": "uint256"
        },
        {
          "internalType": "uint256",
          "name": "nonce",
          "type": "uint256"
        },
        {
          "internalType": "bytes",
          "name": "signatures",
          "type": "bytes"
        }
      ],
      "name": "withdraw_asset",
      "outputs": [],
      "stateMutability": "nonpayable",
      "type": "function"
    },
    {
      "inputs": [
        {
          "internalType": "address",
          "name": "asset_source",
          "type": "address"
        },
        {
          "internalType": "uint256",
          "name": "amount",
          "type": "uint256"
        },
        {
          "internalType": "bytes32",
          "name": "vega_public_key",
          "type": "bytes32"
        }
      ],
      "name": "deposit_asset",
      "outputs": [],
      "stateMutability": "nonpayable",
      "type": "function"
    },
    {
      "inputs": [
        {
          "internalType": "address",
          "name": "asset_source",
          "type": "address"
        }
      ],
      "name": "is_asset_listed",
      "outputs": [
        {
          "internalType": "bool",
          "name": "",
          "type": "bool"
        }
      ],
      "stateMutability": "view",
      "type": "function"
    },
    {
      "inputs": [
        {
          "internalType": "address",
          "name": "asset_source",
          "type": "address"
        }
      ],
      "name": "get_deposit_minimum",
      "outputs": [
        {
          "internalType": "uint256",
          "name": "",
          "type": "uint256"
        }
      ],
      "stateMutability": "view",
      "type": "function"
    },
    {
      "inputs": [
        {
          "internalType": "address",
          "name": "asset_source",
          "type": "address"
        }
      ],
      "name": "get_deposit_maximum",
      "outputs": [
        {
          "internalType": "uint256",
          "name": "",
          "type": "uint256"
        }
      ],
      "stateMutability": "view",
      "type": "function"
    },
    {
      "inputs": [],
      "name": "get_multisig_control_address",
      "outputs": [
        {
          "internalType": "address",
          "name": "",
          "type": "address"
        }
      ],
      "stateMutability": "view",
      "type": "function"
    },
    {
      "inputs": [
        {
          "internalType": "address",
          "name": "asset_source",
          "type": "address"
        }
      ],
      "name": "get_vega_asset_id",
      "outputs": [
        {
          "internalType": "bytes32",
          "name": "",
          "type": "bytes32"
        }
      ],
      "stateMutability": "view",
      "type": "function"
    },
    {
      "inputs": [
        {
          "internalType": "bytes32",
          "name": "vega_asset_id",
          "type": "bytes32"
        }
      ],
      "name": "get_asset_source",
      "outputs": [
        {
          "internalType": "address",
          "name": "",
          "type": "address"
        }
      ],
      "stateMutability": "view",
      "type": "function"
    }
  ],
  "bytecode": "0x6080604052620697806008553480156200001857600080fd5b50604051620041763803806200417683398181016040528101906200003e9190620000ef565b806000806101000a81548173ffffffffffffffffffffffffffffffffffffffff021916908373ffffffffffffffffffffffffffffffffffffffff1602179055505062000121565b600080fd5b600073ffffffffffffffffffffffffffffffffffffffff82169050919050565b6000620000b7826200008a565b9050919050565b620000c981620000aa565b8114620000d557600080fd5b50565b600081519050620000e981620000be565b92915050565b60006020828403121562000108576200010762000085565b5b60006200011884828501620000d8565b91505092915050565b61404580620001316000396000f3fe608060405234801561001057600080fd5b506004361061018e5760003560e01c8063786b0bc0116100de578063a06b5d3911610097578063d72ed52911610071578063d72ed5291461048d578063e272e9d0146104a9578063e8a7bce0146104c7578063f7683932146104f75761018e565b8063a06b5d3914610423578063c58dc3b914610453578063c76de358146104715761018e565b8063786b0bc0146103535780637aba7ee8146103835780637fd27b7f1461039f57806383d81590146103cf57806386175569146103eb5780639dfd3c88146104075761018e565b80633ad906351161014b57806341fcef9f1161012557806341fcef9f146102bb5780634322b1f2146102eb578063459320261461031b5780635a246728146103375761018e565b80633ad90635146102635780633d5bcf681461027f5780633f4f199d1461029d5761018e565b8063049315e2146101935780630ff3562c146101af57806315c0df9d146101cb5780631d501b5d146101fb578063292463b11461022b5780633882b3da14610247575b600080fd5b6101ad60048036038101906101a891906128f6565b610513565b005b6101c960048036038101906101c49190612ae1565b61069b565b005b6101e560048036038101906101e09190612b8a565b6109f6565b6040516101f29190612bd2565b60405180910390f35b61021560048036038101906102109190612b8a565b610a4c565b6040516102229190612bfc565b60405180910390f35b61024560048036038101906102409190612c17565b610a95565b005b610261600480360381019061025c9190612c17565b610cb9565b005b61027d60048036038101906102789190612c9a565b610edd565b005b6102876111c6565b6040516102949190612d52565b60405180910390f35b6102a56111f0565b6040516102b29190612bfc565b60405180910390f35b6102d560048036038101906102d09190612b8a565b6111f6565b6040516102e29190612bfc565b60405180910390f35b61030560048036038101906103009190612b8a565b61123f565b6040516103129190612bfc565b60405180910390f35b61033560048036038101906103309190612b8a565b611288565b005b610351600480360381019061034c9190612d6d565b611442565b005b61036d60048036038101906103689190612de1565b61154d565b60405161037a9190612d52565b60405180910390f35b61039d60048036038101906103989190612e0e565b61158a565b005b6103b960048036038101906103b49190612b8a565b611761565b6040516103c69190612bd2565b60405180910390f35b6103e960048036038101906103e49190612b8a565b6117b7565b005b61040560048036038101906104009190612e0e565b6119e2565b005b610421600480360381019061041c9190612e96565b611bb9565b005b61043d60048036038101906104389190612b8a565b611d51565b60405161044a9190612f05565b60405180910390f35b61045b611d9a565b6040516104689190612d52565b60405180910390f35b61048b60048036038101906104869190612f20565b611da9565b005b6104a760048036038101906104a29190612e96565b611fdc565b005b6104b1612173565b6040516104be9190612bd2565b60405180910390f35b6104e160048036038101906104dc9190612b8a565b612186565b6040516104ee9190612bfc565b60405180910390f35b610511600480360381019061050c9190612f8f565b6121cf565b005b6000848460405160200161052892919061303f565b6040516020818303038152906040529050610541612743565b73ffffffffffffffffffffffffffffffffffffffff1663ba73659a848484886040518563ffffffff1660e01b815260040161057f9493929190613130565b602060405180830381600087803b15801561059957600080fd5b505af11580156105ad573d6000803e3d6000fd5b505050506040513d601f19601f820116820180604052508101906105d191906131a3565b610610576040517f08c379a00000000000000000000000000000000000000000000000000000000081526004016106079061321c565b60405180910390fd5b84600c60006101000a81548173ffffffffffffffffffffffffffffffffffffffff021916908373ffffffffffffffffffffffffffffffffffffffff1602179055508473ffffffffffffffffffffffffffffffffffffffff167f91722710e0f6ac79b9106bc5993c461775b648571b12f0a5bf17740d43d1dbaf60405160405180910390a25050505050565b600160008773ffffffffffffffffffffffffffffffffffffffff1673ffffffffffffffffffffffffffffffffffffffff16815260200190815260200160002060009054906101000a900460ff1615610728576040517f08c379a000000000000000000000000000000000000000000000000000000000815260040161071f90613288565b60405180910390fd5b600086868686866040516020016107439594939291906132f4565b604051602081830303815290604052905061075c612743565b73ffffffffffffffffffffffffffffffffffffffff1663ba73659a8383866040518463ffffffff1660e01b81526004016107989392919061335a565b602060405180830381600087803b1580156107b257600080fd5b505af11580156107c6573d6000803e3d6000fd5b505050506040513d601f19601f820116820180604052508101906107ea91906131a3565b610829576040517f08c379a00000000000000000000000000000000000000000000000000000000081526004016108209061321c565b60405180910390fd5b60018060008973ffffffffffffffffffffffffffffffffffffffff1673ffffffffffffffffffffffffffffffffffffffff16815260200190815260200160002060006101000a81548160ff021916908315150217905550866004600088815260200190815260200160002060006101000a81548173ffffffffffffffffffffffffffffffffffffffff021916908373ffffffffffffffffffffffffffffffffffffffff16021790555085600560008973ffffffffffffffffffffffffffffffffffffffff1673ffffffffffffffffffffffffffffffffffffffff1681526020019081526020016000208190555084600760008973ffffffffffffffffffffffffffffffffffffffff1673ffffffffffffffffffffffffffffffffffffffff1681526020019081526020016000208190555083600960008973ffffffffffffffffffffffffffffffffffffffff1673ffffffffffffffffffffffffffffffffffffffff16815260200190815260200160002081905550858773ffffffffffffffffffffffffffffffffffffffff167f4180d77d05ff0d31650c548c23f2de07a3da3ad42e3dd6edd817b438a150452e856040516109e59190612bfc565b60405180910390a350505050505050565b6000600b60008373ffffffffffffffffffffffffffffffffffffffff1673ffffffffffffffffffffffffffffffffffffffff16815260200190815260200160002060009054906101000a900460ff169050919050565b6000600360008373ffffffffffffffffffffffffffffffffffffffff1673ffffffffffffffffffffffffffffffffffffffff168152602001908152602001600020549050919050565b600160008573ffffffffffffffffffffffffffffffffffffffff1673ffffffffffffffffffffffffffffffffffffffff16815260200190815260200160002060009054906101000a900460ff16610b21576040517f08c379a0000000000000000000000000000000000000000000000000000000008152600401610b18906133eb565b60405180910390fd5b6000848484604051602001610b3893929190613457565b6040516020818303038152906040529050610b51612743565b73ffffffffffffffffffffffffffffffffffffffff1663ba73659a8383866040518463ffffffff1660e01b8152600401610b8d9392919061335a565b602060405180830381600087803b158015610ba757600080fd5b505af1158015610bbb573d6000803e3d6000fd5b505050506040513d601f19601f82011682018060405250810190610bdf91906131a3565b610c1e576040517f08c379a0000000000000000000000000000000000000000000000000000000008152600401610c159061321c565b60405180910390fd5b83600360008773ffffffffffffffffffffffffffffffffffffffff1673ffffffffffffffffffffffffffffffffffffffff168152602001908152602001600020819055508473ffffffffffffffffffffffffffffffffffffffff167f8861dbda4052c4bf7ba24aad82097ef1e6ade8e6f1b42341640db8a12abfa9938585604051610caa9291906134a1565b60405180910390a25050505050565b600160008573ffffffffffffffffffffffffffffffffffffffff1673ffffffffffffffffffffffffffffffffffffffff16815260200190815260200160002060009054906101000a900460ff16610d45576040517f08c379a0000000000000000000000000000000000000000000000000000000008152600401610d3c906133eb565b60405180910390fd5b6000848484604051602001610d5c93929190613516565b6040516020818303038152906040529050610d75612743565b73ffffffffffffffffffffffffffffffffffffffff1663ba73659a8383866040518463ffffffff1660e01b8152600401610db19392919061335a565b602060405180830381600087803b158015610dcb57600080fd5b505af1158015610ddf573d6000803e3d6000fd5b505050506040513d601f19601f82011682018060405250810190610e0391906131a3565b610e42576040517f08c379a0000000000000000000000000000000000000000000000000000000008152600401610e399061321c565b60405180910390fd5b83600260008773ffffffffffffffffffffffffffffffffffffffff1673ffffffffffffffffffffffffffffffffffffffff168152602001908152602001600020819055508473ffffffffffffffffffffffffffffffffffffffff167f4ed0df0b169b573722ecdcc12333646a6efd0445c28fe277470bbfca620e8ad58585604051610ece9291906134a1565b60405180910390a25050505050565b600a60009054906101000a900460ff1615610f2d576040517f08c379a0000000000000000000000000000000000000000000000000000000008152600401610f24906135ac565b60405180910390fd5b84600960008873ffffffffffffffffffffffffffffffffffffffff1673ffffffffffffffffffffffffffffffffffffffff168152602001908152602001600020541180610f8757504260085484610f8491906135fb565b11155b610fc6576040517f08c379a0000000000000000000000000000000000000000000000000000000008152600401610fbd9061369d565b60405180910390fd5b60008686868686604051602001610fe1959493929190613709565b6040516020818303038152906040529050610ffa612743565b73ffffffffffffffffffffffffffffffffffffffff1663ba73659a8383866040518463ffffffff1660e01b81526004016110369392919061335a565b602060405180830381600087803b15801561105057600080fd5b505af1158015611064573d6000803e3d6000fd5b505050506040513d601f19601f8201168201806040525081019061108891906131a3565b6110c7576040517f08c379a00000000000000000000000000000000000000000000000000000000081526004016110be9061321c565b60405180910390fd5b60008054906101000a900473ffffffffffffffffffffffffffffffffffffffff1673ffffffffffffffffffffffffffffffffffffffff1663d9caed128887896040518463ffffffff1660e01b81526004016111249392919061376f565b600060405180830381600087803b15801561113e57600080fd5b505af1158015611152573d6000803e3d6000fd5b505050508673ffffffffffffffffffffffffffffffffffffffff168573ffffffffffffffffffffffffffffffffffffffff167fa79be4f3361e32d396d64c478ecef73732cb40b2a75702c3b3b3226a2c83b5df88866040516111b59291906134a1565b60405180910390a350505050505050565b6000600c60009054906101000a900473ffffffffffffffffffffffffffffffffffffffff16905090565b60085481565b6000600760008373ffffffffffffffffffffffffffffffffffffffff1673ffffffffffffffffffffffffffffffffffffffff168152602001908152602001600020549050919050565b6000600260008373ffffffffffffffffffffffffffffffffffffffff1673ffffffffffffffffffffffffffffffffffffffff168152602001908152602001600020549050919050565b600c60009054906101000a900473ffffffffffffffffffffffffffffffffffffffff1673ffffffffffffffffffffffffffffffffffffffff163373ffffffffffffffffffffffffffffffffffffffff1614611318576040517f08c379a000000000000000000000000000000000000000000000000000000000815260040161130f906137f2565b60405180910390fd5b600b60008273ffffffffffffffffffffffffffffffffffffffff1673ffffffffffffffffffffffffffffffffffffffff16815260200190815260200160002060009054906101000a900460ff166113a4576040517f08c379a000000000000000000000000000000000000000000000000000000000815260040161139b9061385e565b60405180910390fd5b6000600b60008373ffffffffffffffffffffffffffffffffffffffff1673ffffffffffffffffffffffffffffffffffffffff16815260200190815260200160002060006101000a81548160ff0219169083151502179055508073ffffffffffffffffffffffffffffffffffffffff167fe74b113dca87276d976f476a9b4b9da3c780a3262eaabad051ee4e98912936a460405160405180910390a250565b600084846040516020016114579291906138ca565b6040516020818303038152906040529050611470612743565b73ffffffffffffffffffffffffffffffffffffffff1663ba73659a848484886040518563ffffffff1660e01b81526004016114ae9493929190613130565b602060405180830381600087803b1580156114c857600080fd5b505af11580156114dc573d6000803e3d6000fd5b505050506040513d601f19601f8201168201806040525081019061150091906131a3565b61153f576040517f08c379a00000000000000000000000000000000000000000000000000000000081526004016115369061321c565b60405180910390fd5b846008819055505050505050565b60006004600083815260200190815260200160002060009054906101000a900473ffffffffffffffffffffffffffffffffffffffff169050919050565b600160008673ffffffffffffffffffffffffffffffffffffffff1673ffffffffffffffffffffffffffffffffffffffff16815260200190815260200160002060009054906101000a900460ff16611616576040517f08c379a000000000000000000000000000000000000000000000000000000000815260040161160d906133eb565b60405180910390fd5b600085858560405160200161162d93929190613952565b6040516020818303038152906040529050611646612743565b73ffffffffffffffffffffffffffffffffffffffff1663ba73659a848484886040518563ffffffff1660e01b81526004016116849493929190613130565b602060405180830381600087803b15801561169e57600080fd5b505af11580156116b2573d6000803e3d6000fd5b505050506040513d601f19601f820116820180604052508101906116d691906131a3565b611715576040517f08c379a000000000000000000000000000000000000000000000000000000000815260040161170c9061321c565b60405180910390fd5b84600760008873ffffffffffffffffffffffffffffffffffffffff1673ffffffffffffffffffffffffffffffffffffffff16815260200190815260200160002081905550505050505050565b6000600160008373ffffffffffffffffffffffffffffffffffffffff1673ffffffffffffffffffffffffffffffffffffffff16815260200190815260200160002060009054906101000a900460ff169050919050565b600073ffffffffffffffffffffffffffffffffffffffff168173ffffffffffffffffffffffffffffffffffffffff161415611827576040517f08c379a000000000000000000000000000000000000000000000000000000000815260040161181e906139e8565b60405180910390fd5b600b60008273ffffffffffffffffffffffffffffffffffffffff1673ffffffffffffffffffffffffffffffffffffffff16815260200190815260200160002060009054906101000a900460ff16156118b4576040517f08c379a00000000000000000000000000000000000000000000000000000000081526004016118ab90613a54565b60405180910390fd5b600c60009054906101000a900473ffffffffffffffffffffffffffffffffffffffff1673ffffffffffffffffffffffffffffffffffffffff163373ffffffffffffffffffffffffffffffffffffffff1614611944576040517f08c379a000000000000000000000000000000000000000000000000000000000815260040161193b906137f2565b60405180910390fd5b6001600b60008373ffffffffffffffffffffffffffffffffffffffff1673ffffffffffffffffffffffffffffffffffffffff16815260200190815260200160002060006101000a81548160ff0219169083151502179055508073ffffffffffffffffffffffffffffffffffffffff167ff56e0868b913034a60dbca9c89ee79f8b0fa18dadbc5f6665f2f9a2cf3f51cdb60405160405180910390a250565b600160008673ffffffffffffffffffffffffffffffffffffffff1673ffffffffffffffffffffffffffffffffffffffff16815260200190815260200160002060009054906101000a900460ff16611a6e576040517f08c379a0000000000000000000000000000000000000000000000000000000008152600401611a65906133eb565b60405180910390fd5b6000858585604051602001611a8593929190613ac0565b6040516020818303038152906040529050611a9e612743565b73ffffffffffffffffffffffffffffffffffffffff1663ba73659a848484886040518563ffffffff1660e01b8152600401611adc9493929190613130565b602060405180830381600087803b158015611af657600080fd5b505af1158015611b0a573d6000803e3d6000fd5b505050506040513d601f19601f82011682018060405250810190611b2e91906131a3565b611b6d576040517f08c379a0000000000000000000000000000000000000000000000000000000008152600401611b649061321c565b60405180910390fd5b84600960008873ffffffffffffffffffffffffffffffffffffffff1673ffffffffffffffffffffffffffffffffffffffff16815260200190815260200160002081905550505050505050565b600a60009054906101000a900460ff1615611c09576040517f08c379a0000000000000000000000000000000000000000000000000000000008152600401611c0090613b56565b60405180910390fd5b600083604051602001611c1c9190613bc2565b6040516020818303038152906040529050611c35612743565b73ffffffffffffffffffffffffffffffffffffffff1663ba73659a848484886040518563ffffffff1660e01b8152600401611c739493929190613130565b602060405180830381600087803b158015611c8d57600080fd5b505af1158015611ca1573d6000803e3d6000fd5b505050506040513d601f19601f82011682018060405250810190611cc591906131a3565b611d04576040517f08c379a0000000000000000000000000000000000000000000000000000000008152600401611cfb9061321c565b60405180910390fd5b6001600a60006101000a81548160ff0219169083151502179055507f129d99581c8e70519df1f0733d3212f33d0ed3ea6144adacc336c647f1d3638260405160405180910390a150505050565b6000600560008373ffffffffffffffffffffffffffffffffffffffff1673ffffffffffffffffffffffffffffffffffffffff168152602001908152602001600020549050919050565b6000611da4612743565b905090565b600160008473ffffffffffffffffffffffffffffffffffffffff1673ffffffffffffffffffffffffffffffffffffffff16815260200190815260200160002060009054906101000a900460ff16611e35576040517f08c379a0000000000000000000000000000000000000000000000000000000008152600401611e2c906133eb565b60405180910390fd5b60008383604051602001611e4a929190613c3c565b6040516020818303038152906040529050611e63612743565b73ffffffffffffffffffffffffffffffffffffffff1663ba73659a8383866040518463ffffffff1660e01b8152600401611e9f9392919061335a565b602060405180830381600087803b158015611eb957600080fd5b505af1158015611ecd573d6000803e3d6000fd5b505050506040513d601f19601f82011682018060405250810190611ef191906131a3565b611f30576040517f08c379a0000000000000000000000000000000000000000000000000000000008152600401611f279061321c565b60405180910390fd5b6000600160008673ffffffffffffffffffffffffffffffffffffffff1673ffffffffffffffffffffffffffffffffffffffff16815260200190815260200160002060006101000a81548160ff0219169083151502179055508373ffffffffffffffffffffffffffffffffffffffff167f58ad5e799e2df93ab408be0e5c1870d44c80b5bca99dfaf7ddf0dab5e6b155c984604051611fce9190612bfc565b60405180910390a250505050565b600a60009054906101000a900460ff1661202b576040517f08c379a000000000000000000000000000000000000000000000000000000000815260040161202290613cc4565b60405180910390fd5b60008360405160200161203e9190613d30565b6040516020818303038152906040529050612057612743565b73ffffffffffffffffffffffffffffffffffffffff1663ba73659a848484886040518563ffffffff1660e01b81526004016120959493929190613130565b602060405180830381600087803b1580156120af57600080fd5b505af11580156120c3573d6000803e3d6000fd5b505050506040513d601f19601f820116820180604052508101906120e791906131a3565b612126576040517f08c379a000000000000000000000000000000000000000000000000000000000815260040161211d9061321c565b60405180910390fd5b6000600a60006101000a81548160ff0219169083151502179055507f79c02b0e60e0f00fe0370791204f2f175fe3f06f4816f3506ad4fa1b8e8cde0f60405160405180910390a150505050565b600a60009054906101000a900460ff1681565b6000600960008373ffffffffffffffffffffffffffffffffffffffff1673ffffffffffffffffffffffffffffffffffffffff168152602001908152602001600020549050919050565b600a60009054906101000a900460ff161561221f576040517f08c379a0000000000000000000000000000000000000000000000000000000008152600401612216906135ac565b60405180910390fd5b600b60003373ffffffffffffffffffffffffffffffffffffffff1673ffffffffffffffffffffffffffffffffffffffff16815260200190815260200160002060009054906101000a900460ff168061233d5750600760008473ffffffffffffffffffffffffffffffffffffffff1673ffffffffffffffffffffffffffffffffffffffff1681526020019081526020016000205482600660003373ffffffffffffffffffffffffffffffffffffffff1673ffffffffffffffffffffffffffffffffffffffff16815260200190815260200160002060008673ffffffffffffffffffffffffffffffffffffffff1673ffffffffffffffffffffffffffffffffffffffff1681526020019081526020016000205461233a91906135fb565b11155b61237c576040517f08c379a000000000000000000000000000000000000000000000000000000000815260040161237390613daa565b60405180910390fd5b600160008473ffffffffffffffffffffffffffffffffffffffff1673ffffffffffffffffffffffffffffffffffffffff16815260200190815260200160002060009054906101000a900460ff16612408576040517f08c379a00000000000000000000000000000000000000000000000000000000081526004016123ff906133eb565b60405180910390fd5b6000600360008573ffffffffffffffffffffffffffffffffffffffff1673ffffffffffffffffffffffffffffffffffffffff1681526020019081526020016000205414806124955750600360008473ffffffffffffffffffffffffffffffffffffffff1673ffffffffffffffffffffffffffffffffffffffff168152602001908152602001600020548211155b6124d4576040517f08c379a00000000000000000000000000000000000000000000000000000000081526004016124cb90613e16565b60405180910390fd5b600260008473ffffffffffffffffffffffffffffffffffffffff1673ffffffffffffffffffffffffffffffffffffffff16815260200190815260200160002054821015612556576040517f08c379a000000000000000000000000000000000000000000000000000000000815260040161254d90613e82565b60405180910390fd5b8273ffffffffffffffffffffffffffffffffffffffff166323b872dd3360008054906101000a900473ffffffffffffffffffffffffffffffffffffffff16856040518463ffffffff1660e01b81526004016125b393929190613f01565b602060405180830381600087803b1580156125cd57600080fd5b505af11580156125e1573d6000803e3d6000fd5b505050506040513d601f19601f8201168201806040525081019061260591906131a3565b612644576040517f08c379a000000000000000000000000000000000000000000000000000000000815260040161263b90613f84565b60405180910390fd5b81600660003373ffffffffffffffffffffffffffffffffffffffff1673ffffffffffffffffffffffffffffffffffffffff16815260200190815260200160002060008573ffffffffffffffffffffffffffffffffffffffff1673ffffffffffffffffffffffffffffffffffffffff16815260200190815260200160002060008282546126d091906135fb565b925050819055508273ffffffffffffffffffffffffffffffffffffffff163373ffffffffffffffffffffffffffffffffffffffff167f3724ff5e82ddc640a08d68b0b782a5991aea0de51a8dd10a59cdbe5b3ec4e6bf8484604051612736929190613fa4565b60405180910390a3505050565b60008060009054906101000a900473ffffffffffffffffffffffffffffffffffffffff1673ffffffffffffffffffffffffffffffffffffffff1663b82d5abd6040518163ffffffff1660e01b815260040160206040518083038186803b1580156127ac57600080fd5b505afa1580156127c0573d6000803e3d6000fd5b505050506040513d601f19601f820116820180604052508101906127e49190613fe2565b905090565b6000604051905090565b600080fd5b600080fd5b600073ffffffffffffffffffffffffffffffffffffffff82169050919050565b6000612828826127fd565b9050919050565b6128388161281d565b811461284357600080fd5b50565b6000813590506128558161282f565b92915050565b6000819050919050565b61286e8161285b565b811461287957600080fd5b50565b60008135905061288b81612865565b92915050565b600080fd5b600080fd5b600080fd5b60008083601f8401126128b6576128b5612891565b5b8235905067ffffffffffffffff8111156128d3576128d2612896565b5b6020830191508360018202830111156128ef576128ee61289b565b5b9250929050565b600080600080606085870312156129105761290f6127f3565b5b600061291e87828801612846565b945050602061292f8782880161287c565b935050604085013567ffffffffffffffff8111156129505761294f6127f8565b5b61295c878288016128a0565b925092505092959194509250565b6000819050919050565b61297d8161296a565b811461298857600080fd5b50565b60008135905061299a81612974565b92915050565b600080fd5b6000601f19601f8301169050919050565b7f4e487b7100000000000000000000000000000000000000000000000000000000600052604160045260246000fd5b6129ee826129a5565b810181811067ffffffffffffffff82111715612a0d57612a0c6129b6565b5b80604052505050565b6000612a206127e9565b9050612a2c82826129e5565b919050565b600067ffffffffffffffff821115612a4c57612a4b6129b6565b5b612a55826129a5565b9050602081019050919050565b82818337600083830152505050565b6000612a84612a7f84612a31565b612a16565b905082815260208101848484011115612aa057612a9f6129a0565b5b612aab848285612a62565b509392505050565b600082601f830112612ac857612ac7612891565b5b8135612ad8848260208601612a71565b91505092915050565b60008060008060008060c08789031215612afe57612afd6127f3565b5b6000612b0c89828a01612846565b9650506020612b1d89828a0161298b565b9550506040612b2e89828a0161287c565b9450506060612b3f89828a0161287c565b9350506080612b5089828a0161287c565b92505060a087013567ffffffffffffffff811115612b7157612b706127f8565b5b612b7d89828a01612ab3565b9150509295509295509295565b600060208284031215612ba057612b9f6127f3565b5b6000612bae84828501612846565b91505092915050565b60008115159050919050565b612bcc81612bb7565b82525050565b6000602082019050612be76000830184612bc3565b92915050565b612bf68161285b565b82525050565b6000602082019050612c116000830184612bed565b92915050565b60008060008060808587031215612c3157612c306127f3565b5b6000612c3f87828801612846565b9450506020612c508782880161287c565b9350506040612c618782880161287c565b925050606085013567ffffffffffffffff811115612c8257612c816127f8565b5b612c8e87828801612ab3565b91505092959194509250565b60008060008060008060c08789031215612cb757612cb66127f3565b5b6000612cc589828a01612846565b9650506020612cd689828a0161287c565b9550506040612ce789828a01612846565b9450506060612cf889828a0161287c565b9350506080612d0989828a0161287c565b92505060a087013567ffffffffffffffff811115612d2a57612d296127f8565b5b612d3689828a01612ab3565b9150509295509295509295565b612d4c8161281d565b82525050565b6000602082019050612d676000830184612d43565b92915050565b60008060008060608587031215612d8757612d866127f3565b5b6000612d958782880161287c565b9450506020612da68782880161287c565b935050604085013567ffffffffffffffff811115612dc757612dc66127f8565b5b612dd3878288016128a0565b925092505092959194509250565b600060208284031215612df757612df66127f3565b5b6000612e058482850161298b565b91505092915050565b600080600080600060808688031215612e2a57612e296127f3565b5b6000612e3888828901612846565b9550506020612e498882890161287c565b9450506040612e5a8882890161287c565b935050606086013567ffffffffffffffff811115612e7b57612e7a6127f8565b5b612e87888289016128a0565b92509250509295509295909350565b600080600060408486031215612eaf57612eae6127f3565b5b6000612ebd8682870161287c565b935050602084013567ffffffffffffffff811115612ede57612edd6127f8565b5b612eea868287016128a0565b92509250509250925092565b612eff8161296a565b82525050565b6000602082019050612f1a6000830184612ef6565b92915050565b600080600060608486031215612f3957612f386127f3565b5b6000612f4786828701612846565b9350506020612f588682870161287c565b925050604084013567ffffffffffffffff811115612f7957612f786127f8565b5b612f8586828701612ab3565b9150509250925092565b600080600060608486031215612fa857612fa76127f3565b5b6000612fb686828701612846565b9350506020612fc78682870161287c565b9250506040612fd88682870161298b565b9150509250925092565b600082825260208201905092915050565b7f7365745f6578656d7074696f6e5f6c6973746572000000000000000000000000600082015250565b6000613029601483612fe2565b915061303482612ff3565b602082019050919050565b60006060820190506130546000830185612d43565b6130616020830184612bed565b81810360408301526130728161301c565b90509392505050565b600082825260208201905092915050565b6000613098838561307b565b93506130a5838584612a62565b6130ae836129a5565b840190509392505050565b600081519050919050565b60005b838110156130e25780820151818401526020810190506130c7565b838111156130f1576000848401525b50505050565b6000613102826130b9565b61310c818561307b565b935061311c8185602086016130c4565b613125816129a5565b840191505092915050565b6000606082019050818103600083015261314b81868861308c565b9050818103602083015261315f81856130f7565b905061316e6040830184612bed565b95945050505050565b61318081612bb7565b811461318b57600080fd5b50565b60008151905061319d81613177565b92915050565b6000602082840312156131b9576131b86127f3565b5b60006131c78482850161318e565b91505092915050565b7f626164207369676e617475726573000000000000000000000000000000000000600082015250565b6000613206600e83612fe2565b9150613211826131d0565b602082019050919050565b60006020820190508181036000830152613235816131f9565b9050919050565b7f617373657420616c7265616479206c6973746564000000000000000000000000600082015250565b6000613272601483612fe2565b915061327d8261323c565b602082019050919050565b600060208201905081810360008301526132a181613265565b9050919050565b7f6c6973745f617373657400000000000000000000000000000000000000000000600082015250565b60006132de600a83612fe2565b91506132e9826132a8565b602082019050919050565b600060c0820190506133096000830188612d43565b6133166020830187612ef6565b6133236040830186612bed565b6133306060830185612bed565b61333d6080830184612bed565b81810360a083015261334e816132d1565b90509695505050505050565b6000606082019050818103600083015261337481866130f7565b9050818103602083015261338881856130f7565b90506133976040830184612bed565b949350505050565b7f6173736574206e6f74206c697374656400000000000000000000000000000000600082015250565b60006133d5601083612fe2565b91506133e08261339f565b602082019050919050565b60006020820190508181036000830152613404816133c8565b9050919050565b7f7365745f6465706f7369745f6d6178696d756d00000000000000000000000000600082015250565b6000613441601383612fe2565b915061344c8261340b565b602082019050919050565b600060808201905061346c6000830186612d43565b6134796020830185612bed565b6134866040830184612bed565b818103606083015261349781613434565b9050949350505050565b60006040820190506134b66000830185612bed565b6134c36020830184612bed565b9392505050565b7f7365745f6465706f7369745f6d696e696d756d00000000000000000000000000600082015250565b6000613500601383612fe2565b915061350b826134ca565b602082019050919050565b600060808201905061352b6000830186612d43565b6135386020830185612bed565b6135456040830184612bed565b8181036060830152613556816134f3565b9050949350505050565b7f6272696467652073746f70706564000000000000000000000000000000000000600082015250565b6000613596600e83612fe2565b91506135a182613560565b602082019050919050565b600060208201905081810360008301526135c581613589565b9050919050565b7f4e487b7100000000000000000000000000000000000000000000000000000000600052601160045260246000fd5b60006136068261285b565b91506136118361285b565b9250827fffffffffffffffffffffffffffffffffffffffffffffffffffffffffffffffff03821115613646576136456135cc565b5b828201905092915050565b7f6c61726765207769746864726177206973206e6f74206f6c6420656e6f756768600082015250565b6000613687602083612fe2565b915061369282613651565b602082019050919050565b600060208201905081810360008301526136b68161367a565b9050919050565b7f77697468647261775f6173736574000000000000000000000000000000000000600082015250565b60006136f3600e83612fe2565b91506136fe826136bd565b602082019050919050565b600060c08201905061371e6000830188612d43565b61372b6020830187612bed565b6137386040830186612d43565b6137456060830185612bed565b6137526080830184612bed565b81810360a0830152613763816136e6565b90509695505050505050565b60006060820190506137846000830186612d43565b6137916020830185612d43565b61379e6040830184612bed565b949350505050565b7f756e617574686f72697a6564206578656d7074696f6e206c6973746572000000600082015250565b60006137dc601d83612fe2565b91506137e7826137a6565b602082019050919050565b6000602082019050818103600083015261380b816137cf565b9050919050565b7f6465706f7369746f72206e6f74206578656d7074000000000000000000000000600082015250565b6000613848601483612fe2565b915061385382613812565b602082019050919050565b600060208201905081810360008301526138778161383b565b9050919050565b7f7365745f77697468647261775f64656c61790000000000000000000000000000600082015250565b60006138b4601283612fe2565b91506138bf8261387e565b602082019050919050565b60006060820190506138df6000830185612bed565b6138ec6020830184612bed565b81810360408301526138fd816138a7565b90509392505050565b7f7365745f6c69666574696d655f6465706f7369745f6d61780000000000000000600082015250565b600061393c601883612fe2565b915061394782613906565b602082019050919050565b60006080820190506139676000830186612d43565b6139746020830185612bed565b6139816040830184612bed565b81810360608301526139928161392f565b9050949350505050565b7f63616e6e6f74206578656d7074207a65726f2061646472657373000000000000600082015250565b60006139d2601a83612fe2565b91506139dd8261399c565b602082019050919050565b60006020820190508181036000830152613a01816139c5565b9050919050565b7f6465706f7369746f7220616c7265616479206578656d70740000000000000000600082015250565b6000613a3e601883612fe2565b9150613a4982613a08565b602082019050919050565b60006020820190508181036000830152613a6d81613a31565b9050919050565b7f7365745f77697468647261775f7468726573686f6c6400000000000000000000600082015250565b6000613aaa601683612fe2565b9150613ab582613a74565b602082019050919050565b6000608082019050613ad56000830186612d43565b613ae26020830185612bed565b613aef6040830184612bed565b8181036060830152613b0081613a9d565b9050949350505050565b7f62726964676520616c72656164792073746f7070656400000000000000000000600082015250565b6000613b40601683612fe2565b9150613b4b82613b0a565b602082019050919050565b60006020820190508181036000830152613b6f81613b33565b9050919050565b7f676c6f62616c5f73746f70000000000000000000000000000000000000000000600082015250565b6000613bac600b83612fe2565b9150613bb782613b76565b602082019050919050565b6000604082019050613bd76000830184612bed565b8181036020830152613be881613b9f565b905092915050565b7f72656d6f76655f61737365740000000000000000000000000000000000000000600082015250565b6000613c26600c83612fe2565b9150613c3182613bf0565b602082019050919050565b6000606082019050613c516000830185612d43565b613c5e6020830184612bed565b8181036040830152613c6f81613c19565b90509392505050565b7f627269646765206e6f742073746f707065640000000000000000000000000000600082015250565b6000613cae601283612fe2565b9150613cb982613c78565b602082019050919050565b60006020820190508181036000830152613cdd81613ca1565b9050919050565b7f676c6f62616c5f726573756d6500000000000000000000000000000000000000600082015250565b6000613d1a600d83612fe2565b9150613d2582613ce4565b602082019050919050565b6000604082019050613d456000830184612bed565b8181036020830152613d5681613d0d565b905092915050565b7f6465706f736974206f766572206c69666574696d65206c696d69740000000000600082015250565b6000613d94601b83612fe2565b9150613d9f82613d5e565b602082019050919050565b60006020820190508181036000830152613dc381613d87565b9050919050565b7f6465706f7369742061626f7665206d6178696d756d0000000000000000000000600082015250565b6000613e00601583612fe2565b9150613e0b82613dca565b602082019050919050565b60006020820190508181036000830152613e2f81613df3565b9050919050565b7f6465706f7369742062656c6f77206d696e696d756d0000000000000000000000600082015250565b6000613e6c601583612fe2565b9150613e7782613e36565b602082019050919050565b60006020820190508181036000830152613e9b81613e5f565b9050919050565b6000819050919050565b6000613ec7613ec2613ebd846127fd565b613ea2565b6127fd565b9050919050565b6000613ed982613eac565b9050919050565b6000613eeb82613ece565b9050919050565b613efb81613ee0565b82525050565b6000606082019050613f166000830186612d43565b613f236020830185613ef2565b613f306040830184612bed565b949350505050565b7f7472616e73666572206661696c656420696e206465706f736974000000000000600082015250565b6000613f6e601a83612fe2565b9150613f7982613f38565b602082019050919050565b60006020820190508181036000830152613f9d81613f61565b9050919050565b6000604082019050613fb96000830185612bed565b613fc66020830184612ef6565b9392505050565b600081519050613fdc8161282f565b92915050565b600060208284031215613ff857613ff76127f3565b5b600061400684828501613fcd565b9150509291505056fea2646970667358221220456173f0f5450dacac2a0b1f7ff8dd81838015cfe2db234f689866d585fd666464736f6c63430008080033",
  "immutableReferences": {},
  "source": "//SPDX-License-Identifier: MIT\npragma solidity 0.8.8;\n\nimport \"./IERC20.sol\";\nimport \"./IERC20_Bridge_Logic_Restricted.sol\";\nimport \"./IMultisigControl.sol\";\nimport \"./ERC20_Asset_Pool.sol\";\n\n/// @title ERC20 Bridge Logic\n/// @author Vega Protocol\n/// @notice This contract is used by Vega network users to deposit and withdraw ERC20 tokens to/from Vega.\n// @notice All funds deposited/withdrawn are to/from the assigned ERC20_Asset_Pool\ncontract ERC20_Bridge_Logic_Restricted is IERC20_Bridge_Logic_Restricted {\n\n    address payable erc20_asset_pool_address;\n    // asset address => is listed\n    mapping(address => bool) listed_tokens;\n    // asset address => minimum deposit amt\n    mapping(address => uint256) minimum_deposits;\n    // asset address => maximum deposit amt\n    mapping(address => uint256) maximum_deposits;\n    // Vega asset ID => asset_source\n    mapping(bytes32 => address) vega_asset_ids_to_source;\n    // asset_source => Vega asset ID\n    mapping(address => bytes32) asset_source_to_vega_asset_id;\n\n    /// @param erc20_asset_pool Initial Asset Pool contract address\n    constructor(address payable erc20_asset_pool) {\n        erc20_asset_pool_address = erc20_asset_pool;\n    }\n\n    function multisig_control_address() internal view returns(address) {\n      return ERC20_Asset_Pool(erc20_asset_pool_address).multisig_control_address();\n    }\n\n\n    /***************************FUNCTIONS*************************/\n    /// @notice This function lists the given ERC20 token contract as valid for deposit to this bridge\n    /// @param asset_source Contract address for given ERC20 token\n    /// @param vega_asset_id Vega-generated asset ID for internal use in Vega Core\n    /// @param lifetime_limit Initial lifetime deposit limit *RESTRICTION FEATURE*\n    /// @param withdraw_threshold Amount at which the withdraw delay goes into effect *RESTRICTION FEATURE*\n    /// @param nonce Vega-assigned single-use number that provides replay attack protection\n    /// @param signatures Vega-supplied signature bundle of a validator-signed order\n    /// @notice See MultisigControl for more about signatures\n    /// @dev Emits Asset_Listed if successful\n    function list_asset(address asset_source, bytes32 vega_asset_id, uint256 lifetime_limit, uint256 withdraw_threshold, uint256 nonce, bytes memory signatures) public override {\n        require(!listed_tokens[asset_source], \"asset already listed\");\n        bytes memory message = abi.encode(asset_source, vega_asset_id, lifetime_limit, withdraw_threshold, nonce, 'list_asset');\n        require(IMultisigControl(multisig_control_address()).verify_signatures(signatures, message, nonce), \"bad signatures\");\n        listed_tokens[asset_source] = true;\n        vega_asset_ids_to_source[vega_asset_id] = asset_source;\n        asset_source_to_vega_asset_id[asset_source] = vega_asset_id;\n        asset_deposit_lifetime_limit[asset_source] = lifetime_limit;\n        withdraw_thresholds[asset_source] = withdraw_threshold;\n        emit Asset_Listed(asset_source, vega_asset_id, nonce);\n    }\n\n    /// @notice This function removes from listing the given ERC20 token contract. This marks the token as invalid for deposit to this bridge\n    /// @param asset_source Contract address for given ERC20 token\n    /// @param nonce Vega-assigned single-use number that provides replay attack protection\n    /// @param signatures Vega-supplied signature bundle of a validator-signed order\n    /// @notice See MultisigControl for more about signatures\n    /// @dev Emits Asset_Removed if successful\n    function remove_asset(address asset_source, uint256 nonce, bytes memory signatures) public override {\n        require(listed_tokens[asset_source], \"asset not listed\");\n        bytes memory message = abi.encode(asset_source, nonce, 'remove_asset');\n        require(IMultisigControl(multisig_control_address()).verify_signatures(signatures, message, nonce), \"bad signatures\");\n        listed_tokens[asset_source] = false;\n        emit Asset_Removed(asset_source, nonce);\n    }\n\n    /// @notice This function sets the minimum allowable deposit for the given ERC20 token\n    /// @param asset_source Contract address for given ERC20 token\n    /// @param minimum_amount Minimum deposit amount\n    /// @param nonce Vega-assigned single-use number that provides replay attack protection\n    /// @param signatures Vega-supplied signature bundle of a validator-signed order\n    /// @notice See MultisigControl for more about signatures\n    /// @dev Emits Asset_Deposit_Minimum_Set if successful\n    function set_deposit_minimum(address asset_source, uint256 minimum_amount, uint256 nonce, bytes memory signatures) public override{\n        require(listed_tokens[asset_source], \"asset not listed\");\n        bytes memory message = abi.encode(asset_source, minimum_amount, nonce, 'set_deposit_minimum');\n        require(IMultisigControl(multisig_control_address()).verify_signatures(signatures, message, nonce), \"bad signatures\");\n        minimum_deposits[asset_source] = minimum_amount;\n        emit Asset_Deposit_Minimum_Set(asset_source, minimum_amount, nonce);\n    }\n\n    /// @notice This function sets the maximum allowable deposit for the given ERC20 token\n    /// @param asset_source Contract address for given ERC20 token\n    /// @param maximum_amount Maximum deposit amount\n    /// @param nonce Vega-assigned single-use number that provides replay attack protection\n    /// @param signatures Vega-supplied signature bundle of a validator-signed order\n    /// @notice See MultisigControl for more about signatures\n    /// @dev Emits Asset_Deposit_Maximum_Set if successful\n    function set_deposit_maximum(address asset_source, uint256 maximum_amount, uint256 nonce, bytes memory signatures) public override {\n        require(listed_tokens[asset_source], \"asset not listed\");\n        bytes memory message = abi.encode(asset_source, maximum_amount, nonce, 'set_deposit_maximum');\n        require(IMultisigControl(multisig_control_address()).verify_signatures(signatures, message, nonce), \"bad signatures\");\n        maximum_deposits[asset_source] = maximum_amount;\n        emit Asset_Deposit_Maximum_Set(asset_source, maximum_amount, nonce);\n    }\n\n    /************************RESTRICTIONS***************************/\n    // user => asset_source => deposit total\n    mapping(address => mapping(address => uint256)) user_lifetime_deposits;\n    // asset_source => deposit_limit\n    mapping(address => uint256) asset_deposit_lifetime_limit;\n    uint256 public default_withdraw_delay = 432000;\n    // asset_source => threshold\n    mapping(address => uint256) withdraw_thresholds;\n    bool public is_stopped;\n\n    // depositor => is exempt from deposit limits\n    mapping(address => bool) exempt_depositors;\n    address exemption_lister;\n\n    /// @notice This function sets the lifetime maximum deposit for a given asset\n    /// @param asset_source Contract address for given ERC20 token\n    /// @param lifetime_limit Deposit limit for a given ethereum address\n    /// @param nonce Vega-assigned single-use number that provides replay attack protection\n    /// @param signatures Vega-supplied signature bundle of a validator-signed order\n    /// @dev asset must first be listed\n    function set_lifetime_deposit_max(address asset_source, uint256 lifetime_limit, uint256 nonce, bytes calldata signatures) public override {\n      require(listed_tokens[asset_source], \"asset not listed\");\n      bytes memory message = abi.encode(asset_source, lifetime_limit, nonce, 'set_lifetime_deposit_max');\n      require(IMultisigControl(multisig_control_address()).verify_signatures(signatures, message, nonce), \"bad signatures\");\n      asset_deposit_lifetime_limit[asset_source] = lifetime_limit;\n    }\n\n    /// @notice This view returns the lifetime deposit limit for the given asset\n    /// @param asset_source Contract address for given ERC20 token\n    /// @return Lifetime limit for the given asset\n    function get_asset_deposit_limit(address asset_source) public override view returns(uint256) {\n      return asset_deposit_lifetime_limit[asset_source];\n    }\n\n    /// @notice This function sets the withdraw delay for withdrawals over the per-asset set thresholds\n    /// @param delay Amount of time to delay a withdrawal\n    /// @param nonce Vega-assigned single-use number that provides replay attack protection\n    /// @param signatures Vega-supplied signature bundle of a validator-signed order\n    function set_withdraw_delay(uint256 delay, uint256 nonce, bytes calldata signatures) public override {\n      bytes memory message = abi.encode(delay, nonce, 'set_withdraw_delay');\n      require(IMultisigControl(multisig_control_address()).verify_signatures(signatures, message, nonce), \"bad signatures\");\n      default_withdraw_delay = delay;\n    }\n\n    /// @notice This function sets the withdraw threshold above which the withdraw delay goes into effect\n    /// @param asset_source Contract address for given ERC20 token\n    /// @param threshold Withdraw size above which the withdraw delay goes into effect\n    /// @param nonce Vega-assigned single-use number that provides replay attack protection\n    /// @param signatures Vega-supplied signature bundle of a validator-signed order\n    /// @dev asset must first be listed\n    function set_withdraw_threshold(address asset_source, uint256 threshold, uint256 nonce, bytes calldata signatures) public override {\n      require(listed_tokens[asset_source], \"asset not listed\");\n      bytes memory message = abi.encode(asset_source, threshold, nonce, 'set_withdraw_threshold');\n      require(IMultisigControl(multisig_control_address()).verify_signatures(signatures, message, nonce), \"bad signatures\");\n      withdraw_thresholds[asset_source] = threshold;\n    }\n\n    /// @notice This view returns the given token's withdraw threshold above which the withdraw delay goes into effect\n    /// @param asset_source Contract address for given ERC20 token\n    /// @return Withdraw threshold\n    function get_withdraw_threshold(address asset_source) public override view returns(uint256) {\n      return withdraw_thresholds[asset_source];\n    }\n\n    /// @notice This function triggers the global bridge stop that halts all withdrawals and deposits until it is resumed\n    /// @param nonce Vega-assigned single-use number that provides replay attack protection\n    /// @param signatures Vega-supplied signature bundle of a validator-signed order\n    /// @dev bridge must not be stopped already\n    /// @dev emits Bridge_Stopped if successful\n    function global_stop(uint256 nonce, bytes calldata signatures) public override {\n      require(!is_stopped, \"bridge already stopped\");\n      bytes memory message = abi.encode(nonce, 'global_stop');\n      require(IMultisigControl(multisig_control_address()).verify_signatures(signatures, message, nonce), \"bad signatures\");\n      is_stopped = true;\n      emit Bridge_Stopped();\n    }\n\n    /// @notice This function resumes bridge operations from the stopped state\n    /// @param nonce Vega-assigned single-use number that provides replay attack protection\n    /// @param signatures Vega-supplied signature bundle of a validator-signed order\n    /// @dev bridge must be stopped\n    /// @dev emits Bridge_Resumed if successful\n    function global_resume(uint256 nonce, bytes calldata signatures) public override {\n      require(is_stopped, \"bridge not stopped\");\n      bytes memory message = abi.encode(nonce, 'global_resume');\n      require(IMultisigControl(multisig_control_address()).verify_signatures(signatures, message, nonce), \"bad signatures\");\n      is_stopped = false;\n      emit Bridge_Resumed();\n    }\n\n    /// @notice this function allows MultisigControl to set the address that can exempt depositors from the deposit limits\n    /// @notice this feature is specifically for liquidity and rewards providers\n    /// @param lister The address that can exempt depositors\n    /// @param nonce Vega-assigned single-use number that provides replay attack protection\n    /// @param signatures Vega-supplied signature bundle of a validator-signed order\n    /// @dev emits Exemption_Lister_Set if successful\n    function set_exemption_lister(address lister, uint256 nonce, bytes calldata signatures) public override{\n      bytes memory message = abi.encode(lister, nonce, 'set_exemption_lister');\n      require(IMultisigControl(multisig_control_address()).verify_signatures(signatures, message, nonce), \"bad signatures\");\n      exemption_lister = lister;\n      emit Exemption_Lister_Set(lister);\n    }\n\n    /// @notice this function allows the exemption_lister to exempt a depositor from the deposit limits\n    /// @notice this feature is specifically for liquidity and rewards providers\n    /// @param depositor The depositor to exempt from limits\n    /// @dev emits Depositor_Exempted if successful\n    function exempt_depositor(address depositor) public override {\n      require(depositor != address(0), \"cannot exempt zero address\");\n      require(!exempt_depositors[depositor], \"depositor already exempt\");\n      require(msg.sender == exemption_lister, \"unauthorized exemption lister\");\n      exempt_depositors[depositor] = true;\n      emit Depositor_Exempted(depositor);\n    }\n\n    /// @notice this function allows the exemption_lister to revoke a depositor's exemption from deposit limits\n    /// @notice this feature is specifically for liquidity and rewards providers\n    /// @param depositor The depositor from which to revoke deposit exemptions\n    /// @dev emits Depositor_Exemption_Revoked if successful\n    function revoke_exempt_depositor(address depositor) public override {\n      require(msg.sender == exemption_lister, \"unauthorized exemption lister\");\n      require(exempt_depositors[depositor], \"depositor not exempt\");\n      exempt_depositors[depositor] = false;\n      emit Depositor_Exemption_Revoked(depositor);\n    }\n\n    /// @notice this view returns the address that can exempt depositors from deposit limits\n    /// @return the address can exempt depositors from deposit limits\n    function get_exemption_lister() public override view returns(address) {\n      return exemption_lister;\n    }\n\n    /// @notice this view returns true if the given despoitor address has been exempted from deposit limits\n    /// @param depositor The depositor to check\n    /// @return true if depositor is exempt\n    function is_exempt_depositor(address depositor) public override view returns(bool) {\n      return exempt_depositors[depositor];\n    }\n    /***********************END RESTRICTIONS*************************/\n\n    /// @notice This function withdrawals assets to the target Ethereum address\n    /// @param asset_source Contract address for given ERC20 token\n    /// @param amount Amount of ERC20 tokens to withdraw\n    /// @param target Target Ethereum address to receive withdrawn ERC20 tokens\n    /// @param creation Timestamp of when requestion was created *RESTRICTION FEATURE*\n    /// @param nonce Vega-assigned single-use number that provides replay attack protection\n    /// @param signatures Vega-supplied signature bundle of a validator-signed order\n    /// @notice See MultisigControl for more about signatures\n    /// @dev Emits Asset_Withdrawn if successful\n    function withdraw_asset(address asset_source, uint256 amount, address target, uint256 creation, uint256 nonce, bytes memory signatures) public override{\n        require(!is_stopped, \"bridge stopped\");\n        require(withdraw_thresholds[asset_source] > amount || creation + default_withdraw_delay <= block.timestamp, \"large withdraw is not old enough\");\n        bytes memory message = abi.encode(asset_source, amount, target, creation,  nonce, 'withdraw_asset');\n        require(IMultisigControl(multisig_control_address()).verify_signatures(signatures, message, nonce), \"bad signatures\");\n        ERC20_Asset_Pool(erc20_asset_pool_address).withdraw(asset_source, target, amount);\n        emit Asset_Withdrawn(target, asset_source, amount, nonce);\n    }\n\n\n    /// @notice This function allows a user to deposit given ERC20 tokens into Vega\n    /// @param asset_source Contract address for given ERC20 token\n    /// @param amount Amount of tokens to be deposited into Vega\n    /// @param vega_public_key Target Vega public key to be credited with this deposit\n    /// @dev emits Asset_Deposited if successful\n    /// @dev ERC20 approve function should be run before running this\n    /// @notice ERC20 approve function should be run before running this\n    function deposit_asset(address asset_source, uint256 amount, bytes32 vega_public_key) public override {\n        require(!is_stopped, \"bridge stopped\");\n        require(exempt_depositors[msg.sender] || user_lifetime_deposits[msg.sender][asset_source] + amount <= asset_deposit_lifetime_limit[asset_source], \"deposit over lifetime limit\");\n        require(listed_tokens[asset_source], \"asset not listed\");\n        //User must run approve before deposit\n        require(maximum_deposits[asset_source] == 0 || amount <= maximum_deposits[asset_source], \"deposit above maximum\");\n        require(amount >= minimum_deposits[asset_source], \"deposit below minimum\");\n        require(IERC20(asset_source).transferFrom(msg.sender, erc20_asset_pool_address, amount), \"transfer failed in deposit\");\n        user_lifetime_deposits[msg.sender][asset_source] += amount;\n        emit Asset_Deposited(msg.sender, asset_source, amount, vega_public_key);\n    }\n\n    /***************************VIEWS*****************************/\n    /// @notice This view returns true if the given ERC20 token contract has been listed valid for deposit\n    /// @param asset_source Contract address for given ERC20 token\n    /// @return True if asset is listed\n    function is_asset_listed(address asset_source) public override view returns(bool){\n        return listed_tokens[asset_source];\n    }\n\n    /// @notice This view returns minimum valid deposit\n    /// @param asset_source Contract address for given ERC20 token\n    /// @return Minimum valid deposit of given ERC20 token\n    function get_deposit_minimum(address asset_source) public override view returns(uint256){\n        return minimum_deposits[asset_source];\n    }\n\n    /// @notice This view returns maximum valid deposit\n    /// @param asset_source Contract address for given ERC20 token\n    /// @return Maximum valid deposit of given ERC20 token\n    function get_deposit_maximum(address asset_source) public override view returns(uint256){\n        return maximum_deposits[asset_source];\n    }\n\n    /// @return current multisig_control_address\n    function get_multisig_control_address() public override view returns(address) {\n        return multisig_control_address();\n    }\n\n    /// @param asset_source Contract address for given ERC20 token\n    /// @return The assigned Vega Asset Id for given ERC20 token\n    function get_vega_asset_id(address asset_source) public override view returns(bytes32){\n        return asset_source_to_vega_asset_id[asset_source];\n    }\n\n    /// @param vega_asset_id Vega-assigned asset ID for which you want the ERC20 token address\n    /// @return The ERC20 token contract address for a given Vega Asset Id\n    function get_asset_source(bytes32 vega_asset_id) public override view returns(address){\n        return vega_asset_ids_to_source[vega_asset_id];\n    }\n}\n\n/**\nMMMMMMMMMMMMMMMMMMMMMMMMMMMMMMMMMMMMMMMMMMMMMMMMMMMMMMMMMMMM\nMMMMMMMMMMMMMMMMMMMMMMMMMMMMMMMMMMMMMMMMMMMMMMMMMMMMMMMMMMMM\nMMMMWEMMMMMMMMMMMMMMMMMMMMMMMMMM...............MMMMMMMMMMMMM\nMMMMMMLOVEMMMMMMMMMMMMMMMMMMMMMM...............MMMMMMMMMMMMM\nMMMMMMMMMMHIXELMMMMMMMMMMMM....................MMMMMNNMMMMMM\nMMMMMMMMMMMMMMMMMMMMMMMMMMM....................MMMMMMMMMMMMM\nMMMMMMMMMMMMMMMMMMMMMM88=........................+MMMMMMMMMM\nMMMMMMMMMMMMMMMMM....................MMMMM...MMMMMMMMMMMMMMM\nMMMMMMMMMMMMMMMMM....................MMMMM...MMMMMMMMMMMMMMM\nMMMMMMMMMMMM.........................MM+..MMM....+MMMMMMMMMM\nMMMMMMMMMNMM...................... ..MM?..MMM.. .+MMMMMMMMMM\nMMMMNDDMM+........................+MM........MM..+MMMMMMMMMM\nMMMMZ.............................+MM....................MMM\nMMMMZ.............................+MM....................MMM\nMMMMZ.............................+MM....................DDD\nMMMMZ.............................+MM..ZMMMMMMMMMMMMMMMMMMMM\nMMMMZ.............................+MM..ZMMMMMMMMMMMMMMMMMMMM\nMM..............................MMZ....ZMMMMMMMMMMMMMMMMMMMM\nMM............................MM.......ZMMMMMMMMMMMMMMMMMMMM\nMM............................MM.......ZMMMMMMMMMMMMMMMMMMMM\nMM......................ZMMMMM.......MMMMMMMMMMMMMMMMMMMMMMM\nMM............... ......ZMMMMM.... ..MMMMMMMMMMMMMMMMMMMMMMM\nMM...............MMMMM88~.........+MM..ZMMMMMMMMMMMMMMMMMMMM\nMM.......$DDDDDDD.......$DDDDD..DDNMM..ZMMMMMMMMMMMMMMMMMMMM\nMM.......$DDDDDDD.......$DDDDD..DDNMM..ZMMMMMMMMMMMMMMMMMMMM\nMM.......ZMMMMMMM.......ZMMMMM..MMMMM..ZMMMMMMMMMMMMMMMMMMMM\nMMMMMMMMM+.......MMMMM88NMMMMM..MMMMMMMMMMMMMMMMMMMMMMMMMMMM\nMMMMMMMMM+.......MMMMM88NMMMMM..MMMMMMMMMMMMMMMMMMMMMMMMMMMM\nMMMMMMMMMMMMMMMMMMMMMMMMMMMMMMMMMMMMMMMMMMMMMMMMMMMMMMMMMMMM\nMMMMMMMMMMMMMMMMMMMMMMMMMMMMMMMMMMMMMMMMMMMMMMMMMMMMMMMMMMMM*/\n",
  "sourcePath": "/Users/nemitariajienka/Desktop/projects/MultisigControl/contracts/ERC20_Bridge_Logic_Restricted.sol",
  "compiler": {
    "name": "solc",
    "version": "0.8.8+commit.dddeac2f.Emscripten.clang"
  },
  "schemaVersion": "3.3.3",
  "updatedAt": "2022-04-28T16:40:52.594Z",
  "devdoc": {
    "author": "Vega Protocol",
    "kind": "dev",
    "methods": {
      "constructor": {
        "params": {
          "erc20_asset_pool": "Initial Asset Pool contract address"
        }
      },
      "deposit_asset(address,uint256,bytes32)": {
        "details": "emits Asset_Deposited if successfulERC20 approve function should be run before running this",
        "params": {
          "amount": "Amount of tokens to be deposited into Vega",
          "asset_source": "Contract address for given ERC20 token",
          "vega_public_key": "Target Vega public key to be credited with this deposit"
        }
      },
      "exempt_depositor(address)": {
        "details": "emits Depositor_Exempted if successful",
        "params": {
          "depositor": "The depositor to exempt from limits"
        }
      },
      "get_asset_deposit_limit(address)": {
        "params": {
          "asset_source": "Contract address for given ERC20 token"
        },
        "returns": {
          "_0": "Lifetime limit for the given asset"
        }
      },
      "get_asset_source(bytes32)": {
        "params": {
          "vega_asset_id": "Vega-assigned asset ID for which you want the ERC20 token address"
        },
        "returns": {
          "_0": "The ERC20 token contract address for a given Vega Asset Id"
        }
      },
      "get_deposit_maximum(address)": {
        "params": {
          "asset_source": "Contract address for given ERC20 token"
        },
        "returns": {
          "_0": "Maximum valid deposit of given ERC20 token"
        }
      },
      "get_deposit_minimum(address)": {
        "params": {
          "asset_source": "Contract address for given ERC20 token"
        },
        "returns": {
          "_0": "Minimum valid deposit of given ERC20 token"
        }
      },
      "get_exemption_lister()": {
        "returns": {
          "_0": "the address can exempt depositors from deposit limits"
        }
      },
      "get_multisig_control_address()": {
        "returns": {
          "_0": "current multisig_control_address"
        }
      },
      "get_vega_asset_id(address)": {
        "params": {
          "asset_source": "Contract address for given ERC20 token"
        },
        "returns": {
          "_0": "The assigned Vega Asset Id for given ERC20 token"
        }
      },
      "get_withdraw_threshold(address)": {
        "params": {
          "asset_source": "Contract address for given ERC20 token"
        },
        "returns": {
          "_0": "Withdraw threshold"
        }
      },
      "global_resume(uint256,bytes)": {
        "details": "bridge must be stoppedemits Bridge_Resumed if successful",
        "params": {
          "nonce": "Vega-assigned single-use number that provides replay attack protection",
          "signatures": "Vega-supplied signature bundle of a validator-signed order"
        }
      },
      "global_stop(uint256,bytes)": {
        "details": "bridge must not be stopped alreadyemits Bridge_Stopped if successful",
        "params": {
          "nonce": "Vega-assigned single-use number that provides replay attack protection",
          "signatures": "Vega-supplied signature bundle of a validator-signed order"
        }
      },
      "is_asset_listed(address)": {
        "params": {
          "asset_source": "Contract address for given ERC20 token"
        },
        "returns": {
          "_0": "True if asset is listed"
        }
      },
      "is_exempt_depositor(address)": {
        "params": {
          "depositor": "The depositor to check"
        },
        "returns": {
          "_0": "true if depositor is exempt"
        }
      },
      "list_asset(address,bytes32,uint256,uint256,uint256,bytes)": {
        "details": "Emits Asset_Listed if successful",
        "params": {
          "asset_source": "Contract address for given ERC20 token",
          "lifetime_limit": "Initial lifetime deposit limit *RESTRICTION FEATURE*",
          "nonce": "Vega-assigned single-use number that provides replay attack protection",
          "signatures": "Vega-supplied signature bundle of a validator-signed order",
          "vega_asset_id": "Vega-generated asset ID for internal use in Vega Core",
          "withdraw_threshold": "Amount at which the withdraw delay goes into effect *RESTRICTION FEATURE*"
        }
      },
      "remove_asset(address,uint256,bytes)": {
        "details": "Emits Asset_Removed if successful",
        "params": {
          "asset_source": "Contract address for given ERC20 token",
          "nonce": "Vega-assigned single-use number that provides replay attack protection",
          "signatures": "Vega-supplied signature bundle of a validator-signed order"
        }
      },
      "revoke_exempt_depositor(address)": {
        "details": "emits Depositor_Exemption_Revoked if successful",
        "params": {
          "depositor": "The depositor from which to revoke deposit exemptions"
        }
      },
      "set_deposit_maximum(address,uint256,uint256,bytes)": {
        "details": "Emits Asset_Deposit_Maximum_Set if successful",
        "params": {
          "asset_source": "Contract address for given ERC20 token",
          "maximum_amount": "Maximum deposit amount",
          "nonce": "Vega-assigned single-use number that provides replay attack protection",
          "signatures": "Vega-supplied signature bundle of a validator-signed order"
        }
      },
      "set_deposit_minimum(address,uint256,uint256,bytes)": {
        "details": "Emits Asset_Deposit_Minimum_Set if successful",
        "params": {
          "asset_source": "Contract address for given ERC20 token",
          "minimum_amount": "Minimum deposit amount",
          "nonce": "Vega-assigned single-use number that provides replay attack protection",
          "signatures": "Vega-supplied signature bundle of a validator-signed order"
        }
      },
      "set_exemption_lister(address,uint256,bytes)": {
        "details": "emits Exemption_Lister_Set if successful",
        "params": {
          "lister": "The address that can exempt depositors",
          "nonce": "Vega-assigned single-use number that provides replay attack protection",
          "signatures": "Vega-supplied signature bundle of a validator-signed order"
        }
      },
      "set_lifetime_deposit_max(address,uint256,uint256,bytes)": {
        "details": "asset must first be listed",
        "params": {
          "asset_source": "Contract address for given ERC20 token",
          "lifetime_limit": "Deposit limit for a given ethereum address",
          "nonce": "Vega-assigned single-use number that provides replay attack protection",
          "signatures": "Vega-supplied signature bundle of a validator-signed order"
        }
      },
      "set_withdraw_delay(uint256,uint256,bytes)": {
        "params": {
          "delay": "Amount of time to delay a withdrawal",
          "nonce": "Vega-assigned single-use number that provides replay attack protection",
          "signatures": "Vega-supplied signature bundle of a validator-signed order"
        }
      },
      "set_withdraw_threshold(address,uint256,uint256,bytes)": {
        "details": "asset must first be listed",
        "params": {
          "asset_source": "Contract address for given ERC20 token",
          "nonce": "Vega-assigned single-use number that provides replay attack protection",
          "signatures": "Vega-supplied signature bundle of a validator-signed order",
          "threshold": "Withdraw size above which the withdraw delay goes into effect"
        }
      },
      "withdraw_asset(address,uint256,address,uint256,uint256,bytes)": {
        "details": "Emits Asset_Withdrawn if successful",
        "params": {
          "amount": "Amount of ERC20 tokens to withdraw",
          "asset_source": "Contract address for given ERC20 token",
          "creation": "Timestamp of when requestion was created *RESTRICTION FEATURE*",
          "nonce": "Vega-assigned single-use number that provides replay attack protection",
          "signatures": "Vega-supplied signature bundle of a validator-signed order",
          "target": "Target Ethereum address to receive withdrawn ERC20 tokens"
        }
      }
    },
    "title": "ERC20 Bridge Logic",
    "version": 1
  },
  "userdoc": {
    "kind": "user",
    "methods": {
      "deposit_asset(address,uint256,bytes32)": {
        "notice": "This function allows a user to deposit given ERC20 tokens into VegaERC20 approve function should be run before running this"
      },
      "exempt_depositor(address)": {
        "notice": "this function allows the exemption_lister to exempt a depositor from the deposit limitsthis feature is specifically for liquidity and rewards providers"
      },
      "get_asset_deposit_limit(address)": {
        "notice": "This view returns the lifetime deposit limit for the given asset"
      },
      "get_deposit_maximum(address)": {
        "notice": "This view returns maximum valid deposit"
      },
      "get_deposit_minimum(address)": {
        "notice": "This view returns minimum valid deposit"
      },
      "get_exemption_lister()": {
        "notice": "this view returns the address that can exempt depositors from deposit limits"
      },
      "get_withdraw_threshold(address)": {
        "notice": "This view returns the given token's withdraw threshold above which the withdraw delay goes into effect"
      },
      "global_resume(uint256,bytes)": {
        "notice": "This function resumes bridge operations from the stopped state"
      },
      "global_stop(uint256,bytes)": {
        "notice": "This function triggers the global bridge stop that halts all withdrawals and deposits until it is resumed"
      },
      "is_asset_listed(address)": {
        "notice": "This view returns true if the given ERC20 token contract has been listed valid for deposit"
      },
      "is_exempt_depositor(address)": {
        "notice": "this view returns true if the given despoitor address has been exempted from deposit limits"
      },
      "list_asset(address,bytes32,uint256,uint256,uint256,bytes)": {
        "notice": "This function lists the given ERC20 token contract as valid for deposit to this bridgeSee MultisigControl for more about signatures"
      },
      "remove_asset(address,uint256,bytes)": {
        "notice": "This function removes from listing the given ERC20 token contract. This marks the token as invalid for deposit to this bridgeSee MultisigControl for more about signatures"
      },
      "revoke_exempt_depositor(address)": {
        "notice": "this function allows the exemption_lister to revoke a depositor's exemption from deposit limitsthis feature is specifically for liquidity and rewards providers"
      },
      "set_deposit_maximum(address,uint256,uint256,bytes)": {
        "notice": "This function sets the maximum allowable deposit for the given ERC20 tokenSee MultisigControl for more about signatures"
      },
      "set_deposit_minimum(address,uint256,uint256,bytes)": {
        "notice": "This function sets the minimum allowable deposit for the given ERC20 tokenSee MultisigControl for more about signatures"
      },
      "set_exemption_lister(address,uint256,bytes)": {
        "notice": "this function allows MultisigControl to set the address that can exempt depositors from the deposit limitsthis feature is specifically for liquidity and rewards providers"
      },
      "set_lifetime_deposit_max(address,uint256,uint256,bytes)": {
        "notice": "This function sets the lifetime maximum deposit for a given asset"
      },
      "set_withdraw_delay(uint256,uint256,bytes)": {
        "notice": "This function sets the withdraw delay for withdrawals over the per-asset set thresholds"
      },
      "set_withdraw_threshold(address,uint256,uint256,bytes)": {
        "notice": "This function sets the withdraw threshold above which the withdraw delay goes into effect"
      },
      "withdraw_asset(address,uint256,address,uint256,uint256,bytes)": {
        "notice": "This function withdrawals assets to the target Ethereum addressSee MultisigControl for more about signatures"
      }
    },
    "notice": "This contract is used by Vega network users to deposit and withdraw ERC20 tokens to/from Vega.",
    "version": 1
  }
}