{
  "contractName": "ERC20_Bridge_Logic_Restricted",
  "abi": [
    {
      "inputs": [
        {
          "internalType": "address payable",
          "name": "erc20_asset_pool",
          "type": "address"
        }
      ],
      "stateMutability": "nonpayable",
      "type": "constructor"
    },
    {
      "anonymous": false,
      "inputs": [
        {
          "indexed": true,
          "internalType": "address",
          "name": "user_address",
          "type": "address"
        },
        {
          "indexed": true,
          "internalType": "address",
          "name": "asset_source",
          "type": "address"
        },
        {
          "indexed": false,
          "internalType": "uint256",
          "name": "amount",
          "type": "uint256"
        },
        {
          "indexed": false,
          "internalType": "bytes32",
          "name": "vega_public_key",
          "type": "bytes32"
        }
      ],
      "name": "Asset_Deposited",
      "type": "event"
    },
    {
      "anonymous": false,
      "inputs": [
        {
          "indexed": true,
          "internalType": "address",
          "name": "asset_source",
          "type": "address"
        },
        {
          "indexed": false,
          "internalType": "uint256",
          "name": "lifetime_limit",
          "type": "uint256"
        },
        {
          "indexed": false,
          "internalType": "uint256",
          "name": "withdraw_threshold",
          "type": "uint256"
        }
      ],
      "name": "Asset_Limits_Updated",
      "type": "event"
    },
    {
      "anonymous": false,
      "inputs": [
        {
          "indexed": true,
          "internalType": "address",
          "name": "asset_source",
          "type": "address"
        },
        {
          "indexed": true,
          "internalType": "bytes32",
          "name": "vega_asset_id",
          "type": "bytes32"
        },
        {
          "indexed": false,
          "internalType": "uint256",
          "name": "nonce",
          "type": "uint256"
        }
      ],
      "name": "Asset_Listed",
      "type": "event"
    },
    {
      "anonymous": false,
      "inputs": [
        {
          "indexed": true,
          "internalType": "address",
          "name": "asset_source",
          "type": "address"
        },
        {
          "indexed": false,
          "internalType": "uint256",
          "name": "nonce",
          "type": "uint256"
        }
      ],
      "name": "Asset_Removed",
      "type": "event"
    },
    {
      "anonymous": false,
      "inputs": [
        {
          "indexed": true,
          "internalType": "address",
          "name": "user_address",
          "type": "address"
        },
        {
          "indexed": true,
          "internalType": "address",
          "name": "asset_source",
          "type": "address"
        },
        {
          "indexed": false,
          "internalType": "uint256",
          "name": "amount",
          "type": "uint256"
        },
        {
          "indexed": false,
          "internalType": "uint256",
          "name": "nonce",
          "type": "uint256"
        }
      ],
      "name": "Asset_Withdrawn",
      "type": "event"
    },
    {
      "anonymous": false,
      "inputs": [],
      "name": "Bridge_Resumed",
      "type": "event"
    },
    {
      "anonymous": false,
      "inputs": [],
      "name": "Bridge_Stopped",
      "type": "event"
    },
    {
      "anonymous": false,
      "inputs": [
        {
          "indexed": false,
          "internalType": "uint256",
          "name": "withdraw_delay",
          "type": "uint256"
        }
      ],
      "name": "Bridge_Withdraw_Delay_Set",
      "type": "event"
    },
    {
      "anonymous": false,
      "inputs": [
        {
          "indexed": true,
          "internalType": "address",
          "name": "depositor",
          "type": "address"
        }
      ],
      "name": "Depositor_Exempted",
      "type": "event"
    },
    {
      "anonymous": false,
      "inputs": [
        {
          "indexed": true,
          "internalType": "address",
          "name": "depositor",
          "type": "address"
        }
      ],
      "name": "Depositor_Exemption_Revoked",
      "type": "event"
    },
    {
      "inputs": [],
      "name": "default_withdraw_delay",
      "outputs": [
        {
          "internalType": "uint256",
          "name": "",
          "type": "uint256"
        }
      ],
      "stateMutability": "view",
      "type": "function"
    },
    {
      "inputs": [],
      "name": "is_stopped",
      "outputs": [
        {
          "internalType": "bool",
          "name": "",
          "type": "bool"
        }
      ],
      "stateMutability": "view",
      "type": "function"
    },
    {
      "inputs": [
        {
          "internalType": "address",
          "name": "asset_source",
          "type": "address"
        },
        {
          "internalType": "bytes32",
          "name": "vega_asset_id",
          "type": "bytes32"
        },
        {
          "internalType": "uint256",
          "name": "lifetime_limit",
          "type": "uint256"
        },
        {
          "internalType": "uint256",
          "name": "withdraw_threshold",
          "type": "uint256"
        },
        {
          "internalType": "uint256",
          "name": "nonce",
          "type": "uint256"
        },
        {
          "internalType": "bytes",
          "name": "signatures",
          "type": "bytes"
        }
      ],
      "name": "list_asset",
      "outputs": [],
      "stateMutability": "nonpayable",
      "type": "function"
    },
    {
      "inputs": [
        {
          "internalType": "address",
          "name": "asset_source",
          "type": "address"
        },
        {
          "internalType": "uint256",
          "name": "nonce",
          "type": "uint256"
        },
        {
          "internalType": "bytes",
          "name": "signatures",
          "type": "bytes"
        }
      ],
      "name": "remove_asset",
      "outputs": [],
      "stateMutability": "nonpayable",
      "type": "function"
    },
    {
      "inputs": [
        {
          "internalType": "address",
          "name": "asset_source",
          "type": "address"
        },
        {
          "internalType": "uint256",
          "name": "lifetime_limit",
          "type": "uint256"
        },
        {
          "internalType": "uint256",
          "name": "threshold",
          "type": "uint256"
        },
        {
          "internalType": "uint256",
          "name": "nonce",
          "type": "uint256"
        },
        {
          "internalType": "bytes",
          "name": "signatures",
          "type": "bytes"
        }
      ],
      "name": "set_asset_limits",
      "outputs": [],
      "stateMutability": "nonpayable",
      "type": "function"
    },
    {
      "inputs": [
        {
          "internalType": "address",
          "name": "asset_source",
          "type": "address"
        }
      ],
      "name": "get_asset_deposit_lifetime_limit",
      "outputs": [
        {
          "internalType": "uint256",
          "name": "",
          "type": "uint256"
        }
      ],
      "stateMutability": "view",
      "type": "function"
    },
    {
      "inputs": [
        {
          "internalType": "address",
          "name": "asset_source",
          "type": "address"
        }
      ],
      "name": "get_withdraw_threshold",
      "outputs": [
        {
          "internalType": "uint256",
          "name": "",
          "type": "uint256"
        }
      ],
      "stateMutability": "view",
      "type": "function"
    },
    {
      "inputs": [
        {
          "internalType": "uint256",
          "name": "delay",
          "type": "uint256"
        },
        {
          "internalType": "uint256",
          "name": "nonce",
          "type": "uint256"
        },
        {
          "internalType": "bytes",
          "name": "signatures",
          "type": "bytes"
        }
      ],
      "name": "set_withdraw_delay",
      "outputs": [],
      "stateMutability": "nonpayable",
      "type": "function"
    },
    {
      "inputs": [
        {
          "internalType": "uint256",
          "name": "nonce",
          "type": "uint256"
        },
        {
          "internalType": "bytes",
          "name": "signatures",
          "type": "bytes"
        }
      ],
      "name": "global_stop",
      "outputs": [],
      "stateMutability": "nonpayable",
      "type": "function"
    },
    {
      "inputs": [
        {
          "internalType": "uint256",
          "name": "nonce",
          "type": "uint256"
        },
        {
          "internalType": "bytes",
          "name": "signatures",
          "type": "bytes"
        }
      ],
      "name": "global_resume",
      "outputs": [],
      "stateMutability": "nonpayable",
      "type": "function"
    },
    {
      "inputs": [],
      "name": "exempt_depositor",
      "outputs": [],
      "stateMutability": "nonpayable",
      "type": "function"
    },
    {
      "inputs": [],
      "name": "revoke_exempt_depositor",
      "outputs": [],
      "stateMutability": "nonpayable",
      "type": "function"
    },
    {
      "inputs": [
        {
          "internalType": "address",
          "name": "depositor",
          "type": "address"
        }
      ],
      "name": "is_exempt_depositor",
      "outputs": [
        {
          "internalType": "bool",
          "name": "",
          "type": "bool"
        }
      ],
      "stateMutability": "view",
      "type": "function"
    },
    {
      "inputs": [
        {
          "internalType": "address",
          "name": "asset_source",
          "type": "address"
        },
        {
          "internalType": "uint256",
          "name": "amount",
          "type": "uint256"
        },
        {
          "internalType": "address",
          "name": "target",
          "type": "address"
        },
        {
          "internalType": "uint256",
          "name": "creation",
          "type": "uint256"
        },
        {
          "internalType": "uint256",
          "name": "nonce",
          "type": "uint256"
        },
        {
          "internalType": "bytes",
          "name": "signatures",
          "type": "bytes"
        }
      ],
      "name": "withdraw_asset",
      "outputs": [],
      "stateMutability": "nonpayable",
      "type": "function"
    },
    {
      "inputs": [
        {
          "internalType": "address",
          "name": "asset_source",
          "type": "address"
        },
        {
          "internalType": "uint256",
          "name": "amount",
          "type": "uint256"
        },
        {
          "internalType": "bytes32",
          "name": "vega_public_key",
          "type": "bytes32"
        }
      ],
      "name": "deposit_asset",
      "outputs": [],
      "stateMutability": "nonpayable",
      "type": "function"
    },
    {
      "inputs": [
        {
          "internalType": "address",
          "name": "asset_source",
          "type": "address"
        }
      ],
      "name": "is_asset_listed",
      "outputs": [
        {
          "internalType": "bool",
          "name": "",
          "type": "bool"
        }
      ],
      "stateMutability": "view",
      "type": "function"
    },
    {
      "inputs": [],
      "name": "get_multisig_control_address",
      "outputs": [
        {
          "internalType": "address",
          "name": "",
          "type": "address"
        }
      ],
      "stateMutability": "view",
      "type": "function"
    },
    {
      "inputs": [
        {
          "internalType": "address",
          "name": "asset_source",
          "type": "address"
        }
      ],
      "name": "get_vega_asset_id",
      "outputs": [
        {
          "internalType": "bytes32",
          "name": "",
          "type": "bytes32"
        }
      ],
      "stateMutability": "view",
      "type": "function"
    },
    {
      "inputs": [
        {
          "internalType": "bytes32",
          "name": "vega_asset_id",
          "type": "bytes32"
        }
      ],
      "name": "get_asset_source",
      "outputs": [
        {
          "internalType": "address",
          "name": "",
          "type": "address"
        }
      ],
      "stateMutability": "view",
      "type": "function"
    }
  ],
  "bytecode": "0x6080604052620697806006553480156200001857600080fd5b50604051620030b1380380620030b183398181016040528101906200003e9190620000ef565b806000806101000a81548173ffffffffffffffffffffffffffffffffffffffff021916908373ffffffffffffffffffffffffffffffffffffffff1602179055505062000121565b600080fd5b600073ffffffffffffffffffffffffffffffffffffffff82169050919050565b6000620000b7826200008a565b9050919050565b620000c981620000aa565b8114620000d557600080fd5b50565b600081519050620000e981620000be565b92915050565b60006020828403121562000108576200010762000085565b5b60006200011884828501620000d8565b91505092915050565b612f8080620001316000396000f3fe608060405234801561001057600080fd5b50600436106101215760003560e01c80637fd27b7f116100ad578063c76de35811610071578063c76de358146102f2578063d72ed5291461030e578063e272e9d01461032a578063e8a7bce014610348578063f76839321461037857610121565b80637fd27b7f1461024e5780639dfd3c881461027e578063a06b5d391461029a578063b76fbb75146102ca578063c58dc3b9146102d457610121565b80633f4f199d116100f45780633f4f199d146101be57806341fb776d146101dc5780635a246728146101f85780636a1c6fa414610214578063786b0bc01461021e57610121565b80630ff3562c1461012657806315c0df9d14610142578063354a897a146101725780633ad90635146101a2575b600080fd5b610140600480360381019061013b9190611e19565b610394565b005b61015c60048036038101906101579190611ec2565b6106ef565b6040516101699190611f0a565b60405180910390f35b61018c60048036038101906101879190611ec2565b610745565b6040516101999190611f34565b60405180910390f35b6101bc60048036038101906101b79190611f4f565b61078e565b005b6101c6610a77565b6040516101d39190611f34565b60405180910390f35b6101f660048036038101906101f19190612058565b610a7d565b005b610212600480360381019061020d91906120f2565b610ceb565b005b61021c610e2d565b005b61023860048036038101906102339190612166565b610f56565b60405161024591906121a2565b60405180910390f35b61026860048036038101906102639190611ec2565b610f93565b6040516102759190611f0a565b60405180910390f35b610298600480360381019061029391906121bd565b610fe9565b005b6102b460048036038101906102af9190611ec2565b611181565b6040516102c1919061222c565b60405180910390f35b6102d26111ca565b005b6102dc6112f4565b6040516102e991906121a2565b60405180910390f35b61030c60048036038101906103079190612247565b611303565b005b610328600480360381019061032391906121bd565b611536565b005b6103326116cd565b60405161033f9190611f0a565b60405180910390f35b610362600480360381019061035d9190611ec2565b6116e0565b60405161036f9190611f34565b60405180910390f35b610392600480360381019061038d91906122b6565b611729565b005b600160008773ffffffffffffffffffffffffffffffffffffffff1673ffffffffffffffffffffffffffffffffffffffff16815260200190815260200160002060009054906101000a900460ff1615610421576040517f08c379a000000000000000000000000000000000000000000000000000000000815260040161041890612366565b60405180910390fd5b6000868686868660405160200161043c9594939291906123d2565b6040516020818303038152906040529050610455611b4f565b73ffffffffffffffffffffffffffffffffffffffff1663ba73659a8383866040518463ffffffff1660e01b8152600401610491939291906124c0565b602060405180830381600087803b1580156104ab57600080fd5b505af11580156104bf573d6000803e3d6000fd5b505050506040513d601f19601f820116820180604052508101906104e39190612531565b610522576040517f08c379a0000000000000000000000000000000000000000000000000000000008152600401610519906125aa565b60405180910390fd5b60018060008973ffffffffffffffffffffffffffffffffffffffff1673ffffffffffffffffffffffffffffffffffffffff16815260200190815260200160002060006101000a81548160ff021916908315150217905550866002600088815260200190815260200160002060006101000a81548173ffffffffffffffffffffffffffffffffffffffff021916908373ffffffffffffffffffffffffffffffffffffffff16021790555085600360008973ffffffffffffffffffffffffffffffffffffffff1673ffffffffffffffffffffffffffffffffffffffff1681526020019081526020016000208190555084600560008973ffffffffffffffffffffffffffffffffffffffff1673ffffffffffffffffffffffffffffffffffffffff1681526020019081526020016000208190555083600760008973ffffffffffffffffffffffffffffffffffffffff1673ffffffffffffffffffffffffffffffffffffffff16815260200190815260200160002081905550858773ffffffffffffffffffffffffffffffffffffffff167f4180d77d05ff0d31650c548c23f2de07a3da3ad42e3dd6edd817b438a150452e856040516106de9190611f34565b60405180910390a350505050505050565b6000600960008373ffffffffffffffffffffffffffffffffffffffff1673ffffffffffffffffffffffffffffffffffffffff16815260200190815260200160002060009054906101000a900460ff169050919050565b6000600560008373ffffffffffffffffffffffffffffffffffffffff1673ffffffffffffffffffffffffffffffffffffffff168152602001908152602001600020549050919050565b600860009054906101000a900460ff16156107de576040517f08c379a00000000000000000000000000000000000000000000000000000000081526004016107d590612616565b60405180910390fd5b84600760008873ffffffffffffffffffffffffffffffffffffffff1673ffffffffffffffffffffffffffffffffffffffff168152602001908152602001600020541180610838575042600654846108359190612665565b11155b610877576040517f08c379a000000000000000000000000000000000000000000000000000000000815260040161086e90612707565b60405180910390fd5b60008686868686604051602001610892959493929190612773565b60405160208183030381529060405290506108ab611b4f565b73ffffffffffffffffffffffffffffffffffffffff1663ba73659a8383866040518463ffffffff1660e01b81526004016108e7939291906124c0565b602060405180830381600087803b15801561090157600080fd5b505af1158015610915573d6000803e3d6000fd5b505050506040513d601f19601f820116820180604052508101906109399190612531565b610978576040517f08c379a000000000000000000000000000000000000000000000000000000000815260040161096f906125aa565b60405180910390fd5b60008054906101000a900473ffffffffffffffffffffffffffffffffffffffff1673ffffffffffffffffffffffffffffffffffffffff1663d9caed128887896040518463ffffffff1660e01b81526004016109d5939291906127d9565b600060405180830381600087803b1580156109ef57600080fd5b505af1158015610a03573d6000803e3d6000fd5b505050508673ffffffffffffffffffffffffffffffffffffffff168573ffffffffffffffffffffffffffffffffffffffff167fa79be4f3361e32d396d64c478ecef73732cb40b2a75702c3b3b3226a2c83b5df8886604051610a66929190612810565b60405180910390a350505050505050565b60065481565b600160008773ffffffffffffffffffffffffffffffffffffffff1673ffffffffffffffffffffffffffffffffffffffff16815260200190815260200160002060009054906101000a900460ff16610b09576040517f08c379a0000000000000000000000000000000000000000000000000000000008152600401610b0090612885565b60405180910390fd5b600086868686604051602001610b2294939291906128f1565b6040516020818303038152906040529050610b3b611b4f565b73ffffffffffffffffffffffffffffffffffffffff1663ba73659a848484886040518563ffffffff1660e01b8152600401610b799493929190612976565b602060405180830381600087803b158015610b9357600080fd5b505af1158015610ba7573d6000803e3d6000fd5b505050506040513d601f19601f82011682018060405250810190610bcb9190612531565b610c0a576040517f08c379a0000000000000000000000000000000000000000000000000000000008152600401610c01906125aa565b60405180910390fd5b85600560008973ffffffffffffffffffffffffffffffffffffffff1673ffffffffffffffffffffffffffffffffffffffff1681526020019081526020016000208190555084600760008973ffffffffffffffffffffffffffffffffffffffff1673ffffffffffffffffffffffffffffffffffffffff168152602001908152602001600020819055508673ffffffffffffffffffffffffffffffffffffffff167ffc7eab762b8751ad85c101fd1025c763b4e8d48f2093f506629b606618e884fe8787604051610cda929190612810565b60405180910390a250505050505050565b60008484604051602001610d00929190612a09565b6040516020818303038152906040529050610d19611b4f565b73ffffffffffffffffffffffffffffffffffffffff1663ba73659a848484886040518563ffffffff1660e01b8152600401610d579493929190612976565b602060405180830381600087803b158015610d7157600080fd5b505af1158015610d85573d6000803e3d6000fd5b505050506040513d601f19601f82011682018060405250810190610da99190612531565b610de8576040517f08c379a0000000000000000000000000000000000000000000000000000000008152600401610ddf906125aa565b60405180910390fd5b846006819055507f1c7e8f73a01b8af4e18dd34455a42a45ad742bdb79cfda77bbdf50db2391fc8885604051610e1e9190611f34565b60405180910390a15050505050565b600960003373ffffffffffffffffffffffffffffffffffffffff1673ffffffffffffffffffffffffffffffffffffffff16815260200190815260200160002060009054906101000a900460ff16610eb9576040517f08c379a0000000000000000000000000000000000000000000000000000000008152600401610eb090612a91565b60405180910390fd5b6000600960003373ffffffffffffffffffffffffffffffffffffffff1673ffffffffffffffffffffffffffffffffffffffff16815260200190815260200160002060006101000a81548160ff0219169083151502179055503373ffffffffffffffffffffffffffffffffffffffff167fe74b113dca87276d976f476a9b4b9da3c780a3262eaabad051ee4e98912936a460405160405180910390a2565b60006002600083815260200190815260200160002060009054906101000a900473ffffffffffffffffffffffffffffffffffffffff169050919050565b6000600160008373ffffffffffffffffffffffffffffffffffffffff1673ffffffffffffffffffffffffffffffffffffffff16815260200190815260200160002060009054906101000a900460ff169050919050565b600860009054906101000a900460ff1615611039576040517f08c379a000000000000000000000000000000000000000000000000000000000815260040161103090612afd565b60405180910390fd5b60008360405160200161104c9190612b69565b6040516020818303038152906040529050611065611b4f565b73ffffffffffffffffffffffffffffffffffffffff1663ba73659a848484886040518563ffffffff1660e01b81526004016110a39493929190612976565b602060405180830381600087803b1580156110bd57600080fd5b505af11580156110d1573d6000803e3d6000fd5b505050506040513d601f19601f820116820180604052508101906110f59190612531565b611134576040517f08c379a000000000000000000000000000000000000000000000000000000000815260040161112b906125aa565b60405180910390fd5b6001600860006101000a81548160ff0219169083151502179055507f129d99581c8e70519df1f0733d3212f33d0ed3ea6144adacc336c647f1d3638260405160405180910390a150505050565b6000600360008373ffffffffffffffffffffffffffffffffffffffff1673ffffffffffffffffffffffffffffffffffffffff168152602001908152602001600020549050919050565b600960003373ffffffffffffffffffffffffffffffffffffffff1673ffffffffffffffffffffffffffffffffffffffff16815260200190815260200160002060009054906101000a900460ff1615611257576040517f08c379a000000000000000000000000000000000000000000000000000000000815260040161124e90612be3565b60405180910390fd5b6001600960003373ffffffffffffffffffffffffffffffffffffffff1673ffffffffffffffffffffffffffffffffffffffff16815260200190815260200160002060006101000a81548160ff0219169083151502179055503373ffffffffffffffffffffffffffffffffffffffff167ff56e0868b913034a60dbca9c89ee79f8b0fa18dadbc5f6665f2f9a2cf3f51cdb60405160405180910390a2565b60006112fe611b4f565b905090565b600160008473ffffffffffffffffffffffffffffffffffffffff1673ffffffffffffffffffffffffffffffffffffffff16815260200190815260200160002060009054906101000a900460ff1661138f576040517f08c379a000000000000000000000000000000000000000000000000000000000815260040161138690612885565b60405180910390fd5b600083836040516020016113a4929190612c4f565b60405160208183030381529060405290506113bd611b4f565b73ffffffffffffffffffffffffffffffffffffffff1663ba73659a8383866040518463ffffffff1660e01b81526004016113f9939291906124c0565b602060405180830381600087803b15801561141357600080fd5b505af1158015611427573d6000803e3d6000fd5b505050506040513d601f19601f8201168201806040525081019061144b9190612531565b61148a576040517f08c379a0000000000000000000000000000000000000000000000000000000008152600401611481906125aa565b60405180910390fd5b6000600160008673ffffffffffffffffffffffffffffffffffffffff1673ffffffffffffffffffffffffffffffffffffffff16815260200190815260200160002060006101000a81548160ff0219169083151502179055508373ffffffffffffffffffffffffffffffffffffffff167f58ad5e799e2df93ab408be0e5c1870d44c80b5bca99dfaf7ddf0dab5e6b155c9846040516115289190611f34565b60405180910390a250505050565b600860009054906101000a900460ff16611585576040517f08c379a000000000000000000000000000000000000000000000000000000000815260040161157c90612cd7565b60405180910390fd5b6000836040516020016115989190612d43565b60405160208183030381529060405290506115b1611b4f565b73ffffffffffffffffffffffffffffffffffffffff1663ba73659a848484886040518563ffffffff1660e01b81526004016115ef9493929190612976565b602060405180830381600087803b15801561160957600080fd5b505af115801561161d573d6000803e3d6000fd5b505050506040513d601f19601f820116820180604052508101906116419190612531565b611680576040517f08c379a0000000000000000000000000000000000000000000000000000000008152600401611677906125aa565b60405180910390fd5b6000600860006101000a81548160ff0219169083151502179055507f79c02b0e60e0f00fe0370791204f2f175fe3f06f4816f3506ad4fa1b8e8cde0f60405160405180910390a150505050565b600860009054906101000a900460ff1681565b6000600760008373ffffffffffffffffffffffffffffffffffffffff1673ffffffffffffffffffffffffffffffffffffffff168152602001908152602001600020549050919050565b600860009054906101000a900460ff1615611779576040517f08c379a000000000000000000000000000000000000000000000000000000000815260040161177090612616565b60405180910390fd5b600960003373ffffffffffffffffffffffffffffffffffffffff1673ffffffffffffffffffffffffffffffffffffffff16815260200190815260200160002060009054906101000a900460ff16806118975750600560008473ffffffffffffffffffffffffffffffffffffffff1673ffffffffffffffffffffffffffffffffffffffff1681526020019081526020016000205482600460003373ffffffffffffffffffffffffffffffffffffffff1673ffffffffffffffffffffffffffffffffffffffff16815260200190815260200160002060008673ffffffffffffffffffffffffffffffffffffffff1673ffffffffffffffffffffffffffffffffffffffff168152602001908152602001600020546118949190612665565b11155b6118d6576040517f08c379a00000000000000000000000000000000000000000000000000000000081526004016118cd90612dbd565b60405180910390fd5b600160008473ffffffffffffffffffffffffffffffffffffffff1673ffffffffffffffffffffffffffffffffffffffff16815260200190815260200160002060009054906101000a900460ff16611962576040517f08c379a000000000000000000000000000000000000000000000000000000000815260040161195990612885565b60405180910390fd5b8273ffffffffffffffffffffffffffffffffffffffff166323b872dd3360008054906101000a900473ffffffffffffffffffffffffffffffffffffffff16856040518463ffffffff1660e01b81526004016119bf93929190612e3c565b602060405180830381600087803b1580156119d957600080fd5b505af11580156119ed573d6000803e3d6000fd5b505050506040513d601f19601f82011682018060405250810190611a119190612531565b611a50576040517f08c379a0000000000000000000000000000000000000000000000000000000008152600401611a4790612ebf565b60405180910390fd5b81600460003373ffffffffffffffffffffffffffffffffffffffff1673ffffffffffffffffffffffffffffffffffffffff16815260200190815260200160002060008573ffffffffffffffffffffffffffffffffffffffff1673ffffffffffffffffffffffffffffffffffffffff1681526020019081526020016000206000828254611adc9190612665565b925050819055508273ffffffffffffffffffffffffffffffffffffffff163373ffffffffffffffffffffffffffffffffffffffff167f3724ff5e82ddc640a08d68b0b782a5991aea0de51a8dd10a59cdbe5b3ec4e6bf8484604051611b42929190612edf565b60405180910390a3505050565b60008060009054906101000a900473ffffffffffffffffffffffffffffffffffffffff1673ffffffffffffffffffffffffffffffffffffffff1663b82d5abd6040518163ffffffff1660e01b815260040160206040518083038186803b158015611bb857600080fd5b505afa158015611bcc573d6000803e3d6000fd5b505050506040513d601f19601f82011682018060405250810190611bf09190612f1d565b905090565b6000604051905090565b600080fd5b600080fd5b600073ffffffffffffffffffffffffffffffffffffffff82169050919050565b6000611c3482611c09565b9050919050565b611c4481611c29565b8114611c4f57600080fd5b50565b600081359050611c6181611c3b565b92915050565b6000819050919050565b611c7a81611c67565b8114611c8557600080fd5b50565b600081359050611c9781611c71565b92915050565b6000819050919050565b611cb081611c9d565b8114611cbb57600080fd5b50565b600081359050611ccd81611ca7565b92915050565b600080fd5b600080fd5b6000601f19601f8301169050919050565b7f4e487b7100000000000000000000000000000000000000000000000000000000600052604160045260246000fd5b611d2682611cdd565b810181811067ffffffffffffffff82111715611d4557611d44611cee565b5b80604052505050565b6000611d58611bf5565b9050611d648282611d1d565b919050565b600067ffffffffffffffff821115611d8457611d83611cee565b5b611d8d82611cdd565b9050602081019050919050565b82818337600083830152505050565b6000611dbc611db784611d69565b611d4e565b905082815260208101848484011115611dd857611dd7611cd8565b5b611de3848285611d9a565b509392505050565b600082601f830112611e0057611dff611cd3565b5b8135611e10848260208601611da9565b91505092915050565b60008060008060008060c08789031215611e3657611e35611bff565b5b6000611e4489828a01611c52565b9650506020611e5589828a01611c88565b9550506040611e6689828a01611cbe565b9450506060611e7789828a01611cbe565b9350506080611e8889828a01611cbe565b92505060a087013567ffffffffffffffff811115611ea957611ea8611c04565b5b611eb589828a01611deb565b9150509295509295509295565b600060208284031215611ed857611ed7611bff565b5b6000611ee684828501611c52565b91505092915050565b60008115159050919050565b611f0481611eef565b82525050565b6000602082019050611f1f6000830184611efb565b92915050565b611f2e81611c9d565b82525050565b6000602082019050611f496000830184611f25565b92915050565b60008060008060008060c08789031215611f6c57611f6b611bff565b5b6000611f7a89828a01611c52565b9650506020611f8b89828a01611cbe565b9550506040611f9c89828a01611c52565b9450506060611fad89828a01611cbe565b9350506080611fbe89828a01611cbe565b92505060a087013567ffffffffffffffff811115611fdf57611fde611c04565b5b611feb89828a01611deb565b9150509295509295509295565b600080fd5b600080fd5b60008083601f84011261201857612017611cd3565b5b8235905067ffffffffffffffff81111561203557612034611ff8565b5b60208301915083600182028301111561205157612050611ffd565b5b9250929050565b60008060008060008060a0878903121561207557612074611bff565b5b600061208389828a01611c52565b965050602061209489828a01611cbe565b95505060406120a589828a01611cbe565b94505060606120b689828a01611cbe565b935050608087013567ffffffffffffffff8111156120d7576120d6611c04565b5b6120e389828a01612002565b92509250509295509295509295565b6000806000806060858703121561210c5761210b611bff565b5b600061211a87828801611cbe565b945050602061212b87828801611cbe565b935050604085013567ffffffffffffffff81111561214c5761214b611c04565b5b61215887828801612002565b925092505092959194509250565b60006020828403121561217c5761217b611bff565b5b600061218a84828501611c88565b91505092915050565b61219c81611c29565b82525050565b60006020820190506121b76000830184612193565b92915050565b6000806000604084860312156121d6576121d5611bff565b5b60006121e486828701611cbe565b935050602084013567ffffffffffffffff81111561220557612204611c04565b5b61221186828701612002565b92509250509250925092565b61222681611c67565b82525050565b6000602082019050612241600083018461221d565b92915050565b6000806000606084860312156122605761225f611bff565b5b600061226e86828701611c52565b935050602061227f86828701611cbe565b925050604084013567ffffffffffffffff8111156122a05761229f611c04565b5b6122ac86828701611deb565b9150509250925092565b6000806000606084860312156122cf576122ce611bff565b5b60006122dd86828701611c52565b93505060206122ee86828701611cbe565b92505060406122ff86828701611c88565b9150509250925092565b600082825260208201905092915050565b7f617373657420616c7265616479206c6973746564000000000000000000000000600082015250565b6000612350601483612309565b915061235b8261231a565b602082019050919050565b6000602082019050818103600083015261237f81612343565b9050919050565b7f6c6973745f617373657400000000000000000000000000000000000000000000600082015250565b60006123bc600a83612309565b91506123c782612386565b602082019050919050565b600060c0820190506123e76000830188612193565b6123f4602083018761221d565b6124016040830186611f25565b61240e6060830185611f25565b61241b6080830184611f25565b81810360a083015261242c816123af565b90509695505050505050565b600081519050919050565b600082825260208201905092915050565b60005b83811015612472578082015181840152602081019050612457565b83811115612481576000848401525b50505050565b600061249282612438565b61249c8185612443565b93506124ac818560208601612454565b6124b581611cdd565b840191505092915050565b600060608201905081810360008301526124da8186612487565b905081810360208301526124ee8185612487565b90506124fd6040830184611f25565b949350505050565b61250e81611eef565b811461251957600080fd5b50565b60008151905061252b81612505565b92915050565b60006020828403121561254757612546611bff565b5b60006125558482850161251c565b91505092915050565b7f626164207369676e617475726573000000000000000000000000000000000000600082015250565b6000612594600e83612309565b915061259f8261255e565b602082019050919050565b600060208201905081810360008301526125c381612587565b9050919050565b7f6272696467652073746f70706564000000000000000000000000000000000000600082015250565b6000612600600e83612309565b915061260b826125ca565b602082019050919050565b6000602082019050818103600083015261262f816125f3565b9050919050565b7f4e487b7100000000000000000000000000000000000000000000000000000000600052601160045260246000fd5b600061267082611c9d565b915061267b83611c9d565b9250827fffffffffffffffffffffffffffffffffffffffffffffffffffffffffffffffff038211156126b0576126af612636565b5b828201905092915050565b7f6c61726765207769746864726177206973206e6f74206f6c6420656e6f756768600082015250565b60006126f1602083612309565b91506126fc826126bb565b602082019050919050565b60006020820190508181036000830152612720816126e4565b9050919050565b7f77697468647261775f6173736574000000000000000000000000000000000000600082015250565b600061275d600e83612309565b915061276882612727565b602082019050919050565b600060c0820190506127886000830188612193565b6127956020830187611f25565b6127a26040830186612193565b6127af6060830185611f25565b6127bc6080830184611f25565b81810360a08301526127cd81612750565b90509695505050505050565b60006060820190506127ee6000830186612193565b6127fb6020830185612193565b6128086040830184611f25565b949350505050565b60006040820190506128256000830185611f25565b6128326020830184611f25565b9392505050565b7f6173736574206e6f74206c697374656400000000000000000000000000000000600082015250565b600061286f601083612309565b915061287a82612839565b602082019050919050565b6000602082019050818103600083015261289e81612862565b9050919050565b7f7365745f61737365745f6c696d69747300000000000000000000000000000000600082015250565b60006128db601083612309565b91506128e6826128a5565b602082019050919050565b600060a0820190506129066000830187612193565b6129136020830186611f25565b6129206040830185611f25565b61292d6060830184611f25565b818103608083015261293e816128ce565b905095945050505050565b60006129558385612443565b9350612962838584611d9a565b61296b83611cdd565b840190509392505050565b60006060820190508181036000830152612991818688612949565b905081810360208301526129a58185612487565b90506129b46040830184611f25565b95945050505050565b7f7365745f77697468647261775f64656c61790000000000000000000000000000600082015250565b60006129f3601283612309565b91506129fe826129bd565b602082019050919050565b6000606082019050612a1e6000830185611f25565b612a2b6020830184611f25565b8181036040830152612a3c816129e6565b90509392505050565b7f73656e646572206e6f74206578656d7074000000000000000000000000000000600082015250565b6000612a7b601183612309565b9150612a8682612a45565b602082019050919050565b60006020820190508181036000830152612aaa81612a6e565b9050919050565b7f62726964676520616c72656164792073746f7070656400000000000000000000600082015250565b6000612ae7601683612309565b9150612af282612ab1565b602082019050919050565b60006020820190508181036000830152612b1681612ada565b9050919050565b7f676c6f62616c5f73746f70000000000000000000000000000000000000000000600082015250565b6000612b53600b83612309565b9150612b5e82612b1d565b602082019050919050565b6000604082019050612b7e6000830184611f25565b8181036020830152612b8f81612b46565b905092915050565b7f73656e64657220616c7265616479206578656d70740000000000000000000000600082015250565b6000612bcd601583612309565b9150612bd882612b97565b602082019050919050565b60006020820190508181036000830152612bfc81612bc0565b9050919050565b7f72656d6f76655f61737365740000000000000000000000000000000000000000600082015250565b6000612c39600c83612309565b9150612c4482612c03565b602082019050919050565b6000606082019050612c646000830185612193565b612c716020830184611f25565b8181036040830152612c8281612c2c565b90509392505050565b7f627269646765206e6f742073746f707065640000000000000000000000000000600082015250565b6000612cc1601283612309565b9150612ccc82612c8b565b602082019050919050565b60006020820190508181036000830152612cf081612cb4565b9050919050565b7f676c6f62616c5f726573756d6500000000000000000000000000000000000000600082015250565b6000612d2d600d83612309565b9150612d3882612cf7565b602082019050919050565b6000604082019050612d586000830184611f25565b8181036020830152612d6981612d20565b905092915050565b7f6465706f736974206f766572206c69666574696d65206c696d69740000000000600082015250565b6000612da7601b83612309565b9150612db282612d71565b602082019050919050565b60006020820190508181036000830152612dd681612d9a565b9050919050565b6000819050919050565b6000612e02612dfd612df884611c09565b612ddd565b611c09565b9050919050565b6000612e1482612de7565b9050919050565b6000612e2682612e09565b9050919050565b612e3681612e1b565b82525050565b6000606082019050612e516000830186612193565b612e5e6020830185612e2d565b612e6b6040830184611f25565b949350505050565b7f7472616e73666572206661696c656420696e206465706f736974000000000000600082015250565b6000612ea9601a83612309565b9150612eb482612e73565b602082019050919050565b60006020820190508181036000830152612ed881612e9c565b9050919050565b6000604082019050612ef46000830185611f25565b612f01602083018461221d565b9392505050565b600081519050612f1781611c3b565b92915050565b600060208284031215612f3357612f32611bff565b5b6000612f4184828501612f08565b9150509291505056fea26469706673582212200d0abfec375f99fd7ae8f658be156214bd233deb722a38fd4261b0d8f1b1882a64736f6c63430008080033",
  "immutableReferences": {},
  "source": "//SPDX-License-Identifier: MIT\npragma solidity 0.8.8;\n\nimport \"./IERC20.sol\";\nimport \"./IERC20_Bridge_Logic_Restricted.sol\";\nimport \"./IMultisigControl.sol\";\nimport \"./ERC20_Asset_Pool.sol\";\n\n/// @title ERC20 Bridge Logic\n/// @author Vega Protocol\n/// @notice This contract is used by Vega network users to deposit and withdraw ERC20 tokens to/from Vega.\n// @notice All funds deposited/withdrawn are to/from the assigned ERC20_Asset_Pool\ncontract ERC20_Bridge_Logic_Restricted is IERC20_Bridge_Logic_Restricted {\n\n    address payable erc20_asset_pool_address;\n    // asset address => is listed\n    mapping(address => bool) listed_tokens;\n    // Vega asset ID => asset_source\n    mapping(bytes32 => address) vega_asset_ids_to_source;\n    // asset_source => Vega asset ID\n    mapping(address => bytes32) asset_source_to_vega_asset_id;\n\n    /// @param erc20_asset_pool Initial Asset Pool contract address\n    constructor(address payable erc20_asset_pool) {\n        erc20_asset_pool_address = erc20_asset_pool;\n    }\n\n    function multisig_control_address() internal view returns(address) {\n      return ERC20_Asset_Pool(erc20_asset_pool_address).multisig_control_address();\n    }\n\n\n    /***************************FUNCTIONS*************************/\n    /// @notice This function lists the given ERC20 token contract as valid for deposit to this bridge\n    /// @param asset_source Contract address for given ERC20 token\n    /// @param vega_asset_id Vega-generated asset ID for internal use in Vega Core\n    /// @param lifetime_limit Initial lifetime deposit limit *RESTRICTION FEATURE*\n    /// @param withdraw_threshold Amount at which the withdraw delay goes into effect *RESTRICTION FEATURE*\n    /// @param nonce Vega-assigned single-use number that provides replay attack protection\n    /// @param signatures Vega-supplied signature bundle of a validator-signed order\n    /// @notice See MultisigControl for more about signatures\n    /// @dev Emits Asset_Listed if successful\n    function list_asset(address asset_source, bytes32 vega_asset_id, uint256 lifetime_limit, uint256 withdraw_threshold, uint256 nonce, bytes memory signatures) public override {\n        require(!listed_tokens[asset_source], \"asset already listed\");\n        bytes memory message = abi.encode(asset_source, vega_asset_id, lifetime_limit, withdraw_threshold, nonce, 'list_asset');\n        require(IMultisigControl(multisig_control_address()).verify_signatures(signatures, message, nonce), \"bad signatures\");\n        listed_tokens[asset_source] = true;\n        vega_asset_ids_to_source[vega_asset_id] = asset_source;\n        asset_source_to_vega_asset_id[asset_source] = vega_asset_id;\n        asset_deposit_lifetime_limit[asset_source] = lifetime_limit;\n        withdraw_thresholds[asset_source] = withdraw_threshold;\n        emit Asset_Listed(asset_source, vega_asset_id, nonce);\n    }\n\n    /// @notice This function removes from listing the given ERC20 token contract. This marks the token as invalid for deposit to this bridge\n    /// @param asset_source Contract address for given ERC20 token\n    /// @param nonce Vega-assigned single-use number that provides replay attack protection\n    /// @param signatures Vega-supplied signature bundle of a validator-signed order\n    /// @notice See MultisigControl for more about signatures\n    /// @dev Emits Asset_Removed if successful\n    function remove_asset(address asset_source, uint256 nonce, bytes memory signatures) public override {\n        require(listed_tokens[asset_source], \"asset not listed\");\n        bytes memory message = abi.encode(asset_source, nonce, 'remove_asset');\n        require(IMultisigControl(multisig_control_address()).verify_signatures(signatures, message, nonce), \"bad signatures\");\n        listed_tokens[asset_source] = false;\n        emit Asset_Removed(asset_source, nonce);\n    }\n\n\n    /************************RESTRICTIONS***************************/\n    // user => asset_source => deposit total\n    mapping(address => mapping(address => uint256)) user_lifetime_deposits;\n    // asset_source => deposit_limit\n    mapping(address => uint256) asset_deposit_lifetime_limit;\n    uint256 public default_withdraw_delay = 432000;\n    // asset_source => threshold\n    mapping(address => uint256) withdraw_thresholds;\n    bool public is_stopped;\n\n    // depositor => is exempt from deposit limits\n    mapping(address => bool) exempt_depositors;\n\n\n    /// @notice This function sets the lifetime maximum deposit for a given asset\n    /// @param asset_source Contract address for given ERC20 token\n    /// @param lifetime_limit Deposit limit for a given ethereum address\n    /// @param threshold Withdraw size above which the withdraw delay goes into effect\n    /// @param nonce Vega-assigned single-use number that provides replay attack protection\n    /// @param signatures Vega-supplied signature bundle of a validator-signed order\n    /// @dev asset must first be listed\n    function set_asset_limits(address asset_source, uint256 lifetime_limit, uint256 threshold, uint256 nonce, bytes calldata signatures) public override {\n      require(listed_tokens[asset_source], \"asset not listed\");\n      bytes memory message = abi.encode(asset_source, lifetime_limit, threshold, nonce, 'set_asset_limits');\n      require(IMultisigControl(multisig_control_address()).verify_signatures(signatures, message, nonce), \"bad signatures\");\n      asset_deposit_lifetime_limit[asset_source] = lifetime_limit;\n      withdraw_thresholds[asset_source] = threshold;\n      \n      emit Asset_Limits_Updated(asset_source, lifetime_limit, threshold);\n    }\n\n    /// @notice This view returns the lifetime deposit limit for the given asset\n    /// @param asset_source Contract address for given ERC20 token\n    /// @return Lifetime limit for the given asset\n    function get_asset_deposit_lifetime_limit(address asset_source) public override view returns(uint256) {\n      return asset_deposit_lifetime_limit[asset_source];\n    }\n\n    /// @notice This view returns the given token's withdraw threshold above which the withdraw delay goes into effect\n    /// @param asset_source Contract address for given ERC20 token\n    /// @return Withdraw threshold\n    function get_withdraw_threshold(address asset_source) public override view returns(uint256) {\n      return withdraw_thresholds[asset_source];\n    }\n\n\n    /// @notice This function sets the withdraw delay for withdrawals over the per-asset set thresholds\n    /// @param delay Amount of time to delay a withdrawal\n    /// @param nonce Vega-assigned single-use number that provides replay attack protection\n    /// @param signatures Vega-supplied signature bundle of a validator-signed order\n    function set_withdraw_delay(uint256 delay, uint256 nonce, bytes calldata signatures) public override {\n      bytes memory message = abi.encode(delay, nonce, 'set_withdraw_delay');\n      require(IMultisigControl(multisig_control_address()).verify_signatures(signatures, message, nonce), \"bad signatures\");\n      default_withdraw_delay = delay;\n      emit Bridge_Withdraw_Delay_Set(delay);\n    }\n\n    /// @notice This function triggers the global bridge stop that halts all withdrawals and deposits until it is resumed\n    /// @param nonce Vega-assigned single-use number that provides replay attack protection\n    /// @param signatures Vega-supplied signature bundle of a validator-signed order\n    /// @dev bridge must not be stopped already\n    /// @dev emits Bridge_Stopped if successful\n    function global_stop(uint256 nonce, bytes calldata signatures) public override {\n      require(!is_stopped, \"bridge already stopped\");\n      bytes memory message = abi.encode(nonce, 'global_stop');\n      require(IMultisigControl(multisig_control_address()).verify_signatures(signatures, message, nonce), \"bad signatures\");\n      is_stopped = true;\n      emit Bridge_Stopped();\n    }\n\n    /// @notice This function resumes bridge operations from the stopped state\n    /// @param nonce Vega-assigned single-use number that provides replay attack protection\n    /// @param signatures Vega-supplied signature bundle of a validator-signed order\n    /// @dev bridge must be stopped\n    /// @dev emits Bridge_Resumed if successful\n    function global_resume(uint256 nonce, bytes calldata signatures) public override {\n      require(is_stopped, \"bridge not stopped\");\n      bytes memory message = abi.encode(nonce, 'global_resume');\n      require(IMultisigControl(multisig_control_address()).verify_signatures(signatures, message, nonce), \"bad signatures\");\n      is_stopped = false;\n      emit Bridge_Resumed();\n    }\n\n    /// @notice this function allows the sender to exempt themselves from the deposit limits\n    /// @notice this feature is specifically for liquidity and rewards providers\n    /// @dev emits Depositor_Exempted if successful\n    function exempt_depositor() public override {\n      require(!exempt_depositors[msg.sender], \"sender already exempt\");\n      exempt_depositors[msg.sender] = true;\n      emit Depositor_Exempted(msg.sender);\n    }\n\n    /// @notice this function allows the exemption_lister to revoke a depositor's exemption from deposit limits\n    /// @notice this feature is specifically for liquidity and rewards providers\n    /// @dev emits Depositor_Exemption_Revoked if successful\n    function revoke_exempt_depositor() public override {\n      require(exempt_depositors[msg.sender], \"sender not exempt\");\n      exempt_depositors[msg.sender] = false;\n      emit Depositor_Exemption_Revoked(msg.sender);\n    }\n\n    /// @notice this view returns true if the given despoitor address has been exempted from deposit limits\n    /// @param depositor The depositor to check\n    /// @return true if depositor is exempt\n    function is_exempt_depositor(address depositor) public override view returns(bool) {\n      return exempt_depositors[depositor];\n    }\n    /***********************END RESTRICTIONS*************************/\n\n    /// @notice This function withdrawals assets to the target Ethereum address\n    /// @param asset_source Contract address for given ERC20 token\n    /// @param amount Amount of ERC20 tokens to withdraw\n    /// @param target Target Ethereum address to receive withdrawn ERC20 tokens\n    /// @param creation Timestamp of when requestion was created *RESTRICTION FEATURE*\n    /// @param nonce Vega-assigned single-use number that provides replay attack protection\n    /// @param signatures Vega-supplied signature bundle of a validator-signed order\n    /// @notice See MultisigControl for more about signatures\n    /// @dev Emits Asset_Withdrawn if successful\n    function withdraw_asset(address asset_source, uint256 amount, address target, uint256 creation, uint256 nonce, bytes memory signatures) public override{\n        require(!is_stopped, \"bridge stopped\");\n        require(withdraw_thresholds[asset_source] > amount || creation + default_withdraw_delay <= block.timestamp, \"large withdraw is not old enough\");\n        bytes memory message = abi.encode(asset_source, amount, target, creation,  nonce, 'withdraw_asset');\n        require(IMultisigControl(multisig_control_address()).verify_signatures(signatures, message, nonce), \"bad signatures\");\n        ERC20_Asset_Pool(erc20_asset_pool_address).withdraw(asset_source, target, amount);\n        emit Asset_Withdrawn(target, asset_source, amount, nonce);\n    }\n\n\n    /// @notice This function allows a user to deposit given ERC20 tokens into Vega\n    /// @param asset_source Contract address for given ERC20 token\n    /// @param amount Amount of tokens to be deposited into Vega\n    /// @param vega_public_key Target Vega public key to be credited with this deposit\n    /// @dev emits Asset_Deposited if successful\n    /// @dev ERC20 approve function should be run before running this\n    /// @notice ERC20 approve function should be run before running this\n    function deposit_asset(address asset_source, uint256 amount, bytes32 vega_public_key) public override {\n        require(!is_stopped, \"bridge stopped\");\n        require(exempt_depositors[msg.sender] || user_lifetime_deposits[msg.sender][asset_source] + amount <= asset_deposit_lifetime_limit[asset_source], \"deposit over lifetime limit\");\n        require(listed_tokens[asset_source], \"asset not listed\");\n        //User must run approve before deposit\n        require(IERC20(asset_source).transferFrom(msg.sender, erc20_asset_pool_address, amount), \"transfer failed in deposit\");\n        user_lifetime_deposits[msg.sender][asset_source] += amount;\n        emit Asset_Deposited(msg.sender, asset_source, amount, vega_public_key);\n    }\n\n    /***************************VIEWS*****************************/\n    /// @notice This view returns true if the given ERC20 token contract has been listed valid for deposit\n    /// @param asset_source Contract address for given ERC20 token\n    /// @return True if asset is listed\n    function is_asset_listed(address asset_source) public override view returns(bool){\n        return listed_tokens[asset_source];\n    }\n\n    /// @return current multisig_control_address\n    function get_multisig_control_address() public override view returns(address) {\n        return multisig_control_address();\n    }\n\n    /// @param asset_source Contract address for given ERC20 token\n    /// @return The assigned Vega Asset Id for given ERC20 token\n    function get_vega_asset_id(address asset_source) public override view returns(bytes32){\n        return asset_source_to_vega_asset_id[asset_source];\n    }\n\n    /// @param vega_asset_id Vega-assigned asset ID for which you want the ERC20 token address\n    /// @return The ERC20 token contract address for a given Vega Asset Id\n    function get_asset_source(bytes32 vega_asset_id) public override view returns(address){\n        return vega_asset_ids_to_source[vega_asset_id];\n    }\n}\n\n/**\nMMMMMMMMMMMMMMMMMMMMMMMMMMMMMMMMMMMMMMMMMMMMMMMMMMMMMMMMMMMM\nMMMMMMMMMMMMMMMMMMMMMMMMMMMMMMMMMMMMMMMMMMMMMMMMMMMMMMMMMMMM\nMMMMWEMMMMMMMMMMMMMMMMMMMMMMMMMM...............MMMMMMMMMMMMM\nMMMMMMLOVEMMMMMMMMMMMMMMMMMMMMMM...............MMMMMMMMMMMMM\nMMMMMMMMMMHIXELMMMMMMMMMMMM....................MMMMMNNMMMMMM\nMMMMMMMMMMMMMMMMMMMMMMMMMMM....................MMMMMMMMMMMMM\nMMMMMMMMMMMMMMMMMMMMMM88=........................+MMMMMMMMMM\nMMMMMMMMMMMMMMMMM....................MMMMM...MMMMMMMMMMMMMMM\nMMMMMMMMMMMMMMMMM....................MMMMM...MMMMMMMMMMMMMMM\nMMMMMMMMMMMM.........................MM+..MMM....+MMMMMMMMMM\nMMMMMMMMMNMM...................... ..MM?..MMM.. .+MMMMMMMMMM\nMMMMNDDMM+........................+MM........MM..+MMMMMMMMMM\nMMMMZ.............................+MM....................MMM\nMMMMZ.............................+MM....................MMM\nMMMMZ.............................+MM....................DDD\nMMMMZ.............................+MM..ZMMMMMMMMMMMMMMMMMMMM\nMMMMZ.............................+MM..ZMMMMMMMMMMMMMMMMMMMM\nMM..............................MMZ....ZMMMMMMMMMMMMMMMMMMMM\nMM............................MM.......ZMMMMMMMMMMMMMMMMMMMM\nMM............................MM.......ZMMMMMMMMMMMMMMMMMMMM\nMM......................ZMMMMM.......MMMMMMMMMMMMMMMMMMMMMMM\nMM............... ......ZMMMMM.... ..MMMMMMMMMMMMMMMMMMMMMMM\nMM...............MMMMM88~.........+MM..ZMMMMMMMMMMMMMMMMMMMM\nMM.......$DDDDDDD.......$DDDDD..DDNMM..ZMMMMMMMMMMMMMMMMMMMM\nMM.......$DDDDDDD.......$DDDDD..DDNMM..ZMMMMMMMMMMMMMMMMMMMM\nMM.......ZMMMMMMM.......ZMMMMM..MMMMM..ZMMMMMMMMMMMMMMMMMMMM\nMMMMMMMMM+.......MMMMM88NMMMMM..MMMMMMMMMMMMMMMMMMMMMMMMMMMM\nMMMMMMMMM+.......MMMMM88NMMMMM..MMMMMMMMMMMMMMMMMMMMMMMMMMMM\nMMMMMMMMMMMMMMMMMMMMMMMMMMMMMMMMMMMMMMMMMMMMMMMMMMMMMMMMMMMM\nMMMMMMMMMMMMMMMMMMMMMMMMMMMMMMMMMMMMMMMMMMMMMMMMMMMMMMMMMMMM*/\n",
  "sourcePath": "/Users/nemitariajienka/Desktop/projects/MultisigControl/contracts/ERC20_Bridge_Logic_Restricted.sol",
  "compiler": {
    "name": "solc",
    "version": "0.8.8+commit.dddeac2f.Emscripten.clang"
  },
  "schemaVersion": "3.3.3",
  "updatedAt": "2022-04-28T16:34:36.404Z",
  "devdoc": {
    "author": "Vega Protocol",
    "kind": "dev",
    "methods": {
      "constructor": {
        "params": {
          "erc20_asset_pool": "Initial Asset Pool contract address"
        }
      },
      "deposit_asset(address,uint256,bytes32)": {
        "details": "emits Asset_Deposited if successfulERC20 approve function should be run before running this",
        "params": {
          "amount": "Amount of tokens to be deposited into Vega",
          "asset_source": "Contract address for given ERC20 token",
          "vega_public_key": "Target Vega public key to be credited with this deposit"
        }
      },
      "exempt_depositor()": {
        "details": "emits Depositor_Exempted if successful"
      },
      "get_asset_deposit_lifetime_limit(address)": {
        "params": {
          "asset_source": "Contract address for given ERC20 token"
        },
        "returns": {
          "_0": "Lifetime limit for the given asset"
        }
      },
      "get_asset_source(bytes32)": {
        "params": {
          "vega_asset_id": "Vega-assigned asset ID for which you want the ERC20 token address"
        },
        "returns": {
          "_0": "The ERC20 token contract address for a given Vega Asset Id"
        }
      },
      "get_multisig_control_address()": {
        "returns": {
          "_0": "current multisig_control_address"
        }
      },
      "get_vega_asset_id(address)": {
        "params": {
          "asset_source": "Contract address for given ERC20 token"
        },
        "returns": {
          "_0": "The assigned Vega Asset Id for given ERC20 token"
        }
      },
      "get_withdraw_threshold(address)": {
        "params": {
          "asset_source": "Contract address for given ERC20 token"
        },
        "returns": {
          "_0": "Withdraw threshold"
        }
      },
      "global_resume(uint256,bytes)": {
        "details": "bridge must be stoppedemits Bridge_Resumed if successful",
        "params": {
          "nonce": "Vega-assigned single-use number that provides replay attack protection",
          "signatures": "Vega-supplied signature bundle of a validator-signed order"
        }
      },
      "global_stop(uint256,bytes)": {
        "details": "bridge must not be stopped alreadyemits Bridge_Stopped if successful",
        "params": {
          "nonce": "Vega-assigned single-use number that provides replay attack protection",
          "signatures": "Vega-supplied signature bundle of a validator-signed order"
        }
      },
      "is_asset_listed(address)": {
        "params": {
          "asset_source": "Contract address for given ERC20 token"
        },
        "returns": {
          "_0": "True if asset is listed"
        }
      },
      "is_exempt_depositor(address)": {
        "params": {
          "depositor": "The depositor to check"
        },
        "returns": {
          "_0": "true if depositor is exempt"
        }
      },
      "list_asset(address,bytes32,uint256,uint256,uint256,bytes)": {
        "details": "Emits Asset_Listed if successful",
        "params": {
          "asset_source": "Contract address for given ERC20 token",
          "lifetime_limit": "Initial lifetime deposit limit *RESTRICTION FEATURE*",
          "nonce": "Vega-assigned single-use number that provides replay attack protection",
          "signatures": "Vega-supplied signature bundle of a validator-signed order",
          "vega_asset_id": "Vega-generated asset ID for internal use in Vega Core",
          "withdraw_threshold": "Amount at which the withdraw delay goes into effect *RESTRICTION FEATURE*"
        }
      },
      "remove_asset(address,uint256,bytes)": {
        "details": "Emits Asset_Removed if successful",
        "params": {
          "asset_source": "Contract address for given ERC20 token",
          "nonce": "Vega-assigned single-use number that provides replay attack protection",
          "signatures": "Vega-supplied signature bundle of a validator-signed order"
        }
      },
      "revoke_exempt_depositor()": {
        "details": "emits Depositor_Exemption_Revoked if successful"
      },
      "set_asset_limits(address,uint256,uint256,uint256,bytes)": {
        "details": "asset must first be listed",
        "params": {
          "asset_source": "Contract address for given ERC20 token",
          "lifetime_limit": "Deposit limit for a given ethereum address",
          "nonce": "Vega-assigned single-use number that provides replay attack protection",
          "signatures": "Vega-supplied signature bundle of a validator-signed order",
          "threshold": "Withdraw size above which the withdraw delay goes into effect"
        }
      },
      "set_withdraw_delay(uint256,uint256,bytes)": {
        "params": {
          "delay": "Amount of time to delay a withdrawal",
          "nonce": "Vega-assigned single-use number that provides replay attack protection",
          "signatures": "Vega-supplied signature bundle of a validator-signed order"
        }
      },
      "withdraw_asset(address,uint256,address,uint256,uint256,bytes)": {
        "details": "Emits Asset_Withdrawn if successful",
        "params": {
          "amount": "Amount of ERC20 tokens to withdraw",
          "asset_source": "Contract address for given ERC20 token",
          "creation": "Timestamp of when requestion was created *RESTRICTION FEATURE*",
          "nonce": "Vega-assigned single-use number that provides replay attack protection",
          "signatures": "Vega-supplied signature bundle of a validator-signed order",
          "target": "Target Ethereum address to receive withdrawn ERC20 tokens"
        }
      }
    },
    "title": "ERC20 Bridge Logic",
    "version": 1
  },
  "userdoc": {
    "kind": "user",
    "methods": {
      "deposit_asset(address,uint256,bytes32)": {
        "notice": "This function allows a user to deposit given ERC20 tokens into VegaERC20 approve function should be run before running this"
      },
      "exempt_depositor()": {
        "notice": "this function allows the sender to exempt themselves from the deposit limitsthis feature is specifically for liquidity and rewards providers"
      },
      "get_asset_deposit_lifetime_limit(address)": {
        "notice": "This view returns the lifetime deposit limit for the given asset"
      },
      "get_withdraw_threshold(address)": {
        "notice": "This view returns the given token's withdraw threshold above which the withdraw delay goes into effect"
      },
      "global_resume(uint256,bytes)": {
        "notice": "This function resumes bridge operations from the stopped state"
      },
      "global_stop(uint256,bytes)": {
        "notice": "This function triggers the global bridge stop that halts all withdrawals and deposits until it is resumed"
      },
      "is_asset_listed(address)": {
        "notice": "This view returns true if the given ERC20 token contract has been listed valid for deposit"
      },
      "is_exempt_depositor(address)": {
        "notice": "this view returns true if the given despoitor address has been exempted from deposit limits"
      },
      "list_asset(address,bytes32,uint256,uint256,uint256,bytes)": {
        "notice": "This function lists the given ERC20 token contract as valid for deposit to this bridgeSee MultisigControl for more about signatures"
      },
      "remove_asset(address,uint256,bytes)": {
        "notice": "This function removes from listing the given ERC20 token contract. This marks the token as invalid for deposit to this bridgeSee MultisigControl for more about signatures"
      },
      "revoke_exempt_depositor()": {
        "notice": "this function allows the exemption_lister to revoke a depositor's exemption from deposit limitsthis feature is specifically for liquidity and rewards providers"
      },
      "set_asset_limits(address,uint256,uint256,uint256,bytes)": {
        "notice": "This function sets the lifetime maximum deposit for a given asset"
      },
      "set_withdraw_delay(uint256,uint256,bytes)": {
        "notice": "This function sets the withdraw delay for withdrawals over the per-asset set thresholds"
      },
      "withdraw_asset(address,uint256,address,uint256,uint256,bytes)": {
        "notice": "This function withdrawals assets to the target Ethereum addressSee MultisigControl for more about signatures"
      }
    },
    "notice": "This contract is used by Vega network users to deposit and withdraw ERC20 tokens to/from Vega.",
    "version": 1
  }
}