{
  "contractName": "ERC20_Bridge_Logic",
  "abi": [
    {
      "inputs": [
        {
          "internalType": "address payable",
          "name": "erc20_asset_pool",
          "type": "address"
        }
      ],
      "stateMutability": "nonpayable",
      "type": "constructor"
    },
    {
      "anonymous": false,
      "inputs": [
        {
          "indexed": true,
          "internalType": "address",
          "name": "asset_source",
          "type": "address"
        },
        {
          "indexed": false,
          "internalType": "uint256",
          "name": "new_maximum",
          "type": "uint256"
        },
        {
          "indexed": false,
          "internalType": "uint256",
          "name": "nonce",
          "type": "uint256"
        }
      ],
      "name": "Asset_Deposit_Maximum_Set",
      "type": "event"
    },
    {
      "anonymous": false,
      "inputs": [
        {
          "indexed": true,
          "internalType": "address",
          "name": "asset_source",
          "type": "address"
        },
        {
          "indexed": false,
          "internalType": "uint256",
          "name": "new_minimum",
          "type": "uint256"
        },
        {
          "indexed": false,
          "internalType": "uint256",
          "name": "nonce",
          "type": "uint256"
        }
      ],
      "name": "Asset_Deposit_Minimum_Set",
      "type": "event"
    },
    {
      "anonymous": false,
      "inputs": [
        {
          "indexed": true,
          "internalType": "address",
          "name": "user_address",
          "type": "address"
        },
        {
          "indexed": true,
          "internalType": "address",
          "name": "asset_source",
          "type": "address"
        },
        {
          "indexed": false,
          "internalType": "uint256",
          "name": "amount",
          "type": "uint256"
        },
        {
          "indexed": false,
          "internalType": "bytes32",
          "name": "vega_public_key",
          "type": "bytes32"
        }
      ],
      "name": "Asset_Deposited",
      "type": "event"
    },
    {
      "anonymous": false,
      "inputs": [
        {
          "indexed": true,
          "internalType": "address",
          "name": "asset_source",
          "type": "address"
        },
        {
          "indexed": true,
          "internalType": "bytes32",
          "name": "vega_asset_id",
          "type": "bytes32"
        },
        {
          "indexed": false,
          "internalType": "uint256",
          "name": "nonce",
          "type": "uint256"
        }
      ],
      "name": "Asset_Listed",
      "type": "event"
    },
    {
      "anonymous": false,
      "inputs": [
        {
          "indexed": true,
          "internalType": "address",
          "name": "asset_source",
          "type": "address"
        },
        {
          "indexed": false,
          "internalType": "uint256",
          "name": "nonce",
          "type": "uint256"
        }
      ],
      "name": "Asset_Removed",
      "type": "event"
    },
    {
      "anonymous": false,
      "inputs": [
        {
          "indexed": true,
          "internalType": "address",
          "name": "user_address",
          "type": "address"
        },
        {
          "indexed": true,
          "internalType": "address",
          "name": "asset_source",
          "type": "address"
        },
        {
          "indexed": false,
          "internalType": "uint256",
          "name": "amount",
          "type": "uint256"
        },
        {
          "indexed": false,
          "internalType": "uint256",
          "name": "nonce",
          "type": "uint256"
        }
      ],
      "name": "Asset_Withdrawn",
      "type": "event"
    },
    {
      "inputs": [
        {
          "internalType": "address",
          "name": "asset_source",
          "type": "address"
        },
        {
          "internalType": "bytes32",
          "name": "vega_asset_id",
          "type": "bytes32"
        },
        {
          "internalType": "uint256",
          "name": "nonce",
          "type": "uint256"
        },
        {
          "internalType": "bytes",
          "name": "signatures",
          "type": "bytes"
        }
      ],
      "name": "list_asset",
      "outputs": [],
      "stateMutability": "nonpayable",
      "type": "function"
    },
    {
      "inputs": [
        {
          "internalType": "address",
          "name": "asset_source",
          "type": "address"
        },
        {
          "internalType": "uint256",
          "name": "nonce",
          "type": "uint256"
        },
        {
          "internalType": "bytes",
          "name": "signatures",
          "type": "bytes"
        }
      ],
      "name": "remove_asset",
      "outputs": [],
      "stateMutability": "nonpayable",
      "type": "function"
    },
    {
      "inputs": [
        {
          "internalType": "address",
          "name": "asset_source",
          "type": "address"
        },
        {
          "internalType": "uint256",
          "name": "minimum_amount",
          "type": "uint256"
        },
        {
          "internalType": "uint256",
          "name": "nonce",
          "type": "uint256"
        },
        {
          "internalType": "bytes",
          "name": "signatures",
          "type": "bytes"
        }
      ],
      "name": "set_deposit_minimum",
      "outputs": [],
      "stateMutability": "nonpayable",
      "type": "function"
    },
    {
      "inputs": [
        {
          "internalType": "address",
          "name": "asset_source",
          "type": "address"
        },
        {
          "internalType": "uint256",
          "name": "maximum_amount",
          "type": "uint256"
        },
        {
          "internalType": "uint256",
          "name": "nonce",
          "type": "uint256"
        },
        {
          "internalType": "bytes",
          "name": "signatures",
          "type": "bytes"
        }
      ],
      "name": "set_deposit_maximum",
      "outputs": [],
      "stateMutability": "nonpayable",
      "type": "function"
    },
    {
      "inputs": [
        {
          "internalType": "address",
          "name": "asset_source",
          "type": "address"
        },
        {
          "internalType": "uint256",
          "name": "amount",
          "type": "uint256"
        },
        {
          "internalType": "address",
          "name": "target",
          "type": "address"
        },
        {
          "internalType": "uint256",
          "name": "nonce",
          "type": "uint256"
        },
        {
          "internalType": "bytes",
          "name": "signatures",
          "type": "bytes"
        }
      ],
      "name": "withdraw_asset",
      "outputs": [],
      "stateMutability": "nonpayable",
      "type": "function"
    },
    {
      "inputs": [
        {
          "internalType": "address",
          "name": "asset_source",
          "type": "address"
        },
        {
          "internalType": "uint256",
          "name": "amount",
          "type": "uint256"
        },
        {
          "internalType": "bytes32",
          "name": "vega_public_key",
          "type": "bytes32"
        }
      ],
      "name": "deposit_asset",
      "outputs": [],
      "stateMutability": "nonpayable",
      "type": "function"
    },
    {
      "inputs": [
        {
          "internalType": "address",
          "name": "asset_source",
          "type": "address"
        }
      ],
      "name": "is_asset_listed",
      "outputs": [
        {
          "internalType": "bool",
          "name": "",
          "type": "bool"
        }
      ],
      "stateMutability": "view",
      "type": "function"
    },
    {
      "inputs": [
        {
          "internalType": "address",
          "name": "asset_source",
          "type": "address"
        }
      ],
      "name": "get_deposit_minimum",
      "outputs": [
        {
          "internalType": "uint256",
          "name": "",
          "type": "uint256"
        }
      ],
      "stateMutability": "view",
      "type": "function"
    },
    {
      "inputs": [
        {
          "internalType": "address",
          "name": "asset_source",
          "type": "address"
        }
      ],
      "name": "get_deposit_maximum",
      "outputs": [
        {
          "internalType": "uint256",
          "name": "",
          "type": "uint256"
        }
      ],
      "stateMutability": "view",
      "type": "function"
    },
    {
      "inputs": [],
      "name": "get_multisig_control_address",
      "outputs": [
        {
          "internalType": "address",
          "name": "",
          "type": "address"
        }
      ],
      "stateMutability": "view",
      "type": "function"
    },
    {
      "inputs": [
        {
          "internalType": "address",
          "name": "asset_source",
          "type": "address"
        }
      ],
      "name": "get_vega_asset_id",
      "outputs": [
        {
          "internalType": "bytes32",
          "name": "",
          "type": "bytes32"
        }
      ],
      "stateMutability": "view",
      "type": "function"
    },
    {
      "inputs": [
        {
          "internalType": "bytes32",
          "name": "vega_asset_id",
          "type": "bytes32"
        }
      ],
      "name": "get_asset_source",
      "outputs": [
        {
          "internalType": "address",
          "name": "",
          "type": "address"
        }
      ],
      "stateMutability": "view",
      "type": "function"
    }
  ],
  "bytecode": "0x60806040523480156200001157600080fd5b506040516200220a3803806200220a8339818101604052810190620000379190620000e8565b806000806101000a81548173ffffffffffffffffffffffffffffffffffffffff021916908373ffffffffffffffffffffffffffffffffffffffff160217905550506200011a565b600080fd5b600073ffffffffffffffffffffffffffffffffffffffff82169050919050565b6000620000b08262000083565b9050919050565b620000c281620000a3565b8114620000ce57600080fd5b50565b600081519050620000e281620000b7565b92915050565b6000602082840312156200010157620001006200007e565b5b60006200011184828501620000d1565b91505092915050565b6120e0806200012a6000396000f3fe608060405234801561001057600080fd5b50600436106100b45760003560e01c8063927ee5b911610071578063927ee5b9146101b1578063a06b5d39146101cd578063a8780cda146101fd578063c58dc3b914610219578063c76de35814610237578063f768393214610253576100b4565b80631d501b5d146100b9578063292463b1146100e95780633882b3da146101055780634322b1f214610121578063786b0bc0146101515780637fd27b7f14610181575b600080fd5b6100d360048036038101906100ce919061137d565b61026f565b6040516100e091906113c3565b60405180910390f35b61010360048036038101906100fe9190611550565b6102b8565b005b61011f600480360381019061011a9190611550565b6104dc565b005b61013b6004803603810190610136919061137d565b610700565b60405161014891906113c3565b60405180910390f35b61016b60048036038101906101669190611609565b610749565b6040516101789190611645565b60405180910390f35b61019b6004803603810190610196919061137d565b610786565b6040516101a8919061167b565b60405180910390f35b6101cb60048036038101906101c69190611696565b6107dc565b005b6101e760048036038101906101e2919061137d565b6109d9565b6040516101f4919061173c565b60405180910390f35b61021760048036038101906102129190611757565b610a22565b005b610221610cef565b60405161022e9190611645565b60405180910390f35b610251600480360381019061024c91906117da565b610cfe565b005b61026d60048036038101906102689190611849565b610f31565b005b6000600360008373ffffffffffffffffffffffffffffffffffffffff1673ffffffffffffffffffffffffffffffffffffffff168152602001908152602001600020549050919050565b600160008573ffffffffffffffffffffffffffffffffffffffff1673ffffffffffffffffffffffffffffffffffffffff16815260200190815260200160002060009054906101000a900460ff16610344576040517f08c379a000000000000000000000000000000000000000000000000000000000815260040161033b906118f9565b60405180910390fd5b600084848460405160200161035b93929190611965565b6040516020818303038152906040529050610374611265565b73ffffffffffffffffffffffffffffffffffffffff1663ba73659a8383866040518463ffffffff1660e01b81526004016103b093929190611a37565b602060405180830381600087803b1580156103ca57600080fd5b505af11580156103de573d6000803e3d6000fd5b505050506040513d601f19601f820116820180604052508101906104029190611aa8565b610441576040517f08c379a000000000000000000000000000000000000000000000000000000000815260040161043890611b21565b60405180910390fd5b83600360008773ffffffffffffffffffffffffffffffffffffffff1673ffffffffffffffffffffffffffffffffffffffff168152602001908152602001600020819055508473ffffffffffffffffffffffffffffffffffffffff167f8861dbda4052c4bf7ba24aad82097ef1e6ade8e6f1b42341640db8a12abfa99385856040516104cd929190611b41565b60405180910390a25050505050565b600160008573ffffffffffffffffffffffffffffffffffffffff1673ffffffffffffffffffffffffffffffffffffffff16815260200190815260200160002060009054906101000a900460ff16610568576040517f08c379a000000000000000000000000000000000000000000000000000000000815260040161055f906118f9565b60405180910390fd5b600084848460405160200161057f93929190611bb6565b6040516020818303038152906040529050610598611265565b73ffffffffffffffffffffffffffffffffffffffff1663ba73659a8383866040518463ffffffff1660e01b81526004016105d493929190611a37565b602060405180830381600087803b1580156105ee57600080fd5b505af1158015610602573d6000803e3d6000fd5b505050506040513d601f19601f820116820180604052508101906106269190611aa8565b610665576040517f08c379a000000000000000000000000000000000000000000000000000000000815260040161065c90611b21565b60405180910390fd5b83600260008773ffffffffffffffffffffffffffffffffffffffff1673ffffffffffffffffffffffffffffffffffffffff168152602001908152602001600020819055508473ffffffffffffffffffffffffffffffffffffffff167f4ed0df0b169b573722ecdcc12333646a6efd0445c28fe277470bbfca620e8ad585856040516106f1929190611b41565b60405180910390a25050505050565b6000600260008373ffffffffffffffffffffffffffffffffffffffff1673ffffffffffffffffffffffffffffffffffffffff168152602001908152602001600020549050919050565b60006004600083815260200190815260200160002060009054906101000a900473ffffffffffffffffffffffffffffffffffffffff169050919050565b6000600160008373ffffffffffffffffffffffffffffffffffffffff1673ffffffffffffffffffffffffffffffffffffffff16815260200190815260200160002060009054906101000a900460ff169050919050565b6000858585856040516020016107f59493929190611c4c565b604051602081830303815290604052905061080e611265565b73ffffffffffffffffffffffffffffffffffffffff1663ba73659a8383866040518463ffffffff1660e01b815260040161084a93929190611a37565b602060405180830381600087803b15801561086457600080fd5b505af1158015610878573d6000803e3d6000fd5b505050506040513d601f19601f8201168201806040525081019061089c9190611aa8565b6108db576040517f08c379a00000000000000000000000000000000000000000000000000000000081526004016108d290611b21565b60405180910390fd5b60008054906101000a900473ffffffffffffffffffffffffffffffffffffffff1673ffffffffffffffffffffffffffffffffffffffff1663d9caed128786886040518463ffffffff1660e01b815260040161093893929190611ca4565b600060405180830381600087803b15801561095257600080fd5b505af1158015610966573d6000803e3d6000fd5b505050508573ffffffffffffffffffffffffffffffffffffffff168473ffffffffffffffffffffffffffffffffffffffff167fa79be4f3361e32d396d64c478ecef73732cb40b2a75702c3b3b3226a2c83b5df87866040516109c9929190611b41565b60405180910390a3505050505050565b6000600560008373ffffffffffffffffffffffffffffffffffffffff1673ffffffffffffffffffffffffffffffffffffffff168152602001908152602001600020549050919050565b600160008573ffffffffffffffffffffffffffffffffffffffff1673ffffffffffffffffffffffffffffffffffffffff16815260200190815260200160002060009054906101000a900460ff1615610aaf576040517f08c379a0000000000000000000000000000000000000000000000000000000008152600401610aa690611d27565b60405180910390fd5b6000848484604051602001610ac693929190611d93565b6040516020818303038152906040529050610adf611265565b73ffffffffffffffffffffffffffffffffffffffff1663ba73659a8383866040518463ffffffff1660e01b8152600401610b1b93929190611a37565b602060405180830381600087803b158015610b3557600080fd5b505af1158015610b49573d6000803e3d6000fd5b505050506040513d601f19601f82011682018060405250810190610b6d9190611aa8565b610bac576040517f08c379a0000000000000000000000000000000000000000000000000000000008152600401610ba390611b21565b60405180910390fd5b60018060008773ffffffffffffffffffffffffffffffffffffffff1673ffffffffffffffffffffffffffffffffffffffff16815260200190815260200160002060006101000a81548160ff021916908315150217905550846004600086815260200190815260200160002060006101000a81548173ffffffffffffffffffffffffffffffffffffffff021916908373ffffffffffffffffffffffffffffffffffffffff16021790555083600560008773ffffffffffffffffffffffffffffffffffffffff1673ffffffffffffffffffffffffffffffffffffffff16815260200190815260200160002081905550838573ffffffffffffffffffffffffffffffffffffffff167f4180d77d05ff0d31650c548c23f2de07a3da3ad42e3dd6edd817b438a150452e85604051610ce091906113c3565b60405180910390a35050505050565b6000610cf9611265565b905090565b600160008473ffffffffffffffffffffffffffffffffffffffff1673ffffffffffffffffffffffffffffffffffffffff16815260200190815260200160002060009054906101000a900460ff16610d8a576040517f08c379a0000000000000000000000000000000000000000000000000000000008152600401610d81906118f9565b60405180910390fd5b60008383604051602001610d9f929190611e29565b6040516020818303038152906040529050610db8611265565b73ffffffffffffffffffffffffffffffffffffffff1663ba73659a8383866040518463ffffffff1660e01b8152600401610df493929190611a37565b602060405180830381600087803b158015610e0e57600080fd5b505af1158015610e22573d6000803e3d6000fd5b505050506040513d601f19601f82011682018060405250810190610e469190611aa8565b610e85576040517f08c379a0000000000000000000000000000000000000000000000000000000008152600401610e7c90611b21565b60405180910390fd5b6000600160008673ffffffffffffffffffffffffffffffffffffffff1673ffffffffffffffffffffffffffffffffffffffff16815260200190815260200160002060006101000a81548160ff0219169083151502179055508373ffffffffffffffffffffffffffffffffffffffff167f58ad5e799e2df93ab408be0e5c1870d44c80b5bca99dfaf7ddf0dab5e6b155c984604051610f2391906113c3565b60405180910390a250505050565b600160008473ffffffffffffffffffffffffffffffffffffffff1673ffffffffffffffffffffffffffffffffffffffff16815260200190815260200160002060009054906101000a900460ff16610fbd576040517f08c379a0000000000000000000000000000000000000000000000000000000008152600401610fb4906118f9565b60405180910390fd5b6000600360008573ffffffffffffffffffffffffffffffffffffffff1673ffffffffffffffffffffffffffffffffffffffff16815260200190815260200160002054148061104a5750600360008473ffffffffffffffffffffffffffffffffffffffff1673ffffffffffffffffffffffffffffffffffffffff168152602001908152602001600020548211155b611089576040517f08c379a000000000000000000000000000000000000000000000000000000000815260040161108090611eb1565b60405180910390fd5b600260008473ffffffffffffffffffffffffffffffffffffffff1673ffffffffffffffffffffffffffffffffffffffff1681526020019081526020016000205482101561110b576040517f08c379a000000000000000000000000000000000000000000000000000000000815260040161110290611f1d565b60405180910390fd5b8273ffffffffffffffffffffffffffffffffffffffff166323b872dd3360008054906101000a900473ffffffffffffffffffffffffffffffffffffffff16856040518463ffffffff1660e01b815260040161116893929190611f9c565b602060405180830381600087803b15801561118257600080fd5b505af1158015611196573d6000803e3d6000fd5b505050506040513d601f19601f820116820180604052508101906111ba9190611aa8565b6111f9576040517f08c379a00000000000000000000000000000000000000000000000000000000081526004016111f09061201f565b60405180910390fd5b8273ffffffffffffffffffffffffffffffffffffffff163373ffffffffffffffffffffffffffffffffffffffff167f3724ff5e82ddc640a08d68b0b782a5991aea0de51a8dd10a59cdbe5b3ec4e6bf848460405161125892919061203f565b60405180910390a3505050565b60008060009054906101000a900473ffffffffffffffffffffffffffffffffffffffff1673ffffffffffffffffffffffffffffffffffffffff1663b82d5abd6040518163ffffffff1660e01b815260040160206040518083038186803b1580156112ce57600080fd5b505afa1580156112e2573d6000803e3d6000fd5b505050506040513d601f19601f82011682018060405250810190611306919061207d565b905090565b6000604051905090565b600080fd5b600080fd5b600073ffffffffffffffffffffffffffffffffffffffff82169050919050565b600061134a8261131f565b9050919050565b61135a8161133f565b811461136557600080fd5b50565b60008135905061137781611351565b92915050565b60006020828403121561139357611392611315565b5b60006113a184828501611368565b91505092915050565b6000819050919050565b6113bd816113aa565b82525050565b60006020820190506113d860008301846113b4565b92915050565b6113e7816113aa565b81146113f257600080fd5b50565b600081359050611404816113de565b92915050565b600080fd5b600080fd5b6000601f19601f8301169050919050565b7f4e487b7100000000000000000000000000000000000000000000000000000000600052604160045260246000fd5b61145d82611414565b810181811067ffffffffffffffff8211171561147c5761147b611425565b5b80604052505050565b600061148f61130b565b905061149b8282611454565b919050565b600067ffffffffffffffff8211156114bb576114ba611425565b5b6114c482611414565b9050602081019050919050565b82818337600083830152505050565b60006114f36114ee846114a0565b611485565b90508281526020810184848401111561150f5761150e61140f565b5b61151a8482856114d1565b509392505050565b600082601f8301126115375761153661140a565b5b81356115478482602086016114e0565b91505092915050565b6000806000806080858703121561156a57611569611315565b5b600061157887828801611368565b9450506020611589878288016113f5565b935050604061159a878288016113f5565b925050606085013567ffffffffffffffff8111156115bb576115ba61131a565b5b6115c787828801611522565b91505092959194509250565b6000819050919050565b6115e6816115d3565b81146115f157600080fd5b50565b600081359050611603816115dd565b92915050565b60006020828403121561161f5761161e611315565b5b600061162d848285016115f4565b91505092915050565b61163f8161133f565b82525050565b600060208201905061165a6000830184611636565b92915050565b60008115159050919050565b61167581611660565b82525050565b6000602082019050611690600083018461166c565b92915050565b600080600080600060a086880312156116b2576116b1611315565b5b60006116c088828901611368565b95505060206116d1888289016113f5565b94505060406116e288828901611368565b93505060606116f3888289016113f5565b925050608086013567ffffffffffffffff8111156117145761171361131a565b5b61172088828901611522565b9150509295509295909350565b611736816115d3565b82525050565b6000602082019050611751600083018461172d565b92915050565b6000806000806080858703121561177157611770611315565b5b600061177f87828801611368565b9450506020611790878288016115f4565b93505060406117a1878288016113f5565b925050606085013567ffffffffffffffff8111156117c2576117c161131a565b5b6117ce87828801611522565b91505092959194509250565b6000806000606084860312156117f3576117f2611315565b5b600061180186828701611368565b9350506020611812868287016113f5565b925050604084013567ffffffffffffffff8111156118335761183261131a565b5b61183f86828701611522565b9150509250925092565b60008060006060848603121561186257611861611315565b5b600061187086828701611368565b9350506020611881868287016113f5565b9250506040611892868287016115f4565b9150509250925092565b600082825260208201905092915050565b7f6173736574206e6f74206c697374656400000000000000000000000000000000600082015250565b60006118e360108361189c565b91506118ee826118ad565b602082019050919050565b60006020820190508181036000830152611912816118d6565b9050919050565b7f7365745f6465706f7369745f6d6178696d756d00000000000000000000000000600082015250565b600061194f60138361189c565b915061195a82611919565b602082019050919050565b600060808201905061197a6000830186611636565b61198760208301856113b4565b61199460408301846113b4565b81810360608301526119a581611942565b9050949350505050565b600081519050919050565b600082825260208201905092915050565b60005b838110156119e95780820151818401526020810190506119ce565b838111156119f8576000848401525b50505050565b6000611a09826119af565b611a1381856119ba565b9350611a238185602086016119cb565b611a2c81611414565b840191505092915050565b60006060820190508181036000830152611a5181866119fe565b90508181036020830152611a6581856119fe565b9050611a7460408301846113b4565b949350505050565b611a8581611660565b8114611a9057600080fd5b50565b600081519050611aa281611a7c565b92915050565b600060208284031215611abe57611abd611315565b5b6000611acc84828501611a93565b91505092915050565b7f626164207369676e617475726573000000000000000000000000000000000000600082015250565b6000611b0b600e8361189c565b9150611b1682611ad5565b602082019050919050565b60006020820190508181036000830152611b3a81611afe565b9050919050565b6000604082019050611b5660008301856113b4565b611b6360208301846113b4565b9392505050565b7f7365745f6465706f7369745f6d696e696d756d00000000000000000000000000600082015250565b6000611ba060138361189c565b9150611bab82611b6a565b602082019050919050565b6000608082019050611bcb6000830186611636565b611bd860208301856113b4565b611be560408301846113b4565b8181036060830152611bf681611b93565b9050949350505050565b7f77697468647261775f6173736574000000000000000000000000000000000000600082015250565b6000611c36600e8361189c565b9150611c4182611c00565b602082019050919050565b600060a082019050611c616000830187611636565b611c6e60208301866113b4565b611c7b6040830185611636565b611c8860608301846113b4565b8181036080830152611c9981611c29565b905095945050505050565b6000606082019050611cb96000830186611636565b611cc66020830185611636565b611cd360408301846113b4565b949350505050565b7f617373657420616c7265616479206c6973746564000000000000000000000000600082015250565b6000611d1160148361189c565b9150611d1c82611cdb565b602082019050919050565b60006020820190508181036000830152611d4081611d04565b9050919050565b7f6c6973745f617373657400000000000000000000000000000000000000000000600082015250565b6000611d7d600a8361189c565b9150611d8882611d47565b602082019050919050565b6000608082019050611da86000830186611636565b611db5602083018561172d565b611dc260408301846113b4565b8181036060830152611dd381611d70565b9050949350505050565b7f72656d6f76655f61737365740000000000000000000000000000000000000000600082015250565b6000611e13600c8361189c565b9150611e1e82611ddd565b602082019050919050565b6000606082019050611e3e6000830185611636565b611e4b60208301846113b4565b8181036040830152611e5c81611e06565b90509392505050565b7f6465706f7369742061626f7665206d6178696d756d0000000000000000000000600082015250565b6000611e9b60158361189c565b9150611ea682611e65565b602082019050919050565b60006020820190508181036000830152611eca81611e8e565b9050919050565b7f6465706f7369742062656c6f77206d696e696d756d0000000000000000000000600082015250565b6000611f0760158361189c565b9150611f1282611ed1565b602082019050919050565b60006020820190508181036000830152611f3681611efa565b9050919050565b6000819050919050565b6000611f62611f5d611f588461131f565b611f3d565b61131f565b9050919050565b6000611f7482611f47565b9050919050565b6000611f8682611f69565b9050919050565b611f9681611f7b565b82525050565b6000606082019050611fb16000830186611636565b611fbe6020830185611f8d565b611fcb60408301846113b4565b949350505050565b7f7472616e73666572206661696c656420696e206465706f736974000000000000600082015250565b6000612009601a8361189c565b915061201482611fd3565b602082019050919050565b6000602082019050818103600083015261203881611ffc565b9050919050565b600060408201905061205460008301856113b4565b612061602083018461172d565b9392505050565b60008151905061207781611351565b92915050565b60006020828403121561209357612092611315565b5b60006120a184828501612068565b9150509291505056fea2646970667358221220b65dbd71c2c1fa9340ce73255dc76f74722cf4a9652c0f70f8c95376f00c3dbf64736f6c63430008080033",
  "immutableReferences": {},
  "source": "//SPDX-License-Identifier: MIT\npragma solidity 0.8.8;\n\nimport \"./IERC20.sol\";\nimport \"./IERC20_Bridge_Logic.sol\";\nimport \"./IMultisigControl.sol\";\nimport \"./ERC20_Asset_Pool.sol\";\n\n/// @title ERC20 Bridge Logic\n/// @author Vega Protocol\n/// @notice This contract is used by Vega network users to deposit and withdraw ERC20 tokens to/from Vega.\n// @notice All funds deposited/withdrawn are to/from the assigned ERC20_Asset_Pool\ncontract ERC20_Bridge_Logic is IERC20_Bridge_Logic {\n\n    address payable erc20_asset_pool_address;\n    // asset address => is listed\n    mapping(address => bool) listed_tokens;\n    // asset address => minimum deposit amt\n    mapping(address => uint256) minimum_deposits;\n    // asset address => maximum deposit amt\n    mapping(address => uint256) maximum_deposits;\n    // Vega asset ID => asset_source\n    mapping(bytes32 => address) vega_asset_ids_to_source;\n    // asset_source => Vega asset ID\n    mapping(address => bytes32) asset_source_to_vega_asset_id;\n\n    /// @param erc20_asset_pool Initial Asset Pool contract address\n     constructor(address payable erc20_asset_pool) {\n         erc20_asset_pool_address = erc20_asset_pool;\n     }\n\n     function multisig_control_address() internal view returns(address) {\n       return ERC20_Asset_Pool(erc20_asset_pool_address).multisig_control_address();\n     }\n\n    /***************************FUNCTIONS*************************/\n    /// @notice This function lists the given ERC20 token contract as valid for deposit to this bridge\n    /// @param asset_source Contract address for given ERC20 token\n    /// @param vega_asset_id Vega-generated asset ID for internal use in Vega Core\n    /// @param nonce Vega-assigned single-use number that provides replay attack protection\n    /// @param signatures Vega-supplied signature bundle of a validator-signed order\n    /// @notice See MultisigControl for more about signatures\n    /// @dev Emits Asset_Listed if successful\n    function list_asset(address asset_source, bytes32 vega_asset_id, uint256 nonce, bytes memory signatures) public override {\n        require(!listed_tokens[asset_source], \"asset already listed\");\n        bytes memory message = abi.encode(asset_source, vega_asset_id, nonce, 'list_asset');\n        require(IMultisigControl(multisig_control_address()).verify_signatures(signatures, message, nonce), \"bad signatures\");\n        listed_tokens[asset_source] = true;\n        vega_asset_ids_to_source[vega_asset_id] = asset_source;\n        asset_source_to_vega_asset_id[asset_source] = vega_asset_id;\n        emit Asset_Listed(asset_source, vega_asset_id, nonce);\n    }\n\n    /// @notice This function removes from listing the given ERC20 token contract. This marks the token as invalid for deposit to this bridge\n    /// @param asset_source Contract address for given ERC20 token\n    /// @param nonce Vega-assigned single-use number that provides replay attack protection\n    /// @param signatures Vega-supplied signature bundle of a validator-signed order\n    /// @notice See MultisigControl for more about signatures\n    /// @dev Emits Asset_Removed if successful\n    function remove_asset(address asset_source, uint256 nonce, bytes memory signatures) public override {\n        require(listed_tokens[asset_source], \"asset not listed\");\n        bytes memory message = abi.encode(asset_source, nonce, 'remove_asset');\n        require(IMultisigControl(multisig_control_address()).verify_signatures(signatures, message, nonce), \"bad signatures\");\n        listed_tokens[asset_source] = false;\n        emit Asset_Removed(asset_source, nonce);\n    }\n\n    /// @notice This function sets the minimum allowable deposit for the given ERC20 token\n    /// @param asset_source Contract address for given ERC20 token\n    /// @param minimum_amount Minimum deposit amount\n    /// @param nonce Vega-assigned single-use number that provides replay attack protection\n    /// @param signatures Vega-supplied signature bundle of a validator-signed order\n    /// @notice See MultisigControl for more about signatures\n    /// @dev Emits Asset_Deposit_Minimum_Set if successful\n    function set_deposit_minimum(address asset_source, uint256 minimum_amount, uint256 nonce, bytes memory signatures) public override{\n        require(listed_tokens[asset_source], \"asset not listed\");\n        bytes memory message = abi.encode(asset_source, minimum_amount, nonce, 'set_deposit_minimum');\n        require(IMultisigControl(multisig_control_address()).verify_signatures(signatures, message, nonce), \"bad signatures\");\n        minimum_deposits[asset_source] = minimum_amount;\n        emit Asset_Deposit_Minimum_Set(asset_source, minimum_amount, nonce);\n    }\n\n    /// @notice This function sets the maximum allowable deposit for the given ERC20 token\n    /// @param asset_source Contract address for given ERC20 token\n    /// @param maximum_amount Maximum deposit amount\n    /// @param nonce Vega-assigned single-use number that provides replay attack protection\n    /// @param signatures Vega-supplied signature bundle of a validator-signed order\n    /// @notice See MultisigControl for more about signatures\n    /// @dev Emits Asset_Deposit_Maximum_Set if successful\n    function set_deposit_maximum(address asset_source, uint256 maximum_amount, uint256 nonce, bytes memory signatures) public override {\n        require(listed_tokens[asset_source], \"asset not listed\");\n        bytes memory message = abi.encode(asset_source, maximum_amount, nonce, 'set_deposit_maximum');\n        require(IMultisigControl(multisig_control_address()).verify_signatures(signatures, message, nonce), \"bad signatures\");\n        maximum_deposits[asset_source] = maximum_amount;\n        emit Asset_Deposit_Maximum_Set(asset_source, maximum_amount, nonce);\n    }\n\n    /// @notice This function withdrawals assets to the target Ethereum address\n    /// @param asset_source Contract address for given ERC20 token\n    /// @param amount Amount of ERC20 tokens to withdraw\n    /// @param target Target Ethereum address to receive withdrawn ERC20 tokens\n    /// @param nonce Vega-assigned single-use number that provides replay attack protection\n    /// @param signatures Vega-supplied signature bundle of a validator-signed order\n    /// @notice See MultisigControl for more about signatures\n    /// @dev Emits Asset_Withdrawn if successful\n    function withdraw_asset(address asset_source, uint256 amount, address target, uint256 nonce, bytes memory signatures) public  override{\n        bytes memory message = abi.encode(asset_source, amount, target,  nonce, 'withdraw_asset');\n        require(IMultisigControl(multisig_control_address()).verify_signatures(signatures, message, nonce), \"bad signatures\");\n        ERC20_Asset_Pool(erc20_asset_pool_address).withdraw(asset_source, target, amount);\n        emit Asset_Withdrawn(target, asset_source, amount, nonce);\n    }\n\n    /// @notice This function allows a user to deposit given ERC20 tokens into Vega\n    /// @param asset_source Contract address for given ERC20 token\n    /// @param amount Amount of tokens to be deposited into Vega\n    /// @param vega_public_key Target Vega public key to be credited with this deposit\n    /// @dev MUST emit Asset_Deposited if successful\n    /// @dev ERC20 approve function should be run before running this\n    /// @notice ERC20 approve function should be run before running this\n    function deposit_asset(address asset_source, uint256 amount, bytes32 vega_public_key) public override {\n        require(listed_tokens[asset_source], \"asset not listed\");\n        //User must run approve before deposit\n        require(maximum_deposits[asset_source] == 0 || amount <= maximum_deposits[asset_source], \"deposit above maximum\");\n        require(amount >= minimum_deposits[asset_source], \"deposit below minimum\");\n        require(IERC20(asset_source).transferFrom(msg.sender, erc20_asset_pool_address, amount), \"transfer failed in deposit\");\n        emit Asset_Deposited(msg.sender, asset_source, amount, vega_public_key);\n    }\n\n    /***************************VIEWS*****************************/\n    /// @notice This view returns true if the given ERC20 token contract has been listed valid for deposit\n    /// @param asset_source Contract address for given ERC20 token\n    /// @return True if asset is listed\n    function is_asset_listed(address asset_source) public override view returns(bool){\n        return listed_tokens[asset_source];\n    }\n\n    /// @notice This view returns minimum valid deposit\n    /// @param asset_source Contract address for given ERC20 token\n    /// @return Minimum valid deposit of given ERC20 token\n    function get_deposit_minimum(address asset_source) public override view returns(uint256){\n        return minimum_deposits[asset_source];\n    }\n\n    /// @notice This view returns maximum valid deposit\n    /// @param asset_source Contract address for given ERC20 token\n    /// @return Maximum valid deposit of given ERC20 token\n    function get_deposit_maximum(address asset_source) public override view returns(uint256){\n        return maximum_deposits[asset_source];\n    }\n\n    /// @return current multisig_control_address\n    function get_multisig_control_address() public override view returns(address) {\n        return multisig_control_address();\n    }\n\n    /// @param asset_source Contract address for given ERC20 token\n    /// @return The assigned Vega Asset Id for given ERC20 token\n    function get_vega_asset_id(address asset_source) public override view returns(bytes32){\n        return asset_source_to_vega_asset_id[asset_source];\n    }\n\n    /// @param vega_asset_id Vega-assigned asset ID for which you want the ERC20 token address\n    /// @return The ERC20 token contract address for a given Vega Asset Id\n    function get_asset_source(bytes32 vega_asset_id) public override view returns(address){\n        return vega_asset_ids_to_source[vega_asset_id];\n    }\n}\n\n/**\nMMMMMMMMMMMMMMMMMMMMMMMMMMMMMMMMMMMMMMMMMMMMMMMMMMMMMMMMMMMM\nMMMMMMMMMMMMMMMMMMMMMMMMMMMMMMMMMMMMMMMMMMMMMMMMMMMMMMMMMMMM\nMMMMWEMMMMMMMMMMMMMMMMMMMMMMMMMM...............MMMMMMMMMMMMM\nMMMMMMLOVEMMMMMMMMMMMMMMMMMMMMMM...............MMMMMMMMMMMMM\nMMMMMMMMMMHIXELMMMMMMMMMMMM....................MMMMMNNMMMMMM\nMMMMMMMMMMMMMMMMMMMMMMMMMMM....................MMMMMMMMMMMMM\nMMMMMMMMMMMMMMMMMMMMMM88=........................+MMMMMMMMMM\nMMMMMMMMMMMMMMMMM....................MMMMM...MMMMMMMMMMMMMMM\nMMMMMMMMMMMMMMMMM....................MMMMM...MMMMMMMMMMMMMMM\nMMMMMMMMMMMM.........................MM+..MMM....+MMMMMMMMMM\nMMMMMMMMMNMM...................... ..MM?..MMM.. .+MMMMMMMMMM\nMMMMNDDMM+........................+MM........MM..+MMMMMMMMMM\nMMMMZ.............................+MM....................MMM\nMMMMZ.............................+MM....................MMM\nMMMMZ.............................+MM....................DDD\nMMMMZ.............................+MM..ZMMMMMMMMMMMMMMMMMMMM\nMMMMZ.............................+MM..ZMMMMMMMMMMMMMMMMMMMM\nMM..............................MMZ....ZMMMMMMMMMMMMMMMMMMMM\nMM............................MM.......ZMMMMMMMMMMMMMMMMMMMM\nMM............................MM.......ZMMMMMMMMMMMMMMMMMMMM\nMM......................ZMMMMM.......MMMMMMMMMMMMMMMMMMMMMMM\nMM............... ......ZMMMMM.... ..MMMMMMMMMMMMMMMMMMMMMMM\nMM...............MMMMM88~.........+MM..ZMMMMMMMMMMMMMMMMMMMM\nMM.......$DDDDDDD.......$DDDDD..DDNMM..ZMMMMMMMMMMMMMMMMMMMM\nMM.......$DDDDDDD.......$DDDDD..DDNMM..ZMMMMMMMMMMMMMMMMMMMM\nMM.......ZMMMMMMM.......ZMMMMM..MMMMM..ZMMMMMMMMMMMMMMMMMMMM\nMMMMMMMMM+.......MMMMM88NMMMMM..MMMMMMMMMMMMMMMMMMMMMMMMMMMM\nMMMMMMMMM+.......MMMMM88NMMMMM..MMMMMMMMMMMMMMMMMMMMMMMMMMMM\nMMMMMMMMMMMMMMMMMMMMMMMMMMMMMMMMMMMMMMMMMMMMMMMMMMMMMMMMMMMM\nMMMMMMMMMMMMMMMMMMMMMMMMMMMMMMMMMMMMMMMMMMMMMMMMMMMMMMMMMMMM*/\n",
  "sourcePath": "/Users/nemitariajienka/Desktop/projects/MultisigControl/contracts/ERC20_Bridge_Logic.sol",
  "compiler": {
    "name": "solc",
    "version": "0.8.8+commit.dddeac2f.Emscripten.clang"
  },
  "schemaVersion": "3.3.3",
  "updatedAt": "2022-03-07T22:45:12.296Z",
  "devdoc": {
    "author": "Vega Protocol",
    "kind": "dev",
    "methods": {
      "constructor": {
        "params": {
          "erc20_asset_pool": "Initial Asset Pool contract address"
        }
      },
      "deposit_asset(address,uint256,bytes32)": {
        "details": "MUST emit Asset_Deposited if successfulERC20 approve function should be run before running this",
        "params": {
          "amount": "Amount of tokens to be deposited into Vega",
          "asset_source": "Contract address for given ERC20 token",
          "vega_public_key": "Target Vega public key to be credited with this deposit"
        }
      },
      "get_asset_source(bytes32)": {
        "params": {
          "vega_asset_id": "Vega-assigned asset ID for which you want the ERC20 token address"
        },
        "returns": {
          "_0": "The ERC20 token contract address for a given Vega Asset Id"
        }
      },
      "get_deposit_maximum(address)": {
        "params": {
          "asset_source": "Contract address for given ERC20 token"
        },
        "returns": {
          "_0": "Maximum valid deposit of given ERC20 token"
        }
      },
      "get_deposit_minimum(address)": {
        "params": {
          "asset_source": "Contract address for given ERC20 token"
        },
        "returns": {
          "_0": "Minimum valid deposit of given ERC20 token"
        }
      },
      "get_multisig_control_address()": {
        "returns": {
          "_0": "current multisig_control_address"
        }
      },
      "get_vega_asset_id(address)": {
        "params": {
          "asset_source": "Contract address for given ERC20 token"
        },
        "returns": {
          "_0": "The assigned Vega Asset Id for given ERC20 token"
        }
      },
      "is_asset_listed(address)": {
        "params": {
          "asset_source": "Contract address for given ERC20 token"
        },
        "returns": {
          "_0": "True if asset is listed"
        }
      },
      "list_asset(address,bytes32,uint256,bytes)": {
        "details": "Emits Asset_Listed if successful",
        "params": {
          "asset_source": "Contract address for given ERC20 token",
          "nonce": "Vega-assigned single-use number that provides replay attack protection",
          "signatures": "Vega-supplied signature bundle of a validator-signed order",
          "vega_asset_id": "Vega-generated asset ID for internal use in Vega Core"
        }
      },
      "remove_asset(address,uint256,bytes)": {
        "details": "Emits Asset_Removed if successful",
        "params": {
          "asset_source": "Contract address for given ERC20 token",
          "nonce": "Vega-assigned single-use number that provides replay attack protection",
          "signatures": "Vega-supplied signature bundle of a validator-signed order"
        }
      },
      "set_deposit_maximum(address,uint256,uint256,bytes)": {
        "details": "Emits Asset_Deposit_Maximum_Set if successful",
        "params": {
          "asset_source": "Contract address for given ERC20 token",
          "maximum_amount": "Maximum deposit amount",
          "nonce": "Vega-assigned single-use number that provides replay attack protection",
          "signatures": "Vega-supplied signature bundle of a validator-signed order"
        }
      },
      "set_deposit_minimum(address,uint256,uint256,bytes)": {
        "details": "Emits Asset_Deposit_Minimum_Set if successful",
        "params": {
          "asset_source": "Contract address for given ERC20 token",
          "minimum_amount": "Minimum deposit amount",
          "nonce": "Vega-assigned single-use number that provides replay attack protection",
          "signatures": "Vega-supplied signature bundle of a validator-signed order"
        }
      },
      "withdraw_asset(address,uint256,address,uint256,bytes)": {
        "details": "Emits Asset_Withdrawn if successful",
        "params": {
          "amount": "Amount of ERC20 tokens to withdraw",
          "asset_source": "Contract address for given ERC20 token",
          "nonce": "Vega-assigned single-use number that provides replay attack protection",
          "signatures": "Vega-supplied signature bundle of a validator-signed order",
          "target": "Target Ethereum address to receive withdrawn ERC20 tokens"
        }
      }
    },
    "title": "ERC20 Bridge Logic",
    "version": 1
  },
  "userdoc": {
    "kind": "user",
    "methods": {
      "deposit_asset(address,uint256,bytes32)": {
        "notice": "This function allows a user to deposit given ERC20 tokens into VegaERC20 approve function should be run before running this"
      },
      "get_deposit_maximum(address)": {
        "notice": "This view returns maximum valid deposit"
      },
      "get_deposit_minimum(address)": {
        "notice": "This view returns minimum valid deposit"
      },
      "is_asset_listed(address)": {
        "notice": "This view returns true if the given ERC20 token contract has been listed valid for deposit"
      },
      "list_asset(address,bytes32,uint256,bytes)": {
        "notice": "This function lists the given ERC20 token contract as valid for deposit to this bridgeSee MultisigControl for more about signatures"
      },
      "remove_asset(address,uint256,bytes)": {
        "notice": "This function removes from listing the given ERC20 token contract. This marks the token as invalid for deposit to this bridgeSee MultisigControl for more about signatures"
      },
      "set_deposit_maximum(address,uint256,uint256,bytes)": {
        "notice": "This function sets the maximum allowable deposit for the given ERC20 tokenSee MultisigControl for more about signatures"
      },
      "set_deposit_minimum(address,uint256,uint256,bytes)": {
        "notice": "This function sets the minimum allowable deposit for the given ERC20 tokenSee MultisigControl for more about signatures"
      },
      "withdraw_asset(address,uint256,address,uint256,bytes)": {
        "notice": "This function withdrawals assets to the target Ethereum addressSee MultisigControl for more about signatures"
      }
    },
    "notice": "This contract is used by Vega network users to deposit and withdraw ERC20 tokens to/from Vega.",
    "version": 1
  }
}