{
  "contractName": "ETH_Bridge_Logic",
  "abi": [
    {
      "inputs": [
        {
          "internalType": "address payable",
          "name": "ETH_asset_pool",
          "type": "address"
        }
      ],
      "stateMutability": "nonpayable",
      "type": "constructor"
    },
    {
      "anonymous": false,
      "inputs": [
        {
          "indexed": false,
          "internalType": "uint256",
          "name": "new_maximum",
          "type": "uint256"
        },
        {
          "indexed": false,
          "internalType": "uint256",
          "name": "nonce",
          "type": "uint256"
        }
      ],
      "name": "ETH_Deposit_Maximum_Set",
      "type": "event"
    },
    {
      "anonymous": false,
      "inputs": [
        {
          "indexed": false,
          "internalType": "uint256",
          "name": "new_minimum",
          "type": "uint256"
        },
        {
          "indexed": false,
          "internalType": "uint256",
          "name": "nonce",
          "type": "uint256"
        }
      ],
      "name": "ETH_Deposit_Minimum_Set",
      "type": "event"
    },
    {
      "anonymous": false,
      "inputs": [
        {
          "indexed": true,
          "internalType": "address",
          "name": "user_address",
          "type": "address"
        },
        {
          "indexed": false,
          "internalType": "uint256",
          "name": "amount",
          "type": "uint256"
        },
        {
          "indexed": false,
          "internalType": "bytes32",
          "name": "vega_public_key",
          "type": "bytes32"
        }
      ],
      "name": "ETH_Deposited",
      "type": "event"
    },
    {
      "anonymous": false,
      "inputs": [
        {
          "indexed": true,
          "internalType": "address",
          "name": "user_address",
          "type": "address"
        },
        {
          "indexed": false,
          "internalType": "uint256",
          "name": "amount",
          "type": "uint256"
        },
        {
          "indexed": false,
          "internalType": "uint256",
          "name": "nonce",
          "type": "uint256"
        }
      ],
      "name": "ETH_Withdrawn",
      "type": "event"
    },
    {
      "inputs": [
        {
          "internalType": "uint256",
          "name": "minimum_amount",
          "type": "uint256"
        },
        {
          "internalType": "uint256",
          "name": "nonce",
          "type": "uint256"
        },
        {
          "internalType": "bytes",
          "name": "signatures",
          "type": "bytes"
        }
      ],
      "name": "set_deposit_minimum",
      "outputs": [],
      "stateMutability": "nonpayable",
      "type": "function"
    },
    {
      "inputs": [
        {
          "internalType": "uint256",
          "name": "maximum_amount",
          "type": "uint256"
        },
        {
          "internalType": "uint256",
          "name": "nonce",
          "type": "uint256"
        },
        {
          "internalType": "bytes",
          "name": "signatures",
          "type": "bytes"
        }
      ],
      "name": "set_deposit_maximum",
      "outputs": [],
      "stateMutability": "nonpayable",
      "type": "function"
    },
    {
      "inputs": [
        {
          "internalType": "uint256",
          "name": "amount",
          "type": "uint256"
        },
        {
          "internalType": "uint256",
          "name": "expiry",
          "type": "uint256"
        },
        {
          "internalType": "address payable",
          "name": "target",
          "type": "address"
        },
        {
          "internalType": "uint256",
          "name": "nonce",
          "type": "uint256"
        },
        {
          "internalType": "bytes",
          "name": "signatures",
          "type": "bytes"
        }
      ],
      "name": "withdraw_asset",
      "outputs": [],
      "stateMutability": "nonpayable",
      "type": "function"
    },
    {
      "inputs": [
        {
          "internalType": "bytes32",
          "name": "vega_public_key",
          "type": "bytes32"
        }
      ],
      "name": "deposit_asset",
      "outputs": [],
      "stateMutability": "payable",
      "type": "function",
      "payable": true
    },
    {
      "inputs": [],
      "name": "get_deposit_minimum",
      "outputs": [
        {
          "internalType": "uint256",
          "name": "",
          "type": "uint256"
        }
      ],
      "stateMutability": "view",
      "type": "function",
      "constant": true
    },
    {
      "inputs": [],
      "name": "get_deposit_maximum",
      "outputs": [
        {
          "internalType": "uint256",
          "name": "",
          "type": "uint256"
        }
      ],
      "stateMutability": "view",
      "type": "function",
      "constant": true
    },
    {
      "inputs": [],
      "name": "get_multisig_control_address",
      "outputs": [
        {
          "internalType": "address",
          "name": "",
          "type": "address"
        }
      ],
      "stateMutability": "view",
      "type": "function",
      "constant": true
    },
    {
      "inputs": [],
      "name": "get_vega_asset_id",
      "outputs": [
        {
          "internalType": "bytes32",
          "name": "",
          "type": "bytes32"
        }
      ],
      "stateMutability": "view",
      "type": "function",
      "constant": true
    }
  ],
  "bytecode": "0x60806040523480156200001157600080fd5b5060405162001360380380620013608339818101604052810190620000379190620000e8565b806000806101000a81548173ffffffffffffffffffffffffffffffffffffffff021916908373ffffffffffffffffffffffffffffffffffffffff160217905550506200011a565b600080fd5b600073ffffffffffffffffffffffffffffffffffffffff82169050919050565b6000620000b08262000083565b9050919050565b620000c281620000a3565b8114620000ce57600080fd5b50565b600081519050620000e281620000b7565b92915050565b6000602082840312156200010157620001006200007e565b5b60006200011184828501620000d1565b91505092915050565b611236806200012a6000396000f3fe60806040526004361061007b5760003560e01c8063b38ec4061161004e578063b38ec40614610128578063c58dc3b914610151578063ceaf221b1461017c578063d172369c146101985761007b565b806339a2c7db1461008057806344957f74146100a95780637db94c82146100d457806380bc0668146100fd575b600080fd5b34801561008c57600080fd5b506100a760048036038101906100a29190610a7d565b6101c3565b005b3480156100b557600080fd5b506100be6103e9565b6040516100cb9190610b2d565b60405180910390f35b3480156100e057600080fd5b506100fb60048036038101906100f69190610b48565b6103f3565b005b34801561010957600080fd5b50610112610534565b60405161011f9190610bc6565b60405180910390f35b34801561013457600080fd5b5061014f600480360381019061014a9190610b48565b61053e565b005b34801561015d57600080fd5b5061016661067f565b6040516101739190610c02565b60405180910390f35b61019660048036038101906101919190610c49565b61068e565b005b3480156101a457600080fd5b506101ad6107df565b6040516101ba9190610bc6565b60405180910390f35b428411610205576040517f08c379a00000000000000000000000000000000000000000000000000000000081526004016101fc90610cd3565b60405180910390fd5b60008585858560405160200161021e9493929190610d4e565b60405160208183030381529060405290506102376107e9565b73ffffffffffffffffffffffffffffffffffffffff1663ba73659a8383866040518463ffffffff1660e01b815260040161027393929190610e2e565b602060405180830381600087803b15801561028d57600080fd5b505af11580156102a1573d6000803e3d6000fd5b505050506040513d601f19601f820116820180604052508101906102c59190610eab565b610304576040517f08c379a00000000000000000000000000000000000000000000000000000000081526004016102fb90610f24565b60405180910390fd5b60008054906101000a900473ffffffffffffffffffffffffffffffffffffffff1673ffffffffffffffffffffffffffffffffffffffff1663f3fef3a385886040518363ffffffff1660e01b815260040161035f929190610f44565b600060405180830381600087803b15801561037957600080fd5b505af115801561038d573d6000803e3d6000fd5b505050508373ffffffffffffffffffffffffffffffffffffffff167f6875a38a87618c964b80397bb7582ce2d937c2d458335f1ef75bbb9b8a69ce5387856040516103d9929190610f6d565b60405180910390a2505050505050565b6000600354905090565b60008383604051602001610408929190610fe2565b60405160208183030381529060405290506104216107e9565b73ffffffffffffffffffffffffffffffffffffffff1663ba73659a8383866040518463ffffffff1660e01b815260040161045d93929190610e2e565b602060405180830381600087803b15801561047757600080fd5b505af115801561048b573d6000803e3d6000fd5b505050506040513d601f19601f820116820180604052508101906104af9190610eab565b6104ee576040517f08c379a00000000000000000000000000000000000000000000000000000000081526004016104e590610f24565b60405180910390fd5b836002819055507f833d0d7919b4ba3e0dfbd5d7bd9ed614652dcfd8f80b43dcfc1ce2a7356a38fa8484604051610526929190610f6d565b60405180910390a150505050565b6000600154905090565b6000838360405160200161055392919061106a565b604051602081830303815290604052905061056c6107e9565b73ffffffffffffffffffffffffffffffffffffffff1663ba73659a8383866040518463ffffffff1660e01b81526004016105a893929190610e2e565b602060405180830381600087803b1580156105c257600080fd5b505af11580156105d6573d6000803e3d6000fd5b505050506040513d601f19601f820116820180604052508101906105fa9190610eab565b610639576040517f08c379a000000000000000000000000000000000000000000000000000000000815260040161063090610f24565b60405180910390fd5b836001819055507f963cdad18217aff9ffb0f4b78a5ad965769f190aff78736f0f958d58ab3ef9c98484604051610671929190610f6d565b60405180910390a150505050565b60006106896107e9565b905090565b600060025414806106a157506002543411155b6106e0576040517f08c379a00000000000000000000000000000000000000000000000000000000081526004016106d7906110f2565b60405180910390fd5b600154341015610725576040517f08c379a000000000000000000000000000000000000000000000000000000000815260040161071c9061115e565b60405180910390fd5b60008054906101000a900473ffffffffffffffffffffffffffffffffffffffff1673ffffffffffffffffffffffffffffffffffffffff166108fc349081150290604051600060405180830381858888f1935050505015801561078b573d6000803e3d6000fd5b503373ffffffffffffffffffffffffffffffffffffffff167fb1f58f9eaf7eb348df2fd084d223a7a441bc2c9f80c1bdae06db7131d9b7d7eb34836040516107d492919061117e565b60405180910390a250565b6000600254905090565b60008060009054906101000a900473ffffffffffffffffffffffffffffffffffffffff1673ffffffffffffffffffffffffffffffffffffffff1663b82d5abd6040518163ffffffff1660e01b815260040160206040518083038186803b15801561085257600080fd5b505afa158015610866573d6000803e3d6000fd5b505050506040513d601f19601f8201168201806040525081019061088a91906111d3565b905090565b6000604051905090565b600080fd5b600080fd5b6000819050919050565b6108b6816108a3565b81146108c157600080fd5b50565b6000813590506108d3816108ad565b92915050565b600073ffffffffffffffffffffffffffffffffffffffff82169050919050565b6000610904826108d9565b9050919050565b610914816108f9565b811461091f57600080fd5b50565b6000813590506109318161090b565b92915050565b600080fd5b600080fd5b6000601f19601f8301169050919050565b7f4e487b7100000000000000000000000000000000000000000000000000000000600052604160045260246000fd5b61098a82610941565b810181811067ffffffffffffffff821117156109a9576109a8610952565b5b80604052505050565b60006109bc61088f565b90506109c88282610981565b919050565b600067ffffffffffffffff8211156109e8576109e7610952565b5b6109f182610941565b9050602081019050919050565b82818337600083830152505050565b6000610a20610a1b846109cd565b6109b2565b905082815260208101848484011115610a3c57610a3b61093c565b5b610a478482856109fe565b509392505050565b600082601f830112610a6457610a63610937565b5b8135610a74848260208601610a0d565b91505092915050565b600080600080600060a08688031215610a9957610a98610899565b5b6000610aa7888289016108c4565b9550506020610ab8888289016108c4565b9450506040610ac988828901610922565b9350506060610ada888289016108c4565b925050608086013567ffffffffffffffff811115610afb57610afa61089e565b5b610b0788828901610a4f565b9150509295509295909350565b6000819050919050565b610b2781610b14565b82525050565b6000602082019050610b426000830184610b1e565b92915050565b600080600060608486031215610b6157610b60610899565b5b6000610b6f868287016108c4565b9350506020610b80868287016108c4565b925050604084013567ffffffffffffffff811115610ba157610ba061089e565b5b610bad86828701610a4f565b9150509250925092565b610bc0816108a3565b82525050565b6000602082019050610bdb6000830184610bb7565b92915050565b6000610bec826108d9565b9050919050565b610bfc81610be1565b82525050565b6000602082019050610c176000830184610bf3565b92915050565b610c2681610b14565b8114610c3157600080fd5b50565b600081359050610c4381610c1d565b92915050565b600060208284031215610c5f57610c5e610899565b5b6000610c6d84828501610c34565b91505092915050565b600082825260208201905092915050565b7f7769746864726177616c20686173206578706972656400000000000000000000600082015250565b6000610cbd601683610c76565b9150610cc882610c87565b602082019050919050565b60006020820190508181036000830152610cec81610cb0565b9050919050565b610cfc816108f9565b82525050565b7f77697468647261775f6173736574000000000000000000000000000000000000600082015250565b6000610d38600e83610c76565b9150610d4382610d02565b602082019050919050565b600060a082019050610d636000830187610bb7565b610d706020830186610bb7565b610d7d6040830185610cf3565b610d8a6060830184610bb7565b8181036080830152610d9b81610d2b565b905095945050505050565b600081519050919050565b600082825260208201905092915050565b60005b83811015610de0578082015181840152602081019050610dc5565b83811115610def576000848401525b50505050565b6000610e0082610da6565b610e0a8185610db1565b9350610e1a818560208601610dc2565b610e2381610941565b840191505092915050565b60006060820190508181036000830152610e488186610df5565b90508181036020830152610e5c8185610df5565b9050610e6b6040830184610bb7565b949350505050565b60008115159050919050565b610e8881610e73565b8114610e9357600080fd5b50565b600081519050610ea581610e7f565b92915050565b600060208284031215610ec157610ec0610899565b5b6000610ecf84828501610e96565b91505092915050565b7f626164207369676e617475726573000000000000000000000000000000000000600082015250565b6000610f0e600e83610c76565b9150610f1982610ed8565b602082019050919050565b60006020820190508181036000830152610f3d81610f01565b9050919050565b6000604082019050610f596000830185610cf3565b610f666020830184610bb7565b9392505050565b6000604082019050610f826000830185610bb7565b610f8f6020830184610bb7565b9392505050565b7f7365745f6465706f7369745f6d6178696d756d00000000000000000000000000600082015250565b6000610fcc601383610c76565b9150610fd782610f96565b602082019050919050565b6000606082019050610ff76000830185610bb7565b6110046020830184610bb7565b818103604083015261101581610fbf565b90509392505050565b7f7365745f6465706f7369745f6d696e696d756d00000000000000000000000000600082015250565b6000611054601383610c76565b915061105f8261101e565b602082019050919050565b600060608201905061107f6000830185610bb7565b61108c6020830184610bb7565b818103604083015261109d81611047565b90509392505050565b7f6465706f7369742061626f7665206d6178696d756d0000000000000000000000600082015250565b60006110dc601583610c76565b91506110e7826110a6565b602082019050919050565b6000602082019050818103600083015261110b816110cf565b9050919050565b7f6465706f7369742062656c6f77206d696e696d756d0000000000000000000000600082015250565b6000611148601583610c76565b915061115382611112565b602082019050919050565b600060208201905081810360008301526111778161113b565b9050919050565b60006040820190506111936000830185610bb7565b6111a06020830184610b1e565b9392505050565b6111b081610be1565b81146111bb57600080fd5b50565b6000815190506111cd816111a7565b92915050565b6000602082840312156111e9576111e8610899565b5b60006111f7848285016111be565b9150509291505056fea264697066735822122074de593d525d6184b03c5dc3830d185302199d9fbbbb16edc3b0ad6a3253831164736f6c63430008080033",
  "immutableReferences": {},
  "source": "//SPDX-License-Identifier: MIT\npragma solidity 0.8.8;\n\nimport \"./IETH_Bridge_Logic.sol\";\nimport \"./IMultisigControl.sol\";\nimport \"./ETH_Asset_Pool.sol\";\n\n/// @title ETH Bridge Logic\n/// @author Vega Protocol\n/// @notice This contract is used by Vega network users to deposit and withdraw ETH to/from Vega.\n// @notice All funds deposited/withdrawn are to/from the assigned ETH_Asset_Pool\ncontract ETH_Bridge_Logic is IETH_Bridge_Logic {\n\n    address payable ETH_asset_pool_address;\n\n    // minimum deposit amt\n    uint256 minimum_deposit;\n    // maximum deposit amt\n    uint256 maximum_deposit;\n\n    bytes32 vega_asset_id;\n\n    /// @param ETH_asset_pool Initial Asset Pool contract address\n    constructor(address payable ETH_asset_pool) {\n        ETH_asset_pool_address = ETH_asset_pool;\n    }\n    function multisig_control_address() internal view returns(address) {\n        return ETH_Asset_Pool(ETH_asset_pool_address).multisig_control_address();\n    }\n    /// @notice This function sets the minimum allowable deposit for ETH\n    /// @param minimum_amount Minimum deposit amount\n    /// @param nonce Vega-assigned single-use number that provides replay attack protection\n    /// @param signatures Vega-supplied signature bundle of a validator-signed order\n    /// @notice See MultisigControl for more about signatures\n    /// @dev Emits ETH_Deposit_Minimum_Set if successful\n    function set_deposit_minimum(uint256 minimum_amount, uint256 nonce, bytes memory signatures) public override{\n        bytes memory message = abi.encode(minimum_amount, nonce, 'set_deposit_minimum');\n        require(IMultisigControl(multisig_control_address()).verify_signatures(signatures, message, nonce), \"bad signatures\");\n        minimum_deposit = minimum_amount;\n        emit ETH_Deposit_Minimum_Set(minimum_amount, nonce);\n    }\n\n    /// @notice This function sets the maximum allowable deposit for ETH\n    /// @param maximum_amount Maximum deposit amount\n    /// @param nonce Vega-assigned single-use number that provides replay attack protection\n    /// @param signatures Vega-supplied signature bundle of a validator-signed order\n    /// @notice See MultisigControl for more about signatures\n    /// @dev Emits ETH_Deposit_Maximum_Set if successful\n    function set_deposit_maximum(uint256 maximum_amount, uint256 nonce, bytes memory signatures) public override {\n        bytes memory message = abi.encode(maximum_amount, nonce, 'set_deposit_maximum');\n        require(IMultisigControl(multisig_control_address()).verify_signatures(signatures, message, nonce), \"bad signatures\");\n        maximum_deposit = maximum_amount;\n        emit ETH_Deposit_Maximum_Set(maximum_amount, nonce);\n    }\n\n    /// @notice This function allows the withdrawal of ETH\n    /// @param amount Amount of ETH to withdraw\n    /// @param expiry Vega-assigned timestamp of withdrawal order expiration\n    /// @param target Target Ethereum address to receive withdrawn ETH\n    /// @param nonce Vega-assigned single-use number that provides replay attack protection\n    /// @param signatures Vega-supplied signature bundle of a validator-signed order\n    /// @notice See MultisigControl for more about signatures\n    /// @dev Emits ETH_Withdrawn if successful\n    function withdraw_asset(uint256 amount, uint256 expiry, address payable target, uint256 nonce, bytes memory signatures) public  override {\n        require(expiry > block.timestamp, \"withdrawal has expired\");\n        bytes memory message = abi.encode(amount, expiry, target,  nonce, 'withdraw_asset');\n        require(IMultisigControl(multisig_control_address()).verify_signatures(signatures, message, nonce), \"bad signatures\");\n        ETH_Asset_Pool(ETH_asset_pool_address).withdraw(target, amount);\n        emit ETH_Withdrawn(target, amount, nonce);\n    }\n\n    /// @notice This function allows a user to deposit ETH into Vega\n    /// @param vega_public_key Target vega public key to be credited with this deposit\n    /// @dev Emits ETH_Deposited if successful\n    function deposit_asset(bytes32 vega_public_key) public payable override {\n        require(maximum_deposit == 0 || msg.value <= maximum_deposit, \"deposit above maximum\");\n        require(msg.value >= minimum_deposit, \"deposit below minimum\");\n        ETH_asset_pool_address.transfer(msg.value);\n        emit ETH_Deposited(msg.sender, msg.value, vega_public_key);\n    }\n\n    /***************************VIEWS*****************************/\n    /// @notice This view returns minimum valid deposit\n    /// @return Minimum valid deposit of ETH\n    function get_deposit_minimum() public override view returns(uint256){\n        return minimum_deposit;\n    }\n\n    /// @notice This view returns maximum valid deposit\n    /// @return Maximum valid deposit of ETH\n    function get_deposit_maximum() public override view returns(uint256){\n        return maximum_deposit;\n    }\n\n    /// @return current multisig_control_address\n    function get_multisig_control_address() public override view returns(address) {\n        return multisig_control_address();\n    }\n\n    /// @return The assigned Vega Asset Id\n    function get_vega_asset_id() public override view returns(bytes32){\n        return vega_asset_id;\n    }\n\n}\n\n/**\nMMMMMMMMMMMMMMMMMMMMMMMMMMMMMMMMMMMMMMMMMMMMMMMMMMMMMMMMMMMM\nMMMMMMMMMMMMMMMMMMMMMMMMMMMMMMMMMMMMMMMMMMMMMMMMMMMMMMMMMMMM\nMMMMWEMMMMMMMMMMMMMMMMMMMMMMMMMM...............MMMMMMMMMMMMM\nMMMMMMLOVEMMMMMMMMMMMMMMMMMMMMMM...............MMMMMMMMMMMMM\nMMMMMMMMMMHIXELMMMMMMMMMMMM....................MMMMMNNMMMMMM\nMMMMMMMMMMMMMMMMMMMMMMMMMMM....................MMMMMMMMMMMMM\nMMMMMMMMMMMMMMMMMMMMMM88=........................+MMMMMMMMMM\nMMMMMMMMMMMMMMMMM....................MMMMM...MMMMMMMMMMMMMMM\nMMMMMMMMMMMMMMMMM....................MMMMM...MMMMMMMMMMMMMMM\nMMMMMMMMMMMM.........................MM+..MMM....+MMMMMMMMMM\nMMMMMMMMMNMM...................... ..MM?..MMM.. .+MMMMMMMMMM\nMMMMNDDMM+........................+MM........MM..+MMMMMMMMMM\nMMMMZ.............................+MM....................MMM\nMMMMZ.............................+MM....................MMM\nMMMMZ.............................+MM....................DDD\nMMMMZ.............................+MM..ZMMMMMMMMMMMMMMMMMMMM\nMMMMZ.............................+MM..ZMMMMMMMMMMMMMMMMMMMM\nMM..............................MMZ....ZMMMMMMMMMMMMMMMMMMMM\nMM............................MM.......ZMMMMMMMMMMMMMMMMMMMM\nMM............................MM.......ZMMMMMMMMMMMMMMMMMMMM\nMM......................ZMMMMM.......MMMMMMMMMMMMMMMMMMMMMMM\nMM............... ......ZMMMMM.... ..MMMMMMMMMMMMMMMMMMMMMMM\nMM...............MMMMM88~.........+MM..ZMMMMMMMMMMMMMMMMMMMM\nMM.......$DDDDDDD.......$DDDDD..DDNMM..ZMMMMMMMMMMMMMMMMMMMM\nMM.......$DDDDDDD.......$DDDDD..DDNMM..ZMMMMMMMMMMMMMMMMMMMM\nMM.......ZMMMMMMM.......ZMMMMM..MMMMM..ZMMMMMMMMMMMMMMMMMMMM\nMMMMMMMMM+.......MMMMM88NMMMMM..MMMMMMMMMMMMMMMMMMMMMMMMMMMM\nMMMMMMMMM+.......MMMMM88NMMMMM..MMMMMMMMMMMMMMMMMMMMMMMMMMMM\nMMMMMMMMMMMMMMMMMMMMMMMMMMMMMMMMMMMMMMMMMMMMMMMMMMMMMMMMMMMM\nMMMMMMMMMMMMMMMMMMMMMMMMMMMMMMMMMMMMMMMMMMMMMMMMMMMMMMMMMMMM*/\n",
  "sourcePath": "/Users/nemitariajienka/Desktop/projects/MultisigControl/contracts/ETH_Bridge_Logic.sol",
  "compiler": {
    "name": "solc",
    "version": "0.8.8+commit.dddeac2f.Emscripten.clang"
  },
  "schemaVersion": "3.3.3",
  "updatedAt": "2022-04-27T12:07:27.956Z",
  "networkType": "ethereum",
  "devdoc": {
    "author": "Vega Protocol",
    "kind": "dev",
    "methods": {
      "constructor": {
        "params": {
          "ETH_asset_pool": "Initial Asset Pool contract address"
        }
      },
      "deposit_asset(bytes32)": {
        "details": "Emits ETH_Deposited if successful",
        "params": {
          "vega_public_key": "Target vega public key to be credited with this deposit"
        }
      },
      "get_deposit_maximum()": {
        "returns": {
          "_0": "Maximum valid deposit of ETH"
        }
      },
      "get_deposit_minimum()": {
        "returns": {
          "_0": "Minimum valid deposit of ETH"
        }
      },
      "get_multisig_control_address()": {
        "returns": {
          "_0": "current multisig_control_address"
        }
      },
      "get_vega_asset_id()": {
        "returns": {
          "_0": "The assigned Vega Asset Id"
        }
      },
      "set_deposit_maximum(uint256,uint256,bytes)": {
        "details": "Emits ETH_Deposit_Maximum_Set if successful",
        "params": {
          "maximum_amount": "Maximum deposit amount",
          "nonce": "Vega-assigned single-use number that provides replay attack protection",
          "signatures": "Vega-supplied signature bundle of a validator-signed order"
        }
      },
      "set_deposit_minimum(uint256,uint256,bytes)": {
        "details": "Emits ETH_Deposit_Minimum_Set if successful",
        "params": {
          "minimum_amount": "Minimum deposit amount",
          "nonce": "Vega-assigned single-use number that provides replay attack protection",
          "signatures": "Vega-supplied signature bundle of a validator-signed order"
        }
      },
      "withdraw_asset(uint256,uint256,address,uint256,bytes)": {
        "details": "Emits ETH_Withdrawn if successful",
        "params": {
          "amount": "Amount of ETH to withdraw",
          "expiry": "Vega-assigned timestamp of withdrawal order expiration",
          "nonce": "Vega-assigned single-use number that provides replay attack protection",
          "signatures": "Vega-supplied signature bundle of a validator-signed order",
          "target": "Target Ethereum address to receive withdrawn ETH"
        }
      }
    },
    "title": "ETH Bridge Logic",
    "version": 1
  },
  "userdoc": {
    "kind": "user",
    "methods": {
      "deposit_asset(bytes32)": {
        "notice": "This function allows a user to deposit ETH into Vega"
      },
      "get_deposit_maximum()": {
        "notice": "This view returns maximum valid deposit"
      },
      "get_deposit_minimum()": {
        "notice": "This view returns minimum valid deposit"
      },
      "set_deposit_maximum(uint256,uint256,bytes)": {
        "notice": "This function sets the maximum allowable deposit for ETHSee MultisigControl for more about signatures"
      },
      "set_deposit_minimum(uint256,uint256,bytes)": {
        "notice": "This function sets the minimum allowable deposit for ETHSee MultisigControl for more about signatures"
      },
      "withdraw_asset(uint256,uint256,address,uint256,bytes)": {
        "notice": "This function allows the withdrawal of ETHSee MultisigControl for more about signatures"
      }
    },
    "notice": "This contract is used by Vega network users to deposit and withdraw ETH to/from Vega.",
    "version": 1
  }
}