{
  "contractName": "ETH_Asset_Pool",
  "abi": [
    {
      "inputs": [
        {
          "internalType": "address",
          "name": "multisig_control",
          "type": "address"
        }
      ],
      "stateMutability": "nonpayable",
      "type": "constructor"
    },
    {
      "anonymous": false,
      "inputs": [
        {
          "indexed": true,
          "internalType": "address",
          "name": "new_address",
          "type": "address"
        }
      ],
      "name": "Bridge_Address_Set",
      "type": "event"
    },
    {
      "anonymous": false,
      "inputs": [
        {
          "indexed": true,
          "internalType": "address",
          "name": "new_address",
          "type": "address"
        }
      ],
      "name": "Multisig_Control_Set",
      "type": "event"
    },
    {
      "anonymous": false,
      "inputs": [
        {
          "indexed": true,
          "internalType": "address",
          "name": "sender",
          "type": "address"
        },
        {
          "indexed": false,
          "internalType": "uint256",
          "name": "amount",
          "type": "uint256"
        }
      ],
      "name": "Received",
      "type": "event"
    },
    {
      "inputs": [],
      "name": "ETH_bridge_address",
      "outputs": [
        {
          "internalType": "address",
          "name": "",
          "type": "address"
        }
      ],
      "stateMutability": "view",
      "type": "function"
    },
    {
      "inputs": [],
      "name": "multisig_control_address",
      "outputs": [
        {
          "internalType": "address",
          "name": "",
          "type": "address"
        }
      ],
      "stateMutability": "view",
      "type": "function"
    },
    {
      "stateMutability": "payable",
      "type": "receive"
    },
    {
      "inputs": [
        {
          "internalType": "address",
          "name": "new_address",
          "type": "address"
        },
        {
          "internalType": "uint256",
          "name": "nonce",
          "type": "uint256"
        },
        {
          "internalType": "bytes",
          "name": "signatures",
          "type": "bytes"
        }
      ],
      "name": "set_multisig_control",
      "outputs": [],
      "stateMutability": "nonpayable",
      "type": "function"
    },
    {
      "inputs": [
        {
          "internalType": "address",
          "name": "new_address",
          "type": "address"
        },
        {
          "internalType": "uint256",
          "name": "nonce",
          "type": "uint256"
        },
        {
          "internalType": "bytes",
          "name": "signatures",
          "type": "bytes"
        }
      ],
      "name": "set_bridge_address",
      "outputs": [],
      "stateMutability": "nonpayable",
      "type": "function"
    },
    {
      "inputs": [
        {
          "internalType": "address payable",
          "name": "target",
          "type": "address"
        },
        {
          "internalType": "uint256",
          "name": "amount",
          "type": "uint256"
        }
      ],
      "name": "withdraw",
      "outputs": [],
      "stateMutability": "nonpayable",
      "type": "function"
    }
  ],
  "bytecode": "0x608060405234801561001057600080fd5b50604051620010703803806200107083398181016040528101906100349190610120565b806000806101000a81548173ffffffffffffffffffffffffffffffffffffffff021916908373ffffffffffffffffffffffffffffffffffffffff1602179055508073ffffffffffffffffffffffffffffffffffffffff167f1143e675ad794f5bd81a05b165b166be3a4e91f17d065f08809d88cefbd6540660405160405180910390a25061014d565b600080fd5b600073ffffffffffffffffffffffffffffffffffffffff82169050919050565b60006100ed826100c2565b9050919050565b6100fd816100e2565b811461010857600080fd5b50565b60008151905061011a816100f4565b92915050565b600060208284031215610136576101356100bd565b5b60006101448482850161010b565b91505092915050565b610f13806200015d6000396000f3fe60806040526004361061004e5760003560e01c806317aec1b4146100a857806363bb28e0146100d3578063aeed8f95146100fc578063b82d5abd14610125578063f3fef3a314610150576100a3565b366100a3573373ffffffffffffffffffffffffffffffffffffffff167f88a5966d370b9919b20f3e2c13ff65706f196a4e32cc2c12bf57088f88525874346040516100999190610712565b60405180910390a2005b600080fd5b3480156100b457600080fd5b506100bd610179565b6040516100ca919061076e565b60405180910390f35b3480156100df57600080fd5b506100fa60048036038101906100f5919061093b565b61019f565b005b34801561010857600080fd5b50610123600480360381019061011e919061093b565b61033d565b005b34801561013157600080fd5b5061013a610594565b604051610147919061076e565b60405180910390f35b34801561015c57600080fd5b50610177600480360381019061017291906109e8565b6105b8565b005b600160009054906101000a900473ffffffffffffffffffffffffffffffffffffffff1681565b600083836040516020016101b4929190610a85565b604051602081830303815290604052905060008054906101000a900473ffffffffffffffffffffffffffffffffffffffff1673ffffffffffffffffffffffffffffffffffffffff1663ba73659a8383866040518463ffffffff1660e01b815260040161022293929190610b49565b602060405180830381600087803b15801561023c57600080fd5b505af1158015610250573d6000803e3d6000fd5b505050506040513d601f19601f820116820180604052508101906102749190610bc6565b6102b3576040517f08c379a00000000000000000000000000000000000000000000000000000000081526004016102aa90610c3f565b60405180910390fd5b83600160006101000a81548173ffffffffffffffffffffffffffffffffffffffff021916908373ffffffffffffffffffffffffffffffffffffffff1602179055508373ffffffffffffffffffffffffffffffffffffffff167ff57d83269802e794395bfd99d93c82bf997d03ec73f8d4c607e8ff18b8cc62f260405160405180910390a250505050565b600073ffffffffffffffffffffffffffffffffffffffff168373ffffffffffffffffffffffffffffffffffffffff1614156103ad576040517f08c379a00000000000000000000000000000000000000000000000000000000081526004016103a490610cab565b60405180910390fd5b6000833b9050600081116103f6576040517f08c379a00000000000000000000000000000000000000000000000000000000081526004016103ed90610d17565b60405180910390fd5b6000848460405160200161040b929190610d83565b604051602081830303815290604052905060008054906101000a900473ffffffffffffffffffffffffffffffffffffffff1673ffffffffffffffffffffffffffffffffffffffff1663ba73659a8483876040518463ffffffff1660e01b815260040161047993929190610b49565b602060405180830381600087803b15801561049357600080fd5b505af11580156104a7573d6000803e3d6000fd5b505050506040513d601f19601f820116820180604052508101906104cb9190610bc6565b61050a576040517f08c379a000000000000000000000000000000000000000000000000000000000815260040161050190610c3f565b60405180910390fd5b846000806101000a81548173ffffffffffffffffffffffffffffffffffffffff021916908373ffffffffffffffffffffffffffffffffffffffff1602179055508473ffffffffffffffffffffffffffffffffffffffff167f1143e675ad794f5bd81a05b165b166be3a4e91f17d065f08809d88cefbd6540660405160405180910390a25050505050565b60008054906101000a900473ffffffffffffffffffffffffffffffffffffffff1681565b600160009054906101000a900473ffffffffffffffffffffffffffffffffffffffff1673ffffffffffffffffffffffffffffffffffffffff163373ffffffffffffffffffffffffffffffffffffffff1614610648576040517f08c379a000000000000000000000000000000000000000000000000000000000815260040161063f90610e0b565b60405180910390fd5b60008273ffffffffffffffffffffffffffffffffffffffff168260405161066e90610e5c565b60006040518083038185875af1925050503d80600081146106ab576040519150601f19603f3d011682016040523d82523d6000602084013e6106b0565b606091505b50509050806106f4576040517f08c379a00000000000000000000000000000000000000000000000000000000081526004016106eb90610ebd565b60405180910390fd5b505050565b6000819050919050565b61070c816106f9565b82525050565b60006020820190506107276000830184610703565b92915050565b600073ffffffffffffffffffffffffffffffffffffffff82169050919050565b60006107588261072d565b9050919050565b6107688161074d565b82525050565b6000602082019050610783600083018461075f565b92915050565b6000604051905090565b600080fd5b600080fd5b6107a68161074d565b81146107b157600080fd5b50565b6000813590506107c38161079d565b92915050565b6107d2816106f9565b81146107dd57600080fd5b50565b6000813590506107ef816107c9565b92915050565b600080fd5b600080fd5b6000601f19601f8301169050919050565b7f4e487b7100000000000000000000000000000000000000000000000000000000600052604160045260246000fd5b610848826107ff565b810181811067ffffffffffffffff8211171561086757610866610810565b5b80604052505050565b600061087a610789565b9050610886828261083f565b919050565b600067ffffffffffffffff8211156108a6576108a5610810565b5b6108af826107ff565b9050602081019050919050565b82818337600083830152505050565b60006108de6108d98461088b565b610870565b9050828152602081018484840111156108fa576108f96107fa565b5b6109058482856108bc565b509392505050565b600082601f830112610922576109216107f5565b5b81356109328482602086016108cb565b91505092915050565b60008060006060848603121561095457610953610793565b5b6000610962868287016107b4565b9350506020610973868287016107e0565b925050604084013567ffffffffffffffff81111561099457610993610798565b5b6109a08682870161090d565b9150509250925092565b60006109b58261072d565b9050919050565b6109c5816109aa565b81146109d057600080fd5b50565b6000813590506109e2816109bc565b92915050565b600080604083850312156109ff576109fe610793565b5b6000610a0d858286016109d3565b9250506020610a1e858286016107e0565b9150509250929050565b600082825260208201905092915050565b7f7365745f6272696467655f616464726573730000000000000000000000000000600082015250565b6000610a6f601283610a28565b9150610a7a82610a39565b602082019050919050565b6000606082019050610a9a600083018561075f565b610aa76020830184610703565b8181036040830152610ab881610a62565b90509392505050565b600081519050919050565b600082825260208201905092915050565b60005b83811015610afb578082015181840152602081019050610ae0565b83811115610b0a576000848401525b50505050565b6000610b1b82610ac1565b610b258185610acc565b9350610b35818560208601610add565b610b3e816107ff565b840191505092915050565b60006060820190508181036000830152610b638186610b10565b90508181036020830152610b778185610b10565b9050610b866040830184610703565b949350505050565b60008115159050919050565b610ba381610b8e565b8114610bae57600080fd5b50565b600081519050610bc081610b9a565b92915050565b600060208284031215610bdc57610bdb610793565b5b6000610bea84828501610bb1565b91505092915050565b7f626164207369676e617475726573000000000000000000000000000000000000600082015250565b6000610c29600e83610a28565b9150610c3482610bf3565b602082019050919050565b60006020820190508181036000830152610c5881610c1c565b9050919050565b7f696e76616c6964204d756c7469736967436f6e74726f6c206164647265737300600082015250565b6000610c95601f83610a28565b9150610ca082610c5f565b602082019050919050565b60006020820190508181036000830152610cc481610c88565b9050919050565b7f6e65772061646472657373206d75737420626520636f6e747261637400000000600082015250565b6000610d01601c83610a28565b9150610d0c82610ccb565b602082019050919050565b60006020820190508181036000830152610d3081610cf4565b9050919050565b7f7365745f6d756c74697369675f636f6e74726f6c000000000000000000000000600082015250565b6000610d6d601483610a28565b9150610d7882610d37565b602082019050919050565b6000606082019050610d98600083018561075f565b610da56020830184610703565b8181036040830152610db681610d60565b90509392505050565b7f6d73672e73656e646572206e6f7420617574686f72697a656420627269646765600082015250565b6000610df5602083610a28565b9150610e0082610dbf565b602082019050919050565b60006020820190508181036000830152610e2481610de8565b9050919050565b600081905092915050565b50565b6000610e46600083610e2b565b9150610e5182610e36565b600082019050919050565b6000610e6782610e39565b9150819050919050565b7f657468207472616e73666572206661696c656400000000000000000000000000600082015250565b6000610ea7601383610a28565b9150610eb282610e71565b602082019050919050565b60006020820190508181036000830152610ed681610e9a565b905091905056fea26469706673582212201006086999fa849f16d9bd6c517e917c096a6600025ea427ea1e6b1d3b4924e464736f6c63430008080033",
  "immutableReferences": {},
  "source": "//SPDX-License-Identifier: MIT\npragma solidity 0.8.8;\n\nimport \"./IMultisigControl.sol\";\n\n/// @title ETH Asset Pool\n/// @author Vega Protocol\n/// @notice This contract is the target for all deposits to the ETH Bridge via ETH_Bridge_Logic\ncontract ETH_Asset_Pool {\n\n    event Multisig_Control_Set(address indexed new_address);\n    event Bridge_Address_Set(address indexed new_address);\n    event Received(address indexed sender, uint amount);\n\n    /// @return Current MultisigControl contract address\n    address public multisig_control_address;\n\n    /// @return Current ETH_Bridge_Logic contract address\n    address public ETH_bridge_address;\n\n    /// @param multisig_control The initial MultisigControl contract address\n    /// @notice Emits Multisig_Control_Set event\n    constructor(address multisig_control) {\n        multisig_control_address = multisig_control;\n        emit Multisig_Control_Set(multisig_control);\n    }\n\n    /// @param new_address The new MultisigControl contract address.\n    /// @param nonce Vega-assigned single-use number that provides replay attack protection\n    /// @param signatures Vega-supplied signature bundle of a validator-signed set_multisig_control order\n    /// @notice See MultisigControl for more about signatures\n    /// @notice Emits Multisig_Control_Set event\n    function set_multisig_control(address new_address, uint256 nonce, bytes memory signatures) public {\n        require(new_address != address(0), \"invalid MultisigControl address\");\n        uint256 size;\n        assembly {\n           size := extcodesize(new_address)\n        }\n        require(size > 0, \"new address must be contract\");\n        bytes memory message = abi.encode(new_address, nonce, 'set_multisig_control');\n        require(IMultisigControl(multisig_control_address).verify_signatures(signatures, message, nonce), \"bad signatures\");\n        multisig_control_address = new_address;\n        emit Multisig_Control_Set(new_address);\n    }\n\n    /// @param new_address The new ETH_Bridge_Logic contract address.\n    /// @param nonce Vega-assigned single-use number that provides replay attack protection\n    /// @param signatures Vega-supplied signature bundle of a validator-signed set_bridge_address order\n    /// @notice See MultisigControl for more about signatures\n    /// @notice Emits Bridge_Address_Set event\n    function set_bridge_address(address new_address, uint256 nonce, bytes memory signatures) public {\n        bytes memory message = abi.encode(new_address, nonce, 'set_bridge_address');\n        require(IMultisigControl(multisig_control_address).verify_signatures(signatures, message, nonce), \"bad signatures\");\n        ETH_bridge_address = new_address;\n        emit Bridge_Address_Set(new_address);\n    }\n\n    /// @notice This function can only be run by the current \"multisig_control_address\" and, if available, will send the target eth to the target\n    /// @param target Target Ethereum address that the ETH will be sent to\n    /// @param amount Amount of ETH to withdraw\n    /// @dev amount is in wei, 1 wei == 0.000000000000000001 ETH\n    function withdraw(address payable target, uint256 amount) public {\n        require(msg.sender == ETH_bridge_address, \"msg.sender not authorized bridge\");\n        /// @dev reentry is protected by the non-reusable nonce in the signature check in the ETH_Bridge_Logic\n        (bool success,) = target.call{value: amount}(\"\");\n        require(success, \"eth transfer failed\");\n    }\n\n    /// @notice A contract can have at most one receive function,\n    /// declared using receive() external payable { ... }\n    /// (without the function keyword). This function cannot have arguments,\n    /// cannot return anything and must have external visibility and payable state\n    /// mutability. It is executed on a call to the contract with empty calldata.\n    /// This is the function that is executed on plain Ether transfers (e.g. via .send()\n    /// or .transfer()). If no such function exists, but a payable fallback\n    /// function exists, the fallback function will be called on a plain Ether\n    /// transfer. If neither a receive Ether nor a payable fallback function is\n    /// present, the contract cannot receive Ether through regular transactions\n    /// and throws an exception.\n    receive() external payable {\n        emit Received(msg.sender, msg.value);\n    }\n\n}\n\n/**\nMMMMMMMMMMMMMMMMMMMMMMMMMMMMMMMMMMMMMMMMMMMMMMMMMMMMMMMMMMMM\nMMMMMMMMMMMMMMMMMMMMMMMMMMMMMMMMMMMMMMMMMMMMMMMMMMMMMMMMMMMM\nMMMMWEMMMMMMMMMMMMMMMMMMMMMMMMMM...............MMMMMMMMMMMMM\nMMMMMMLOVEMMMMMMMMMMMMMMMMMMMMMM...............MMMMMMMMMMMMM\nMMMMMMMMMMHIXELMMMMMMMMMMMM....................MMMMMNNMMMMMM\nMMMMMMMMMMMMMMMMMMMMMMMMMMM....................MMMMMMMMMMMMM\nMMMMMMMMMMMMMMMMMMMMMM88=........................+MMMMMMMMMM\nMMMMMMMMMMMMMMMMM....................MMMMM...MMMMMMMMMMMMMMM\nMMMMMMMMMMMMMMMMM....................MMMMM...MMMMMMMMMMMMMMM\nMMMMMMMMMMMM.........................MM+..MMM....+MMMMMMMMMM\nMMMMMMMMMNMM...................... ..MM?..MMM.. .+MMMMMMMMMM\nMMMMNDDMM+........................+MM........MM..+MMMMMMMMMM\nMMMMZ.............................+MM....................MMM\nMMMMZ.............................+MM....................MMM\nMMMMZ.............................+MM....................DDD\nMMMMZ.............................+MM..ZMMMMMMMMMMMMMMMMMMMM\nMMMMZ.............................+MM..ZMMMMMMMMMMMMMMMMMMMM\nMM..............................MMZ....ZMMMMMMMMMMMMMMMMMMMM\nMM............................MM.......ZMMMMMMMMMMMMMMMMMMMM\nMM............................MM.......ZMMMMMMMMMMMMMMMMMMMM\nMM......................ZMMMMM.......MMMMMMMMMMMMMMMMMMMMMMM\nMM............... ......ZMMMMM.... ..MMMMMMMMMMMMMMMMMMMMMMM\nMM...............MMMMM88~.........+MM..ZMMMMMMMMMMMMMMMMMMMM\nMM.......$DDDDDDD.......$DDDDD..DDNMM..ZMMMMMMMMMMMMMMMMMMMM\nMM.......$DDDDDDD.......$DDDDD..DDNMM..ZMMMMMMMMMMMMMMMMMMMM\nMM.......ZMMMMMMM.......ZMMMMM..MMMMM..ZMMMMMMMMMMMMMMMMMMMM\nMMMMMMMMM+.......MMMMM88NMMMMM..MMMMMMMMMMMMMMMMMMMMMMMMMMMM\nMMMMMMMMM+.......MMMMM88NMMMMM..MMMMMMMMMMMMMMMMMMMMMMMMMMMM\nMMMMMMMMMMMMMMMMMMMMMMMMMMMMMMMMMMMMMMMMMMMMMMMMMMMMMMMMMMMM\nMMMMMMMMMMMMMMMMMMMMMMMMMMMMMMMMMMMMMMMMMMMMMMMMMMMMMMMMMMMM*/\n",
  "sourcePath": "/Users/nemitariajienka/Desktop/projects/MultisigControl/contracts/ETH_Asset_Pool.sol",
  "compiler": {
    "name": "solc",
    "version": "0.8.8+commit.dddeac2f.Emscripten.clang"
  },
  "schemaVersion": "3.3.3",
  "updatedAt": "2022-04-28T16:40:52.611Z",
  "devdoc": {
    "author": "Vega Protocol",
    "kind": "dev",
    "methods": {
      "constructor": {
        "params": {
          "multisig_control": "The initial MultisigControl contract address"
        }
      },
      "set_bridge_address(address,uint256,bytes)": {
        "params": {
          "new_address": "The new ETH_Bridge_Logic contract address.",
          "nonce": "Vega-assigned single-use number that provides replay attack protection",
          "signatures": "Vega-supplied signature bundle of a validator-signed set_bridge_address order"
        }
      },
      "set_multisig_control(address,uint256,bytes)": {
        "params": {
          "new_address": "The new MultisigControl contract address.",
          "nonce": "Vega-assigned single-use number that provides replay attack protection",
          "signatures": "Vega-supplied signature bundle of a validator-signed set_multisig_control order"
        }
      },
      "withdraw(address,uint256)": {
        "details": "amount is in wei, 1 wei == 0.000000000000000001 ETH",
        "params": {
          "amount": "Amount of ETH to withdraw",
          "target": "Target Ethereum address that the ETH will be sent to"
        }
      }
    },
    "stateVariables": {
      "ETH_bridge_address": {
        "return": "Current ETH_Bridge_Logic contract address",
        "returns": {
          "_0": "Current ETH_Bridge_Logic contract address"
        }
      },
      "multisig_control_address": {
        "return": "Current MultisigControl contract address",
        "returns": {
          "_0": "Current MultisigControl contract address"
        }
      }
    },
    "title": "ETH Asset Pool",
    "version": 1
  },
  "userdoc": {
    "kind": "user",
    "methods": {
      "constructor": {
        "notice": "Emits Multisig_Control_Set event"
      },
      "set_bridge_address(address,uint256,bytes)": {
        "notice": "See MultisigControl for more about signaturesEmits Bridge_Address_Set event"
      },
      "set_multisig_control(address,uint256,bytes)": {
        "notice": "See MultisigControl for more about signaturesEmits Multisig_Control_Set event"
      },
      "withdraw(address,uint256)": {
        "notice": "This function can only be run by the current \"multisig_control_address\" and, if available, will send the target eth to the target"
      }
    },
    "notice": "This contract is the target for all deposits to the ETH Bridge via ETH_Bridge_Logic",
    "version": 1
  }
}