{
  "contractName": "MultisigControl",
  "abi": [
    {
      "inputs": [],
      "payable": false,
      "stateMutability": "nonpayable",
      "type": "constructor"
    },
    {
      "anonymous": false,
      "inputs": [
        {
          "indexed": true,
          "internalType": "address",
          "name": "previousOwner",
          "type": "address"
        },
        {
          "indexed": true,
          "internalType": "address",
          "name": "newOwner",
          "type": "address"
        }
      ],
      "name": "OwnershipTransferred",
      "type": "event"
    },
    {
      "anonymous": false,
      "inputs": [
        {
          "indexed": false,
          "internalType": "address",
          "name": "new_signer",
          "type": "address"
        }
      ],
      "name": "SignerAdded",
      "type": "event"
    },
    {
      "anonymous": false,
      "inputs": [
        {
          "indexed": false,
          "internalType": "address",
          "name": "new_signer",
          "type": "address"
        }
      ],
      "name": "SignerAdded_Admin",
      "type": "event"
    },
    {
      "anonymous": false,
      "inputs": [
        {
          "indexed": false,
          "internalType": "address",
          "name": "old_signer",
          "type": "address"
        }
      ],
      "name": "SignerRemoved",
      "type": "event"
    },
    {
      "anonymous": false,
      "inputs": [
        {
          "indexed": false,
          "internalType": "address",
          "name": "old_signer",
          "type": "address"
        }
      ],
      "name": "SignerRemoved_Admin",
      "type": "event"
    },
    {
      "anonymous": false,
      "inputs": [
        {
          "indexed": false,
          "internalType": "uint16",
          "name": "new_threshold",
          "type": "uint16"
        }
      ],
      "name": "ThresholdSet",
      "type": "event"
    },
    {
      "anonymous": false,
      "inputs": [
        {
          "indexed": false,
          "internalType": "uint16",
          "name": "new_threshold",
          "type": "uint16"
        }
      ],
      "name": "ThresholdSet_Admin",
      "type": "event"
    },
    {
      "constant": true,
      "inputs": [],
      "name": "isOwner",
      "outputs": [
        {
          "internalType": "bool",
          "name": "",
          "type": "bool"
        }
      ],
      "payable": false,
      "stateMutability": "view",
      "type": "function"
    },
    {
      "constant": true,
      "inputs": [],
      "name": "owner",
      "outputs": [
        {
          "internalType": "address",
          "name": "",
          "type": "address"
        }
      ],
      "payable": false,
      "stateMutability": "view",
      "type": "function"
    },
    {
      "constant": false,
      "inputs": [],
      "name": "renounceOwnership",
      "outputs": [],
      "payable": false,
      "stateMutability": "nonpayable",
      "type": "function"
    },
    {
      "constant": false,
      "inputs": [
        {
          "internalType": "address",
          "name": "newOwner",
          "type": "address"
        }
      ],
      "name": "transferOwnership",
      "outputs": [],
      "payable": false,
      "stateMutability": "nonpayable",
      "type": "function"
    },
    {
      "constant": true,
      "inputs": [
        {
          "internalType": "address",
          "name": "target",
          "type": "address"
        }
      ],
      "name": "get_msg_bytes",
      "outputs": [
        {
          "internalType": "bytes",
          "name": "",
          "type": "bytes"
        }
      ],
      "payable": false,
      "stateMutability": "view",
      "type": "function"
    },
    {
      "constant": true,
      "inputs": [
        {
          "internalType": "address",
          "name": "target",
          "type": "address"
        }
      ],
      "name": "get_msg_hash",
      "outputs": [
        {
          "internalType": "bytes32",
          "name": "",
          "type": "bytes32"
        }
      ],
      "payable": false,
      "stateMutability": "view",
      "type": "function"
    },
    {
      "constant": true,
      "inputs": [],
      "name": "do_math",
      "outputs": [
        {
          "internalType": "uint256",
          "name": "",
          "type": "uint256"
        }
      ],
      "payable": false,
      "stateMutability": "view",
      "type": "function"
    },
    {
      "constant": false,
      "inputs": [
        {
          "internalType": "address",
          "name": "new_signer",
          "type": "address"
        }
      ],
      "name": "add_signer_admin",
      "outputs": [],
      "payable": false,
      "stateMutability": "nonpayable",
      "type": "function"
    },
    {
      "constant": false,
      "inputs": [
        {
          "internalType": "address",
          "name": "old_signer",
          "type": "address"
        }
      ],
      "name": "remove_signer_admin",
      "outputs": [],
      "payable": false,
      "stateMutability": "nonpayable",
      "type": "function"
    },
    {
      "constant": false,
      "inputs": [
        {
          "internalType": "uint16",
          "name": "new_threshold",
          "type": "uint16"
        }
      ],
      "name": "set_threshold_admin",
      "outputs": [],
      "payable": false,
      "stateMutability": "nonpayable",
      "type": "function"
    },
    {
      "constant": false,
      "inputs": [
        {
          "internalType": "uint8",
          "name": "new_threshold",
          "type": "uint8"
        },
        {
          "internalType": "uint256",
          "name": "nonce",
          "type": "uint256"
        },
        {
          "internalType": "bytes",
          "name": "signatures",
          "type": "bytes"
        }
      ],
      "name": "set_threshold",
      "outputs": [],
      "payable": false,
      "stateMutability": "nonpayable",
      "type": "function"
    },
    {
      "constant": false,
      "inputs": [
        {
          "internalType": "address",
          "name": "new_signer",
          "type": "address"
        },
        {
          "internalType": "uint256",
          "name": "nonce",
          "type": "uint256"
        },
        {
          "internalType": "bytes",
          "name": "signatures",
          "type": "bytes"
        }
      ],
      "name": "add_signer",
      "outputs": [],
      "payable": false,
      "stateMutability": "nonpayable",
      "type": "function"
    },
    {
      "constant": false,
      "inputs": [
        {
          "internalType": "address",
          "name": "old_signer",
          "type": "address"
        },
        {
          "internalType": "uint256",
          "name": "nonce",
          "type": "uint256"
        },
        {
          "internalType": "bytes",
          "name": "signatures",
          "type": "bytes"
        }
      ],
      "name": "remove_signer",
      "outputs": [],
      "payable": false,
      "stateMutability": "nonpayable",
      "type": "function"
    },
    {
      "constant": false,
      "inputs": [
        {
          "internalType": "bytes",
          "name": "signatures",
          "type": "bytes"
        },
        {
          "internalType": "bytes",
          "name": "message",
          "type": "bytes"
        },
        {
          "internalType": "uint256",
          "name": "nonce",
          "type": "uint256"
        }
      ],
      "name": "verify_signatures",
      "outputs": [
        {
          "internalType": "bool",
          "name": "",
          "type": "bool"
        }
      ],
      "payable": false,
      "stateMutability": "nonpayable",
      "type": "function"
    },
    {
      "constant": true,
      "inputs": [],
      "name": "get_valid_signer_count",
      "outputs": [
        {
          "internalType": "uint8",
          "name": "",
          "type": "uint8"
        }
      ],
      "payable": false,
      "stateMutability": "view",
      "type": "function"
    },
    {
      "constant": true,
      "inputs": [],
      "name": "get_current_threshold",
      "outputs": [
        {
          "internalType": "uint16",
          "name": "",
          "type": "uint16"
        }
      ],
      "payable": false,
      "stateMutability": "view",
      "type": "function"
    },
    {
      "constant": true,
      "inputs": [
        {
          "internalType": "address",
          "name": "signer_address",
          "type": "address"
        }
      ],
      "name": "is_valid_signer",
      "outputs": [
        {
          "internalType": "bool",
          "name": "",
          "type": "bool"
        }
      ],
      "payable": false,
      "stateMutability": "view",
      "type": "function"
    },
    {
      "constant": true,
      "inputs": [
        {
          "internalType": "uint256",
          "name": "nonce",
          "type": "uint256"
        }
      ],
      "name": "is_nonce_used",
      "outputs": [
        {
          "internalType": "bool",
          "name": "",
          "type": "bool"
        }
      ],
      "payable": false,
      "stateMutability": "view",
      "type": "function"
    }
  ],
  "bytecode": "0x608060405234801561001057600080fd5b50336000806101000a81548173ffffffffffffffffffffffffffffffffffffffff021916908373ffffffffffffffffffffffffffffffffffffffff1602179055506000809054906101000a900473ffffffffffffffffffffffffffffffffffffffff1673ffffffffffffffffffffffffffffffffffffffff16600073ffffffffffffffffffffffffffffffffffffffff167f8be0079c531659141344cd1fd0a4f28419497f9722a3daafe3b4186f6b6457e060405160405180910390a36103e8600060146101000a81548161ffff021916908361ffff1602179055506100fb3361010060201b60201c565b6102c6565b61010e61026f60201b60201c565b610180576040517f08c379a00000000000000000000000000000000000000000000000000000000081526004018080602001828103825260208152602001807f4f776e61626c653a2063616c6c6572206973206e6f7420746865206f776e657281525060200191505060405180910390fd5b60018060008373ffffffffffffffffffffffffffffffffffffffff1673ffffffffffffffffffffffffffffffffffffffff16815260200190815260200160002060006101000a81548160ff0219169083151502179055506000601681819054906101000a900460ff168092919060010191906101000a81548160ff021916908360ff160217905550507f43202b8931cb3b51a068d29f4854e95b04429f6719b9d15ca29ee73b33a6a88a81604051808273ffffffffffffffffffffffffffffffffffffffff1673ffffffffffffffffffffffffffffffffffffffff16815260200191505060405180910390a150565b60008060009054906101000a900473ffffffffffffffffffffffffffffffffffffffff1673ffffffffffffffffffffffffffffffffffffffff163373ffffffffffffffffffffffffffffffffffffffff1614905090565b611cfd806102d56000396000f3fe608060405234801561001057600080fd5b50600436106101165760003560e01c80638f32d59b116100a2578063ba73659a11610071578063ba73659a1461053e578063dbe528df146106b2578063f2fde38b146106d8578063f8e3a6601461071c578063f9d901181461080157610116565b80638f32d59b146103e157806398c5f73e14610403578063aa821cfa146104e8578063b04e3dd11461051a57610116565b80635b9fe26b116100e95780635b9fe26b146102cd5780635f06155914610313578063620151801461036f578063715018a61461038d5780638da5cb5b1461039757610116565b80630d7c7ce61461011b5780630fd15a92146101735780634d244a2b146101b75780635af4a4cc146101fb575b600080fd5b61015d6004803603602081101561013157600080fd5b81019080803573ffffffffffffffffffffffffffffffffffffffff1690602001909291905050506108be565b6040518082815260200191505060405180910390f35b6101b56004803603602081101561018957600080fd5b81019080803573ffffffffffffffffffffffffffffffffffffffff1690602001909291905050506108d7565b005b6101f9600480360360208110156101cd57600080fd5b81019080803573ffffffffffffffffffffffffffffffffffffffff169060200190929190505050610a42565b005b6102cb6004803603606081101561021157600080fd5b81019080803560ff169060200190929190803590602001909291908035906020019064010000000081111561024557600080fd5b82018360208201111561025757600080fd5b8035906020019184600183028401116401000000008311171561027957600080fd5b91908080601f016020809104026020016040519081016040528093929190818152602001838380828437600081840152601f19601f820116905080830192505050505050509192919290505050610bab565b005b6102f9600480360360208110156102e357600080fd5b8101908080359060200190929190505050610cb9565b604051808215151515815260200191505060405180910390f35b6103556004803603602081101561032957600080fd5b81019080803573ffffffffffffffffffffffffffffffffffffffff169060200190929190505050610ce3565b604051808215151515815260200191505060405180910390f35b610377610d39565b6040518082815260200191505060405180910390f35b610395610d63565b005b61039f610e9c565b604051808273ffffffffffffffffffffffffffffffffffffffff1673ffffffffffffffffffffffffffffffffffffffff16815260200191505060405180910390f35b6103e9610ec5565b604051808215151515815260200191505060405180910390f35b6104e66004803603606081101561041957600080fd5b81019080803573ffffffffffffffffffffffffffffffffffffffff169060200190929190803590602001909291908035906020019064010000000081111561046057600080fd5b82018360208201111561047257600080fd5b8035906020019184600183028401116401000000008311171561049457600080fd5b91908080601f016020809104026020016040519081016040528093929190818152602001838380828437600081840152601f19601f820116905080830192505050505050509192919290505050610f1c565b005b610518600480360360208110156104fe57600080fd5b81019080803561ffff16906020019092919050505061117a565b005b610522611253565b604051808260ff1660ff16815260200191505060405180910390f35b6106986004803603606081101561055457600080fd5b810190808035906020019064010000000081111561057157600080fd5b82018360208201111561058357600080fd5b803590602001918460018302840111640100000000831117156105a557600080fd5b91908080601f016020809104026020016040519081016040528093929190818152602001838380828437600081840152601f19601f8201169050808301925050505050505091929192908035906020019064010000000081111561060857600080fd5b82018360208201111561061a57600080fd5b8035906020019184600183028401116401000000008311171561063c57600080fd5b91908080601f016020809104026020016040519081016040528093929190818152602001838380828437600081840152601f19601f82011690508083019250505050505050919291929080359060200190929190505050611269565b604051808215151515815260200191505060405180910390f35b6106ba6116ad565b604051808261ffff1661ffff16815260200191505060405180910390f35b61071a600480360360208110156106ee57600080fd5b81019080803573ffffffffffffffffffffffffffffffffffffffff1690602001909291905050506116c4565b005b6107ff6004803603606081101561073257600080fd5b81019080803573ffffffffffffffffffffffffffffffffffffffff169060200190929190803590602001909291908035906020019064010000000081111561077957600080fd5b82018360208201111561078b57600080fd5b803590602001918460018302840111640100000000831117156107ad57600080fd5b91908080601f016020809104026020016040519081016040528093929190818152602001838380828437600081840152601f19601f82011690508083019250505050505050919291929050505061174a565b005b6108436004803603602081101561081757600080fd5b81019080803573ffffffffffffffffffffffffffffffffffffffff169060200190929190505050611a0a565b6040518080602001828103825283818151815260200191508051906020019080838360005b83811015610883578082015181840152602081019050610868565b50505050905090810190601f1680156108b05780820380516001836020036101000a031916815260200191505b509250505060405180910390f35b60006108c982611a0a565b805190602001209050919050565b6108df610ec5565b610951576040517f08c379a00000000000000000000000000000000000000000000000000000000081526004018080602001828103825260208152602001807f4f776e61626c653a2063616c6c6572206973206e6f7420746865206f776e657281525060200191505060405180910390fd5b6000600160008373ffffffffffffffffffffffffffffffffffffffff1673ffffffffffffffffffffffffffffffffffffffff16815260200190815260200160002060006101000a81548160ff0219169083151502179055506000601681819054906101000a900460ff16809291906001900391906101000a81548160ff021916908360ff160217905550507f0f1abddc3021e1ef36c6877df0849df05e0e479c25dc238391cb8f2418034c2081604051808273ffffffffffffffffffffffffffffffffffffffff1673ffffffffffffffffffffffffffffffffffffffff16815260200191505060405180910390a150565b610a4a610ec5565b610abc576040517f08c379a00000000000000000000000000000000000000000000000000000000081526004018080602001828103825260208152602001807f4f776e61626c653a2063616c6c6572206973206e6f7420746865206f776e657281525060200191505060405180910390fd5b60018060008373ffffffffffffffffffffffffffffffffffffffff1673ffffffffffffffffffffffffffffffffffffffff16815260200190815260200160002060006101000a81548160ff0219169083151502179055506000601681819054906101000a900460ff168092919060010191906101000a81548160ff021916908360ff160217905550507f43202b8931cb3b51a068d29f4854e95b04429f6719b9d15ca29ee73b33a6a88a81604051808273ffffffffffffffffffffffffffffffffffffffff1673ffffffffffffffffffffffffffffffffffffffff16815260200191505060405180910390a150565b60608383604051602001808360ff1660ff168152602001828152602001806020018281038252600d8152602001807f7365745f7468726573686f6c640000000000000000000000000000000000000081525060200193505050506040516020818303038152906040529050610c21828285611269565b610c93576040517f08c379a000000000000000000000000000000000000000000000000000000000815260040180806020018281038252600e8152602001807f626164207369676e61747572657300000000000000000000000000000000000081525060200191505060405180910390fd5b8360ff16600060146101000a81548161ffff021916908361ffff16021790555050505050565b60006002600083815260200190815260200160002060009054906101000a900460ff169050919050565b6000600160008373ffffffffffffffffffffffffffffffffffffffff1673ffffffffffffffffffffffffffffffffffffffff16815260200190815260200160002060009054906101000a900460ff169050919050565b6000806001905060006002905060006101f49050816103e8840281610d5a57fe5b04935050505090565b610d6b610ec5565b610ddd576040517f08c379a00000000000000000000000000000000000000000000000000000000081526004018080602001828103825260208152602001807f4f776e61626c653a2063616c6c6572206973206e6f7420746865206f776e657281525060200191505060405180910390fd5b600073ffffffffffffffffffffffffffffffffffffffff166000809054906101000a900473ffffffffffffffffffffffffffffffffffffffff1673ffffffffffffffffffffffffffffffffffffffff167f8be0079c531659141344cd1fd0a4f28419497f9722a3daafe3b4186f6b6457e060405160405180910390a360008060006101000a81548173ffffffffffffffffffffffffffffffffffffffff021916908373ffffffffffffffffffffffffffffffffffffffff160217905550565b60008060009054906101000a900473ffffffffffffffffffffffffffffffffffffffff16905090565b60008060009054906101000a900473ffffffffffffffffffffffffffffffffffffffff1673ffffffffffffffffffffffffffffffffffffffff163373ffffffffffffffffffffffffffffffffffffffff1614905090565b60608383604051602001808373ffffffffffffffffffffffffffffffffffffffff1673ffffffffffffffffffffffffffffffffffffffff168152602001828152602001806020018281038252600d8152602001807f72656d6f76655f7369676e65720000000000000000000000000000000000000081525060200193505050506040516020818303038152906040529050600160008573ffffffffffffffffffffffffffffffffffffffff1673ffffffffffffffffffffffffffffffffffffffff16815260200190815260200160002060009054906101000a900460ff1661106c576040517f08c379a00000000000000000000000000000000000000000000000000000000081526004018080602001828103825260148152602001807f7369676e657220646f65736e277420657869737400000000000000000000000081525060200191505060405180910390fd5b611077828285611269565b6110e9576040517f08c379a000000000000000000000000000000000000000000000000000000000815260040180806020018281038252600e8152602001807f626164207369676e61747572657300000000000000000000000000000000000081525060200191505060405180910390fd5b6000600160008673ffffffffffffffffffffffffffffffffffffffff1673ffffffffffffffffffffffffffffffffffffffff16815260200190815260200160002060006101000a81548160ff0219169083151502179055506000601681819054906101000a900460ff16809291906001900391906101000a81548160ff021916908360ff1602179055505050505050565b611182610ec5565b6111f4576040517f08c379a00000000000000000000000000000000000000000000000000000000081526004018080602001828103825260208152602001807f4f776e61626c653a2063616c6c6572206973206e6f7420746865206f776e657281525060200191505060405180910390fd5b80600060146101000a81548161ffff021916908361ffff1602179055507f269f66bb53101dcbc65ef0e3437303c4bb3a9610d1e69d5cf3553650cbe7703f81604051808261ffff1661ffff16815260200191505060405180910390a150565b60008060169054906101000a900460ff16905090565b600080604185518161127757fe5b06146112eb576040517f08c379a000000000000000000000000000000000000000000000000000000000815260040180806020018281038252600e8152602001807f62616420736967206c656e67746800000000000000000000000000000000000081525060200191505060405180910390fd5b6002600083815260200190815260200160002060009054906101000a900460ff161561137f576040517f08c379a00000000000000000000000000000000000000000000000000000000081526004018080602001828103825260128152602001807f6e6f6e636520616c72656164792075736564000000000000000000000000000081525060200191505060405180910390fd5b60008090506000843360405160200180806020018373ffffffffffffffffffffffffffffffffffffffff1673ffffffffffffffffffffffffffffffffffffffff168152602001828103825284818151815260200191508051906020019080838360005b838110156113fd5780820151818401526020810190506113e2565b50505050905090810190601f16801561142a5780820380516001836020036101000a031916815260200191505b5093505050506040516020818303038152906040528051906020012090506000602090505b6020875101811015611633576000806000838a01519250602084018a01519150604084018a015160001a9050601b8160ff16101561148e57601b810190505b600060018683868660405160008152602001604052604051808581526020018460ff1660ff1681526020018381526020018281526020019450505050506020604051602081039080840390855afa1580156114ed573d6000803e3d6000fd5b505050602060405103519050600160008273ffffffffffffffffffffffffffffffffffffffff1673ffffffffffffffffffffffffffffffffffffffff16815260200190815260200160002060009054906101000a900460ff1680156115ad57506003600087815260200190815260200160002060008273ffffffffffffffffffffffffffffffffffffffff1673ffffffffffffffffffffffffffffffffffffffff16815260200190815260200160002060009054906101000a900460ff16155b156116245760016003600088815260200190815260200160002060008373ffffffffffffffffffffffffffffffffffffffff1673ffffffffffffffffffffffffffffffffffffffff16815260200190815260200160002060006101000a81548160ff02191690831515021790555086806001019750505b5050505060418101905061144f565b5060016002600086815260200190815260200160002060006101000a81548160ff021916908315150217905550600060149054906101000a900461ffff1661ffff16600060169054906101000a900460ff1660ff166103e88460ff160261ffff168161169b57fe5b0461ffff161015925050509392505050565b60008060149054906101000a900461ffff16905090565b6116cc610ec5565b61173e576040517f08c379a00000000000000000000000000000000000000000000000000000000081526004018080602001828103825260208152602001807f4f776e61626c653a2063616c6c6572206973206e6f7420746865206f776e657281525060200191505060405180910390fd5b61174781611b5e565b50565b60608383604051602001808373ffffffffffffffffffffffffffffffffffffffff1673ffffffffffffffffffffffffffffffffffffffff168152602001828152602001806020018281038252600a8152602001807f6164645f7369676e65720000000000000000000000000000000000000000000081525060200193505050506040516020818303038152906040529050600160008573ffffffffffffffffffffffffffffffffffffffff1673ffffffffffffffffffffffffffffffffffffffff16815260200190815260200160002060009054906101000a900460ff161561189b576040517f08c379a00000000000000000000000000000000000000000000000000000000081526004018080602001828103825260158152602001807f7369676e657220616c726561647920657869737473000000000000000000000081525060200191505060405180910390fd5b6118a6828285611269565b611918576040517f08c379a000000000000000000000000000000000000000000000000000000000815260040180806020018281038252600e8152602001807f626164207369676e61747572657300000000000000000000000000000000000081525060200191505060405180910390fd5b60018060008673ffffffffffffffffffffffffffffffffffffffff1673ffffffffffffffffffffffffffffffffffffffff16815260200190815260200160002060006101000a81548160ff0219169083151502179055506000601681819054906101000a900460ff168092919060010191906101000a81548160ff021916908360ff160217905550507f47d1c22a25bb3a5d4e481b9b1e6944c2eade3181a0a20b495ed61d35b5323f2484604051808273ffffffffffffffffffffffffffffffffffffffff1673ffffffffffffffffffffffffffffffffffffffff16815260200191505060405180910390a150505050565b606080826000604051602001808373ffffffffffffffffffffffffffffffffffffffff1673ffffffffffffffffffffffffffffffffffffffff168152602001828152602001806020018281038252600a8152602001807f6164645f7369676e65720000000000000000000000000000000000000000000081525060200193505050506040516020818303038152906040529050803360405160200180806020018373ffffffffffffffffffffffffffffffffffffffff1673ffffffffffffffffffffffffffffffffffffffff168152602001828103825284818151815260200191508051906020019080838360005b83811015611b14578082015181840152602081019050611af9565b50505050905090810190601f168015611b415780820380516001836020036101000a031916815260200191505b509350505050604051602081830303815290604052915050919050565b600073ffffffffffffffffffffffffffffffffffffffff168173ffffffffffffffffffffffffffffffffffffffff161415611be4576040517f08c379a0000000000000000000000000000000000000000000000000000000008152600401808060200182810382526026815260200180611ca36026913960400191505060405180910390fd5b8073ffffffffffffffffffffffffffffffffffffffff166000809054906101000a900473ffffffffffffffffffffffffffffffffffffffff1673ffffffffffffffffffffffffffffffffffffffff167f8be0079c531659141344cd1fd0a4f28419497f9722a3daafe3b4186f6b6457e060405160405180910390a3806000806101000a81548173ffffffffffffffffffffffffffffffffffffffff021916908373ffffffffffffffffffffffffffffffffffffffff1602179055505056fe4f776e61626c653a206e6577206f776e657220697320746865207a65726f2061646472657373a265627a7a72315820bd5cc89d9b53365c17ba4f0475bdae9794af74fbf553a446dc8f249f5bb97c6764736f6c63430005100032",
  "source": "pragma solidity ^0.5.0;\r\n\r\nimport \"./Ownable.sol\";\r\n\r\ncontract MultisigControl is Ownable {\r\n    constructor () public{\r\n        threshold = 1000;\r\n        add_signer_admin(msg.sender);\r\n    }\r\n\r\n    uint16 threshold;\r\n    uint8 signer_count;\r\n    mapping(address => bool) signers;\r\n    mapping(uint => bool) used_nonces;\r\n\r\n    event SignerAdded(address new_signer);\r\n    event SignerRemoved(address old_signer);\r\n    event ThresholdSet(uint16 new_threshold);\r\n\r\n    /************************ SANDBOX *****/\r\n    function get_msg_bytes(address target) public view returns (bytes memory) {\r\n        //0xb89a165ea8b619c14312db316baaa80d2a98b493\r\n        bytes memory message = abi.encode(target, uint256(0), \"add_signer\");\r\n        return abi.encode(message, msg.sender);\r\n    }\r\n    function get_msg_hash(address target) public view returns (bytes32) {\r\n        return keccak256(get_msg_bytes(target));\r\n    }\r\n\r\n    function do_math() public view returns (uint256) {\r\n        uint sigs = 1;\r\n        uint signers = 2;\r\n        uint th = 500;\r\n\r\n        return ((sigs * 1000)/ (signers ));\r\n\r\n    }\r\n    /*************************/\r\n\r\n\r\n    /*******************ADMIN(note: this only is needed in order to simplify initial onboarding of nodes, once ownership is surrendered these will no longer be available)*/\r\n    event SignerAdded_Admin(address new_signer);\r\n    event SignerRemoved_Admin(address old_signer);\r\n    event ThresholdSet_Admin(uint16 new_threshold);\r\n\r\n    function add_signer_admin(address new_signer) public onlyOwner{\r\n        signers[new_signer] = true;\r\n        signer_count++;\r\n        emit SignerAdded_Admin(new_signer);\r\n    }\r\n\r\n    function remove_signer_admin(address old_signer) public onlyOwner{\r\n        signers[old_signer] = false;\r\n        signer_count--;\r\n        emit SignerRemoved_Admin(old_signer);\r\n    }\r\n\r\n    function set_threshold_admin(uint16 new_threshold) public onlyOwner{\r\n        threshold = new_threshold;\r\n        emit ThresholdSet_Admin(new_threshold);\r\n    }\r\n\r\n    /*********************END ADMIN*/\r\n    //Sets threshold of signatures that must be met before function is executed. Emits 'ThresholdSet' event\r\n    //Threshold in thousandths\r\n    function set_threshold(uint8 new_threshold, uint nonce, bytes memory signatures) public{\r\n        bytes memory message = abi.encode(new_threshold, nonce, \"set_threshold\");\r\n        require(verify_signatures(signatures, message, nonce), \"bad signatures\");\r\n        //todo: add sanity check\r\n        threshold = new_threshold;\r\n    }\r\n\r\n    //Adds new valid signer and adjusts signer count. Emits 'SignerAdded' event\r\n    function add_signer(address new_signer, uint nonce, bytes memory signatures) public {\r\n        bytes memory message = abi.encode(new_signer, nonce, \"add_signer\");\r\n        require(!signers[new_signer], \"signer already exists\");\r\n        require(verify_signatures(signatures, message, nonce), \"bad signatures\");\r\n        //todo: add sanity check\r\n        signers[new_signer] = true;\r\n        signer_count++;\r\n        emit SignerAdded(new_signer);\r\n    }\r\n\r\n    //Removes currently valid signer and adjust signer count. Emits 'SignerRemoved' event\r\n    function remove_signer(address old_signer, uint nonce, bytes memory signatures) public {\r\n        bytes memory message = abi.encode(old_signer, nonce, \"remove_signer\");\r\n        require(signers[old_signer], \"signer doesn't exist\");\r\n        require(verify_signatures(signatures, message, nonce), \"bad signatures\");\r\n        //todo: add sanity check\r\n        signers[old_signer] = false;\r\n        signer_count--;\r\n    }\r\n\r\n    mapping(bytes32 => mapping(address => bool)) has_signed;\r\n\r\n    //Verifies a signature bundle and returns true only if the threshold of valid signers is met,\r\n    //this is a function that any function controlled by Vega MUST call to be securely controlled by the Vega network\r\n    //****************NOTE all messages signed MUST include the target bridge contract address*********************************\r\n    function verify_signatures(bytes memory signatures, bytes memory message, uint nonce) public returns(bool) {\r\n        require(signatures.length % 65 == 0, \"bad sig length\");\r\n        require(!used_nonces[nonce], \"nonce already used\");\r\n        uint8 sig_count = 0;\r\n\r\n        bytes32 message_hash = keccak256(abi.encode(message, msg.sender));\r\n\r\n        for(uint msg_idx = 32; msg_idx < signatures.length + 32; msg_idx+= 65){\r\n            //recover address from that msg\r\n            bytes32 r;\r\n            bytes32 s;\r\n            uint8 v;\r\n\r\n            assembly {\r\n\r\n            // first 32 bytes, after the length prefix\r\n                r := mload(add(signatures, msg_idx))\r\n            // second 32 bytes\r\n                s := mload(add(signatures, add(msg_idx, 32)))\r\n            // final byte (first byte of the next 32 bytes)\r\n                v := byte(0, mload(add(signatures, add(msg_idx, 64))))\r\n            }\r\n            if (v < 27) v += 27;\r\n\r\n            address recovered_address = ecrecover(message_hash, v, r, s);\r\n            if(signers[recovered_address] && !has_signed[message_hash][recovered_address]){\r\n                has_signed[message_hash][recovered_address] = true;\r\n                sig_count++;\r\n            }\r\n        }\r\n        used_nonces[nonce] = true;\r\n        //TODO: get math correct\r\n        return ((sig_count * 1000)/ (signer_count )) >= threshold;\r\n        //return sig_count > 0;//((sig_count * 1000) / (uint256(signer_count) * 1000)) > threshold;\r\n    }\r\n\r\n    //Returns number of valid signers\r\n    function get_valid_signer_count() public view returns(uint8){\r\n        return signer_count;\r\n    }\r\n\r\n    //Returns current threshold\r\n    function get_current_threshold() public view returns(uint16) {\r\n        return threshold;\r\n    }\r\n\r\n    //Returns true if address provided is valid signer\r\n    function is_valid_signer(address signer_address) public view returns(bool){\r\n        return signers[signer_address];\r\n    }\r\n\r\n    //returns true if nonce has been used\r\n    function is_nonce_used(uint nonce) public view returns(bool){\r\n        return used_nonces[nonce];\r\n    }\r\n}\r\n\r\n\r\n\r\n\r\n/*\r\nfunction submit_signature_bundle(bytes memory signatures, bytes32 message_hash) public returns(address){\r\n        require(signatures.length % 65 == 0, \"bad sig length\");\r\n\r\n        address last_address;\r\n\r\n        for(uint msg_idx = 32; msg_idx < signatures.length + 32; msg_idx+= 65){\r\n            //recover address from that msg\r\n            bytes32 r;\r\n            bytes32 s;\r\n            uint8 v;\r\n\r\n\r\n            assembly {\r\n\r\n            // first 32 bytes, after the length prefix\r\n                r := mload(add(signatures, msg_idx))\r\n            // second 32 bytes\r\n                s := mload(add(signatures, add(msg_idx, 32)))\r\n            // final byte (first byte of the next 32 bytes)\r\n                v := byte(0, mload(add(signatures, add(msg_idx, 64))))\r\n            }\r\n            if (v < 27) v += 27;\r\n\r\n            address recovered_address = ecrecover(batch_id, v, r, s);\r\n            last_address = recovered_address;\r\n            //require(recovered_address != address(0), \"cannot recover address\");\r\n        }\r\n        return last_address;\r\n    }\r\n\r\n    function splitSignature(bytes memory sig)\r\n        internal\r\n        pure\r\n        returns (uint8, bytes32, bytes32)\r\n    {\r\n        require(sig.length == 65);\r\n\r\n        bytes32 r;\r\n        bytes32 s;\r\n        uint8 v;\r\n\r\n        assembly {\r\n            // first 32 bytes, after the length prefix\r\n            r := mload(add(sig, 32))\r\n            // second 32 bytes\r\n            s := mload(add(sig, 64))\r\n            // final byte (first byte of the next 32 bytes)\r\n            v := byte(0, mload(add(sig, 96)))\r\n        }\r\n\r\n        return (v, r, s);\r\n    }\r\n    function recoverSigner(bytes32 message, bytes memory sig)\r\n        public\r\n        pure\r\n        returns (address)\r\n    {\r\n        uint8 v;\r\n        bytes32 r;\r\n        bytes32 s;\r\n\r\n        (v, r, s) = splitSignature(sig);\r\n\r\n        return ecrecover(message, v, r, s);\r\n    }\r\n    address the_address = 0x80C67eEC6f8518B5Bb707ECc718B53782AC71543;\r\n    bool flag;\r\n    function recoverSignerWithFlag(bytes32 message, bytes memory sig) public returns(bool) {\r\n\r\n        flag =  recoverSigner(message, sig) == the_address;\r\n        return flag;\r\n    }\r\n\r\n    function recoverBundleWithFlag(bytes memory signatures, bytes32 batch_id)  public returns(bool) {\r\n\r\n        flag =  submit_signature_bundle(signatures, batch_id) == the_address;\r\n        return flag;\r\n    }\r\n\r\n\r\n*/",
  "sourcePath": "C:/Users/holla/OneDrive/Desktop/Source/Vega Protocol/multisig_bridges/contracts/MultisigControl.sol",
  "compiler": {
    "name": "solc",
    "version": "0.5.16+commit.9c3226ce.Emscripten.clang"
  },
  "schemaVersion": "3.0.16",
  "updatedAt": "2020-04-06T18:06:05.973Z",
  "devdoc": {
    "methods": {
      "isOwner()": {
        "details": "Returns true if the caller is the current owner."
      },
      "owner()": {
        "details": "Returns the address of the current owner."
      },
      "renounceOwnership()": {
        "details": "Leaves the contract without owner. It will not be possible to call `onlyOwner` functions anymore. Can only be called by the current owner.      * NOTE: Renouncing ownership will leave the contract without an owner, thereby removing any functionality that is only available to the owner."
      },
      "transferOwnership(address)": {
        "details": "Transfers ownership of the contract to a new account (`newOwner`). Can only be called by the current owner."
      }
    }
  },
  "userdoc": {
    "methods": {
      "get_msg_bytes(address)": {
        "notice": "********************** SANDBOX ****"
      },
      "set_threshold(uint8,uint256,bytes)": {
        "notice": "*******************END ADMIN"
      }
    }
  }
}