{
  "contractName": "MultisigControl",
  "abi": [
    {
      "inputs": [],
      "stateMutability": "nonpayable",
      "type": "constructor"
    },
    {
      "anonymous": false,
      "inputs": [
        {
          "indexed": false,
          "internalType": "address",
          "name": "new_signer",
          "type": "address"
        },
        {
          "indexed": false,
          "internalType": "uint256",
          "name": "nonce",
          "type": "uint256"
        }
      ],
      "name": "SignerAdded",
      "type": "event"
    },
    {
      "anonymous": false,
      "inputs": [
        {
          "indexed": false,
          "internalType": "address",
          "name": "old_signer",
          "type": "address"
        },
        {
          "indexed": false,
          "internalType": "uint256",
          "name": "nonce",
          "type": "uint256"
        }
      ],
      "name": "SignerRemoved",
      "type": "event"
    },
    {
      "anonymous": false,
      "inputs": [
        {
          "indexed": false,
          "internalType": "uint16",
          "name": "new_threshold",
          "type": "uint16"
        },
        {
          "indexed": false,
          "internalType": "uint256",
          "name": "nonce",
          "type": "uint256"
        }
      ],
      "name": "ThresholdSet",
      "type": "event"
    },
    {
      "inputs": [
        {
          "internalType": "uint16",
          "name": "new_threshold",
          "type": "uint16"
        },
        {
          "internalType": "uint256",
          "name": "nonce",
          "type": "uint256"
        },
        {
          "internalType": "bytes",
          "name": "signatures",
          "type": "bytes"
        }
      ],
      "name": "set_threshold",
      "outputs": [],
      "stateMutability": "nonpayable",
      "type": "function"
    },
    {
      "inputs": [
        {
          "internalType": "address",
          "name": "new_signer",
          "type": "address"
        },
        {
          "internalType": "uint256",
          "name": "nonce",
          "type": "uint256"
        },
        {
          "internalType": "bytes",
          "name": "signatures",
          "type": "bytes"
        }
      ],
      "name": "add_signer",
      "outputs": [],
      "stateMutability": "nonpayable",
      "type": "function"
    },
    {
      "inputs": [
        {
          "internalType": "address",
          "name": "old_signer",
          "type": "address"
        },
        {
          "internalType": "uint256",
          "name": "nonce",
          "type": "uint256"
        },
        {
          "internalType": "bytes",
          "name": "signatures",
          "type": "bytes"
        }
      ],
      "name": "remove_signer",
      "outputs": [],
      "stateMutability": "nonpayable",
      "type": "function"
    },
    {
      "inputs": [
        {
          "internalType": "bytes",
          "name": "signatures",
          "type": "bytes"
        },
        {
          "internalType": "bytes",
          "name": "message",
          "type": "bytes"
        },
        {
          "internalType": "uint256",
          "name": "nonce",
          "type": "uint256"
        }
      ],
      "name": "verify_signatures",
      "outputs": [
        {
          "internalType": "bool",
          "name": "",
          "type": "bool"
        }
      ],
      "stateMutability": "nonpayable",
      "type": "function"
    },
    {
      "inputs": [],
      "name": "get_valid_signer_count",
      "outputs": [
        {
          "internalType": "uint8",
          "name": "",
          "type": "uint8"
        }
      ],
      "stateMutability": "view",
      "type": "function",
      "constant": true
    },
    {
      "inputs": [],
      "name": "get_current_threshold",
      "outputs": [
        {
          "internalType": "uint16",
          "name": "",
          "type": "uint16"
        }
      ],
      "stateMutability": "view",
      "type": "function",
      "constant": true
    },
    {
      "inputs": [
        {
          "internalType": "address",
          "name": "signer_address",
          "type": "address"
        }
      ],
      "name": "is_valid_signer",
      "outputs": [
        {
          "internalType": "bool",
          "name": "",
          "type": "bool"
        }
      ],
      "stateMutability": "view",
      "type": "function",
      "constant": true
    },
    {
      "inputs": [
        {
          "internalType": "uint256",
          "name": "nonce",
          "type": "uint256"
        }
      ],
      "name": "is_nonce_used",
      "outputs": [
        {
          "internalType": "bool",
          "name": "",
          "type": "bool"
        }
      ],
      "stateMutability": "view",
      "type": "function",
      "constant": true
    }
  ],
  "bytecode": "0x60806040523480156200001157600080fd5b506101f46000806101000a81548161ffff021916908361ffff16021790555060018060003373ffffffffffffffffffffffffffffffffffffffff1673ffffffffffffffffffffffffffffffffffffffff16815260200190815260200160002060006101000a81548160ff0219169083151502179055506000600281819054906101000a900460ff1680929190620000a8906200013f565b91906101000a81548160ff021916908360ff160217905550507f50999ebf9b59bf3157a58816611976f2d723378ad51457d7b0413209e0cdee59336000604051620000f59291906200020a565b60405180910390a162000237565b7f4e487b7100000000000000000000000000000000000000000000000000000000600052601160045260246000fd5b600060ff82169050919050565b60006200014c8262000132565b915060ff82141562000163576200016262000103565b5b600182019050919050565b600073ffffffffffffffffffffffffffffffffffffffff82169050919050565b60006200019b826200016e565b9050919050565b620001ad816200018e565b82525050565b6000819050919050565b6000819050919050565b6000819050919050565b6000620001f2620001ec620001e684620001b3565b620001c7565b620001bd565b9050919050565b6200020481620001d1565b82525050565b6000604082019050620002216000830185620001a2565b620002306020830184620001f9565b9392505050565b6118de80620002476000396000f3fe608060405234801561001057600080fd5b50600436106100885760003560e01c8063b04e3dd11161005b578063b04e3dd114610125578063ba73659a14610143578063dbe528df14610173578063f8e3a6601461019157610088565b806350ac8df81461008d5780635b9fe26b146100a95780635f061559146100d957806398c5f73e14610109575b600080fd5b6100a760048036038101906100a29190610c16565b6101ad565b005b6100c360048036038101906100be9190610c8a565b6102d2565b6040516100d09190610cd2565b60405180910390f35b6100f360048036038101906100ee9190610d4b565b6102fc565b6040516101009190610cd2565b60405180910390f35b610123600480360381019061011e9190610d78565b610352565b005b61012d61051f565b60405161013a9190610e08565b60405180910390f35b61015d60048036038101906101589190610f64565b610535565b60405161016a9190610cd2565b60405180910390f35b61017b610949565b6040516101889190611003565b60405180910390f35b6101ab60048036038101906101a69190610d78565b610960565b005b6103e88461ffff161080156101c6575060008461ffff16115b610205576040517f08c379a00000000000000000000000000000000000000000000000000000000081526004016101fc9061107b565b60405180910390fd5b6000848460405160200161021a9291906110f6565b604051602081830303815290604052905061023783838387610535565b610276576040517f08c379a000000000000000000000000000000000000000000000000000000000815260040161026d9061117e565b60405180910390fd5b846000806101000a81548161ffff021916908361ffff1602179055507ff6d24c23627520a3b70e5dc66aa1249844b4bb407c2c153d9000a2b14a1e3c1185856040516102c392919061119e565b60405180910390a15050505050565b60006002600083815260200190815260200160002060009054906101000a900460ff169050919050565b6000600160008373ffffffffffffffffffffffffffffffffffffffff1673ffffffffffffffffffffffffffffffffffffffff16815260200190815260200160002060009054906101000a900460ff169050919050565b60008484604051602001610367929190611222565b6040516020818303038152906040529050600160008673ffffffffffffffffffffffffffffffffffffffff1673ffffffffffffffffffffffffffffffffffffffff16815260200190815260200160002060009054906101000a900460ff16610404576040517f08c379a00000000000000000000000000000000000000000000000000000000081526004016103fb906112aa565b60405180910390fd5b61041083838387610535565b61044f576040517f08c379a00000000000000000000000000000000000000000000000000000000081526004016104469061117e565b60405180910390fd5b6000600160008773ffffffffffffffffffffffffffffffffffffffff1673ffffffffffffffffffffffffffffffffffffffff16815260200190815260200160002060006101000a81548160ff0219169083151502179055506000600281819054906101000a900460ff16809291906104c6906112f9565b91906101000a81548160ff021916908360ff160217905550507f99c1d2c0ed8107e4db2e5dbfb10a2549cd2a63cbe39cf99d2adffbcd039544188585604051610510929190611323565b60405180910390a15050505050565b60008060029054906101000a900460ff16905090565b600080604186869050610548919061137b565b14610588576040517f08c379a000000000000000000000000000000000000000000000000000000000815260040161057f906113f8565b60405180910390fd5b600085859050116105ce576040517f08c379a00000000000000000000000000000000000000000000000000000000081526004016105c590611464565b60405180910390fd5b6002600083815260200190815260200160002060009054906101000a900460ff161561062f576040517f08c379a0000000000000000000000000000000000000000000000000000000008152600401610626906114d0565b60405180910390fd5b6000808433604051602001610645929190611578565b604051602081830303815290604052805190602001209050600087905060005b888890508110156108ae5760008060008385013592506020848601013591506040848601013560001a90507f7fffffffffffffffffffffffffffffff5d576e7357a4501ddfe92f46681b20a08260001c11156106f6576040517f08c379a00000000000000000000000000000000000000000000000000000000081526004016106ed906115f4565b60405180910390fd5b601b8160ff16101561071257601b8161070f9190611614565b90505b6000600187838686604051600081526020016040526040516107379493929190611664565b6020604051602081039080840390855afa158015610759573d6000803e3d6000fd5b505050602060405103519050600160008273ffffffffffffffffffffffffffffffffffffffff1673ffffffffffffffffffffffffffffffffffffffff16815260200190815260200160002060009054906101000a900460ff16801561081957506003600088815260200190815260200160002060008273ffffffffffffffffffffffffffffffffffffffff1673ffffffffffffffffffffffffffffffffffffffff16815260200190815260200160002060009054906101000a900460ff16155b156108965760016003600089815260200190815260200160002060008373ffffffffffffffffffffffffffffffffffffffff1673ffffffffffffffffffffffffffffffffffffffff16815260200190815260200160002060006101000a81548160ff0219169083151502179055508780610892906116a9565b9850505b505050506041816108a791906116d3565b9050610665565b5060008054906101000a900461ffff1661ffff16600060029054906101000a900460ff1660ff166103e88560ff166108e69190611729565b6108f09190611783565b116002600087815260200190815260200160002060006101000a81548160ff0219169083151502179055506002600086815260200190815260200160002060009054906101000a900460ff169350505050949350505050565b60008060009054906101000a900461ffff16905090565b60008484604051602001610975929190611800565b6040516020818303038152906040529050600160008673ffffffffffffffffffffffffffffffffffffffff1673ffffffffffffffffffffffffffffffffffffffff16815260200190815260200160002060009054906101000a900460ff1615610a13576040517f08c379a0000000000000000000000000000000000000000000000000000000008152600401610a0a90611888565b60405180910390fd5b610a1f83838387610535565b610a5e576040517f08c379a0000000000000000000000000000000000000000000000000000000008152600401610a559061117e565b60405180910390fd5b60018060008773ffffffffffffffffffffffffffffffffffffffff1673ffffffffffffffffffffffffffffffffffffffff16815260200190815260200160002060006101000a81548160ff0219169083151502179055506000600281819054906101000a900460ff1680929190610ad4906116a9565b91906101000a81548160ff021916908360ff160217905550507f50999ebf9b59bf3157a58816611976f2d723378ad51457d7b0413209e0cdee598585604051610b1e929190611323565b60405180910390a15050505050565b6000604051905090565b600080fd5b600080fd5b600061ffff82169050919050565b610b5881610b41565b8114610b6357600080fd5b50565b600081359050610b7581610b4f565b92915050565b6000819050919050565b610b8e81610b7b565b8114610b9957600080fd5b50565b600081359050610bab81610b85565b92915050565b600080fd5b600080fd5b600080fd5b60008083601f840112610bd657610bd5610bb1565b5b8235905067ffffffffffffffff811115610bf357610bf2610bb6565b5b602083019150836001820283011115610c0f57610c0e610bbb565b5b9250929050565b60008060008060608587031215610c3057610c2f610b37565b5b6000610c3e87828801610b66565b9450506020610c4f87828801610b9c565b935050604085013567ffffffffffffffff811115610c7057610c6f610b3c565b5b610c7c87828801610bc0565b925092505092959194509250565b600060208284031215610ca057610c9f610b37565b5b6000610cae84828501610b9c565b91505092915050565b60008115159050919050565b610ccc81610cb7565b82525050565b6000602082019050610ce76000830184610cc3565b92915050565b600073ffffffffffffffffffffffffffffffffffffffff82169050919050565b6000610d1882610ced565b9050919050565b610d2881610d0d565b8114610d3357600080fd5b50565b600081359050610d4581610d1f565b92915050565b600060208284031215610d6157610d60610b37565b5b6000610d6f84828501610d36565b91505092915050565b60008060008060608587031215610d9257610d91610b37565b5b6000610da087828801610d36565b9450506020610db187828801610b9c565b935050604085013567ffffffffffffffff811115610dd257610dd1610b3c565b5b610dde87828801610bc0565b925092505092959194509250565b600060ff82169050919050565b610e0281610dec565b82525050565b6000602082019050610e1d6000830184610df9565b92915050565b600080fd5b6000601f19601f8301169050919050565b7f4e487b7100000000000000000000000000000000000000000000000000000000600052604160045260246000fd5b610e7182610e28565b810181811067ffffffffffffffff82111715610e9057610e8f610e39565b5b80604052505050565b6000610ea3610b2d565b9050610eaf8282610e68565b919050565b600067ffffffffffffffff821115610ecf57610ece610e39565b5b610ed882610e28565b9050602081019050919050565b82818337600083830152505050565b6000610f07610f0284610eb4565b610e99565b905082815260208101848484011115610f2357610f22610e23565b5b610f2e848285610ee5565b509392505050565b600082601f830112610f4b57610f4a610bb1565b5b8135610f5b848260208601610ef4565b91505092915050565b60008060008060608587031215610f7e57610f7d610b37565b5b600085013567ffffffffffffffff811115610f9c57610f9b610b3c565b5b610fa887828801610bc0565b9450945050602085013567ffffffffffffffff811115610fcb57610fca610b3c565b5b610fd787828801610f36565b9250506040610fe887828801610b9c565b91505092959194509250565b610ffd81610b41565b82525050565b60006020820190506110186000830184610ff4565b92915050565b600082825260208201905092915050565b7f6e6577207468726573686f6c64206f7574736964652072616e67650000000000600082015250565b6000611065601b8361101e565b91506110708261102f565b602082019050919050565b6000602082019050818103600083015261109481611058565b9050919050565b6110a481610b7b565b82525050565b7f7365745f7468726573686f6c6400000000000000000000000000000000000000600082015250565b60006110e0600d8361101e565b91506110eb826110aa565b602082019050919050565b600060608201905061110b6000830185610ff4565b611118602083018461109b565b8181036040830152611129816110d3565b90509392505050565b7f626164207369676e617475726573000000000000000000000000000000000000600082015250565b6000611168600e8361101e565b915061117382611132565b602082019050919050565b600060208201905081810360008301526111978161115b565b9050919050565b60006040820190506111b36000830185610ff4565b6111c0602083018461109b565b9392505050565b6111d081610d0d565b82525050565b7f72656d6f76655f7369676e657200000000000000000000000000000000000000600082015250565b600061120c600d8361101e565b9150611217826111d6565b602082019050919050565b600060608201905061123760008301856111c7565b611244602083018461109b565b8181036040830152611255816111ff565b90509392505050565b7f7369676e657220646f65736e2774206578697374000000000000000000000000600082015250565b600061129460148361101e565b915061129f8261125e565b602082019050919050565b600060208201905081810360008301526112c381611287565b9050919050565b7f4e487b7100000000000000000000000000000000000000000000000000000000600052601160045260246000fd5b600061130482610dec565b91506000821415611318576113176112ca565b5b600182039050919050565b600060408201905061133860008301856111c7565b611345602083018461109b565b9392505050565b7f4e487b7100000000000000000000000000000000000000000000000000000000600052601260045260246000fd5b600061138682610b7b565b915061139183610b7b565b9250826113a1576113a061134c565b5b828206905092915050565b7f62616420736967206c656e677468000000000000000000000000000000000000600082015250565b60006113e2600e8361101e565b91506113ed826113ac565b602082019050919050565b60006020820190508181036000830152611411816113d5565b9050919050565b7f6d75737420636f6e7461696e206174206c656173742031207369670000000000600082015250565b600061144e601b8361101e565b915061145982611418565b602082019050919050565b6000602082019050818103600083015261147d81611441565b9050919050565b7f6e6f6e636520616c726561647920757365640000000000000000000000000000600082015250565b60006114ba60128361101e565b91506114c582611484565b602082019050919050565b600060208201905081810360008301526114e9816114ad565b9050919050565b600081519050919050565b600082825260208201905092915050565b60005b8381101561152a57808201518184015260208101905061150f565b83811115611539576000848401525b50505050565b600061154a826114f0565b61155481856114fb565b935061156481856020860161150c565b61156d81610e28565b840191505092915050565b60006040820190508181036000830152611592818561153f565b90506115a160208301846111c7565b9392505050565b7f4d616c6c6561626c65207369676e6174757265206572726f7200000000000000600082015250565b60006115de60198361101e565b91506115e9826115a8565b602082019050919050565b6000602082019050818103600083015261160d816115d1565b9050919050565b600061161f82610dec565b915061162a83610dec565b92508260ff038211156116405761163f6112ca565b5b828201905092915050565b6000819050919050565b61165e8161164b565b82525050565b60006080820190506116796000830187611655565b6116866020830186610df9565b6116936040830185611655565b6116a06060830184611655565b95945050505050565b60006116b482610dec565b915060ff8214156116c8576116c76112ca565b5b600182019050919050565b60006116de82610b7b565b91506116e983610b7b565b9250827fffffffffffffffffffffffffffffffffffffffffffffffffffffffffffffffff0382111561171e5761171d6112ca565b5b828201905092915050565b600061173482610b7b565b915061173f83610b7b565b9250817fffffffffffffffffffffffffffffffffffffffffffffffffffffffffffffffff0483118215151615611778576117776112ca565b5b828202905092915050565b600061178e82610b7b565b915061179983610b7b565b9250826117a9576117a861134c565b5b828204905092915050565b7f6164645f7369676e657200000000000000000000000000000000000000000000600082015250565b60006117ea600a8361101e565b91506117f5826117b4565b602082019050919050565b600060608201905061181560008301856111c7565b611822602083018461109b565b8181036040830152611833816117dd565b90509392505050565b7f7369676e657220616c7265616479206578697374730000000000000000000000600082015250565b600061187260158361101e565b915061187d8261183c565b602082019050919050565b600060208201905081810360008301526118a181611865565b905091905056fea26469706673582212204dc3d6e27c59982cb46e0e71b72bd82a4f4ecea01aee4a14928bf31fa09625c664736f6c63430008080033",
  "immutableReferences": {},
  "source": "//SPDX-License-Identifier: MIT\npragma solidity 0.8.8;\n\nimport \"./IMultisigControl.sol\";\n\n/// @title MultisigControl\n/// @author Vega Protocol\n/// @notice This contract enables validators, through a multisignature process, to run functions on contracts by consensus\ncontract MultisigControl is IMultisigControl {\n    constructor () {\n        // set initial threshold to 50%\n        threshold = 500;\n        signers[msg.sender] = true;\n        signer_count++;\n        emit SignerAdded(msg.sender, 0);\n    }\n\n    uint16 threshold;\n    uint8 signer_count;\n    mapping(address => bool) signers;\n    mapping(uint => bool) used_nonces;\n    mapping(bytes32 => mapping(address => bool)) has_signed;\n\n    /**************************FUNCTIONS*********************/\n    /// @notice Sets threshold of signatures that must be met before function is executed.\n    /// @param new_threshold New threshold value\n    /// @param nonce Vega-assigned single-use number that provides replay attack protection\n    /// @param signatures Vega-supplied signature bundle of a validator-signed order\n    /// @notice See MultisigControl for more about signatures\n    /// @notice Ethereum has no decimals, threshold is % * 10 so 50% == 500 100% == 1000\n    /// @notice signatures are OK if they are >= threshold count of total valid signers\n    /// @dev Emits ThresholdSet event\n    function set_threshold(uint16 new_threshold, uint256 nonce, bytes calldata signatures) public override{\n        require(new_threshold < 1000 && new_threshold > 0, \"new threshold outside range\");\n        bytes memory message = abi.encode(new_threshold, nonce, \"set_threshold\");\n        require(verify_signatures(signatures, message, nonce), \"bad signatures\");\n        threshold = new_threshold;\n        emit ThresholdSet(new_threshold, nonce);\n    }\n\n    /// @notice Adds new valid signer and adjusts signer count.\n    /// @param new_signer New signer address\n    /// @param nonce Vega-assigned single-use number that provides replay attack protection\n    /// @param signatures Vega-supplied signature bundle of a validator-signed order\n    /// @notice See MultisigControl for more about signatures\n    /// @dev Emits 'SignerAdded' event\n    function add_signer(address new_signer, uint256 nonce, bytes calldata signatures) public override{\n        bytes memory message = abi.encode(new_signer, nonce, \"add_signer\");\n        require(!signers[new_signer], \"signer already exists\");\n        require(verify_signatures(signatures, message, nonce), \"bad signatures\");\n        signers[new_signer] = true;\n        signer_count++;\n        emit SignerAdded(new_signer, nonce);\n    }\n\n    /// @notice Removes currently valid signer and adjusts signer count.\n    /// @param old_signer Address of signer to be removed.\n    /// @param nonce Vega-assigned single-use number that provides replay attack protection\n    /// @param signatures Vega-supplied signature bundle of a validator-signed order\n    /// @notice See MultisigControl for more about signatures\n    /// @dev Emits 'SignerRemoved' event\n    function remove_signer(address old_signer, uint256 nonce, bytes calldata signatures) public override {\n        bytes memory message = abi.encode(old_signer, nonce, \"remove_signer\");\n        require(signers[old_signer], \"signer doesn't exist\");\n        require(verify_signatures(signatures, message, nonce), \"bad signatures\");\n        signers[old_signer] = false;\n        signer_count--;\n        emit SignerRemoved(old_signer, nonce);\n    }\n\n    /// @notice Verifies a signature bundle and returns true only if the threshold of valid signers is met,\n    /// @notice this is a function that any function controlled by Vega MUST call to be securely controlled by the Vega network\n    /// @notice message to hash to sign follows this pattern:\n    /// @notice abi.encode( abi.encode(param1, param2, param3, ... , nonce, function_name_string), validating_contract_or_submitter_address);\n    /// @notice Note that validating_contract_or_submitter_address is the submitting party. If on MultisigControl contract itself, it's the submitting ETH address\n    /// @notice if function on bridge that then calls Multisig, then it's the address of that contract\n    /// @notice Note also the embedded encoding, this is required to verify what function/contract the function call goes to\n    /// @return Returns true if valid signatures are over the threshold\n    function verify_signatures(bytes calldata signatures, bytes memory message, uint256 nonce) public override returns(bool) {\n        require(signatures.length % 65 == 0, \"bad sig length\");\n        require(signatures.length > 0, \"must contain at least 1 sig\");\n        require(!used_nonces[nonce], \"nonce already used\");\n        uint8 sig_count = 0;\n\n        bytes32 message_hash = keccak256(abi.encode(message, msg.sender));\n        uint256 offset;\n        assembly {\n          offset := signatures.offset\n        }\n        for(uint256 msg_idx = 0; msg_idx < signatures.length; msg_idx+= 65){\n            //recover address from that msg\n            bytes32 r;\n            bytes32 s;\n            uint8 v;\n            assembly {\n\n            // first 32 bytes, after the length prefix\n                r := calldataload(add(offset,msg_idx))\n            // second 32 bytes\n                s := calldataload(add(add(offset,msg_idx), 32))\n            // final byte (first byte of the next 32 bytes)\n                v := byte(0, calldataload(add(add(offset,msg_idx), 64)))\n            }\n            // EIP-2 still allows signature malleability for ecrecover(). Remove this possibility and make the signature\n            // unique. Appendix F in the Ethereum Yellow paper (https://ethereum.github.io/yellowpaper/paper.pdf), defines\n            // the valid range for s in (281): 0 < s < secp256k1n  2 + 1, and for v in (282): v  {27, 28}. Most\n            // signatures from current libraries generate a unique signature with an s-value in the lower half order.\n            //\n            // If your library generates malleable signatures, such as s-values in the upper range, calculate a new s-value\n            // with 0xFFFFFFFFFFFFFFFFFFFFFFFFFFFFFFFEBAAEDCE6AF48A03BBFD25E8CD0364141 - s1 and flip v from 27 to 28 or\n            // vice versa. If your library also generates signatures with 0/1 for v instead 27/28, add 27 to v to accept\n            // these malleable signatures as well.\n            require(uint256(s) <= 0x7FFFFFFFFFFFFFFFFFFFFFFFFFFFFFFF5D576E7357A4501DDFE92F46681B20A0, \"Malleable signature error\");\n            if (v < 27) v += 27;\n\n            address recovered_address = ecrecover(message_hash, v, r, s);\n\n            if(signers[recovered_address] && !has_signed[message_hash][recovered_address]){\n                has_signed[message_hash][recovered_address] = true;\n                sig_count++;\n            }\n        }\n\n        used_nonces[nonce] = ((uint256(sig_count) * 1000) / (uint256(signer_count))) > threshold;\n\n        return used_nonces[nonce];\n\n    }\n\n    /// @return Number of valid signers\n    function get_valid_signer_count() public override view returns(uint8){\n        return signer_count;\n    }\n\n    /// @return Current threshold\n    function get_current_threshold() public override view returns(uint16) {\n        return threshold;\n    }\n\n    /// @param signer_address target potential signer address\n    /// @return true if address provided is valid signer\n    function is_valid_signer(address signer_address) public override view returns(bool){\n        return signers[signer_address];\n    }\n\n    /// @param nonce Nonce to lookup\n    /// @return true if nonce has been used\n    function is_nonce_used(uint256 nonce) public override view returns(bool){\n        return used_nonces[nonce];\n    }\n}\n\n/**\nMMMMMMMMMMMMMMMMMMMMMMMMMMMMMMMMMMMMMMMMMMMMMMMMMMMMMMMMMMMM\nMMMMMMMMMMMMMMMMMMMMMMMMMMMMMMMMMMMMMMMMMMMMMMMMMMMMMMMMMMMM\nMMMMWEMMMMMMMMMMMMMMMMMMMMMMMMMM...............MMMMMMMMMMMMM\nMMMMMMLOVEMMMMMMMMMMMMMMMMMMMMMM...............MMMMMMMMMMMMM\nMMMMMMMMMMHIXELMMMMMMMMMMMM....................MMMMMNNMMMMMM\nMMMMMMMMMMMMMMMMMMMMMMMMMMM....................MMMMMMMMMMMMM\nMMMMMMMMMMMMMMMMMMMMMM88=........................+MMMMMMMMMM\nMMMMMMMMMMMMMMMMM....................MMMMM...MMMMMMMMMMMMMMM\nMMMMMMMMMMMMMMMMM....................MMMMM...MMMMMMMMMMMMMMM\nMMMMMMMMMMMM.........................MM+..MMM....+MMMMMMMMMM\nMMMMMMMMMNMM...................... ..MM?..MMM.. .+MMMMMMMMMM\nMMMMNDDMM+........................+MM........MM..+MMMMMMMMMM\nMMMMZ.............................+MM....................MMM\nMMMMZ.............................+MM....................MMM\nMMMMZ.............................+MM....................DDD\nMMMMZ.............................+MM..ZMMMMMMMMMMMMMMMMMMMM\nMMMMZ.............................+MM..ZMMMMMMMMMMMMMMMMMMMM\nMM..............................MMZ....ZMMMMMMMMMMMMMMMMMMMM\nMM............................MM.......ZMMMMMMMMMMMMMMMMMMMM\nMM............................MM.......ZMMMMMMMMMMMMMMMMMMMM\nMM......................ZMMMMM.......MMMMMMMMMMMMMMMMMMMMMMM\nMM............... ......ZMMMMM.... ..MMMMMMMMMMMMMMMMMMMMMMM\nMM...............MMMMM88~.........+MM..ZMMMMMMMMMMMMMMMMMMMM\nMM.......$DDDDDDD.......$DDDDD..DDNMM..ZMMMMMMMMMMMMMMMMMMMM\nMM.......$DDDDDDD.......$DDDDD..DDNMM..ZMMMMMMMMMMMMMMMMMMMM\nMM.......ZMMMMMMM.......ZMMMMM..MMMMM..ZMMMMMMMMMMMMMMMMMMMM\nMMMMMMMMM+.......MMMMM88NMMMMM..MMMMMMMMMMMMMMMMMMMMMMMMMMMM\nMMMMMMMMM+.......MMMMM88NMMMMM..MMMMMMMMMMMMMMMMMMMMMMMMMMMM\nMMMMMMMMMMMMMMMMMMMMMMMMMMMMMMMMMMMMMMMMMMMMMMMMMMMMMMMMMMMM\nMMMMMMMMMMMMMMMMMMMMMMMMMMMMMMMMMMMMMMMMMMMMMMMMMMMMMMMMMMMM*/\n",
  "sourcePath": "/Users/nemitariajienka/Desktop/projects/MultisigControl/contracts/MultisigControl.sol",
  "compiler": {
    "name": "solc",
    "version": "0.8.8+commit.dddeac2f.Emscripten.clang"
  },
  "schemaVersion": "3.3.3",
  "updatedAt": "2022-04-27T12:07:27.888Z",
  "networkType": "ethereum",
  "devdoc": {
    "author": "Vega Protocol",
    "kind": "dev",
    "methods": {
      "add_signer(address,uint256,bytes)": {
        "details": "Emits 'SignerAdded' event",
        "params": {
          "new_signer": "New signer address",
          "nonce": "Vega-assigned single-use number that provides replay attack protection",
          "signatures": "Vega-supplied signature bundle of a validator-signed order"
        }
      },
      "get_current_threshold()": {
        "returns": {
          "_0": "Current threshold"
        }
      },
      "get_valid_signer_count()": {
        "returns": {
          "_0": "Number of valid signers"
        }
      },
      "is_nonce_used(uint256)": {
        "params": {
          "nonce": "Nonce to lookup"
        },
        "returns": {
          "_0": "true if nonce has been used"
        }
      },
      "is_valid_signer(address)": {
        "params": {
          "signer_address": "target potential signer address"
        },
        "returns": {
          "_0": "true if address provided is valid signer"
        }
      },
      "remove_signer(address,uint256,bytes)": {
        "details": "Emits 'SignerRemoved' event",
        "params": {
          "nonce": "Vega-assigned single-use number that provides replay attack protection",
          "old_signer": "Address of signer to be removed.",
          "signatures": "Vega-supplied signature bundle of a validator-signed order"
        }
      },
      "set_threshold(uint16,uint256,bytes)": {
        "details": "Emits ThresholdSet event",
        "params": {
          "new_threshold": "New threshold value",
          "nonce": "Vega-assigned single-use number that provides replay attack protection",
          "signatures": "Vega-supplied signature bundle of a validator-signed order"
        }
      },
      "verify_signatures(bytes,bytes,uint256)": {
        "returns": {
          "_0": "Returns true if valid signatures are over the threshold"
        }
      }
    },
    "title": "MultisigControl",
    "version": 1
  },
  "userdoc": {
    "kind": "user",
    "methods": {
      "add_signer(address,uint256,bytes)": {
        "notice": "Adds new valid signer and adjusts signer count.See MultisigControl for more about signatures"
      },
      "remove_signer(address,uint256,bytes)": {
        "notice": "Removes currently valid signer and adjusts signer count.See MultisigControl for more about signatures"
      },
      "set_threshold(uint16,uint256,bytes)": {
        "notice": "Sets threshold of signatures that must be met before function is executed.See MultisigControl for more about signaturesEthereum has no decimals, threshold is % * 10 so 50% == 500 100% == 1000signatures are OK if they are >= threshold count of total valid signers"
      },
      "verify_signatures(bytes,bytes,uint256)": {
        "notice": "Verifies a signature bundle and returns true only if the threshold of valid signers is met,this is a function that any function controlled by Vega MUST call to be securely controlled by the Vega networkmessage to hash to sign follows this pattern:abi.encode( abi.encode(param1, param2, param3, ... , nonce, function_name_string), validating_contract_or_submitter_address);Note that validating_contract_or_submitter_address is the submitting party. If on MultisigControl contract itself, it's the submitting ETH addressif function on bridge that then calls Multisig, then it's the address of that contractNote also the embedded encoding, this is required to verify what function/contract the function call goes to"
      }
    },
    "notice": "This contract enables validators, through a multisignature process, to run functions on contracts by consensus",
    "version": 1
  }
}