{
  "contractName": "Vega_Staking_Bridge",
  "abi": [
    {
      "inputs": [
        {
          "internalType": "address",
          "name": "token",
          "type": "address"
        }
      ],
      "stateMutability": "nonpayable",
      "type": "constructor"
    },
    {
      "anonymous": false,
      "inputs": [
        {
          "indexed": true,
          "internalType": "address",
          "name": "user",
          "type": "address"
        },
        {
          "indexed": false,
          "internalType": "uint256",
          "name": "amount",
          "type": "uint256"
        },
        {
          "indexed": true,
          "internalType": "bytes32",
          "name": "vega_public_key",
          "type": "bytes32"
        }
      ],
      "name": "Stake_Deposited",
      "type": "event"
    },
    {
      "anonymous": false,
      "inputs": [
        {
          "indexed": true,
          "internalType": "address",
          "name": "user",
          "type": "address"
        },
        {
          "indexed": false,
          "internalType": "uint256",
          "name": "amount",
          "type": "uint256"
        },
        {
          "indexed": true,
          "internalType": "bytes32",
          "name": "vega_public_key",
          "type": "bytes32"
        }
      ],
      "name": "Stake_Removed",
      "type": "event"
    },
    {
      "anonymous": false,
      "inputs": [
        {
          "indexed": true,
          "internalType": "address",
          "name": "from",
          "type": "address"
        },
        {
          "indexed": false,
          "internalType": "uint256",
          "name": "amount",
          "type": "uint256"
        },
        {
          "indexed": true,
          "internalType": "address",
          "name": "to",
          "type": "address"
        },
        {
          "indexed": true,
          "internalType": "bytes32",
          "name": "vega_public_key",
          "type": "bytes32"
        }
      ],
      "name": "Stake_Transferred",
      "type": "event"
    },
    {
      "inputs": [
        {
          "internalType": "uint256",
          "name": "amount",
          "type": "uint256"
        },
        {
          "internalType": "bytes32",
          "name": "vega_public_key",
          "type": "bytes32"
        }
      ],
      "name": "stake",
      "outputs": [],
      "stateMutability": "nonpayable",
      "type": "function"
    },
    {
      "inputs": [
        {
          "internalType": "uint256",
          "name": "amount",
          "type": "uint256"
        },
        {
          "internalType": "bytes32",
          "name": "vega_public_key",
          "type": "bytes32"
        }
      ],
      "name": "remove_stake",
      "outputs": [],
      "stateMutability": "nonpayable",
      "type": "function"
    },
    {
      "inputs": [
        {
          "internalType": "uint256",
          "name": "amount",
          "type": "uint256"
        },
        {
          "internalType": "address",
          "name": "new_address",
          "type": "address"
        },
        {
          "internalType": "bytes32",
          "name": "vega_public_key",
          "type": "bytes32"
        }
      ],
      "name": "transfer_stake",
      "outputs": [],
      "stateMutability": "nonpayable",
      "type": "function"
    },
    {
      "inputs": [],
      "name": "staking_token",
      "outputs": [
        {
          "internalType": "address",
          "name": "",
          "type": "address"
        }
      ],
      "stateMutability": "view",
      "type": "function"
    },
    {
      "inputs": [
        {
          "internalType": "address",
          "name": "target",
          "type": "address"
        },
        {
          "internalType": "bytes32",
          "name": "vega_public_key",
          "type": "bytes32"
        }
      ],
      "name": "stake_balance",
      "outputs": [
        {
          "internalType": "uint256",
          "name": "",
          "type": "uint256"
        }
      ],
      "stateMutability": "view",
      "type": "function"
    },
    {
      "inputs": [],
      "name": "total_staked",
      "outputs": [
        {
          "internalType": "uint256",
          "name": "",
          "type": "uint256"
        }
      ],
      "stateMutability": "view",
      "type": "function"
    }
  ],
  "bytecode": "0x608060405234801561001057600080fd5b50604051610b7a380380610b7a833981810160405281019061003291906100db565b806000806101000a81548173ffffffffffffffffffffffffffffffffffffffff021916908373ffffffffffffffffffffffffffffffffffffffff16021790555050610108565b600080fd5b600073ffffffffffffffffffffffffffffffffffffffff82169050919050565b60006100a88261007d565b9050919050565b6100b88161009d565b81146100c357600080fd5b50565b6000815190506100d5816100af565b92915050565b6000602082840312156100f1576100f0610078565b5b60006100ff848285016100c6565b91505092915050565b610a63806101176000396000f3fe608060405234801561001057600080fd5b50600436106100625760003560e01c8063274abf34146100675780632dc7d74c1461009757806348c66e13146100b557806383c592cf146100d1578063af7568dd146100ed578063dd01ba0b1461010b575b600080fd5b610081600480360381019061007c9190610710565b610127565b60405161008e9190610769565b60405180910390f35b61009f610182565b6040516100ac9190610793565b60405180910390f35b6100cf60048036038101906100ca91906107da565b6101ab565b005b6100eb60048036038101906100e6919061082d565b6102e4565b005b6100f5610456565b6040516101029190610769565b60405180910390f35b6101256004803603810190610120919061082d565b610507565b005b6000600160008473ffffffffffffffffffffffffffffffffffffffff1673ffffffffffffffffffffffffffffffffffffffff168152602001908152602001600020600083815260200190815260200160002054905092915050565b60008060009054906101000a900473ffffffffffffffffffffffffffffffffffffffff16905090565b82600160003373ffffffffffffffffffffffffffffffffffffffff1673ffffffffffffffffffffffffffffffffffffffff1681526020019081526020016000206000838152602001908152602001600020600082825461020b919061089c565b9250508190555082600160008473ffffffffffffffffffffffffffffffffffffffff1673ffffffffffffffffffffffffffffffffffffffff1681526020019081526020016000206000838152602001908152602001600020600082825461027291906108d0565b92505081905550808273ffffffffffffffffffffffffffffffffffffffff163373ffffffffffffffffffffffffffffffffffffffff167f296aca09e6f616abedcd9cd45ac378207310452b7a713289374fd1b35e2c2fbe866040516102d79190610769565b60405180910390a4505050565b60008054906101000a900473ffffffffffffffffffffffffffffffffffffffff1673ffffffffffffffffffffffffffffffffffffffff166323b872dd3330856040518463ffffffff1660e01b815260040161034193929190610926565b602060405180830381600087803b15801561035b57600080fd5b505af115801561036f573d6000803e3d6000fd5b505050506040513d601f19601f820116820180604052508101906103939190610995565b61039c57600080fd5b81600160003373ffffffffffffffffffffffffffffffffffffffff1673ffffffffffffffffffffffffffffffffffffffff168152602001908152602001600020600083815260200190815260200160002060008282546103fc91906108d0565b92505081905550803373ffffffffffffffffffffffffffffffffffffffff167f9e3e33edf5dcded4adabc51b1266225d00fa41516bfcad69513fa4eca69519da8460405161044a9190610769565b60405180910390a35050565b60008060009054906101000a900473ffffffffffffffffffffffffffffffffffffffff1673ffffffffffffffffffffffffffffffffffffffff166370a08231306040518263ffffffff1660e01b81526004016104b29190610793565b60206040518083038186803b1580156104ca57600080fd5b505afa1580156104de573d6000803e3d6000fd5b505050506040513d601f19601f8201168201806040525081019061050291906109d7565b905090565b81600160003373ffffffffffffffffffffffffffffffffffffffff1673ffffffffffffffffffffffffffffffffffffffff16815260200190815260200160002060008381526020019081526020016000206000828254610567919061089c565b9250508190555060008054906101000a900473ffffffffffffffffffffffffffffffffffffffff1673ffffffffffffffffffffffffffffffffffffffff1663a9059cbb33846040518363ffffffff1660e01b81526004016105c9929190610a04565b602060405180830381600087803b1580156105e357600080fd5b505af11580156105f7573d6000803e3d6000fd5b505050506040513d601f19601f8201168201806040525081019061061b9190610995565b61062457600080fd5b803373ffffffffffffffffffffffffffffffffffffffff167fa131d16963736e4c641f27a7f82f2e350b5971e555ae06ae906892bbba0a09398460405161066b9190610769565b60405180910390a35050565b600080fd5b600073ffffffffffffffffffffffffffffffffffffffff82169050919050565b60006106a78261067c565b9050919050565b6106b78161069c565b81146106c257600080fd5b50565b6000813590506106d4816106ae565b92915050565b6000819050919050565b6106ed816106da565b81146106f857600080fd5b50565b60008135905061070a816106e4565b92915050565b6000806040838503121561072757610726610677565b5b6000610735858286016106c5565b9250506020610746858286016106fb565b9150509250929050565b6000819050919050565b61076381610750565b82525050565b600060208201905061077e600083018461075a565b92915050565b61078d8161069c565b82525050565b60006020820190506107a86000830184610784565b92915050565b6107b781610750565b81146107c257600080fd5b50565b6000813590506107d4816107ae565b92915050565b6000806000606084860312156107f3576107f2610677565b5b6000610801868287016107c5565b9350506020610812868287016106c5565b9250506040610823868287016106fb565b9150509250925092565b6000806040838503121561084457610843610677565b5b6000610852858286016107c5565b9250506020610863858286016106fb565b9150509250929050565b7f4e487b7100000000000000000000000000000000000000000000000000000000600052601160045260246000fd5b60006108a782610750565b91506108b283610750565b9250828210156108c5576108c461086d565b5b828203905092915050565b60006108db82610750565b91506108e683610750565b9250827fffffffffffffffffffffffffffffffffffffffffffffffffffffffffffffffff0382111561091b5761091a61086d565b5b828201905092915050565b600060608201905061093b6000830186610784565b6109486020830185610784565b610955604083018461075a565b949350505050565b60008115159050919050565b6109728161095d565b811461097d57600080fd5b50565b60008151905061098f81610969565b92915050565b6000602082840312156109ab576109aa610677565b5b60006109b984828501610980565b91505092915050565b6000815190506109d1816107ae565b92915050565b6000602082840312156109ed576109ec610677565b5b60006109fb848285016109c2565b91505092915050565b6000604082019050610a196000830185610784565b610a26602083018461075a565b939250505056fea2646970667358221220c06135b343b42cd1b722df0ffc6f6a161245cb5014abbc7494215f2d40929df264736f6c63430008080033",
  "immutableReferences": {},
  "source": "\n//SPDX-License-Identifier: MIT\npragma solidity 0.8.8;\n\nimport \"./IERC20.sol\";\nimport \"./IStake.sol\";\n\n/// @title ERC20 Staking Bridge\n/// @author Vega Protocol\n/// @notice This contract manages the vesting of the Vega V2 ERC20 token\ncontract Vega_Staking_Bridge is IStake {\n  address _staking_token;\n\n  constructor(address token) {\n    _staking_token = token;\n  }\n\n  /// @dev user => amount staked\n  mapping(address => mapping(bytes32 => uint256)) stakes;\n\n  /// @notice This stakes the given amount of tokens and credits them to the provided Vega public key\n  /// @param amount Token amount to stake\n  /// @param vega_public_key Target Vega public key to be credited with the stake\n  /// @dev Emits Stake_Deposited event\n  /// @dev User MUST run \"approve\" on token prior to running Stake\n  function stake(uint256 amount, bytes32 vega_public_key) public {\n    require(IERC20(_staking_token).transferFrom(msg.sender, address(this), amount));\n    stakes[msg.sender][vega_public_key] += amount;\n    emit Stake_Deposited(msg.sender, amount, vega_public_key);\n  }\n\n  /// @notice This removes specified amount of stake of available to user\n  /// @dev Emits Stake_Removed event if successful\n  /// @param amount Amount of tokens to remove from staking\n  /// @param vega_public_key Target Vega public key from which to deduct stake\n  function remove_stake(uint256 amount, bytes32 vega_public_key) public {\n    stakes[msg.sender][vega_public_key] -= amount;\n    require(IERC20(_staking_token).transfer(msg.sender, amount));\n    emit Stake_Removed(msg.sender, amount, vega_public_key);\n  }\n\n  /// @notice This transfers all stake from the sender's address to the \"new_address\"\n  /// @dev Emits Stake_Transfered event if successful\n  /// @param amount Stake amount to transfer\n  /// @param new_address Target ETH address to recieve the stake\n  /// @param vega_public_key Target Vega public key to be credited with the transfer\n  function transfer_stake(uint256 amount, address new_address, bytes32 vega_public_key) public {\n    stakes[msg.sender][vega_public_key] -= amount;\n    stakes[new_address][vega_public_key] += amount;\n    emit Stake_Transferred(msg.sender, amount, new_address, vega_public_key);\n  }\n\n  /// @dev This is IStake.staking_token\n  /// @return the address of the token that is able to be staked\n  function staking_token() external override view returns (address) {\n    return _staking_token;\n  }\n\n  /// @dev This is IStake.stake_balance\n  /// @param target Target address to check\n  /// @param vega_public_key Target vega public key to check\n  /// @return the number of tokens staked for that address->vega_public_key pair\n  function stake_balance(address target, bytes32 vega_public_key) external override view returns (uint256) {\n    return  stakes[target][vega_public_key];\n  }\n\n  /// @dev This is IStake.total_staked\n  /// @return total tokens staked on contract\n  function total_staked() external override view returns (uint256) {\n    return IERC20(_staking_token).balanceOf(address(this));\n  }\n}\n\n\n/**\nMMMMMMMMMMMMMMMMMMMMMMMMMMMMMMMMMMMMMMMMMMMMMMMMMMMMMMMMMMMM\nMMMMMMMMMMMMMMMMMMMMMMMMMMMMMMMMMMMMMMMMMMMMMMMMMMMMMMMMMMMM\nMMMMWEMMMMMMMMMMMMMMMMMMMMMMMMMM...............MMMMMMMMMMMMM\nMMMMMMLOVEMMMMMMMMMMMMMMMMMMMMMM...............MMMMMMMMMMMMM\nMMMMMMMMMMHIXELMMMMMMMMMMMM....................MMMMMNNMMMMMM\nMMMMMMMMMMMMMMMMMMMMMMMMMMM....................MMMMMMMMMMMMM\nMMMMMMMMMMMMMMMMMMMMMM88=........................+MMMMMMMMMM\nMMMMMMMMMMMMMMMMM....................MMMMM...MMMMMMMMMMMMMMM\nMMMMMMMMMMMMMMMMM....................MMMMM...MMMMMMMMMMMMMMM\nMMMMMMMMMMMM.........................MM+..MMM....+MMMMMMMMMM\nMMMMMMMMMNMM...................... ..MM?..MMM.. .+MMMMMMMMMM\nMMMMNDDMM+........................+MM........MM..+MMMMMMMMMM\nMMMMZ.............................+MM....................MMM\nMMMMZ.............................+MM....................MMM\nMMMMZ.............................+MM....................DDD\nMMMMZ.............................+MM..ZMMMMMMMMMMMMMMMMMMMM\nMMMMZ.............................+MM..ZMMMMMMMMMMMMMMMMMMMM\nMM..............................MMZ....ZMMMMMMMMMMMMMMMMMMMM\nMM............................MM.......ZMMMMMMMMMMMMMMMMMMMM\nMM............................MM.......ZMMMMMMMMMMMMMMMMMMMM\nMM......................ZMMMMM.......MMMMMMMMMMMMMMMMMMMMMMM\nMM............... ......ZMMMMM.... ..MMMMMMMMMMMMMMMMMMMMMMM\nMM...............MMMMM88~.........+MM..ZMMMMMMMMMMMMMMMMMMMM\nMM.......$DDDDDDD.......$DDDDD..DDNMM..ZMMMMMMMMMMMMMMMMMMMM\nMM.......$DDDDDDD.......$DDDDD..DDNMM..ZMMMMMMMMMMMMMMMMMMMM\nMM.......ZMMMMMMM.......ZMMMMM..MMMMM..ZMMMMMMMMMMMMMMMMMMMM\nMMMMMMMMM+.......MMMMM88NMMMMM..MMMMMMMMMMMMMMMMMMMMMMMMMMMM\nMMMMMMMMM+.......MMMMM88NMMMMM..MMMMMMMMMMMMMMMMMMMMMMMMMMMM\nMMMMMMMMMMMMMMMMMMMMMMMMMMMMMMMMMMMMMMMMMMMMMMMMMMMMMMMMMMMM\nMMMMMMMMMMMMMMMMMMMMMMMMMMMMMMMMMMMMMMMMMMMMMMMMMMMMMMMMMMMM*/\n",
  "sourcePath": "/Users/nemitariajienka/Desktop/projects/MultisigControl/contracts/tests/Vega_Staking_Bridge.sol",
  "compiler": {
    "name": "solc",
    "version": "0.8.8+commit.dddeac2f.Emscripten.clang"
  },
  "schemaVersion": "3.3.3",
  "updatedAt": "2022-04-28T16:40:52.676Z",
  "devdoc": {
    "author": "Vega Protocol",
    "kind": "dev",
    "methods": {
      "remove_stake(uint256,bytes32)": {
        "details": "Emits Stake_Removed event if successful",
        "params": {
          "amount": "Amount of tokens to remove from staking",
          "vega_public_key": "Target Vega public key from which to deduct stake"
        }
      },
      "stake(uint256,bytes32)": {
        "details": "Emits Stake_Deposited eventUser MUST run \"approve\" on token prior to running Stake",
        "params": {
          "amount": "Token amount to stake",
          "vega_public_key": "Target Vega public key to be credited with the stake"
        }
      },
      "stake_balance(address,bytes32)": {
        "details": "This is IStake.stake_balance",
        "params": {
          "target": "Target address to check",
          "vega_public_key": "Target vega public key to check"
        },
        "returns": {
          "_0": "the number of tokens staked for that address->vega_public_key pair"
        }
      },
      "staking_token()": {
        "details": "This is IStake.staking_token",
        "returns": {
          "_0": "the address of the token that is able to be staked"
        }
      },
      "total_staked()": {
        "details": "This is IStake.total_staked",
        "returns": {
          "_0": "total tokens staked on contract"
        }
      },
      "transfer_stake(uint256,address,bytes32)": {
        "details": "Emits Stake_Transfered event if successful",
        "params": {
          "amount": "Stake amount to transfer",
          "new_address": "Target ETH address to recieve the stake",
          "vega_public_key": "Target Vega public key to be credited with the transfer"
        }
      }
    },
    "stateVariables": {
      "stakes": {
        "details": "user => amount staked"
      }
    },
    "title": "ERC20 Staking Bridge",
    "version": 1
  },
  "userdoc": {
    "kind": "user",
    "methods": {
      "remove_stake(uint256,bytes32)": {
        "notice": "This removes specified amount of stake of available to user"
      },
      "stake(uint256,bytes32)": {
        "notice": "This stakes the given amount of tokens and credits them to the provided Vega public key"
      },
      "transfer_stake(uint256,address,bytes32)": {
        "notice": "This transfers all stake from the sender's address to the \"new_address\""
      }
    },
    "notice": "This contract manages the vesting of the Vega V2 ERC20 token",
    "version": 1
  }
}