{
  "contractName": "Vega_Bridge_ERC20",
  "abi": [
    {
      "anonymous": false,
      "inputs": [
        {
          "indexed": true,
          "internalType": "address",
          "name": "asset_source",
          "type": "address"
        },
        {
          "indexed": true,
          "internalType": "uint256",
          "name": "asset_id",
          "type": "uint256"
        },
        {
          "indexed": false,
          "internalType": "uint256",
          "name": "nonce",
          "type": "uint256"
        }
      ],
      "name": "Asset_Blacklisted",
      "type": "event"
    },
    {
      "anonymous": false,
      "inputs": [
        {
          "indexed": true,
          "internalType": "address",
          "name": "asset_source",
          "type": "address"
        },
        {
          "indexed": true,
          "internalType": "uint256",
          "name": "asset_id",
          "type": "uint256"
        },
        {
          "indexed": false,
          "internalType": "uint256",
          "name": "new_minimum",
          "type": "uint256"
        },
        {
          "indexed": false,
          "internalType": "uint256",
          "name": "nonce",
          "type": "uint256"
        }
      ],
      "name": "Asset_Deposit_Minimum_Set",
      "type": "event"
    },
    {
      "anonymous": false,
      "inputs": [
        {
          "indexed": true,
          "internalType": "address",
          "name": "user_address",
          "type": "address"
        },
        {
          "indexed": true,
          "internalType": "address",
          "name": "asset_source",
          "type": "address"
        },
        {
          "indexed": true,
          "internalType": "uint256",
          "name": "asset_id",
          "type": "uint256"
        },
        {
          "indexed": false,
          "internalType": "uint256",
          "name": "amount",
          "type": "uint256"
        },
        {
          "indexed": false,
          "internalType": "bytes32",
          "name": "vega_public_key",
          "type": "bytes32"
        }
      ],
      "name": "Asset_Deposited",
      "type": "event"
    },
    {
      "anonymous": false,
      "inputs": [
        {
          "indexed": true,
          "internalType": "address",
          "name": "asset_source",
          "type": "address"
        },
        {
          "indexed": true,
          "internalType": "uint256",
          "name": "asset_id",
          "type": "uint256"
        },
        {
          "indexed": false,
          "internalType": "uint256",
          "name": "nonce",
          "type": "uint256"
        }
      ],
      "name": "Asset_Whitelisted",
      "type": "event"
    },
    {
      "anonymous": false,
      "inputs": [
        {
          "indexed": true,
          "internalType": "address",
          "name": "user_address",
          "type": "address"
        },
        {
          "indexed": true,
          "internalType": "address",
          "name": "asset_source",
          "type": "address"
        },
        {
          "indexed": true,
          "internalType": "uint256",
          "name": "asset_id",
          "type": "uint256"
        },
        {
          "indexed": false,
          "internalType": "uint256",
          "name": "amount",
          "type": "uint256"
        },
        {
          "indexed": false,
          "internalType": "uint256",
          "name": "nonce",
          "type": "uint256"
        }
      ],
      "name": "Asset_Withdrawn",
      "type": "event"
    },
    {
      "anonymous": false,
      "inputs": [
        {
          "indexed": true,
          "internalType": "address",
          "name": "multisig_control_source",
          "type": "address"
        }
      ],
      "name": "Multisig_Control_Set",
      "type": "event"
    },
    {
      "anonymous": false,
      "inputs": [
        {
          "indexed": true,
          "internalType": "address",
          "name": "previousOwner",
          "type": "address"
        },
        {
          "indexed": true,
          "internalType": "address",
          "name": "newOwner",
          "type": "address"
        }
      ],
      "name": "OwnershipTransferred",
      "type": "event"
    },
    {
      "constant": true,
      "inputs": [],
      "name": "isOwner",
      "outputs": [
        {
          "internalType": "bool",
          "name": "",
          "type": "bool"
        }
      ],
      "payable": false,
      "stateMutability": "view",
      "type": "function"
    },
    {
      "constant": true,
      "inputs": [],
      "name": "owner",
      "outputs": [
        {
          "internalType": "address",
          "name": "",
          "type": "address"
        }
      ],
      "payable": false,
      "stateMutability": "view",
      "type": "function"
    },
    {
      "constant": false,
      "inputs": [],
      "name": "renounceOwnership",
      "outputs": [],
      "payable": false,
      "stateMutability": "nonpayable",
      "type": "function"
    },
    {
      "constant": false,
      "inputs": [
        {
          "internalType": "address",
          "name": "newOwner",
          "type": "address"
        }
      ],
      "name": "transferOwnership",
      "outputs": [],
      "payable": false,
      "stateMutability": "nonpayable",
      "type": "function"
    },
    {
      "constant": false,
      "inputs": [
        {
          "internalType": "address",
          "name": "asset_source",
          "type": "address"
        },
        {
          "internalType": "uint256",
          "name": "asset_id",
          "type": "uint256"
        }
      ],
      "name": "whitelist_asset_admin",
      "outputs": [],
      "payable": false,
      "stateMutability": "nonpayable",
      "type": "function"
    },
    {
      "constant": false,
      "inputs": [
        {
          "internalType": "address",
          "name": "asset_source",
          "type": "address"
        },
        {
          "internalType": "uint256",
          "name": "asset_id",
          "type": "uint256"
        }
      ],
      "name": "blacklist_asset_admin",
      "outputs": [],
      "payable": false,
      "stateMutability": "nonpayable",
      "type": "function"
    },
    {
      "constant": false,
      "inputs": [
        {
          "internalType": "address",
          "name": "asset_source",
          "type": "address"
        },
        {
          "internalType": "uint256",
          "name": "asset_id",
          "type": "uint256"
        },
        {
          "internalType": "uint256",
          "name": "nonce",
          "type": "uint256"
        },
        {
          "internalType": "bytes",
          "name": "signatures",
          "type": "bytes"
        }
      ],
      "name": "whitelist_asset",
      "outputs": [],
      "payable": false,
      "stateMutability": "nonpayable",
      "type": "function"
    },
    {
      "constant": false,
      "inputs": [
        {
          "internalType": "address",
          "name": "asset_source",
          "type": "address"
        },
        {
          "internalType": "uint256",
          "name": "asset_id",
          "type": "uint256"
        },
        {
          "internalType": "uint256",
          "name": "nonce",
          "type": "uint256"
        },
        {
          "internalType": "bytes",
          "name": "signatures",
          "type": "bytes"
        }
      ],
      "name": "blacklist_asset",
      "outputs": [],
      "payable": false,
      "stateMutability": "nonpayable",
      "type": "function"
    },
    {
      "constant": false,
      "inputs": [
        {
          "internalType": "address",
          "name": "asset_source",
          "type": "address"
        },
        {
          "internalType": "uint256",
          "name": "asset_id",
          "type": "uint256"
        },
        {
          "internalType": "uint256",
          "name": "nonce",
          "type": "uint256"
        },
        {
          "internalType": "uint256",
          "name": "minimum_amount",
          "type": "uint256"
        },
        {
          "internalType": "bytes",
          "name": "signatures",
          "type": "bytes"
        }
      ],
      "name": "set_deposit_minimum",
      "outputs": [],
      "payable": false,
      "stateMutability": "nonpayable",
      "type": "function"
    },
    {
      "constant": false,
      "inputs": [
        {
          "internalType": "address",
          "name": "asset_source",
          "type": "address"
        },
        {
          "internalType": "uint256",
          "name": "asset_id",
          "type": "uint256"
        },
        {
          "internalType": "uint256",
          "name": "amount",
          "type": "uint256"
        },
        {
          "internalType": "uint256",
          "name": "nonce",
          "type": "uint256"
        },
        {
          "internalType": "bytes",
          "name": "signatures",
          "type": "bytes"
        }
      ],
      "name": "withdraw_asset",
      "outputs": [],
      "payable": false,
      "stateMutability": "nonpayable",
      "type": "function"
    },
    {
      "constant": false,
      "inputs": [
        {
          "internalType": "address",
          "name": "asset_source",
          "type": "address"
        },
        {
          "internalType": "uint256",
          "name": "asset_id",
          "type": "uint256"
        },
        {
          "internalType": "uint256",
          "name": "amount",
          "type": "uint256"
        },
        {
          "internalType": "bytes32",
          "name": "vega_public_key",
          "type": "bytes32"
        }
      ],
      "name": "deposit_asset",
      "outputs": [],
      "payable": false,
      "stateMutability": "nonpayable",
      "type": "function"
    },
    {
      "constant": false,
      "inputs": [
        {
          "internalType": "address",
          "name": "new_multisig_contract_address",
          "type": "address"
        }
      ],
      "name": "set_multisig_control",
      "outputs": [],
      "payable": false,
      "stateMutability": "nonpayable",
      "type": "function"
    },
    {
      "constant": true,
      "inputs": [
        {
          "internalType": "address",
          "name": "asset_source",
          "type": "address"
        },
        {
          "internalType": "uint256",
          "name": "asset_id",
          "type": "uint256"
        }
      ],
      "name": "is_asset_whitelisted",
      "outputs": [
        {
          "internalType": "bool",
          "name": "",
          "type": "bool"
        }
      ],
      "payable": false,
      "stateMutability": "view",
      "type": "function"
    },
    {
      "constant": true,
      "inputs": [
        {
          "internalType": "address",
          "name": "asset_source",
          "type": "address"
        },
        {
          "internalType": "uint256",
          "name": "asset_id",
          "type": "uint256"
        }
      ],
      "name": "get_deposit_minimum",
      "outputs": [
        {
          "internalType": "uint256",
          "name": "",
          "type": "uint256"
        }
      ],
      "payable": false,
      "stateMutability": "view",
      "type": "function"
    },
    {
      "constant": true,
      "inputs": [],
      "name": "get_multisig_control_address",
      "outputs": [
        {
          "internalType": "address",
          "name": "",
          "type": "address"
        }
      ],
      "payable": false,
      "stateMutability": "view",
      "type": "function"
    }
  ],
  "bytecode": "0x6080604052336000806101000a81548173ffffffffffffffffffffffffffffffffffffffff021916908373ffffffffffffffffffffffffffffffffffffffff1602179055506000809054906101000a900473ffffffffffffffffffffffffffffffffffffffff1673ffffffffffffffffffffffffffffffffffffffff16600073ffffffffffffffffffffffffffffffffffffffff167f8be0079c531659141344cd1fd0a4f28419497f9722a3daafe3b4186f6b6457e060405160405180910390a36126b4806100cf6000396000f3fe608060405234801561001057600080fd5b50600436106100f55760003560e01c806398d6a1c111610097578063cafb4cc211610066578063cafb4cc214610688578063efffe531146106ee578063f2fde38b14610732578063f922254414610776576100f5565b806398d6a1c1146103f4578063a9d9e9f0146104ed578063b0021bdb1461054f578063c58dc3b91461063e576100f5565b8063715018a6116100d3578063715018a6146102855780637776a2a51461028f5780638da5cb5b146103885780638f32d59b146103d2576100f5565b80631a52dad7146100fa5780634649608f146101485780636ebb249e14610196575b600080fd5b6101466004803603604081101561011057600080fd5b81019080803573ffffffffffffffffffffffffffffffffffffffff169060200190929190803590602001909291905050506107d8565b005b6101946004803603604081101561015e57600080fd5b81019080803573ffffffffffffffffffffffffffffffffffffffff16906020019092919080359060200190929190505050610a2f565b005b610283600480360360808110156101ac57600080fd5b81019080803573ffffffffffffffffffffffffffffffffffffffff1690602001909291908035906020019092919080359060200190929190803590602001906401000000008111156101fd57600080fd5b82018360208201111561020f57600080fd5b8035906020019184600183028401116401000000008311171561023157600080fd5b91908080601f016020809104026020016040519081016040528093929190818152602001838380828437600081840152601f19601f820116905080830192505050505050509192919290505050610c85565b005b61028d611079565b005b610386600480360360a08110156102a557600080fd5b81019080803573ffffffffffffffffffffffffffffffffffffffff1690602001909291908035906020019092919080359060200190929190803590602001909291908035906020019064010000000081111561030057600080fd5b82018360208201111561031257600080fd5b8035906020019184600183028401116401000000008311171561033457600080fd5b91908080601f016020809104026020016040519081016040528093929190818152602001838380828437600081840152601f19601f8201169050808301925050505050505091929192905050506111b2565b005b610390611746565b604051808273ffffffffffffffffffffffffffffffffffffffff1673ffffffffffffffffffffffffffffffffffffffff16815260200191505060405180910390f35b6103da61176f565b604051808215151515815260200191505060405180910390f35b6104eb600480360360a081101561040a57600080fd5b81019080803573ffffffffffffffffffffffffffffffffffffffff1690602001909291908035906020019092919080359060200190929190803590602001909291908035906020019064010000000081111561046557600080fd5b82018360208201111561047757600080fd5b8035906020019184600183028401116401000000008311171561049957600080fd5b91908080601f016020809104026020016040519081016040528093929190818152602001838380828437600081840152601f19601f8201169050808301925050505050505091929192905050506117c6565b005b6105396004803603604081101561050357600080fd5b81019080803573ffffffffffffffffffffffffffffffffffffffff16906020019092919080359060200190929190505050611bb6565b6040518082815260200191505060405180910390f35b61063c6004803603608081101561056557600080fd5b81019080803573ffffffffffffffffffffffffffffffffffffffff1690602001909291908035906020019092919080359060200190929190803590602001906401000000008111156105b657600080fd5b8201836020820111156105c857600080fd5b803590602001918460018302840111640100000000831117156105ea57600080fd5b91908080601f016020809104026020016040519081016040528093929190818152602001838380828437600081840152601f19601f820116905080830192505050505050509192919290505050611c11565b005b610646612004565b604051808273ffffffffffffffffffffffffffffffffffffffff1673ffffffffffffffffffffffffffffffffffffffff16815260200191505060405180910390f35b6106d46004803603604081101561069e57600080fd5b81019080803573ffffffffffffffffffffffffffffffffffffffff1690602001909291908035906020019092919050505061202e565b604051808215151515815260200191505060405180910390f35b6107306004803603602081101561070457600080fd5b81019080803573ffffffffffffffffffffffffffffffffffffffff169060200190929190505050612091565b005b6107746004803603602081101561074857600080fd5b81019080803573ffffffffffffffffffffffffffffffffffffffff169060200190929190505050612192565b005b6107d66004803603608081101561078c57600080fd5b81019080803573ffffffffffffffffffffffffffffffffffffffff169060200190929190803590602001909291908035906020019092919080359060200190929190505050612218565b005b6107e061176f565b610852576040517f08c379a00000000000000000000000000000000000000000000000000000000081526004018080602001828103825260208152602001807f4f776e61626c653a2063616c6c6572206973206e6f7420746865206f776e657281525060200191505060405180910390fd5b600081146108ab576040517f08c379a000000000000000000000000000000000000000000000000000000000815260040180806020018281038252602581526020018061265b6025913960400191505060405180910390fd5b600260008373ffffffffffffffffffffffffffffffffffffffff1673ffffffffffffffffffffffffffffffffffffffff16815260200190815260200160002060009054906101000a900460ff161561096b576040517f08c379a00000000000000000000000000000000000000000000000000000000081526004018080602001828103825260198152602001807f617373657420616c72656164792077686974656c69737465640000000000000081525060200191505060405180910390fd5b6001600260008473ffffffffffffffffffffffffffffffffffffffff1673ffffffffffffffffffffffffffffffffffffffff16815260200190815260200160002060006101000a81548160ff02191690831515021790555060008273ffffffffffffffffffffffffffffffffffffffff167f432c9066b7e6e0f1e1e320357530c517700abdf1fe1db79510ed0240e8daec62438573ffffffffffffffffffffffffffffffffffffffff16016040518082815260200191505060405180910390a35050565b610a3761176f565b610aa9576040517f08c379a00000000000000000000000000000000000000000000000000000000081526004018080602001828103825260208152602001807f4f776e61626c653a2063616c6c6572206973206e6f7420746865206f776e657281525060200191505060405180910390fd5b60008114610b02576040517f08c379a000000000000000000000000000000000000000000000000000000000815260040180806020018281038252602581526020018061265b6025913960400191505060405180910390fd5b600260008373ffffffffffffffffffffffffffffffffffffffff1673ffffffffffffffffffffffffffffffffffffffff16815260200190815260200160002060009054906101000a900460ff16610bc1576040517f08c379a00000000000000000000000000000000000000000000000000000000081526004018080602001828103825260158152602001807f6173736574206e6f742077686974656c6973746564000000000000000000000081525060200191505060405180910390fd5b6000600260008473ffffffffffffffffffffffffffffffffffffffff1673ffffffffffffffffffffffffffffffffffffffff16815260200190815260200160002060006101000a81548160ff02191690831515021790555060008273ffffffffffffffffffffffffffffffffffffffff167fd5764687dd3b88ce24532de5c4b031590287be475259b2aeffee1a61d0fd5c30438573ffffffffffffffffffffffffffffffffffffffff16016040518082815260200191505060405180910390a35050565b60008314610cde576040517f08c379a000000000000000000000000000000000000000000000000000000000815260040180806020018281038252602581526020018061265b6025913960400191505060405180910390fd5b600260008573ffffffffffffffffffffffffffffffffffffffff1673ffffffffffffffffffffffffffffffffffffffff16815260200190815260200160002060009054906101000a900460ff1615610d9e576040517f08c379a00000000000000000000000000000000000000000000000000000000081526004018080602001828103825260198152602001807f617373657420616c72656164792077686974656c69737465640000000000000081525060200191505060405180910390fd5b6060848484604051602001808473ffffffffffffffffffffffffffffffffffffffff1673ffffffffffffffffffffffffffffffffffffffff168152602001838152602001828152602001806020018281038252600f8152602001807f77686974656c6973745f617373657400000000000000000000000000000000008152506020019450505050506040516020818303038152906040529050600160009054906101000a900473ffffffffffffffffffffffffffffffffffffffff1673ffffffffffffffffffffffffffffffffffffffff1663ba73659a8383866040518463ffffffff1660e01b8152600401808060200180602001848152602001838103835286818151815260200191508051906020019080838360005b83811015610ed1578082015181840152602081019050610eb6565b50505050905090810190601f168015610efe5780820380516001836020036101000a031916815260200191505b50838103825285818151815260200191508051906020019080838360005b83811015610f37578082015181840152602081019050610f1c565b50505050905090810190601f168015610f645780820380516001836020036101000a031916815260200191505b5095505050505050602060405180830381600087803b158015610f8657600080fd5b505af1158015610f9a573d6000803e3d6000fd5b505050506040513d6020811015610fb057600080fd5b8101908080519060200190929190505050610fca57600080fd5b6001600260008773ffffffffffffffffffffffffffffffffffffffff1673ffffffffffffffffffffffffffffffffffffffff16815260200190815260200160002060006101000a81548160ff02191690831515021790555060008573ffffffffffffffffffffffffffffffffffffffff167f432c9066b7e6e0f1e1e320357530c517700abdf1fe1db79510ed0240e8daec62856040518082815260200191505060405180910390a35050505050565b61108161176f565b6110f3576040517f08c379a00000000000000000000000000000000000000000000000000000000081526004018080602001828103825260208152602001807f4f776e61626c653a2063616c6c6572206973206e6f7420746865206f776e657281525060200191505060405180910390fd5b600073ffffffffffffffffffffffffffffffffffffffff166000809054906101000a900473ffffffffffffffffffffffffffffffffffffffff1673ffffffffffffffffffffffffffffffffffffffff167f8be0079c531659141344cd1fd0a4f28419497f9722a3daafe3b4186f6b6457e060405160405180910390a360008060006101000a81548173ffffffffffffffffffffffffffffffffffffffff021916908373ffffffffffffffffffffffffffffffffffffffff160217905550565b6000841461120b576040517f08c379a000000000000000000000000000000000000000000000000000000000815260040180806020018281038252602581526020018061265b6025913960400191505060405180910390fd5b600260008673ffffffffffffffffffffffffffffffffffffffff1673ffffffffffffffffffffffffffffffffffffffff16815260200190815260200160002060009054906101000a900460ff166112ca576040517f08c379a00000000000000000000000000000000000000000000000000000000081526004018080602001828103825260158152602001807f6173736574206e6f742077686974656c6973746564000000000000000000000081525060200191505060405180910390fd5b60608585853386604051602001808673ffffffffffffffffffffffffffffffffffffffff1673ffffffffffffffffffffffffffffffffffffffff1681526020018581526020018481526020018373ffffffffffffffffffffffffffffffffffffffff1673ffffffffffffffffffffffffffffffffffffffff168152602001828152602001806020018281038252600e8152602001807f77697468647261775f617373657400000000000000000000000000000000000081525060200196505050505050506040516020818303038152906040529050600160009054906101000a900473ffffffffffffffffffffffffffffffffffffffff1673ffffffffffffffffffffffffffffffffffffffff1663ba73659a8383866040518463ffffffff1660e01b8152600401808060200180602001848152602001838103835286818151815260200191508051906020019080838360005b8381101561143957808201518184015260208101905061141e565b50505050905090810190601f1680156114665780820380516001836020036101000a031916815260200191505b50838103825285818151815260200191508051906020019080838360005b8381101561149f578082015181840152602081019050611484565b50505050905090810190601f1680156114cc5780820380516001836020036101000a031916815260200191505b5095505050505050602060405180830381600087803b1580156114ee57600080fd5b505af1158015611502573d6000803e3d6000fd5b505050506040513d602081101561151857600080fd5b810190808051906020019092919050505061159b576040517f08c379a000000000000000000000000000000000000000000000000000000000815260040180806020018281038252600e8152602001807f626164207369676e61747572657300000000000000000000000000000000000081525060200191505060405180910390fd5b8573ffffffffffffffffffffffffffffffffffffffff1663a9059cbb33866040518363ffffffff1660e01b8152600401808373ffffffffffffffffffffffffffffffffffffffff1673ffffffffffffffffffffffffffffffffffffffff16815260200182815260200192505050602060405180830381600087803b15801561162257600080fd5b505af1158015611636573d6000803e3d6000fd5b505050506040513d602081101561164c57600080fd5b81019080805190602001909291905050506116cf576040517f08c379a00000000000000000000000000000000000000000000000000000000081526004018080602001828103825260158152602001807f746f6b656e206469646e2774207472616e73666572000000000000000000000081525060200191505060405180910390fd5b60008673ffffffffffffffffffffffffffffffffffffffff163373ffffffffffffffffffffffffffffffffffffffff167f1d73f5f45122fcc00317f4af119d2a65f2dbaa07d7c023a0050b1fba5503365a8787604051808381526020018281526020019250505060405180910390a4505050505050565b60008060009054906101000a900473ffffffffffffffffffffffffffffffffffffffff16905090565b60008060009054906101000a900473ffffffffffffffffffffffffffffffffffffffff1673ffffffffffffffffffffffffffffffffffffffff163373ffffffffffffffffffffffffffffffffffffffff1614905090565b6000841461181f576040517f08c379a000000000000000000000000000000000000000000000000000000000815260040180806020018281038252602581526020018061265b6025913960400191505060405180910390fd5b600260008673ffffffffffffffffffffffffffffffffffffffff1673ffffffffffffffffffffffffffffffffffffffff16815260200190815260200160002060009054906101000a900460ff166118de576040517f08c379a00000000000000000000000000000000000000000000000000000000081526004018080602001828103825260158152602001807f6173736574206e6f742077686974656c6973746564000000000000000000000081525060200191505060405180910390fd5b606085858486604051602001808573ffffffffffffffffffffffffffffffffffffffff1673ffffffffffffffffffffffffffffffffffffffff16815260200184815260200183815260200182815260200180602001828103825260138152602001807f7365745f6465706f7369745f6d696e696d756d00000000000000000000000000815250602001955050505050506040516020818303038152906040529050600160009054906101000a900473ffffffffffffffffffffffffffffffffffffffff1673ffffffffffffffffffffffffffffffffffffffff1663ba73659a8383876040518463ffffffff1660e01b8152600401808060200180602001848152602001838103835286818151815260200191508051906020019080838360005b83811015611a195780820151818401526020810190506119fe565b50505050905090810190601f168015611a465780820380516001836020036101000a031916815260200191505b50838103825285818151815260200191508051906020019080838360005b83811015611a7f578082015181840152602081019050611a64565b50505050905090810190601f168015611aac5780820380516001836020036101000a031916815260200191505b5095505050505050602060405180830381600087803b158015611ace57600080fd5b505af1158015611ae2573d6000803e3d6000fd5b505050506040513d6020811015611af857600080fd5b8101908080519060200190929190505050611b1257600080fd5b82600360008873ffffffffffffffffffffffffffffffffffffffff1673ffffffffffffffffffffffffffffffffffffffff1681526020019081526020016000208190555060008673ffffffffffffffffffffffffffffffffffffffff167f8bd6a2128f72cade235f8636548820a7baaf60321dded04c5222e1856e4900fd8587604051808381526020018281526020019250505060405180910390a3505050505050565b6000808214611bc85760009050611c0b565b600360008473ffffffffffffffffffffffffffffffffffffffff1673ffffffffffffffffffffffffffffffffffffffff1681526020019081526020016000205490505b92915050565b60008314611c6a576040517f08c379a000000000000000000000000000000000000000000000000000000000815260040180806020018281038252602581526020018061265b6025913960400191505060405180910390fd5b600260008573ffffffffffffffffffffffffffffffffffffffff1673ffffffffffffffffffffffffffffffffffffffff16815260200190815260200160002060009054906101000a900460ff16611d29576040517f08c379a00000000000000000000000000000000000000000000000000000000081526004018080602001828103825260158152602001807f6173736574206e6f742077686974656c6973746564000000000000000000000081525060200191505060405180910390fd5b6060848484604051602001808473ffffffffffffffffffffffffffffffffffffffff1673ffffffffffffffffffffffffffffffffffffffff168152602001838152602001828152602001806020018281038252600f8152602001807f626c61636b6c6973745f617373657400000000000000000000000000000000008152506020019450505050506040516020818303038152906040529050600160009054906101000a900473ffffffffffffffffffffffffffffffffffffffff1673ffffffffffffffffffffffffffffffffffffffff1663ba73659a8383866040518463ffffffff1660e01b8152600401808060200180602001848152602001838103835286818151815260200191508051906020019080838360005b83811015611e5c578082015181840152602081019050611e41565b50505050905090810190601f168015611e895780820380516001836020036101000a031916815260200191505b50838103825285818151815260200191508051906020019080838360005b83811015611ec2578082015181840152602081019050611ea7565b50505050905090810190601f168015611eef5780820380516001836020036101000a031916815260200191505b5095505050505050602060405180830381600087803b158015611f1157600080fd5b505af1158015611f25573d6000803e3d6000fd5b505050506040513d6020811015611f3b57600080fd5b8101908080519060200190929190505050611f5557600080fd5b6000600260008773ffffffffffffffffffffffffffffffffffffffff1673ffffffffffffffffffffffffffffffffffffffff16815260200190815260200160002060006101000a81548160ff02191690831515021790555060008573ffffffffffffffffffffffffffffffffffffffff167fd5764687dd3b88ce24532de5c4b031590287be475259b2aeffee1a61d0fd5c30856040518082815260200191505060405180910390a35050505050565b6000600160009054906101000a900473ffffffffffffffffffffffffffffffffffffffff16905090565b6000600260008473ffffffffffffffffffffffffffffffffffffffff1673ffffffffffffffffffffffffffffffffffffffff16815260200190815260200160002060009054906101000a900460ff1680156120895750600082145b905092915050565b61209961176f565b61210b576040517f08c379a00000000000000000000000000000000000000000000000000000000081526004018080602001828103825260208152602001807f4f776e61626c653a2063616c6c6572206973206e6f7420746865206f776e657281525060200191505060405180910390fd5b80600160006101000a81548173ffffffffffffffffffffffffffffffffffffffff021916908373ffffffffffffffffffffffffffffffffffffffff1602179055508073ffffffffffffffffffffffffffffffffffffffff167f1143e675ad794f5bd81a05b165b166be3a4e91f17d065f08809d88cefbd6540660405160405180910390a250565b61219a61176f565b61220c576040517f08c379a00000000000000000000000000000000000000000000000000000000081526004018080602001828103825260208152602001807f4f776e61626c653a2063616c6c6572206973206e6f7420746865206f776e657281525060200191505060405180910390fd5b612215816124f0565b50565b60008314612271576040517f08c379a000000000000000000000000000000000000000000000000000000000815260040180806020018281038252602581526020018061265b6025913960400191505060405180910390fd5b600260008573ffffffffffffffffffffffffffffffffffffffff1673ffffffffffffffffffffffffffffffffffffffff16815260200190815260200160002060009054906101000a900460ff16612330576040517f08c379a00000000000000000000000000000000000000000000000000000000081526004018080602001828103825260158152602001807f6173736574206e6f742077686974656c6973746564000000000000000000000081525060200191505060405180910390fd5b600360008573ffffffffffffffffffffffffffffffffffffffff1673ffffffffffffffffffffffffffffffffffffffff1681526020019081526020016000205482101561237c57600080fd5b8373ffffffffffffffffffffffffffffffffffffffff166323b872dd3330856040518463ffffffff1660e01b8152600401808473ffffffffffffffffffffffffffffffffffffffff1673ffffffffffffffffffffffffffffffffffffffff1681526020018373ffffffffffffffffffffffffffffffffffffffff1673ffffffffffffffffffffffffffffffffffffffff1681526020018281526020019350505050602060405180830381600087803b15801561243757600080fd5b505af115801561244b573d6000803e3d6000fd5b505050506040513d602081101561246157600080fd5b810190808051906020019092919050505061247b57600080fd5b60008473ffffffffffffffffffffffffffffffffffffffff163373ffffffffffffffffffffffffffffffffffffffff167f301354586185da7c1b383fec6b86a4f2afcd693fee1d3a4b60de799db0715dce8585604051808381526020018281526020019250505060405180910390a450505050565b600073ffffffffffffffffffffffffffffffffffffffff168173ffffffffffffffffffffffffffffffffffffffff161415612576576040517f08c379a00000000000000000000000000000000000000000000000000000000081526004018080602001828103825260268152602001806126356026913960400191505060405180910390fd5b8073ffffffffffffffffffffffffffffffffffffffff166000809054906101000a900473ffffffffffffffffffffffffffffffffffffffff1673ffffffffffffffffffffffffffffffffffffffff167f8be0079c531659141344cd1fd0a4f28419497f9722a3daafe3b4186f6b6457e060405160405180910390a3806000806101000a81548173ffffffffffffffffffffffffffffffffffffffff021916908373ffffffffffffffffffffffffffffffffffffffff1602179055505056fe4f776e61626c653a206e6577206f776e657220697320746865207a65726f20616464726573736f6e6c7920726f6f742061737365742028302920616c6c6f77656420666f72204552433230a265627a7a72315820cb2147c2254c1cfb6e041b82784b5c285d73b5cdac86dd824b9f8e72938a67e064736f6c63430005100032",
  "source": "pragma solidity ^0.5.0;\r\n\r\nimport \"./Ownable.sol\";\r\nimport \"./SafeMath.sol\";\r\nimport \"./IERC20.sol\";\r\nimport \"./IVega_Bridge.sol\";\r\nimport \"./MultisigControl.sol\";\r\n\r\ncontract Vega_Bridge_ERC20 is IVega_Bridge, Ownable {\r\n    //stops overflow\r\n    using SafeMath for uint256;\r\n\r\n    address multisig_control_address;\r\n    mapping(address => bool) whitelisted_tokens;\r\n    mapping(address => uint256) minimum_deposits;\r\n\r\n    /**********************ADMIN REMOVE BEFORE MAINNET*******************************/\r\n    function whitelist_asset_admin(address asset_source, uint256 asset_id) public onlyOwner {\r\n        require(asset_id == 0, \"only root asset (0) allowed for ERC20\");\r\n        require(!whitelisted_tokens[asset_source], \"asset already whitelisted\");\r\n        whitelisted_tokens[asset_source] = true;\r\n        emit Asset_Whitelisted(asset_source, 0, uint256(asset_source) + block.number);\r\n    }\r\n    function blacklist_asset_admin(address asset_source, uint256 asset_id) public onlyOwner {\r\n        require(asset_id == 0, \"only root asset (0) allowed for ERC20\");\r\n        require(whitelisted_tokens[asset_source], \"asset not whitelisted\");\r\n        whitelisted_tokens[asset_source] = false;\r\n        emit Asset_Blacklisted(asset_source, 0, uint256(asset_source) + block.number);\r\n    }\r\n    /**********************END ADMIN*******************************/\r\n\r\n\r\n    function whitelist_asset(address asset_source, uint256 asset_id, uint256 nonce, bytes memory signatures) public {\r\n        require(asset_id == 0, \"only root asset (0) allowed for ERC20\");\r\n        require(!whitelisted_tokens[asset_source], \"asset already whitelisted\");\r\n        bytes memory message = abi.encode(asset_source, asset_id, nonce, 'whitelist_asset');\r\n        require(MultisigControl(multisig_control_address).verify_signatures(signatures, message, nonce));\r\n        whitelisted_tokens[asset_source] = true;\r\n        emit Asset_Whitelisted(asset_source, 0, nonce);\r\n    }\r\n    function blacklist_asset(address asset_source, uint256 asset_id, uint256 nonce, bytes memory signatures) public {\r\n        require(asset_id == 0, \"only root asset (0) allowed for ERC20\");\r\n        require(whitelisted_tokens[asset_source], \"asset not whitelisted\");\r\n        bytes memory message = abi.encode(asset_source, asset_id, nonce, 'blacklist_asset');\r\n        require(MultisigControl(multisig_control_address).verify_signatures(signatures, message, nonce));\r\n        whitelisted_tokens[asset_source] = false;\r\n        emit Asset_Blacklisted(asset_source, 0, nonce);\r\n    }\r\n    function set_deposit_minimum(address asset_source, uint256 asset_id, uint256 nonce, uint256 minimum_amount, bytes memory signatures) public{\r\n        require(asset_id == 0, \"only root asset (0) allowed for ERC20\");\r\n        require(whitelisted_tokens[asset_source], \"asset not whitelisted\");\r\n\r\n        bytes memory message = abi.encode(asset_source, asset_id, minimum_amount, nonce, 'set_deposit_minimum');\r\n        require(MultisigControl(multisig_control_address).verify_signatures(signatures, message, nonce));\r\n        minimum_deposits[asset_source] = minimum_amount;\r\n        emit Asset_Deposit_Minimum_Set(asset_source, 0, minimum_amount, nonce);\r\n\r\n    }\r\n    function withdraw_asset(address asset_source, uint256 asset_id, uint256 amount, uint256 nonce, bytes memory signatures) public {\r\n        require(asset_id == 0, \"only root asset (0) allowed for ERC20\");\r\n        require(whitelisted_tokens[asset_source], \"asset not whitelisted\");\r\n\r\n        bytes memory message = abi.encode(asset_source, asset_id, amount, msg.sender,  nonce, 'withdraw_asset');\r\n        require(MultisigControl(multisig_control_address).verify_signatures(signatures, message, nonce), \"bad signatures\");\r\n\r\n        require(IERC20(asset_source).transfer(msg.sender, amount), \"token didn't transfer\");\r\n\r\n        emit Asset_Withdrawn(msg.sender, asset_source, 0, amount, nonce);\r\n    }\r\n    function deposit_asset(address asset_source, uint256 asset_id, uint256 amount, bytes32 vega_public_key) public {\r\n        require(asset_id == 0, \"only root asset (0) allowed for ERC20\");\r\n        require(whitelisted_tokens[asset_source], \"asset not whitelisted\");\r\n        //User must run approve before deposit\r\n        require(amount >= minimum_deposits[asset_source]);\r\n        require(IERC20(asset_source).transferFrom(msg.sender, address(this), amount));\r\n        emit Asset_Deposited(msg.sender, asset_source, 0, amount, vega_public_key);\r\n    }\r\n    function set_multisig_control(address new_multisig_contract_address) public onlyOwner {\r\n        multisig_control_address = new_multisig_contract_address;\r\n        emit Multisig_Control_Set(new_multisig_contract_address);\r\n    }\r\n\r\n    // VIEWS /////////////////\r\n    function is_asset_whitelisted(address asset_source, uint256 asset_id) public view returns(bool){\r\n        return whitelisted_tokens[asset_source] && asset_id == 0;\r\n    }\r\n    function get_deposit_minimum(address asset_source, uint256 asset_id) public view returns(uint256){\r\n        if(asset_id != 0){\r\n            return 0;\r\n        } else {\r\n            return minimum_deposits[asset_source];\r\n        }\r\n    }\r\n    function get_multisig_control_address() public view returns(address) {\r\n        return multisig_control_address;\r\n    }\r\n\r\n\r\n\r\n}\r\n",
  "sourcePath": "C:/Users/holla/OneDrive/Desktop/Source/Vega Protocol/Bridge Stuff/Multisig_Bridges/MultisigControl/contracts/Vega_Bridge_ERC20.sol",
  "compiler": {
    "name": "solc",
    "version": "0.5.16+commit.9c3226ce.Emscripten.clang"
  },
  "schemaVersion": "3.0.16",
  "updatedAt": "2020-04-15T21:42:46.617Z",
  "devdoc": {
    "methods": {
      "isOwner()": {
        "details": "Returns true if the caller is the current owner."
      },
      "owner()": {
        "details": "Returns the address of the current owner."
      },
      "renounceOwnership()": {
        "details": "Leaves the contract without owner. It will not be possible to call `onlyOwner` functions anymore. Can only be called by the current owner.      * NOTE: Renouncing ownership will leave the contract without an owner, thereby removing any functionality that is only available to the owner."
      },
      "transferOwnership(address)": {
        "details": "Transfers ownership of the contract to a new account (`newOwner`). Can only be called by the current owner."
      }
    }
  },
  "userdoc": {
    "methods": {
      "whitelist_asset(address,uint256,uint256,bytes)": {
        "notice": "********************END ADMIN******************************"
      },
      "whitelist_asset_admin(address,uint256)": {
        "notice": "********************ADMIN REMOVE BEFORE MAINNET******************************"
      }
    }
  }
}