{
  "contractName": "Vega_Bridge_ERC20",
  "abi": [
    {
      "anonymous": false,
      "inputs": [
        {
          "indexed": true,
          "internalType": "address",
          "name": "asset_source",
          "type": "address"
        },
        {
          "indexed": true,
          "internalType": "uint256",
          "name": "asset_id",
          "type": "uint256"
        }
      ],
      "name": "Asset_Blacklisted",
      "type": "event"
    },
    {
      "anonymous": false,
      "inputs": [
        {
          "indexed": true,
          "internalType": "address",
          "name": "asset_source",
          "type": "address"
        },
        {
          "indexed": true,
          "internalType": "uint256",
          "name": "asset_id",
          "type": "uint256"
        },
        {
          "indexed": false,
          "internalType": "uint256",
          "name": "new_minimum",
          "type": "uint256"
        }
      ],
      "name": "Asset_Deposit_Minimum_Set",
      "type": "event"
    },
    {
      "anonymous": false,
      "inputs": [
        {
          "indexed": true,
          "internalType": "address",
          "name": "user_address",
          "type": "address"
        },
        {
          "indexed": true,
          "internalType": "address",
          "name": "asset_source",
          "type": "address"
        },
        {
          "indexed": true,
          "internalType": "uint256",
          "name": "asset_id",
          "type": "uint256"
        },
        {
          "indexed": false,
          "internalType": "uint256",
          "name": "amount",
          "type": "uint256"
        },
        {
          "indexed": false,
          "internalType": "bytes32",
          "name": "vega_public_key",
          "type": "bytes32"
        }
      ],
      "name": "Asset_Deposited",
      "type": "event"
    },
    {
      "anonymous": false,
      "inputs": [
        {
          "indexed": true,
          "internalType": "address",
          "name": "asset_source",
          "type": "address"
        },
        {
          "indexed": true,
          "internalType": "uint256",
          "name": "asset_id",
          "type": "uint256"
        }
      ],
      "name": "Asset_Whitelisted",
      "type": "event"
    },
    {
      "anonymous": false,
      "inputs": [
        {
          "indexed": true,
          "internalType": "address",
          "name": "user_address",
          "type": "address"
        },
        {
          "indexed": true,
          "internalType": "address",
          "name": "asset_source",
          "type": "address"
        },
        {
          "indexed": true,
          "internalType": "uint256",
          "name": "asset_id",
          "type": "uint256"
        },
        {
          "indexed": false,
          "internalType": "uint256",
          "name": "amount",
          "type": "uint256"
        }
      ],
      "name": "Asset_Withdrawn",
      "type": "event"
    },
    {
      "anonymous": false,
      "inputs": [
        {
          "indexed": true,
          "internalType": "address",
          "name": "multisig_control_source",
          "type": "address"
        }
      ],
      "name": "Multisig_Control_Set",
      "type": "event"
    },
    {
      "anonymous": false,
      "inputs": [
        {
          "indexed": true,
          "internalType": "address",
          "name": "previousOwner",
          "type": "address"
        },
        {
          "indexed": true,
          "internalType": "address",
          "name": "newOwner",
          "type": "address"
        }
      ],
      "name": "OwnershipTransferred",
      "type": "event"
    },
    {
      "constant": true,
      "inputs": [],
      "name": "isOwner",
      "outputs": [
        {
          "internalType": "bool",
          "name": "",
          "type": "bool"
        }
      ],
      "payable": false,
      "stateMutability": "view",
      "type": "function"
    },
    {
      "constant": true,
      "inputs": [],
      "name": "owner",
      "outputs": [
        {
          "internalType": "address",
          "name": "",
          "type": "address"
        }
      ],
      "payable": false,
      "stateMutability": "view",
      "type": "function"
    },
    {
      "constant": false,
      "inputs": [],
      "name": "renounceOwnership",
      "outputs": [],
      "payable": false,
      "stateMutability": "nonpayable",
      "type": "function"
    },
    {
      "constant": false,
      "inputs": [
        {
          "internalType": "address",
          "name": "newOwner",
          "type": "address"
        }
      ],
      "name": "transferOwnership",
      "outputs": [],
      "payable": false,
      "stateMutability": "nonpayable",
      "type": "function"
    },
    {
      "constant": false,
      "inputs": [
        {
          "internalType": "address",
          "name": "asset_source",
          "type": "address"
        },
        {
          "internalType": "uint256",
          "name": "asset_id",
          "type": "uint256"
        }
      ],
      "name": "whitelist_asset_admin",
      "outputs": [],
      "payable": false,
      "stateMutability": "nonpayable",
      "type": "function"
    },
    {
      "constant": false,
      "inputs": [
        {
          "internalType": "address",
          "name": "asset_source",
          "type": "address"
        },
        {
          "internalType": "uint256",
          "name": "asset_id",
          "type": "uint256"
        }
      ],
      "name": "blacklist_asset_admin",
      "outputs": [],
      "payable": false,
      "stateMutability": "nonpayable",
      "type": "function"
    },
    {
      "constant": false,
      "inputs": [
        {
          "internalType": "address",
          "name": "asset_source",
          "type": "address"
        },
        {
          "internalType": "uint256",
          "name": "asset_id",
          "type": "uint256"
        },
        {
          "internalType": "uint256",
          "name": "nonce",
          "type": "uint256"
        },
        {
          "internalType": "bytes",
          "name": "signatures",
          "type": "bytes"
        }
      ],
      "name": "whitelist_asset",
      "outputs": [],
      "payable": false,
      "stateMutability": "nonpayable",
      "type": "function"
    },
    {
      "constant": false,
      "inputs": [
        {
          "internalType": "address",
          "name": "asset_source",
          "type": "address"
        },
        {
          "internalType": "uint256",
          "name": "asset_id",
          "type": "uint256"
        },
        {
          "internalType": "uint256",
          "name": "nonce",
          "type": "uint256"
        },
        {
          "internalType": "bytes",
          "name": "signatures",
          "type": "bytes"
        }
      ],
      "name": "blacklist_asset",
      "outputs": [],
      "payable": false,
      "stateMutability": "nonpayable",
      "type": "function"
    },
    {
      "constant": false,
      "inputs": [
        {
          "internalType": "address",
          "name": "asset_source",
          "type": "address"
        },
        {
          "internalType": "uint256",
          "name": "asset_id",
          "type": "uint256"
        },
        {
          "internalType": "uint256",
          "name": "nonce",
          "type": "uint256"
        },
        {
          "internalType": "uint256",
          "name": "minimum_amount",
          "type": "uint256"
        },
        {
          "internalType": "bytes",
          "name": "signatures",
          "type": "bytes"
        }
      ],
      "name": "set_deposit_minimum",
      "outputs": [],
      "payable": false,
      "stateMutability": "nonpayable",
      "type": "function"
    },
    {
      "constant": false,
      "inputs": [
        {
          "internalType": "address",
          "name": "asset_source",
          "type": "address"
        },
        {
          "internalType": "uint256",
          "name": "asset_id",
          "type": "uint256"
        },
        {
          "internalType": "uint256",
          "name": "amount",
          "type": "uint256"
        },
        {
          "internalType": "uint256",
          "name": "nonce",
          "type": "uint256"
        },
        {
          "internalType": "bytes",
          "name": "signatures",
          "type": "bytes"
        }
      ],
      "name": "withdraw_asset",
      "outputs": [],
      "payable": false,
      "stateMutability": "nonpayable",
      "type": "function"
    },
    {
      "constant": false,
      "inputs": [
        {
          "internalType": "address",
          "name": "asset_source",
          "type": "address"
        },
        {
          "internalType": "uint256",
          "name": "asset_id",
          "type": "uint256"
        },
        {
          "internalType": "uint256",
          "name": "amount",
          "type": "uint256"
        },
        {
          "internalType": "bytes32",
          "name": "vega_public_key",
          "type": "bytes32"
        }
      ],
      "name": "deposit_asset",
      "outputs": [],
      "payable": false,
      "stateMutability": "nonpayable",
      "type": "function"
    },
    {
      "constant": false,
      "inputs": [
        {
          "internalType": "address",
          "name": "new_multisig_contract_address",
          "type": "address"
        }
      ],
      "name": "set_multisig_control",
      "outputs": [],
      "payable": false,
      "stateMutability": "nonpayable",
      "type": "function"
    },
    {
      "constant": true,
      "inputs": [
        {
          "internalType": "address",
          "name": "asset_source",
          "type": "address"
        },
        {
          "internalType": "uint256",
          "name": "asset_id",
          "type": "uint256"
        }
      ],
      "name": "is_asset_whitelisted",
      "outputs": [
        {
          "internalType": "bool",
          "name": "",
          "type": "bool"
        }
      ],
      "payable": false,
      "stateMutability": "view",
      "type": "function"
    },
    {
      "constant": true,
      "inputs": [
        {
          "internalType": "address",
          "name": "asset_source",
          "type": "address"
        },
        {
          "internalType": "uint256",
          "name": "asset_id",
          "type": "uint256"
        }
      ],
      "name": "get_deposit_minimum",
      "outputs": [
        {
          "internalType": "uint256",
          "name": "",
          "type": "uint256"
        }
      ],
      "payable": false,
      "stateMutability": "view",
      "type": "function"
    },
    {
      "constant": true,
      "inputs": [],
      "name": "get_multisig_control_address",
      "outputs": [
        {
          "internalType": "address",
          "name": "",
          "type": "address"
        }
      ],
      "payable": false,
      "stateMutability": "view",
      "type": "function"
    }
  ],
  "bytecode": "0x6080604052336000806101000a81548173ffffffffffffffffffffffffffffffffffffffff021916908373ffffffffffffffffffffffffffffffffffffffff1602179055506000809054906101000a900473ffffffffffffffffffffffffffffffffffffffff1673ffffffffffffffffffffffffffffffffffffffff16600073ffffffffffffffffffffffffffffffffffffffff167f8be0079c531659141344cd1fd0a4f28419497f9722a3daafe3b4186f6b6457e060405160405180910390a3612630806100cf6000396000f3fe608060405234801561001057600080fd5b50600436106100f55760003560e01c806398d6a1c111610097578063cafb4cc211610066578063cafb4cc214610688578063efffe531146106ee578063f2fde38b14610732578063f922254414610776576100f5565b806398d6a1c1146103f4578063a9d9e9f0146104ed578063b0021bdb1461054f578063c58dc3b91461063e576100f5565b8063715018a6116100d3578063715018a6146102855780637776a2a51461028f5780638da5cb5b146103885780638f32d59b146103d2576100f5565b80631a52dad7146100fa5780634649608f146101485780636ebb249e14610196575b600080fd5b6101466004803603604081101561011057600080fd5b81019080803573ffffffffffffffffffffffffffffffffffffffff169060200190929190803590602001909291905050506107d8565b005b6101946004803603604081101561015e57600080fd5b81019080803573ffffffffffffffffffffffffffffffffffffffff16906020019092919080359060200190929190505050610a0c565b005b610283600480360360808110156101ac57600080fd5b81019080803573ffffffffffffffffffffffffffffffffffffffff1690602001909291908035906020019092919080359060200190929190803590602001906401000000008111156101fd57600080fd5b82018360208201111561020f57600080fd5b8035906020019184600183028401116401000000008311171561023157600080fd5b91908080601f016020809104026020016040519081016040528093929190818152602001838380828437600081840152601f19601f820116905080830192505050505050509192919290505050610c3f565b005b61028d611020565b005b610386600480360360a08110156102a557600080fd5b81019080803573ffffffffffffffffffffffffffffffffffffffff1690602001909291908035906020019092919080359060200190929190803590602001909291908035906020019064010000000081111561030057600080fd5b82018360208201111561031257600080fd5b8035906020019184600183028401116401000000008311171561033457600080fd5b91908080601f016020809104026020016040519081016040528093929190818152602001838380828437600081840152601f19601f820116905080830192505050505050509192919290505050611159565b005b6103906116e5565b604051808273ffffffffffffffffffffffffffffffffffffffff1673ffffffffffffffffffffffffffffffffffffffff16815260200191505060405180910390f35b6103da61170e565b604051808215151515815260200191505060405180910390f35b6104eb600480360360a081101561040a57600080fd5b81019080803573ffffffffffffffffffffffffffffffffffffffff1690602001909291908035906020019092919080359060200190929190803590602001909291908035906020019064010000000081111561046557600080fd5b82018360208201111561047757600080fd5b8035906020019184600183028401116401000000008311171561049957600080fd5b91908080601f016020809104026020016040519081016040528093929190818152602001838380828437600081840152601f19601f820116905080830192505050505050509192919290505050611765565b005b6105396004803603604081101561050357600080fd5b81019080803573ffffffffffffffffffffffffffffffffffffffff16906020019092919080359060200190929190505050611b45565b6040518082815260200191505060405180910390f35b61063c6004803603608081101561056557600080fd5b81019080803573ffffffffffffffffffffffffffffffffffffffff1690602001909291908035906020019092919080359060200190929190803590602001906401000000008111156105b657600080fd5b8201836020820111156105c857600080fd5b803590602001918460018302840111640100000000831117156105ea57600080fd5b91908080601f016020809104026020016040519081016040528093929190818152602001838380828437600081840152601f19601f820116905080830192505050505050509192919290505050611ba0565b005b610646611f80565b604051808273ffffffffffffffffffffffffffffffffffffffff1673ffffffffffffffffffffffffffffffffffffffff16815260200191505060405180910390f35b6106d46004803603604081101561069e57600080fd5b81019080803573ffffffffffffffffffffffffffffffffffffffff16906020019092919080359060200190929190505050611faa565b604051808215151515815260200191505060405180910390f35b6107306004803603602081101561070457600080fd5b81019080803573ffffffffffffffffffffffffffffffffffffffff16906020019092919050505061200d565b005b6107746004803603602081101561074857600080fd5b81019080803573ffffffffffffffffffffffffffffffffffffffff16906020019092919050505061210e565b005b6107d66004803603608081101561078c57600080fd5b81019080803573ffffffffffffffffffffffffffffffffffffffff169060200190929190803590602001909291908035906020019092919080359060200190929190505050612194565b005b6107e061170e565b610852576040517f08c379a00000000000000000000000000000000000000000000000000000000081526004018080602001828103825260208152602001807f4f776e61626c653a2063616c6c6572206973206e6f7420746865206f776e657281525060200191505060405180910390fd5b600081146108ab576040517f08c379a00000000000000000000000000000000000000000000000000000000081526004018080602001828103825260258152602001806125d76025913960400191505060405180910390fd5b600260008373ffffffffffffffffffffffffffffffffffffffff1673ffffffffffffffffffffffffffffffffffffffff16815260200190815260200160002060009054906101000a900460ff161561096b576040517f08c379a00000000000000000000000000000000000000000000000000000000081526004018080602001828103825260198152602001807f617373657420616c72656164792077686974656c69737465640000000000000081525060200191505060405180910390fd5b6001600260008473ffffffffffffffffffffffffffffffffffffffff1673ffffffffffffffffffffffffffffffffffffffff16815260200190815260200160002060006101000a81548160ff02191690831515021790555060008273ffffffffffffffffffffffffffffffffffffffff167f601a235b89ab7721d6888c87be3364722d6c90d572936b9283c4898e61f6e94260405160405180910390a35050565b610a1461170e565b610a86576040517f08c379a00000000000000000000000000000000000000000000000000000000081526004018080602001828103825260208152602001807f4f776e61626c653a2063616c6c6572206973206e6f7420746865206f776e657281525060200191505060405180910390fd5b60008114610adf576040517f08c379a00000000000000000000000000000000000000000000000000000000081526004018080602001828103825260258152602001806125d76025913960400191505060405180910390fd5b600260008373ffffffffffffffffffffffffffffffffffffffff1673ffffffffffffffffffffffffffffffffffffffff16815260200190815260200160002060009054906101000a900460ff16610b9e576040517f08c379a00000000000000000000000000000000000000000000000000000000081526004018080602001828103825260158152602001807f6173736574206e6f742077686974656c6973746564000000000000000000000081525060200191505060405180910390fd5b6000600260008473ffffffffffffffffffffffffffffffffffffffff1673ffffffffffffffffffffffffffffffffffffffff16815260200190815260200160002060006101000a81548160ff02191690831515021790555060008273ffffffffffffffffffffffffffffffffffffffff167f4e598a58e93196cebb4c8e71a68873443708732392626a8cedd39b8dec29cabd60405160405180910390a35050565b60008314610c98576040517f08c379a00000000000000000000000000000000000000000000000000000000081526004018080602001828103825260258152602001806125d76025913960400191505060405180910390fd5b600260008573ffffffffffffffffffffffffffffffffffffffff1673ffffffffffffffffffffffffffffffffffffffff16815260200190815260200160002060009054906101000a900460ff1615610d58576040517f08c379a00000000000000000000000000000000000000000000000000000000081526004018080602001828103825260198152602001807f617373657420616c72656164792077686974656c69737465640000000000000081525060200191505060405180910390fd5b60608483604051602001808373ffffffffffffffffffffffffffffffffffffffff1673ffffffffffffffffffffffffffffffffffffffff168152602001828152602001806020018281038252600f8152602001807f77686974656c6973745f6173736574000000000000000000000000000000000081525060200193505050506040516020818303038152906040529050600160009054906101000a900473ffffffffffffffffffffffffffffffffffffffff1673ffffffffffffffffffffffffffffffffffffffff1663ba73659a8383866040518463ffffffff1660e01b8152600401808060200180602001848152602001838103835286818151815260200191508051906020019080838360005b83811015610e83578082015181840152602081019050610e68565b50505050905090810190601f168015610eb05780820380516001836020036101000a031916815260200191505b50838103825285818151815260200191508051906020019080838360005b83811015610ee9578082015181840152602081019050610ece565b50505050905090810190601f168015610f165780820380516001836020036101000a031916815260200191505b5095505050505050602060405180830381600087803b158015610f3857600080fd5b505af1158015610f4c573d6000803e3d6000fd5b505050506040513d6020811015610f6257600080fd5b8101908080519060200190929190505050610f7c57600080fd5b6001600260008773ffffffffffffffffffffffffffffffffffffffff1673ffffffffffffffffffffffffffffffffffffffff16815260200190815260200160002060006101000a81548160ff02191690831515021790555060008573ffffffffffffffffffffffffffffffffffffffff167f601a235b89ab7721d6888c87be3364722d6c90d572936b9283c4898e61f6e94260405160405180910390a35050505050565b61102861170e565b61109a576040517f08c379a00000000000000000000000000000000000000000000000000000000081526004018080602001828103825260208152602001807f4f776e61626c653a2063616c6c6572206973206e6f7420746865206f776e657281525060200191505060405180910390fd5b600073ffffffffffffffffffffffffffffffffffffffff166000809054906101000a900473ffffffffffffffffffffffffffffffffffffffff1673ffffffffffffffffffffffffffffffffffffffff167f8be0079c531659141344cd1fd0a4f28419497f9722a3daafe3b4186f6b6457e060405160405180910390a360008060006101000a81548173ffffffffffffffffffffffffffffffffffffffff021916908373ffffffffffffffffffffffffffffffffffffffff160217905550565b600084146111b2576040517f08c379a00000000000000000000000000000000000000000000000000000000081526004018080602001828103825260258152602001806125d76025913960400191505060405180910390fd5b600260008673ffffffffffffffffffffffffffffffffffffffff1673ffffffffffffffffffffffffffffffffffffffff16815260200190815260200160002060009054906101000a900460ff16611271576040517f08c379a00000000000000000000000000000000000000000000000000000000081526004018080602001828103825260158152602001807f6173736574206e6f742077686974656c6973746564000000000000000000000081525060200191505060405180910390fd5b60608585853386604051602001808673ffffffffffffffffffffffffffffffffffffffff1673ffffffffffffffffffffffffffffffffffffffff1681526020018581526020018481526020018373ffffffffffffffffffffffffffffffffffffffff1673ffffffffffffffffffffffffffffffffffffffff168152602001828152602001806020018281038252600e8152602001807f77697468647261775f617373657400000000000000000000000000000000000081525060200196505050505050506040516020818303038152906040529050600160009054906101000a900473ffffffffffffffffffffffffffffffffffffffff1673ffffffffffffffffffffffffffffffffffffffff1663ba73659a8383866040518463ffffffff1660e01b8152600401808060200180602001848152602001838103835286818151815260200191508051906020019080838360005b838110156113e05780820151818401526020810190506113c5565b50505050905090810190601f16801561140d5780820380516001836020036101000a031916815260200191505b50838103825285818151815260200191508051906020019080838360005b8381101561144657808201518184015260208101905061142b565b50505050905090810190601f1680156114735780820380516001836020036101000a031916815260200191505b5095505050505050602060405180830381600087803b15801561149557600080fd5b505af11580156114a9573d6000803e3d6000fd5b505050506040513d60208110156114bf57600080fd5b8101908080519060200190929190505050611542576040517f08c379a000000000000000000000000000000000000000000000000000000000815260040180806020018281038252600e8152602001807f626164207369676e61747572657300000000000000000000000000000000000081525060200191505060405180910390fd5b8573ffffffffffffffffffffffffffffffffffffffff1663a9059cbb33866040518363ffffffff1660e01b8152600401808373ffffffffffffffffffffffffffffffffffffffff1673ffffffffffffffffffffffffffffffffffffffff16815260200182815260200192505050602060405180830381600087803b1580156115c957600080fd5b505af11580156115dd573d6000803e3d6000fd5b505050506040513d60208110156115f357600080fd5b8101908080519060200190929190505050611676576040517f08c379a00000000000000000000000000000000000000000000000000000000081526004018080602001828103825260158152602001807f746f6b656e206469646e2774207472616e73666572000000000000000000000081525060200191505060405180910390fd5b60008673ffffffffffffffffffffffffffffffffffffffff163373ffffffffffffffffffffffffffffffffffffffff167fa79be4f3361e32d396d64c478ecef73732cb40b2a75702c3b3b3226a2c83b5df876040518082815260200191505060405180910390a4505050505050565b60008060009054906101000a900473ffffffffffffffffffffffffffffffffffffffff16905090565b60008060009054906101000a900473ffffffffffffffffffffffffffffffffffffffff1673ffffffffffffffffffffffffffffffffffffffff163373ffffffffffffffffffffffffffffffffffffffff1614905090565b600084146117be576040517f08c379a00000000000000000000000000000000000000000000000000000000081526004018080602001828103825260258152602001806125d76025913960400191505060405180910390fd5b600260008673ffffffffffffffffffffffffffffffffffffffff1673ffffffffffffffffffffffffffffffffffffffff16815260200190815260200160002060009054906101000a900460ff1661187d576040517f08c379a00000000000000000000000000000000000000000000000000000000081526004018080602001828103825260158152602001807f6173736574206e6f742077686974656c6973746564000000000000000000000081525060200191505060405180910390fd5b6060858385604051602001808473ffffffffffffffffffffffffffffffffffffffff1673ffffffffffffffffffffffffffffffffffffffff16815260200183815260200182815260200180602001828103825260138152602001807f7365745f6465706f7369745f6d696e696d756d000000000000000000000000008152506020019450505050506040516020818303038152906040529050600160009054906101000a900473ffffffffffffffffffffffffffffffffffffffff1673ffffffffffffffffffffffffffffffffffffffff1663ba73659a8383876040518463ffffffff1660e01b8152600401808060200180602001848152602001838103835286818151815260200191508051906020019080838360005b838110156119b0578082015181840152602081019050611995565b50505050905090810190601f1680156119dd5780820380516001836020036101000a031916815260200191505b50838103825285818151815260200191508051906020019080838360005b83811015611a165780820151818401526020810190506119fb565b50505050905090810190601f168015611a435780820380516001836020036101000a031916815260200191505b5095505050505050602060405180830381600087803b158015611a6557600080fd5b505af1158015611a79573d6000803e3d6000fd5b505050506040513d6020811015611a8f57600080fd5b8101908080519060200190929190505050611aa957600080fd5b82600360008873ffffffffffffffffffffffffffffffffffffffff1673ffffffffffffffffffffffffffffffffffffffff1681526020019081526020016000208190555060008673ffffffffffffffffffffffffffffffffffffffff167f4ed0df0b169b573722ecdcc12333646a6efd0445c28fe277470bbfca620e8ad5856040518082815260200191505060405180910390a3505050505050565b6000808214611b575760009050611b9a565b600360008473ffffffffffffffffffffffffffffffffffffffff1673ffffffffffffffffffffffffffffffffffffffff1681526020019081526020016000205490505b92915050565b60008314611bf9576040517f08c379a00000000000000000000000000000000000000000000000000000000081526004018080602001828103825260258152602001806125d76025913960400191505060405180910390fd5b600260008573ffffffffffffffffffffffffffffffffffffffff1673ffffffffffffffffffffffffffffffffffffffff16815260200190815260200160002060009054906101000a900460ff16611cb8576040517f08c379a00000000000000000000000000000000000000000000000000000000081526004018080602001828103825260158152602001807f6173736574206e6f742077686974656c6973746564000000000000000000000081525060200191505060405180910390fd5b60608483604051602001808373ffffffffffffffffffffffffffffffffffffffff1673ffffffffffffffffffffffffffffffffffffffff168152602001828152602001806020018281038252600f8152602001807f626c61636b6c6973745f6173736574000000000000000000000000000000000081525060200193505050506040516020818303038152906040529050600160009054906101000a900473ffffffffffffffffffffffffffffffffffffffff1673ffffffffffffffffffffffffffffffffffffffff1663ba73659a8383866040518463ffffffff1660e01b8152600401808060200180602001848152602001838103835286818151815260200191508051906020019080838360005b83811015611de3578082015181840152602081019050611dc8565b50505050905090810190601f168015611e105780820380516001836020036101000a031916815260200191505b50838103825285818151815260200191508051906020019080838360005b83811015611e49578082015181840152602081019050611e2e565b50505050905090810190601f168015611e765780820380516001836020036101000a031916815260200191505b5095505050505050602060405180830381600087803b158015611e9857600080fd5b505af1158015611eac573d6000803e3d6000fd5b505050506040513d6020811015611ec257600080fd5b8101908080519060200190929190505050611edc57600080fd5b6000600260008773ffffffffffffffffffffffffffffffffffffffff1673ffffffffffffffffffffffffffffffffffffffff16815260200190815260200160002060006101000a81548160ff02191690831515021790555060008573ffffffffffffffffffffffffffffffffffffffff167f4e598a58e93196cebb4c8e71a68873443708732392626a8cedd39b8dec29cabd60405160405180910390a35050505050565b6000600160009054906101000a900473ffffffffffffffffffffffffffffffffffffffff16905090565b6000600260008473ffffffffffffffffffffffffffffffffffffffff1673ffffffffffffffffffffffffffffffffffffffff16815260200190815260200160002060009054906101000a900460ff1680156120055750600082145b905092915050565b61201561170e565b612087576040517f08c379a00000000000000000000000000000000000000000000000000000000081526004018080602001828103825260208152602001807f4f776e61626c653a2063616c6c6572206973206e6f7420746865206f776e657281525060200191505060405180910390fd5b80600160006101000a81548173ffffffffffffffffffffffffffffffffffffffff021916908373ffffffffffffffffffffffffffffffffffffffff1602179055508073ffffffffffffffffffffffffffffffffffffffff167f1143e675ad794f5bd81a05b165b166be3a4e91f17d065f08809d88cefbd6540660405160405180910390a250565b61211661170e565b612188576040517f08c379a00000000000000000000000000000000000000000000000000000000081526004018080602001828103825260208152602001807f4f776e61626c653a2063616c6c6572206973206e6f7420746865206f776e657281525060200191505060405180910390fd5b6121918161246c565b50565b600083146121ed576040517f08c379a00000000000000000000000000000000000000000000000000000000081526004018080602001828103825260258152602001806125d76025913960400191505060405180910390fd5b600260008573ffffffffffffffffffffffffffffffffffffffff1673ffffffffffffffffffffffffffffffffffffffff16815260200190815260200160002060009054906101000a900460ff166122ac576040517f08c379a00000000000000000000000000000000000000000000000000000000081526004018080602001828103825260158152602001807f6173736574206e6f742077686974656c6973746564000000000000000000000081525060200191505060405180910390fd5b600360008573ffffffffffffffffffffffffffffffffffffffff1673ffffffffffffffffffffffffffffffffffffffff168152602001908152602001600020548210156122f857600080fd5b8373ffffffffffffffffffffffffffffffffffffffff166323b872dd3330856040518463ffffffff1660e01b8152600401808473ffffffffffffffffffffffffffffffffffffffff1673ffffffffffffffffffffffffffffffffffffffff1681526020018373ffffffffffffffffffffffffffffffffffffffff1673ffffffffffffffffffffffffffffffffffffffff1681526020018281526020019350505050602060405180830381600087803b1580156123b357600080fd5b505af11580156123c7573d6000803e3d6000fd5b505050506040513d60208110156123dd57600080fd5b81019080805190602001909291905050506123f757600080fd5b60008473ffffffffffffffffffffffffffffffffffffffff163373ffffffffffffffffffffffffffffffffffffffff167f301354586185da7c1b383fec6b86a4f2afcd693fee1d3a4b60de799db0715dce8585604051808381526020018281526020019250505060405180910390a450505050565b600073ffffffffffffffffffffffffffffffffffffffff168173ffffffffffffffffffffffffffffffffffffffff1614156124f2576040517f08c379a00000000000000000000000000000000000000000000000000000000081526004018080602001828103825260268152602001806125b16026913960400191505060405180910390fd5b8073ffffffffffffffffffffffffffffffffffffffff166000809054906101000a900473ffffffffffffffffffffffffffffffffffffffff1673ffffffffffffffffffffffffffffffffffffffff167f8be0079c531659141344cd1fd0a4f28419497f9722a3daafe3b4186f6b6457e060405160405180910390a3806000806101000a81548173ffffffffffffffffffffffffffffffffffffffff021916908373ffffffffffffffffffffffffffffffffffffffff1602179055505056fe4f776e61626c653a206e6577206f776e657220697320746865207a65726f20616464726573736f6e6c7920726f6f742061737365742028302920616c6c6f77656420666f72204552433230a265627a7a72315820880bbf735a71b01470860726ef183dcdca94f8ddd9a0c41f4664041c3bedc13764736f6c63430005100032",
  "source": "pragma solidity ^0.5.0;\r\n\r\nimport \"./Ownable.sol\";\r\nimport \"./SafeMath.sol\";\r\nimport \"./IERC20.sol\";\r\nimport \"./IVega_Bridge.sol\";\r\nimport \"./MultisigControl.sol\";\r\n\r\ncontract Vega_Bridge_ERC20 is IVega_Bridge, Ownable {\r\n    //stops overflow\r\n    using SafeMath for uint256;\r\n\r\n    address multisig_control_address;\r\n    mapping(address => bool) whitelisted_tokens;\r\n    mapping(address => uint256) minimum_deposits;\r\n\r\n    /**********************ADMIN REMOVE BEFORE MAINNET*******************************/\r\n    function whitelist_asset_admin(address asset_source, uint256 asset_id) public onlyOwner {\r\n        require(asset_id == 0, \"only root asset (0) allowed for ERC20\");\r\n        require(!whitelisted_tokens[asset_source], \"asset already whitelisted\");\r\n        whitelisted_tokens[asset_source] = true;\r\n        emit Asset_Whitelisted(asset_source, 0);\r\n    }\r\n    function blacklist_asset_admin(address asset_source, uint256 asset_id) public onlyOwner {\r\n        require(asset_id == 0, \"only root asset (0) allowed for ERC20\");\r\n        require(whitelisted_tokens[asset_source], \"asset not whitelisted\");\r\n        whitelisted_tokens[asset_source] = false;\r\n        emit Asset_Blacklisted(asset_source, 0);\r\n    }\r\n    /**********************END ADMIN*******************************/\r\n\r\n\r\n    function whitelist_asset(address asset_source, uint256 asset_id, uint256 nonce, bytes memory signatures) public {\r\n        require(asset_id == 0, \"only root asset (0) allowed for ERC20\");\r\n        require(!whitelisted_tokens[asset_source], \"asset already whitelisted\");\r\n        bytes memory message = abi.encode(asset_source, nonce, 'whitelist_asset');\r\n        require(MultisigControl(multisig_control_address).verify_signatures(signatures, message, nonce));\r\n        whitelisted_tokens[asset_source] = true;\r\n        emit Asset_Whitelisted(asset_source, 0);\r\n    }\r\n    function blacklist_asset(address asset_source, uint256 asset_id, uint256 nonce, bytes memory signatures) public {\r\n        require(asset_id == 0, \"only root asset (0) allowed for ERC20\");\r\n        require(whitelisted_tokens[asset_source], \"asset not whitelisted\");\r\n        bytes memory message = abi.encode(asset_source, nonce, 'blacklist_asset');\r\n        require(MultisigControl(multisig_control_address).verify_signatures(signatures, message, nonce));\r\n        whitelisted_tokens[asset_source] = false;\r\n        emit Asset_Blacklisted(asset_source, 0);\r\n    }\r\n    function set_deposit_minimum(address asset_source, uint256 asset_id, uint256 nonce, uint256 minimum_amount, bytes memory signatures) public{\r\n        require(asset_id == 0, \"only root asset (0) allowed for ERC20\");\r\n        require(whitelisted_tokens[asset_source], \"asset not whitelisted\");\r\n\r\n        bytes memory message = abi.encode(asset_source, minimum_amount, nonce, 'set_deposit_minimum');\r\n        require(MultisigControl(multisig_control_address).verify_signatures(signatures, message, nonce));\r\n        minimum_deposits[asset_source] = minimum_amount;\r\n        emit Asset_Deposit_Minimum_Set(asset_source, 0, minimum_amount);\r\n\r\n    }\r\n    function withdraw_asset(address asset_source, uint256 asset_id, uint256 amount, uint256 nonce, bytes memory signatures) public {\r\n        require(asset_id == 0, \"only root asset (0) allowed for ERC20\");\r\n        require(whitelisted_tokens[asset_source], \"asset not whitelisted\");\r\n\r\n        bytes memory message = abi.encode(asset_source, asset_id, amount, msg.sender,  nonce, 'withdraw_asset');\r\n        require(MultisigControl(multisig_control_address).verify_signatures(signatures, message, nonce), \"bad signatures\");\r\n\r\n        require(IERC20(asset_source).transfer(msg.sender, amount), \"token didn't transfer\");\r\n\r\n        emit Asset_Withdrawn(msg.sender, asset_source, 0, amount);\r\n    }\r\n    function deposit_asset(address asset_source, uint256 asset_id, uint256 amount, bytes32 vega_public_key) public {\r\n        require(asset_id == 0, \"only root asset (0) allowed for ERC20\");\r\n        require(whitelisted_tokens[asset_source], \"asset not whitelisted\");\r\n        //User must run approve before deposit\r\n        require(amount >= minimum_deposits[asset_source]);\r\n        require(IERC20(asset_source).transferFrom(msg.sender, address(this), amount));\r\n        emit Asset_Deposited(msg.sender, asset_source, 0, amount, vega_public_key);\r\n    }\r\n    function set_multisig_control(address new_multisig_contract_address) public onlyOwner {\r\n        multisig_control_address = new_multisig_contract_address;\r\n        emit Multisig_Control_Set(new_multisig_contract_address);\r\n    }\r\n\r\n    // VIEWS /////////////////\r\n    function is_asset_whitelisted(address asset_source, uint256 asset_id) public view returns(bool){\r\n        return whitelisted_tokens[asset_source] && asset_id == 0;\r\n    }\r\n    function get_deposit_minimum(address asset_source, uint256 asset_id) public view returns(uint256){\r\n        if(asset_id != 0){\r\n            return 0;\r\n        } else {\r\n            return minimum_deposits[asset_source];\r\n        }\r\n    }\r\n    function get_multisig_control_address() public view returns(address) {\r\n        return multisig_control_address;\r\n    }\r\n\r\n\r\n\r\n}\r\n    /*\r\n    //NOTE: making properties of a contract public only makes them publicly viewable, nothing can be changed w/o code in this contract\r\n    \r\n    //cuts down on spammers\r\n    mapping(address=> uint256) public token_deposit_minimums;\r\n    mapping(address=> bool) public valid_token_addresses;\r\n\r\n    function set_token_address_status(address token_address, bool new_status) public onlyOwner {\r\n        valid_token_addresses[token_address] = new_status;\r\n        emit Token_Contract_Address_Changed(token_address, new_status, now);\r\n    }\r\n\r\n    //balances available for withdraw\r\n    mapping(address => mapping(address => uint256)) public tokens_available;\r\n    mapping(address => uint256) public tokens_promised;\r\n\r\n    function get_asset_available_for_user(address user, address asset_source, uint256 asset_id) public view returns(uint256) {\r\n        require(asset_id == 0);\r\n        return tokens_available[asset_source][user];\r\n    }\r\n    function get_asset_promised_total(address asset_source, uint256 asset_id) public view returns(uint256) {\r\n        require(asset_id == 0);\r\n        return tokens_promised[asset_source];\r\n    }\r\n\r\n    function set_token_deposit_minimum(address token_address, uint256 new_minimum) public onlyOwner {\r\n        require(valid_token_addresses[token_address]);\r\n        token_deposit_minimums[token_address] = new_minimum;\r\n        emit Asset_Deposit_Minimum_Set(token_address, 0, new_minimum);\r\n    }\r\n    function get_deposit_minimum(address asset_source, uint256 asset_id) public view returns(uint256){\r\n        require(asset_id == 0);\r\n        return token_deposit_minimums[asset_source];\r\n    }\r\n    // 2 choices: use token_fallback pattern like ERC223\r\n    // or use the approve function of the ERC20 before calling this method\r\n    //user calls this with a wei value to deposit funds to the system\r\n    //funds are held on-contract\r\n    function deposit_asset(address token_address, uint256 token_bits, bytes memory vega_public_address) public {\r\n        require(valid_token_addresses[token_address]);\r\n        require(token_bits >= token_deposit_minimums[token_address]);\r\n        require(IERC20(token_address).transferFrom(msg.sender, address(this), token_bits));\r\n        emit Asset_Deposited(msg.sender, token_address, 0, token_bits, vega_public_address);\r\n    }\r\n\r\n    mapping(bytes32=> bool) public used_unique_ids;\r\n    function is_unique_id_used(bytes32 unique_id) public view returns(bool) {\r\n        return used_unique_ids[unique_id];\r\n    }\r\n    //once the private chain determines the user needs funds available on mainnet\r\n    //the server will call approve(this_token_address, token_bits)\r\n    //this creates a balance available to the user to withdraw\r\n    function make_asset_available(address user_address, address asset_source, uint256 asset_id, uint256 amount, bytes32 unique_id) public onlyOwner {\r\n        require(!used_unique_ids[unique_id], \"unique_id used\");\r\n        require(asset_id == 0);\r\n        require(valid_token_addresses[asset_source]);\r\n        require(tokens_promised[asset_source].add(amount) <= IERC20(asset_source).balanceOf(address(this)));\r\n        tokens_promised[asset_source] = tokens_promised[asset_source].add(amount);\r\n        tokens_available[asset_source][user_address] = tokens_available[asset_source][user_address].add(amount);\r\n        used_unique_ids[unique_id] = true;\r\n        emit Asset_Available(user_address, asset_source, asset_id, amount, unique_id);\r\n    }\r\n    \r\n    //once a user gets the notice (from the Wei_Available event)\r\n    //they will run this function to receive their wei\r\n    //the pull mechanism used here (rather than pushing directly to the user)\r\n    //is to avoid any sort of reentry attack or other problems related to sending \r\n    //directly to a malicious smart contract\r\n    function withdraw_asset(address token_address, uint256 amt) public {\r\n        require(valid_token_addresses[token_address]);\r\n        require(tokens_available[token_address][msg.sender] >= amt);\r\n        require(IERC20(token_address).transfer(msg.sender, amt));\r\n        tokens_promised[token_address] = tokens_promised[token_address].sub(amt);\r\n        tokens_available[token_address][msg.sender] = tokens_available[token_address][msg.sender].sub(amt);\r\n        emit Asset_Withdrawn(msg.sender, token_address, 0, amt);\r\n    }\r\n    \r\n    //Events\r\n    //note: blocktime included to cut down on RPC calls\r\n    event Asset_Available(address indexed user_address, address indexed asset_source, uint256 indexed asset_id, uint256 amount, bytes32 unique_id);\r\n    event Asset_Withdrawn(address indexed user_address, address indexed asset_source, uint256 indexed asset_id, uint256 amount);\r\n    event Asset_Deposited(address indexed user_address, address indexed asset_source, uint256 indexed asset_id, uint256 amount);\r\n    event Asset_Deposit_Minimum_Set(address indexed asset_source, uint256 indexed asset_id, uint256 new_minimum);\r\n\r\n    //These events use the same format: address, amt, blocktime\r\n    //this will be the initial format for an even queue for the server/side chain to process\r\n\r\n    event Deposit_Address_Set(address indexed token_address, address indexed new_address, uint256 blocktime);\r\n    event Token_Contract_Address_Changed(address indexed token_address, bool new_status, uint256 blocktime);\r\n    //NOTE in this model, we have no way of removing tokens off this contract, so if a user loses their keys,\r\n    //the tokens are locked to their address is stuck on this contract\r\n    //this can be dealt with by making an onlyOwner function of \"pull_tokens\" but then it gives us the opprotunity\r\n    //to be malicious, so I didn't add that function. This is advisarial thinking^3: even we are the enemy\r\n}*/",
  "sourcePath": "C:/Users/holla/OneDrive/Desktop/Source/Vega Protocol/Bridge Stuff/Multisig_Bridges/MultisigControl/contracts/Vega_Bridge_ERC20.sol",
  "compiler": {
    "name": "solc",
    "version": "0.5.16+commit.9c3226ce.Emscripten.clang"
  },
  "schemaVersion": "3.0.16",
  "updatedAt": "2020-04-13T22:48:08.887Z",
  "devdoc": {
    "methods": {
      "isOwner()": {
        "details": "Returns true if the caller is the current owner."
      },
      "owner()": {
        "details": "Returns the address of the current owner."
      },
      "renounceOwnership()": {
        "details": "Leaves the contract without owner. It will not be possible to call `onlyOwner` functions anymore. Can only be called by the current owner.      * NOTE: Renouncing ownership will leave the contract without an owner, thereby removing any functionality that is only available to the owner."
      },
      "transferOwnership(address)": {
        "details": "Transfers ownership of the contract to a new account (`newOwner`). Can only be called by the current owner."
      }
    }
  },
  "userdoc": {
    "methods": {
      "whitelist_asset(address,uint256,uint256,bytes)": {
        "notice": "********************END ADMIN******************************"
      },
      "whitelist_asset_admin(address,uint256)": {
        "notice": "********************ADMIN REMOVE BEFORE MAINNET******************************"
      }
    }
  }
}